
EEE3096S_2022_Prac_4_PWM_DAC_Student_Version.elf:     file format elf32-littlearm

Sections:
Idx Name          Size      VMA       LMA       File off  Algn
  0 .isr_vector   000000c0  08000000  08000000  00010000  2**0
                  CONTENTS, ALLOC, LOAD, READONLY, DATA
  1 .text         00002bb8  080000c0  080000c0  000100c0  2**2
                  CONTENTS, ALLOC, LOAD, READONLY, CODE
  2 .rodata       00000030  08002c78  08002c78  00012c78  2**2
                  CONTENTS, ALLOC, LOAD, READONLY, DATA
  3 .ARM.extab    00000000  08002ca8  08002ca8  00020978  2**0
                  CONTENTS
  4 .ARM          00000000  08002ca8  08002ca8  00020978  2**0
                  CONTENTS
  5 .preinit_array 00000000  08002ca8  08002ca8  00020978  2**0
                  CONTENTS, ALLOC, LOAD, DATA
  6 .init_array   00000004  08002ca8  08002ca8  00012ca8  2**2
                  CONTENTS, ALLOC, LOAD, DATA
  7 .fini_array   00000004  08002cac  08002cac  00012cac  2**2
                  CONTENTS, ALLOC, LOAD, DATA
  8 .data         00000978  20000000  08002cb0  00020000  2**2
                  CONTENTS, ALLOC, LOAD, DATA
  9 .bss          000000fc  20000978  08003628  00020978  2**2
                  ALLOC
 10 ._user_heap_stack 00000604  20000a74  08003628  00020a74  2**0
                  ALLOC
 11 .ARM.attributes 00000028  00000000  00000000  00020978  2**0
                  CONTENTS, READONLY
 12 .debug_info   0000850e  00000000  00000000  000209a0  2**0
                  CONTENTS, READONLY, DEBUGGING, OCTETS
 13 .debug_abbrev 000016a3  00000000  00000000  00028eae  2**0
                  CONTENTS, READONLY, DEBUGGING, OCTETS
 14 .debug_aranges 00000950  00000000  00000000  0002a558  2**3
                  CONTENTS, READONLY, DEBUGGING, OCTETS
 15 .debug_ranges 00000898  00000000  00000000  0002aea8  2**3
                  CONTENTS, READONLY, DEBUGGING, OCTETS
 16 .debug_macro  00010ed5  00000000  00000000  0002b740  2**0
                  CONTENTS, READONLY, DEBUGGING, OCTETS
 17 .debug_line   0000a51a  00000000  00000000  0003c615  2**0
                  CONTENTS, READONLY, DEBUGGING, OCTETS
 18 .debug_str    00068a35  00000000  00000000  00046b2f  2**0
                  CONTENTS, READONLY, DEBUGGING, OCTETS
 19 .comment      00000050  00000000  00000000  000af564  2**0
                  CONTENTS, READONLY
 20 .debug_frame  00002120  00000000  00000000  000af5b4  2**2
                  CONTENTS, READONLY, DEBUGGING, OCTETS

Disassembly of section .text:

080000c0 <__do_global_dtors_aux>:
 80000c0:	b510      	push	{r4, lr}
 80000c2:	4c06      	ldr	r4, [pc, #24]	; (80000dc <__do_global_dtors_aux+0x1c>)
 80000c4:	7823      	ldrb	r3, [r4, #0]
 80000c6:	2b00      	cmp	r3, #0
 80000c8:	d107      	bne.n	80000da <__do_global_dtors_aux+0x1a>
 80000ca:	4b05      	ldr	r3, [pc, #20]	; (80000e0 <__do_global_dtors_aux+0x20>)
 80000cc:	2b00      	cmp	r3, #0
 80000ce:	d002      	beq.n	80000d6 <__do_global_dtors_aux+0x16>
 80000d0:	4804      	ldr	r0, [pc, #16]	; (80000e4 <__do_global_dtors_aux+0x24>)
 80000d2:	e000      	b.n	80000d6 <__do_global_dtors_aux+0x16>
 80000d4:	bf00      	nop
 80000d6:	2301      	movs	r3, #1
 80000d8:	7023      	strb	r3, [r4, #0]
 80000da:	bd10      	pop	{r4, pc}
 80000dc:	20000978 	.word	0x20000978
 80000e0:	00000000 	.word	0x00000000
 80000e4:	08002c60 	.word	0x08002c60

080000e8 <frame_dummy>:
 80000e8:	4b04      	ldr	r3, [pc, #16]	; (80000fc <frame_dummy+0x14>)
 80000ea:	b510      	push	{r4, lr}
 80000ec:	2b00      	cmp	r3, #0
 80000ee:	d003      	beq.n	80000f8 <frame_dummy+0x10>
 80000f0:	4903      	ldr	r1, [pc, #12]	; (8000100 <frame_dummy+0x18>)
 80000f2:	4804      	ldr	r0, [pc, #16]	; (8000104 <frame_dummy+0x1c>)
 80000f4:	e000      	b.n	80000f8 <frame_dummy+0x10>
 80000f6:	bf00      	nop
 80000f8:	bd10      	pop	{r4, pc}
 80000fa:	46c0      	nop			; (mov r8, r8)
 80000fc:	00000000 	.word	0x00000000
 8000100:	2000097c 	.word	0x2000097c
 8000104:	08002c60 	.word	0x08002c60

08000108 <__udivsi3>:
 8000108:	2200      	movs	r2, #0
 800010a:	0843      	lsrs	r3, r0, #1
 800010c:	428b      	cmp	r3, r1
 800010e:	d374      	bcc.n	80001fa <__udivsi3+0xf2>
 8000110:	0903      	lsrs	r3, r0, #4
 8000112:	428b      	cmp	r3, r1
 8000114:	d35f      	bcc.n	80001d6 <__udivsi3+0xce>
 8000116:	0a03      	lsrs	r3, r0, #8
 8000118:	428b      	cmp	r3, r1
 800011a:	d344      	bcc.n	80001a6 <__udivsi3+0x9e>
 800011c:	0b03      	lsrs	r3, r0, #12
 800011e:	428b      	cmp	r3, r1
 8000120:	d328      	bcc.n	8000174 <__udivsi3+0x6c>
 8000122:	0c03      	lsrs	r3, r0, #16
 8000124:	428b      	cmp	r3, r1
 8000126:	d30d      	bcc.n	8000144 <__udivsi3+0x3c>
 8000128:	22ff      	movs	r2, #255	; 0xff
 800012a:	0209      	lsls	r1, r1, #8
 800012c:	ba12      	rev	r2, r2
 800012e:	0c03      	lsrs	r3, r0, #16
 8000130:	428b      	cmp	r3, r1
 8000132:	d302      	bcc.n	800013a <__udivsi3+0x32>
 8000134:	1212      	asrs	r2, r2, #8
 8000136:	0209      	lsls	r1, r1, #8
 8000138:	d065      	beq.n	8000206 <__udivsi3+0xfe>
 800013a:	0b03      	lsrs	r3, r0, #12
 800013c:	428b      	cmp	r3, r1
 800013e:	d319      	bcc.n	8000174 <__udivsi3+0x6c>
 8000140:	e000      	b.n	8000144 <__udivsi3+0x3c>
 8000142:	0a09      	lsrs	r1, r1, #8
 8000144:	0bc3      	lsrs	r3, r0, #15
 8000146:	428b      	cmp	r3, r1
 8000148:	d301      	bcc.n	800014e <__udivsi3+0x46>
 800014a:	03cb      	lsls	r3, r1, #15
 800014c:	1ac0      	subs	r0, r0, r3
 800014e:	4152      	adcs	r2, r2
 8000150:	0b83      	lsrs	r3, r0, #14
 8000152:	428b      	cmp	r3, r1
 8000154:	d301      	bcc.n	800015a <__udivsi3+0x52>
 8000156:	038b      	lsls	r3, r1, #14
 8000158:	1ac0      	subs	r0, r0, r3
 800015a:	4152      	adcs	r2, r2
 800015c:	0b43      	lsrs	r3, r0, #13
 800015e:	428b      	cmp	r3, r1
 8000160:	d301      	bcc.n	8000166 <__udivsi3+0x5e>
 8000162:	034b      	lsls	r3, r1, #13
 8000164:	1ac0      	subs	r0, r0, r3
 8000166:	4152      	adcs	r2, r2
 8000168:	0b03      	lsrs	r3, r0, #12
 800016a:	428b      	cmp	r3, r1
 800016c:	d301      	bcc.n	8000172 <__udivsi3+0x6a>
 800016e:	030b      	lsls	r3, r1, #12
 8000170:	1ac0      	subs	r0, r0, r3
 8000172:	4152      	adcs	r2, r2
 8000174:	0ac3      	lsrs	r3, r0, #11
 8000176:	428b      	cmp	r3, r1
 8000178:	d301      	bcc.n	800017e <__udivsi3+0x76>
 800017a:	02cb      	lsls	r3, r1, #11
 800017c:	1ac0      	subs	r0, r0, r3
 800017e:	4152      	adcs	r2, r2
 8000180:	0a83      	lsrs	r3, r0, #10
 8000182:	428b      	cmp	r3, r1
 8000184:	d301      	bcc.n	800018a <__udivsi3+0x82>
 8000186:	028b      	lsls	r3, r1, #10
 8000188:	1ac0      	subs	r0, r0, r3
 800018a:	4152      	adcs	r2, r2
 800018c:	0a43      	lsrs	r3, r0, #9
 800018e:	428b      	cmp	r3, r1
 8000190:	d301      	bcc.n	8000196 <__udivsi3+0x8e>
 8000192:	024b      	lsls	r3, r1, #9
 8000194:	1ac0      	subs	r0, r0, r3
 8000196:	4152      	adcs	r2, r2
 8000198:	0a03      	lsrs	r3, r0, #8
 800019a:	428b      	cmp	r3, r1
 800019c:	d301      	bcc.n	80001a2 <__udivsi3+0x9a>
 800019e:	020b      	lsls	r3, r1, #8
 80001a0:	1ac0      	subs	r0, r0, r3
 80001a2:	4152      	adcs	r2, r2
 80001a4:	d2cd      	bcs.n	8000142 <__udivsi3+0x3a>
 80001a6:	09c3      	lsrs	r3, r0, #7
 80001a8:	428b      	cmp	r3, r1
 80001aa:	d301      	bcc.n	80001b0 <__udivsi3+0xa8>
 80001ac:	01cb      	lsls	r3, r1, #7
 80001ae:	1ac0      	subs	r0, r0, r3
 80001b0:	4152      	adcs	r2, r2
 80001b2:	0983      	lsrs	r3, r0, #6
 80001b4:	428b      	cmp	r3, r1
 80001b6:	d301      	bcc.n	80001bc <__udivsi3+0xb4>
 80001b8:	018b      	lsls	r3, r1, #6
 80001ba:	1ac0      	subs	r0, r0, r3
 80001bc:	4152      	adcs	r2, r2
 80001be:	0943      	lsrs	r3, r0, #5
 80001c0:	428b      	cmp	r3, r1
 80001c2:	d301      	bcc.n	80001c8 <__udivsi3+0xc0>
 80001c4:	014b      	lsls	r3, r1, #5
 80001c6:	1ac0      	subs	r0, r0, r3
 80001c8:	4152      	adcs	r2, r2
 80001ca:	0903      	lsrs	r3, r0, #4
 80001cc:	428b      	cmp	r3, r1
 80001ce:	d301      	bcc.n	80001d4 <__udivsi3+0xcc>
 80001d0:	010b      	lsls	r3, r1, #4
 80001d2:	1ac0      	subs	r0, r0, r3
 80001d4:	4152      	adcs	r2, r2
 80001d6:	08c3      	lsrs	r3, r0, #3
 80001d8:	428b      	cmp	r3, r1
 80001da:	d301      	bcc.n	80001e0 <__udivsi3+0xd8>
 80001dc:	00cb      	lsls	r3, r1, #3
 80001de:	1ac0      	subs	r0, r0, r3
 80001e0:	4152      	adcs	r2, r2
 80001e2:	0883      	lsrs	r3, r0, #2
 80001e4:	428b      	cmp	r3, r1
 80001e6:	d301      	bcc.n	80001ec <__udivsi3+0xe4>
 80001e8:	008b      	lsls	r3, r1, #2
 80001ea:	1ac0      	subs	r0, r0, r3
 80001ec:	4152      	adcs	r2, r2
 80001ee:	0843      	lsrs	r3, r0, #1
 80001f0:	428b      	cmp	r3, r1
 80001f2:	d301      	bcc.n	80001f8 <__udivsi3+0xf0>
 80001f4:	004b      	lsls	r3, r1, #1
 80001f6:	1ac0      	subs	r0, r0, r3
 80001f8:	4152      	adcs	r2, r2
 80001fa:	1a41      	subs	r1, r0, r1
 80001fc:	d200      	bcs.n	8000200 <__udivsi3+0xf8>
 80001fe:	4601      	mov	r1, r0
 8000200:	4152      	adcs	r2, r2
 8000202:	4610      	mov	r0, r2
 8000204:	4770      	bx	lr
 8000206:	e7ff      	b.n	8000208 <__udivsi3+0x100>
 8000208:	b501      	push	{r0, lr}
 800020a:	2000      	movs	r0, #0
 800020c:	f000 f806 	bl	800021c <__aeabi_idiv0>
 8000210:	bd02      	pop	{r1, pc}
 8000212:	46c0      	nop			; (mov r8, r8)

08000214 <__aeabi_uidivmod>:
 8000214:	2900      	cmp	r1, #0
 8000216:	d0f7      	beq.n	8000208 <__udivsi3+0x100>
 8000218:	e776      	b.n	8000108 <__udivsi3>
 800021a:	4770      	bx	lr

0800021c <__aeabi_idiv0>:
 800021c:	4770      	bx	lr
 800021e:	46c0      	nop			; (mov r8, r8)

08000220 <main>:
/**
  * @brief  The application entry point.
  * @retval int
  */
int main(void)
{
 8000220:	b580      	push	{r7, lr}
 8000222:	af00      	add	r7, sp, #0
  /* USER CODE END 1 */

  /* MCU Configuration--------------------------------------------------------*/

  /* Reset of all peripherals, Initializes the Flash interface and the Systick. */
  HAL_Init();
 8000224:	f000 fb8e 	bl	8000944 <HAL_Init>
  /* USER CODE BEGIN Init */

  /* USER CODE END Init */

  /* Configure the system clock */
  SystemClock_Config();
 8000228:	f000 f838 	bl	800029c <SystemClock_Config>
  /* USER CODE BEGIN SysInit */

  /* USER CODE END SysInit */

  /* Initialize all configured peripherals */
  MX_GPIO_Init();
 800022c:	f000 f99c 	bl	8000568 <MX_GPIO_Init>
  MX_DMA_Init();
 8000230:	f000 f97c 	bl	800052c <MX_DMA_Init>
  MX_TIM2_Init();
 8000234:	f000 f87c 	bl	8000330 <MX_TIM2_Init>
  MX_TIM3_Init();
 8000238:	f000 f8f8 	bl	800042c <MX_TIM3_Init>
  /* USER CODE BEGIN 2 */

  //TO DO:
  //TASK 4
  //Start TIM3 in PWM mode on channel 1
  HAL_TIM_PWM_Start(&htim3, TIM_CHANNEL_1);
 800023c:	4b10      	ldr	r3, [pc, #64]	; (8000280 <main+0x60>)
 800023e:	2100      	movs	r1, #0
 8000240:	0018      	movs	r0, r3
 8000242:	f001 fe9f 	bl	8001f84 <HAL_TIM_PWM_Start>

  //Start TIM2 in Output Compare (OC) mode on channel 1.
  HAL_TIM_OC_Start_IT(&htim2, TIM_CHANNEL_1);
 8000246:	4b0f      	ldr	r3, [pc, #60]	; (8000284 <main+0x64>)
 8000248:	2100      	movs	r1, #0
 800024a:	0018      	movs	r0, r3
 800024c:	f001 fd42 	bl	8001cd4 <HAL_TIM_OC_Start_IT>

  //Start the DMA in interrupt (IT) mode.
  SrcAddress = (uint32_t)&(sin_LUT);
 8000250:	4a0d      	ldr	r2, [pc, #52]	; (8000288 <main+0x68>)
 8000252:	4b0e      	ldr	r3, [pc, #56]	; (800028c <main+0x6c>)
 8000254:	601a      	str	r2, [r3, #0]
  DestAddress = (uint32_t) &(TIM3->CCR1);
 8000256:	4b0e      	ldr	r3, [pc, #56]	; (8000290 <main+0x70>)
 8000258:	4a0e      	ldr	r2, [pc, #56]	; (8000294 <main+0x74>)
 800025a:	601a      	str	r2, [r3, #0]
  HAL_DMA_Start_IT(&hdma_tim2_ch1, SrcAddress, DestAddress, NS);
 800025c:	4b0b      	ldr	r3, [pc, #44]	; (800028c <main+0x6c>)
 800025e:	6819      	ldr	r1, [r3, #0]
 8000260:	4b0b      	ldr	r3, [pc, #44]	; (8000290 <main+0x70>)
 8000262:	681a      	ldr	r2, [r3, #0]
 8000264:	480c      	ldr	r0, [pc, #48]	; (8000298 <main+0x78>)
 8000266:	23c8      	movs	r3, #200	; 0xc8
 8000268:	f000 fcf6 	bl	8000c58 <HAL_DMA_Start_IT>

  //Start the DMA transfer
  __HAL_TIM_ENABLE_DMA(&htim2, TIM_DMA_CC1);
 800026c:	4b05      	ldr	r3, [pc, #20]	; (8000284 <main+0x64>)
 800026e:	681b      	ldr	r3, [r3, #0]
 8000270:	68da      	ldr	r2, [r3, #12]
 8000272:	4b04      	ldr	r3, [pc, #16]	; (8000284 <main+0x64>)
 8000274:	681b      	ldr	r3, [r3, #0]
 8000276:	2180      	movs	r1, #128	; 0x80
 8000278:	0089      	lsls	r1, r1, #2
 800027a:	430a      	orrs	r2, r1
 800027c:	60da      	str	r2, [r3, #12]

  /* USER CODE END 2 */

  /* Infinite loop */
  /* USER CODE BEGIN WHILE */
  while (1)
 800027e:	e7fe      	b.n	800027e <main+0x5e>
 8000280:	200009dc 	.word	0x200009dc
 8000284:	20000994 	.word	0x20000994
 8000288:	20000000 	.word	0x20000000
 800028c:	20000a68 	.word	0x20000a68
 8000290:	20000a6c 	.word	0x20000a6c
 8000294:	40000434 	.word	0x40000434
 8000298:	20000a24 	.word	0x20000a24

0800029c <SystemClock_Config>:
/**
  * @brief System Clock Configuration
  * @retval None
  */
void SystemClock_Config(void)
{
 800029c:	b590      	push	{r4, r7, lr}
 800029e:	b091      	sub	sp, #68	; 0x44
 80002a0:	af00      	add	r7, sp, #0
  RCC_OscInitTypeDef RCC_OscInitStruct = {0};
 80002a2:	2410      	movs	r4, #16
 80002a4:	193b      	adds	r3, r7, r4
 80002a6:	0018      	movs	r0, r3
 80002a8:	2330      	movs	r3, #48	; 0x30
 80002aa:	001a      	movs	r2, r3
 80002ac:	2100      	movs	r1, #0
 80002ae:	f002 fccf 	bl	8002c50 <memset>
  RCC_ClkInitTypeDef RCC_ClkInitStruct = {0};
 80002b2:	003b      	movs	r3, r7
 80002b4:	0018      	movs	r0, r3
 80002b6:	2310      	movs	r3, #16
 80002b8:	001a      	movs	r2, r3
 80002ba:	2100      	movs	r1, #0
 80002bc:	f002 fcc8 	bl	8002c50 <memset>

  /** Initializes the RCC Oscillators according to the specified parameters
  * in the RCC_OscInitTypeDef structure.
  */
  RCC_OscInitStruct.OscillatorType = RCC_OSCILLATORTYPE_HSI;
 80002c0:	0021      	movs	r1, r4
 80002c2:	187b      	adds	r3, r7, r1
 80002c4:	2202      	movs	r2, #2
 80002c6:	601a      	str	r2, [r3, #0]
  RCC_OscInitStruct.HSIState = RCC_HSI_ON;
 80002c8:	187b      	adds	r3, r7, r1
 80002ca:	2201      	movs	r2, #1
 80002cc:	60da      	str	r2, [r3, #12]
  RCC_OscInitStruct.HSICalibrationValue = RCC_HSICALIBRATION_DEFAULT;
 80002ce:	187b      	adds	r3, r7, r1
 80002d0:	2210      	movs	r2, #16
 80002d2:	611a      	str	r2, [r3, #16]
  RCC_OscInitStruct.PLL.PLLState = RCC_PLL_ON;
 80002d4:	187b      	adds	r3, r7, r1
 80002d6:	2202      	movs	r2, #2
 80002d8:	621a      	str	r2, [r3, #32]
  RCC_OscInitStruct.PLL.PLLSource = RCC_PLLSOURCE_HSI;
 80002da:	187b      	adds	r3, r7, r1
 80002dc:	2200      	movs	r2, #0
 80002de:	625a      	str	r2, [r3, #36]	; 0x24
  RCC_OscInitStruct.PLL.PLLMUL = RCC_PLL_MUL12;
 80002e0:	187b      	adds	r3, r7, r1
 80002e2:	22a0      	movs	r2, #160	; 0xa0
 80002e4:	0392      	lsls	r2, r2, #14
 80002e6:	629a      	str	r2, [r3, #40]	; 0x28
  RCC_OscInitStruct.PLL.PREDIV = RCC_PREDIV_DIV1;
 80002e8:	187b      	adds	r3, r7, r1
 80002ea:	2200      	movs	r2, #0
 80002ec:	62da      	str	r2, [r3, #44]	; 0x2c
  if (HAL_RCC_OscConfig(&RCC_OscInitStruct) != HAL_OK)
 80002ee:	187b      	adds	r3, r7, r1
 80002f0:	0018      	movs	r0, r3
 80002f2:	f000 fffb 	bl	80012ec <HAL_RCC_OscConfig>
 80002f6:	1e03      	subs	r3, r0, #0
 80002f8:	d001      	beq.n	80002fe <SystemClock_Config+0x62>
  {
    Error_Handler();
 80002fa:	f000 fa0b 	bl	8000714 <Error_Handler>
  }

  /** Initializes the CPU, AHB and APB buses clocks
  */
  RCC_ClkInitStruct.ClockType = RCC_CLOCKTYPE_HCLK|RCC_CLOCKTYPE_SYSCLK
 80002fe:	003b      	movs	r3, r7
 8000300:	2207      	movs	r2, #7
 8000302:	601a      	str	r2, [r3, #0]
                              |RCC_CLOCKTYPE_PCLK1;
  RCC_ClkInitStruct.SYSCLKSource = RCC_SYSCLKSOURCE_PLLCLK;
 8000304:	003b      	movs	r3, r7
 8000306:	2202      	movs	r2, #2
 8000308:	605a      	str	r2, [r3, #4]
  RCC_ClkInitStruct.AHBCLKDivider = RCC_SYSCLK_DIV1;
 800030a:	003b      	movs	r3, r7
 800030c:	2200      	movs	r2, #0
 800030e:	609a      	str	r2, [r3, #8]
  RCC_ClkInitStruct.APB1CLKDivider = RCC_HCLK_DIV1;
 8000310:	003b      	movs	r3, r7
 8000312:	2200      	movs	r2, #0
 8000314:	60da      	str	r2, [r3, #12]

  if (HAL_RCC_ClockConfig(&RCC_ClkInitStruct, FLASH_LATENCY_1) != HAL_OK)
 8000316:	003b      	movs	r3, r7
 8000318:	2101      	movs	r1, #1
 800031a:	0018      	movs	r0, r3
 800031c:	f001 fb00 	bl	8001920 <HAL_RCC_ClockConfig>
 8000320:	1e03      	subs	r3, r0, #0
 8000322:	d001      	beq.n	8000328 <SystemClock_Config+0x8c>
  {
    Error_Handler();
 8000324:	f000 f9f6 	bl	8000714 <Error_Handler>
  }
}
 8000328:	46c0      	nop			; (mov r8, r8)
 800032a:	46bd      	mov	sp, r7
 800032c:	b011      	add	sp, #68	; 0x44
 800032e:	bd90      	pop	{r4, r7, pc}

08000330 <MX_TIM2_Init>:
  * @brief TIM2 Initialization Function
  * @param None
  * @retval None
  */
static void MX_TIM2_Init(void)
{
 8000330:	b580      	push	{r7, lr}
 8000332:	b08e      	sub	sp, #56	; 0x38
 8000334:	af00      	add	r7, sp, #0

  /* USER CODE BEGIN TIM2_Init 0 */

  /* USER CODE END TIM2_Init 0 */

  TIM_ClockConfigTypeDef sClockSourceConfig = {0};
 8000336:	2328      	movs	r3, #40	; 0x28
 8000338:	18fb      	adds	r3, r7, r3
 800033a:	0018      	movs	r0, r3
 800033c:	2310      	movs	r3, #16
 800033e:	001a      	movs	r2, r3
 8000340:	2100      	movs	r1, #0
 8000342:	f002 fc85 	bl	8002c50 <memset>
  TIM_MasterConfigTypeDef sMasterConfig = {0};
 8000346:	2320      	movs	r3, #32
 8000348:	18fb      	adds	r3, r7, r3
 800034a:	0018      	movs	r0, r3
 800034c:	2308      	movs	r3, #8
 800034e:	001a      	movs	r2, r3
 8000350:	2100      	movs	r1, #0
 8000352:	f002 fc7d 	bl	8002c50 <memset>
  TIM_OC_InitTypeDef sConfigOC = {0};
 8000356:	1d3b      	adds	r3, r7, #4
 8000358:	0018      	movs	r0, r3
 800035a:	231c      	movs	r3, #28
 800035c:	001a      	movs	r2, r3
 800035e:	2100      	movs	r1, #0
 8000360:	f002 fc76 	bl	8002c50 <memset>

  /* USER CODE BEGIN TIM2_Init 1 */

  /* USER CODE END TIM2_Init 1 */
  htim2.Instance = TIM2;
 8000364:	4b2f      	ldr	r3, [pc, #188]	; (8000424 <MX_TIM2_Init+0xf4>)
 8000366:	2280      	movs	r2, #128	; 0x80
 8000368:	05d2      	lsls	r2, r2, #23
 800036a:	601a      	str	r2, [r3, #0]
  htim2.Init.Prescaler = 0;
 800036c:	4b2d      	ldr	r3, [pc, #180]	; (8000424 <MX_TIM2_Init+0xf4>)
 800036e:	2200      	movs	r2, #0
 8000370:	605a      	str	r2, [r3, #4]
  htim2.Init.CounterMode = TIM_COUNTERMODE_UP;
 8000372:	4b2c      	ldr	r3, [pc, #176]	; (8000424 <MX_TIM2_Init+0xf4>)
 8000374:	2200      	movs	r2, #0
 8000376:	609a      	str	r2, [r3, #8]
  htim2.Init.Period = TIM2_Ticks - 1; //To make the frequency what we want it to be
 8000378:	4b2b      	ldr	r3, [pc, #172]	; (8000428 <MX_TIM2_Init+0xf8>)
 800037a:	681b      	ldr	r3, [r3, #0]
 800037c:	1e5a      	subs	r2, r3, #1
 800037e:	4b29      	ldr	r3, [pc, #164]	; (8000424 <MX_TIM2_Init+0xf4>)
 8000380:	60da      	str	r2, [r3, #12]
  htim2.Init.ClockDivision = TIM_CLOCKDIVISION_DIV1;
 8000382:	4b28      	ldr	r3, [pc, #160]	; (8000424 <MX_TIM2_Init+0xf4>)
 8000384:	2200      	movs	r2, #0
 8000386:	611a      	str	r2, [r3, #16]
  htim2.Init.AutoReloadPreload = TIM_AUTORELOAD_PRELOAD_ENABLE;
 8000388:	4b26      	ldr	r3, [pc, #152]	; (8000424 <MX_TIM2_Init+0xf4>)
 800038a:	2280      	movs	r2, #128	; 0x80
 800038c:	619a      	str	r2, [r3, #24]
  if (HAL_TIM_Base_Init(&htim2) != HAL_OK)
 800038e:	4b25      	ldr	r3, [pc, #148]	; (8000424 <MX_TIM2_Init+0xf4>)
 8000390:	0018      	movs	r0, r3
 8000392:	f001 fbf7 	bl	8001b84 <HAL_TIM_Base_Init>
 8000396:	1e03      	subs	r3, r0, #0
 8000398:	d001      	beq.n	800039e <MX_TIM2_Init+0x6e>
  {
    Error_Handler();
 800039a:	f000 f9bb 	bl	8000714 <Error_Handler>
  }
  sClockSourceConfig.ClockSource = TIM_CLOCKSOURCE_INTERNAL;
 800039e:	2128      	movs	r1, #40	; 0x28
 80003a0:	187b      	adds	r3, r7, r1
 80003a2:	2280      	movs	r2, #128	; 0x80
 80003a4:	0152      	lsls	r2, r2, #5
 80003a6:	601a      	str	r2, [r3, #0]
  if (HAL_TIM_ConfigClockSource(&htim2, &sClockSourceConfig) != HAL_OK)
 80003a8:	187a      	adds	r2, r7, r1
 80003aa:	4b1e      	ldr	r3, [pc, #120]	; (8000424 <MX_TIM2_Init+0xf4>)
 80003ac:	0011      	movs	r1, r2
 80003ae:	0018      	movs	r0, r3
 80003b0:	f001 ffbe 	bl	8002330 <HAL_TIM_ConfigClockSource>
 80003b4:	1e03      	subs	r3, r0, #0
 80003b6:	d001      	beq.n	80003bc <MX_TIM2_Init+0x8c>
  {
    Error_Handler();
 80003b8:	f000 f9ac 	bl	8000714 <Error_Handler>
  }
  if (HAL_TIM_OC_Init(&htim2) != HAL_OK)
 80003bc:	4b19      	ldr	r3, [pc, #100]	; (8000424 <MX_TIM2_Init+0xf4>)
 80003be:	0018      	movs	r0, r3
 80003c0:	f001 fc30 	bl	8001c24 <HAL_TIM_OC_Init>
 80003c4:	1e03      	subs	r3, r0, #0
 80003c6:	d001      	beq.n	80003cc <MX_TIM2_Init+0x9c>
  {
    Error_Handler();
 80003c8:	f000 f9a4 	bl	8000714 <Error_Handler>
  }
  sMasterConfig.MasterOutputTrigger = TIM_TRGO_RESET;
 80003cc:	2120      	movs	r1, #32
 80003ce:	187b      	adds	r3, r7, r1
 80003d0:	2200      	movs	r2, #0
 80003d2:	601a      	str	r2, [r3, #0]
  sMasterConfig.MasterSlaveMode = TIM_MASTERSLAVEMODE_DISABLE;
 80003d4:	187b      	adds	r3, r7, r1
 80003d6:	2200      	movs	r2, #0
 80003d8:	605a      	str	r2, [r3, #4]
  if (HAL_TIMEx_MasterConfigSynchronization(&htim2, &sMasterConfig) != HAL_OK)
 80003da:	187a      	adds	r2, r7, r1
 80003dc:	4b11      	ldr	r3, [pc, #68]	; (8000424 <MX_TIM2_Init+0xf4>)
 80003de:	0011      	movs	r1, r2
 80003e0:	0018      	movs	r0, r3
 80003e2:	f002 fbb3 	bl	8002b4c <HAL_TIMEx_MasterConfigSynchronization>
 80003e6:	1e03      	subs	r3, r0, #0
 80003e8:	d001      	beq.n	80003ee <MX_TIM2_Init+0xbe>
  {
    Error_Handler();
 80003ea:	f000 f993 	bl	8000714 <Error_Handler>
  }
  sConfigOC.OCMode = TIM_OCMODE_TIMING;
 80003ee:	1d3b      	adds	r3, r7, #4
 80003f0:	2200      	movs	r2, #0
 80003f2:	601a      	str	r2, [r3, #0]
  sConfigOC.Pulse = 0;
 80003f4:	1d3b      	adds	r3, r7, #4
 80003f6:	2200      	movs	r2, #0
 80003f8:	605a      	str	r2, [r3, #4]
  sConfigOC.OCPolarity = TIM_OCPOLARITY_HIGH;
 80003fa:	1d3b      	adds	r3, r7, #4
 80003fc:	2200      	movs	r2, #0
 80003fe:	609a      	str	r2, [r3, #8]
  sConfigOC.OCFastMode = TIM_OCFAST_DISABLE;
 8000400:	1d3b      	adds	r3, r7, #4
 8000402:	2200      	movs	r2, #0
 8000404:	611a      	str	r2, [r3, #16]
  if (HAL_TIM_OC_ConfigChannel(&htim2, &sConfigOC, TIM_CHANNEL_1) != HAL_OK)
 8000406:	1d39      	adds	r1, r7, #4
 8000408:	4b06      	ldr	r3, [pc, #24]	; (8000424 <MX_TIM2_Init+0xf4>)
 800040a:	2200      	movs	r2, #0
 800040c:	0018      	movs	r0, r3
 800040e:	f001 fe71 	bl	80020f4 <HAL_TIM_OC_ConfigChannel>
 8000412:	1e03      	subs	r3, r0, #0
 8000414:	d001      	beq.n	800041a <MX_TIM2_Init+0xea>
  {
    Error_Handler();
 8000416:	f000 f97d 	bl	8000714 <Error_Handler>
  }
  /* USER CODE BEGIN TIM2_Init 2 */

  /* USER CODE END TIM2_Init 2 */

}
 800041a:	46c0      	nop			; (mov r8, r8)
 800041c:	46bd      	mov	sp, r7
 800041e:	b00e      	add	sp, #56	; 0x38
 8000420:	bd80      	pop	{r7, pc}
 8000422:	46c0      	nop			; (mov r8, r8)
 8000424:	20000994 	.word	0x20000994
 8000428:	20000960 	.word	0x20000960

0800042c <MX_TIM3_Init>:
  * @brief TIM3 Initialization Function
  * @param None
  * @retval None
  */
static void MX_TIM3_Init(void)
{
 800042c:	b580      	push	{r7, lr}
 800042e:	b08e      	sub	sp, #56	; 0x38
 8000430:	af00      	add	r7, sp, #0

  /* USER CODE BEGIN TIM3_Init 0 */

  /* USER CODE END TIM3_Init 0 */

  TIM_ClockConfigTypeDef sClockSourceConfig = {0};
 8000432:	2328      	movs	r3, #40	; 0x28
 8000434:	18fb      	adds	r3, r7, r3
 8000436:	0018      	movs	r0, r3
 8000438:	2310      	movs	r3, #16
 800043a:	001a      	movs	r2, r3
 800043c:	2100      	movs	r1, #0
 800043e:	f002 fc07 	bl	8002c50 <memset>
  TIM_MasterConfigTypeDef sMasterConfig = {0};
 8000442:	2320      	movs	r3, #32
 8000444:	18fb      	adds	r3, r7, r3
 8000446:	0018      	movs	r0, r3
 8000448:	2308      	movs	r3, #8
 800044a:	001a      	movs	r2, r3
 800044c:	2100      	movs	r1, #0
 800044e:	f002 fbff 	bl	8002c50 <memset>
  TIM_OC_InitTypeDef sConfigOC = {0};
 8000452:	1d3b      	adds	r3, r7, #4
 8000454:	0018      	movs	r0, r3
 8000456:	231c      	movs	r3, #28
 8000458:	001a      	movs	r2, r3
 800045a:	2100      	movs	r1, #0
 800045c:	f002 fbf8 	bl	8002c50 <memset>

  /* USER CODE BEGIN TIM3_Init 1 */

  /* USER CODE END TIM3_Init 1 */
  htim3.Instance = TIM3;
 8000460:	4b2f      	ldr	r3, [pc, #188]	; (8000520 <MX_TIM3_Init+0xf4>)
 8000462:	4a30      	ldr	r2, [pc, #192]	; (8000524 <MX_TIM3_Init+0xf8>)
 8000464:	601a      	str	r2, [r3, #0]
  htim3.Init.Prescaler = 0;
 8000466:	4b2e      	ldr	r3, [pc, #184]	; (8000520 <MX_TIM3_Init+0xf4>)
 8000468:	2200      	movs	r2, #0
 800046a:	605a      	str	r2, [r3, #4]
  htim3.Init.CounterMode = TIM_COUNTERMODE_UP;
 800046c:	4b2c      	ldr	r3, [pc, #176]	; (8000520 <MX_TIM3_Init+0xf4>)
 800046e:	2200      	movs	r2, #0
 8000470:	609a      	str	r2, [r3, #8]
  htim3.Init.Period = 1023;
 8000472:	4b2b      	ldr	r3, [pc, #172]	; (8000520 <MX_TIM3_Init+0xf4>)
 8000474:	4a2c      	ldr	r2, [pc, #176]	; (8000528 <MX_TIM3_Init+0xfc>)
 8000476:	60da      	str	r2, [r3, #12]
  htim3.Init.ClockDivision = TIM_CLOCKDIVISION_DIV1;
 8000478:	4b29      	ldr	r3, [pc, #164]	; (8000520 <MX_TIM3_Init+0xf4>)
 800047a:	2200      	movs	r2, #0
 800047c:	611a      	str	r2, [r3, #16]
  htim3.Init.AutoReloadPreload = TIM_AUTORELOAD_PRELOAD_ENABLE;
 800047e:	4b28      	ldr	r3, [pc, #160]	; (8000520 <MX_TIM3_Init+0xf4>)
 8000480:	2280      	movs	r2, #128	; 0x80
 8000482:	619a      	str	r2, [r3, #24]
  if (HAL_TIM_Base_Init(&htim3) != HAL_OK)
 8000484:	4b26      	ldr	r3, [pc, #152]	; (8000520 <MX_TIM3_Init+0xf4>)
 8000486:	0018      	movs	r0, r3
 8000488:	f001 fb7c 	bl	8001b84 <HAL_TIM_Base_Init>
 800048c:	1e03      	subs	r3, r0, #0
 800048e:	d001      	beq.n	8000494 <MX_TIM3_Init+0x68>
  {
    Error_Handler();
 8000490:	f000 f940 	bl	8000714 <Error_Handler>
  }
  sClockSourceConfig.ClockSource = TIM_CLOCKSOURCE_INTERNAL;
 8000494:	2128      	movs	r1, #40	; 0x28
 8000496:	187b      	adds	r3, r7, r1
 8000498:	2280      	movs	r2, #128	; 0x80
 800049a:	0152      	lsls	r2, r2, #5
 800049c:	601a      	str	r2, [r3, #0]
  if (HAL_TIM_ConfigClockSource(&htim3, &sClockSourceConfig) != HAL_OK)
 800049e:	187a      	adds	r2, r7, r1
 80004a0:	4b1f      	ldr	r3, [pc, #124]	; (8000520 <MX_TIM3_Init+0xf4>)
 80004a2:	0011      	movs	r1, r2
 80004a4:	0018      	movs	r0, r3
 80004a6:	f001 ff43 	bl	8002330 <HAL_TIM_ConfigClockSource>
 80004aa:	1e03      	subs	r3, r0, #0
 80004ac:	d001      	beq.n	80004b2 <MX_TIM3_Init+0x86>
  {
    Error_Handler();
 80004ae:	f000 f931 	bl	8000714 <Error_Handler>
  }
  if (HAL_TIM_PWM_Init(&htim3) != HAL_OK)
 80004b2:	4b1b      	ldr	r3, [pc, #108]	; (8000520 <MX_TIM3_Init+0xf4>)
 80004b4:	0018      	movs	r0, r3
 80004b6:	f001 fd0d 	bl	8001ed4 <HAL_TIM_PWM_Init>
 80004ba:	1e03      	subs	r3, r0, #0
 80004bc:	d001      	beq.n	80004c2 <MX_TIM3_Init+0x96>
  {
    Error_Handler();
 80004be:	f000 f929 	bl	8000714 <Error_Handler>
  }
  sMasterConfig.MasterOutputTrigger = TIM_TRGO_RESET;
 80004c2:	2120      	movs	r1, #32
 80004c4:	187b      	adds	r3, r7, r1
 80004c6:	2200      	movs	r2, #0
 80004c8:	601a      	str	r2, [r3, #0]
  sMasterConfig.MasterSlaveMode = TIM_MASTERSLAVEMODE_DISABLE;
 80004ca:	187b      	adds	r3, r7, r1
 80004cc:	2200      	movs	r2, #0
 80004ce:	605a      	str	r2, [r3, #4]
  if (HAL_TIMEx_MasterConfigSynchronization(&htim3, &sMasterConfig) != HAL_OK)
 80004d0:	187a      	adds	r2, r7, r1
 80004d2:	4b13      	ldr	r3, [pc, #76]	; (8000520 <MX_TIM3_Init+0xf4>)
 80004d4:	0011      	movs	r1, r2
 80004d6:	0018      	movs	r0, r3
 80004d8:	f002 fb38 	bl	8002b4c <HAL_TIMEx_MasterConfigSynchronization>
 80004dc:	1e03      	subs	r3, r0, #0
 80004de:	d001      	beq.n	80004e4 <MX_TIM3_Init+0xb8>
  {
    Error_Handler();
 80004e0:	f000 f918 	bl	8000714 <Error_Handler>
  }
  sConfigOC.OCMode = TIM_OCMODE_PWM1;
 80004e4:	1d3b      	adds	r3, r7, #4
 80004e6:	2260      	movs	r2, #96	; 0x60
 80004e8:	601a      	str	r2, [r3, #0]
  sConfigOC.Pulse = 0;
 80004ea:	1d3b      	adds	r3, r7, #4
 80004ec:	2200      	movs	r2, #0
 80004ee:	605a      	str	r2, [r3, #4]
  sConfigOC.OCPolarity = TIM_OCPOLARITY_HIGH;
 80004f0:	1d3b      	adds	r3, r7, #4
 80004f2:	2200      	movs	r2, #0
 80004f4:	609a      	str	r2, [r3, #8]
  sConfigOC.OCFastMode = TIM_OCFAST_DISABLE;
 80004f6:	1d3b      	adds	r3, r7, #4
 80004f8:	2200      	movs	r2, #0
 80004fa:	611a      	str	r2, [r3, #16]
  if (HAL_TIM_PWM_ConfigChannel(&htim3, &sConfigOC, TIM_CHANNEL_1) != HAL_OK)
 80004fc:	1d39      	adds	r1, r7, #4
 80004fe:	4b08      	ldr	r3, [pc, #32]	; (8000520 <MX_TIM3_Init+0xf4>)
 8000500:	2200      	movs	r2, #0
 8000502:	0018      	movs	r0, r3
 8000504:	f001 fe4e 	bl	80021a4 <HAL_TIM_PWM_ConfigChannel>
 8000508:	1e03      	subs	r3, r0, #0
 800050a:	d001      	beq.n	8000510 <MX_TIM3_Init+0xe4>
  {
    Error_Handler();
 800050c:	f000 f902 	bl	8000714 <Error_Handler>
  }
  /* USER CODE BEGIN TIM3_Init 2 */

  /* USER CODE END TIM3_Init 2 */
  HAL_TIM_MspPostInit(&htim3);
 8000510:	4b03      	ldr	r3, [pc, #12]	; (8000520 <MX_TIM3_Init+0xf4>)
 8000512:	0018      	movs	r0, r3
 8000514:	f000 f984 	bl	8000820 <HAL_TIM_MspPostInit>

}
 8000518:	46c0      	nop			; (mov r8, r8)
 800051a:	46bd      	mov	sp, r7
 800051c:	b00e      	add	sp, #56	; 0x38
 800051e:	bd80      	pop	{r7, pc}
 8000520:	200009dc 	.word	0x200009dc
 8000524:	40000400 	.word	0x40000400
 8000528:	000003ff 	.word	0x000003ff

0800052c <MX_DMA_Init>:

/**
  * Enable DMA controller clock
  */
static void MX_DMA_Init(void)
{
 800052c:	b580      	push	{r7, lr}
 800052e:	b082      	sub	sp, #8
 8000530:	af00      	add	r7, sp, #0

  /* DMA controller clock enable */
  __HAL_RCC_DMA1_CLK_ENABLE();
 8000532:	4b0c      	ldr	r3, [pc, #48]	; (8000564 <MX_DMA_Init+0x38>)
 8000534:	695a      	ldr	r2, [r3, #20]
 8000536:	4b0b      	ldr	r3, [pc, #44]	; (8000564 <MX_DMA_Init+0x38>)
 8000538:	2101      	movs	r1, #1
 800053a:	430a      	orrs	r2, r1
 800053c:	615a      	str	r2, [r3, #20]
 800053e:	4b09      	ldr	r3, [pc, #36]	; (8000564 <MX_DMA_Init+0x38>)
 8000540:	695b      	ldr	r3, [r3, #20]
 8000542:	2201      	movs	r2, #1
 8000544:	4013      	ands	r3, r2
 8000546:	607b      	str	r3, [r7, #4]
 8000548:	687b      	ldr	r3, [r7, #4]

  /* DMA interrupt init */
  /* DMA1_Channel4_5_IRQn interrupt configuration */
  HAL_NVIC_SetPriority(DMA1_Channel4_5_IRQn, 0, 0);
 800054a:	2200      	movs	r2, #0
 800054c:	2100      	movs	r1, #0
 800054e:	200b      	movs	r0, #11
 8000550:	f000 fb08 	bl	8000b64 <HAL_NVIC_SetPriority>
  HAL_NVIC_EnableIRQ(DMA1_Channel4_5_IRQn);
 8000554:	200b      	movs	r0, #11
 8000556:	f000 fb1a 	bl	8000b8e <HAL_NVIC_EnableIRQ>

}
 800055a:	46c0      	nop			; (mov r8, r8)
 800055c:	46bd      	mov	sp, r7
 800055e:	b002      	add	sp, #8
 8000560:	bd80      	pop	{r7, pc}
 8000562:	46c0      	nop			; (mov r8, r8)
 8000564:	40021000 	.word	0x40021000

08000568 <MX_GPIO_Init>:
  * @brief GPIO Initialization Function
  * @param None
  * @retval None
  */
static void MX_GPIO_Init(void)
{
 8000568:	b590      	push	{r4, r7, lr}
 800056a:	b089      	sub	sp, #36	; 0x24
 800056c:	af00      	add	r7, sp, #0
  GPIO_InitTypeDef GPIO_InitStruct = {0};
 800056e:	240c      	movs	r4, #12
 8000570:	193b      	adds	r3, r7, r4
 8000572:	0018      	movs	r0, r3
 8000574:	2314      	movs	r3, #20
 8000576:	001a      	movs	r2, r3
 8000578:	2100      	movs	r1, #0
 800057a:	f002 fb69 	bl	8002c50 <memset>

  /* GPIO Ports Clock Enable */
  __HAL_RCC_GPIOF_CLK_ENABLE();
 800057e:	4b31      	ldr	r3, [pc, #196]	; (8000644 <MX_GPIO_Init+0xdc>)
 8000580:	695a      	ldr	r2, [r3, #20]
 8000582:	4b30      	ldr	r3, [pc, #192]	; (8000644 <MX_GPIO_Init+0xdc>)
 8000584:	2180      	movs	r1, #128	; 0x80
 8000586:	03c9      	lsls	r1, r1, #15
 8000588:	430a      	orrs	r2, r1
 800058a:	615a      	str	r2, [r3, #20]
 800058c:	4b2d      	ldr	r3, [pc, #180]	; (8000644 <MX_GPIO_Init+0xdc>)
 800058e:	695a      	ldr	r2, [r3, #20]
 8000590:	2380      	movs	r3, #128	; 0x80
 8000592:	03db      	lsls	r3, r3, #15
 8000594:	4013      	ands	r3, r2
 8000596:	60bb      	str	r3, [r7, #8]
 8000598:	68bb      	ldr	r3, [r7, #8]
  __HAL_RCC_GPIOA_CLK_ENABLE();
 800059a:	4b2a      	ldr	r3, [pc, #168]	; (8000644 <MX_GPIO_Init+0xdc>)
 800059c:	695a      	ldr	r2, [r3, #20]
 800059e:	4b29      	ldr	r3, [pc, #164]	; (8000644 <MX_GPIO_Init+0xdc>)
 80005a0:	2180      	movs	r1, #128	; 0x80
 80005a2:	0289      	lsls	r1, r1, #10
 80005a4:	430a      	orrs	r2, r1
 80005a6:	615a      	str	r2, [r3, #20]
 80005a8:	4b26      	ldr	r3, [pc, #152]	; (8000644 <MX_GPIO_Init+0xdc>)
 80005aa:	695a      	ldr	r2, [r3, #20]
 80005ac:	2380      	movs	r3, #128	; 0x80
 80005ae:	029b      	lsls	r3, r3, #10
 80005b0:	4013      	ands	r3, r2
 80005b2:	607b      	str	r3, [r7, #4]
 80005b4:	687b      	ldr	r3, [r7, #4]
  __HAL_RCC_GPIOC_CLK_ENABLE();
 80005b6:	4b23      	ldr	r3, [pc, #140]	; (8000644 <MX_GPIO_Init+0xdc>)
 80005b8:	695a      	ldr	r2, [r3, #20]
 80005ba:	4b22      	ldr	r3, [pc, #136]	; (8000644 <MX_GPIO_Init+0xdc>)
 80005bc:	2180      	movs	r1, #128	; 0x80
 80005be:	0309      	lsls	r1, r1, #12
 80005c0:	430a      	orrs	r2, r1
 80005c2:	615a      	str	r2, [r3, #20]
 80005c4:	4b1f      	ldr	r3, [pc, #124]	; (8000644 <MX_GPIO_Init+0xdc>)
 80005c6:	695a      	ldr	r2, [r3, #20]
 80005c8:	2380      	movs	r3, #128	; 0x80
 80005ca:	031b      	lsls	r3, r3, #12
 80005cc:	4013      	ands	r3, r2
 80005ce:	603b      	str	r3, [r7, #0]
 80005d0:	683b      	ldr	r3, [r7, #0]

  /*Configure GPIO pin Output Level */
  HAL_GPIO_WritePin(GPIOC, LD4_Pin|LD3_Pin, GPIO_PIN_RESET);
 80005d2:	23c0      	movs	r3, #192	; 0xc0
 80005d4:	009b      	lsls	r3, r3, #2
 80005d6:	481c      	ldr	r0, [pc, #112]	; (8000648 <MX_GPIO_Init+0xe0>)
 80005d8:	2200      	movs	r2, #0
 80005da:	0019      	movs	r1, r3
 80005dc:	f000 fe42 	bl	8001264 <HAL_GPIO_WritePin>

  /*Configure GPIO pin : PA0 */
  GPIO_InitStruct.Pin = GPIO_PIN_0;
 80005e0:	193b      	adds	r3, r7, r4
 80005e2:	2201      	movs	r2, #1
 80005e4:	601a      	str	r2, [r3, #0]
  GPIO_InitStruct.Mode = GPIO_MODE_IT_RISING;
 80005e6:	193b      	adds	r3, r7, r4
 80005e8:	2288      	movs	r2, #136	; 0x88
 80005ea:	0352      	lsls	r2, r2, #13
 80005ec:	605a      	str	r2, [r3, #4]
  GPIO_InitStruct.Pull = GPIO_NOPULL;
 80005ee:	193b      	adds	r3, r7, r4
 80005f0:	2200      	movs	r2, #0
 80005f2:	609a      	str	r2, [r3, #8]
  HAL_GPIO_Init(GPIOA, &GPIO_InitStruct);
 80005f4:	193a      	adds	r2, r7, r4
 80005f6:	2390      	movs	r3, #144	; 0x90
 80005f8:	05db      	lsls	r3, r3, #23
 80005fa:	0011      	movs	r1, r2
 80005fc:	0018      	movs	r0, r3
 80005fe:	f000 fcc1 	bl	8000f84 <HAL_GPIO_Init>

  /*Configure GPIO pins : LD4_Pin LD3_Pin */
  GPIO_InitStruct.Pin = LD4_Pin|LD3_Pin;
 8000602:	0021      	movs	r1, r4
 8000604:	187b      	adds	r3, r7, r1
 8000606:	22c0      	movs	r2, #192	; 0xc0
 8000608:	0092      	lsls	r2, r2, #2
 800060a:	601a      	str	r2, [r3, #0]
  GPIO_InitStruct.Mode = GPIO_MODE_OUTPUT_PP;
 800060c:	187b      	adds	r3, r7, r1
 800060e:	2201      	movs	r2, #1
 8000610:	605a      	str	r2, [r3, #4]
  GPIO_InitStruct.Pull = GPIO_NOPULL;
 8000612:	187b      	adds	r3, r7, r1
 8000614:	2200      	movs	r2, #0
 8000616:	609a      	str	r2, [r3, #8]
  GPIO_InitStruct.Speed = GPIO_SPEED_FREQ_LOW;
 8000618:	187b      	adds	r3, r7, r1
 800061a:	2200      	movs	r2, #0
 800061c:	60da      	str	r2, [r3, #12]
  HAL_GPIO_Init(GPIOC, &GPIO_InitStruct);
 800061e:	187b      	adds	r3, r7, r1
 8000620:	4a09      	ldr	r2, [pc, #36]	; (8000648 <MX_GPIO_Init+0xe0>)
 8000622:	0019      	movs	r1, r3
 8000624:	0010      	movs	r0, r2
 8000626:	f000 fcad 	bl	8000f84 <HAL_GPIO_Init>

  /* EXTI interrupt init*/
  HAL_NVIC_SetPriority(EXTI0_1_IRQn, 0, 0);
 800062a:	2200      	movs	r2, #0
 800062c:	2100      	movs	r1, #0
 800062e:	2005      	movs	r0, #5
 8000630:	f000 fa98 	bl	8000b64 <HAL_NVIC_SetPriority>
  HAL_NVIC_EnableIRQ(EXTI0_1_IRQn);
 8000634:	2005      	movs	r0, #5
 8000636:	f000 faaa 	bl	8000b8e <HAL_NVIC_EnableIRQ>

}
 800063a:	46c0      	nop			; (mov r8, r8)
 800063c:	46bd      	mov	sp, r7
 800063e:	b009      	add	sp, #36	; 0x24
 8000640:	bd90      	pop	{r4, r7, pc}
 8000642:	46c0      	nop			; (mov r8, r8)
 8000644:	40021000 	.word	0x40021000
 8000648:	48000800 	.word	0x48000800

0800064c <EXTI0_1_IRQHandler>:

/* USER CODE BEGIN 4 */
void EXTI0_1_IRQHandler(void)
{
 800064c:	b580      	push	{r7, lr}
 800064e:	af00      	add	r7, sp, #0
	//TO DO:
	//TASK 5
	//Disable DMA transfer, start DMA in IT mode with new source and re enable transfer
	//Remember to debounce using HAL_GetTick()

	if(HAL_GetTick() > (prevPress + 500)) {
 8000650:	f000 f9d2 	bl	80009f8 <HAL_GetTick>
 8000654:	0002      	movs	r2, r0
 8000656:	4b25      	ldr	r3, [pc, #148]	; (80006ec <EXTI0_1_IRQHandler+0xa0>)
 8000658:	681b      	ldr	r3, [r3, #0]
 800065a:	33f5      	adds	r3, #245	; 0xf5
 800065c:	33ff      	adds	r3, #255	; 0xff
 800065e:	429a      	cmp	r2, r3
 8000660:	d93d      	bls.n	80006de <EXTI0_1_IRQHandler+0x92>
		HAL_DMA_Abort_IT(&hdma_tim2_ch1);
 8000662:	4b23      	ldr	r3, [pc, #140]	; (80006f0 <EXTI0_1_IRQHandler+0xa4>)
 8000664:	0018      	movs	r0, r3
 8000666:	f000 fb5d 	bl	8000d24 <HAL_DMA_Abort_IT>
		switch (waveType) {
 800066a:	4b22      	ldr	r3, [pc, #136]	; (80006f4 <EXTI0_1_IRQHandler+0xa8>)
 800066c:	681b      	ldr	r3, [r3, #0]
 800066e:	2b01      	cmp	r3, #1
 8000670:	d002      	beq.n	8000678 <EXTI0_1_IRQHandler+0x2c>
 8000672:	2b02      	cmp	r3, #2
 8000674:	d00a      	beq.n	800068c <EXTI0_1_IRQHandler+0x40>
 8000676:	e013      	b.n	80006a0 <EXTI0_1_IRQHandler+0x54>
		case 1: //sinusoid
			SrcAddress = (uint32_t)&(sin_LUT);
 8000678:	4a1f      	ldr	r2, [pc, #124]	; (80006f8 <EXTI0_1_IRQHandler+0xac>)
 800067a:	4b20      	ldr	r3, [pc, #128]	; (80006fc <EXTI0_1_IRQHandler+0xb0>)
 800067c:	601a      	str	r2, [r3, #0]
			DestAddress = (uint32_t) &(TIM3->CCR1);
 800067e:	4b20      	ldr	r3, [pc, #128]	; (8000700 <EXTI0_1_IRQHandler+0xb4>)
 8000680:	4a20      	ldr	r2, [pc, #128]	; (8000704 <EXTI0_1_IRQHandler+0xb8>)
 8000682:	601a      	str	r2, [r3, #0]
			waveType = 2;
 8000684:	4b1b      	ldr	r3, [pc, #108]	; (80006f4 <EXTI0_1_IRQHandler+0xa8>)
 8000686:	2202      	movs	r2, #2
 8000688:	601a      	str	r2, [r3, #0]
			break;
 800068a:	e012      	b.n	80006b2 <EXTI0_1_IRQHandler+0x66>
		case 2: //sawtooth
			SrcAddress = (uint32_t)&(saw_LUT);
 800068c:	4a1e      	ldr	r2, [pc, #120]	; (8000708 <EXTI0_1_IRQHandler+0xbc>)
 800068e:	4b1b      	ldr	r3, [pc, #108]	; (80006fc <EXTI0_1_IRQHandler+0xb0>)
 8000690:	601a      	str	r2, [r3, #0]
			DestAddress = (uint32_t) &(TIM3->CCR1);
 8000692:	4b1b      	ldr	r3, [pc, #108]	; (8000700 <EXTI0_1_IRQHandler+0xb4>)
 8000694:	4a1b      	ldr	r2, [pc, #108]	; (8000704 <EXTI0_1_IRQHandler+0xb8>)
 8000696:	601a      	str	r2, [r3, #0]
			waveType = 3;
 8000698:	4b16      	ldr	r3, [pc, #88]	; (80006f4 <EXTI0_1_IRQHandler+0xa8>)
 800069a:	2203      	movs	r2, #3
 800069c:	601a      	str	r2, [r3, #0]
			break;
 800069e:	e008      	b.n	80006b2 <EXTI0_1_IRQHandler+0x66>
		default: //triangular
			SrcAddress = (uint32_t)&(triangle_LUT);
 80006a0:	4a1a      	ldr	r2, [pc, #104]	; (800070c <EXTI0_1_IRQHandler+0xc0>)
 80006a2:	4b16      	ldr	r3, [pc, #88]	; (80006fc <EXTI0_1_IRQHandler+0xb0>)
 80006a4:	601a      	str	r2, [r3, #0]
			DestAddress = (uint32_t) &(TIM3->CCR1);
 80006a6:	4b16      	ldr	r3, [pc, #88]	; (8000700 <EXTI0_1_IRQHandler+0xb4>)
 80006a8:	4a16      	ldr	r2, [pc, #88]	; (8000704 <EXTI0_1_IRQHandler+0xb8>)
 80006aa:	601a      	str	r2, [r3, #0]
			waveType = 1;
 80006ac:	4b11      	ldr	r3, [pc, #68]	; (80006f4 <EXTI0_1_IRQHandler+0xa8>)
 80006ae:	2201      	movs	r2, #1
 80006b0:	601a      	str	r2, [r3, #0]
		}
		prevPress = HAL_GetTick();
 80006b2:	f000 f9a1 	bl	80009f8 <HAL_GetTick>
 80006b6:	0002      	movs	r2, r0
 80006b8:	4b0c      	ldr	r3, [pc, #48]	; (80006ec <EXTI0_1_IRQHandler+0xa0>)
 80006ba:	601a      	str	r2, [r3, #0]

		HAL_DMA_Start_IT(&hdma_tim2_ch1, SrcAddress, DestAddress, NS);
 80006bc:	4b0f      	ldr	r3, [pc, #60]	; (80006fc <EXTI0_1_IRQHandler+0xb0>)
 80006be:	6819      	ldr	r1, [r3, #0]
 80006c0:	4b0f      	ldr	r3, [pc, #60]	; (8000700 <EXTI0_1_IRQHandler+0xb4>)
 80006c2:	681a      	ldr	r2, [r3, #0]
 80006c4:	480a      	ldr	r0, [pc, #40]	; (80006f0 <EXTI0_1_IRQHandler+0xa4>)
 80006c6:	23c8      	movs	r3, #200	; 0xc8
 80006c8:	f000 fac6 	bl	8000c58 <HAL_DMA_Start_IT>
		__HAL_TIM_ENABLE_DMA(&htim2, TIM_DMA_CC1);
 80006cc:	4b10      	ldr	r3, [pc, #64]	; (8000710 <EXTI0_1_IRQHandler+0xc4>)
 80006ce:	681b      	ldr	r3, [r3, #0]
 80006d0:	68da      	ldr	r2, [r3, #12]
 80006d2:	4b0f      	ldr	r3, [pc, #60]	; (8000710 <EXTI0_1_IRQHandler+0xc4>)
 80006d4:	681b      	ldr	r3, [r3, #0]
 80006d6:	2180      	movs	r1, #128	; 0x80
 80006d8:	0089      	lsls	r1, r1, #2
 80006da:	430a      	orrs	r2, r1
 80006dc:	60da      	str	r2, [r3, #12]
	}



	HAL_GPIO_EXTI_IRQHandler(GPIO_PIN_0); // Clear interrupt flags
 80006de:	2001      	movs	r0, #1
 80006e0:	f000 fdde 	bl	80012a0 <HAL_GPIO_EXTI_IRQHandler>
}
 80006e4:	46c0      	nop			; (mov r8, r8)
 80006e6:	46bd      	mov	sp, r7
 80006e8:	bd80      	pop	{r7, pc}
 80006ea:	46c0      	nop			; (mov r8, r8)
 80006ec:	20000964 	.word	0x20000964
 80006f0:	20000a24 	.word	0x20000a24
 80006f4:	20000968 	.word	0x20000968
 80006f8:	20000000 	.word	0x20000000
 80006fc:	20000a68 	.word	0x20000a68
 8000700:	20000a6c 	.word	0x20000a6c
 8000704:	40000434 	.word	0x40000434
 8000708:	20000320 	.word	0x20000320
 800070c:	20000640 	.word	0x20000640
 8000710:	20000994 	.word	0x20000994

08000714 <Error_Handler>:
/**
  * @brief  This function is executed in case of error occurrence.
  * @retval None
  */
void Error_Handler(void)
{
 8000714:	b580      	push	{r7, lr}
 8000716:	af00      	add	r7, sp, #0
  \details Disables IRQ interrupts by setting the I-bit in the CPSR.
           Can only be executed in Privileged modes.
 */
__STATIC_FORCEINLINE void __disable_irq(void)
{
  __ASM volatile ("cpsid i" : : : "memory");
 8000718:	b672      	cpsid	i
}
 800071a:	46c0      	nop			; (mov r8, r8)
  /* USER CODE BEGIN Error_Handler_Debug */
  /* User can add his own implementation to report the HAL error return state */
  __disable_irq();
  while (1)
 800071c:	e7fe      	b.n	800071c <Error_Handler+0x8>
	...

08000720 <HAL_MspInit>:
void HAL_TIM_MspPostInit(TIM_HandleTypeDef *htim);
                    /**
  * Initializes the Global MSP.
  */
void HAL_MspInit(void)
{
 8000720:	b580      	push	{r7, lr}
 8000722:	b082      	sub	sp, #8
 8000724:	af00      	add	r7, sp, #0
  /* USER CODE BEGIN MspInit 0 */

  /* USER CODE END MspInit 0 */

  __HAL_RCC_SYSCFG_CLK_ENABLE();
 8000726:	4b0f      	ldr	r3, [pc, #60]	; (8000764 <HAL_MspInit+0x44>)
 8000728:	699a      	ldr	r2, [r3, #24]
 800072a:	4b0e      	ldr	r3, [pc, #56]	; (8000764 <HAL_MspInit+0x44>)
 800072c:	2101      	movs	r1, #1
 800072e:	430a      	orrs	r2, r1
 8000730:	619a      	str	r2, [r3, #24]
 8000732:	4b0c      	ldr	r3, [pc, #48]	; (8000764 <HAL_MspInit+0x44>)
 8000734:	699b      	ldr	r3, [r3, #24]
 8000736:	2201      	movs	r2, #1
 8000738:	4013      	ands	r3, r2
 800073a:	607b      	str	r3, [r7, #4]
 800073c:	687b      	ldr	r3, [r7, #4]
  __HAL_RCC_PWR_CLK_ENABLE();
 800073e:	4b09      	ldr	r3, [pc, #36]	; (8000764 <HAL_MspInit+0x44>)
 8000740:	69da      	ldr	r2, [r3, #28]
 8000742:	4b08      	ldr	r3, [pc, #32]	; (8000764 <HAL_MspInit+0x44>)
 8000744:	2180      	movs	r1, #128	; 0x80
 8000746:	0549      	lsls	r1, r1, #21
 8000748:	430a      	orrs	r2, r1
 800074a:	61da      	str	r2, [r3, #28]
 800074c:	4b05      	ldr	r3, [pc, #20]	; (8000764 <HAL_MspInit+0x44>)
 800074e:	69da      	ldr	r2, [r3, #28]
 8000750:	2380      	movs	r3, #128	; 0x80
 8000752:	055b      	lsls	r3, r3, #21
 8000754:	4013      	ands	r3, r2
 8000756:	603b      	str	r3, [r7, #0]
 8000758:	683b      	ldr	r3, [r7, #0]
  /* System interrupt init*/

  /* USER CODE BEGIN MspInit 1 */

  /* USER CODE END MspInit 1 */
}
 800075a:	46c0      	nop			; (mov r8, r8)
 800075c:	46bd      	mov	sp, r7
 800075e:	b002      	add	sp, #8
 8000760:	bd80      	pop	{r7, pc}
 8000762:	46c0      	nop			; (mov r8, r8)
 8000764:	40021000 	.word	0x40021000

08000768 <HAL_TIM_Base_MspInit>:
* This function configures the hardware resources used in this example
* @param htim_base: TIM_Base handle pointer
* @retval None
*/
void HAL_TIM_Base_MspInit(TIM_HandleTypeDef* htim_base)
{
 8000768:	b580      	push	{r7, lr}
 800076a:	b084      	sub	sp, #16
 800076c:	af00      	add	r7, sp, #0
 800076e:	6078      	str	r0, [r7, #4]
  if(htim_base->Instance==TIM2)
 8000770:	687b      	ldr	r3, [r7, #4]
 8000772:	681a      	ldr	r2, [r3, #0]
 8000774:	2380      	movs	r3, #128	; 0x80
 8000776:	05db      	lsls	r3, r3, #23
 8000778:	429a      	cmp	r2, r3
 800077a:	d134      	bne.n	80007e6 <HAL_TIM_Base_MspInit+0x7e>
  {
  /* USER CODE BEGIN TIM2_MspInit 0 */

  /* USER CODE END TIM2_MspInit 0 */
    /* Peripheral clock enable */
    __HAL_RCC_TIM2_CLK_ENABLE();
 800077c:	4b24      	ldr	r3, [pc, #144]	; (8000810 <HAL_TIM_Base_MspInit+0xa8>)
 800077e:	69da      	ldr	r2, [r3, #28]
 8000780:	4b23      	ldr	r3, [pc, #140]	; (8000810 <HAL_TIM_Base_MspInit+0xa8>)
 8000782:	2101      	movs	r1, #1
 8000784:	430a      	orrs	r2, r1
 8000786:	61da      	str	r2, [r3, #28]
 8000788:	4b21      	ldr	r3, [pc, #132]	; (8000810 <HAL_TIM_Base_MspInit+0xa8>)
 800078a:	69db      	ldr	r3, [r3, #28]
 800078c:	2201      	movs	r2, #1
 800078e:	4013      	ands	r3, r2
 8000790:	60fb      	str	r3, [r7, #12]
 8000792:	68fb      	ldr	r3, [r7, #12]

    /* TIM2 DMA Init */
    /* TIM2_CH1 Init */
    hdma_tim2_ch1.Instance = DMA1_Channel5;
 8000794:	4b1f      	ldr	r3, [pc, #124]	; (8000814 <HAL_TIM_Base_MspInit+0xac>)
 8000796:	4a20      	ldr	r2, [pc, #128]	; (8000818 <HAL_TIM_Base_MspInit+0xb0>)
 8000798:	601a      	str	r2, [r3, #0]
    hdma_tim2_ch1.Init.Direction = DMA_MEMORY_TO_PERIPH;
 800079a:	4b1e      	ldr	r3, [pc, #120]	; (8000814 <HAL_TIM_Base_MspInit+0xac>)
 800079c:	2210      	movs	r2, #16
 800079e:	605a      	str	r2, [r3, #4]
    hdma_tim2_ch1.Init.PeriphInc = DMA_PINC_DISABLE;
 80007a0:	4b1c      	ldr	r3, [pc, #112]	; (8000814 <HAL_TIM_Base_MspInit+0xac>)
 80007a2:	2200      	movs	r2, #0
 80007a4:	609a      	str	r2, [r3, #8]
    hdma_tim2_ch1.Init.MemInc = DMA_MINC_ENABLE;
 80007a6:	4b1b      	ldr	r3, [pc, #108]	; (8000814 <HAL_TIM_Base_MspInit+0xac>)
 80007a8:	2280      	movs	r2, #128	; 0x80
 80007aa:	60da      	str	r2, [r3, #12]
    hdma_tim2_ch1.Init.PeriphDataAlignment = DMA_PDATAALIGN_WORD;
 80007ac:	4b19      	ldr	r3, [pc, #100]	; (8000814 <HAL_TIM_Base_MspInit+0xac>)
 80007ae:	2280      	movs	r2, #128	; 0x80
 80007b0:	0092      	lsls	r2, r2, #2
 80007b2:	611a      	str	r2, [r3, #16]
    hdma_tim2_ch1.Init.MemDataAlignment = DMA_MDATAALIGN_WORD;
 80007b4:	4b17      	ldr	r3, [pc, #92]	; (8000814 <HAL_TIM_Base_MspInit+0xac>)
 80007b6:	2280      	movs	r2, #128	; 0x80
 80007b8:	0112      	lsls	r2, r2, #4
 80007ba:	615a      	str	r2, [r3, #20]
    hdma_tim2_ch1.Init.Mode = DMA_CIRCULAR;
 80007bc:	4b15      	ldr	r3, [pc, #84]	; (8000814 <HAL_TIM_Base_MspInit+0xac>)
 80007be:	2220      	movs	r2, #32
 80007c0:	619a      	str	r2, [r3, #24]
    hdma_tim2_ch1.Init.Priority = DMA_PRIORITY_LOW;
 80007c2:	4b14      	ldr	r3, [pc, #80]	; (8000814 <HAL_TIM_Base_MspInit+0xac>)
 80007c4:	2200      	movs	r2, #0
 80007c6:	61da      	str	r2, [r3, #28]
    if (HAL_DMA_Init(&hdma_tim2_ch1) != HAL_OK)
 80007c8:	4b12      	ldr	r3, [pc, #72]	; (8000814 <HAL_TIM_Base_MspInit+0xac>)
 80007ca:	0018      	movs	r0, r3
 80007cc:	f000 f9fc 	bl	8000bc8 <HAL_DMA_Init>
 80007d0:	1e03      	subs	r3, r0, #0
 80007d2:	d001      	beq.n	80007d8 <HAL_TIM_Base_MspInit+0x70>
    {
      Error_Handler();
 80007d4:	f7ff ff9e 	bl	8000714 <Error_Handler>
    }

    __HAL_LINKDMA(htim_base,hdma[TIM_DMA_ID_CC1],hdma_tim2_ch1);
 80007d8:	687b      	ldr	r3, [r7, #4]
 80007da:	4a0e      	ldr	r2, [pc, #56]	; (8000814 <HAL_TIM_Base_MspInit+0xac>)
 80007dc:	625a      	str	r2, [r3, #36]	; 0x24
 80007de:	4b0d      	ldr	r3, [pc, #52]	; (8000814 <HAL_TIM_Base_MspInit+0xac>)
 80007e0:	687a      	ldr	r2, [r7, #4]
 80007e2:	625a      	str	r2, [r3, #36]	; 0x24
  /* USER CODE BEGIN TIM3_MspInit 1 */

  /* USER CODE END TIM3_MspInit 1 */
  }

}
 80007e4:	e010      	b.n	8000808 <HAL_TIM_Base_MspInit+0xa0>
  else if(htim_base->Instance==TIM3)
 80007e6:	687b      	ldr	r3, [r7, #4]
 80007e8:	681b      	ldr	r3, [r3, #0]
 80007ea:	4a0c      	ldr	r2, [pc, #48]	; (800081c <HAL_TIM_Base_MspInit+0xb4>)
 80007ec:	4293      	cmp	r3, r2
 80007ee:	d10b      	bne.n	8000808 <HAL_TIM_Base_MspInit+0xa0>
    __HAL_RCC_TIM3_CLK_ENABLE();
 80007f0:	4b07      	ldr	r3, [pc, #28]	; (8000810 <HAL_TIM_Base_MspInit+0xa8>)
 80007f2:	69da      	ldr	r2, [r3, #28]
 80007f4:	4b06      	ldr	r3, [pc, #24]	; (8000810 <HAL_TIM_Base_MspInit+0xa8>)
 80007f6:	2102      	movs	r1, #2
 80007f8:	430a      	orrs	r2, r1
 80007fa:	61da      	str	r2, [r3, #28]
 80007fc:	4b04      	ldr	r3, [pc, #16]	; (8000810 <HAL_TIM_Base_MspInit+0xa8>)
 80007fe:	69db      	ldr	r3, [r3, #28]
 8000800:	2202      	movs	r2, #2
 8000802:	4013      	ands	r3, r2
 8000804:	60bb      	str	r3, [r7, #8]
 8000806:	68bb      	ldr	r3, [r7, #8]
}
 8000808:	46c0      	nop			; (mov r8, r8)
 800080a:	46bd      	mov	sp, r7
 800080c:	b004      	add	sp, #16
 800080e:	bd80      	pop	{r7, pc}
 8000810:	40021000 	.word	0x40021000
 8000814:	20000a24 	.word	0x20000a24
 8000818:	40020058 	.word	0x40020058
 800081c:	40000400 	.word	0x40000400

08000820 <HAL_TIM_MspPostInit>:

void HAL_TIM_MspPostInit(TIM_HandleTypeDef* htim)
{
 8000820:	b590      	push	{r4, r7, lr}
 8000822:	b089      	sub	sp, #36	; 0x24
 8000824:	af00      	add	r7, sp, #0
 8000826:	6078      	str	r0, [r7, #4]
  GPIO_InitTypeDef GPIO_InitStruct = {0};
 8000828:	240c      	movs	r4, #12
 800082a:	193b      	adds	r3, r7, r4
 800082c:	0018      	movs	r0, r3
 800082e:	2314      	movs	r3, #20
 8000830:	001a      	movs	r2, r3
 8000832:	2100      	movs	r1, #0
 8000834:	f002 fa0c 	bl	8002c50 <memset>
  if(htim->Instance==TIM3)
 8000838:	687b      	ldr	r3, [r7, #4]
 800083a:	681b      	ldr	r3, [r3, #0]
 800083c:	4a15      	ldr	r2, [pc, #84]	; (8000894 <HAL_TIM_MspPostInit+0x74>)
 800083e:	4293      	cmp	r3, r2
 8000840:	d124      	bne.n	800088c <HAL_TIM_MspPostInit+0x6c>
  {
  /* USER CODE BEGIN TIM3_MspPostInit 0 */

  /* USER CODE END TIM3_MspPostInit 0 */

    __HAL_RCC_GPIOA_CLK_ENABLE();
 8000842:	4b15      	ldr	r3, [pc, #84]	; (8000898 <HAL_TIM_MspPostInit+0x78>)
 8000844:	695a      	ldr	r2, [r3, #20]
 8000846:	4b14      	ldr	r3, [pc, #80]	; (8000898 <HAL_TIM_MspPostInit+0x78>)
 8000848:	2180      	movs	r1, #128	; 0x80
 800084a:	0289      	lsls	r1, r1, #10
 800084c:	430a      	orrs	r2, r1
 800084e:	615a      	str	r2, [r3, #20]
 8000850:	4b11      	ldr	r3, [pc, #68]	; (8000898 <HAL_TIM_MspPostInit+0x78>)
 8000852:	695a      	ldr	r2, [r3, #20]
 8000854:	2380      	movs	r3, #128	; 0x80
 8000856:	029b      	lsls	r3, r3, #10
 8000858:	4013      	ands	r3, r2
 800085a:	60bb      	str	r3, [r7, #8]
 800085c:	68bb      	ldr	r3, [r7, #8]
    /**TIM3 GPIO Configuration
    PA6     ------> TIM3_CH1
    */
    GPIO_InitStruct.Pin = GPIO_PIN_6;
 800085e:	0021      	movs	r1, r4
 8000860:	187b      	adds	r3, r7, r1
 8000862:	2240      	movs	r2, #64	; 0x40
 8000864:	601a      	str	r2, [r3, #0]
    GPIO_InitStruct.Mode = GPIO_MODE_AF_PP;
 8000866:	187b      	adds	r3, r7, r1
 8000868:	2202      	movs	r2, #2
 800086a:	605a      	str	r2, [r3, #4]
    GPIO_InitStruct.Pull = GPIO_NOPULL;
 800086c:	187b      	adds	r3, r7, r1
 800086e:	2200      	movs	r2, #0
 8000870:	609a      	str	r2, [r3, #8]
    GPIO_InitStruct.Speed = GPIO_SPEED_FREQ_LOW;
 8000872:	187b      	adds	r3, r7, r1
 8000874:	2200      	movs	r2, #0
 8000876:	60da      	str	r2, [r3, #12]
    GPIO_InitStruct.Alternate = GPIO_AF1_TIM3;
 8000878:	187b      	adds	r3, r7, r1
 800087a:	2201      	movs	r2, #1
 800087c:	611a      	str	r2, [r3, #16]
    HAL_GPIO_Init(GPIOA, &GPIO_InitStruct);
 800087e:	187a      	adds	r2, r7, r1
 8000880:	2390      	movs	r3, #144	; 0x90
 8000882:	05db      	lsls	r3, r3, #23
 8000884:	0011      	movs	r1, r2
 8000886:	0018      	movs	r0, r3
 8000888:	f000 fb7c 	bl	8000f84 <HAL_GPIO_Init>
  /* USER CODE BEGIN TIM3_MspPostInit 1 */

  /* USER CODE END TIM3_MspPostInit 1 */
  }

}
 800088c:	46c0      	nop			; (mov r8, r8)
 800088e:	46bd      	mov	sp, r7
 8000890:	b009      	add	sp, #36	; 0x24
 8000892:	bd90      	pop	{r4, r7, pc}
 8000894:	40000400 	.word	0x40000400
 8000898:	40021000 	.word	0x40021000

0800089c <NMI_Handler>:
/******************************************************************************/
/**
  * @brief This function handles Non maskable interrupt.
  */
void NMI_Handler(void)
{
 800089c:	b580      	push	{r7, lr}
 800089e:	af00      	add	r7, sp, #0
  /* USER CODE BEGIN NonMaskableInt_IRQn 0 */

  /* USER CODE END NonMaskableInt_IRQn 0 */
  /* USER CODE BEGIN NonMaskableInt_IRQn 1 */
  while (1)
 80008a0:	e7fe      	b.n	80008a0 <NMI_Handler+0x4>

080008a2 <HardFault_Handler>:

/**
  * @brief This function handles Hard fault interrupt.
  */
void HardFault_Handler(void)
{
 80008a2:	b580      	push	{r7, lr}
 80008a4:	af00      	add	r7, sp, #0
  /* USER CODE BEGIN HardFault_IRQn 0 */

  /* USER CODE END HardFault_IRQn 0 */
  while (1)
 80008a6:	e7fe      	b.n	80008a6 <HardFault_Handler+0x4>

080008a8 <SVC_Handler>:

/**
  * @brief This function handles System service call via SWI instruction.
  */
void SVC_Handler(void)
{
 80008a8:	b580      	push	{r7, lr}
 80008aa:	af00      	add	r7, sp, #0

  /* USER CODE END SVC_IRQn 0 */
  /* USER CODE BEGIN SVC_IRQn 1 */

  /* USER CODE END SVC_IRQn 1 */
}
 80008ac:	46c0      	nop			; (mov r8, r8)
 80008ae:	46bd      	mov	sp, r7
 80008b0:	bd80      	pop	{r7, pc}

080008b2 <PendSV_Handler>:

/**
  * @brief This function handles Pendable request for system service.
  */
void PendSV_Handler(void)
{
 80008b2:	b580      	push	{r7, lr}
 80008b4:	af00      	add	r7, sp, #0

  /* USER CODE END PendSV_IRQn 0 */
  /* USER CODE BEGIN PendSV_IRQn 1 */

  /* USER CODE END PendSV_IRQn 1 */
}
 80008b6:	46c0      	nop			; (mov r8, r8)
 80008b8:	46bd      	mov	sp, r7
 80008ba:	bd80      	pop	{r7, pc}

080008bc <SysTick_Handler>:

/**
  * @brief This function handles System tick timer.
  */
void SysTick_Handler(void)
{
 80008bc:	b580      	push	{r7, lr}
 80008be:	af00      	add	r7, sp, #0
  /* USER CODE BEGIN SysTick_IRQn 0 */

  /* USER CODE END SysTick_IRQn 0 */
  HAL_IncTick();
 80008c0:	f000 f888 	bl	80009d4 <HAL_IncTick>
  /* USER CODE BEGIN SysTick_IRQn 1 */

  /* USER CODE END SysTick_IRQn 1 */
}
 80008c4:	46c0      	nop			; (mov r8, r8)
 80008c6:	46bd      	mov	sp, r7
 80008c8:	bd80      	pop	{r7, pc}
	...

080008cc <DMA1_Channel4_5_IRQHandler>:

/**
  * @brief This function handles DMA1 channel 4 and 5 interrupts.
  */
void DMA1_Channel4_5_IRQHandler(void)
{
 80008cc:	b580      	push	{r7, lr}
 80008ce:	af00      	add	r7, sp, #0
  /* USER CODE BEGIN DMA1_Channel4_5_IRQn 0 */

  /* USER CODE END DMA1_Channel4_5_IRQn 0 */
  HAL_DMA_IRQHandler(&hdma_tim2_ch1);
 80008d0:	4b03      	ldr	r3, [pc, #12]	; (80008e0 <DMA1_Channel4_5_IRQHandler+0x14>)
 80008d2:	0018      	movs	r0, r3
 80008d4:	f000 fa6b 	bl	8000dae <HAL_DMA_IRQHandler>
  /* USER CODE BEGIN DMA1_Channel4_5_IRQn 1 */

  /* USER CODE END DMA1_Channel4_5_IRQn 1 */
}
 80008d8:	46c0      	nop			; (mov r8, r8)
 80008da:	46bd      	mov	sp, r7
 80008dc:	bd80      	pop	{r7, pc}
 80008de:	46c0      	nop			; (mov r8, r8)
 80008e0:	20000a24 	.word	0x20000a24

080008e4 <SystemInit>:
  * @brief  Setup the microcontroller system
  * @param  None
  * @retval None
  */
void SystemInit(void)
{
 80008e4:	b580      	push	{r7, lr}
 80008e6:	af00      	add	r7, sp, #0
                         before branch to main program. This call is made inside
                         the "startup_stm32f0xx.s" file.
                         User can setups the default system clock (System clock source, PLL Multiplier
                         and Divider factors, AHB/APBx prescalers and Flash settings).
   */
}
 80008e8:	46c0      	nop			; (mov r8, r8)
 80008ea:	46bd      	mov	sp, r7
 80008ec:	bd80      	pop	{r7, pc}
	...

080008f0 <Reset_Handler>:

  .section .text.Reset_Handler
  .weak Reset_Handler
  .type Reset_Handler, %function
Reset_Handler:
  ldr   r0, =_estack
 80008f0:	480d      	ldr	r0, [pc, #52]	; (8000928 <LoopForever+0x2>)
  mov   sp, r0          /* set stack pointer */
 80008f2:	4685      	mov	sp, r0

/* Copy the data segment initializers from flash to SRAM */
  ldr r0, =_sdata
 80008f4:	480d      	ldr	r0, [pc, #52]	; (800092c <LoopForever+0x6>)
  ldr r1, =_edata
 80008f6:	490e      	ldr	r1, [pc, #56]	; (8000930 <LoopForever+0xa>)
  ldr r2, =_sidata
 80008f8:	4a0e      	ldr	r2, [pc, #56]	; (8000934 <LoopForever+0xe>)
  movs r3, #0
 80008fa:	2300      	movs	r3, #0
  b LoopCopyDataInit
 80008fc:	e002      	b.n	8000904 <LoopCopyDataInit>

080008fe <CopyDataInit>:

CopyDataInit:
  ldr r4, [r2, r3]
 80008fe:	58d4      	ldr	r4, [r2, r3]
  str r4, [r0, r3]
 8000900:	50c4      	str	r4, [r0, r3]
  adds r3, r3, #4
 8000902:	3304      	adds	r3, #4

08000904 <LoopCopyDataInit>:

LoopCopyDataInit:
  adds r4, r0, r3
 8000904:	18c4      	adds	r4, r0, r3
  cmp r4, r1
 8000906:	428c      	cmp	r4, r1
  bcc CopyDataInit
 8000908:	d3f9      	bcc.n	80008fe <CopyDataInit>
  
/* Zero fill the bss segment. */
  ldr r2, =_sbss
 800090a:	4a0b      	ldr	r2, [pc, #44]	; (8000938 <LoopForever+0x12>)
  ldr r4, =_ebss
 800090c:	4c0b      	ldr	r4, [pc, #44]	; (800093c <LoopForever+0x16>)
  movs r3, #0
 800090e:	2300      	movs	r3, #0
  b LoopFillZerobss
 8000910:	e001      	b.n	8000916 <LoopFillZerobss>

08000912 <FillZerobss>:

FillZerobss:
  str  r3, [r2]
 8000912:	6013      	str	r3, [r2, #0]
  adds r2, r2, #4
 8000914:	3204      	adds	r2, #4

08000916 <LoopFillZerobss>:

LoopFillZerobss:
  cmp r2, r4
 8000916:	42a2      	cmp	r2, r4
  bcc FillZerobss
 8000918:	d3fb      	bcc.n	8000912 <FillZerobss>

/* Call the clock system intitialization function.*/
  bl  SystemInit
 800091a:	f7ff ffe3 	bl	80008e4 <SystemInit>
/* Call static constructors */
  bl __libc_init_array
 800091e:	f002 f973 	bl	8002c08 <__libc_init_array>
/* Call the application's entry point.*/
  bl main
 8000922:	f7ff fc7d 	bl	8000220 <main>

08000926 <LoopForever>:

LoopForever:
    b LoopForever
 8000926:	e7fe      	b.n	8000926 <LoopForever>
  ldr   r0, =_estack
 8000928:	20002000 	.word	0x20002000
  ldr r0, =_sdata
 800092c:	20000000 	.word	0x20000000
  ldr r1, =_edata
 8000930:	20000978 	.word	0x20000978
  ldr r2, =_sidata
 8000934:	08002cb0 	.word	0x08002cb0
  ldr r2, =_sbss
 8000938:	20000978 	.word	0x20000978
  ldr r4, =_ebss
 800093c:	20000a74 	.word	0x20000a74

08000940 <ADC1_COMP_IRQHandler>:
 * @retval : None
*/
    .section .text.Default_Handler,"ax",%progbits
Default_Handler:
Infinite_Loop:
  b Infinite_Loop
 8000940:	e7fe      	b.n	8000940 <ADC1_COMP_IRQHandler>
	...

08000944 <HAL_Init>:
  *       In the default implementation,Systick is used as source of time base.
  *       The tick variable is incremented each 1ms in its ISR.
  * @retval HAL status
  */
HAL_StatusTypeDef HAL_Init(void)
{
 8000944:	b580      	push	{r7, lr}
 8000946:	af00      	add	r7, sp, #0
  /* Configure Flash prefetch */ 
#if (PREFETCH_ENABLE != 0)
  __HAL_FLASH_PREFETCH_BUFFER_ENABLE();
 8000948:	4b07      	ldr	r3, [pc, #28]	; (8000968 <HAL_Init+0x24>)
 800094a:	681a      	ldr	r2, [r3, #0]
 800094c:	4b06      	ldr	r3, [pc, #24]	; (8000968 <HAL_Init+0x24>)
 800094e:	2110      	movs	r1, #16
 8000950:	430a      	orrs	r2, r1
 8000952:	601a      	str	r2, [r3, #0]
#endif /* PREFETCH_ENABLE */

  /* Use systick as time base source and configure 1ms tick (default clock after Reset is HSI) */

  HAL_InitTick(TICK_INT_PRIORITY);
 8000954:	2000      	movs	r0, #0
 8000956:	f000 f809 	bl	800096c <HAL_InitTick>

  /* Init the low level hardware */
  HAL_MspInit();
 800095a:	f7ff fee1 	bl	8000720 <HAL_MspInit>

  /* Return function status */
  return HAL_OK;
 800095e:	2300      	movs	r3, #0
}
 8000960:	0018      	movs	r0, r3
 8000962:	46bd      	mov	sp, r7
 8000964:	bd80      	pop	{r7, pc}
 8000966:	46c0      	nop			; (mov r8, r8)
 8000968:	40022000 	.word	0x40022000

0800096c <HAL_InitTick>:
  *       implementation  in user file.
  * @param TickPriority Tick interrupt priority.
  * @retval HAL status
  */
__weak HAL_StatusTypeDef HAL_InitTick(uint32_t TickPriority)
{
 800096c:	b590      	push	{r4, r7, lr}
 800096e:	b083      	sub	sp, #12
 8000970:	af00      	add	r7, sp, #0
 8000972:	6078      	str	r0, [r7, #4]
  /*Configure the SysTick to have interrupt in 1ms time basis*/
  if (HAL_SYSTICK_Config(SystemCoreClock / (1000U / uwTickFreq)) > 0U)
 8000974:	4b14      	ldr	r3, [pc, #80]	; (80009c8 <HAL_InitTick+0x5c>)
 8000976:	681c      	ldr	r4, [r3, #0]
 8000978:	4b14      	ldr	r3, [pc, #80]	; (80009cc <HAL_InitTick+0x60>)
 800097a:	781b      	ldrb	r3, [r3, #0]
 800097c:	0019      	movs	r1, r3
 800097e:	23fa      	movs	r3, #250	; 0xfa
 8000980:	0098      	lsls	r0, r3, #2
 8000982:	f7ff fbc1 	bl	8000108 <__udivsi3>
 8000986:	0003      	movs	r3, r0
 8000988:	0019      	movs	r1, r3
 800098a:	0020      	movs	r0, r4
 800098c:	f7ff fbbc 	bl	8000108 <__udivsi3>
 8000990:	0003      	movs	r3, r0
 8000992:	0018      	movs	r0, r3
 8000994:	f000 f90b 	bl	8000bae <HAL_SYSTICK_Config>
 8000998:	1e03      	subs	r3, r0, #0
 800099a:	d001      	beq.n	80009a0 <HAL_InitTick+0x34>
  {
    return HAL_ERROR;
 800099c:	2301      	movs	r3, #1
 800099e:	e00f      	b.n	80009c0 <HAL_InitTick+0x54>
  }

  /* Configure the SysTick IRQ priority */
  if (TickPriority < (1UL << __NVIC_PRIO_BITS))
 80009a0:	687b      	ldr	r3, [r7, #4]
 80009a2:	2b03      	cmp	r3, #3
 80009a4:	d80b      	bhi.n	80009be <HAL_InitTick+0x52>
  {
    HAL_NVIC_SetPriority(SysTick_IRQn, TickPriority, 0U);
 80009a6:	6879      	ldr	r1, [r7, #4]
 80009a8:	2301      	movs	r3, #1
 80009aa:	425b      	negs	r3, r3
 80009ac:	2200      	movs	r2, #0
 80009ae:	0018      	movs	r0, r3
 80009b0:	f000 f8d8 	bl	8000b64 <HAL_NVIC_SetPriority>
    uwTickPrio = TickPriority;
 80009b4:	4b06      	ldr	r3, [pc, #24]	; (80009d0 <HAL_InitTick+0x64>)
 80009b6:	687a      	ldr	r2, [r7, #4]
 80009b8:	601a      	str	r2, [r3, #0]
  {
    return HAL_ERROR;
  }

   /* Return function status */
  return HAL_OK;
 80009ba:	2300      	movs	r3, #0
 80009bc:	e000      	b.n	80009c0 <HAL_InitTick+0x54>
    return HAL_ERROR;
 80009be:	2301      	movs	r3, #1
}
 80009c0:	0018      	movs	r0, r3
 80009c2:	46bd      	mov	sp, r7
 80009c4:	b003      	add	sp, #12
 80009c6:	bd90      	pop	{r4, r7, pc}
 80009c8:	2000096c 	.word	0x2000096c
 80009cc:	20000974 	.word	0x20000974
 80009d0:	20000970 	.word	0x20000970

080009d4 <HAL_IncTick>:
  * @note This function is declared as __weak to be overwritten in case of other 
  *       implementations in user file.
  * @retval None
  */
__weak void HAL_IncTick(void)
{
 80009d4:	b580      	push	{r7, lr}
 80009d6:	af00      	add	r7, sp, #0
  uwTick += uwTickFreq;
 80009d8:	4b05      	ldr	r3, [pc, #20]	; (80009f0 <HAL_IncTick+0x1c>)
 80009da:	781b      	ldrb	r3, [r3, #0]
 80009dc:	001a      	movs	r2, r3
 80009de:	4b05      	ldr	r3, [pc, #20]	; (80009f4 <HAL_IncTick+0x20>)
 80009e0:	681b      	ldr	r3, [r3, #0]
 80009e2:	18d2      	adds	r2, r2, r3
 80009e4:	4b03      	ldr	r3, [pc, #12]	; (80009f4 <HAL_IncTick+0x20>)
 80009e6:	601a      	str	r2, [r3, #0]
}
 80009e8:	46c0      	nop			; (mov r8, r8)
 80009ea:	46bd      	mov	sp, r7
 80009ec:	bd80      	pop	{r7, pc}
 80009ee:	46c0      	nop			; (mov r8, r8)
 80009f0:	20000974 	.word	0x20000974
 80009f4:	20000a70 	.word	0x20000a70

080009f8 <HAL_GetTick>:
  * @note   This function is declared as __weak  to be overwritten  in case of other 
  *       implementations in user file.
  * @retval tick value
  */
__weak uint32_t HAL_GetTick(void)
{
 80009f8:	b580      	push	{r7, lr}
 80009fa:	af00      	add	r7, sp, #0
  return uwTick;
 80009fc:	4b02      	ldr	r3, [pc, #8]	; (8000a08 <HAL_GetTick+0x10>)
 80009fe:	681b      	ldr	r3, [r3, #0]
}
 8000a00:	0018      	movs	r0, r3
 8000a02:	46bd      	mov	sp, r7
 8000a04:	bd80      	pop	{r7, pc}
 8000a06:	46c0      	nop			; (mov r8, r8)
 8000a08:	20000a70 	.word	0x20000a70

08000a0c <__NVIC_EnableIRQ>:
  \details Enables a device specific interrupt in the NVIC interrupt controller.
  \param [in]      IRQn  Device specific interrupt number.
  \note    IRQn must not be negative.
 */
__STATIC_INLINE void __NVIC_EnableIRQ(IRQn_Type IRQn)
{
 8000a0c:	b580      	push	{r7, lr}
 8000a0e:	b082      	sub	sp, #8
 8000a10:	af00      	add	r7, sp, #0
 8000a12:	0002      	movs	r2, r0
 8000a14:	1dfb      	adds	r3, r7, #7
 8000a16:	701a      	strb	r2, [r3, #0]
  if ((int32_t)(IRQn) >= 0)
 8000a18:	1dfb      	adds	r3, r7, #7
 8000a1a:	781b      	ldrb	r3, [r3, #0]
 8000a1c:	2b7f      	cmp	r3, #127	; 0x7f
 8000a1e:	d809      	bhi.n	8000a34 <__NVIC_EnableIRQ+0x28>
  {
    NVIC->ISER[0U] = (uint32_t)(1UL << (((uint32_t)IRQn) & 0x1FUL));
 8000a20:	1dfb      	adds	r3, r7, #7
 8000a22:	781b      	ldrb	r3, [r3, #0]
 8000a24:	001a      	movs	r2, r3
 8000a26:	231f      	movs	r3, #31
 8000a28:	401a      	ands	r2, r3
 8000a2a:	4b04      	ldr	r3, [pc, #16]	; (8000a3c <__NVIC_EnableIRQ+0x30>)
 8000a2c:	2101      	movs	r1, #1
 8000a2e:	4091      	lsls	r1, r2
 8000a30:	000a      	movs	r2, r1
 8000a32:	601a      	str	r2, [r3, #0]
  }
}
 8000a34:	46c0      	nop			; (mov r8, r8)
 8000a36:	46bd      	mov	sp, r7
 8000a38:	b002      	add	sp, #8
 8000a3a:	bd80      	pop	{r7, pc}
 8000a3c:	e000e100 	.word	0xe000e100

08000a40 <__NVIC_SetPriority>:
  \param [in]      IRQn  Interrupt number.
  \param [in]  priority  Priority to set.
  \note    The priority cannot be set for every processor exception.
 */
__STATIC_INLINE void __NVIC_SetPriority(IRQn_Type IRQn, uint32_t priority)
{
 8000a40:	b590      	push	{r4, r7, lr}
 8000a42:	b083      	sub	sp, #12
 8000a44:	af00      	add	r7, sp, #0
 8000a46:	0002      	movs	r2, r0
 8000a48:	6039      	str	r1, [r7, #0]
 8000a4a:	1dfb      	adds	r3, r7, #7
 8000a4c:	701a      	strb	r2, [r3, #0]
  if ((int32_t)(IRQn) >= 0)
 8000a4e:	1dfb      	adds	r3, r7, #7
 8000a50:	781b      	ldrb	r3, [r3, #0]
 8000a52:	2b7f      	cmp	r3, #127	; 0x7f
 8000a54:	d828      	bhi.n	8000aa8 <__NVIC_SetPriority+0x68>
  {
    NVIC->IP[_IP_IDX(IRQn)]  = ((uint32_t)(NVIC->IP[_IP_IDX(IRQn)]  & ~(0xFFUL << _BIT_SHIFT(IRQn))) |
 8000a56:	4a2f      	ldr	r2, [pc, #188]	; (8000b14 <__NVIC_SetPriority+0xd4>)
 8000a58:	1dfb      	adds	r3, r7, #7
 8000a5a:	781b      	ldrb	r3, [r3, #0]
 8000a5c:	b25b      	sxtb	r3, r3
 8000a5e:	089b      	lsrs	r3, r3, #2
 8000a60:	33c0      	adds	r3, #192	; 0xc0
 8000a62:	009b      	lsls	r3, r3, #2
 8000a64:	589b      	ldr	r3, [r3, r2]
 8000a66:	1dfa      	adds	r2, r7, #7
 8000a68:	7812      	ldrb	r2, [r2, #0]
 8000a6a:	0011      	movs	r1, r2
 8000a6c:	2203      	movs	r2, #3
 8000a6e:	400a      	ands	r2, r1
 8000a70:	00d2      	lsls	r2, r2, #3
 8000a72:	21ff      	movs	r1, #255	; 0xff
 8000a74:	4091      	lsls	r1, r2
 8000a76:	000a      	movs	r2, r1
 8000a78:	43d2      	mvns	r2, r2
 8000a7a:	401a      	ands	r2, r3
 8000a7c:	0011      	movs	r1, r2
       (((priority << (8U - __NVIC_PRIO_BITS)) & (uint32_t)0xFFUL) << _BIT_SHIFT(IRQn)));
 8000a7e:	683b      	ldr	r3, [r7, #0]
 8000a80:	019b      	lsls	r3, r3, #6
 8000a82:	22ff      	movs	r2, #255	; 0xff
 8000a84:	401a      	ands	r2, r3
 8000a86:	1dfb      	adds	r3, r7, #7
 8000a88:	781b      	ldrb	r3, [r3, #0]
 8000a8a:	0018      	movs	r0, r3
 8000a8c:	2303      	movs	r3, #3
 8000a8e:	4003      	ands	r3, r0
 8000a90:	00db      	lsls	r3, r3, #3
 8000a92:	409a      	lsls	r2, r3
    NVIC->IP[_IP_IDX(IRQn)]  = ((uint32_t)(NVIC->IP[_IP_IDX(IRQn)]  & ~(0xFFUL << _BIT_SHIFT(IRQn))) |
 8000a94:	481f      	ldr	r0, [pc, #124]	; (8000b14 <__NVIC_SetPriority+0xd4>)
 8000a96:	1dfb      	adds	r3, r7, #7
 8000a98:	781b      	ldrb	r3, [r3, #0]
 8000a9a:	b25b      	sxtb	r3, r3
 8000a9c:	089b      	lsrs	r3, r3, #2
 8000a9e:	430a      	orrs	r2, r1
 8000aa0:	33c0      	adds	r3, #192	; 0xc0
 8000aa2:	009b      	lsls	r3, r3, #2
 8000aa4:	501a      	str	r2, [r3, r0]
  else
  {
    SCB->SHP[_SHP_IDX(IRQn)] = ((uint32_t)(SCB->SHP[_SHP_IDX(IRQn)] & ~(0xFFUL << _BIT_SHIFT(IRQn))) |
       (((priority << (8U - __NVIC_PRIO_BITS)) & (uint32_t)0xFFUL) << _BIT_SHIFT(IRQn)));
  }
}
 8000aa6:	e031      	b.n	8000b0c <__NVIC_SetPriority+0xcc>
    SCB->SHP[_SHP_IDX(IRQn)] = ((uint32_t)(SCB->SHP[_SHP_IDX(IRQn)] & ~(0xFFUL << _BIT_SHIFT(IRQn))) |
 8000aa8:	4a1b      	ldr	r2, [pc, #108]	; (8000b18 <__NVIC_SetPriority+0xd8>)
 8000aaa:	1dfb      	adds	r3, r7, #7
 8000aac:	781b      	ldrb	r3, [r3, #0]
 8000aae:	0019      	movs	r1, r3
 8000ab0:	230f      	movs	r3, #15
 8000ab2:	400b      	ands	r3, r1
 8000ab4:	3b08      	subs	r3, #8
 8000ab6:	089b      	lsrs	r3, r3, #2
 8000ab8:	3306      	adds	r3, #6
 8000aba:	009b      	lsls	r3, r3, #2
 8000abc:	18d3      	adds	r3, r2, r3
 8000abe:	3304      	adds	r3, #4
 8000ac0:	681b      	ldr	r3, [r3, #0]
 8000ac2:	1dfa      	adds	r2, r7, #7
 8000ac4:	7812      	ldrb	r2, [r2, #0]
 8000ac6:	0011      	movs	r1, r2
 8000ac8:	2203      	movs	r2, #3
 8000aca:	400a      	ands	r2, r1
 8000acc:	00d2      	lsls	r2, r2, #3
 8000ace:	21ff      	movs	r1, #255	; 0xff
 8000ad0:	4091      	lsls	r1, r2
 8000ad2:	000a      	movs	r2, r1
 8000ad4:	43d2      	mvns	r2, r2
 8000ad6:	401a      	ands	r2, r3
 8000ad8:	0011      	movs	r1, r2
       (((priority << (8U - __NVIC_PRIO_BITS)) & (uint32_t)0xFFUL) << _BIT_SHIFT(IRQn)));
 8000ada:	683b      	ldr	r3, [r7, #0]
 8000adc:	019b      	lsls	r3, r3, #6
 8000ade:	22ff      	movs	r2, #255	; 0xff
 8000ae0:	401a      	ands	r2, r3
 8000ae2:	1dfb      	adds	r3, r7, #7
 8000ae4:	781b      	ldrb	r3, [r3, #0]
 8000ae6:	0018      	movs	r0, r3
 8000ae8:	2303      	movs	r3, #3
 8000aea:	4003      	ands	r3, r0
 8000aec:	00db      	lsls	r3, r3, #3
 8000aee:	409a      	lsls	r2, r3
    SCB->SHP[_SHP_IDX(IRQn)] = ((uint32_t)(SCB->SHP[_SHP_IDX(IRQn)] & ~(0xFFUL << _BIT_SHIFT(IRQn))) |
 8000af0:	4809      	ldr	r0, [pc, #36]	; (8000b18 <__NVIC_SetPriority+0xd8>)
 8000af2:	1dfb      	adds	r3, r7, #7
 8000af4:	781b      	ldrb	r3, [r3, #0]
 8000af6:	001c      	movs	r4, r3
 8000af8:	230f      	movs	r3, #15
 8000afa:	4023      	ands	r3, r4
 8000afc:	3b08      	subs	r3, #8
 8000afe:	089b      	lsrs	r3, r3, #2
 8000b00:	430a      	orrs	r2, r1
 8000b02:	3306      	adds	r3, #6
 8000b04:	009b      	lsls	r3, r3, #2
 8000b06:	18c3      	adds	r3, r0, r3
 8000b08:	3304      	adds	r3, #4
 8000b0a:	601a      	str	r2, [r3, #0]
}
 8000b0c:	46c0      	nop			; (mov r8, r8)
 8000b0e:	46bd      	mov	sp, r7
 8000b10:	b003      	add	sp, #12
 8000b12:	bd90      	pop	{r4, r7, pc}
 8000b14:	e000e100 	.word	0xe000e100
 8000b18:	e000ed00 	.word	0xe000ed00

08000b1c <SysTick_Config>:
  \note    When the variable <b>__Vendor_SysTickConfig</b> is set to 1, then the
           function <b>SysTick_Config</b> is not included. In this case, the file <b><i>device</i>.h</b>
           must contain a vendor-specific implementation of this function.
 */
__STATIC_INLINE uint32_t SysTick_Config(uint32_t ticks)
{
 8000b1c:	b580      	push	{r7, lr}
 8000b1e:	b082      	sub	sp, #8
 8000b20:	af00      	add	r7, sp, #0
 8000b22:	6078      	str	r0, [r7, #4]
  if ((ticks - 1UL) > SysTick_LOAD_RELOAD_Msk)
 8000b24:	687b      	ldr	r3, [r7, #4]
 8000b26:	1e5a      	subs	r2, r3, #1
 8000b28:	2380      	movs	r3, #128	; 0x80
 8000b2a:	045b      	lsls	r3, r3, #17
 8000b2c:	429a      	cmp	r2, r3
 8000b2e:	d301      	bcc.n	8000b34 <SysTick_Config+0x18>
  {
    return (1UL);                                                   /* Reload value impossible */
 8000b30:	2301      	movs	r3, #1
 8000b32:	e010      	b.n	8000b56 <SysTick_Config+0x3a>
  }

  SysTick->LOAD  = (uint32_t)(ticks - 1UL);                         /* set reload register */
 8000b34:	4b0a      	ldr	r3, [pc, #40]	; (8000b60 <SysTick_Config+0x44>)
 8000b36:	687a      	ldr	r2, [r7, #4]
 8000b38:	3a01      	subs	r2, #1
 8000b3a:	605a      	str	r2, [r3, #4]
  NVIC_SetPriority (SysTick_IRQn, (1UL << __NVIC_PRIO_BITS) - 1UL); /* set Priority for Systick Interrupt */
 8000b3c:	2301      	movs	r3, #1
 8000b3e:	425b      	negs	r3, r3
 8000b40:	2103      	movs	r1, #3
 8000b42:	0018      	movs	r0, r3
 8000b44:	f7ff ff7c 	bl	8000a40 <__NVIC_SetPriority>
  SysTick->VAL   = 0UL;                                             /* Load the SysTick Counter Value */
 8000b48:	4b05      	ldr	r3, [pc, #20]	; (8000b60 <SysTick_Config+0x44>)
 8000b4a:	2200      	movs	r2, #0
 8000b4c:	609a      	str	r2, [r3, #8]
  SysTick->CTRL  = SysTick_CTRL_CLKSOURCE_Msk |
 8000b4e:	4b04      	ldr	r3, [pc, #16]	; (8000b60 <SysTick_Config+0x44>)
 8000b50:	2207      	movs	r2, #7
 8000b52:	601a      	str	r2, [r3, #0]
                   SysTick_CTRL_TICKINT_Msk   |
                   SysTick_CTRL_ENABLE_Msk;                         /* Enable SysTick IRQ and SysTick Timer */
  return (0UL);                                                     /* Function successful */
 8000b54:	2300      	movs	r3, #0
}
 8000b56:	0018      	movs	r0, r3
 8000b58:	46bd      	mov	sp, r7
 8000b5a:	b002      	add	sp, #8
 8000b5c:	bd80      	pop	{r7, pc}
 8000b5e:	46c0      	nop			; (mov r8, r8)
 8000b60:	e000e010 	.word	0xe000e010

08000b64 <HAL_NVIC_SetPriority>:
  *         with stm32f0xx devices, this parameter is a dummy value and it is ignored, because 
  *         no subpriority supported in Cortex M0 based products.   
  * @retval None
  */
void HAL_NVIC_SetPriority(IRQn_Type IRQn, uint32_t PreemptPriority, uint32_t SubPriority)
{ 
 8000b64:	b580      	push	{r7, lr}
 8000b66:	b084      	sub	sp, #16
 8000b68:	af00      	add	r7, sp, #0
 8000b6a:	60b9      	str	r1, [r7, #8]
 8000b6c:	607a      	str	r2, [r7, #4]
 8000b6e:	210f      	movs	r1, #15
 8000b70:	187b      	adds	r3, r7, r1
 8000b72:	1c02      	adds	r2, r0, #0
 8000b74:	701a      	strb	r2, [r3, #0]
  /* Check the parameters */
  assert_param(IS_NVIC_PREEMPTION_PRIORITY(PreemptPriority));
  NVIC_SetPriority(IRQn,PreemptPriority);
 8000b76:	68ba      	ldr	r2, [r7, #8]
 8000b78:	187b      	adds	r3, r7, r1
 8000b7a:	781b      	ldrb	r3, [r3, #0]
 8000b7c:	b25b      	sxtb	r3, r3
 8000b7e:	0011      	movs	r1, r2
 8000b80:	0018      	movs	r0, r3
 8000b82:	f7ff ff5d 	bl	8000a40 <__NVIC_SetPriority>
}
 8000b86:	46c0      	nop			; (mov r8, r8)
 8000b88:	46bd      	mov	sp, r7
 8000b8a:	b004      	add	sp, #16
 8000b8c:	bd80      	pop	{r7, pc}

08000b8e <HAL_NVIC_EnableIRQ>:
  *         This parameter can be an enumerator of IRQn_Type enumeration
  *         (For the complete STM32 Devices IRQ Channels list, please refer to the appropriate CMSIS device file (stm32f0xxxx.h))
  * @retval None
  */
void HAL_NVIC_EnableIRQ(IRQn_Type IRQn)
{
 8000b8e:	b580      	push	{r7, lr}
 8000b90:	b082      	sub	sp, #8
 8000b92:	af00      	add	r7, sp, #0
 8000b94:	0002      	movs	r2, r0
 8000b96:	1dfb      	adds	r3, r7, #7
 8000b98:	701a      	strb	r2, [r3, #0]
  /* Check the parameters */
  assert_param(IS_NVIC_DEVICE_IRQ(IRQn));
  
  /* Enable interrupt */
  NVIC_EnableIRQ(IRQn);
 8000b9a:	1dfb      	adds	r3, r7, #7
 8000b9c:	781b      	ldrb	r3, [r3, #0]
 8000b9e:	b25b      	sxtb	r3, r3
 8000ba0:	0018      	movs	r0, r3
 8000ba2:	f7ff ff33 	bl	8000a0c <__NVIC_EnableIRQ>
}
 8000ba6:	46c0      	nop			; (mov r8, r8)
 8000ba8:	46bd      	mov	sp, r7
 8000baa:	b002      	add	sp, #8
 8000bac:	bd80      	pop	{r7, pc}

08000bae <HAL_SYSTICK_Config>:
  * @param  TicksNumb Specifies the ticks Number of ticks between two interrupts.
  * @retval status:  - 0  Function succeeded.
  *                  - 1  Function failed.
  */
uint32_t HAL_SYSTICK_Config(uint32_t TicksNumb)
{
 8000bae:	b580      	push	{r7, lr}
 8000bb0:	b082      	sub	sp, #8
 8000bb2:	af00      	add	r7, sp, #0
 8000bb4:	6078      	str	r0, [r7, #4]
   return SysTick_Config(TicksNumb);
 8000bb6:	687b      	ldr	r3, [r7, #4]
 8000bb8:	0018      	movs	r0, r3
 8000bba:	f7ff ffaf 	bl	8000b1c <SysTick_Config>
 8000bbe:	0003      	movs	r3, r0
}
 8000bc0:	0018      	movs	r0, r3
 8000bc2:	46bd      	mov	sp, r7
 8000bc4:	b002      	add	sp, #8
 8000bc6:	bd80      	pop	{r7, pc}

08000bc8 <HAL_DMA_Init>:
  * @param  hdma Pointer to a DMA_HandleTypeDef structure that contains
  *               the configuration information for the specified DMA Channel.  
  * @retval HAL status
  */
HAL_StatusTypeDef HAL_DMA_Init(DMA_HandleTypeDef *hdma)
{ 
 8000bc8:	b580      	push	{r7, lr}
 8000bca:	b084      	sub	sp, #16
 8000bcc:	af00      	add	r7, sp, #0
 8000bce:	6078      	str	r0, [r7, #4]
  uint32_t tmp = 0U;
 8000bd0:	2300      	movs	r3, #0
 8000bd2:	60fb      	str	r3, [r7, #12]
  
  /* Check the DMA handle allocation */
  if(NULL == hdma)
 8000bd4:	687b      	ldr	r3, [r7, #4]
 8000bd6:	2b00      	cmp	r3, #0
 8000bd8:	d101      	bne.n	8000bde <HAL_DMA_Init+0x16>
  {
    return HAL_ERROR;
 8000bda:	2301      	movs	r3, #1
 8000bdc:	e036      	b.n	8000c4c <HAL_DMA_Init+0x84>
  assert_param(IS_DMA_MEMORY_DATA_SIZE(hdma->Init.MemDataAlignment));
  assert_param(IS_DMA_MODE(hdma->Init.Mode));
  assert_param(IS_DMA_PRIORITY(hdma->Init.Priority));
  
  /* Change DMA peripheral state */
  hdma->State = HAL_DMA_STATE_BUSY;
 8000bde:	687b      	ldr	r3, [r7, #4]
 8000be0:	2221      	movs	r2, #33	; 0x21
 8000be2:	2102      	movs	r1, #2
 8000be4:	5499      	strb	r1, [r3, r2]

  /* Get the CR register value */
  tmp = hdma->Instance->CCR;
 8000be6:	687b      	ldr	r3, [r7, #4]
 8000be8:	681b      	ldr	r3, [r3, #0]
 8000bea:	681b      	ldr	r3, [r3, #0]
 8000bec:	60fb      	str	r3, [r7, #12]
  
  /* Clear PL, MSIZE, PSIZE, MINC, PINC, CIRC, DIR bits */
  tmp &= ((uint32_t)~(DMA_CCR_PL    | DMA_CCR_MSIZE  | DMA_CCR_PSIZE  | \
 8000bee:	68fb      	ldr	r3, [r7, #12]
 8000bf0:	4a18      	ldr	r2, [pc, #96]	; (8000c54 <HAL_DMA_Init+0x8c>)
 8000bf2:	4013      	ands	r3, r2
 8000bf4:	60fb      	str	r3, [r7, #12]
                      DMA_CCR_MINC  | DMA_CCR_PINC   | DMA_CCR_CIRC   | \
                      DMA_CCR_DIR));
  
  /* Prepare the DMA Channel configuration */
  tmp |=  hdma->Init.Direction        |
 8000bf6:	687b      	ldr	r3, [r7, #4]
 8000bf8:	685a      	ldr	r2, [r3, #4]
          hdma->Init.PeriphInc           | hdma->Init.MemInc           |
 8000bfa:	687b      	ldr	r3, [r7, #4]
 8000bfc:	689b      	ldr	r3, [r3, #8]
  tmp |=  hdma->Init.Direction        |
 8000bfe:	431a      	orrs	r2, r3
          hdma->Init.PeriphInc           | hdma->Init.MemInc           |
 8000c00:	687b      	ldr	r3, [r7, #4]
 8000c02:	68db      	ldr	r3, [r3, #12]
 8000c04:	431a      	orrs	r2, r3
          hdma->Init.PeriphDataAlignment | hdma->Init.MemDataAlignment |
 8000c06:	687b      	ldr	r3, [r7, #4]
 8000c08:	691b      	ldr	r3, [r3, #16]
          hdma->Init.PeriphInc           | hdma->Init.MemInc           |
 8000c0a:	431a      	orrs	r2, r3
          hdma->Init.PeriphDataAlignment | hdma->Init.MemDataAlignment |
 8000c0c:	687b      	ldr	r3, [r7, #4]
 8000c0e:	695b      	ldr	r3, [r3, #20]
 8000c10:	431a      	orrs	r2, r3
          hdma->Init.Mode                | hdma->Init.Priority;
 8000c12:	687b      	ldr	r3, [r7, #4]
 8000c14:	699b      	ldr	r3, [r3, #24]
          hdma->Init.PeriphDataAlignment | hdma->Init.MemDataAlignment |
 8000c16:	431a      	orrs	r2, r3
          hdma->Init.Mode                | hdma->Init.Priority;
 8000c18:	687b      	ldr	r3, [r7, #4]
 8000c1a:	69db      	ldr	r3, [r3, #28]
 8000c1c:	4313      	orrs	r3, r2
  tmp |=  hdma->Init.Direction        |
 8000c1e:	68fa      	ldr	r2, [r7, #12]
 8000c20:	4313      	orrs	r3, r2
 8000c22:	60fb      	str	r3, [r7, #12]

  /* Write to DMA Channel CR register */
  hdma->Instance->CCR = tmp;  
 8000c24:	687b      	ldr	r3, [r7, #4]
 8000c26:	681b      	ldr	r3, [r3, #0]
 8000c28:	68fa      	ldr	r2, [r7, #12]
 8000c2a:	601a      	str	r2, [r3, #0]
  
  /* Initialize DmaBaseAddress and ChannelIndex parameters used 
     by HAL_DMA_IRQHandler() and HAL_DMA_PollForTransfer() */
  DMA_CalcBaseAndBitshift(hdma);
 8000c2c:	687b      	ldr	r3, [r7, #4]
 8000c2e:	0018      	movs	r0, r3
 8000c30:	f000 f98c 	bl	8000f4c <DMA_CalcBaseAndBitshift>
  
  /* Initialise the error code */
  hdma->ErrorCode = HAL_DMA_ERROR_NONE;
 8000c34:	687b      	ldr	r3, [r7, #4]
 8000c36:	2200      	movs	r2, #0
 8000c38:	639a      	str	r2, [r3, #56]	; 0x38

  /* Initialize the DMA state*/
  hdma->State = HAL_DMA_STATE_READY;
 8000c3a:	687b      	ldr	r3, [r7, #4]
 8000c3c:	2221      	movs	r2, #33	; 0x21
 8000c3e:	2101      	movs	r1, #1
 8000c40:	5499      	strb	r1, [r3, r2]
  
  /* Allocate lock resource and initialize it */
  hdma->Lock = HAL_UNLOCKED;
 8000c42:	687b      	ldr	r3, [r7, #4]
 8000c44:	2220      	movs	r2, #32
 8000c46:	2100      	movs	r1, #0
 8000c48:	5499      	strb	r1, [r3, r2]
  
  return HAL_OK;
 8000c4a:	2300      	movs	r3, #0
}  
 8000c4c:	0018      	movs	r0, r3
 8000c4e:	46bd      	mov	sp, r7
 8000c50:	b004      	add	sp, #16
 8000c52:	bd80      	pop	{r7, pc}
 8000c54:	ffffc00f 	.word	0xffffc00f

08000c58 <HAL_DMA_Start_IT>:
  * @param  DstAddress The destination memory Buffer address
  * @param  DataLength The length of data to be transferred from source to destination
  * @retval HAL status
  */
HAL_StatusTypeDef HAL_DMA_Start_IT(DMA_HandleTypeDef *hdma, uint32_t SrcAddress, uint32_t DstAddress, uint32_t DataLength)
{
 8000c58:	b580      	push	{r7, lr}
 8000c5a:	b086      	sub	sp, #24
 8000c5c:	af00      	add	r7, sp, #0
 8000c5e:	60f8      	str	r0, [r7, #12]
 8000c60:	60b9      	str	r1, [r7, #8]
 8000c62:	607a      	str	r2, [r7, #4]
 8000c64:	603b      	str	r3, [r7, #0]
	HAL_StatusTypeDef status = HAL_OK;
 8000c66:	2317      	movs	r3, #23
 8000c68:	18fb      	adds	r3, r7, r3
 8000c6a:	2200      	movs	r2, #0
 8000c6c:	701a      	strb	r2, [r3, #0]

  /* Check the parameters */
  assert_param(IS_DMA_BUFFER_SIZE(DataLength));
  
  /* Process locked */
  __HAL_LOCK(hdma);
 8000c6e:	68fb      	ldr	r3, [r7, #12]
 8000c70:	2220      	movs	r2, #32
 8000c72:	5c9b      	ldrb	r3, [r3, r2]
 8000c74:	2b01      	cmp	r3, #1
 8000c76:	d101      	bne.n	8000c7c <HAL_DMA_Start_IT+0x24>
 8000c78:	2302      	movs	r3, #2
 8000c7a:	e04f      	b.n	8000d1c <HAL_DMA_Start_IT+0xc4>
 8000c7c:	68fb      	ldr	r3, [r7, #12]
 8000c7e:	2220      	movs	r2, #32
 8000c80:	2101      	movs	r1, #1
 8000c82:	5499      	strb	r1, [r3, r2]
  
  if(HAL_DMA_STATE_READY == hdma->State)
 8000c84:	68fb      	ldr	r3, [r7, #12]
 8000c86:	2221      	movs	r2, #33	; 0x21
 8000c88:	5c9b      	ldrb	r3, [r3, r2]
 8000c8a:	b2db      	uxtb	r3, r3
 8000c8c:	2b01      	cmp	r3, #1
 8000c8e:	d13a      	bne.n	8000d06 <HAL_DMA_Start_IT+0xae>
  {
  	/* Change DMA peripheral state */  
  	hdma->State = HAL_DMA_STATE_BUSY;
 8000c90:	68fb      	ldr	r3, [r7, #12]
 8000c92:	2221      	movs	r2, #33	; 0x21
 8000c94:	2102      	movs	r1, #2
 8000c96:	5499      	strb	r1, [r3, r2]
  	
  	hdma->ErrorCode = HAL_DMA_ERROR_NONE;
 8000c98:	68fb      	ldr	r3, [r7, #12]
 8000c9a:	2200      	movs	r2, #0
 8000c9c:	639a      	str	r2, [r3, #56]	; 0x38
  	
  	/* Disable the peripheral */
  	hdma->Instance->CCR &= ~DMA_CCR_EN;
 8000c9e:	68fb      	ldr	r3, [r7, #12]
 8000ca0:	681b      	ldr	r3, [r3, #0]
 8000ca2:	681a      	ldr	r2, [r3, #0]
 8000ca4:	68fb      	ldr	r3, [r7, #12]
 8000ca6:	681b      	ldr	r3, [r3, #0]
 8000ca8:	2101      	movs	r1, #1
 8000caa:	438a      	bics	r2, r1
 8000cac:	601a      	str	r2, [r3, #0]
  	
  	/* Configure the source, destination address and the data length */  
  	DMA_SetConfig(hdma, SrcAddress, DstAddress, DataLength);
 8000cae:	683b      	ldr	r3, [r7, #0]
 8000cb0:	687a      	ldr	r2, [r7, #4]
 8000cb2:	68b9      	ldr	r1, [r7, #8]
 8000cb4:	68f8      	ldr	r0, [r7, #12]
 8000cb6:	f000 f91c 	bl	8000ef2 <DMA_SetConfig>
  	
  	/* Enable the transfer complete, & transfer error interrupts */
  	/* Half transfer interrupt is optional: enable it only if associated callback is available */
    if(NULL != hdma->XferHalfCpltCallback )
 8000cba:	68fb      	ldr	r3, [r7, #12]
 8000cbc:	6adb      	ldr	r3, [r3, #44]	; 0x2c
 8000cbe:	2b00      	cmp	r3, #0
 8000cc0:	d008      	beq.n	8000cd4 <HAL_DMA_Start_IT+0x7c>
    {
      hdma->Instance->CCR |= (DMA_IT_TC | DMA_IT_HT | DMA_IT_TE);
 8000cc2:	68fb      	ldr	r3, [r7, #12]
 8000cc4:	681b      	ldr	r3, [r3, #0]
 8000cc6:	681a      	ldr	r2, [r3, #0]
 8000cc8:	68fb      	ldr	r3, [r7, #12]
 8000cca:	681b      	ldr	r3, [r3, #0]
 8000ccc:	210e      	movs	r1, #14
 8000cce:	430a      	orrs	r2, r1
 8000cd0:	601a      	str	r2, [r3, #0]
 8000cd2:	e00f      	b.n	8000cf4 <HAL_DMA_Start_IT+0x9c>
    }
  	else
  	{
  		hdma->Instance->CCR |= (DMA_IT_TC | DMA_IT_TE);
 8000cd4:	68fb      	ldr	r3, [r7, #12]
 8000cd6:	681b      	ldr	r3, [r3, #0]
 8000cd8:	681a      	ldr	r2, [r3, #0]
 8000cda:	68fb      	ldr	r3, [r7, #12]
 8000cdc:	681b      	ldr	r3, [r3, #0]
 8000cde:	210a      	movs	r1, #10
 8000ce0:	430a      	orrs	r2, r1
 8000ce2:	601a      	str	r2, [r3, #0]
  		hdma->Instance->CCR &= ~DMA_IT_HT;
 8000ce4:	68fb      	ldr	r3, [r7, #12]
 8000ce6:	681b      	ldr	r3, [r3, #0]
 8000ce8:	681a      	ldr	r2, [r3, #0]
 8000cea:	68fb      	ldr	r3, [r7, #12]
 8000cec:	681b      	ldr	r3, [r3, #0]
 8000cee:	2104      	movs	r1, #4
 8000cf0:	438a      	bics	r2, r1
 8000cf2:	601a      	str	r2, [r3, #0]
  	}
  	
  	/* Enable the Peripheral */
  	hdma->Instance->CCR |= DMA_CCR_EN;
 8000cf4:	68fb      	ldr	r3, [r7, #12]
 8000cf6:	681b      	ldr	r3, [r3, #0]
 8000cf8:	681a      	ldr	r2, [r3, #0]
 8000cfa:	68fb      	ldr	r3, [r7, #12]
 8000cfc:	681b      	ldr	r3, [r3, #0]
 8000cfe:	2101      	movs	r1, #1
 8000d00:	430a      	orrs	r2, r1
 8000d02:	601a      	str	r2, [r3, #0]
 8000d04:	e007      	b.n	8000d16 <HAL_DMA_Start_IT+0xbe>
  }
  else
  {
  	/* Process Unlocked */
    __HAL_UNLOCK(hdma); 
 8000d06:	68fb      	ldr	r3, [r7, #12]
 8000d08:	2220      	movs	r2, #32
 8000d0a:	2100      	movs	r1, #0
 8000d0c:	5499      	strb	r1, [r3, r2]
  
    /* Remain BUSY */
    status = HAL_BUSY;
 8000d0e:	2317      	movs	r3, #23
 8000d10:	18fb      	adds	r3, r7, r3
 8000d12:	2202      	movs	r2, #2
 8000d14:	701a      	strb	r2, [r3, #0]
  }     
  
  return status;    
 8000d16:	2317      	movs	r3, #23
 8000d18:	18fb      	adds	r3, r7, r3
 8000d1a:	781b      	ldrb	r3, [r3, #0]
} 
 8000d1c:	0018      	movs	r0, r3
 8000d1e:	46bd      	mov	sp, r7
 8000d20:	b006      	add	sp, #24
 8000d22:	bd80      	pop	{r7, pc}

08000d24 <HAL_DMA_Abort_IT>:
  * @param  hdma  pointer to a DMA_HandleTypeDef structure that contains
  *               the configuration information for the specified DMA Stream.
  * @retval HAL status
  */
HAL_StatusTypeDef HAL_DMA_Abort_IT(DMA_HandleTypeDef *hdma)
{  
 8000d24:	b580      	push	{r7, lr}
 8000d26:	b084      	sub	sp, #16
 8000d28:	af00      	add	r7, sp, #0
 8000d2a:	6078      	str	r0, [r7, #4]
  HAL_StatusTypeDef status = HAL_OK;
 8000d2c:	210f      	movs	r1, #15
 8000d2e:	187b      	adds	r3, r7, r1
 8000d30:	2200      	movs	r2, #0
 8000d32:	701a      	strb	r2, [r3, #0]
  
  if(HAL_DMA_STATE_BUSY != hdma->State)
 8000d34:	687b      	ldr	r3, [r7, #4]
 8000d36:	2221      	movs	r2, #33	; 0x21
 8000d38:	5c9b      	ldrb	r3, [r3, r2]
 8000d3a:	b2db      	uxtb	r3, r3
 8000d3c:	2b02      	cmp	r3, #2
 8000d3e:	d006      	beq.n	8000d4e <HAL_DMA_Abort_IT+0x2a>
  {
    /* no transfer ongoing */
    hdma->ErrorCode = HAL_DMA_ERROR_NO_XFER;
 8000d40:	687b      	ldr	r3, [r7, #4]
 8000d42:	2204      	movs	r2, #4
 8000d44:	639a      	str	r2, [r3, #56]	; 0x38
        
    status = HAL_ERROR;
 8000d46:	187b      	adds	r3, r7, r1
 8000d48:	2201      	movs	r2, #1
 8000d4a:	701a      	strb	r2, [r3, #0]
 8000d4c:	e028      	b.n	8000da0 <HAL_DMA_Abort_IT+0x7c>
  }
  else
  { 
  
    /* Disable DMA IT */
    hdma->Instance->CCR &= ~(DMA_IT_TC | DMA_IT_HT | DMA_IT_TE);
 8000d4e:	687b      	ldr	r3, [r7, #4]
 8000d50:	681b      	ldr	r3, [r3, #0]
 8000d52:	681a      	ldr	r2, [r3, #0]
 8000d54:	687b      	ldr	r3, [r7, #4]
 8000d56:	681b      	ldr	r3, [r3, #0]
 8000d58:	210e      	movs	r1, #14
 8000d5a:	438a      	bics	r2, r1
 8000d5c:	601a      	str	r2, [r3, #0]
    
    /* Disable the channel */
    hdma->Instance->CCR &= ~DMA_CCR_EN;
 8000d5e:	687b      	ldr	r3, [r7, #4]
 8000d60:	681b      	ldr	r3, [r3, #0]
 8000d62:	681a      	ldr	r2, [r3, #0]
 8000d64:	687b      	ldr	r3, [r7, #4]
 8000d66:	681b      	ldr	r3, [r3, #0]
 8000d68:	2101      	movs	r1, #1
 8000d6a:	438a      	bics	r2, r1
 8000d6c:	601a      	str	r2, [r3, #0]
    
    /* Clear all flags */
    hdma->DmaBaseAddress->IFCR = DMA_FLAG_GL1 << hdma->ChannelIndex;
 8000d6e:	687b      	ldr	r3, [r7, #4]
 8000d70:	6c1a      	ldr	r2, [r3, #64]	; 0x40
 8000d72:	687b      	ldr	r3, [r7, #4]
 8000d74:	6bdb      	ldr	r3, [r3, #60]	; 0x3c
 8000d76:	2101      	movs	r1, #1
 8000d78:	4091      	lsls	r1, r2
 8000d7a:	000a      	movs	r2, r1
 8000d7c:	605a      	str	r2, [r3, #4]
    
    /* Change the DMA state */
    hdma->State = HAL_DMA_STATE_READY;
 8000d7e:	687b      	ldr	r3, [r7, #4]
 8000d80:	2221      	movs	r2, #33	; 0x21
 8000d82:	2101      	movs	r1, #1
 8000d84:	5499      	strb	r1, [r3, r2]
    
    /* Process Unlocked */
    __HAL_UNLOCK(hdma);
 8000d86:	687b      	ldr	r3, [r7, #4]
 8000d88:	2220      	movs	r2, #32
 8000d8a:	2100      	movs	r1, #0
 8000d8c:	5499      	strb	r1, [r3, r2]
    
    /* Call User Abort callback */ 
    if(hdma->XferAbortCallback != NULL)
 8000d8e:	687b      	ldr	r3, [r7, #4]
 8000d90:	6b5b      	ldr	r3, [r3, #52]	; 0x34
 8000d92:	2b00      	cmp	r3, #0
 8000d94:	d004      	beq.n	8000da0 <HAL_DMA_Abort_IT+0x7c>
    {
      hdma->XferAbortCallback(hdma);
 8000d96:	687b      	ldr	r3, [r7, #4]
 8000d98:	6b5b      	ldr	r3, [r3, #52]	; 0x34
 8000d9a:	687a      	ldr	r2, [r7, #4]
 8000d9c:	0010      	movs	r0, r2
 8000d9e:	4798      	blx	r3
    } 
  }
  return status;
 8000da0:	230f      	movs	r3, #15
 8000da2:	18fb      	adds	r3, r7, r3
 8000da4:	781b      	ldrb	r3, [r3, #0]
}
 8000da6:	0018      	movs	r0, r3
 8000da8:	46bd      	mov	sp, r7
 8000daa:	b004      	add	sp, #16
 8000dac:	bd80      	pop	{r7, pc}

08000dae <HAL_DMA_IRQHandler>:
  * @param  hdma pointer to a DMA_HandleTypeDef structure that contains
  *               the configuration information for the specified DMA Channel.  
  * @retval None
  */
void HAL_DMA_IRQHandler(DMA_HandleTypeDef *hdma)
{
 8000dae:	b580      	push	{r7, lr}
 8000db0:	b084      	sub	sp, #16
 8000db2:	af00      	add	r7, sp, #0
 8000db4:	6078      	str	r0, [r7, #4]
	uint32_t flag_it = hdma->DmaBaseAddress->ISR;
 8000db6:	687b      	ldr	r3, [r7, #4]
 8000db8:	6bdb      	ldr	r3, [r3, #60]	; 0x3c
 8000dba:	681b      	ldr	r3, [r3, #0]
 8000dbc:	60fb      	str	r3, [r7, #12]
  uint32_t source_it = hdma->Instance->CCR;
 8000dbe:	687b      	ldr	r3, [r7, #4]
 8000dc0:	681b      	ldr	r3, [r3, #0]
 8000dc2:	681b      	ldr	r3, [r3, #0]
 8000dc4:	60bb      	str	r3, [r7, #8]
          
  /* Half Transfer Complete Interrupt management ******************************/
  if ((RESET != (flag_it & (DMA_FLAG_HT1 << hdma->ChannelIndex))) && (RESET != (source_it & DMA_IT_HT)))
 8000dc6:	687b      	ldr	r3, [r7, #4]
 8000dc8:	6c1b      	ldr	r3, [r3, #64]	; 0x40
 8000dca:	2204      	movs	r2, #4
 8000dcc:	409a      	lsls	r2, r3
 8000dce:	0013      	movs	r3, r2
 8000dd0:	68fa      	ldr	r2, [r7, #12]
 8000dd2:	4013      	ands	r3, r2
 8000dd4:	d024      	beq.n	8000e20 <HAL_DMA_IRQHandler+0x72>
 8000dd6:	68bb      	ldr	r3, [r7, #8]
 8000dd8:	2204      	movs	r2, #4
 8000dda:	4013      	ands	r3, r2
 8000ddc:	d020      	beq.n	8000e20 <HAL_DMA_IRQHandler+0x72>
  {
  	/* Disable the half transfer interrupt if the DMA mode is not CIRCULAR */
  	if((hdma->Instance->CCR & DMA_CCR_CIRC) == 0U)
 8000dde:	687b      	ldr	r3, [r7, #4]
 8000de0:	681b      	ldr	r3, [r3, #0]
 8000de2:	681b      	ldr	r3, [r3, #0]
 8000de4:	2220      	movs	r2, #32
 8000de6:	4013      	ands	r3, r2
 8000de8:	d107      	bne.n	8000dfa <HAL_DMA_IRQHandler+0x4c>
  	{
  		/* Disable the half transfer interrupt */
  		hdma->Instance->CCR &= ~DMA_IT_HT;
 8000dea:	687b      	ldr	r3, [r7, #4]
 8000dec:	681b      	ldr	r3, [r3, #0]
 8000dee:	681a      	ldr	r2, [r3, #0]
 8000df0:	687b      	ldr	r3, [r7, #4]
 8000df2:	681b      	ldr	r3, [r3, #0]
 8000df4:	2104      	movs	r1, #4
 8000df6:	438a      	bics	r2, r1
 8000df8:	601a      	str	r2, [r3, #0]
  	}
  	
  	/* Clear the half transfer complete flag */
  	hdma->DmaBaseAddress->IFCR = DMA_FLAG_HT1 << hdma->ChannelIndex;
 8000dfa:	687b      	ldr	r3, [r7, #4]
 8000dfc:	6c1a      	ldr	r2, [r3, #64]	; 0x40
 8000dfe:	687b      	ldr	r3, [r7, #4]
 8000e00:	6bdb      	ldr	r3, [r3, #60]	; 0x3c
 8000e02:	2104      	movs	r1, #4
 8000e04:	4091      	lsls	r1, r2
 8000e06:	000a      	movs	r2, r1
 8000e08:	605a      	str	r2, [r3, #4]
  	
  	/* DMA peripheral state is not updated in Half Transfer */
  	/* State is updated only in Transfer Complete case */
  	
  	if(hdma->XferHalfCpltCallback != NULL)
 8000e0a:	687b      	ldr	r3, [r7, #4]
 8000e0c:	6adb      	ldr	r3, [r3, #44]	; 0x2c
 8000e0e:	2b00      	cmp	r3, #0
 8000e10:	d100      	bne.n	8000e14 <HAL_DMA_IRQHandler+0x66>
 8000e12:	e06a      	b.n	8000eea <HAL_DMA_IRQHandler+0x13c>
  	{
  		/* Half transfer callback */
  		hdma->XferHalfCpltCallback(hdma);
 8000e14:	687b      	ldr	r3, [r7, #4]
 8000e16:	6adb      	ldr	r3, [r3, #44]	; 0x2c
 8000e18:	687a      	ldr	r2, [r7, #4]
 8000e1a:	0010      	movs	r0, r2
 8000e1c:	4798      	blx	r3
  	if(hdma->XferHalfCpltCallback != NULL)
 8000e1e:	e064      	b.n	8000eea <HAL_DMA_IRQHandler+0x13c>
  	}
  }
  
  /* Transfer Complete Interrupt management ***********************************/
  else if ((RESET != (flag_it & (DMA_FLAG_TC1 << hdma->ChannelIndex))) && (RESET != (source_it & DMA_IT_TC)))
 8000e20:	687b      	ldr	r3, [r7, #4]
 8000e22:	6c1b      	ldr	r3, [r3, #64]	; 0x40
 8000e24:	2202      	movs	r2, #2
 8000e26:	409a      	lsls	r2, r3
 8000e28:	0013      	movs	r3, r2
 8000e2a:	68fa      	ldr	r2, [r7, #12]
 8000e2c:	4013      	ands	r3, r2
 8000e2e:	d02b      	beq.n	8000e88 <HAL_DMA_IRQHandler+0xda>
 8000e30:	68bb      	ldr	r3, [r7, #8]
 8000e32:	2202      	movs	r2, #2
 8000e34:	4013      	ands	r3, r2
 8000e36:	d027      	beq.n	8000e88 <HAL_DMA_IRQHandler+0xda>
  {
  	if((hdma->Instance->CCR & DMA_CCR_CIRC) == 0U)
 8000e38:	687b      	ldr	r3, [r7, #4]
 8000e3a:	681b      	ldr	r3, [r3, #0]
 8000e3c:	681b      	ldr	r3, [r3, #0]
 8000e3e:	2220      	movs	r2, #32
 8000e40:	4013      	ands	r3, r2
 8000e42:	d10b      	bne.n	8000e5c <HAL_DMA_IRQHandler+0xae>
  	{
  		/* Disable the transfer complete  & transfer error interrupts */
  		/* if the DMA mode is not CIRCULAR */
  		hdma->Instance->CCR &= ~(DMA_IT_TC | DMA_IT_TE);
 8000e44:	687b      	ldr	r3, [r7, #4]
 8000e46:	681b      	ldr	r3, [r3, #0]
 8000e48:	681a      	ldr	r2, [r3, #0]
 8000e4a:	687b      	ldr	r3, [r7, #4]
 8000e4c:	681b      	ldr	r3, [r3, #0]
 8000e4e:	210a      	movs	r1, #10
 8000e50:	438a      	bics	r2, r1
 8000e52:	601a      	str	r2, [r3, #0]
  		
  		/* Change the DMA state */
  		hdma->State = HAL_DMA_STATE_READY;
 8000e54:	687b      	ldr	r3, [r7, #4]
 8000e56:	2221      	movs	r2, #33	; 0x21
 8000e58:	2101      	movs	r1, #1
 8000e5a:	5499      	strb	r1, [r3, r2]
  	}
  	
  	/* Clear the transfer complete flag */
  	hdma->DmaBaseAddress->IFCR = DMA_FLAG_TC1 << hdma->ChannelIndex;
 8000e5c:	687b      	ldr	r3, [r7, #4]
 8000e5e:	6c1a      	ldr	r2, [r3, #64]	; 0x40
 8000e60:	687b      	ldr	r3, [r7, #4]
 8000e62:	6bdb      	ldr	r3, [r3, #60]	; 0x3c
 8000e64:	2102      	movs	r1, #2
 8000e66:	4091      	lsls	r1, r2
 8000e68:	000a      	movs	r2, r1
 8000e6a:	605a      	str	r2, [r3, #4]
  	
  	/* Process Unlocked */
  	__HAL_UNLOCK(hdma);
 8000e6c:	687b      	ldr	r3, [r7, #4]
 8000e6e:	2220      	movs	r2, #32
 8000e70:	2100      	movs	r1, #0
 8000e72:	5499      	strb	r1, [r3, r2]
  	
  	if(hdma->XferCpltCallback != NULL)
 8000e74:	687b      	ldr	r3, [r7, #4]
 8000e76:	6a9b      	ldr	r3, [r3, #40]	; 0x28
 8000e78:	2b00      	cmp	r3, #0
 8000e7a:	d036      	beq.n	8000eea <HAL_DMA_IRQHandler+0x13c>
  	{
  		/* Transfer complete callback */
  		hdma->XferCpltCallback(hdma);
 8000e7c:	687b      	ldr	r3, [r7, #4]
 8000e7e:	6a9b      	ldr	r3, [r3, #40]	; 0x28
 8000e80:	687a      	ldr	r2, [r7, #4]
 8000e82:	0010      	movs	r0, r2
 8000e84:	4798      	blx	r3
  	if(hdma->XferCpltCallback != NULL)
 8000e86:	e030      	b.n	8000eea <HAL_DMA_IRQHandler+0x13c>
  	}
  }
  
  /* Transfer Error Interrupt management ***************************************/
  else if (( RESET != (flag_it & (DMA_FLAG_TE1 << hdma->ChannelIndex))) && (RESET != (source_it & DMA_IT_TE)))
 8000e88:	687b      	ldr	r3, [r7, #4]
 8000e8a:	6c1b      	ldr	r3, [r3, #64]	; 0x40
 8000e8c:	2208      	movs	r2, #8
 8000e8e:	409a      	lsls	r2, r3
 8000e90:	0013      	movs	r3, r2
 8000e92:	68fa      	ldr	r2, [r7, #12]
 8000e94:	4013      	ands	r3, r2
 8000e96:	d028      	beq.n	8000eea <HAL_DMA_IRQHandler+0x13c>
 8000e98:	68bb      	ldr	r3, [r7, #8]
 8000e9a:	2208      	movs	r2, #8
 8000e9c:	4013      	ands	r3, r2
 8000e9e:	d024      	beq.n	8000eea <HAL_DMA_IRQHandler+0x13c>
  {
  	/* When a DMA transfer error occurs */
    /* A hardware clear of its EN bits is performed */
    /* Then, disable all DMA interrupts */
    hdma->Instance->CCR &= ~(DMA_IT_TC | DMA_IT_HT | DMA_IT_TE);
 8000ea0:	687b      	ldr	r3, [r7, #4]
 8000ea2:	681b      	ldr	r3, [r3, #0]
 8000ea4:	681a      	ldr	r2, [r3, #0]
 8000ea6:	687b      	ldr	r3, [r7, #4]
 8000ea8:	681b      	ldr	r3, [r3, #0]
 8000eaa:	210e      	movs	r1, #14
 8000eac:	438a      	bics	r2, r1
 8000eae:	601a      	str	r2, [r3, #0]
    
    /* Clear all flags */
    hdma->DmaBaseAddress->IFCR = DMA_FLAG_GL1 << hdma->ChannelIndex;
 8000eb0:	687b      	ldr	r3, [r7, #4]
 8000eb2:	6c1a      	ldr	r2, [r3, #64]	; 0x40
 8000eb4:	687b      	ldr	r3, [r7, #4]
 8000eb6:	6bdb      	ldr	r3, [r3, #60]	; 0x3c
 8000eb8:	2101      	movs	r1, #1
 8000eba:	4091      	lsls	r1, r2
 8000ebc:	000a      	movs	r2, r1
 8000ebe:	605a      	str	r2, [r3, #4]
    
    /* Update error code */
    hdma->ErrorCode = HAL_DMA_ERROR_TE;
 8000ec0:	687b      	ldr	r3, [r7, #4]
 8000ec2:	2201      	movs	r2, #1
 8000ec4:	639a      	str	r2, [r3, #56]	; 0x38
    
    /* Change the DMA state */
    hdma->State = HAL_DMA_STATE_READY;    
 8000ec6:	687b      	ldr	r3, [r7, #4]
 8000ec8:	2221      	movs	r2, #33	; 0x21
 8000eca:	2101      	movs	r1, #1
 8000ecc:	5499      	strb	r1, [r3, r2]
    
    /* Process Unlocked */
    __HAL_UNLOCK(hdma); 
 8000ece:	687b      	ldr	r3, [r7, #4]
 8000ed0:	2220      	movs	r2, #32
 8000ed2:	2100      	movs	r1, #0
 8000ed4:	5499      	strb	r1, [r3, r2]
    
    if(hdma->XferErrorCallback != NULL)
 8000ed6:	687b      	ldr	r3, [r7, #4]
 8000ed8:	6b1b      	ldr	r3, [r3, #48]	; 0x30
 8000eda:	2b00      	cmp	r3, #0
 8000edc:	d005      	beq.n	8000eea <HAL_DMA_IRQHandler+0x13c>
    {
    	/* Transfer error callback */
    	hdma->XferErrorCallback(hdma);
 8000ede:	687b      	ldr	r3, [r7, #4]
 8000ee0:	6b1b      	ldr	r3, [r3, #48]	; 0x30
 8000ee2:	687a      	ldr	r2, [r7, #4]
 8000ee4:	0010      	movs	r0, r2
 8000ee6:	4798      	blx	r3
    }
   }
}  
 8000ee8:	e7ff      	b.n	8000eea <HAL_DMA_IRQHandler+0x13c>
 8000eea:	46c0      	nop			; (mov r8, r8)
 8000eec:	46bd      	mov	sp, r7
 8000eee:	b004      	add	sp, #16
 8000ef0:	bd80      	pop	{r7, pc}

08000ef2 <DMA_SetConfig>:
  * @param  DstAddress The destination memory Buffer address
  * @param  DataLength The length of data to be transferred from source to destination
  * @retval HAL status
  */
static void DMA_SetConfig(DMA_HandleTypeDef *hdma, uint32_t SrcAddress, uint32_t DstAddress, uint32_t DataLength)
{
 8000ef2:	b580      	push	{r7, lr}
 8000ef4:	b084      	sub	sp, #16
 8000ef6:	af00      	add	r7, sp, #0
 8000ef8:	60f8      	str	r0, [r7, #12]
 8000efa:	60b9      	str	r1, [r7, #8]
 8000efc:	607a      	str	r2, [r7, #4]
 8000efe:	603b      	str	r3, [r7, #0]
	/* Clear all flags */
  hdma->DmaBaseAddress->IFCR  = (DMA_FLAG_GL1 << hdma->ChannelIndex);
 8000f00:	68fb      	ldr	r3, [r7, #12]
 8000f02:	6c1a      	ldr	r2, [r3, #64]	; 0x40
 8000f04:	68fb      	ldr	r3, [r7, #12]
 8000f06:	6bdb      	ldr	r3, [r3, #60]	; 0x3c
 8000f08:	2101      	movs	r1, #1
 8000f0a:	4091      	lsls	r1, r2
 8000f0c:	000a      	movs	r2, r1
 8000f0e:	605a      	str	r2, [r3, #4]
  
  /* Configure DMA Channel data length */
  hdma->Instance->CNDTR = DataLength;
 8000f10:	68fb      	ldr	r3, [r7, #12]
 8000f12:	681b      	ldr	r3, [r3, #0]
 8000f14:	683a      	ldr	r2, [r7, #0]
 8000f16:	605a      	str	r2, [r3, #4]
  
  /* Memory to Peripheral */
  if((hdma->Init.Direction) == DMA_MEMORY_TO_PERIPH)
 8000f18:	68fb      	ldr	r3, [r7, #12]
 8000f1a:	685b      	ldr	r3, [r3, #4]
 8000f1c:	2b10      	cmp	r3, #16
 8000f1e:	d108      	bne.n	8000f32 <DMA_SetConfig+0x40>
  {   
    /* Configure DMA Channel destination address */
    hdma->Instance->CPAR = DstAddress;
 8000f20:	68fb      	ldr	r3, [r7, #12]
 8000f22:	681b      	ldr	r3, [r3, #0]
 8000f24:	687a      	ldr	r2, [r7, #4]
 8000f26:	609a      	str	r2, [r3, #8]
    
    /* Configure DMA Channel source address */
    hdma->Instance->CMAR = SrcAddress;
 8000f28:	68fb      	ldr	r3, [r7, #12]
 8000f2a:	681b      	ldr	r3, [r3, #0]
 8000f2c:	68ba      	ldr	r2, [r7, #8]
 8000f2e:	60da      	str	r2, [r3, #12]
    hdma->Instance->CPAR = SrcAddress;
    
    /* Configure DMA Channel destination address */
    hdma->Instance->CMAR = DstAddress;
  }
}
 8000f30:	e007      	b.n	8000f42 <DMA_SetConfig+0x50>
    hdma->Instance->CPAR = SrcAddress;
 8000f32:	68fb      	ldr	r3, [r7, #12]
 8000f34:	681b      	ldr	r3, [r3, #0]
 8000f36:	68ba      	ldr	r2, [r7, #8]
 8000f38:	609a      	str	r2, [r3, #8]
    hdma->Instance->CMAR = DstAddress;
 8000f3a:	68fb      	ldr	r3, [r7, #12]
 8000f3c:	681b      	ldr	r3, [r3, #0]
 8000f3e:	687a      	ldr	r2, [r7, #4]
 8000f40:	60da      	str	r2, [r3, #12]
}
 8000f42:	46c0      	nop			; (mov r8, r8)
 8000f44:	46bd      	mov	sp, r7
 8000f46:	b004      	add	sp, #16
 8000f48:	bd80      	pop	{r7, pc}
	...

08000f4c <DMA_CalcBaseAndBitshift>:
  * @param  hdma       pointer to a DMA_HandleTypeDef structure that contains
  *                     the configuration information for the specified DMA Stream. 
  * @retval None
  */
static void DMA_CalcBaseAndBitshift(DMA_HandleTypeDef *hdma)
{
 8000f4c:	b580      	push	{r7, lr}
 8000f4e:	b082      	sub	sp, #8
 8000f50:	af00      	add	r7, sp, #0
 8000f52:	6078      	str	r0, [r7, #4]
    hdma->DmaBaseAddress = DMA2;
  }
#else
  /* calculation of the channel index */
  /* DMA1 */
  hdma->ChannelIndex = (((uint32_t)hdma->Instance - (uint32_t)DMA1_Channel1) / ((uint32_t)DMA1_Channel2 - (uint32_t)DMA1_Channel1)) << 2U;
 8000f54:	687b      	ldr	r3, [r7, #4]
 8000f56:	681b      	ldr	r3, [r3, #0]
 8000f58:	4a08      	ldr	r2, [pc, #32]	; (8000f7c <DMA_CalcBaseAndBitshift+0x30>)
 8000f5a:	4694      	mov	ip, r2
 8000f5c:	4463      	add	r3, ip
 8000f5e:	2114      	movs	r1, #20
 8000f60:	0018      	movs	r0, r3
 8000f62:	f7ff f8d1 	bl	8000108 <__udivsi3>
 8000f66:	0003      	movs	r3, r0
 8000f68:	009a      	lsls	r2, r3, #2
 8000f6a:	687b      	ldr	r3, [r7, #4]
 8000f6c:	641a      	str	r2, [r3, #64]	; 0x40
  hdma->DmaBaseAddress = DMA1;
 8000f6e:	687b      	ldr	r3, [r7, #4]
 8000f70:	4a03      	ldr	r2, [pc, #12]	; (8000f80 <DMA_CalcBaseAndBitshift+0x34>)
 8000f72:	63da      	str	r2, [r3, #60]	; 0x3c
#endif
}
 8000f74:	46c0      	nop			; (mov r8, r8)
 8000f76:	46bd      	mov	sp, r7
 8000f78:	b002      	add	sp, #8
 8000f7a:	bd80      	pop	{r7, pc}
 8000f7c:	bffdfff8 	.word	0xbffdfff8
 8000f80:	40020000 	.word	0x40020000

08000f84 <HAL_GPIO_Init>:
  * @param  GPIO_Init pointer to a GPIO_InitTypeDef structure that contains
  *         the configuration information for the specified GPIO peripheral.
  * @retval None
  */
void HAL_GPIO_Init(GPIO_TypeDef  *GPIOx, GPIO_InitTypeDef *GPIO_Init)
{
 8000f84:	b580      	push	{r7, lr}
 8000f86:	b086      	sub	sp, #24
 8000f88:	af00      	add	r7, sp, #0
 8000f8a:	6078      	str	r0, [r7, #4]
 8000f8c:	6039      	str	r1, [r7, #0]
  uint32_t position = 0x00u;
 8000f8e:	2300      	movs	r3, #0
 8000f90:	617b      	str	r3, [r7, #20]
  assert_param(IS_GPIO_ALL_INSTANCE(GPIOx));
  assert_param(IS_GPIO_PIN(GPIO_Init->Pin));
  assert_param(IS_GPIO_MODE(GPIO_Init->Mode));

  /* Configure the port pins */
  while (((GPIO_Init->Pin) >> position) != 0x00u)
 8000f92:	e14f      	b.n	8001234 <HAL_GPIO_Init+0x2b0>
  {
    /* Get current io position */
    iocurrent = (GPIO_Init->Pin) & (1uL << position);
 8000f94:	683b      	ldr	r3, [r7, #0]
 8000f96:	681b      	ldr	r3, [r3, #0]
 8000f98:	2101      	movs	r1, #1
 8000f9a:	697a      	ldr	r2, [r7, #20]
 8000f9c:	4091      	lsls	r1, r2
 8000f9e:	000a      	movs	r2, r1
 8000fa0:	4013      	ands	r3, r2
 8000fa2:	60fb      	str	r3, [r7, #12]

    if (iocurrent != 0x00u)
 8000fa4:	68fb      	ldr	r3, [r7, #12]
 8000fa6:	2b00      	cmp	r3, #0
 8000fa8:	d100      	bne.n	8000fac <HAL_GPIO_Init+0x28>
 8000faa:	e140      	b.n	800122e <HAL_GPIO_Init+0x2aa>
    {
      /*--------------------- GPIO Mode Configuration ------------------------*/
      /* In case of Output or Alternate function mode selection */
      if(((GPIO_Init->Mode & GPIO_MODE) == MODE_OUTPUT) ||
 8000fac:	683b      	ldr	r3, [r7, #0]
 8000fae:	685b      	ldr	r3, [r3, #4]
 8000fb0:	2203      	movs	r2, #3
 8000fb2:	4013      	ands	r3, r2
 8000fb4:	2b01      	cmp	r3, #1
 8000fb6:	d005      	beq.n	8000fc4 <HAL_GPIO_Init+0x40>
         ((GPIO_Init->Mode & GPIO_MODE) == MODE_AF))
 8000fb8:	683b      	ldr	r3, [r7, #0]
 8000fba:	685b      	ldr	r3, [r3, #4]
 8000fbc:	2203      	movs	r2, #3
 8000fbe:	4013      	ands	r3, r2
      if(((GPIO_Init->Mode & GPIO_MODE) == MODE_OUTPUT) ||
 8000fc0:	2b02      	cmp	r3, #2
 8000fc2:	d130      	bne.n	8001026 <HAL_GPIO_Init+0xa2>
      {
        /* Check the Speed parameter */
        assert_param(IS_GPIO_SPEED(GPIO_Init->Speed));
        /* Configure the IO Speed */
        temp = GPIOx->OSPEEDR;
 8000fc4:	687b      	ldr	r3, [r7, #4]
 8000fc6:	689b      	ldr	r3, [r3, #8]
 8000fc8:	613b      	str	r3, [r7, #16]
        temp &= ~(GPIO_OSPEEDER_OSPEEDR0 << (position * 2u));
 8000fca:	697b      	ldr	r3, [r7, #20]
 8000fcc:	005b      	lsls	r3, r3, #1
 8000fce:	2203      	movs	r2, #3
 8000fd0:	409a      	lsls	r2, r3
 8000fd2:	0013      	movs	r3, r2
 8000fd4:	43da      	mvns	r2, r3
 8000fd6:	693b      	ldr	r3, [r7, #16]
 8000fd8:	4013      	ands	r3, r2
 8000fda:	613b      	str	r3, [r7, #16]
        temp |= (GPIO_Init->Speed << (position * 2u));
 8000fdc:	683b      	ldr	r3, [r7, #0]
 8000fde:	68da      	ldr	r2, [r3, #12]
 8000fe0:	697b      	ldr	r3, [r7, #20]
 8000fe2:	005b      	lsls	r3, r3, #1
 8000fe4:	409a      	lsls	r2, r3
 8000fe6:	0013      	movs	r3, r2
 8000fe8:	693a      	ldr	r2, [r7, #16]
 8000fea:	4313      	orrs	r3, r2
 8000fec:	613b      	str	r3, [r7, #16]
        GPIOx->OSPEEDR = temp;
 8000fee:	687b      	ldr	r3, [r7, #4]
 8000ff0:	693a      	ldr	r2, [r7, #16]
 8000ff2:	609a      	str	r2, [r3, #8]

        /* Configure the IO Output Type */
        temp = GPIOx->OTYPER;
 8000ff4:	687b      	ldr	r3, [r7, #4]
 8000ff6:	685b      	ldr	r3, [r3, #4]
 8000ff8:	613b      	str	r3, [r7, #16]
        temp &= ~(GPIO_OTYPER_OT_0 << position) ;
 8000ffa:	2201      	movs	r2, #1
 8000ffc:	697b      	ldr	r3, [r7, #20]
 8000ffe:	409a      	lsls	r2, r3
 8001000:	0013      	movs	r3, r2
 8001002:	43da      	mvns	r2, r3
 8001004:	693b      	ldr	r3, [r7, #16]
 8001006:	4013      	ands	r3, r2
 8001008:	613b      	str	r3, [r7, #16]
        temp |= (((GPIO_Init->Mode & OUTPUT_TYPE) >> OUTPUT_TYPE_Pos) << position);
 800100a:	683b      	ldr	r3, [r7, #0]
 800100c:	685b      	ldr	r3, [r3, #4]
 800100e:	091b      	lsrs	r3, r3, #4
 8001010:	2201      	movs	r2, #1
 8001012:	401a      	ands	r2, r3
 8001014:	697b      	ldr	r3, [r7, #20]
 8001016:	409a      	lsls	r2, r3
 8001018:	0013      	movs	r3, r2
 800101a:	693a      	ldr	r2, [r7, #16]
 800101c:	4313      	orrs	r3, r2
 800101e:	613b      	str	r3, [r7, #16]
        GPIOx->OTYPER = temp;
 8001020:	687b      	ldr	r3, [r7, #4]
 8001022:	693a      	ldr	r2, [r7, #16]
 8001024:	605a      	str	r2, [r3, #4]
      }
      
      if((GPIO_Init->Mode & GPIO_MODE) != MODE_ANALOG)
 8001026:	683b      	ldr	r3, [r7, #0]
 8001028:	685b      	ldr	r3, [r3, #4]
 800102a:	2203      	movs	r2, #3
 800102c:	4013      	ands	r3, r2
 800102e:	2b03      	cmp	r3, #3
 8001030:	d017      	beq.n	8001062 <HAL_GPIO_Init+0xde>
      {
        /* Check the Pull parameter */
        assert_param(IS_GPIO_PULL(GPIO_Init->Pull));

        /* Activate the Pull-up or Pull down resistor for the current IO */
        temp = GPIOx->PUPDR;
 8001032:	687b      	ldr	r3, [r7, #4]
 8001034:	68db      	ldr	r3, [r3, #12]
 8001036:	613b      	str	r3, [r7, #16]
        temp &= ~(GPIO_PUPDR_PUPDR0 << (position * 2u));
 8001038:	697b      	ldr	r3, [r7, #20]
 800103a:	005b      	lsls	r3, r3, #1
 800103c:	2203      	movs	r2, #3
 800103e:	409a      	lsls	r2, r3
 8001040:	0013      	movs	r3, r2
 8001042:	43da      	mvns	r2, r3
 8001044:	693b      	ldr	r3, [r7, #16]
 8001046:	4013      	ands	r3, r2
 8001048:	613b      	str	r3, [r7, #16]
        temp |= ((GPIO_Init->Pull) << (position * 2u));
 800104a:	683b      	ldr	r3, [r7, #0]
 800104c:	689a      	ldr	r2, [r3, #8]
 800104e:	697b      	ldr	r3, [r7, #20]
 8001050:	005b      	lsls	r3, r3, #1
 8001052:	409a      	lsls	r2, r3
 8001054:	0013      	movs	r3, r2
 8001056:	693a      	ldr	r2, [r7, #16]
 8001058:	4313      	orrs	r3, r2
 800105a:	613b      	str	r3, [r7, #16]
        GPIOx->PUPDR = temp;
 800105c:	687b      	ldr	r3, [r7, #4]
 800105e:	693a      	ldr	r2, [r7, #16]
 8001060:	60da      	str	r2, [r3, #12]
      }

      /* In case of Alternate function mode selection */
      if((GPIO_Init->Mode & GPIO_MODE) == MODE_AF)
 8001062:	683b      	ldr	r3, [r7, #0]
 8001064:	685b      	ldr	r3, [r3, #4]
 8001066:	2203      	movs	r2, #3
 8001068:	4013      	ands	r3, r2
 800106a:	2b02      	cmp	r3, #2
 800106c:	d123      	bne.n	80010b6 <HAL_GPIO_Init+0x132>
        /* Check the Alternate function parameters */
        assert_param(IS_GPIO_AF_INSTANCE(GPIOx));
        assert_param(IS_GPIO_AF(GPIO_Init->Alternate));

        /* Configure Alternate function mapped with the current IO */
        temp = GPIOx->AFR[position >> 3u];
 800106e:	697b      	ldr	r3, [r7, #20]
 8001070:	08da      	lsrs	r2, r3, #3
 8001072:	687b      	ldr	r3, [r7, #4]
 8001074:	3208      	adds	r2, #8
 8001076:	0092      	lsls	r2, r2, #2
 8001078:	58d3      	ldr	r3, [r2, r3]
 800107a:	613b      	str	r3, [r7, #16]
        temp &= ~(0xFu << ((position & 0x07u) * 4u));
 800107c:	697b      	ldr	r3, [r7, #20]
 800107e:	2207      	movs	r2, #7
 8001080:	4013      	ands	r3, r2
 8001082:	009b      	lsls	r3, r3, #2
 8001084:	220f      	movs	r2, #15
 8001086:	409a      	lsls	r2, r3
 8001088:	0013      	movs	r3, r2
 800108a:	43da      	mvns	r2, r3
 800108c:	693b      	ldr	r3, [r7, #16]
 800108e:	4013      	ands	r3, r2
 8001090:	613b      	str	r3, [r7, #16]
        temp |= ((GPIO_Init->Alternate) << ((position & 0x07u) * 4u));
 8001092:	683b      	ldr	r3, [r7, #0]
 8001094:	691a      	ldr	r2, [r3, #16]
 8001096:	697b      	ldr	r3, [r7, #20]
 8001098:	2107      	movs	r1, #7
 800109a:	400b      	ands	r3, r1
 800109c:	009b      	lsls	r3, r3, #2
 800109e:	409a      	lsls	r2, r3
 80010a0:	0013      	movs	r3, r2
 80010a2:	693a      	ldr	r2, [r7, #16]
 80010a4:	4313      	orrs	r3, r2
 80010a6:	613b      	str	r3, [r7, #16]
        GPIOx->AFR[position >> 3u] = temp;
 80010a8:	697b      	ldr	r3, [r7, #20]
 80010aa:	08da      	lsrs	r2, r3, #3
 80010ac:	687b      	ldr	r3, [r7, #4]
 80010ae:	3208      	adds	r2, #8
 80010b0:	0092      	lsls	r2, r2, #2
 80010b2:	6939      	ldr	r1, [r7, #16]
 80010b4:	50d1      	str	r1, [r2, r3]
      }

      /* Configure IO Direction mode (Input, Output, Alternate or Analog) */
      temp = GPIOx->MODER;
 80010b6:	687b      	ldr	r3, [r7, #4]
 80010b8:	681b      	ldr	r3, [r3, #0]
 80010ba:	613b      	str	r3, [r7, #16]
      temp &= ~(GPIO_MODER_MODER0 << (position * 2u));
 80010bc:	697b      	ldr	r3, [r7, #20]
 80010be:	005b      	lsls	r3, r3, #1
 80010c0:	2203      	movs	r2, #3
 80010c2:	409a      	lsls	r2, r3
 80010c4:	0013      	movs	r3, r2
 80010c6:	43da      	mvns	r2, r3
 80010c8:	693b      	ldr	r3, [r7, #16]
 80010ca:	4013      	ands	r3, r2
 80010cc:	613b      	str	r3, [r7, #16]
      temp |= ((GPIO_Init->Mode & GPIO_MODE) << (position * 2u));
 80010ce:	683b      	ldr	r3, [r7, #0]
 80010d0:	685b      	ldr	r3, [r3, #4]
 80010d2:	2203      	movs	r2, #3
 80010d4:	401a      	ands	r2, r3
 80010d6:	697b      	ldr	r3, [r7, #20]
 80010d8:	005b      	lsls	r3, r3, #1
 80010da:	409a      	lsls	r2, r3
 80010dc:	0013      	movs	r3, r2
 80010de:	693a      	ldr	r2, [r7, #16]
 80010e0:	4313      	orrs	r3, r2
 80010e2:	613b      	str	r3, [r7, #16]
      GPIOx->MODER = temp;
 80010e4:	687b      	ldr	r3, [r7, #4]
 80010e6:	693a      	ldr	r2, [r7, #16]
 80010e8:	601a      	str	r2, [r3, #0]

      /*--------------------- EXTI Mode Configuration ------------------------*/
      /* Configure the External Interrupt or event for the current IO */
      if((GPIO_Init->Mode & EXTI_MODE) != 0x00u)
 80010ea:	683b      	ldr	r3, [r7, #0]
 80010ec:	685a      	ldr	r2, [r3, #4]
 80010ee:	23c0      	movs	r3, #192	; 0xc0
 80010f0:	029b      	lsls	r3, r3, #10
 80010f2:	4013      	ands	r3, r2
 80010f4:	d100      	bne.n	80010f8 <HAL_GPIO_Init+0x174>
 80010f6:	e09a      	b.n	800122e <HAL_GPIO_Init+0x2aa>
      {
        /* Enable SYSCFG Clock */
        __HAL_RCC_SYSCFG_CLK_ENABLE();
 80010f8:	4b54      	ldr	r3, [pc, #336]	; (800124c <HAL_GPIO_Init+0x2c8>)
 80010fa:	699a      	ldr	r2, [r3, #24]
 80010fc:	4b53      	ldr	r3, [pc, #332]	; (800124c <HAL_GPIO_Init+0x2c8>)
 80010fe:	2101      	movs	r1, #1
 8001100:	430a      	orrs	r2, r1
 8001102:	619a      	str	r2, [r3, #24]
 8001104:	4b51      	ldr	r3, [pc, #324]	; (800124c <HAL_GPIO_Init+0x2c8>)
 8001106:	699b      	ldr	r3, [r3, #24]
 8001108:	2201      	movs	r2, #1
 800110a:	4013      	ands	r3, r2
 800110c:	60bb      	str	r3, [r7, #8]
 800110e:	68bb      	ldr	r3, [r7, #8]

        temp = SYSCFG->EXTICR[position >> 2u];
 8001110:	4a4f      	ldr	r2, [pc, #316]	; (8001250 <HAL_GPIO_Init+0x2cc>)
 8001112:	697b      	ldr	r3, [r7, #20]
 8001114:	089b      	lsrs	r3, r3, #2
 8001116:	3302      	adds	r3, #2
 8001118:	009b      	lsls	r3, r3, #2
 800111a:	589b      	ldr	r3, [r3, r2]
 800111c:	613b      	str	r3, [r7, #16]
        temp &= ~(0x0FuL << (4u * (position & 0x03u)));
 800111e:	697b      	ldr	r3, [r7, #20]
 8001120:	2203      	movs	r2, #3
 8001122:	4013      	ands	r3, r2
 8001124:	009b      	lsls	r3, r3, #2
 8001126:	220f      	movs	r2, #15
 8001128:	409a      	lsls	r2, r3
 800112a:	0013      	movs	r3, r2
 800112c:	43da      	mvns	r2, r3
 800112e:	693b      	ldr	r3, [r7, #16]
 8001130:	4013      	ands	r3, r2
 8001132:	613b      	str	r3, [r7, #16]
        temp |= (GPIO_GET_INDEX(GPIOx) << (4u * (position & 0x03u)));
 8001134:	687a      	ldr	r2, [r7, #4]
 8001136:	2390      	movs	r3, #144	; 0x90
 8001138:	05db      	lsls	r3, r3, #23
 800113a:	429a      	cmp	r2, r3
 800113c:	d013      	beq.n	8001166 <HAL_GPIO_Init+0x1e2>
 800113e:	687b      	ldr	r3, [r7, #4]
 8001140:	4a44      	ldr	r2, [pc, #272]	; (8001254 <HAL_GPIO_Init+0x2d0>)
 8001142:	4293      	cmp	r3, r2
 8001144:	d00d      	beq.n	8001162 <HAL_GPIO_Init+0x1de>
 8001146:	687b      	ldr	r3, [r7, #4]
 8001148:	4a43      	ldr	r2, [pc, #268]	; (8001258 <HAL_GPIO_Init+0x2d4>)
 800114a:	4293      	cmp	r3, r2
 800114c:	d007      	beq.n	800115e <HAL_GPIO_Init+0x1da>
 800114e:	687b      	ldr	r3, [r7, #4]
 8001150:	4a42      	ldr	r2, [pc, #264]	; (800125c <HAL_GPIO_Init+0x2d8>)
 8001152:	4293      	cmp	r3, r2
 8001154:	d101      	bne.n	800115a <HAL_GPIO_Init+0x1d6>
 8001156:	2303      	movs	r3, #3
 8001158:	e006      	b.n	8001168 <HAL_GPIO_Init+0x1e4>
 800115a:	2305      	movs	r3, #5
 800115c:	e004      	b.n	8001168 <HAL_GPIO_Init+0x1e4>
 800115e:	2302      	movs	r3, #2
 8001160:	e002      	b.n	8001168 <HAL_GPIO_Init+0x1e4>
 8001162:	2301      	movs	r3, #1
 8001164:	e000      	b.n	8001168 <HAL_GPIO_Init+0x1e4>
 8001166:	2300      	movs	r3, #0
 8001168:	697a      	ldr	r2, [r7, #20]
 800116a:	2103      	movs	r1, #3
 800116c:	400a      	ands	r2, r1
 800116e:	0092      	lsls	r2, r2, #2
 8001170:	4093      	lsls	r3, r2
 8001172:	693a      	ldr	r2, [r7, #16]
 8001174:	4313      	orrs	r3, r2
 8001176:	613b      	str	r3, [r7, #16]
        SYSCFG->EXTICR[position >> 2u] = temp;
 8001178:	4935      	ldr	r1, [pc, #212]	; (8001250 <HAL_GPIO_Init+0x2cc>)
 800117a:	697b      	ldr	r3, [r7, #20]
 800117c:	089b      	lsrs	r3, r3, #2
 800117e:	3302      	adds	r3, #2
 8001180:	009b      	lsls	r3, r3, #2
 8001182:	693a      	ldr	r2, [r7, #16]
 8001184:	505a      	str	r2, [r3, r1]

        /* Clear EXTI line configuration */
        temp = EXTI->IMR;
 8001186:	4b36      	ldr	r3, [pc, #216]	; (8001260 <HAL_GPIO_Init+0x2dc>)
 8001188:	681b      	ldr	r3, [r3, #0]
 800118a:	613b      	str	r3, [r7, #16]
        temp &= ~(iocurrent);
 800118c:	68fb      	ldr	r3, [r7, #12]
 800118e:	43da      	mvns	r2, r3
 8001190:	693b      	ldr	r3, [r7, #16]
 8001192:	4013      	ands	r3, r2
 8001194:	613b      	str	r3, [r7, #16]
        if((GPIO_Init->Mode & EXTI_IT) != 0x00u)
 8001196:	683b      	ldr	r3, [r7, #0]
 8001198:	685a      	ldr	r2, [r3, #4]
 800119a:	2380      	movs	r3, #128	; 0x80
 800119c:	025b      	lsls	r3, r3, #9
 800119e:	4013      	ands	r3, r2
 80011a0:	d003      	beq.n	80011aa <HAL_GPIO_Init+0x226>
        {
          temp |= iocurrent;
 80011a2:	693a      	ldr	r2, [r7, #16]
 80011a4:	68fb      	ldr	r3, [r7, #12]
 80011a6:	4313      	orrs	r3, r2
 80011a8:	613b      	str	r3, [r7, #16]
        }
        EXTI->IMR = temp;
 80011aa:	4b2d      	ldr	r3, [pc, #180]	; (8001260 <HAL_GPIO_Init+0x2dc>)
 80011ac:	693a      	ldr	r2, [r7, #16]
 80011ae:	601a      	str	r2, [r3, #0]

        temp = EXTI->EMR;
 80011b0:	4b2b      	ldr	r3, [pc, #172]	; (8001260 <HAL_GPIO_Init+0x2dc>)
 80011b2:	685b      	ldr	r3, [r3, #4]
 80011b4:	613b      	str	r3, [r7, #16]
        temp &= ~(iocurrent);
 80011b6:	68fb      	ldr	r3, [r7, #12]
 80011b8:	43da      	mvns	r2, r3
 80011ba:	693b      	ldr	r3, [r7, #16]
 80011bc:	4013      	ands	r3, r2
 80011be:	613b      	str	r3, [r7, #16]
        if((GPIO_Init->Mode & EXTI_EVT) != 0x00u)
 80011c0:	683b      	ldr	r3, [r7, #0]
 80011c2:	685a      	ldr	r2, [r3, #4]
 80011c4:	2380      	movs	r3, #128	; 0x80
 80011c6:	029b      	lsls	r3, r3, #10
 80011c8:	4013      	ands	r3, r2
 80011ca:	d003      	beq.n	80011d4 <HAL_GPIO_Init+0x250>
        {
          temp |= iocurrent;
 80011cc:	693a      	ldr	r2, [r7, #16]
 80011ce:	68fb      	ldr	r3, [r7, #12]
 80011d0:	4313      	orrs	r3, r2
 80011d2:	613b      	str	r3, [r7, #16]
        }
        EXTI->EMR = temp;
 80011d4:	4b22      	ldr	r3, [pc, #136]	; (8001260 <HAL_GPIO_Init+0x2dc>)
 80011d6:	693a      	ldr	r2, [r7, #16]
 80011d8:	605a      	str	r2, [r3, #4]

        /* Clear Rising Falling edge configuration */
        temp = EXTI->RTSR;
 80011da:	4b21      	ldr	r3, [pc, #132]	; (8001260 <HAL_GPIO_Init+0x2dc>)
 80011dc:	689b      	ldr	r3, [r3, #8]
 80011de:	613b      	str	r3, [r7, #16]
        temp &= ~(iocurrent);
 80011e0:	68fb      	ldr	r3, [r7, #12]
 80011e2:	43da      	mvns	r2, r3
 80011e4:	693b      	ldr	r3, [r7, #16]
 80011e6:	4013      	ands	r3, r2
 80011e8:	613b      	str	r3, [r7, #16]
        if((GPIO_Init->Mode & TRIGGER_RISING) != 0x00u)
 80011ea:	683b      	ldr	r3, [r7, #0]
 80011ec:	685a      	ldr	r2, [r3, #4]
 80011ee:	2380      	movs	r3, #128	; 0x80
 80011f0:	035b      	lsls	r3, r3, #13
 80011f2:	4013      	ands	r3, r2
 80011f4:	d003      	beq.n	80011fe <HAL_GPIO_Init+0x27a>
        {
          temp |= iocurrent;
 80011f6:	693a      	ldr	r2, [r7, #16]
 80011f8:	68fb      	ldr	r3, [r7, #12]
 80011fa:	4313      	orrs	r3, r2
 80011fc:	613b      	str	r3, [r7, #16]
        }
        EXTI->RTSR = temp;
 80011fe:	4b18      	ldr	r3, [pc, #96]	; (8001260 <HAL_GPIO_Init+0x2dc>)
 8001200:	693a      	ldr	r2, [r7, #16]
 8001202:	609a      	str	r2, [r3, #8]

        temp = EXTI->FTSR;
 8001204:	4b16      	ldr	r3, [pc, #88]	; (8001260 <HAL_GPIO_Init+0x2dc>)
 8001206:	68db      	ldr	r3, [r3, #12]
 8001208:	613b      	str	r3, [r7, #16]
        temp &= ~(iocurrent);
 800120a:	68fb      	ldr	r3, [r7, #12]
 800120c:	43da      	mvns	r2, r3
 800120e:	693b      	ldr	r3, [r7, #16]
 8001210:	4013      	ands	r3, r2
 8001212:	613b      	str	r3, [r7, #16]
        if((GPIO_Init->Mode & TRIGGER_FALLING) != 0x00u)
 8001214:	683b      	ldr	r3, [r7, #0]
 8001216:	685a      	ldr	r2, [r3, #4]
 8001218:	2380      	movs	r3, #128	; 0x80
 800121a:	039b      	lsls	r3, r3, #14
 800121c:	4013      	ands	r3, r2
 800121e:	d003      	beq.n	8001228 <HAL_GPIO_Init+0x2a4>
        {
          temp |= iocurrent;
 8001220:	693a      	ldr	r2, [r7, #16]
 8001222:	68fb      	ldr	r3, [r7, #12]
 8001224:	4313      	orrs	r3, r2
 8001226:	613b      	str	r3, [r7, #16]
        }
        EXTI->FTSR = temp;
 8001228:	4b0d      	ldr	r3, [pc, #52]	; (8001260 <HAL_GPIO_Init+0x2dc>)
 800122a:	693a      	ldr	r2, [r7, #16]
 800122c:	60da      	str	r2, [r3, #12]
      }
    }

    position++;
 800122e:	697b      	ldr	r3, [r7, #20]
 8001230:	3301      	adds	r3, #1
 8001232:	617b      	str	r3, [r7, #20]
  while (((GPIO_Init->Pin) >> position) != 0x00u)
 8001234:	683b      	ldr	r3, [r7, #0]
 8001236:	681a      	ldr	r2, [r3, #0]
 8001238:	697b      	ldr	r3, [r7, #20]
 800123a:	40da      	lsrs	r2, r3
 800123c:	1e13      	subs	r3, r2, #0
 800123e:	d000      	beq.n	8001242 <HAL_GPIO_Init+0x2be>
 8001240:	e6a8      	b.n	8000f94 <HAL_GPIO_Init+0x10>
  } 
}
 8001242:	46c0      	nop			; (mov r8, r8)
 8001244:	46c0      	nop			; (mov r8, r8)
 8001246:	46bd      	mov	sp, r7
 8001248:	b006      	add	sp, #24
 800124a:	bd80      	pop	{r7, pc}
 800124c:	40021000 	.word	0x40021000
 8001250:	40010000 	.word	0x40010000
 8001254:	48000400 	.word	0x48000400
 8001258:	48000800 	.word	0x48000800
 800125c:	48000c00 	.word	0x48000c00
 8001260:	40010400 	.word	0x40010400

08001264 <HAL_GPIO_WritePin>:
  *            @arg GPIO_PIN_RESET: to clear the port pin
  *            @arg GPIO_PIN_SET: to set the port pin
  * @retval None
  */
void HAL_GPIO_WritePin(GPIO_TypeDef* GPIOx, uint16_t GPIO_Pin, GPIO_PinState PinState)
{
 8001264:	b580      	push	{r7, lr}
 8001266:	b082      	sub	sp, #8
 8001268:	af00      	add	r7, sp, #0
 800126a:	6078      	str	r0, [r7, #4]
 800126c:	0008      	movs	r0, r1
 800126e:	0011      	movs	r1, r2
 8001270:	1cbb      	adds	r3, r7, #2
 8001272:	1c02      	adds	r2, r0, #0
 8001274:	801a      	strh	r2, [r3, #0]
 8001276:	1c7b      	adds	r3, r7, #1
 8001278:	1c0a      	adds	r2, r1, #0
 800127a:	701a      	strb	r2, [r3, #0]
  /* Check the parameters */
  assert_param(IS_GPIO_PIN(GPIO_Pin));
  assert_param(IS_GPIO_PIN_ACTION(PinState));

  if (PinState != GPIO_PIN_RESET)
 800127c:	1c7b      	adds	r3, r7, #1
 800127e:	781b      	ldrb	r3, [r3, #0]
 8001280:	2b00      	cmp	r3, #0
 8001282:	d004      	beq.n	800128e <HAL_GPIO_WritePin+0x2a>
  {
    GPIOx->BSRR = (uint32_t)GPIO_Pin;
 8001284:	1cbb      	adds	r3, r7, #2
 8001286:	881a      	ldrh	r2, [r3, #0]
 8001288:	687b      	ldr	r3, [r7, #4]
 800128a:	619a      	str	r2, [r3, #24]
  }
  else
  {
    GPIOx->BRR = (uint32_t)GPIO_Pin;
  }
}
 800128c:	e003      	b.n	8001296 <HAL_GPIO_WritePin+0x32>
    GPIOx->BRR = (uint32_t)GPIO_Pin;
 800128e:	1cbb      	adds	r3, r7, #2
 8001290:	881a      	ldrh	r2, [r3, #0]
 8001292:	687b      	ldr	r3, [r7, #4]
 8001294:	629a      	str	r2, [r3, #40]	; 0x28
}
 8001296:	46c0      	nop			; (mov r8, r8)
 8001298:	46bd      	mov	sp, r7
 800129a:	b002      	add	sp, #8
 800129c:	bd80      	pop	{r7, pc}
	...

080012a0 <HAL_GPIO_EXTI_IRQHandler>:
  * @brief  Handle EXTI interrupt request.
  * @param  GPIO_Pin Specifies the port pin connected to corresponding EXTI line.
  * @retval None
  */
void HAL_GPIO_EXTI_IRQHandler(uint16_t GPIO_Pin)
{
 80012a0:	b580      	push	{r7, lr}
 80012a2:	b082      	sub	sp, #8
 80012a4:	af00      	add	r7, sp, #0
 80012a6:	0002      	movs	r2, r0
 80012a8:	1dbb      	adds	r3, r7, #6
 80012aa:	801a      	strh	r2, [r3, #0]
  /* EXTI line interrupt detected */
  if(__HAL_GPIO_EXTI_GET_IT(GPIO_Pin) != 0x00u)
 80012ac:	4b09      	ldr	r3, [pc, #36]	; (80012d4 <HAL_GPIO_EXTI_IRQHandler+0x34>)
 80012ae:	695b      	ldr	r3, [r3, #20]
 80012b0:	1dba      	adds	r2, r7, #6
 80012b2:	8812      	ldrh	r2, [r2, #0]
 80012b4:	4013      	ands	r3, r2
 80012b6:	d008      	beq.n	80012ca <HAL_GPIO_EXTI_IRQHandler+0x2a>
  { 
    __HAL_GPIO_EXTI_CLEAR_IT(GPIO_Pin);
 80012b8:	4b06      	ldr	r3, [pc, #24]	; (80012d4 <HAL_GPIO_EXTI_IRQHandler+0x34>)
 80012ba:	1dba      	adds	r2, r7, #6
 80012bc:	8812      	ldrh	r2, [r2, #0]
 80012be:	615a      	str	r2, [r3, #20]
    HAL_GPIO_EXTI_Callback(GPIO_Pin);
 80012c0:	1dbb      	adds	r3, r7, #6
 80012c2:	881b      	ldrh	r3, [r3, #0]
 80012c4:	0018      	movs	r0, r3
 80012c6:	f000 f807 	bl	80012d8 <HAL_GPIO_EXTI_Callback>
  }
}
 80012ca:	46c0      	nop			; (mov r8, r8)
 80012cc:	46bd      	mov	sp, r7
 80012ce:	b002      	add	sp, #8
 80012d0:	bd80      	pop	{r7, pc}
 80012d2:	46c0      	nop			; (mov r8, r8)
 80012d4:	40010400 	.word	0x40010400

080012d8 <HAL_GPIO_EXTI_Callback>:
  * @brief  EXTI line detection callback.
  * @param  GPIO_Pin Specifies the port pin connected to corresponding EXTI line.
  * @retval None
  */
__weak void HAL_GPIO_EXTI_Callback(uint16_t GPIO_Pin)
{
 80012d8:	b580      	push	{r7, lr}
 80012da:	b082      	sub	sp, #8
 80012dc:	af00      	add	r7, sp, #0
 80012de:	0002      	movs	r2, r0
 80012e0:	1dbb      	adds	r3, r7, #6
 80012e2:	801a      	strh	r2, [r3, #0]
  UNUSED(GPIO_Pin);

  /* NOTE: This function should not be modified, when the callback is needed,
            the HAL_GPIO_EXTI_Callback could be implemented in the user file
   */ 
}
 80012e4:	46c0      	nop			; (mov r8, r8)
 80012e6:	46bd      	mov	sp, r7
 80012e8:	b002      	add	sp, #8
 80012ea:	bd80      	pop	{r7, pc}

080012ec <HAL_RCC_OscConfig>:
  *         supported by this macro. User should request a transition to HSE Off
  *         first and then HSE On or HSE Bypass.
  * @retval HAL status
  */
HAL_StatusTypeDef HAL_RCC_OscConfig(RCC_OscInitTypeDef  *RCC_OscInitStruct)
{
 80012ec:	b580      	push	{r7, lr}
 80012ee:	b088      	sub	sp, #32
 80012f0:	af00      	add	r7, sp, #0
 80012f2:	6078      	str	r0, [r7, #4]
  uint32_t tickstart;
  uint32_t pll_config;
  uint32_t pll_config2;

  /* Check Null pointer */
  if(RCC_OscInitStruct == NULL)
 80012f4:	687b      	ldr	r3, [r7, #4]
 80012f6:	2b00      	cmp	r3, #0
 80012f8:	d101      	bne.n	80012fe <HAL_RCC_OscConfig+0x12>
  {
    return HAL_ERROR;
 80012fa:	2301      	movs	r3, #1
 80012fc:	e301      	b.n	8001902 <HAL_RCC_OscConfig+0x616>

  /* Check the parameters */
  assert_param(IS_RCC_OSCILLATORTYPE(RCC_OscInitStruct->OscillatorType));

  /*------------------------------- HSE Configuration ------------------------*/ 
  if(((RCC_OscInitStruct->OscillatorType) & RCC_OSCILLATORTYPE_HSE) == RCC_OSCILLATORTYPE_HSE)
 80012fe:	687b      	ldr	r3, [r7, #4]
 8001300:	681b      	ldr	r3, [r3, #0]
 8001302:	2201      	movs	r2, #1
 8001304:	4013      	ands	r3, r2
 8001306:	d100      	bne.n	800130a <HAL_RCC_OscConfig+0x1e>
 8001308:	e08d      	b.n	8001426 <HAL_RCC_OscConfig+0x13a>
  {
    /* Check the parameters */
    assert_param(IS_RCC_HSE(RCC_OscInitStruct->HSEState));

    /* When the HSE is used as system clock or clock source for PLL in these cases it is not allowed to be disabled */
    if((__HAL_RCC_GET_SYSCLK_SOURCE() == RCC_SYSCLKSOURCE_STATUS_HSE) 
 800130a:	4bc3      	ldr	r3, [pc, #780]	; (8001618 <HAL_RCC_OscConfig+0x32c>)
 800130c:	685b      	ldr	r3, [r3, #4]
 800130e:	220c      	movs	r2, #12
 8001310:	4013      	ands	r3, r2
 8001312:	2b04      	cmp	r3, #4
 8001314:	d00e      	beq.n	8001334 <HAL_RCC_OscConfig+0x48>
       || ((__HAL_RCC_GET_SYSCLK_SOURCE() == RCC_SYSCLKSOURCE_STATUS_PLLCLK) && (__HAL_RCC_GET_PLL_OSCSOURCE() == RCC_PLLSOURCE_HSE)))
 8001316:	4bc0      	ldr	r3, [pc, #768]	; (8001618 <HAL_RCC_OscConfig+0x32c>)
 8001318:	685b      	ldr	r3, [r3, #4]
 800131a:	220c      	movs	r2, #12
 800131c:	4013      	ands	r3, r2
 800131e:	2b08      	cmp	r3, #8
 8001320:	d116      	bne.n	8001350 <HAL_RCC_OscConfig+0x64>
 8001322:	4bbd      	ldr	r3, [pc, #756]	; (8001618 <HAL_RCC_OscConfig+0x32c>)
 8001324:	685a      	ldr	r2, [r3, #4]
 8001326:	2380      	movs	r3, #128	; 0x80
 8001328:	025b      	lsls	r3, r3, #9
 800132a:	401a      	ands	r2, r3
 800132c:	2380      	movs	r3, #128	; 0x80
 800132e:	025b      	lsls	r3, r3, #9
 8001330:	429a      	cmp	r2, r3
 8001332:	d10d      	bne.n	8001350 <HAL_RCC_OscConfig+0x64>
    {
      if((__HAL_RCC_GET_FLAG(RCC_FLAG_HSERDY) != RESET) && (RCC_OscInitStruct->HSEState == RCC_HSE_OFF))
 8001334:	4bb8      	ldr	r3, [pc, #736]	; (8001618 <HAL_RCC_OscConfig+0x32c>)
 8001336:	681a      	ldr	r2, [r3, #0]
 8001338:	2380      	movs	r3, #128	; 0x80
 800133a:	029b      	lsls	r3, r3, #10
 800133c:	4013      	ands	r3, r2
 800133e:	d100      	bne.n	8001342 <HAL_RCC_OscConfig+0x56>
 8001340:	e070      	b.n	8001424 <HAL_RCC_OscConfig+0x138>
 8001342:	687b      	ldr	r3, [r7, #4]
 8001344:	685b      	ldr	r3, [r3, #4]
 8001346:	2b00      	cmp	r3, #0
 8001348:	d000      	beq.n	800134c <HAL_RCC_OscConfig+0x60>
 800134a:	e06b      	b.n	8001424 <HAL_RCC_OscConfig+0x138>
      {
        return HAL_ERROR;
 800134c:	2301      	movs	r3, #1
 800134e:	e2d8      	b.n	8001902 <HAL_RCC_OscConfig+0x616>
      }
    }
    else
    {
      /* Set the new HSE configuration ---------------------------------------*/
      __HAL_RCC_HSE_CONFIG(RCC_OscInitStruct->HSEState);
 8001350:	687b      	ldr	r3, [r7, #4]
 8001352:	685b      	ldr	r3, [r3, #4]
 8001354:	2b01      	cmp	r3, #1
 8001356:	d107      	bne.n	8001368 <HAL_RCC_OscConfig+0x7c>
 8001358:	4baf      	ldr	r3, [pc, #700]	; (8001618 <HAL_RCC_OscConfig+0x32c>)
 800135a:	681a      	ldr	r2, [r3, #0]
 800135c:	4bae      	ldr	r3, [pc, #696]	; (8001618 <HAL_RCC_OscConfig+0x32c>)
 800135e:	2180      	movs	r1, #128	; 0x80
 8001360:	0249      	lsls	r1, r1, #9
 8001362:	430a      	orrs	r2, r1
 8001364:	601a      	str	r2, [r3, #0]
 8001366:	e02f      	b.n	80013c8 <HAL_RCC_OscConfig+0xdc>
 8001368:	687b      	ldr	r3, [r7, #4]
 800136a:	685b      	ldr	r3, [r3, #4]
 800136c:	2b00      	cmp	r3, #0
 800136e:	d10c      	bne.n	800138a <HAL_RCC_OscConfig+0x9e>
 8001370:	4ba9      	ldr	r3, [pc, #676]	; (8001618 <HAL_RCC_OscConfig+0x32c>)
 8001372:	681a      	ldr	r2, [r3, #0]
 8001374:	4ba8      	ldr	r3, [pc, #672]	; (8001618 <HAL_RCC_OscConfig+0x32c>)
 8001376:	49a9      	ldr	r1, [pc, #676]	; (800161c <HAL_RCC_OscConfig+0x330>)
 8001378:	400a      	ands	r2, r1
 800137a:	601a      	str	r2, [r3, #0]
 800137c:	4ba6      	ldr	r3, [pc, #664]	; (8001618 <HAL_RCC_OscConfig+0x32c>)
 800137e:	681a      	ldr	r2, [r3, #0]
 8001380:	4ba5      	ldr	r3, [pc, #660]	; (8001618 <HAL_RCC_OscConfig+0x32c>)
 8001382:	49a7      	ldr	r1, [pc, #668]	; (8001620 <HAL_RCC_OscConfig+0x334>)
 8001384:	400a      	ands	r2, r1
 8001386:	601a      	str	r2, [r3, #0]
 8001388:	e01e      	b.n	80013c8 <HAL_RCC_OscConfig+0xdc>
 800138a:	687b      	ldr	r3, [r7, #4]
 800138c:	685b      	ldr	r3, [r3, #4]
 800138e:	2b05      	cmp	r3, #5
 8001390:	d10e      	bne.n	80013b0 <HAL_RCC_OscConfig+0xc4>
 8001392:	4ba1      	ldr	r3, [pc, #644]	; (8001618 <HAL_RCC_OscConfig+0x32c>)
 8001394:	681a      	ldr	r2, [r3, #0]
 8001396:	4ba0      	ldr	r3, [pc, #640]	; (8001618 <HAL_RCC_OscConfig+0x32c>)
 8001398:	2180      	movs	r1, #128	; 0x80
 800139a:	02c9      	lsls	r1, r1, #11
 800139c:	430a      	orrs	r2, r1
 800139e:	601a      	str	r2, [r3, #0]
 80013a0:	4b9d      	ldr	r3, [pc, #628]	; (8001618 <HAL_RCC_OscConfig+0x32c>)
 80013a2:	681a      	ldr	r2, [r3, #0]
 80013a4:	4b9c      	ldr	r3, [pc, #624]	; (8001618 <HAL_RCC_OscConfig+0x32c>)
 80013a6:	2180      	movs	r1, #128	; 0x80
 80013a8:	0249      	lsls	r1, r1, #9
 80013aa:	430a      	orrs	r2, r1
 80013ac:	601a      	str	r2, [r3, #0]
 80013ae:	e00b      	b.n	80013c8 <HAL_RCC_OscConfig+0xdc>
 80013b0:	4b99      	ldr	r3, [pc, #612]	; (8001618 <HAL_RCC_OscConfig+0x32c>)
 80013b2:	681a      	ldr	r2, [r3, #0]
 80013b4:	4b98      	ldr	r3, [pc, #608]	; (8001618 <HAL_RCC_OscConfig+0x32c>)
 80013b6:	4999      	ldr	r1, [pc, #612]	; (800161c <HAL_RCC_OscConfig+0x330>)
 80013b8:	400a      	ands	r2, r1
 80013ba:	601a      	str	r2, [r3, #0]
 80013bc:	4b96      	ldr	r3, [pc, #600]	; (8001618 <HAL_RCC_OscConfig+0x32c>)
 80013be:	681a      	ldr	r2, [r3, #0]
 80013c0:	4b95      	ldr	r3, [pc, #596]	; (8001618 <HAL_RCC_OscConfig+0x32c>)
 80013c2:	4997      	ldr	r1, [pc, #604]	; (8001620 <HAL_RCC_OscConfig+0x334>)
 80013c4:	400a      	ands	r2, r1
 80013c6:	601a      	str	r2, [r3, #0]
      

       /* Check the HSE State */
      if(RCC_OscInitStruct->HSEState != RCC_HSE_OFF)
 80013c8:	687b      	ldr	r3, [r7, #4]
 80013ca:	685b      	ldr	r3, [r3, #4]
 80013cc:	2b00      	cmp	r3, #0
 80013ce:	d014      	beq.n	80013fa <HAL_RCC_OscConfig+0x10e>
      {
        /* Get Start Tick */
        tickstart = HAL_GetTick();
 80013d0:	f7ff fb12 	bl	80009f8 <HAL_GetTick>
 80013d4:	0003      	movs	r3, r0
 80013d6:	61bb      	str	r3, [r7, #24]
        
        /* Wait till HSE is ready */
        while(__HAL_RCC_GET_FLAG(RCC_FLAG_HSERDY) == RESET)
 80013d8:	e008      	b.n	80013ec <HAL_RCC_OscConfig+0x100>
        {
          if((HAL_GetTick() - tickstart ) > HSE_TIMEOUT_VALUE)
 80013da:	f7ff fb0d 	bl	80009f8 <HAL_GetTick>
 80013de:	0002      	movs	r2, r0
 80013e0:	69bb      	ldr	r3, [r7, #24]
 80013e2:	1ad3      	subs	r3, r2, r3
 80013e4:	2b64      	cmp	r3, #100	; 0x64
 80013e6:	d901      	bls.n	80013ec <HAL_RCC_OscConfig+0x100>
          {
            return HAL_TIMEOUT;
 80013e8:	2303      	movs	r3, #3
 80013ea:	e28a      	b.n	8001902 <HAL_RCC_OscConfig+0x616>
        while(__HAL_RCC_GET_FLAG(RCC_FLAG_HSERDY) == RESET)
 80013ec:	4b8a      	ldr	r3, [pc, #552]	; (8001618 <HAL_RCC_OscConfig+0x32c>)
 80013ee:	681a      	ldr	r2, [r3, #0]
 80013f0:	2380      	movs	r3, #128	; 0x80
 80013f2:	029b      	lsls	r3, r3, #10
 80013f4:	4013      	ands	r3, r2
 80013f6:	d0f0      	beq.n	80013da <HAL_RCC_OscConfig+0xee>
 80013f8:	e015      	b.n	8001426 <HAL_RCC_OscConfig+0x13a>
        }
      }
      else
      {
        /* Get Start Tick */
        tickstart = HAL_GetTick();
 80013fa:	f7ff fafd 	bl	80009f8 <HAL_GetTick>
 80013fe:	0003      	movs	r3, r0
 8001400:	61bb      	str	r3, [r7, #24]
        
        /* Wait till HSE is disabled */
        while(__HAL_RCC_GET_FLAG(RCC_FLAG_HSERDY) != RESET)
 8001402:	e008      	b.n	8001416 <HAL_RCC_OscConfig+0x12a>
        {
           if((HAL_GetTick() - tickstart ) > HSE_TIMEOUT_VALUE)
 8001404:	f7ff faf8 	bl	80009f8 <HAL_GetTick>
 8001408:	0002      	movs	r2, r0
 800140a:	69bb      	ldr	r3, [r7, #24]
 800140c:	1ad3      	subs	r3, r2, r3
 800140e:	2b64      	cmp	r3, #100	; 0x64
 8001410:	d901      	bls.n	8001416 <HAL_RCC_OscConfig+0x12a>
          {
            return HAL_TIMEOUT;
 8001412:	2303      	movs	r3, #3
 8001414:	e275      	b.n	8001902 <HAL_RCC_OscConfig+0x616>
        while(__HAL_RCC_GET_FLAG(RCC_FLAG_HSERDY) != RESET)
 8001416:	4b80      	ldr	r3, [pc, #512]	; (8001618 <HAL_RCC_OscConfig+0x32c>)
 8001418:	681a      	ldr	r2, [r3, #0]
 800141a:	2380      	movs	r3, #128	; 0x80
 800141c:	029b      	lsls	r3, r3, #10
 800141e:	4013      	ands	r3, r2
 8001420:	d1f0      	bne.n	8001404 <HAL_RCC_OscConfig+0x118>
 8001422:	e000      	b.n	8001426 <HAL_RCC_OscConfig+0x13a>
      if((__HAL_RCC_GET_FLAG(RCC_FLAG_HSERDY) != RESET) && (RCC_OscInitStruct->HSEState == RCC_HSE_OFF))
 8001424:	46c0      	nop			; (mov r8, r8)
        }
      }
    }
  }
  /*----------------------------- HSI Configuration --------------------------*/ 
  if(((RCC_OscInitStruct->OscillatorType) & RCC_OSCILLATORTYPE_HSI) == RCC_OSCILLATORTYPE_HSI)
 8001426:	687b      	ldr	r3, [r7, #4]
 8001428:	681b      	ldr	r3, [r3, #0]
 800142a:	2202      	movs	r2, #2
 800142c:	4013      	ands	r3, r2
 800142e:	d100      	bne.n	8001432 <HAL_RCC_OscConfig+0x146>
 8001430:	e069      	b.n	8001506 <HAL_RCC_OscConfig+0x21a>
    /* Check the parameters */
    assert_param(IS_RCC_HSI(RCC_OscInitStruct->HSIState));
    assert_param(IS_RCC_CALIBRATION_VALUE(RCC_OscInitStruct->HSICalibrationValue));
    
    /* Check if HSI is used as system clock or as PLL source when PLL is selected as system clock */ 
    if((__HAL_RCC_GET_SYSCLK_SOURCE() == RCC_SYSCLKSOURCE_STATUS_HSI) 
 8001432:	4b79      	ldr	r3, [pc, #484]	; (8001618 <HAL_RCC_OscConfig+0x32c>)
 8001434:	685b      	ldr	r3, [r3, #4]
 8001436:	220c      	movs	r2, #12
 8001438:	4013      	ands	r3, r2
 800143a:	d00b      	beq.n	8001454 <HAL_RCC_OscConfig+0x168>
       || ((__HAL_RCC_GET_SYSCLK_SOURCE() == RCC_SYSCLKSOURCE_STATUS_PLLCLK) && (__HAL_RCC_GET_PLL_OSCSOURCE() == RCC_PLLSOURCE_HSI)))
 800143c:	4b76      	ldr	r3, [pc, #472]	; (8001618 <HAL_RCC_OscConfig+0x32c>)
 800143e:	685b      	ldr	r3, [r3, #4]
 8001440:	220c      	movs	r2, #12
 8001442:	4013      	ands	r3, r2
 8001444:	2b08      	cmp	r3, #8
 8001446:	d11c      	bne.n	8001482 <HAL_RCC_OscConfig+0x196>
 8001448:	4b73      	ldr	r3, [pc, #460]	; (8001618 <HAL_RCC_OscConfig+0x32c>)
 800144a:	685a      	ldr	r2, [r3, #4]
 800144c:	2380      	movs	r3, #128	; 0x80
 800144e:	025b      	lsls	r3, r3, #9
 8001450:	4013      	ands	r3, r2
 8001452:	d116      	bne.n	8001482 <HAL_RCC_OscConfig+0x196>
    {
      /* When HSI is used as system clock it will not disabled */
      if((__HAL_RCC_GET_FLAG(RCC_FLAG_HSIRDY) != RESET) && (RCC_OscInitStruct->HSIState != RCC_HSI_ON))
 8001454:	4b70      	ldr	r3, [pc, #448]	; (8001618 <HAL_RCC_OscConfig+0x32c>)
 8001456:	681b      	ldr	r3, [r3, #0]
 8001458:	2202      	movs	r2, #2
 800145a:	4013      	ands	r3, r2
 800145c:	d005      	beq.n	800146a <HAL_RCC_OscConfig+0x17e>
 800145e:	687b      	ldr	r3, [r7, #4]
 8001460:	68db      	ldr	r3, [r3, #12]
 8001462:	2b01      	cmp	r3, #1
 8001464:	d001      	beq.n	800146a <HAL_RCC_OscConfig+0x17e>
      {
        return HAL_ERROR;
 8001466:	2301      	movs	r3, #1
 8001468:	e24b      	b.n	8001902 <HAL_RCC_OscConfig+0x616>
      }
      /* Otherwise, just the calibration is allowed */
      else
      {
        /* Adjusts the Internal High Speed oscillator (HSI) calibration value.*/
        __HAL_RCC_HSI_CALIBRATIONVALUE_ADJUST(RCC_OscInitStruct->HSICalibrationValue);
 800146a:	4b6b      	ldr	r3, [pc, #428]	; (8001618 <HAL_RCC_OscConfig+0x32c>)
 800146c:	681b      	ldr	r3, [r3, #0]
 800146e:	22f8      	movs	r2, #248	; 0xf8
 8001470:	4393      	bics	r3, r2
 8001472:	0019      	movs	r1, r3
 8001474:	687b      	ldr	r3, [r7, #4]
 8001476:	691b      	ldr	r3, [r3, #16]
 8001478:	00da      	lsls	r2, r3, #3
 800147a:	4b67      	ldr	r3, [pc, #412]	; (8001618 <HAL_RCC_OscConfig+0x32c>)
 800147c:	430a      	orrs	r2, r1
 800147e:	601a      	str	r2, [r3, #0]
      if((__HAL_RCC_GET_FLAG(RCC_FLAG_HSIRDY) != RESET) && (RCC_OscInitStruct->HSIState != RCC_HSI_ON))
 8001480:	e041      	b.n	8001506 <HAL_RCC_OscConfig+0x21a>
      }
    }
    else
    {
      /* Check the HSI State */
      if(RCC_OscInitStruct->HSIState != RCC_HSI_OFF)
 8001482:	687b      	ldr	r3, [r7, #4]
 8001484:	68db      	ldr	r3, [r3, #12]
 8001486:	2b00      	cmp	r3, #0
 8001488:	d024      	beq.n	80014d4 <HAL_RCC_OscConfig+0x1e8>
      {
       /* Enable the Internal High Speed oscillator (HSI). */
        __HAL_RCC_HSI_ENABLE();
 800148a:	4b63      	ldr	r3, [pc, #396]	; (8001618 <HAL_RCC_OscConfig+0x32c>)
 800148c:	681a      	ldr	r2, [r3, #0]
 800148e:	4b62      	ldr	r3, [pc, #392]	; (8001618 <HAL_RCC_OscConfig+0x32c>)
 8001490:	2101      	movs	r1, #1
 8001492:	430a      	orrs	r2, r1
 8001494:	601a      	str	r2, [r3, #0]
        
        /* Get Start Tick */
        tickstart = HAL_GetTick();
 8001496:	f7ff faaf 	bl	80009f8 <HAL_GetTick>
 800149a:	0003      	movs	r3, r0
 800149c:	61bb      	str	r3, [r7, #24]
        
        /* Wait till HSI is ready */
        while(__HAL_RCC_GET_FLAG(RCC_FLAG_HSIRDY) == RESET)
 800149e:	e008      	b.n	80014b2 <HAL_RCC_OscConfig+0x1c6>
        {
          if((HAL_GetTick() - tickstart ) > HSI_TIMEOUT_VALUE)
 80014a0:	f7ff faaa 	bl	80009f8 <HAL_GetTick>
 80014a4:	0002      	movs	r2, r0
 80014a6:	69bb      	ldr	r3, [r7, #24]
 80014a8:	1ad3      	subs	r3, r2, r3
 80014aa:	2b02      	cmp	r3, #2
 80014ac:	d901      	bls.n	80014b2 <HAL_RCC_OscConfig+0x1c6>
          {
            return HAL_TIMEOUT;
 80014ae:	2303      	movs	r3, #3
 80014b0:	e227      	b.n	8001902 <HAL_RCC_OscConfig+0x616>
        while(__HAL_RCC_GET_FLAG(RCC_FLAG_HSIRDY) == RESET)
 80014b2:	4b59      	ldr	r3, [pc, #356]	; (8001618 <HAL_RCC_OscConfig+0x32c>)
 80014b4:	681b      	ldr	r3, [r3, #0]
 80014b6:	2202      	movs	r2, #2
 80014b8:	4013      	ands	r3, r2
 80014ba:	d0f1      	beq.n	80014a0 <HAL_RCC_OscConfig+0x1b4>
          }
        }
                
        /* Adjusts the Internal High Speed oscillator (HSI) calibration value.*/
        __HAL_RCC_HSI_CALIBRATIONVALUE_ADJUST(RCC_OscInitStruct->HSICalibrationValue);
 80014bc:	4b56      	ldr	r3, [pc, #344]	; (8001618 <HAL_RCC_OscConfig+0x32c>)
 80014be:	681b      	ldr	r3, [r3, #0]
 80014c0:	22f8      	movs	r2, #248	; 0xf8
 80014c2:	4393      	bics	r3, r2
 80014c4:	0019      	movs	r1, r3
 80014c6:	687b      	ldr	r3, [r7, #4]
 80014c8:	691b      	ldr	r3, [r3, #16]
 80014ca:	00da      	lsls	r2, r3, #3
 80014cc:	4b52      	ldr	r3, [pc, #328]	; (8001618 <HAL_RCC_OscConfig+0x32c>)
 80014ce:	430a      	orrs	r2, r1
 80014d0:	601a      	str	r2, [r3, #0]
 80014d2:	e018      	b.n	8001506 <HAL_RCC_OscConfig+0x21a>
      }
      else
      {
        /* Disable the Internal High Speed oscillator (HSI). */
        __HAL_RCC_HSI_DISABLE();
 80014d4:	4b50      	ldr	r3, [pc, #320]	; (8001618 <HAL_RCC_OscConfig+0x32c>)
 80014d6:	681a      	ldr	r2, [r3, #0]
 80014d8:	4b4f      	ldr	r3, [pc, #316]	; (8001618 <HAL_RCC_OscConfig+0x32c>)
 80014da:	2101      	movs	r1, #1
 80014dc:	438a      	bics	r2, r1
 80014de:	601a      	str	r2, [r3, #0]
        
        /* Get Start Tick */
        tickstart = HAL_GetTick();
 80014e0:	f7ff fa8a 	bl	80009f8 <HAL_GetTick>
 80014e4:	0003      	movs	r3, r0
 80014e6:	61bb      	str	r3, [r7, #24]
        
        /* Wait till HSI is disabled */
        while(__HAL_RCC_GET_FLAG(RCC_FLAG_HSIRDY) != RESET)
 80014e8:	e008      	b.n	80014fc <HAL_RCC_OscConfig+0x210>
        {
          if((HAL_GetTick() - tickstart ) > HSI_TIMEOUT_VALUE)
 80014ea:	f7ff fa85 	bl	80009f8 <HAL_GetTick>
 80014ee:	0002      	movs	r2, r0
 80014f0:	69bb      	ldr	r3, [r7, #24]
 80014f2:	1ad3      	subs	r3, r2, r3
 80014f4:	2b02      	cmp	r3, #2
 80014f6:	d901      	bls.n	80014fc <HAL_RCC_OscConfig+0x210>
          {
            return HAL_TIMEOUT;
 80014f8:	2303      	movs	r3, #3
 80014fa:	e202      	b.n	8001902 <HAL_RCC_OscConfig+0x616>
        while(__HAL_RCC_GET_FLAG(RCC_FLAG_HSIRDY) != RESET)
 80014fc:	4b46      	ldr	r3, [pc, #280]	; (8001618 <HAL_RCC_OscConfig+0x32c>)
 80014fe:	681b      	ldr	r3, [r3, #0]
 8001500:	2202      	movs	r2, #2
 8001502:	4013      	ands	r3, r2
 8001504:	d1f1      	bne.n	80014ea <HAL_RCC_OscConfig+0x1fe>
        }
      }
    }
  }
  /*------------------------------ LSI Configuration -------------------------*/ 
  if(((RCC_OscInitStruct->OscillatorType) & RCC_OSCILLATORTYPE_LSI) == RCC_OSCILLATORTYPE_LSI)
 8001506:	687b      	ldr	r3, [r7, #4]
 8001508:	681b      	ldr	r3, [r3, #0]
 800150a:	2208      	movs	r2, #8
 800150c:	4013      	ands	r3, r2
 800150e:	d036      	beq.n	800157e <HAL_RCC_OscConfig+0x292>
  {
    /* Check the parameters */
    assert_param(IS_RCC_LSI(RCC_OscInitStruct->LSIState));
    
    /* Check the LSI State */
    if(RCC_OscInitStruct->LSIState != RCC_LSI_OFF)
 8001510:	687b      	ldr	r3, [r7, #4]
 8001512:	69db      	ldr	r3, [r3, #28]
 8001514:	2b00      	cmp	r3, #0
 8001516:	d019      	beq.n	800154c <HAL_RCC_OscConfig+0x260>
    {
      /* Enable the Internal Low Speed oscillator (LSI). */
      __HAL_RCC_LSI_ENABLE();
 8001518:	4b3f      	ldr	r3, [pc, #252]	; (8001618 <HAL_RCC_OscConfig+0x32c>)
 800151a:	6a5a      	ldr	r2, [r3, #36]	; 0x24
 800151c:	4b3e      	ldr	r3, [pc, #248]	; (8001618 <HAL_RCC_OscConfig+0x32c>)
 800151e:	2101      	movs	r1, #1
 8001520:	430a      	orrs	r2, r1
 8001522:	625a      	str	r2, [r3, #36]	; 0x24
      
      /* Get Start Tick */
      tickstart = HAL_GetTick();
 8001524:	f7ff fa68 	bl	80009f8 <HAL_GetTick>
 8001528:	0003      	movs	r3, r0
 800152a:	61bb      	str	r3, [r7, #24]
      
      /* Wait till LSI is ready */  
      while(__HAL_RCC_GET_FLAG(RCC_FLAG_LSIRDY) == RESET)
 800152c:	e008      	b.n	8001540 <HAL_RCC_OscConfig+0x254>
      {
        if((HAL_GetTick() - tickstart ) > LSI_TIMEOUT_VALUE)
 800152e:	f7ff fa63 	bl	80009f8 <HAL_GetTick>
 8001532:	0002      	movs	r2, r0
 8001534:	69bb      	ldr	r3, [r7, #24]
 8001536:	1ad3      	subs	r3, r2, r3
 8001538:	2b02      	cmp	r3, #2
 800153a:	d901      	bls.n	8001540 <HAL_RCC_OscConfig+0x254>
        {
          return HAL_TIMEOUT;
 800153c:	2303      	movs	r3, #3
 800153e:	e1e0      	b.n	8001902 <HAL_RCC_OscConfig+0x616>
      while(__HAL_RCC_GET_FLAG(RCC_FLAG_LSIRDY) == RESET)
 8001540:	4b35      	ldr	r3, [pc, #212]	; (8001618 <HAL_RCC_OscConfig+0x32c>)
 8001542:	6a5b      	ldr	r3, [r3, #36]	; 0x24
 8001544:	2202      	movs	r2, #2
 8001546:	4013      	ands	r3, r2
 8001548:	d0f1      	beq.n	800152e <HAL_RCC_OscConfig+0x242>
 800154a:	e018      	b.n	800157e <HAL_RCC_OscConfig+0x292>
      }
    }
    else
    {
      /* Disable the Internal Low Speed oscillator (LSI). */
      __HAL_RCC_LSI_DISABLE();
 800154c:	4b32      	ldr	r3, [pc, #200]	; (8001618 <HAL_RCC_OscConfig+0x32c>)
 800154e:	6a5a      	ldr	r2, [r3, #36]	; 0x24
 8001550:	4b31      	ldr	r3, [pc, #196]	; (8001618 <HAL_RCC_OscConfig+0x32c>)
 8001552:	2101      	movs	r1, #1
 8001554:	438a      	bics	r2, r1
 8001556:	625a      	str	r2, [r3, #36]	; 0x24
      
      /* Get Start Tick */
      tickstart = HAL_GetTick();
 8001558:	f7ff fa4e 	bl	80009f8 <HAL_GetTick>
 800155c:	0003      	movs	r3, r0
 800155e:	61bb      	str	r3, [r7, #24]
      
      /* Wait till LSI is disabled */  
      while(__HAL_RCC_GET_FLAG(RCC_FLAG_LSIRDY) != RESET)
 8001560:	e008      	b.n	8001574 <HAL_RCC_OscConfig+0x288>
      {
        if((HAL_GetTick() - tickstart ) > LSI_TIMEOUT_VALUE)
 8001562:	f7ff fa49 	bl	80009f8 <HAL_GetTick>
 8001566:	0002      	movs	r2, r0
 8001568:	69bb      	ldr	r3, [r7, #24]
 800156a:	1ad3      	subs	r3, r2, r3
 800156c:	2b02      	cmp	r3, #2
 800156e:	d901      	bls.n	8001574 <HAL_RCC_OscConfig+0x288>
        {
          return HAL_TIMEOUT;
 8001570:	2303      	movs	r3, #3
 8001572:	e1c6      	b.n	8001902 <HAL_RCC_OscConfig+0x616>
      while(__HAL_RCC_GET_FLAG(RCC_FLAG_LSIRDY) != RESET)
 8001574:	4b28      	ldr	r3, [pc, #160]	; (8001618 <HAL_RCC_OscConfig+0x32c>)
 8001576:	6a5b      	ldr	r3, [r3, #36]	; 0x24
 8001578:	2202      	movs	r2, #2
 800157a:	4013      	ands	r3, r2
 800157c:	d1f1      	bne.n	8001562 <HAL_RCC_OscConfig+0x276>
        }
      }
    }
  }
  /*------------------------------ LSE Configuration -------------------------*/ 
  if(((RCC_OscInitStruct->OscillatorType) & RCC_OSCILLATORTYPE_LSE) == RCC_OSCILLATORTYPE_LSE)
 800157e:	687b      	ldr	r3, [r7, #4]
 8001580:	681b      	ldr	r3, [r3, #0]
 8001582:	2204      	movs	r2, #4
 8001584:	4013      	ands	r3, r2
 8001586:	d100      	bne.n	800158a <HAL_RCC_OscConfig+0x29e>
 8001588:	e0b4      	b.n	80016f4 <HAL_RCC_OscConfig+0x408>
  {
    FlagStatus       pwrclkchanged = RESET;
 800158a:	201f      	movs	r0, #31
 800158c:	183b      	adds	r3, r7, r0
 800158e:	2200      	movs	r2, #0
 8001590:	701a      	strb	r2, [r3, #0]
    /* Check the parameters */
    assert_param(IS_RCC_LSE(RCC_OscInitStruct->LSEState));

    /* Update LSE configuration in Backup Domain control register    */
    /* Requires to enable write access to Backup Domain of necessary */
    if(__HAL_RCC_PWR_IS_CLK_DISABLED())
 8001592:	4b21      	ldr	r3, [pc, #132]	; (8001618 <HAL_RCC_OscConfig+0x32c>)
 8001594:	69da      	ldr	r2, [r3, #28]
 8001596:	2380      	movs	r3, #128	; 0x80
 8001598:	055b      	lsls	r3, r3, #21
 800159a:	4013      	ands	r3, r2
 800159c:	d110      	bne.n	80015c0 <HAL_RCC_OscConfig+0x2d4>
    {
      __HAL_RCC_PWR_CLK_ENABLE();
 800159e:	4b1e      	ldr	r3, [pc, #120]	; (8001618 <HAL_RCC_OscConfig+0x32c>)
 80015a0:	69da      	ldr	r2, [r3, #28]
 80015a2:	4b1d      	ldr	r3, [pc, #116]	; (8001618 <HAL_RCC_OscConfig+0x32c>)
 80015a4:	2180      	movs	r1, #128	; 0x80
 80015a6:	0549      	lsls	r1, r1, #21
 80015a8:	430a      	orrs	r2, r1
 80015aa:	61da      	str	r2, [r3, #28]
 80015ac:	4b1a      	ldr	r3, [pc, #104]	; (8001618 <HAL_RCC_OscConfig+0x32c>)
 80015ae:	69da      	ldr	r2, [r3, #28]
 80015b0:	2380      	movs	r3, #128	; 0x80
 80015b2:	055b      	lsls	r3, r3, #21
 80015b4:	4013      	ands	r3, r2
 80015b6:	60fb      	str	r3, [r7, #12]
 80015b8:	68fb      	ldr	r3, [r7, #12]
      pwrclkchanged = SET;
 80015ba:	183b      	adds	r3, r7, r0
 80015bc:	2201      	movs	r2, #1
 80015be:	701a      	strb	r2, [r3, #0]
    }
    
    if(HAL_IS_BIT_CLR(PWR->CR, PWR_CR_DBP))
 80015c0:	4b18      	ldr	r3, [pc, #96]	; (8001624 <HAL_RCC_OscConfig+0x338>)
 80015c2:	681a      	ldr	r2, [r3, #0]
 80015c4:	2380      	movs	r3, #128	; 0x80
 80015c6:	005b      	lsls	r3, r3, #1
 80015c8:	4013      	ands	r3, r2
 80015ca:	d11a      	bne.n	8001602 <HAL_RCC_OscConfig+0x316>
    {
      /* Enable write access to Backup domain */
      SET_BIT(PWR->CR, PWR_CR_DBP);
 80015cc:	4b15      	ldr	r3, [pc, #84]	; (8001624 <HAL_RCC_OscConfig+0x338>)
 80015ce:	681a      	ldr	r2, [r3, #0]
 80015d0:	4b14      	ldr	r3, [pc, #80]	; (8001624 <HAL_RCC_OscConfig+0x338>)
 80015d2:	2180      	movs	r1, #128	; 0x80
 80015d4:	0049      	lsls	r1, r1, #1
 80015d6:	430a      	orrs	r2, r1
 80015d8:	601a      	str	r2, [r3, #0]
      
      /* Wait for Backup domain Write protection disable */
      tickstart = HAL_GetTick();
 80015da:	f7ff fa0d 	bl	80009f8 <HAL_GetTick>
 80015de:	0003      	movs	r3, r0
 80015e0:	61bb      	str	r3, [r7, #24]

      while(HAL_IS_BIT_CLR(PWR->CR, PWR_CR_DBP))
 80015e2:	e008      	b.n	80015f6 <HAL_RCC_OscConfig+0x30a>
      {
        if((HAL_GetTick() - tickstart) > RCC_DBP_TIMEOUT_VALUE)
 80015e4:	f7ff fa08 	bl	80009f8 <HAL_GetTick>
 80015e8:	0002      	movs	r2, r0
 80015ea:	69bb      	ldr	r3, [r7, #24]
 80015ec:	1ad3      	subs	r3, r2, r3
 80015ee:	2b64      	cmp	r3, #100	; 0x64
 80015f0:	d901      	bls.n	80015f6 <HAL_RCC_OscConfig+0x30a>
        {
          return HAL_TIMEOUT;
 80015f2:	2303      	movs	r3, #3
 80015f4:	e185      	b.n	8001902 <HAL_RCC_OscConfig+0x616>
      while(HAL_IS_BIT_CLR(PWR->CR, PWR_CR_DBP))
 80015f6:	4b0b      	ldr	r3, [pc, #44]	; (8001624 <HAL_RCC_OscConfig+0x338>)
 80015f8:	681a      	ldr	r2, [r3, #0]
 80015fa:	2380      	movs	r3, #128	; 0x80
 80015fc:	005b      	lsls	r3, r3, #1
 80015fe:	4013      	ands	r3, r2
 8001600:	d0f0      	beq.n	80015e4 <HAL_RCC_OscConfig+0x2f8>
        }
      }
    }

    /* Set the new LSE configuration -----------------------------------------*/
    __HAL_RCC_LSE_CONFIG(RCC_OscInitStruct->LSEState);
 8001602:	687b      	ldr	r3, [r7, #4]
 8001604:	689b      	ldr	r3, [r3, #8]
 8001606:	2b01      	cmp	r3, #1
 8001608:	d10e      	bne.n	8001628 <HAL_RCC_OscConfig+0x33c>
 800160a:	4b03      	ldr	r3, [pc, #12]	; (8001618 <HAL_RCC_OscConfig+0x32c>)
 800160c:	6a1a      	ldr	r2, [r3, #32]
 800160e:	4b02      	ldr	r3, [pc, #8]	; (8001618 <HAL_RCC_OscConfig+0x32c>)
 8001610:	2101      	movs	r1, #1
 8001612:	430a      	orrs	r2, r1
 8001614:	621a      	str	r2, [r3, #32]
 8001616:	e035      	b.n	8001684 <HAL_RCC_OscConfig+0x398>
 8001618:	40021000 	.word	0x40021000
 800161c:	fffeffff 	.word	0xfffeffff
 8001620:	fffbffff 	.word	0xfffbffff
 8001624:	40007000 	.word	0x40007000
 8001628:	687b      	ldr	r3, [r7, #4]
 800162a:	689b      	ldr	r3, [r3, #8]
 800162c:	2b00      	cmp	r3, #0
 800162e:	d10c      	bne.n	800164a <HAL_RCC_OscConfig+0x35e>
 8001630:	4bb6      	ldr	r3, [pc, #728]	; (800190c <HAL_RCC_OscConfig+0x620>)
 8001632:	6a1a      	ldr	r2, [r3, #32]
 8001634:	4bb5      	ldr	r3, [pc, #724]	; (800190c <HAL_RCC_OscConfig+0x620>)
 8001636:	2101      	movs	r1, #1
 8001638:	438a      	bics	r2, r1
 800163a:	621a      	str	r2, [r3, #32]
 800163c:	4bb3      	ldr	r3, [pc, #716]	; (800190c <HAL_RCC_OscConfig+0x620>)
 800163e:	6a1a      	ldr	r2, [r3, #32]
 8001640:	4bb2      	ldr	r3, [pc, #712]	; (800190c <HAL_RCC_OscConfig+0x620>)
 8001642:	2104      	movs	r1, #4
 8001644:	438a      	bics	r2, r1
 8001646:	621a      	str	r2, [r3, #32]
 8001648:	e01c      	b.n	8001684 <HAL_RCC_OscConfig+0x398>
 800164a:	687b      	ldr	r3, [r7, #4]
 800164c:	689b      	ldr	r3, [r3, #8]
 800164e:	2b05      	cmp	r3, #5
 8001650:	d10c      	bne.n	800166c <HAL_RCC_OscConfig+0x380>
 8001652:	4bae      	ldr	r3, [pc, #696]	; (800190c <HAL_RCC_OscConfig+0x620>)
 8001654:	6a1a      	ldr	r2, [r3, #32]
 8001656:	4bad      	ldr	r3, [pc, #692]	; (800190c <HAL_RCC_OscConfig+0x620>)
 8001658:	2104      	movs	r1, #4
 800165a:	430a      	orrs	r2, r1
 800165c:	621a      	str	r2, [r3, #32]
 800165e:	4bab      	ldr	r3, [pc, #684]	; (800190c <HAL_RCC_OscConfig+0x620>)
 8001660:	6a1a      	ldr	r2, [r3, #32]
 8001662:	4baa      	ldr	r3, [pc, #680]	; (800190c <HAL_RCC_OscConfig+0x620>)
 8001664:	2101      	movs	r1, #1
 8001666:	430a      	orrs	r2, r1
 8001668:	621a      	str	r2, [r3, #32]
 800166a:	e00b      	b.n	8001684 <HAL_RCC_OscConfig+0x398>
 800166c:	4ba7      	ldr	r3, [pc, #668]	; (800190c <HAL_RCC_OscConfig+0x620>)
 800166e:	6a1a      	ldr	r2, [r3, #32]
 8001670:	4ba6      	ldr	r3, [pc, #664]	; (800190c <HAL_RCC_OscConfig+0x620>)
 8001672:	2101      	movs	r1, #1
 8001674:	438a      	bics	r2, r1
 8001676:	621a      	str	r2, [r3, #32]
 8001678:	4ba4      	ldr	r3, [pc, #656]	; (800190c <HAL_RCC_OscConfig+0x620>)
 800167a:	6a1a      	ldr	r2, [r3, #32]
 800167c:	4ba3      	ldr	r3, [pc, #652]	; (800190c <HAL_RCC_OscConfig+0x620>)
 800167e:	2104      	movs	r1, #4
 8001680:	438a      	bics	r2, r1
 8001682:	621a      	str	r2, [r3, #32]
    /* Check the LSE State */
    if(RCC_OscInitStruct->LSEState != RCC_LSE_OFF)
 8001684:	687b      	ldr	r3, [r7, #4]
 8001686:	689b      	ldr	r3, [r3, #8]
 8001688:	2b00      	cmp	r3, #0
 800168a:	d014      	beq.n	80016b6 <HAL_RCC_OscConfig+0x3ca>
    {
      /* Get Start Tick */
      tickstart = HAL_GetTick();
 800168c:	f7ff f9b4 	bl	80009f8 <HAL_GetTick>
 8001690:	0003      	movs	r3, r0
 8001692:	61bb      	str	r3, [r7, #24]
      
      /* Wait till LSE is ready */  
      while(__HAL_RCC_GET_FLAG(RCC_FLAG_LSERDY) == RESET)
 8001694:	e009      	b.n	80016aa <HAL_RCC_OscConfig+0x3be>
      {
        if((HAL_GetTick() - tickstart ) > RCC_LSE_TIMEOUT_VALUE)
 8001696:	f7ff f9af 	bl	80009f8 <HAL_GetTick>
 800169a:	0002      	movs	r2, r0
 800169c:	69bb      	ldr	r3, [r7, #24]
 800169e:	1ad3      	subs	r3, r2, r3
 80016a0:	4a9b      	ldr	r2, [pc, #620]	; (8001910 <HAL_RCC_OscConfig+0x624>)
 80016a2:	4293      	cmp	r3, r2
 80016a4:	d901      	bls.n	80016aa <HAL_RCC_OscConfig+0x3be>
        {
          return HAL_TIMEOUT;
 80016a6:	2303      	movs	r3, #3
 80016a8:	e12b      	b.n	8001902 <HAL_RCC_OscConfig+0x616>
      while(__HAL_RCC_GET_FLAG(RCC_FLAG_LSERDY) == RESET)
 80016aa:	4b98      	ldr	r3, [pc, #608]	; (800190c <HAL_RCC_OscConfig+0x620>)
 80016ac:	6a1b      	ldr	r3, [r3, #32]
 80016ae:	2202      	movs	r2, #2
 80016b0:	4013      	ands	r3, r2
 80016b2:	d0f0      	beq.n	8001696 <HAL_RCC_OscConfig+0x3aa>
 80016b4:	e013      	b.n	80016de <HAL_RCC_OscConfig+0x3f2>
      }
    }
    else
    {
      /* Get Start Tick */
      tickstart = HAL_GetTick();
 80016b6:	f7ff f99f 	bl	80009f8 <HAL_GetTick>
 80016ba:	0003      	movs	r3, r0
 80016bc:	61bb      	str	r3, [r7, #24]
      
      /* Wait till LSE is disabled */  
      while(__HAL_RCC_GET_FLAG(RCC_FLAG_LSERDY) != RESET)
 80016be:	e009      	b.n	80016d4 <HAL_RCC_OscConfig+0x3e8>
      {
        if((HAL_GetTick() - tickstart ) > RCC_LSE_TIMEOUT_VALUE)
 80016c0:	f7ff f99a 	bl	80009f8 <HAL_GetTick>
 80016c4:	0002      	movs	r2, r0
 80016c6:	69bb      	ldr	r3, [r7, #24]
 80016c8:	1ad3      	subs	r3, r2, r3
 80016ca:	4a91      	ldr	r2, [pc, #580]	; (8001910 <HAL_RCC_OscConfig+0x624>)
 80016cc:	4293      	cmp	r3, r2
 80016ce:	d901      	bls.n	80016d4 <HAL_RCC_OscConfig+0x3e8>
        {
          return HAL_TIMEOUT;
 80016d0:	2303      	movs	r3, #3
 80016d2:	e116      	b.n	8001902 <HAL_RCC_OscConfig+0x616>
      while(__HAL_RCC_GET_FLAG(RCC_FLAG_LSERDY) != RESET)
 80016d4:	4b8d      	ldr	r3, [pc, #564]	; (800190c <HAL_RCC_OscConfig+0x620>)
 80016d6:	6a1b      	ldr	r3, [r3, #32]
 80016d8:	2202      	movs	r2, #2
 80016da:	4013      	ands	r3, r2
 80016dc:	d1f0      	bne.n	80016c0 <HAL_RCC_OscConfig+0x3d4>
        }
      }
    }

    /* Require to disable power clock if necessary */
    if(pwrclkchanged == SET)
 80016de:	231f      	movs	r3, #31
 80016e0:	18fb      	adds	r3, r7, r3
 80016e2:	781b      	ldrb	r3, [r3, #0]
 80016e4:	2b01      	cmp	r3, #1
 80016e6:	d105      	bne.n	80016f4 <HAL_RCC_OscConfig+0x408>
    {
      __HAL_RCC_PWR_CLK_DISABLE();
 80016e8:	4b88      	ldr	r3, [pc, #544]	; (800190c <HAL_RCC_OscConfig+0x620>)
 80016ea:	69da      	ldr	r2, [r3, #28]
 80016ec:	4b87      	ldr	r3, [pc, #540]	; (800190c <HAL_RCC_OscConfig+0x620>)
 80016ee:	4989      	ldr	r1, [pc, #548]	; (8001914 <HAL_RCC_OscConfig+0x628>)
 80016f0:	400a      	ands	r2, r1
 80016f2:	61da      	str	r2, [r3, #28]
    }
  }

  /*----------------------------- HSI14 Configuration --------------------------*/
  if(((RCC_OscInitStruct->OscillatorType) & RCC_OSCILLATORTYPE_HSI14) == RCC_OSCILLATORTYPE_HSI14)
 80016f4:	687b      	ldr	r3, [r7, #4]
 80016f6:	681b      	ldr	r3, [r3, #0]
 80016f8:	2210      	movs	r2, #16
 80016fa:	4013      	ands	r3, r2
 80016fc:	d063      	beq.n	80017c6 <HAL_RCC_OscConfig+0x4da>
    /* Check the parameters */
    assert_param(IS_RCC_HSI14(RCC_OscInitStruct->HSI14State));
    assert_param(IS_RCC_CALIBRATION_VALUE(RCC_OscInitStruct->HSI14CalibrationValue));

    /* Check the HSI14 State */
    if(RCC_OscInitStruct->HSI14State == RCC_HSI14_ON)
 80016fe:	687b      	ldr	r3, [r7, #4]
 8001700:	695b      	ldr	r3, [r3, #20]
 8001702:	2b01      	cmp	r3, #1
 8001704:	d12a      	bne.n	800175c <HAL_RCC_OscConfig+0x470>
    {
      /* Disable ADC control of the Internal High Speed oscillator HSI14 */
      __HAL_RCC_HSI14ADC_DISABLE();
 8001706:	4b81      	ldr	r3, [pc, #516]	; (800190c <HAL_RCC_OscConfig+0x620>)
 8001708:	6b5a      	ldr	r2, [r3, #52]	; 0x34
 800170a:	4b80      	ldr	r3, [pc, #512]	; (800190c <HAL_RCC_OscConfig+0x620>)
 800170c:	2104      	movs	r1, #4
 800170e:	430a      	orrs	r2, r1
 8001710:	635a      	str	r2, [r3, #52]	; 0x34

      /* Enable the Internal High Speed oscillator (HSI). */
      __HAL_RCC_HSI14_ENABLE();
 8001712:	4b7e      	ldr	r3, [pc, #504]	; (800190c <HAL_RCC_OscConfig+0x620>)
 8001714:	6b5a      	ldr	r2, [r3, #52]	; 0x34
 8001716:	4b7d      	ldr	r3, [pc, #500]	; (800190c <HAL_RCC_OscConfig+0x620>)
 8001718:	2101      	movs	r1, #1
 800171a:	430a      	orrs	r2, r1
 800171c:	635a      	str	r2, [r3, #52]	; 0x34

      /* Get Start Tick */
      tickstart = HAL_GetTick();
 800171e:	f7ff f96b 	bl	80009f8 <HAL_GetTick>
 8001722:	0003      	movs	r3, r0
 8001724:	61bb      	str	r3, [r7, #24]
      
      /* Wait till HSI is ready */  
      while(__HAL_RCC_GET_FLAG(RCC_FLAG_HSI14RDY) == RESET)
 8001726:	e008      	b.n	800173a <HAL_RCC_OscConfig+0x44e>
      {
        if((HAL_GetTick() - tickstart) > HSI14_TIMEOUT_VALUE)
 8001728:	f7ff f966 	bl	80009f8 <HAL_GetTick>
 800172c:	0002      	movs	r2, r0
 800172e:	69bb      	ldr	r3, [r7, #24]
 8001730:	1ad3      	subs	r3, r2, r3
 8001732:	2b02      	cmp	r3, #2
 8001734:	d901      	bls.n	800173a <HAL_RCC_OscConfig+0x44e>
        {
          return HAL_TIMEOUT;
 8001736:	2303      	movs	r3, #3
 8001738:	e0e3      	b.n	8001902 <HAL_RCC_OscConfig+0x616>
      while(__HAL_RCC_GET_FLAG(RCC_FLAG_HSI14RDY) == RESET)
 800173a:	4b74      	ldr	r3, [pc, #464]	; (800190c <HAL_RCC_OscConfig+0x620>)
 800173c:	6b5b      	ldr	r3, [r3, #52]	; 0x34
 800173e:	2202      	movs	r2, #2
 8001740:	4013      	ands	r3, r2
 8001742:	d0f1      	beq.n	8001728 <HAL_RCC_OscConfig+0x43c>
        }      
      } 

      /* Adjusts the Internal High Speed oscillator 14Mhz (HSI14) calibration value. */
      __HAL_RCC_HSI14_CALIBRATIONVALUE_ADJUST(RCC_OscInitStruct->HSI14CalibrationValue);
 8001744:	4b71      	ldr	r3, [pc, #452]	; (800190c <HAL_RCC_OscConfig+0x620>)
 8001746:	6b5b      	ldr	r3, [r3, #52]	; 0x34
 8001748:	22f8      	movs	r2, #248	; 0xf8
 800174a:	4393      	bics	r3, r2
 800174c:	0019      	movs	r1, r3
 800174e:	687b      	ldr	r3, [r7, #4]
 8001750:	699b      	ldr	r3, [r3, #24]
 8001752:	00da      	lsls	r2, r3, #3
 8001754:	4b6d      	ldr	r3, [pc, #436]	; (800190c <HAL_RCC_OscConfig+0x620>)
 8001756:	430a      	orrs	r2, r1
 8001758:	635a      	str	r2, [r3, #52]	; 0x34
 800175a:	e034      	b.n	80017c6 <HAL_RCC_OscConfig+0x4da>
    }
    else if(RCC_OscInitStruct->HSI14State == RCC_HSI14_ADC_CONTROL)
 800175c:	687b      	ldr	r3, [r7, #4]
 800175e:	695b      	ldr	r3, [r3, #20]
 8001760:	3305      	adds	r3, #5
 8001762:	d111      	bne.n	8001788 <HAL_RCC_OscConfig+0x49c>
    {
      /* Enable ADC control of the Internal High Speed oscillator HSI14 */
      __HAL_RCC_HSI14ADC_ENABLE();
 8001764:	4b69      	ldr	r3, [pc, #420]	; (800190c <HAL_RCC_OscConfig+0x620>)
 8001766:	6b5a      	ldr	r2, [r3, #52]	; 0x34
 8001768:	4b68      	ldr	r3, [pc, #416]	; (800190c <HAL_RCC_OscConfig+0x620>)
 800176a:	2104      	movs	r1, #4
 800176c:	438a      	bics	r2, r1
 800176e:	635a      	str	r2, [r3, #52]	; 0x34

      /* Adjusts the Internal High Speed oscillator 14Mhz (HSI14) calibration value. */
      __HAL_RCC_HSI14_CALIBRATIONVALUE_ADJUST(RCC_OscInitStruct->HSI14CalibrationValue);
 8001770:	4b66      	ldr	r3, [pc, #408]	; (800190c <HAL_RCC_OscConfig+0x620>)
 8001772:	6b5b      	ldr	r3, [r3, #52]	; 0x34
 8001774:	22f8      	movs	r2, #248	; 0xf8
 8001776:	4393      	bics	r3, r2
 8001778:	0019      	movs	r1, r3
 800177a:	687b      	ldr	r3, [r7, #4]
 800177c:	699b      	ldr	r3, [r3, #24]
 800177e:	00da      	lsls	r2, r3, #3
 8001780:	4b62      	ldr	r3, [pc, #392]	; (800190c <HAL_RCC_OscConfig+0x620>)
 8001782:	430a      	orrs	r2, r1
 8001784:	635a      	str	r2, [r3, #52]	; 0x34
 8001786:	e01e      	b.n	80017c6 <HAL_RCC_OscConfig+0x4da>
    }
    else
    {
      /* Disable ADC control of the Internal High Speed oscillator HSI14 */
      __HAL_RCC_HSI14ADC_DISABLE();
 8001788:	4b60      	ldr	r3, [pc, #384]	; (800190c <HAL_RCC_OscConfig+0x620>)
 800178a:	6b5a      	ldr	r2, [r3, #52]	; 0x34
 800178c:	4b5f      	ldr	r3, [pc, #380]	; (800190c <HAL_RCC_OscConfig+0x620>)
 800178e:	2104      	movs	r1, #4
 8001790:	430a      	orrs	r2, r1
 8001792:	635a      	str	r2, [r3, #52]	; 0x34

      /* Disable the Internal High Speed oscillator (HSI). */
      __HAL_RCC_HSI14_DISABLE();
 8001794:	4b5d      	ldr	r3, [pc, #372]	; (800190c <HAL_RCC_OscConfig+0x620>)
 8001796:	6b5a      	ldr	r2, [r3, #52]	; 0x34
 8001798:	4b5c      	ldr	r3, [pc, #368]	; (800190c <HAL_RCC_OscConfig+0x620>)
 800179a:	2101      	movs	r1, #1
 800179c:	438a      	bics	r2, r1
 800179e:	635a      	str	r2, [r3, #52]	; 0x34

      /* Get Start Tick */
      tickstart = HAL_GetTick();
 80017a0:	f7ff f92a 	bl	80009f8 <HAL_GetTick>
 80017a4:	0003      	movs	r3, r0
 80017a6:	61bb      	str	r3, [r7, #24]
      
      /* Wait till HSI is ready */  
      while(__HAL_RCC_GET_FLAG(RCC_FLAG_HSI14RDY) != RESET)
 80017a8:	e008      	b.n	80017bc <HAL_RCC_OscConfig+0x4d0>
      {
        if((HAL_GetTick() - tickstart) > HSI14_TIMEOUT_VALUE)
 80017aa:	f7ff f925 	bl	80009f8 <HAL_GetTick>
 80017ae:	0002      	movs	r2, r0
 80017b0:	69bb      	ldr	r3, [r7, #24]
 80017b2:	1ad3      	subs	r3, r2, r3
 80017b4:	2b02      	cmp	r3, #2
 80017b6:	d901      	bls.n	80017bc <HAL_RCC_OscConfig+0x4d0>
        {
          return HAL_TIMEOUT;
 80017b8:	2303      	movs	r3, #3
 80017ba:	e0a2      	b.n	8001902 <HAL_RCC_OscConfig+0x616>
      while(__HAL_RCC_GET_FLAG(RCC_FLAG_HSI14RDY) != RESET)
 80017bc:	4b53      	ldr	r3, [pc, #332]	; (800190c <HAL_RCC_OscConfig+0x620>)
 80017be:	6b5b      	ldr	r3, [r3, #52]	; 0x34
 80017c0:	2202      	movs	r2, #2
 80017c2:	4013      	ands	r3, r2
 80017c4:	d1f1      	bne.n	80017aa <HAL_RCC_OscConfig+0x4be>
#endif /* RCC_HSI48_SUPPORT */
       
  /*-------------------------------- PLL Configuration -----------------------*/
  /* Check the parameters */
  assert_param(IS_RCC_PLL(RCC_OscInitStruct->PLL.PLLState));
  if ((RCC_OscInitStruct->PLL.PLLState) != RCC_PLL_NONE)
 80017c6:	687b      	ldr	r3, [r7, #4]
 80017c8:	6a1b      	ldr	r3, [r3, #32]
 80017ca:	2b00      	cmp	r3, #0
 80017cc:	d100      	bne.n	80017d0 <HAL_RCC_OscConfig+0x4e4>
 80017ce:	e097      	b.n	8001900 <HAL_RCC_OscConfig+0x614>
  {
    /* Check if the PLL is used as system clock or not */
    if(__HAL_RCC_GET_SYSCLK_SOURCE() != RCC_SYSCLKSOURCE_STATUS_PLLCLK)
 80017d0:	4b4e      	ldr	r3, [pc, #312]	; (800190c <HAL_RCC_OscConfig+0x620>)
 80017d2:	685b      	ldr	r3, [r3, #4]
 80017d4:	220c      	movs	r2, #12
 80017d6:	4013      	ands	r3, r2
 80017d8:	2b08      	cmp	r3, #8
 80017da:	d100      	bne.n	80017de <HAL_RCC_OscConfig+0x4f2>
 80017dc:	e06b      	b.n	80018b6 <HAL_RCC_OscConfig+0x5ca>
    { 
      if((RCC_OscInitStruct->PLL.PLLState) == RCC_PLL_ON)
 80017de:	687b      	ldr	r3, [r7, #4]
 80017e0:	6a1b      	ldr	r3, [r3, #32]
 80017e2:	2b02      	cmp	r3, #2
 80017e4:	d14c      	bne.n	8001880 <HAL_RCC_OscConfig+0x594>
        assert_param(IS_RCC_PLLSOURCE(RCC_OscInitStruct->PLL.PLLSource));
        assert_param(IS_RCC_PLL_MUL(RCC_OscInitStruct->PLL.PLLMUL));
        assert_param(IS_RCC_PREDIV(RCC_OscInitStruct->PLL.PREDIV));
  
        /* Disable the main PLL. */
        __HAL_RCC_PLL_DISABLE();
 80017e6:	4b49      	ldr	r3, [pc, #292]	; (800190c <HAL_RCC_OscConfig+0x620>)
 80017e8:	681a      	ldr	r2, [r3, #0]
 80017ea:	4b48      	ldr	r3, [pc, #288]	; (800190c <HAL_RCC_OscConfig+0x620>)
 80017ec:	494a      	ldr	r1, [pc, #296]	; (8001918 <HAL_RCC_OscConfig+0x62c>)
 80017ee:	400a      	ands	r2, r1
 80017f0:	601a      	str	r2, [r3, #0]
        
        /* Get Start Tick */
        tickstart = HAL_GetTick();
 80017f2:	f7ff f901 	bl	80009f8 <HAL_GetTick>
 80017f6:	0003      	movs	r3, r0
 80017f8:	61bb      	str	r3, [r7, #24]
        
        /* Wait till PLL is disabled */
        while(__HAL_RCC_GET_FLAG(RCC_FLAG_PLLRDY)  != RESET)
 80017fa:	e008      	b.n	800180e <HAL_RCC_OscConfig+0x522>
        {
          if((HAL_GetTick() - tickstart ) > PLL_TIMEOUT_VALUE)
 80017fc:	f7ff f8fc 	bl	80009f8 <HAL_GetTick>
 8001800:	0002      	movs	r2, r0
 8001802:	69bb      	ldr	r3, [r7, #24]
 8001804:	1ad3      	subs	r3, r2, r3
 8001806:	2b02      	cmp	r3, #2
 8001808:	d901      	bls.n	800180e <HAL_RCC_OscConfig+0x522>
          {
            return HAL_TIMEOUT;
 800180a:	2303      	movs	r3, #3
 800180c:	e079      	b.n	8001902 <HAL_RCC_OscConfig+0x616>
        while(__HAL_RCC_GET_FLAG(RCC_FLAG_PLLRDY)  != RESET)
 800180e:	4b3f      	ldr	r3, [pc, #252]	; (800190c <HAL_RCC_OscConfig+0x620>)
 8001810:	681a      	ldr	r2, [r3, #0]
 8001812:	2380      	movs	r3, #128	; 0x80
 8001814:	049b      	lsls	r3, r3, #18
 8001816:	4013      	ands	r3, r2
 8001818:	d1f0      	bne.n	80017fc <HAL_RCC_OscConfig+0x510>
          }
        }

        /* Configure the main PLL clock source, predivider and multiplication factor. */
        __HAL_RCC_PLL_CONFIG(RCC_OscInitStruct->PLL.PLLSource,
 800181a:	4b3c      	ldr	r3, [pc, #240]	; (800190c <HAL_RCC_OscConfig+0x620>)
 800181c:	6adb      	ldr	r3, [r3, #44]	; 0x2c
 800181e:	220f      	movs	r2, #15
 8001820:	4393      	bics	r3, r2
 8001822:	0019      	movs	r1, r3
 8001824:	687b      	ldr	r3, [r7, #4]
 8001826:	6ada      	ldr	r2, [r3, #44]	; 0x2c
 8001828:	4b38      	ldr	r3, [pc, #224]	; (800190c <HAL_RCC_OscConfig+0x620>)
 800182a:	430a      	orrs	r2, r1
 800182c:	62da      	str	r2, [r3, #44]	; 0x2c
 800182e:	4b37      	ldr	r3, [pc, #220]	; (800190c <HAL_RCC_OscConfig+0x620>)
 8001830:	685b      	ldr	r3, [r3, #4]
 8001832:	4a3a      	ldr	r2, [pc, #232]	; (800191c <HAL_RCC_OscConfig+0x630>)
 8001834:	4013      	ands	r3, r2
 8001836:	0019      	movs	r1, r3
 8001838:	687b      	ldr	r3, [r7, #4]
 800183a:	6a9a      	ldr	r2, [r3, #40]	; 0x28
 800183c:	687b      	ldr	r3, [r7, #4]
 800183e:	6a5b      	ldr	r3, [r3, #36]	; 0x24
 8001840:	431a      	orrs	r2, r3
 8001842:	4b32      	ldr	r3, [pc, #200]	; (800190c <HAL_RCC_OscConfig+0x620>)
 8001844:	430a      	orrs	r2, r1
 8001846:	605a      	str	r2, [r3, #4]
                             RCC_OscInitStruct->PLL.PREDIV,
                             RCC_OscInitStruct->PLL.PLLMUL);
        /* Enable the main PLL. */
        __HAL_RCC_PLL_ENABLE();
 8001848:	4b30      	ldr	r3, [pc, #192]	; (800190c <HAL_RCC_OscConfig+0x620>)
 800184a:	681a      	ldr	r2, [r3, #0]
 800184c:	4b2f      	ldr	r3, [pc, #188]	; (800190c <HAL_RCC_OscConfig+0x620>)
 800184e:	2180      	movs	r1, #128	; 0x80
 8001850:	0449      	lsls	r1, r1, #17
 8001852:	430a      	orrs	r2, r1
 8001854:	601a      	str	r2, [r3, #0]
        
        /* Get Start Tick */
        tickstart = HAL_GetTick();
 8001856:	f7ff f8cf 	bl	80009f8 <HAL_GetTick>
 800185a:	0003      	movs	r3, r0
 800185c:	61bb      	str	r3, [r7, #24]
        
        /* Wait till PLL is ready */
        while(__HAL_RCC_GET_FLAG(RCC_FLAG_PLLRDY)  == RESET)
 800185e:	e008      	b.n	8001872 <HAL_RCC_OscConfig+0x586>
        {
          if((HAL_GetTick() - tickstart ) > PLL_TIMEOUT_VALUE)
 8001860:	f7ff f8ca 	bl	80009f8 <HAL_GetTick>
 8001864:	0002      	movs	r2, r0
 8001866:	69bb      	ldr	r3, [r7, #24]
 8001868:	1ad3      	subs	r3, r2, r3
 800186a:	2b02      	cmp	r3, #2
 800186c:	d901      	bls.n	8001872 <HAL_RCC_OscConfig+0x586>
          {
            return HAL_TIMEOUT;
 800186e:	2303      	movs	r3, #3
 8001870:	e047      	b.n	8001902 <HAL_RCC_OscConfig+0x616>
        while(__HAL_RCC_GET_FLAG(RCC_FLAG_PLLRDY)  == RESET)
 8001872:	4b26      	ldr	r3, [pc, #152]	; (800190c <HAL_RCC_OscConfig+0x620>)
 8001874:	681a      	ldr	r2, [r3, #0]
 8001876:	2380      	movs	r3, #128	; 0x80
 8001878:	049b      	lsls	r3, r3, #18
 800187a:	4013      	ands	r3, r2
 800187c:	d0f0      	beq.n	8001860 <HAL_RCC_OscConfig+0x574>
 800187e:	e03f      	b.n	8001900 <HAL_RCC_OscConfig+0x614>
        }
      }
      else
      {
        /* Disable the main PLL. */
        __HAL_RCC_PLL_DISABLE();
 8001880:	4b22      	ldr	r3, [pc, #136]	; (800190c <HAL_RCC_OscConfig+0x620>)
 8001882:	681a      	ldr	r2, [r3, #0]
 8001884:	4b21      	ldr	r3, [pc, #132]	; (800190c <HAL_RCC_OscConfig+0x620>)
 8001886:	4924      	ldr	r1, [pc, #144]	; (8001918 <HAL_RCC_OscConfig+0x62c>)
 8001888:	400a      	ands	r2, r1
 800188a:	601a      	str	r2, [r3, #0]
 
        /* Get Start Tick */
        tickstart = HAL_GetTick();
 800188c:	f7ff f8b4 	bl	80009f8 <HAL_GetTick>
 8001890:	0003      	movs	r3, r0
 8001892:	61bb      	str	r3, [r7, #24]
        
        /* Wait till PLL is disabled */  
        while(__HAL_RCC_GET_FLAG(RCC_FLAG_PLLRDY)  != RESET)
 8001894:	e008      	b.n	80018a8 <HAL_RCC_OscConfig+0x5bc>
        {
          if((HAL_GetTick() - tickstart ) > PLL_TIMEOUT_VALUE)
 8001896:	f7ff f8af 	bl	80009f8 <HAL_GetTick>
 800189a:	0002      	movs	r2, r0
 800189c:	69bb      	ldr	r3, [r7, #24]
 800189e:	1ad3      	subs	r3, r2, r3
 80018a0:	2b02      	cmp	r3, #2
 80018a2:	d901      	bls.n	80018a8 <HAL_RCC_OscConfig+0x5bc>
          {
            return HAL_TIMEOUT;
 80018a4:	2303      	movs	r3, #3
 80018a6:	e02c      	b.n	8001902 <HAL_RCC_OscConfig+0x616>
        while(__HAL_RCC_GET_FLAG(RCC_FLAG_PLLRDY)  != RESET)
 80018a8:	4b18      	ldr	r3, [pc, #96]	; (800190c <HAL_RCC_OscConfig+0x620>)
 80018aa:	681a      	ldr	r2, [r3, #0]
 80018ac:	2380      	movs	r3, #128	; 0x80
 80018ae:	049b      	lsls	r3, r3, #18
 80018b0:	4013      	ands	r3, r2
 80018b2:	d1f0      	bne.n	8001896 <HAL_RCC_OscConfig+0x5aa>
 80018b4:	e024      	b.n	8001900 <HAL_RCC_OscConfig+0x614>
      }
    }
    else
    {
      /* Check if there is a request to disable the PLL used as System clock source */
      if((RCC_OscInitStruct->PLL.PLLState) == RCC_PLL_OFF)
 80018b6:	687b      	ldr	r3, [r7, #4]
 80018b8:	6a1b      	ldr	r3, [r3, #32]
 80018ba:	2b01      	cmp	r3, #1
 80018bc:	d101      	bne.n	80018c2 <HAL_RCC_OscConfig+0x5d6>
      {
        return HAL_ERROR;
 80018be:	2301      	movs	r3, #1
 80018c0:	e01f      	b.n	8001902 <HAL_RCC_OscConfig+0x616>
      }
      else
      {
        /* Do not return HAL_ERROR if request repeats the current configuration */
        pll_config  = RCC->CFGR;
 80018c2:	4b12      	ldr	r3, [pc, #72]	; (800190c <HAL_RCC_OscConfig+0x620>)
 80018c4:	685b      	ldr	r3, [r3, #4]
 80018c6:	617b      	str	r3, [r7, #20]
        pll_config2 = RCC->CFGR2;
 80018c8:	4b10      	ldr	r3, [pc, #64]	; (800190c <HAL_RCC_OscConfig+0x620>)
 80018ca:	6adb      	ldr	r3, [r3, #44]	; 0x2c
 80018cc:	613b      	str	r3, [r7, #16]
        if((READ_BIT(pll_config,  RCC_CFGR_PLLSRC)  != RCC_OscInitStruct->PLL.PLLSource) ||
 80018ce:	697a      	ldr	r2, [r7, #20]
 80018d0:	2380      	movs	r3, #128	; 0x80
 80018d2:	025b      	lsls	r3, r3, #9
 80018d4:	401a      	ands	r2, r3
 80018d6:	687b      	ldr	r3, [r7, #4]
 80018d8:	6a5b      	ldr	r3, [r3, #36]	; 0x24
 80018da:	429a      	cmp	r2, r3
 80018dc:	d10e      	bne.n	80018fc <HAL_RCC_OscConfig+0x610>
           (READ_BIT(pll_config2, RCC_CFGR2_PREDIV) != RCC_OscInitStruct->PLL.PREDIV)    ||
 80018de:	693b      	ldr	r3, [r7, #16]
 80018e0:	220f      	movs	r2, #15
 80018e2:	401a      	ands	r2, r3
 80018e4:	687b      	ldr	r3, [r7, #4]
 80018e6:	6adb      	ldr	r3, [r3, #44]	; 0x2c
        if((READ_BIT(pll_config,  RCC_CFGR_PLLSRC)  != RCC_OscInitStruct->PLL.PLLSource) ||
 80018e8:	429a      	cmp	r2, r3
 80018ea:	d107      	bne.n	80018fc <HAL_RCC_OscConfig+0x610>
           (READ_BIT(pll_config,  RCC_CFGR_PLLMUL)  != RCC_OscInitStruct->PLL.PLLMUL))
 80018ec:	697a      	ldr	r2, [r7, #20]
 80018ee:	23f0      	movs	r3, #240	; 0xf0
 80018f0:	039b      	lsls	r3, r3, #14
 80018f2:	401a      	ands	r2, r3
 80018f4:	687b      	ldr	r3, [r7, #4]
 80018f6:	6a9b      	ldr	r3, [r3, #40]	; 0x28
           (READ_BIT(pll_config2, RCC_CFGR2_PREDIV) != RCC_OscInitStruct->PLL.PREDIV)    ||
 80018f8:	429a      	cmp	r2, r3
 80018fa:	d001      	beq.n	8001900 <HAL_RCC_OscConfig+0x614>
        {
          return HAL_ERROR;
 80018fc:	2301      	movs	r3, #1
 80018fe:	e000      	b.n	8001902 <HAL_RCC_OscConfig+0x616>
        }
      }
    }
  }

  return HAL_OK;
 8001900:	2300      	movs	r3, #0
}
 8001902:	0018      	movs	r0, r3
 8001904:	46bd      	mov	sp, r7
 8001906:	b008      	add	sp, #32
 8001908:	bd80      	pop	{r7, pc}
 800190a:	46c0      	nop			; (mov r8, r8)
 800190c:	40021000 	.word	0x40021000
 8001910:	00001388 	.word	0x00001388
 8001914:	efffffff 	.word	0xefffffff
 8001918:	feffffff 	.word	0xfeffffff
 800191c:	ffc2ffff 	.word	0xffc2ffff

08001920 <HAL_RCC_ClockConfig>:
  *         You can use @ref HAL_RCC_GetClockConfig() function to know which clock is
  *         currently used as system clock source.
  * @retval HAL status
  */
HAL_StatusTypeDef HAL_RCC_ClockConfig(RCC_ClkInitTypeDef  *RCC_ClkInitStruct, uint32_t FLatency)
{
 8001920:	b580      	push	{r7, lr}
 8001922:	b084      	sub	sp, #16
 8001924:	af00      	add	r7, sp, #0
 8001926:	6078      	str	r0, [r7, #4]
 8001928:	6039      	str	r1, [r7, #0]
  uint32_t tickstart;

  /* Check Null pointer */
  if(RCC_ClkInitStruct == NULL)
 800192a:	687b      	ldr	r3, [r7, #4]
 800192c:	2b00      	cmp	r3, #0
 800192e:	d101      	bne.n	8001934 <HAL_RCC_ClockConfig+0x14>
  {
    return HAL_ERROR;
 8001930:	2301      	movs	r3, #1
 8001932:	e0b3      	b.n	8001a9c <HAL_RCC_ClockConfig+0x17c>
  /* To correctly read data from FLASH memory, the number of wait states (LATENCY) 
  must be correctly programmed according to the frequency of the CPU clock 
    (HCLK) of the device. */

  /* Increasing the number of wait states because of higher CPU frequency */
  if(FLatency > __HAL_FLASH_GET_LATENCY())
 8001934:	4b5b      	ldr	r3, [pc, #364]	; (8001aa4 <HAL_RCC_ClockConfig+0x184>)
 8001936:	681b      	ldr	r3, [r3, #0]
 8001938:	2201      	movs	r2, #1
 800193a:	4013      	ands	r3, r2
 800193c:	683a      	ldr	r2, [r7, #0]
 800193e:	429a      	cmp	r2, r3
 8001940:	d911      	bls.n	8001966 <HAL_RCC_ClockConfig+0x46>
  {    
    /* Program the new number of wait states to the LATENCY bits in the FLASH_ACR register */
    __HAL_FLASH_SET_LATENCY(FLatency);
 8001942:	4b58      	ldr	r3, [pc, #352]	; (8001aa4 <HAL_RCC_ClockConfig+0x184>)
 8001944:	681b      	ldr	r3, [r3, #0]
 8001946:	2201      	movs	r2, #1
 8001948:	4393      	bics	r3, r2
 800194a:	0019      	movs	r1, r3
 800194c:	4b55      	ldr	r3, [pc, #340]	; (8001aa4 <HAL_RCC_ClockConfig+0x184>)
 800194e:	683a      	ldr	r2, [r7, #0]
 8001950:	430a      	orrs	r2, r1
 8001952:	601a      	str	r2, [r3, #0]
    
    /* Check that the new number of wait states is taken into account to access the Flash
    memory by reading the FLASH_ACR register */
    if(__HAL_FLASH_GET_LATENCY() != FLatency)
 8001954:	4b53      	ldr	r3, [pc, #332]	; (8001aa4 <HAL_RCC_ClockConfig+0x184>)
 8001956:	681b      	ldr	r3, [r3, #0]
 8001958:	2201      	movs	r2, #1
 800195a:	4013      	ands	r3, r2
 800195c:	683a      	ldr	r2, [r7, #0]
 800195e:	429a      	cmp	r2, r3
 8001960:	d001      	beq.n	8001966 <HAL_RCC_ClockConfig+0x46>
    {
      return HAL_ERROR;
 8001962:	2301      	movs	r3, #1
 8001964:	e09a      	b.n	8001a9c <HAL_RCC_ClockConfig+0x17c>
    }
  }

  /*-------------------------- HCLK Configuration --------------------------*/
  if(((RCC_ClkInitStruct->ClockType) & RCC_CLOCKTYPE_HCLK) == RCC_CLOCKTYPE_HCLK)
 8001966:	687b      	ldr	r3, [r7, #4]
 8001968:	681b      	ldr	r3, [r3, #0]
 800196a:	2202      	movs	r2, #2
 800196c:	4013      	ands	r3, r2
 800196e:	d015      	beq.n	800199c <HAL_RCC_ClockConfig+0x7c>
  {
    /* Set the highest APB divider in order to ensure that we do not go through
       a non-spec phase whatever we decrease or increase HCLK. */
    if(((RCC_ClkInitStruct->ClockType) & RCC_CLOCKTYPE_PCLK1) == RCC_CLOCKTYPE_PCLK1)
 8001970:	687b      	ldr	r3, [r7, #4]
 8001972:	681b      	ldr	r3, [r3, #0]
 8001974:	2204      	movs	r2, #4
 8001976:	4013      	ands	r3, r2
 8001978:	d006      	beq.n	8001988 <HAL_RCC_ClockConfig+0x68>
    {
      MODIFY_REG(RCC->CFGR, RCC_CFGR_PPRE, RCC_HCLK_DIV16);
 800197a:	4b4b      	ldr	r3, [pc, #300]	; (8001aa8 <HAL_RCC_ClockConfig+0x188>)
 800197c:	685a      	ldr	r2, [r3, #4]
 800197e:	4b4a      	ldr	r3, [pc, #296]	; (8001aa8 <HAL_RCC_ClockConfig+0x188>)
 8001980:	21e0      	movs	r1, #224	; 0xe0
 8001982:	00c9      	lsls	r1, r1, #3
 8001984:	430a      	orrs	r2, r1
 8001986:	605a      	str	r2, [r3, #4]
    }

    /* Set the new HCLK clock divider */
    assert_param(IS_RCC_HCLK(RCC_ClkInitStruct->AHBCLKDivider));
    MODIFY_REG(RCC->CFGR, RCC_CFGR_HPRE, RCC_ClkInitStruct->AHBCLKDivider);
 8001988:	4b47      	ldr	r3, [pc, #284]	; (8001aa8 <HAL_RCC_ClockConfig+0x188>)
 800198a:	685b      	ldr	r3, [r3, #4]
 800198c:	22f0      	movs	r2, #240	; 0xf0
 800198e:	4393      	bics	r3, r2
 8001990:	0019      	movs	r1, r3
 8001992:	687b      	ldr	r3, [r7, #4]
 8001994:	689a      	ldr	r2, [r3, #8]
 8001996:	4b44      	ldr	r3, [pc, #272]	; (8001aa8 <HAL_RCC_ClockConfig+0x188>)
 8001998:	430a      	orrs	r2, r1
 800199a:	605a      	str	r2, [r3, #4]
  }

  /*------------------------- SYSCLK Configuration ---------------------------*/ 
  if(((RCC_ClkInitStruct->ClockType) & RCC_CLOCKTYPE_SYSCLK) == RCC_CLOCKTYPE_SYSCLK)
 800199c:	687b      	ldr	r3, [r7, #4]
 800199e:	681b      	ldr	r3, [r3, #0]
 80019a0:	2201      	movs	r2, #1
 80019a2:	4013      	ands	r3, r2
 80019a4:	d040      	beq.n	8001a28 <HAL_RCC_ClockConfig+0x108>
  {
    assert_param(IS_RCC_SYSCLKSOURCE(RCC_ClkInitStruct->SYSCLKSource));
    
    /* HSE is selected as System Clock Source */
    if(RCC_ClkInitStruct->SYSCLKSource == RCC_SYSCLKSOURCE_HSE)
 80019a6:	687b      	ldr	r3, [r7, #4]
 80019a8:	685b      	ldr	r3, [r3, #4]
 80019aa:	2b01      	cmp	r3, #1
 80019ac:	d107      	bne.n	80019be <HAL_RCC_ClockConfig+0x9e>
    {
      /* Check the HSE ready flag */  
      if(__HAL_RCC_GET_FLAG(RCC_FLAG_HSERDY) == RESET)
 80019ae:	4b3e      	ldr	r3, [pc, #248]	; (8001aa8 <HAL_RCC_ClockConfig+0x188>)
 80019b0:	681a      	ldr	r2, [r3, #0]
 80019b2:	2380      	movs	r3, #128	; 0x80
 80019b4:	029b      	lsls	r3, r3, #10
 80019b6:	4013      	ands	r3, r2
 80019b8:	d114      	bne.n	80019e4 <HAL_RCC_ClockConfig+0xc4>
      {
        return HAL_ERROR;
 80019ba:	2301      	movs	r3, #1
 80019bc:	e06e      	b.n	8001a9c <HAL_RCC_ClockConfig+0x17c>
      }
    }
    /* PLL is selected as System Clock Source */
    else if(RCC_ClkInitStruct->SYSCLKSource == RCC_SYSCLKSOURCE_PLLCLK)
 80019be:	687b      	ldr	r3, [r7, #4]
 80019c0:	685b      	ldr	r3, [r3, #4]
 80019c2:	2b02      	cmp	r3, #2
 80019c4:	d107      	bne.n	80019d6 <HAL_RCC_ClockConfig+0xb6>
    {
      /* Check the PLL ready flag */  
      if(__HAL_RCC_GET_FLAG(RCC_FLAG_PLLRDY) == RESET)
 80019c6:	4b38      	ldr	r3, [pc, #224]	; (8001aa8 <HAL_RCC_ClockConfig+0x188>)
 80019c8:	681a      	ldr	r2, [r3, #0]
 80019ca:	2380      	movs	r3, #128	; 0x80
 80019cc:	049b      	lsls	r3, r3, #18
 80019ce:	4013      	ands	r3, r2
 80019d0:	d108      	bne.n	80019e4 <HAL_RCC_ClockConfig+0xc4>
      {
        return HAL_ERROR;
 80019d2:	2301      	movs	r3, #1
 80019d4:	e062      	b.n	8001a9c <HAL_RCC_ClockConfig+0x17c>
#endif /* RCC_CFGR_SWS_HSI48 */
    /* HSI is selected as System Clock Source */
    else
    {
      /* Check the HSI ready flag */  
      if(__HAL_RCC_GET_FLAG(RCC_FLAG_HSIRDY) == RESET)
 80019d6:	4b34      	ldr	r3, [pc, #208]	; (8001aa8 <HAL_RCC_ClockConfig+0x188>)
 80019d8:	681b      	ldr	r3, [r3, #0]
 80019da:	2202      	movs	r2, #2
 80019dc:	4013      	ands	r3, r2
 80019de:	d101      	bne.n	80019e4 <HAL_RCC_ClockConfig+0xc4>
      {
        return HAL_ERROR;
 80019e0:	2301      	movs	r3, #1
 80019e2:	e05b      	b.n	8001a9c <HAL_RCC_ClockConfig+0x17c>
      }
    }
    __HAL_RCC_SYSCLK_CONFIG(RCC_ClkInitStruct->SYSCLKSource);
 80019e4:	4b30      	ldr	r3, [pc, #192]	; (8001aa8 <HAL_RCC_ClockConfig+0x188>)
 80019e6:	685b      	ldr	r3, [r3, #4]
 80019e8:	2203      	movs	r2, #3
 80019ea:	4393      	bics	r3, r2
 80019ec:	0019      	movs	r1, r3
 80019ee:	687b      	ldr	r3, [r7, #4]
 80019f0:	685a      	ldr	r2, [r3, #4]
 80019f2:	4b2d      	ldr	r3, [pc, #180]	; (8001aa8 <HAL_RCC_ClockConfig+0x188>)
 80019f4:	430a      	orrs	r2, r1
 80019f6:	605a      	str	r2, [r3, #4]

    /* Get Start Tick */
    tickstart = HAL_GetTick();
 80019f8:	f7fe fffe 	bl	80009f8 <HAL_GetTick>
 80019fc:	0003      	movs	r3, r0
 80019fe:	60fb      	str	r3, [r7, #12]
    
    while (__HAL_RCC_GET_SYSCLK_SOURCE() != (RCC_ClkInitStruct->SYSCLKSource << RCC_CFGR_SWS_Pos))
 8001a00:	e009      	b.n	8001a16 <HAL_RCC_ClockConfig+0xf6>
    {
      if((HAL_GetTick() - tickstart ) > CLOCKSWITCH_TIMEOUT_VALUE)
 8001a02:	f7fe fff9 	bl	80009f8 <HAL_GetTick>
 8001a06:	0002      	movs	r2, r0
 8001a08:	68fb      	ldr	r3, [r7, #12]
 8001a0a:	1ad3      	subs	r3, r2, r3
 8001a0c:	4a27      	ldr	r2, [pc, #156]	; (8001aac <HAL_RCC_ClockConfig+0x18c>)
 8001a0e:	4293      	cmp	r3, r2
 8001a10:	d901      	bls.n	8001a16 <HAL_RCC_ClockConfig+0xf6>
      {
        return HAL_TIMEOUT;
 8001a12:	2303      	movs	r3, #3
 8001a14:	e042      	b.n	8001a9c <HAL_RCC_ClockConfig+0x17c>
    while (__HAL_RCC_GET_SYSCLK_SOURCE() != (RCC_ClkInitStruct->SYSCLKSource << RCC_CFGR_SWS_Pos))
 8001a16:	4b24      	ldr	r3, [pc, #144]	; (8001aa8 <HAL_RCC_ClockConfig+0x188>)
 8001a18:	685b      	ldr	r3, [r3, #4]
 8001a1a:	220c      	movs	r2, #12
 8001a1c:	401a      	ands	r2, r3
 8001a1e:	687b      	ldr	r3, [r7, #4]
 8001a20:	685b      	ldr	r3, [r3, #4]
 8001a22:	009b      	lsls	r3, r3, #2
 8001a24:	429a      	cmp	r2, r3
 8001a26:	d1ec      	bne.n	8001a02 <HAL_RCC_ClockConfig+0xe2>
      }
    }
  }

  /* Decreasing the number of wait states because of lower CPU frequency */
  if(FLatency < __HAL_FLASH_GET_LATENCY())
 8001a28:	4b1e      	ldr	r3, [pc, #120]	; (8001aa4 <HAL_RCC_ClockConfig+0x184>)
 8001a2a:	681b      	ldr	r3, [r3, #0]
 8001a2c:	2201      	movs	r2, #1
 8001a2e:	4013      	ands	r3, r2
 8001a30:	683a      	ldr	r2, [r7, #0]
 8001a32:	429a      	cmp	r2, r3
 8001a34:	d211      	bcs.n	8001a5a <HAL_RCC_ClockConfig+0x13a>
  {    
    /* Program the new number of wait states to the LATENCY bits in the FLASH_ACR register */
    __HAL_FLASH_SET_LATENCY(FLatency);
 8001a36:	4b1b      	ldr	r3, [pc, #108]	; (8001aa4 <HAL_RCC_ClockConfig+0x184>)
 8001a38:	681b      	ldr	r3, [r3, #0]
 8001a3a:	2201      	movs	r2, #1
 8001a3c:	4393      	bics	r3, r2
 8001a3e:	0019      	movs	r1, r3
 8001a40:	4b18      	ldr	r3, [pc, #96]	; (8001aa4 <HAL_RCC_ClockConfig+0x184>)
 8001a42:	683a      	ldr	r2, [r7, #0]
 8001a44:	430a      	orrs	r2, r1
 8001a46:	601a      	str	r2, [r3, #0]
    
    /* Check that the new number of wait states is taken into account to access the Flash
    memory by reading the FLASH_ACR register */
    if(__HAL_FLASH_GET_LATENCY() != FLatency)
 8001a48:	4b16      	ldr	r3, [pc, #88]	; (8001aa4 <HAL_RCC_ClockConfig+0x184>)
 8001a4a:	681b      	ldr	r3, [r3, #0]
 8001a4c:	2201      	movs	r2, #1
 8001a4e:	4013      	ands	r3, r2
 8001a50:	683a      	ldr	r2, [r7, #0]
 8001a52:	429a      	cmp	r2, r3
 8001a54:	d001      	beq.n	8001a5a <HAL_RCC_ClockConfig+0x13a>
    {
      return HAL_ERROR;
 8001a56:	2301      	movs	r3, #1
 8001a58:	e020      	b.n	8001a9c <HAL_RCC_ClockConfig+0x17c>
    }
  }    

  /*-------------------------- PCLK1 Configuration ---------------------------*/ 
  if(((RCC_ClkInitStruct->ClockType) & RCC_CLOCKTYPE_PCLK1) == RCC_CLOCKTYPE_PCLK1)
 8001a5a:	687b      	ldr	r3, [r7, #4]
 8001a5c:	681b      	ldr	r3, [r3, #0]
 8001a5e:	2204      	movs	r2, #4
 8001a60:	4013      	ands	r3, r2
 8001a62:	d009      	beq.n	8001a78 <HAL_RCC_ClockConfig+0x158>
  {
    assert_param(IS_RCC_PCLK(RCC_ClkInitStruct->APB1CLKDivider));
    MODIFY_REG(RCC->CFGR, RCC_CFGR_PPRE, RCC_ClkInitStruct->APB1CLKDivider);
 8001a64:	4b10      	ldr	r3, [pc, #64]	; (8001aa8 <HAL_RCC_ClockConfig+0x188>)
 8001a66:	685b      	ldr	r3, [r3, #4]
 8001a68:	4a11      	ldr	r2, [pc, #68]	; (8001ab0 <HAL_RCC_ClockConfig+0x190>)
 8001a6a:	4013      	ands	r3, r2
 8001a6c:	0019      	movs	r1, r3
 8001a6e:	687b      	ldr	r3, [r7, #4]
 8001a70:	68da      	ldr	r2, [r3, #12]
 8001a72:	4b0d      	ldr	r3, [pc, #52]	; (8001aa8 <HAL_RCC_ClockConfig+0x188>)
 8001a74:	430a      	orrs	r2, r1
 8001a76:	605a      	str	r2, [r3, #4]
  }
  
  /* Update the SystemCoreClock global variable */
  SystemCoreClock = HAL_RCC_GetSysClockFreq() >> AHBPrescTable[(RCC->CFGR & RCC_CFGR_HPRE)>> RCC_CFGR_HPRE_BITNUMBER];
 8001a78:	f000 f820 	bl	8001abc <HAL_RCC_GetSysClockFreq>
 8001a7c:	0001      	movs	r1, r0
 8001a7e:	4b0a      	ldr	r3, [pc, #40]	; (8001aa8 <HAL_RCC_ClockConfig+0x188>)
 8001a80:	685b      	ldr	r3, [r3, #4]
 8001a82:	091b      	lsrs	r3, r3, #4
 8001a84:	220f      	movs	r2, #15
 8001a86:	4013      	ands	r3, r2
 8001a88:	4a0a      	ldr	r2, [pc, #40]	; (8001ab4 <HAL_RCC_ClockConfig+0x194>)
 8001a8a:	5cd3      	ldrb	r3, [r2, r3]
 8001a8c:	000a      	movs	r2, r1
 8001a8e:	40da      	lsrs	r2, r3
 8001a90:	4b09      	ldr	r3, [pc, #36]	; (8001ab8 <HAL_RCC_ClockConfig+0x198>)
 8001a92:	601a      	str	r2, [r3, #0]

  /* Configure the source of time base considering new system clocks settings*/
  HAL_InitTick (TICK_INT_PRIORITY);
 8001a94:	2000      	movs	r0, #0
 8001a96:	f7fe ff69 	bl	800096c <HAL_InitTick>
  
  return HAL_OK;
 8001a9a:	2300      	movs	r3, #0
}
 8001a9c:	0018      	movs	r0, r3
 8001a9e:	46bd      	mov	sp, r7
 8001aa0:	b004      	add	sp, #16
 8001aa2:	bd80      	pop	{r7, pc}
 8001aa4:	40022000 	.word	0x40022000
 8001aa8:	40021000 	.word	0x40021000
 8001aac:	00001388 	.word	0x00001388
 8001ab0:	fffff8ff 	.word	0xfffff8ff
 8001ab4:	08002c98 	.word	0x08002c98
 8001ab8:	2000096c 	.word	0x2000096c

08001abc <HAL_RCC_GetSysClockFreq>:
  *         right SYSCLK value. Otherwise, any configuration based on this function will be incorrect.
  *         
  * @retval SYSCLK frequency
  */
uint32_t HAL_RCC_GetSysClockFreq(void)
{
 8001abc:	b590      	push	{r4, r7, lr}
 8001abe:	b08f      	sub	sp, #60	; 0x3c
 8001ac0:	af00      	add	r7, sp, #0
  const uint8_t aPLLMULFactorTable[16] = { 2U,  3U,  4U,  5U,  6U,  7U,  8U,  9U,
 8001ac2:	2314      	movs	r3, #20
 8001ac4:	18fb      	adds	r3, r7, r3
 8001ac6:	4a2b      	ldr	r2, [pc, #172]	; (8001b74 <HAL_RCC_GetSysClockFreq+0xb8>)
 8001ac8:	ca13      	ldmia	r2!, {r0, r1, r4}
 8001aca:	c313      	stmia	r3!, {r0, r1, r4}
 8001acc:	6812      	ldr	r2, [r2, #0]
 8001ace:	601a      	str	r2, [r3, #0]
                                         10U, 11U, 12U, 13U, 14U, 15U, 16U, 16U};
  const uint8_t aPredivFactorTable[16] = { 1U, 2U,  3U,  4U,  5U,  6U,  7U,  8U,
 8001ad0:	1d3b      	adds	r3, r7, #4
 8001ad2:	4a29      	ldr	r2, [pc, #164]	; (8001b78 <HAL_RCC_GetSysClockFreq+0xbc>)
 8001ad4:	ca13      	ldmia	r2!, {r0, r1, r4}
 8001ad6:	c313      	stmia	r3!, {r0, r1, r4}
 8001ad8:	6812      	ldr	r2, [r2, #0]
 8001ada:	601a      	str	r2, [r3, #0]
                                           9U,10U, 11U, 12U, 13U, 14U, 15U, 16U};

  uint32_t tmpreg = 0U, prediv = 0U, pllclk = 0U, pllmul = 0U;
 8001adc:	2300      	movs	r3, #0
 8001ade:	62fb      	str	r3, [r7, #44]	; 0x2c
 8001ae0:	2300      	movs	r3, #0
 8001ae2:	62bb      	str	r3, [r7, #40]	; 0x28
 8001ae4:	2300      	movs	r3, #0
 8001ae6:	637b      	str	r3, [r7, #52]	; 0x34
 8001ae8:	2300      	movs	r3, #0
 8001aea:	627b      	str	r3, [r7, #36]	; 0x24
  uint32_t sysclockfreq = 0U;
 8001aec:	2300      	movs	r3, #0
 8001aee:	633b      	str	r3, [r7, #48]	; 0x30
  
  tmpreg = RCC->CFGR;
 8001af0:	4b22      	ldr	r3, [pc, #136]	; (8001b7c <HAL_RCC_GetSysClockFreq+0xc0>)
 8001af2:	685b      	ldr	r3, [r3, #4]
 8001af4:	62fb      	str	r3, [r7, #44]	; 0x2c
  
  /* Get SYSCLK source -------------------------------------------------------*/
  switch (tmpreg & RCC_CFGR_SWS)
 8001af6:	6afb      	ldr	r3, [r7, #44]	; 0x2c
 8001af8:	220c      	movs	r2, #12
 8001afa:	4013      	ands	r3, r2
 8001afc:	2b04      	cmp	r3, #4
 8001afe:	d002      	beq.n	8001b06 <HAL_RCC_GetSysClockFreq+0x4a>
 8001b00:	2b08      	cmp	r3, #8
 8001b02:	d003      	beq.n	8001b0c <HAL_RCC_GetSysClockFreq+0x50>
 8001b04:	e02d      	b.n	8001b62 <HAL_RCC_GetSysClockFreq+0xa6>
  {
    case RCC_SYSCLKSOURCE_STATUS_HSE:  /* HSE used as system clock */
    {
      sysclockfreq = HSE_VALUE;
 8001b06:	4b1e      	ldr	r3, [pc, #120]	; (8001b80 <HAL_RCC_GetSysClockFreq+0xc4>)
 8001b08:	633b      	str	r3, [r7, #48]	; 0x30
      break;
 8001b0a:	e02d      	b.n	8001b68 <HAL_RCC_GetSysClockFreq+0xac>
    }
    case RCC_SYSCLKSOURCE_STATUS_PLLCLK:  /* PLL used as system clock */
    {
      pllmul = aPLLMULFactorTable[(uint32_t)(tmpreg & RCC_CFGR_PLLMUL) >> RCC_CFGR_PLLMUL_BITNUMBER];
 8001b0c:	6afb      	ldr	r3, [r7, #44]	; 0x2c
 8001b0e:	0c9b      	lsrs	r3, r3, #18
 8001b10:	220f      	movs	r2, #15
 8001b12:	4013      	ands	r3, r2
 8001b14:	2214      	movs	r2, #20
 8001b16:	18ba      	adds	r2, r7, r2
 8001b18:	5cd3      	ldrb	r3, [r2, r3]
 8001b1a:	627b      	str	r3, [r7, #36]	; 0x24
      prediv = aPredivFactorTable[(uint32_t)(RCC->CFGR2 & RCC_CFGR2_PREDIV) >> RCC_CFGR2_PREDIV_BITNUMBER];
 8001b1c:	4b17      	ldr	r3, [pc, #92]	; (8001b7c <HAL_RCC_GetSysClockFreq+0xc0>)
 8001b1e:	6adb      	ldr	r3, [r3, #44]	; 0x2c
 8001b20:	220f      	movs	r2, #15
 8001b22:	4013      	ands	r3, r2
 8001b24:	1d3a      	adds	r2, r7, #4
 8001b26:	5cd3      	ldrb	r3, [r2, r3]
 8001b28:	62bb      	str	r3, [r7, #40]	; 0x28
      if ((tmpreg & RCC_CFGR_PLLSRC) == RCC_PLLSOURCE_HSE)
 8001b2a:	6afa      	ldr	r2, [r7, #44]	; 0x2c
 8001b2c:	2380      	movs	r3, #128	; 0x80
 8001b2e:	025b      	lsls	r3, r3, #9
 8001b30:	4013      	ands	r3, r2
 8001b32:	d009      	beq.n	8001b48 <HAL_RCC_GetSysClockFreq+0x8c>
      {
        /* HSE used as PLL clock source : PLLCLK = HSE/PREDIV * PLLMUL */
        pllclk = (uint32_t)((uint64_t) HSE_VALUE / (uint64_t) (prediv)) * ((uint64_t) pllmul);
 8001b34:	6ab9      	ldr	r1, [r7, #40]	; 0x28
 8001b36:	4812      	ldr	r0, [pc, #72]	; (8001b80 <HAL_RCC_GetSysClockFreq+0xc4>)
 8001b38:	f7fe fae6 	bl	8000108 <__udivsi3>
 8001b3c:	0003      	movs	r3, r0
 8001b3e:	001a      	movs	r2, r3
 8001b40:	6a7b      	ldr	r3, [r7, #36]	; 0x24
 8001b42:	4353      	muls	r3, r2
 8001b44:	637b      	str	r3, [r7, #52]	; 0x34
 8001b46:	e009      	b.n	8001b5c <HAL_RCC_GetSysClockFreq+0xa0>
#if  (defined(STM32F042x6) || defined(STM32F048xx) || defined(STM32F070x6) || defined(STM32F071xB) || defined(STM32F072xB) || defined(STM32F078xx) || defined(STM32F070xB) || defined(STM32F091xC) || defined(STM32F098xx) || defined(STM32F030xC))
        /* HSI used as PLL clock source : PLLCLK = HSI/PREDIV * PLLMUL */
        pllclk = (uint32_t)((uint64_t) HSI_VALUE / (uint64_t) (prediv)) * ((uint64_t) pllmul);
#else
        /* HSI used as PLL clock source : PLLCLK = HSI/2 * PLLMUL */
        pllclk = (uint32_t)((uint64_t) (HSI_VALUE >> 1U) * ((uint64_t) pllmul));
 8001b48:	6a79      	ldr	r1, [r7, #36]	; 0x24
 8001b4a:	000a      	movs	r2, r1
 8001b4c:	0152      	lsls	r2, r2, #5
 8001b4e:	1a52      	subs	r2, r2, r1
 8001b50:	0193      	lsls	r3, r2, #6
 8001b52:	1a9b      	subs	r3, r3, r2
 8001b54:	00db      	lsls	r3, r3, #3
 8001b56:	185b      	adds	r3, r3, r1
 8001b58:	021b      	lsls	r3, r3, #8
 8001b5a:	637b      	str	r3, [r7, #52]	; 0x34
#endif
      }
      sysclockfreq = pllclk;
 8001b5c:	6b7b      	ldr	r3, [r7, #52]	; 0x34
 8001b5e:	633b      	str	r3, [r7, #48]	; 0x30
      break;
 8001b60:	e002      	b.n	8001b68 <HAL_RCC_GetSysClockFreq+0xac>
    }
#endif /* RCC_CFGR_SWS_HSI48 */
    case RCC_SYSCLKSOURCE_STATUS_HSI:  /* HSI used as system clock source */
    default: /* HSI used as system clock */
    {
      sysclockfreq = HSI_VALUE;
 8001b62:	4b07      	ldr	r3, [pc, #28]	; (8001b80 <HAL_RCC_GetSysClockFreq+0xc4>)
 8001b64:	633b      	str	r3, [r7, #48]	; 0x30
      break;
 8001b66:	46c0      	nop			; (mov r8, r8)
    }
  }
  return sysclockfreq;
 8001b68:	6b3b      	ldr	r3, [r7, #48]	; 0x30
}
 8001b6a:	0018      	movs	r0, r3
 8001b6c:	46bd      	mov	sp, r7
 8001b6e:	b00f      	add	sp, #60	; 0x3c
 8001b70:	bd90      	pop	{r4, r7, pc}
 8001b72:	46c0      	nop			; (mov r8, r8)
 8001b74:	08002c78 	.word	0x08002c78
 8001b78:	08002c88 	.word	0x08002c88
 8001b7c:	40021000 	.word	0x40021000
 8001b80:	007a1200 	.word	0x007a1200

08001b84 <HAL_TIM_Base_Init>:
  *         Ex: call @ref HAL_TIM_Base_DeInit() before HAL_TIM_Base_Init()
  * @param  htim TIM Base handle
  * @retval HAL status
  */
HAL_StatusTypeDef HAL_TIM_Base_Init(TIM_HandleTypeDef *htim)
{
 8001b84:	b580      	push	{r7, lr}
 8001b86:	b082      	sub	sp, #8
 8001b88:	af00      	add	r7, sp, #0
 8001b8a:	6078      	str	r0, [r7, #4]
  /* Check the TIM handle allocation */
  if (htim == NULL)
 8001b8c:	687b      	ldr	r3, [r7, #4]
 8001b8e:	2b00      	cmp	r3, #0
 8001b90:	d101      	bne.n	8001b96 <HAL_TIM_Base_Init+0x12>
  {
    return HAL_ERROR;
 8001b92:	2301      	movs	r3, #1
 8001b94:	e042      	b.n	8001c1c <HAL_TIM_Base_Init+0x98>
  assert_param(IS_TIM_INSTANCE(htim->Instance));
  assert_param(IS_TIM_COUNTER_MODE(htim->Init.CounterMode));
  assert_param(IS_TIM_CLOCKDIVISION_DIV(htim->Init.ClockDivision));
  assert_param(IS_TIM_AUTORELOAD_PRELOAD(htim->Init.AutoReloadPreload));

  if (htim->State == HAL_TIM_STATE_RESET)
 8001b96:	687b      	ldr	r3, [r7, #4]
 8001b98:	223d      	movs	r2, #61	; 0x3d
 8001b9a:	5c9b      	ldrb	r3, [r3, r2]
 8001b9c:	b2db      	uxtb	r3, r3
 8001b9e:	2b00      	cmp	r3, #0
 8001ba0:	d107      	bne.n	8001bb2 <HAL_TIM_Base_Init+0x2e>
  {
    /* Allocate lock resource and initialize it */
    htim->Lock = HAL_UNLOCKED;
 8001ba2:	687b      	ldr	r3, [r7, #4]
 8001ba4:	223c      	movs	r2, #60	; 0x3c
 8001ba6:	2100      	movs	r1, #0
 8001ba8:	5499      	strb	r1, [r3, r2]
    }
    /* Init the low level hardware : GPIO, CLOCK, NVIC */
    htim->Base_MspInitCallback(htim);
#else
    /* Init the low level hardware : GPIO, CLOCK, NVIC */
    HAL_TIM_Base_MspInit(htim);
 8001baa:	687b      	ldr	r3, [r7, #4]
 8001bac:	0018      	movs	r0, r3
 8001bae:	f7fe fddb 	bl	8000768 <HAL_TIM_Base_MspInit>
#endif /* USE_HAL_TIM_REGISTER_CALLBACKS */
  }

  /* Set the TIM state */
  htim->State = HAL_TIM_STATE_BUSY;
 8001bb2:	687b      	ldr	r3, [r7, #4]
 8001bb4:	223d      	movs	r2, #61	; 0x3d
 8001bb6:	2102      	movs	r1, #2
 8001bb8:	5499      	strb	r1, [r3, r2]

  /* Set the Time Base configuration */
  TIM_Base_SetConfig(htim->Instance, &htim->Init);
 8001bba:	687b      	ldr	r3, [r7, #4]
 8001bbc:	681a      	ldr	r2, [r3, #0]
 8001bbe:	687b      	ldr	r3, [r7, #4]
 8001bc0:	3304      	adds	r3, #4
 8001bc2:	0019      	movs	r1, r3
 8001bc4:	0010      	movs	r0, r2
 8001bc6:	f000 fc87 	bl	80024d8 <TIM_Base_SetConfig>

  /* Initialize the DMA burst operation state */
  htim->DMABurstState = HAL_DMA_BURST_STATE_READY;
 8001bca:	687b      	ldr	r3, [r7, #4]
 8001bcc:	2246      	movs	r2, #70	; 0x46
 8001bce:	2101      	movs	r1, #1
 8001bd0:	5499      	strb	r1, [r3, r2]

  /* Initialize the TIM channels state */
  TIM_CHANNEL_STATE_SET_ALL(htim, HAL_TIM_CHANNEL_STATE_READY);
 8001bd2:	687b      	ldr	r3, [r7, #4]
 8001bd4:	223e      	movs	r2, #62	; 0x3e
 8001bd6:	2101      	movs	r1, #1
 8001bd8:	5499      	strb	r1, [r3, r2]
 8001bda:	687b      	ldr	r3, [r7, #4]
 8001bdc:	223f      	movs	r2, #63	; 0x3f
 8001bde:	2101      	movs	r1, #1
 8001be0:	5499      	strb	r1, [r3, r2]
 8001be2:	687b      	ldr	r3, [r7, #4]
 8001be4:	2240      	movs	r2, #64	; 0x40
 8001be6:	2101      	movs	r1, #1
 8001be8:	5499      	strb	r1, [r3, r2]
 8001bea:	687b      	ldr	r3, [r7, #4]
 8001bec:	2241      	movs	r2, #65	; 0x41
 8001bee:	2101      	movs	r1, #1
 8001bf0:	5499      	strb	r1, [r3, r2]
  TIM_CHANNEL_N_STATE_SET_ALL(htim, HAL_TIM_CHANNEL_STATE_READY);
 8001bf2:	687b      	ldr	r3, [r7, #4]
 8001bf4:	2242      	movs	r2, #66	; 0x42
 8001bf6:	2101      	movs	r1, #1
 8001bf8:	5499      	strb	r1, [r3, r2]
 8001bfa:	687b      	ldr	r3, [r7, #4]
 8001bfc:	2243      	movs	r2, #67	; 0x43
 8001bfe:	2101      	movs	r1, #1
 8001c00:	5499      	strb	r1, [r3, r2]
 8001c02:	687b      	ldr	r3, [r7, #4]
 8001c04:	2244      	movs	r2, #68	; 0x44
 8001c06:	2101      	movs	r1, #1
 8001c08:	5499      	strb	r1, [r3, r2]
 8001c0a:	687b      	ldr	r3, [r7, #4]
 8001c0c:	2245      	movs	r2, #69	; 0x45
 8001c0e:	2101      	movs	r1, #1
 8001c10:	5499      	strb	r1, [r3, r2]

  /* Initialize the TIM state*/
  htim->State = HAL_TIM_STATE_READY;
 8001c12:	687b      	ldr	r3, [r7, #4]
 8001c14:	223d      	movs	r2, #61	; 0x3d
 8001c16:	2101      	movs	r1, #1
 8001c18:	5499      	strb	r1, [r3, r2]

  return HAL_OK;
 8001c1a:	2300      	movs	r3, #0
}
 8001c1c:	0018      	movs	r0, r3
 8001c1e:	46bd      	mov	sp, r7
 8001c20:	b002      	add	sp, #8
 8001c22:	bd80      	pop	{r7, pc}

08001c24 <HAL_TIM_OC_Init>:
  *         Ex: call @ref HAL_TIM_OC_DeInit() before HAL_TIM_OC_Init()
  * @param  htim TIM Output Compare handle
  * @retval HAL status
  */
HAL_StatusTypeDef HAL_TIM_OC_Init(TIM_HandleTypeDef *htim)
{
 8001c24:	b580      	push	{r7, lr}
 8001c26:	b082      	sub	sp, #8
 8001c28:	af00      	add	r7, sp, #0
 8001c2a:	6078      	str	r0, [r7, #4]
  /* Check the TIM handle allocation */
  if (htim == NULL)
 8001c2c:	687b      	ldr	r3, [r7, #4]
 8001c2e:	2b00      	cmp	r3, #0
 8001c30:	d101      	bne.n	8001c36 <HAL_TIM_OC_Init+0x12>
  {
    return HAL_ERROR;
 8001c32:	2301      	movs	r3, #1
 8001c34:	e042      	b.n	8001cbc <HAL_TIM_OC_Init+0x98>
  assert_param(IS_TIM_INSTANCE(htim->Instance));
  assert_param(IS_TIM_COUNTER_MODE(htim->Init.CounterMode));
  assert_param(IS_TIM_CLOCKDIVISION_DIV(htim->Init.ClockDivision));
  assert_param(IS_TIM_AUTORELOAD_PRELOAD(htim->Init.AutoReloadPreload));

  if (htim->State == HAL_TIM_STATE_RESET)
 8001c36:	687b      	ldr	r3, [r7, #4]
 8001c38:	223d      	movs	r2, #61	; 0x3d
 8001c3a:	5c9b      	ldrb	r3, [r3, r2]
 8001c3c:	b2db      	uxtb	r3, r3
 8001c3e:	2b00      	cmp	r3, #0
 8001c40:	d107      	bne.n	8001c52 <HAL_TIM_OC_Init+0x2e>
  {
    /* Allocate lock resource and initialize it */
    htim->Lock = HAL_UNLOCKED;
 8001c42:	687b      	ldr	r3, [r7, #4]
 8001c44:	223c      	movs	r2, #60	; 0x3c
 8001c46:	2100      	movs	r1, #0
 8001c48:	5499      	strb	r1, [r3, r2]
    }
    /* Init the low level hardware : GPIO, CLOCK, NVIC */
    htim->OC_MspInitCallback(htim);
#else
