
EEE3096S_2022_Prac_3_ADCs_Interrupts_and_PWM_Student_Version.elf:     file format elf32-littlearm

Sections:
Idx Name          Size      VMA       LMA       File off  Algn
  0 .isr_vector   000000c0  08000000  08000000  00010000  2**0
                  CONTENTS, ALLOC, LOAD, READONLY, DATA
  1 .text         00004050  080000c0  080000c0  000100c0  2**2
                  CONTENTS, ALLOC, LOAD, READONLY, CODE
  2 .rodata       00000040  08004110  08004110  00014110  2**2
                  CONTENTS, ALLOC, LOAD, READONLY, DATA
  3 .ARM.extab    00000000  08004150  08004150  00020014  2**0
                  CONTENTS
  4 .ARM          00000000  08004150  08004150  00020014  2**0
                  CONTENTS
  5 .preinit_array 00000000  08004150  08004150  00020014  2**0
                  CONTENTS, ALLOC, LOAD, DATA
  6 .init_array   00000004  08004150  08004150  00014150  2**2
                  CONTENTS, ALLOC, LOAD, DATA
  7 .fini_array   00000004  08004154  08004154  00014154  2**2
                  CONTENTS, ALLOC, LOAD, DATA
  8 .data         00000014  20000000  08004158  00020000  2**2
                  CONTENTS, ALLOC, LOAD, DATA
  9 .bss          000001b4  20000014  0800416c  00020014  2**2
                  ALLOC
 10 ._user_heap_stack 00000600  200001c8  0800416c  000201c8  2**0
                  ALLOC
 11 .ARM.attributes 00000028  00000000  00000000  00020014  2**0
                  CONTENTS, READONLY
 12 .debug_info   0000ef35  00000000  00000000  0002003c  2**0
                  CONTENTS, READONLY, DEBUGGING, OCTETS
 13 .debug_abbrev 00001f75  00000000  00000000  0002ef71  2**0
                  CONTENTS, READONLY, DEBUGGING, OCTETS
 14 .debug_aranges 00000d28  00000000  00000000  00030ee8  2**3
                  CONTENTS, READONLY, DEBUGGING, OCTETS
 15 .debug_ranges 00000c70  00000000  00000000  00031c10  2**3
                  CONTENTS, READONLY, DEBUGGING, OCTETS
 16 .debug_macro  00012044  00000000  00000000  00032880  2**0
                  CONTENTS, READONLY, DEBUGGING, OCTETS
 17 .debug_line   0000f4ea  00000000  00000000  000448c4  2**0
                  CONTENTS, READONLY, DEBUGGING, OCTETS
 18 .debug_str    0006ff68  00000000  00000000  00053dae  2**0
                  CONTENTS, READONLY, DEBUGGING, OCTETS
 19 .comment      00000050  00000000  00000000  000c3d16  2**0
                  CONTENTS, READONLY
 20 .debug_frame  00002f98  00000000  00000000  000c3d68  2**2
                  CONTENTS, READONLY, DEBUGGING, OCTETS

Disassembly of section .text:

080000c0 <__do_global_dtors_aux>:
 80000c0:	b510      	push	{r4, lr}
 80000c2:	4c06      	ldr	r4, [pc, #24]	; (80000dc <__do_global_dtors_aux+0x1c>)
 80000c4:	7823      	ldrb	r3, [r4, #0]
 80000c6:	2b00      	cmp	r3, #0
 80000c8:	d107      	bne.n	80000da <__do_global_dtors_aux+0x1a>
 80000ca:	4b05      	ldr	r3, [pc, #20]	; (80000e0 <__do_global_dtors_aux+0x20>)
 80000cc:	2b00      	cmp	r3, #0
 80000ce:	d002      	beq.n	80000d6 <__do_global_dtors_aux+0x16>
 80000d0:	4804      	ldr	r0, [pc, #16]	; (80000e4 <__do_global_dtors_aux+0x24>)
 80000d2:	e000      	b.n	80000d6 <__do_global_dtors_aux+0x16>
 80000d4:	bf00      	nop
 80000d6:	2301      	movs	r3, #1
 80000d8:	7023      	strb	r3, [r4, #0]
 80000da:	bd10      	pop	{r4, pc}
 80000dc:	20000014 	.word	0x20000014
 80000e0:	00000000 	.word	0x00000000
 80000e4:	080040f8 	.word	0x080040f8

080000e8 <frame_dummy>:
 80000e8:	4b04      	ldr	r3, [pc, #16]	; (80000fc <frame_dummy+0x14>)
 80000ea:	b510      	push	{r4, lr}
 80000ec:	2b00      	cmp	r3, #0
 80000ee:	d003      	beq.n	80000f8 <frame_dummy+0x10>
 80000f0:	4903      	ldr	r1, [pc, #12]	; (8000100 <frame_dummy+0x18>)
 80000f2:	4804      	ldr	r0, [pc, #16]	; (8000104 <frame_dummy+0x1c>)
 80000f4:	e000      	b.n	80000f8 <frame_dummy+0x10>
 80000f6:	bf00      	nop
 80000f8:	bd10      	pop	{r4, pc}
 80000fa:	46c0      	nop			; (mov r8, r8)
 80000fc:	00000000 	.word	0x00000000
 8000100:	20000018 	.word	0x20000018
 8000104:	080040f8 	.word	0x080040f8

08000108 <__udivsi3>:
 8000108:	2200      	movs	r2, #0
 800010a:	0843      	lsrs	r3, r0, #1
 800010c:	428b      	cmp	r3, r1
 800010e:	d374      	bcc.n	80001fa <__udivsi3+0xf2>
 8000110:	0903      	lsrs	r3, r0, #4
 8000112:	428b      	cmp	r3, r1
 8000114:	d35f      	bcc.n	80001d6 <__udivsi3+0xce>
 8000116:	0a03      	lsrs	r3, r0, #8
 8000118:	428b      	cmp	r3, r1
 800011a:	d344      	bcc.n	80001a6 <__udivsi3+0x9e>
 800011c:	0b03      	lsrs	r3, r0, #12
 800011e:	428b      	cmp	r3, r1
 8000120:	d328      	bcc.n	8000174 <__udivsi3+0x6c>
 8000122:	0c03      	lsrs	r3, r0, #16
 8000124:	428b      	cmp	r3, r1
 8000126:	d30d      	bcc.n	8000144 <__udivsi3+0x3c>
 8000128:	22ff      	movs	r2, #255	; 0xff
 800012a:	0209      	lsls	r1, r1, #8
 800012c:	ba12      	rev	r2, r2
 800012e:	0c03      	lsrs	r3, r0, #16
 8000130:	428b      	cmp	r3, r1
 8000132:	d302      	bcc.n	800013a <__udivsi3+0x32>
 8000134:	1212      	asrs	r2, r2, #8
 8000136:	0209      	lsls	r1, r1, #8
 8000138:	d065      	beq.n	8000206 <__udivsi3+0xfe>
 800013a:	0b03      	lsrs	r3, r0, #12
 800013c:	428b      	cmp	r3, r1
 800013e:	d319      	bcc.n	8000174 <__udivsi3+0x6c>
 8000140:	e000      	b.n	8000144 <__udivsi3+0x3c>
 8000142:	0a09      	lsrs	r1, r1, #8
 8000144:	0bc3      	lsrs	r3, r0, #15
 8000146:	428b      	cmp	r3, r1
 8000148:	d301      	bcc.n	800014e <__udivsi3+0x46>
 800014a:	03cb      	lsls	r3, r1, #15
 800014c:	1ac0      	subs	r0, r0, r3
 800014e:	4152      	adcs	r2, r2
 8000150:	0b83      	lsrs	r3, r0, #14
 8000152:	428b      	cmp	r3, r1
 8000154:	d301      	bcc.n	800015a <__udivsi3+0x52>
 8000156:	038b      	lsls	r3, r1, #14
 8000158:	1ac0      	subs	r0, r0, r3
 800015a:	4152      	adcs	r2, r2
 800015c:	0b43      	lsrs	r3, r0, #13
 800015e:	428b      	cmp	r3, r1
 8000160:	d301      	bcc.n	8000166 <__udivsi3+0x5e>
 8000162:	034b      	lsls	r3, r1, #13
 8000164:	1ac0      	subs	r0, r0, r3
 8000166:	4152      	adcs	r2, r2
 8000168:	0b03      	lsrs	r3, r0, #12
 800016a:	428b      	cmp	r3, r1
 800016c:	d301      	bcc.n	8000172 <__udivsi3+0x6a>
 800016e:	030b      	lsls	r3, r1, #12
 8000170:	1ac0      	subs	r0, r0, r3
 8000172:	4152      	adcs	r2, r2
 8000174:	0ac3      	lsrs	r3, r0, #11
 8000176:	428b      	cmp	r3, r1
 8000178:	d301      	bcc.n	800017e <__udivsi3+0x76>
 800017a:	02cb      	lsls	r3, r1, #11
 800017c:	1ac0      	subs	r0, r0, r3
 800017e:	4152      	adcs	r2, r2
 8000180:	0a83      	lsrs	r3, r0, #10
 8000182:	428b      	cmp	r3, r1
 8000184:	d301      	bcc.n	800018a <__udivsi3+0x82>
 8000186:	028b      	lsls	r3, r1, #10
 8000188:	1ac0      	subs	r0, r0, r3
 800018a:	4152      	adcs	r2, r2
 800018c:	0a43      	lsrs	r3, r0, #9
 800018e:	428b      	cmp	r3, r1
 8000190:	d301      	bcc.n	8000196 <__udivsi3+0x8e>
 8000192:	024b      	lsls	r3, r1, #9
 8000194:	1ac0      	subs	r0, r0, r3
 8000196:	4152      	adcs	r2, r2
 8000198:	0a03      	lsrs	r3, r0, #8
 800019a:	428b      	cmp	r3, r1
 800019c:	d301      	bcc.n	80001a2 <__udivsi3+0x9a>
 800019e:	020b      	lsls	r3, r1, #8
 80001a0:	1ac0      	subs	r0, r0, r3
 80001a2:	4152      	adcs	r2, r2
 80001a4:	d2cd      	bcs.n	8000142 <__udivsi3+0x3a>
 80001a6:	09c3      	lsrs	r3, r0, #7
 80001a8:	428b      	cmp	r3, r1
 80001aa:	d301      	bcc.n	80001b0 <__udivsi3+0xa8>
 80001ac:	01cb      	lsls	r3, r1, #7
 80001ae:	1ac0      	subs	r0, r0, r3
 80001b0:	4152      	adcs	r2, r2
 80001b2:	0983      	lsrs	r3, r0, #6
 80001b4:	428b      	cmp	r3, r1
 80001b6:	d301      	bcc.n	80001bc <__udivsi3+0xb4>
 80001b8:	018b      	lsls	r3, r1, #6
 80001ba:	1ac0      	subs	r0, r0, r3
 80001bc:	4152      	adcs	r2, r2
 80001be:	0943      	lsrs	r3, r0, #5
 80001c0:	428b      	cmp	r3, r1
 80001c2:	d301      	bcc.n	80001c8 <__udivsi3+0xc0>
 80001c4:	014b      	lsls	r3, r1, #5
 80001c6:	1ac0      	subs	r0, r0, r3
 80001c8:	4152      	adcs	r2, r2
 80001ca:	0903      	lsrs	r3, r0, #4
 80001cc:	428b      	cmp	r3, r1
 80001ce:	d301      	bcc.n	80001d4 <__udivsi3+0xcc>
 80001d0:	010b      	lsls	r3, r1, #4
 80001d2:	1ac0      	subs	r0, r0, r3
 80001d4:	4152      	adcs	r2, r2
 80001d6:	08c3      	lsrs	r3, r0, #3
 80001d8:	428b      	cmp	r3, r1
 80001da:	d301      	bcc.n	80001e0 <__udivsi3+0xd8>
 80001dc:	00cb      	lsls	r3, r1, #3
 80001de:	1ac0      	subs	r0, r0, r3
 80001e0:	4152      	adcs	r2, r2
 80001e2:	0883      	lsrs	r3, r0, #2
 80001e4:	428b      	cmp	r3, r1
 80001e6:	d301      	bcc.n	80001ec <__udivsi3+0xe4>
 80001e8:	008b      	lsls	r3, r1, #2
 80001ea:	1ac0      	subs	r0, r0, r3
 80001ec:	4152      	adcs	r2, r2
 80001ee:	0843      	lsrs	r3, r0, #1
 80001f0:	428b      	cmp	r3, r1
 80001f2:	d301      	bcc.n	80001f8 <__udivsi3+0xf0>
 80001f4:	004b      	lsls	r3, r1, #1
 80001f6:	1ac0      	subs	r0, r0, r3
 80001f8:	4152      	adcs	r2, r2
 80001fa:	1a41      	subs	r1, r0, r1
 80001fc:	d200      	bcs.n	8000200 <__udivsi3+0xf8>
 80001fe:	4601      	mov	r1, r0
 8000200:	4152      	adcs	r2, r2
 8000202:	4610      	mov	r0, r2
 8000204:	4770      	bx	lr
 8000206:	e7ff      	b.n	8000208 <__udivsi3+0x100>
 8000208:	b501      	push	{r0, lr}
 800020a:	2000      	movs	r0, #0
 800020c:	f000 f806 	bl	800021c <__aeabi_idiv0>
 8000210:	bd02      	pop	{r1, pc}
 8000212:	46c0      	nop			; (mov r8, r8)

08000214 <__aeabi_uidivmod>:
 8000214:	2900      	cmp	r1, #0
 8000216:	d0f7      	beq.n	8000208 <__udivsi3+0x100>
 8000218:	e776      	b.n	8000108 <__udivsi3>
 800021a:	4770      	bx	lr

0800021c <__aeabi_idiv0>:
 800021c:	4770      	bx	lr
 800021e:	46c0      	nop			; (mov r8, r8)

08000220 <main>:
/**
  * @brief  The application entry point.
  * @retval int
  */
int main(void)
{
 8000220:	b580      	push	{r7, lr}
 8000222:	af00      	add	r7, sp, #0
  /* USER CODE END 1 */

  /* MCU Configuration--------------------------------------------------------*/

  /* Reset of all peripherals, Initializes the Flash interface and the Systick. */
  HAL_Init();
 8000224:	f000 fcac 	bl	8000b80 <HAL_Init>
  /* USER CODE BEGIN Init */

  /* USER CODE END Init */

  /* Configure the system clock */
  SystemClock_Config();
 8000228:	f000 f84c 	bl	80002c4 <SystemClock_Config>
  /* USER CODE BEGIN SysInit */

  /* USER CODE END SysInit */

  /* Initialize all configured peripherals */
  MX_GPIO_Init();
 800022c:	f000 f9cc 	bl	80005c8 <MX_GPIO_Init>
  MX_DMA_Init();
 8000230:	f000 f9a4 	bl	800057c <MX_DMA_Init>
  MX_USART2_UART_Init();
 8000234:	f000 f972 	bl	800051c <MX_USART2_UART_Init>
  MX_ADC_Init();
 8000238:	f000 f894 	bl	8000364 <MX_ADC_Init>
  MX_TIM3_Init();
 800023c:	f000 f8ee 	bl	800041c <MX_TIM3_Init>
  /* USER CODE BEGIN 2 */

  //TO DO:
  //Create variables needed in while loop

  HAL_TIM_PWM_Start(&htim3, TIM_CHANNEL_4); //Start the PWM on TIM3 Channel 4 (Green LED)
 8000240:	4b1a      	ldr	r3, [pc, #104]	; (80002ac <main+0x8c>)
 8000242:	210c      	movs	r1, #12
 8000244:	0018      	movs	r0, r3
 8000246:	f002 f9a3 	bl	8002590 <HAL_TIM_PWM_Start>

  /* Infinite loop */
  /* USER CODE BEGIN WHILE */
  while (1)
  {
	  HAL_GPIO_TogglePin(GPIOC, GPIO_PIN_8); // Toggle blue LED
 800024a:	2380      	movs	r3, #128	; 0x80
 800024c:	005b      	lsls	r3, r3, #1
 800024e:	4a18      	ldr	r2, [pc, #96]	; (80002b0 <main+0x90>)
 8000250:	0019      	movs	r1, r3
 8000252:	0010      	movs	r0, r2
 8000254:	f001 fc46 	bl	8001ae4 <HAL_GPIO_TogglePin>

	  if (HAL_GPIO_ReadPin(GPIOA, GPIO_PIN_11) != GPIO_PIN_RESET) {
 8000258:	2380      	movs	r3, #128	; 0x80
 800025a:	011a      	lsls	r2, r3, #4
 800025c:	2390      	movs	r3, #144	; 0x90
 800025e:	05db      	lsls	r3, r3, #23
 8000260:	0011      	movs	r1, r2
 8000262:	0018      	movs	r0, r3
 8000264:	f001 fc04 	bl	8001a70 <HAL_GPIO_ReadPin>
 8000268:	1e03      	subs	r3, r0, #0
 800026a:	d018      	beq.n	800029e <main+0x7e>
		  if (HAL_GPIO_ReadPin(GPIOA, GPIO_PIN_10) != GPIO_PIN_RESET) {
 800026c:	2380      	movs	r3, #128	; 0x80
 800026e:	00da      	lsls	r2, r3, #3
 8000270:	2390      	movs	r3, #144	; 0x90
 8000272:	05db      	lsls	r3, r3, #23
 8000274:	0011      	movs	r1, r2
 8000276:	0018      	movs	r0, r3
 8000278:	f001 fbfa 	bl	8001a70 <HAL_GPIO_ReadPin>
 800027c:	1e03      	subs	r3, r0, #0
 800027e:	d007      	beq.n	8000290 <main+0x70>
			  HAL_UART_Transmit(&huart2, "1", sizeof("1"), 1000);
 8000280:	23fa      	movs	r3, #250	; 0xfa
 8000282:	009b      	lsls	r3, r3, #2
 8000284:	490b      	ldr	r1, [pc, #44]	; (80002b4 <main+0x94>)
 8000286:	480c      	ldr	r0, [pc, #48]	; (80002b8 <main+0x98>)
 8000288:	2202      	movs	r2, #2
 800028a:	f002 ffbf 	bl	800320c <HAL_UART_Transmit>
 800028e:	e006      	b.n	800029e <main+0x7e>
		  }
		  else {
			  HAL_UART_Transmit(&huart2, "0", sizeof("0"), 1000);
 8000290:	23fa      	movs	r3, #250	; 0xfa
 8000292:	009b      	lsls	r3, r3, #2
 8000294:	4909      	ldr	r1, [pc, #36]	; (80002bc <main+0x9c>)
 8000296:	4808      	ldr	r0, [pc, #32]	; (80002b8 <main+0x98>)
 8000298:	2202      	movs	r2, #2
 800029a:	f002 ffb7 	bl	800320c <HAL_UART_Transmit>
		  }
	  }

	  HAL_Delay (delay); // Toggle the delay interval when the blue push-button is pressed.
 800029e:	4b08      	ldr	r3, [pc, #32]	; (80002c0 <main+0xa0>)
 80002a0:	681b      	ldr	r3, [r3, #0]
 80002a2:	0018      	movs	r0, r3
 80002a4:	f000 fcd0 	bl	8000c48 <HAL_Delay>
	  HAL_GPIO_TogglePin(GPIOC, GPIO_PIN_8); // Toggle blue LED
 80002a8:	e7cf      	b.n	800024a <main+0x2a>
 80002aa:	46c0      	nop			; (mov r8, r8)
 80002ac:	200000b4 	.word	0x200000b4
 80002b0:	48000800 	.word	0x48000800
 80002b4:	08004110 	.word	0x08004110
 80002b8:	200000fc 	.word	0x200000fc
 80002bc:	08004114 	.word	0x08004114
 80002c0:	20000004 	.word	0x20000004

080002c4 <SystemClock_Config>:
/**
  * @brief System Clock Configuration
  * @retval None
  */
void SystemClock_Config(void)
{
 80002c4:	b590      	push	{r4, r7, lr}
 80002c6:	b091      	sub	sp, #68	; 0x44
 80002c8:	af00      	add	r7, sp, #0
  RCC_OscInitTypeDef RCC_OscInitStruct = {0};
 80002ca:	2410      	movs	r4, #16
 80002cc:	193b      	adds	r3, r7, r4
 80002ce:	0018      	movs	r0, r3
 80002d0:	2330      	movs	r3, #48	; 0x30
 80002d2:	001a      	movs	r2, r3
 80002d4:	2100      	movs	r1, #0
 80002d6:	f003 ff07 	bl	80040e8 <memset>
  RCC_ClkInitTypeDef RCC_ClkInitStruct = {0};
 80002da:	003b      	movs	r3, r7
 80002dc:	0018      	movs	r0, r3
 80002de:	2310      	movs	r3, #16
 80002e0:	001a      	movs	r2, r3
 80002e2:	2100      	movs	r1, #0
 80002e4:	f003 ff00 	bl	80040e8 <memset>

  /** Initializes the RCC Oscillators according to the specified parameters
  * in the RCC_OscInitTypeDef structure.
  */
  RCC_OscInitStruct.OscillatorType = RCC_OSCILLATORTYPE_HSI|RCC_OSCILLATORTYPE_HSI14;
 80002e8:	0021      	movs	r1, r4
 80002ea:	187b      	adds	r3, r7, r1
 80002ec:	2212      	movs	r2, #18
 80002ee:	601a      	str	r2, [r3, #0]
  RCC_OscInitStruct.HSIState = RCC_HSI_ON;
 80002f0:	187b      	adds	r3, r7, r1
 80002f2:	2201      	movs	r2, #1
 80002f4:	60da      	str	r2, [r3, #12]
  RCC_OscInitStruct.HSI14State = RCC_HSI14_ON;
 80002f6:	187b      	adds	r3, r7, r1
 80002f8:	2201      	movs	r2, #1
 80002fa:	615a      	str	r2, [r3, #20]
  RCC_OscInitStruct.HSICalibrationValue = RCC_HSICALIBRATION_DEFAULT;
 80002fc:	187b      	adds	r3, r7, r1
 80002fe:	2210      	movs	r2, #16
 8000300:	611a      	str	r2, [r3, #16]
  RCC_OscInitStruct.HSI14CalibrationValue = 16;
 8000302:	187b      	adds	r3, r7, r1
 8000304:	2210      	movs	r2, #16
 8000306:	619a      	str	r2, [r3, #24]
  RCC_OscInitStruct.PLL.PLLState = RCC_PLL_ON;
 8000308:	187b      	adds	r3, r7, r1
 800030a:	2202      	movs	r2, #2
 800030c:	621a      	str	r2, [r3, #32]
  RCC_OscInitStruct.PLL.PLLSource = RCC_PLLSOURCE_HSI;
 800030e:	187b      	adds	r3, r7, r1
 8000310:	2200      	movs	r2, #0
 8000312:	625a      	str	r2, [r3, #36]	; 0x24
  RCC_OscInitStruct.PLL.PLLMUL = RCC_PLL_MUL12;
 8000314:	187b      	adds	r3, r7, r1
 8000316:	22a0      	movs	r2, #160	; 0xa0
 8000318:	0392      	lsls	r2, r2, #14
 800031a:	629a      	str	r2, [r3, #40]	; 0x28
  RCC_OscInitStruct.PLL.PREDIV = RCC_PREDIV_DIV1;
 800031c:	187b      	adds	r3, r7, r1
 800031e:	2200      	movs	r2, #0
 8000320:	62da      	str	r2, [r3, #44]	; 0x2c
  if (HAL_RCC_OscConfig(&RCC_OscInitStruct) != HAL_OK)
 8000322:	187b      	adds	r3, r7, r1
 8000324:	0018      	movs	r0, r3
 8000326:	f001 fc1f 	bl	8001b68 <HAL_RCC_OscConfig>
 800032a:	1e03      	subs	r3, r0, #0
 800032c:	d001      	beq.n	8000332 <SystemClock_Config+0x6e>
  {
    Error_Handler();
 800032e:	f000 fa2f 	bl	8000790 <Error_Handler>
  }

  /** Initializes the CPU, AHB and APB buses clocks
  */
  RCC_ClkInitStruct.ClockType = RCC_CLOCKTYPE_HCLK|RCC_CLOCKTYPE_SYSCLK
 8000332:	003b      	movs	r3, r7
 8000334:	2207      	movs	r2, #7
 8000336:	601a      	str	r2, [r3, #0]
                              |RCC_CLOCKTYPE_PCLK1;
  RCC_ClkInitStruct.SYSCLKSource = RCC_SYSCLKSOURCE_PLLCLK;
 8000338:	003b      	movs	r3, r7
 800033a:	2202      	movs	r2, #2
 800033c:	605a      	str	r2, [r3, #4]
  RCC_ClkInitStruct.AHBCLKDivider = RCC_SYSCLK_DIV1;
 800033e:	003b      	movs	r3, r7
 8000340:	2200      	movs	r2, #0
 8000342:	609a      	str	r2, [r3, #8]
  RCC_ClkInitStruct.APB1CLKDivider = RCC_HCLK_DIV1;
 8000344:	003b      	movs	r3, r7
 8000346:	2200      	movs	r2, #0
 8000348:	60da      	str	r2, [r3, #12]

  if (HAL_RCC_ClockConfig(&RCC_ClkInitStruct, FLASH_LATENCY_1) != HAL_OK)
 800034a:	003b      	movs	r3, r7
 800034c:	2101      	movs	r1, #1
 800034e:	0018      	movs	r0, r3
 8000350:	f001 ff24 	bl	800219c <HAL_RCC_ClockConfig>
 8000354:	1e03      	subs	r3, r0, #0
 8000356:	d001      	beq.n	800035c <SystemClock_Config+0x98>
  {
    Error_Handler();
 8000358:	f000 fa1a 	bl	8000790 <Error_Handler>
  }
}
 800035c:	46c0      	nop			; (mov r8, r8)
 800035e:	46bd      	mov	sp, r7
 8000360:	b011      	add	sp, #68	; 0x44
 8000362:	bd90      	pop	{r4, r7, pc}

08000364 <MX_ADC_Init>:
  * @brief ADC Initialization Function
  * @param None
  * @retval None
  */
static void MX_ADC_Init(void)
{
 8000364:	b580      	push	{r7, lr}
 8000366:	b084      	sub	sp, #16
 8000368:	af00      	add	r7, sp, #0

  /* USER CODE BEGIN ADC_Init 0 */

  /* USER CODE END ADC_Init 0 */

  ADC_ChannelConfTypeDef sConfig = {0};
 800036a:	1d3b      	adds	r3, r7, #4
 800036c:	0018      	movs	r0, r3
 800036e:	230c      	movs	r3, #12
 8000370:	001a      	movs	r2, r3
 8000372:	2100      	movs	r1, #0
 8000374:	f003 feb8 	bl	80040e8 <memset>

  /* USER CODE END ADC_Init 1 */

  /** Configure the global features of the ADC (Clock, Resolution, Data Alignment and number of conversion)
  */
  hadc.Instance = ADC1;
 8000378:	4b26      	ldr	r3, [pc, #152]	; (8000414 <MX_ADC_Init+0xb0>)
 800037a:	4a27      	ldr	r2, [pc, #156]	; (8000418 <MX_ADC_Init+0xb4>)
 800037c:	601a      	str	r2, [r3, #0]
  hadc.Init.ClockPrescaler = ADC_CLOCK_ASYNC_DIV1;
 800037e:	4b25      	ldr	r3, [pc, #148]	; (8000414 <MX_ADC_Init+0xb0>)
 8000380:	2200      	movs	r2, #0
 8000382:	605a      	str	r2, [r3, #4]
  hadc.Init.Resolution = ADC_RESOLUTION_12B;
 8000384:	4b23      	ldr	r3, [pc, #140]	; (8000414 <MX_ADC_Init+0xb0>)
 8000386:	2200      	movs	r2, #0
 8000388:	609a      	str	r2, [r3, #8]
  hadc.Init.DataAlign = ADC_DATAALIGN_RIGHT;
 800038a:	4b22      	ldr	r3, [pc, #136]	; (8000414 <MX_ADC_Init+0xb0>)
 800038c:	2200      	movs	r2, #0
 800038e:	60da      	str	r2, [r3, #12]
  hadc.Init.ScanConvMode = ADC_SCAN_DIRECTION_FORWARD;
 8000390:	4b20      	ldr	r3, [pc, #128]	; (8000414 <MX_ADC_Init+0xb0>)
 8000392:	2201      	movs	r2, #1
 8000394:	611a      	str	r2, [r3, #16]
  hadc.Init.EOCSelection = ADC_EOC_SINGLE_CONV;
 8000396:	4b1f      	ldr	r3, [pc, #124]	; (8000414 <MX_ADC_Init+0xb0>)
 8000398:	2204      	movs	r2, #4
 800039a:	615a      	str	r2, [r3, #20]
  hadc.Init.LowPowerAutoWait = DISABLE;
 800039c:	4b1d      	ldr	r3, [pc, #116]	; (8000414 <MX_ADC_Init+0xb0>)
 800039e:	2200      	movs	r2, #0
 80003a0:	761a      	strb	r2, [r3, #24]
  hadc.Init.LowPowerAutoPowerOff = DISABLE;
 80003a2:	4b1c      	ldr	r3, [pc, #112]	; (8000414 <MX_ADC_Init+0xb0>)
 80003a4:	2200      	movs	r2, #0
 80003a6:	765a      	strb	r2, [r3, #25]
  hadc.Init.ContinuousConvMode = DISABLE;
 80003a8:	4b1a      	ldr	r3, [pc, #104]	; (8000414 <MX_ADC_Init+0xb0>)
 80003aa:	2200      	movs	r2, #0
 80003ac:	769a      	strb	r2, [r3, #26]
  hadc.Init.DiscontinuousConvMode = DISABLE;
 80003ae:	4b19      	ldr	r3, [pc, #100]	; (8000414 <MX_ADC_Init+0xb0>)
 80003b0:	2200      	movs	r2, #0
 80003b2:	76da      	strb	r2, [r3, #27]
  hadc.Init.ExternalTrigConv = ADC_SOFTWARE_START;
 80003b4:	4b17      	ldr	r3, [pc, #92]	; (8000414 <MX_ADC_Init+0xb0>)
 80003b6:	22c2      	movs	r2, #194	; 0xc2
 80003b8:	32ff      	adds	r2, #255	; 0xff
 80003ba:	61da      	str	r2, [r3, #28]
  hadc.Init.ExternalTrigConvEdge = ADC_EXTERNALTRIGCONVEDGE_NONE;
 80003bc:	4b15      	ldr	r3, [pc, #84]	; (8000414 <MX_ADC_Init+0xb0>)
 80003be:	2200      	movs	r2, #0
 80003c0:	621a      	str	r2, [r3, #32]
  hadc.Init.DMAContinuousRequests = DISABLE;
 80003c2:	4b14      	ldr	r3, [pc, #80]	; (8000414 <MX_ADC_Init+0xb0>)
 80003c4:	2224      	movs	r2, #36	; 0x24
 80003c6:	2100      	movs	r1, #0
 80003c8:	5499      	strb	r1, [r3, r2]
  hadc.Init.Overrun = ADC_OVR_DATA_PRESERVED;
 80003ca:	4b12      	ldr	r3, [pc, #72]	; (8000414 <MX_ADC_Init+0xb0>)
 80003cc:	2201      	movs	r2, #1
 80003ce:	629a      	str	r2, [r3, #40]	; 0x28
  if (HAL_ADC_Init(&hadc) != HAL_OK)
 80003d0:	4b10      	ldr	r3, [pc, #64]	; (8000414 <MX_ADC_Init+0xb0>)
 80003d2:	0018      	movs	r0, r3
 80003d4:	f000 fc5c 	bl	8000c90 <HAL_ADC_Init>
 80003d8:	1e03      	subs	r3, r0, #0
 80003da:	d001      	beq.n	80003e0 <MX_ADC_Init+0x7c>
  {
    Error_Handler();
 80003dc:	f000 f9d8 	bl	8000790 <Error_Handler>
  }

  /** Configure for the selected ADC regular channel to be converted.
  */
  sConfig.Channel = ADC_CHANNEL_7;
 80003e0:	1d3b      	adds	r3, r7, #4
 80003e2:	2207      	movs	r2, #7
 80003e4:	601a      	str	r2, [r3, #0]
  sConfig.Rank = ADC_RANK_CHANNEL_NUMBER;
 80003e6:	1d3b      	adds	r3, r7, #4
 80003e8:	2280      	movs	r2, #128	; 0x80
 80003ea:	0152      	lsls	r2, r2, #5
 80003ec:	605a      	str	r2, [r3, #4]
  sConfig.SamplingTime = ADC_SAMPLETIME_1CYCLE_5;
 80003ee:	1d3b      	adds	r3, r7, #4
 80003f0:	2280      	movs	r2, #128	; 0x80
 80003f2:	0552      	lsls	r2, r2, #21
 80003f4:	609a      	str	r2, [r3, #8]
  if (HAL_ADC_ConfigChannel(&hadc, &sConfig) != HAL_OK)
 80003f6:	1d3a      	adds	r2, r7, #4
 80003f8:	4b06      	ldr	r3, [pc, #24]	; (8000414 <MX_ADC_Init+0xb0>)
 80003fa:	0011      	movs	r1, r2
 80003fc:	0018      	movs	r0, r3
 80003fe:	f000 fe57 	bl	80010b0 <HAL_ADC_ConfigChannel>
 8000402:	1e03      	subs	r3, r0, #0
 8000404:	d001      	beq.n	800040a <MX_ADC_Init+0xa6>
  {
    Error_Handler();
 8000406:	f000 f9c3 	bl	8000790 <Error_Handler>
  }
  /* USER CODE BEGIN ADC_Init 2 */

  /* USER CODE END ADC_Init 2 */

}
 800040a:	46c0      	nop			; (mov r8, r8)
 800040c:	46bd      	mov	sp, r7
 800040e:	b004      	add	sp, #16
 8000410:	bd80      	pop	{r7, pc}
 8000412:	46c0      	nop			; (mov r8, r8)
 8000414:	20000030 	.word	0x20000030
 8000418:	40012400 	.word	0x40012400

0800041c <MX_TIM3_Init>:
  * @brief TIM3 Initialization Function
  * @param None
  * @retval None
  */
static void MX_TIM3_Init(void)
{
 800041c:	b580      	push	{r7, lr}
 800041e:	b08e      	sub	sp, #56	; 0x38
 8000420:	af00      	add	r7, sp, #0

  /* USER CODE BEGIN TIM3_Init 0 */

  /* USER CODE END TIM3_Init 0 */

  TIM_ClockConfigTypeDef sClockSourceConfig = {0};
 8000422:	2328      	movs	r3, #40	; 0x28
 8000424:	18fb      	adds	r3, r7, r3
 8000426:	0018      	movs	r0, r3
 8000428:	2310      	movs	r3, #16
 800042a:	001a      	movs	r2, r3
 800042c:	2100      	movs	r1, #0
 800042e:	f003 fe5b 	bl	80040e8 <memset>
  TIM_MasterConfigTypeDef sMasterConfig = {0};
 8000432:	2320      	movs	r3, #32
 8000434:	18fb      	adds	r3, r7, r3
 8000436:	0018      	movs	r0, r3
 8000438:	2308      	movs	r3, #8
 800043a:	001a      	movs	r2, r3
 800043c:	2100      	movs	r1, #0
 800043e:	f003 fe53 	bl	80040e8 <memset>
  TIM_OC_InitTypeDef sConfigOC = {0};
 8000442:	1d3b      	adds	r3, r7, #4
 8000444:	0018      	movs	r0, r3
 8000446:	231c      	movs	r3, #28
 8000448:	001a      	movs	r2, r3
 800044a:	2100      	movs	r1, #0
 800044c:	f003 fe4c 	bl	80040e8 <memset>

  /* USER CODE BEGIN TIM3_Init 1 */

  /* USER CODE END TIM3_Init 1 */
  htim3.Instance = TIM3;
 8000450:	4b2f      	ldr	r3, [pc, #188]	; (8000510 <MX_TIM3_Init+0xf4>)
 8000452:	4a30      	ldr	r2, [pc, #192]	; (8000514 <MX_TIM3_Init+0xf8>)
 8000454:	601a      	str	r2, [r3, #0]
  htim3.Init.Prescaler = 0;
 8000456:	4b2e      	ldr	r3, [pc, #184]	; (8000510 <MX_TIM3_Init+0xf4>)
 8000458:	2200      	movs	r2, #0
 800045a:	605a      	str	r2, [r3, #4]
  htim3.Init.CounterMode = TIM_COUNTERMODE_UP;
 800045c:	4b2c      	ldr	r3, [pc, #176]	; (8000510 <MX_TIM3_Init+0xf4>)
 800045e:	2200      	movs	r2, #0
 8000460:	609a      	str	r2, [r3, #8]
  htim3.Init.Period = 47999;
 8000462:	4b2b      	ldr	r3, [pc, #172]	; (8000510 <MX_TIM3_Init+0xf4>)
 8000464:	4a2c      	ldr	r2, [pc, #176]	; (8000518 <MX_TIM3_Init+0xfc>)
 8000466:	60da      	str	r2, [r3, #12]
  htim3.Init.ClockDivision = TIM_CLOCKDIVISION_DIV1;
 8000468:	4b29      	ldr	r3, [pc, #164]	; (8000510 <MX_TIM3_Init+0xf4>)
 800046a:	2200      	movs	r2, #0
 800046c:	611a      	str	r2, [r3, #16]
  htim3.Init.AutoReloadPreload = TIM_AUTORELOAD_PRELOAD_ENABLE;
 800046e:	4b28      	ldr	r3, [pc, #160]	; (8000510 <MX_TIM3_Init+0xf4>)
 8000470:	2280      	movs	r2, #128	; 0x80
 8000472:	619a      	str	r2, [r3, #24]
  if (HAL_TIM_Base_Init(&htim3) != HAL_OK)
 8000474:	4b26      	ldr	r3, [pc, #152]	; (8000510 <MX_TIM3_Init+0xf4>)
 8000476:	0018      	movs	r0, r3
 8000478:	f001 ffe2 	bl	8002440 <HAL_TIM_Base_Init>
 800047c:	1e03      	subs	r3, r0, #0
 800047e:	d001      	beq.n	8000484 <MX_TIM3_Init+0x68>
  {
    Error_Handler();
 8000480:	f000 f986 	bl	8000790 <Error_Handler>
  }
  sClockSourceConfig.ClockSource = TIM_CLOCKSOURCE_INTERNAL;
 8000484:	2128      	movs	r1, #40	; 0x28
 8000486:	187b      	adds	r3, r7, r1
 8000488:	2280      	movs	r2, #128	; 0x80
 800048a:	0152      	lsls	r2, r2, #5
 800048c:	601a      	str	r2, [r3, #0]
  if (HAL_TIM_ConfigClockSource(&htim3, &sClockSourceConfig) != HAL_OK)
 800048e:	187a      	adds	r2, r7, r1
 8000490:	4b1f      	ldr	r3, [pc, #124]	; (8000510 <MX_TIM3_Init+0xf4>)
 8000492:	0011      	movs	r1, r2
 8000494:	0018      	movs	r0, r3
 8000496:	f002 f9f9 	bl	800288c <HAL_TIM_ConfigClockSource>
 800049a:	1e03      	subs	r3, r0, #0
 800049c:	d001      	beq.n	80004a2 <MX_TIM3_Init+0x86>
  {
    Error_Handler();
 800049e:	f000 f977 	bl	8000790 <Error_Handler>
  }
  if (HAL_TIM_PWM_Init(&htim3) != HAL_OK)
 80004a2:	4b1b      	ldr	r3, [pc, #108]	; (8000510 <MX_TIM3_Init+0xf4>)
 80004a4:	0018      	movs	r0, r3
 80004a6:	f002 f81b 	bl	80024e0 <HAL_TIM_PWM_Init>
 80004aa:	1e03      	subs	r3, r0, #0
 80004ac:	d001      	beq.n	80004b2 <MX_TIM3_Init+0x96>
  {
    Error_Handler();
 80004ae:	f000 f96f 	bl	8000790 <Error_Handler>
  }
  sMasterConfig.MasterOutputTrigger = TIM_TRGO_RESET;
 80004b2:	2120      	movs	r1, #32
 80004b4:	187b      	adds	r3, r7, r1
 80004b6:	2200      	movs	r2, #0
 80004b8:	601a      	str	r2, [r3, #0]
  sMasterConfig.MasterSlaveMode = TIM_MASTERSLAVEMODE_DISABLE;
 80004ba:	187b      	adds	r3, r7, r1
 80004bc:	2200      	movs	r2, #0
 80004be:	605a      	str	r2, [r3, #4]
  if (HAL_TIMEx_MasterConfigSynchronization(&htim3, &sMasterConfig) != HAL_OK)
 80004c0:	187a      	adds	r2, r7, r1
 80004c2:	4b13      	ldr	r3, [pc, #76]	; (8000510 <MX_TIM3_Init+0xf4>)
 80004c4:	0011      	movs	r1, r2
 80004c6:	0018      	movs	r0, r3
 80004c8:	f002 fdee 	bl	80030a8 <HAL_TIMEx_MasterConfigSynchronization>
 80004cc:	1e03      	subs	r3, r0, #0
 80004ce:	d001      	beq.n	80004d4 <MX_TIM3_Init+0xb8>
  {
    Error_Handler();
 80004d0:	f000 f95e 	bl	8000790 <Error_Handler>
  }
  sConfigOC.OCMode = TIM_OCMODE_PWM1;
 80004d4:	1d3b      	adds	r3, r7, #4
 80004d6:	2260      	movs	r2, #96	; 0x60
 80004d8:	601a      	str	r2, [r3, #0]
  sConfigOC.Pulse = 0;
 80004da:	1d3b      	adds	r3, r7, #4
 80004dc:	2200      	movs	r2, #0
 80004de:	605a      	str	r2, [r3, #4]
  sConfigOC.OCPolarity = TIM_OCPOLARITY_HIGH;
 80004e0:	1d3b      	adds	r3, r7, #4
 80004e2:	2200      	movs	r2, #0
 80004e4:	609a      	str	r2, [r3, #8]
  sConfigOC.OCFastMode = TIM_OCFAST_DISABLE;
 80004e6:	1d3b      	adds	r3, r7, #4
 80004e8:	2200      	movs	r2, #0
 80004ea:	611a      	str	r2, [r3, #16]
  if (HAL_TIM_PWM_ConfigChannel(&htim3, &sConfigOC, TIM_CHANNEL_4) != HAL_OK)
 80004ec:	1d39      	adds	r1, r7, #4
 80004ee:	4b08      	ldr	r3, [pc, #32]	; (8000510 <MX_TIM3_Init+0xf4>)
 80004f0:	220c      	movs	r2, #12
 80004f2:	0018      	movs	r0, r3
 80004f4:	f002 f904 	bl	8002700 <HAL_TIM_PWM_ConfigChannel>
 80004f8:	1e03      	subs	r3, r0, #0
 80004fa:	d001      	beq.n	8000500 <MX_TIM3_Init+0xe4>
  {
    Error_Handler();
 80004fc:	f000 f948 	bl	8000790 <Error_Handler>
  }
  /* USER CODE BEGIN TIM3_Init 2 */

  /* USER CODE END TIM3_Init 2 */
  HAL_TIM_MspPostInit(&htim3);
 8000500:	4b03      	ldr	r3, [pc, #12]	; (8000510 <MX_TIM3_Init+0xf4>)
 8000502:	0018      	movs	r0, r3
 8000504:	f000 fa06 	bl	8000914 <HAL_TIM_MspPostInit>

}
 8000508:	46c0      	nop			; (mov r8, r8)
 800050a:	46bd      	mov	sp, r7
 800050c:	b00e      	add	sp, #56	; 0x38
 800050e:	bd80      	pop	{r7, pc}
 8000510:	200000b4 	.word	0x200000b4
 8000514:	40000400 	.word	0x40000400
 8000518:	0000bb7f 	.word	0x0000bb7f

0800051c <MX_USART2_UART_Init>:
  * @brief USART2 Initialization Function
  * @param None
  * @retval None
  */
static void MX_USART2_UART_Init(void)
{
 800051c:	b580      	push	{r7, lr}
 800051e:	af00      	add	r7, sp, #0
  /* USER CODE END USART2_Init 0 */

  /* USER CODE BEGIN USART2_Init 1 */

  /* USER CODE END USART2_Init 1 */
  huart2.Instance = USART2;
 8000520:	4b14      	ldr	r3, [pc, #80]	; (8000574 <MX_USART2_UART_Init+0x58>)
 8000522:	4a15      	ldr	r2, [pc, #84]	; (8000578 <MX_USART2_UART_Init+0x5c>)
 8000524:	601a      	str	r2, [r3, #0]
  huart2.Init.BaudRate = 9600;
 8000526:	4b13      	ldr	r3, [pc, #76]	; (8000574 <MX_USART2_UART_Init+0x58>)
 8000528:	2296      	movs	r2, #150	; 0x96
 800052a:	0192      	lsls	r2, r2, #6
 800052c:	605a      	str	r2, [r3, #4]
  huart2.Init.WordLength = UART_WORDLENGTH_8B;
 800052e:	4b11      	ldr	r3, [pc, #68]	; (8000574 <MX_USART2_UART_Init+0x58>)
 8000530:	2200      	movs	r2, #0
 8000532:	609a      	str	r2, [r3, #8]
  huart2.Init.StopBits = UART_STOPBITS_1;
 8000534:	4b0f      	ldr	r3, [pc, #60]	; (8000574 <MX_USART2_UART_Init+0x58>)
 8000536:	2200      	movs	r2, #0
 8000538:	60da      	str	r2, [r3, #12]
  huart2.Init.Parity = UART_PARITY_NONE;
 800053a:	4b0e      	ldr	r3, [pc, #56]	; (8000574 <MX_USART2_UART_Init+0x58>)
 800053c:	2200      	movs	r2, #0
 800053e:	611a      	str	r2, [r3, #16]
  huart2.Init.Mode = UART_MODE_TX_RX;
 8000540:	4b0c      	ldr	r3, [pc, #48]	; (8000574 <MX_USART2_UART_Init+0x58>)
 8000542:	220c      	movs	r2, #12
 8000544:	615a      	str	r2, [r3, #20]
  huart2.Init.HwFlowCtl = UART_HWCONTROL_NONE;
 8000546:	4b0b      	ldr	r3, [pc, #44]	; (8000574 <MX_USART2_UART_Init+0x58>)
 8000548:	2200      	movs	r2, #0
 800054a:	619a      	str	r2, [r3, #24]
  huart2.Init.OverSampling = UART_OVERSAMPLING_16;
 800054c:	4b09      	ldr	r3, [pc, #36]	; (8000574 <MX_USART2_UART_Init+0x58>)
 800054e:	2200      	movs	r2, #0
 8000550:	61da      	str	r2, [r3, #28]
  huart2.Init.OneBitSampling = UART_ONE_BIT_SAMPLE_DISABLE;
 8000552:	4b08      	ldr	r3, [pc, #32]	; (8000574 <MX_USART2_UART_Init+0x58>)
 8000554:	2200      	movs	r2, #0
 8000556:	621a      	str	r2, [r3, #32]
  huart2.AdvancedInit.AdvFeatureInit = UART_ADVFEATURE_NO_INIT;
 8000558:	4b06      	ldr	r3, [pc, #24]	; (8000574 <MX_USART2_UART_Init+0x58>)
 800055a:	2200      	movs	r2, #0
 800055c:	625a      	str	r2, [r3, #36]	; 0x24
  if (HAL_UART_Init(&huart2) != HAL_OK)
 800055e:	4b05      	ldr	r3, [pc, #20]	; (8000574 <MX_USART2_UART_Init+0x58>)
 8000560:	0018      	movs	r0, r3
 8000562:	f002 fdff 	bl	8003164 <HAL_UART_Init>
 8000566:	1e03      	subs	r3, r0, #0
 8000568:	d001      	beq.n	800056e <MX_USART2_UART_Init+0x52>
  {
    Error_Handler();
 800056a:	f000 f911 	bl	8000790 <Error_Handler>
  }
  /* USER CODE BEGIN USART2_Init 2 */

  /* USER CODE END USART2_Init 2 */

}
 800056e:	46c0      	nop			; (mov r8, r8)
 8000570:	46bd      	mov	sp, r7
 8000572:	bd80      	pop	{r7, pc}
 8000574:	200000fc 	.word	0x200000fc
 8000578:	40004400 	.word	0x40004400

0800057c <MX_DMA_Init>:

/**
  * Enable DMA controller clock
  */
static void MX_DMA_Init(void)
{
 800057c:	b580      	push	{r7, lr}
 800057e:	b082      	sub	sp, #8
 8000580:	af00      	add	r7, sp, #0

  /* DMA controller clock enable */
  __HAL_RCC_DMA1_CLK_ENABLE();
 8000582:	4b10      	ldr	r3, [pc, #64]	; (80005c4 <MX_DMA_Init+0x48>)
 8000584:	695a      	ldr	r2, [r3, #20]
 8000586:	4b0f      	ldr	r3, [pc, #60]	; (80005c4 <MX_DMA_Init+0x48>)
 8000588:	2101      	movs	r1, #1
 800058a:	430a      	orrs	r2, r1
 800058c:	615a      	str	r2, [r3, #20]
 800058e:	4b0d      	ldr	r3, [pc, #52]	; (80005c4 <MX_DMA_Init+0x48>)
 8000590:	695b      	ldr	r3, [r3, #20]
 8000592:	2201      	movs	r2, #1
 8000594:	4013      	ands	r3, r2
 8000596:	607b      	str	r3, [r7, #4]
 8000598:	687b      	ldr	r3, [r7, #4]

  /* DMA interrupt init */
  /* DMA1_Channel1_IRQn interrupt configuration */
  HAL_NVIC_SetPriority(DMA1_Channel1_IRQn, 0, 0);
 800059a:	2200      	movs	r2, #0
 800059c:	2100      	movs	r1, #0
 800059e:	2009      	movs	r0, #9
 80005a0:	f000 ff40 	bl	8001424 <HAL_NVIC_SetPriority>
  HAL_NVIC_EnableIRQ(DMA1_Channel1_IRQn);
 80005a4:	2009      	movs	r0, #9
 80005a6:	f000 ff52 	bl	800144e <HAL_NVIC_EnableIRQ>
  /* DMA1_Channel4_5_IRQn interrupt configuration */
  HAL_NVIC_SetPriority(DMA1_Channel4_5_IRQn, 0, 0);
 80005aa:	2200      	movs	r2, #0
 80005ac:	2100      	movs	r1, #0
 80005ae:	200b      	movs	r0, #11
 80005b0:	f000 ff38 	bl	8001424 <HAL_NVIC_SetPriority>
  HAL_NVIC_EnableIRQ(DMA1_Channel4_5_IRQn);
 80005b4:	200b      	movs	r0, #11
 80005b6:	f000 ff4a 	bl	800144e <HAL_NVIC_EnableIRQ>

}
 80005ba:	46c0      	nop			; (mov r8, r8)
 80005bc:	46bd      	mov	sp, r7
 80005be:	b002      	add	sp, #8
 80005c0:	bd80      	pop	{r7, pc}
 80005c2:	46c0      	nop			; (mov r8, r8)
 80005c4:	40021000 	.word	0x40021000

080005c8 <MX_GPIO_Init>:
  * @brief GPIO Initialization Function
  * @param None
  * @retval None
  */
static void MX_GPIO_Init(void)
{
 80005c8:	b590      	push	{r4, r7, lr}
 80005ca:	b08b      	sub	sp, #44	; 0x2c
 80005cc:	af00      	add	r7, sp, #0
  GPIO_InitTypeDef GPIO_InitStruct = {0};
 80005ce:	2414      	movs	r4, #20
 80005d0:	193b      	adds	r3, r7, r4
 80005d2:	0018      	movs	r0, r3
 80005d4:	2314      	movs	r3, #20
 80005d6:	001a      	movs	r2, r3
 80005d8:	2100      	movs	r1, #0
 80005da:	f003 fd85 	bl	80040e8 <memset>

  /* GPIO Ports Clock Enable */
  __HAL_RCC_GPIOF_CLK_ENABLE();
 80005de:	4b54      	ldr	r3, [pc, #336]	; (8000730 <MX_GPIO_Init+0x168>)
 80005e0:	695a      	ldr	r2, [r3, #20]
 80005e2:	4b53      	ldr	r3, [pc, #332]	; (8000730 <MX_GPIO_Init+0x168>)
 80005e4:	2180      	movs	r1, #128	; 0x80
 80005e6:	03c9      	lsls	r1, r1, #15
 80005e8:	430a      	orrs	r2, r1
 80005ea:	615a      	str	r2, [r3, #20]
 80005ec:	4b50      	ldr	r3, [pc, #320]	; (8000730 <MX_GPIO_Init+0x168>)
 80005ee:	695a      	ldr	r2, [r3, #20]
 80005f0:	2380      	movs	r3, #128	; 0x80
 80005f2:	03db      	lsls	r3, r3, #15
 80005f4:	4013      	ands	r3, r2
 80005f6:	613b      	str	r3, [r7, #16]
 80005f8:	693b      	ldr	r3, [r7, #16]
  __HAL_RCC_GPIOA_CLK_ENABLE();
 80005fa:	4b4d      	ldr	r3, [pc, #308]	; (8000730 <MX_GPIO_Init+0x168>)
 80005fc:	695a      	ldr	r2, [r3, #20]
 80005fe:	4b4c      	ldr	r3, [pc, #304]	; (8000730 <MX_GPIO_Init+0x168>)
 8000600:	2180      	movs	r1, #128	; 0x80
 8000602:	0289      	lsls	r1, r1, #10
 8000604:	430a      	orrs	r2, r1
 8000606:	615a      	str	r2, [r3, #20]
 8000608:	4b49      	ldr	r3, [pc, #292]	; (8000730 <MX_GPIO_Init+0x168>)
 800060a:	695a      	ldr	r2, [r3, #20]
 800060c:	2380      	movs	r3, #128	; 0x80
 800060e:	029b      	lsls	r3, r3, #10
 8000610:	4013      	ands	r3, r2
 8000612:	60fb      	str	r3, [r7, #12]
 8000614:	68fb      	ldr	r3, [r7, #12]
  __HAL_RCC_GPIOC_CLK_ENABLE();
 8000616:	4b46      	ldr	r3, [pc, #280]	; (8000730 <MX_GPIO_Init+0x168>)
 8000618:	695a      	ldr	r2, [r3, #20]
 800061a:	4b45      	ldr	r3, [pc, #276]	; (8000730 <MX_GPIO_Init+0x168>)
 800061c:	2180      	movs	r1, #128	; 0x80
 800061e:	0309      	lsls	r1, r1, #12
 8000620:	430a      	orrs	r2, r1
 8000622:	615a      	str	r2, [r3, #20]
 8000624:	4b42      	ldr	r3, [pc, #264]	; (8000730 <MX_GPIO_Init+0x168>)
 8000626:	695a      	ldr	r2, [r3, #20]
 8000628:	2380      	movs	r3, #128	; 0x80
 800062a:	031b      	lsls	r3, r3, #12
 800062c:	4013      	ands	r3, r2
 800062e:	60bb      	str	r3, [r7, #8]
 8000630:	68bb      	ldr	r3, [r7, #8]
  __HAL_RCC_GPIOB_CLK_ENABLE();
 8000632:	4b3f      	ldr	r3, [pc, #252]	; (8000730 <MX_GPIO_Init+0x168>)
 8000634:	695a      	ldr	r2, [r3, #20]
 8000636:	4b3e      	ldr	r3, [pc, #248]	; (8000730 <MX_GPIO_Init+0x168>)
 8000638:	2180      	movs	r1, #128	; 0x80
 800063a:	02c9      	lsls	r1, r1, #11
 800063c:	430a      	orrs	r2, r1
 800063e:	615a      	str	r2, [r3, #20]
 8000640:	4b3b      	ldr	r3, [pc, #236]	; (8000730 <MX_GPIO_Init+0x168>)
 8000642:	695a      	ldr	r2, [r3, #20]
 8000644:	2380      	movs	r3, #128	; 0x80
 8000646:	02db      	lsls	r3, r3, #11
 8000648:	4013      	ands	r3, r2
 800064a:	607b      	str	r3, [r7, #4]
 800064c:	687b      	ldr	r3, [r7, #4]

  /*Configure GPIO pin Output Level */
  HAL_GPIO_WritePin(LD4_GPIO_Port, LD4_Pin, GPIO_PIN_RESET);
 800064e:	2380      	movs	r3, #128	; 0x80
 8000650:	005b      	lsls	r3, r3, #1
 8000652:	4838      	ldr	r0, [pc, #224]	; (8000734 <MX_GPIO_Init+0x16c>)
 8000654:	2200      	movs	r2, #0
 8000656:	0019      	movs	r1, r3
 8000658:	f001 fa27 	bl	8001aaa <HAL_GPIO_WritePin>

  /*Configure GPIO pin : B1_Pin */
  GPIO_InitStruct.Pin = B1_Pin;
 800065c:	193b      	adds	r3, r7, r4
 800065e:	2201      	movs	r2, #1
 8000660:	601a      	str	r2, [r3, #0]
  GPIO_InitStruct.Mode = GPIO_MODE_IT_FALLING;
 8000662:	193b      	adds	r3, r7, r4
 8000664:	2284      	movs	r2, #132	; 0x84
 8000666:	0392      	lsls	r2, r2, #14
 8000668:	605a      	str	r2, [r3, #4]
  GPIO_InitStruct.Pull = GPIO_NOPULL;
 800066a:	193b      	adds	r3, r7, r4
 800066c:	2200      	movs	r2, #0
 800066e:	609a      	str	r2, [r3, #8]
  HAL_GPIO_Init(B1_GPIO_Port, &GPIO_InitStruct);
 8000670:	193a      	adds	r2, r7, r4
 8000672:	2390      	movs	r3, #144	; 0x90
 8000674:	05db      	lsls	r3, r3, #23
 8000676:	0011      	movs	r1, r2
 8000678:	0018      	movs	r0, r3
 800067a:	f001 f889 	bl	8001790 <HAL_GPIO_Init>

  /*Configure GPIO pin : LD4_Pin */
  GPIO_InitStruct.Pin = LD4_Pin;
 800067e:	0021      	movs	r1, r4
 8000680:	187b      	adds	r3, r7, r1
 8000682:	2280      	movs	r2, #128	; 0x80
 8000684:	0052      	lsls	r2, r2, #1
 8000686:	601a      	str	r2, [r3, #0]
  GPIO_InitStruct.Mode = GPIO_MODE_OUTPUT_PP;
 8000688:	000c      	movs	r4, r1
 800068a:	193b      	adds	r3, r7, r4
 800068c:	2201      	movs	r2, #1
 800068e:	605a      	str	r2, [r3, #4]
  GPIO_InitStruct.Pull = GPIO_NOPULL;
 8000690:	193b      	adds	r3, r7, r4
 8000692:	2200      	movs	r2, #0
 8000694:	609a      	str	r2, [r3, #8]
  GPIO_InitStruct.Speed = GPIO_SPEED_FREQ_LOW;
 8000696:	193b      	adds	r3, r7, r4
 8000698:	2200      	movs	r2, #0
 800069a:	60da      	str	r2, [r3, #12]
  HAL_GPIO_Init(LD4_GPIO_Port, &GPIO_InitStruct);
 800069c:	193b      	adds	r3, r7, r4
 800069e:	4a25      	ldr	r2, [pc, #148]	; (8000734 <MX_GPIO_Init+0x16c>)
 80006a0:	0019      	movs	r1, r3
 80006a2:	0010      	movs	r0, r2
 80006a4:	f001 f874 	bl	8001790 <HAL_GPIO_Init>

  /*Configure GPIO pins : PB6 PB7 */
  GPIO_InitStruct.Pin = GPIO_PIN_6|GPIO_PIN_7;
 80006a8:	193b      	adds	r3, r7, r4
 80006aa:	22c0      	movs	r2, #192	; 0xc0
 80006ac:	601a      	str	r2, [r3, #0]
  GPIO_InitStruct.Mode = GPIO_MODE_AF_OD;
 80006ae:	193b      	adds	r3, r7, r4
 80006b0:	2212      	movs	r2, #18
 80006b2:	605a      	str	r2, [r3, #4]
  GPIO_InitStruct.Pull = GPIO_NOPULL;
 80006b4:	193b      	adds	r3, r7, r4
 80006b6:	2200      	movs	r2, #0
 80006b8:	609a      	str	r2, [r3, #8]
  GPIO_InitStruct.Speed = GPIO_SPEED_FREQ_HIGH;
 80006ba:	193b      	adds	r3, r7, r4
 80006bc:	2203      	movs	r2, #3
 80006be:	60da      	str	r2, [r3, #12]
  GPIO_InitStruct.Alternate = GPIO_AF1_I2C1;
 80006c0:	193b      	adds	r3, r7, r4
 80006c2:	2201      	movs	r2, #1
 80006c4:	611a      	str	r2, [r3, #16]
  HAL_GPIO_Init(GPIOB, &GPIO_InitStruct);
 80006c6:	193b      	adds	r3, r7, r4
 80006c8:	4a1b      	ldr	r2, [pc, #108]	; (8000738 <MX_GPIO_Init+0x170>)
 80006ca:	0019      	movs	r1, r3
 80006cc:	0010      	movs	r0, r2
 80006ce:	f001 f85f 	bl	8001790 <HAL_GPIO_Init>

  /*Configure GPIO pin : PA10 */
  GPIO_InitStruct.Pin = GPIO_PIN_10;
 80006d2:	193b      	adds	r3, r7, r4
 80006d4:	2280      	movs	r2, #128	; 0x80
 80006d6:	00d2      	lsls	r2, r2, #3
 80006d8:	601a      	str	r2, [r3, #0]
  GPIO_InitStruct.Mode = GPIO_MODE_INPUT;
 80006da:	193b      	adds	r3, r7, r4
 80006dc:	2200      	movs	r2, #0
 80006de:	605a      	str	r2, [r3, #4]
  GPIO_InitStruct.Pull = GPIO_PULLUP;
 80006e0:	193b      	adds	r3, r7, r4
 80006e2:	2201      	movs	r2, #1
 80006e4:	609a      	str	r2, [r3, #8]
  HAL_GPIO_Init(GPIOA, &GPIO_InitStruct);
 80006e6:	193a      	adds	r2, r7, r4
 80006e8:	2390      	movs	r3, #144	; 0x90
 80006ea:	05db      	lsls	r3, r3, #23
 80006ec:	0011      	movs	r1, r2
 80006ee:	0018      	movs	r0, r3
 80006f0:	f001 f84e 	bl	8001790 <HAL_GPIO_Init>

  /*Configure GPIO pin : PA11 */
  GPIO_InitStruct.Pin = GPIO_PIN_11;
 80006f4:	0021      	movs	r1, r4
 80006f6:	187b      	adds	r3, r7, r1
 80006f8:	2280      	movs	r2, #128	; 0x80
 80006fa:	0112      	lsls	r2, r2, #4
 80006fc:	601a      	str	r2, [r3, #0]
  GPIO_InitStruct.Mode = GPIO_MODE_INPUT;
 80006fe:	187b      	adds	r3, r7, r1
 8000700:	2200      	movs	r2, #0
 8000702:	605a      	str	r2, [r3, #4]
  GPIO_InitStruct.Pull = GPIO_PULLDOWN;
 8000704:	187b      	adds	r3, r7, r1
 8000706:	2202      	movs	r2, #2
 8000708:	609a      	str	r2, [r3, #8]
  HAL_GPIO_Init(GPIOA, &GPIO_InitStruct);
 800070a:	187a      	adds	r2, r7, r1
 800070c:	2390      	movs	r3, #144	; 0x90
 800070e:	05db      	lsls	r3, r3, #23
 8000710:	0011      	movs	r1, r2
 8000712:	0018      	movs	r0, r3
 8000714:	f001 f83c 	bl	8001790 <HAL_GPIO_Init>

  /* EXTI interrupt init*/
  HAL_NVIC_SetPriority(EXTI0_1_IRQn, 0, 0);
 8000718:	2200      	movs	r2, #0
 800071a:	2100      	movs	r1, #0
 800071c:	2005      	movs	r0, #5
 800071e:	f000 fe81 	bl	8001424 <HAL_NVIC_SetPriority>
  HAL_NVIC_EnableIRQ(EXTI0_1_IRQn);
 8000722:	2005      	movs	r0, #5
 8000724:	f000 fe93 	bl	800144e <HAL_NVIC_EnableIRQ>

}
 8000728:	46c0      	nop			; (mov r8, r8)
 800072a:	46bd      	mov	sp, r7
 800072c:	b00b      	add	sp, #44	; 0x2c
 800072e:	bd90      	pop	{r4, r7, pc}
 8000730:	40021000 	.word	0x40021000
 8000734:	48000800 	.word	0x48000800
 8000738:	48000400 	.word	0x48000400

0800073c <EXTI0_1_IRQHandler>:

/* USER CODE BEGIN 4 */
void EXTI0_1_IRQHandler(void)
{
 800073c:	b580      	push	{r7, lr}
 800073e:	af00      	add	r7, sp, #0
	//TO DO:
	//TASK 1
	//Switch delay frequency
	if(HAL_GetTick() > (prevPress + 500)) {
 8000740:	f000 fa78 	bl	8000c34 <HAL_GetTick>
 8000744:	0002      	movs	r2, r0
 8000746:	4b10      	ldr	r3, [pc, #64]	; (8000788 <EXTI0_1_IRQHandler+0x4c>)
 8000748:	681b      	ldr	r3, [r3, #0]
 800074a:	33f5      	adds	r3, #245	; 0xf5
 800074c:	33ff      	adds	r3, #255	; 0xff
 800074e:	429a      	cmp	r2, r3
 8000750:	d913      	bls.n	800077a <EXTI0_1_IRQHandler+0x3e>
		switch (delay) {
 8000752:	4b0e      	ldr	r3, [pc, #56]	; (800078c <EXTI0_1_IRQHandler+0x50>)
 8000754:	681a      	ldr	r2, [r3, #0]
 8000756:	23fa      	movs	r3, #250	; 0xfa
 8000758:	005b      	lsls	r3, r3, #1
 800075a:	429a      	cmp	r2, r3
 800075c:	d104      	bne.n	8000768 <EXTI0_1_IRQHandler+0x2c>
		case 500:
			delay = 1000;
 800075e:	4b0b      	ldr	r3, [pc, #44]	; (800078c <EXTI0_1_IRQHandler+0x50>)
 8000760:	22fa      	movs	r2, #250	; 0xfa
 8000762:	0092      	lsls	r2, r2, #2
 8000764:	601a      	str	r2, [r3, #0]
			break;
 8000766:	e003      	b.n	8000770 <EXTI0_1_IRQHandler+0x34>
		default:
			delay = 500;
 8000768:	4b08      	ldr	r3, [pc, #32]	; (800078c <EXTI0_1_IRQHandler+0x50>)
 800076a:	22fa      	movs	r2, #250	; 0xfa
 800076c:	0052      	lsls	r2, r2, #1
 800076e:	601a      	str	r2, [r3, #0]
		}
		prevPress = HAL_GetTick();
 8000770:	f000 fa60 	bl	8000c34 <HAL_GetTick>
 8000774:	0002      	movs	r2, r0
 8000776:	4b04      	ldr	r3, [pc, #16]	; (8000788 <EXTI0_1_IRQHandler+0x4c>)
 8000778:	601a      	str	r2, [r3, #0]
	}
	HAL_GPIO_EXTI_IRQHandler(B1_Pin); // Clear interrupt flags
 800077a:	2001      	movs	r0, #1
 800077c:	f001 f9ce 	bl	8001b1c <HAL_GPIO_EXTI_IRQHandler>
}
 8000780:	46c0      	nop			; (mov r8, r8)
 8000782:	46bd      	mov	sp, r7
 8000784:	bd80      	pop	{r7, pc}
 8000786:	46c0      	nop			; (mov r8, r8)
 8000788:	20000000 	.word	0x20000000
 800078c:	20000004 	.word	0x20000004

08000790 <Error_Handler>:
/**
  * @brief  This function is executed in case of error occurrence.
  * @retval None
  */
void Error_Handler(void)
{
 8000790:	b580      	push	{r7, lr}
 8000792:	af00      	add	r7, sp, #0
  \details Disables IRQ interrupts by setting the I-bit in the CPSR.
           Can only be executed in Privileged modes.
 */
__STATIC_FORCEINLINE void __disable_irq(void)
{
  __ASM volatile ("cpsid i" : : : "memory");
 8000794:	b672      	cpsid	i
}
 8000796:	46c0      	nop			; (mov r8, r8)
  /* USER CODE BEGIN Error_Handler_Debug */
  /* User can add his own implementation to report the HAL error return state */
  __disable_irq();
  while (1)
 8000798:	e7fe      	b.n	8000798 <Error_Handler+0x8>
	...

0800079c <HAL_MspInit>:
void HAL_TIM_MspPostInit(TIM_HandleTypeDef *htim);
                    /**
  * Initializes the Global MSP.
  */
void HAL_MspInit(void)
{
 800079c:	b580      	push	{r7, lr}
 800079e:	b082      	sub	sp, #8
 80007a0:	af00      	add	r7, sp, #0
  /* USER CODE BEGIN MspInit 0 */

  /* USER CODE END MspInit 0 */

  __HAL_RCC_SYSCFG_CLK_ENABLE();
 80007a2:	4b0f      	ldr	r3, [pc, #60]	; (80007e0 <HAL_MspInit+0x44>)
 80007a4:	699a      	ldr	r2, [r3, #24]
 80007a6:	4b0e      	ldr	r3, [pc, #56]	; (80007e0 <HAL_MspInit+0x44>)
 80007a8:	2101      	movs	r1, #1
 80007aa:	430a      	orrs	r2, r1
 80007ac:	619a      	str	r2, [r3, #24]
 80007ae:	4b0c      	ldr	r3, [pc, #48]	; (80007e0 <HAL_MspInit+0x44>)
 80007b0:	699b      	ldr	r3, [r3, #24]
 80007b2:	2201      	movs	r2, #1
 80007b4:	4013      	ands	r3, r2
 80007b6:	607b      	str	r3, [r7, #4]
 80007b8:	687b      	ldr	r3, [r7, #4]
  __HAL_RCC_PWR_CLK_ENABLE();
 80007ba:	4b09      	ldr	r3, [pc, #36]	; (80007e0 <HAL_MspInit+0x44>)
 80007bc:	69da      	ldr	r2, [r3, #28]
 80007be:	4b08      	ldr	r3, [pc, #32]	; (80007e0 <HAL_MspInit+0x44>)
 80007c0:	2180      	movs	r1, #128	; 0x80
 80007c2:	0549      	lsls	r1, r1, #21
 80007c4:	430a      	orrs	r2, r1
 80007c6:	61da      	str	r2, [r3, #28]
 80007c8:	4b05      	ldr	r3, [pc, #20]	; (80007e0 <HAL_MspInit+0x44>)
 80007ca:	69da      	ldr	r2, [r3, #28]
 80007cc:	2380      	movs	r3, #128	; 0x80
 80007ce:	055b      	lsls	r3, r3, #21
 80007d0:	4013      	ands	r3, r2
 80007d2:	603b      	str	r3, [r7, #0]
 80007d4:	683b      	ldr	r3, [r7, #0]
  /* System interrupt init*/

  /* USER CODE BEGIN MspInit 1 */

  /* USER CODE END MspInit 1 */
}
 80007d6:	46c0      	nop			; (mov r8, r8)
 80007d8:	46bd      	mov	sp, r7
 80007da:	b002      	add	sp, #8
 80007dc:	bd80      	pop	{r7, pc}
 80007de:	46c0      	nop			; (mov r8, r8)
 80007e0:	40021000 	.word	0x40021000

080007e4 <HAL_ADC_MspInit>:
* This function configures the hardware resources used in this example
* @param hadc: ADC handle pointer
* @retval None
*/
void HAL_ADC_MspInit(ADC_HandleTypeDef* hadc)
{
 80007e4:	b590      	push	{r4, r7, lr}
 80007e6:	b08b      	sub	sp, #44	; 0x2c
 80007e8:	af00      	add	r7, sp, #0
 80007ea:	6078      	str	r0, [r7, #4]
  GPIO_InitTypeDef GPIO_InitStruct = {0};
 80007ec:	2414      	movs	r4, #20
 80007ee:	193b      	adds	r3, r7, r4
 80007f0:	0018      	movs	r0, r3
 80007f2:	2314      	movs	r3, #20
 80007f4:	001a      	movs	r2, r3
 80007f6:	2100      	movs	r1, #0
 80007f8:	f003 fc76 	bl	80040e8 <memset>
  if(hadc->Instance==ADC1)
 80007fc:	687b      	ldr	r3, [r7, #4]
 80007fe:	681b      	ldr	r3, [r3, #0]
 8000800:	4a31      	ldr	r2, [pc, #196]	; (80008c8 <HAL_ADC_MspInit+0xe4>)
 8000802:	4293      	cmp	r3, r2
 8000804:	d15b      	bne.n	80008be <HAL_ADC_MspInit+0xda>
  {
  /* USER CODE BEGIN ADC1_MspInit 0 */

  /* USER CODE END ADC1_MspInit 0 */
    /* Peripheral clock enable */
    __HAL_RCC_ADC1_CLK_ENABLE();
 8000806:	4b31      	ldr	r3, [pc, #196]	; (80008cc <HAL_ADC_MspInit+0xe8>)
 8000808:	699a      	ldr	r2, [r3, #24]
 800080a:	4b30      	ldr	r3, [pc, #192]	; (80008cc <HAL_ADC_MspInit+0xe8>)
 800080c:	2180      	movs	r1, #128	; 0x80
 800080e:	0089      	lsls	r1, r1, #2
 8000810:	430a      	orrs	r2, r1
 8000812:	619a      	str	r2, [r3, #24]
 8000814:	4b2d      	ldr	r3, [pc, #180]	; (80008cc <HAL_ADC_MspInit+0xe8>)
 8000816:	699a      	ldr	r2, [r3, #24]
 8000818:	2380      	movs	r3, #128	; 0x80
 800081a:	009b      	lsls	r3, r3, #2
 800081c:	4013      	ands	r3, r2
 800081e:	613b      	str	r3, [r7, #16]
 8000820:	693b      	ldr	r3, [r7, #16]

    __HAL_RCC_GPIOA_CLK_ENABLE();
 8000822:	4b2a      	ldr	r3, [pc, #168]	; (80008cc <HAL_ADC_MspInit+0xe8>)
 8000824:	695a      	ldr	r2, [r3, #20]
 8000826:	4b29      	ldr	r3, [pc, #164]	; (80008cc <HAL_ADC_MspInit+0xe8>)
 8000828:	2180      	movs	r1, #128	; 0x80
 800082a:	0289      	lsls	r1, r1, #10
 800082c:	430a      	orrs	r2, r1
 800082e:	615a      	str	r2, [r3, #20]
 8000830:	4b26      	ldr	r3, [pc, #152]	; (80008cc <HAL_ADC_MspInit+0xe8>)
 8000832:	695a      	ldr	r2, [r3, #20]
 8000834:	2380      	movs	r3, #128	; 0x80
 8000836:	029b      	lsls	r3, r3, #10
 8000838:	4013      	ands	r3, r2
 800083a:	60fb      	str	r3, [r7, #12]
 800083c:	68fb      	ldr	r3, [r7, #12]
    /**ADC GPIO Configuration
    PA7     ------> ADC_IN7
    */
    GPIO_InitStruct.Pin = GPIO_PIN_7;
 800083e:	193b      	adds	r3, r7, r4
 8000840:	2280      	movs	r2, #128	; 0x80
 8000842:	601a      	str	r2, [r3, #0]
    GPIO_InitStruct.Mode = GPIO_MODE_ANALOG;
 8000844:	193b      	adds	r3, r7, r4
 8000846:	2203      	movs	r2, #3
 8000848:	605a      	str	r2, [r3, #4]
    GPIO_InitStruct.Pull = GPIO_NOPULL;
 800084a:	193b      	adds	r3, r7, r4
 800084c:	2200      	movs	r2, #0
 800084e:	609a      	str	r2, [r3, #8]
    HAL_GPIO_Init(GPIOA, &GPIO_InitStruct);
 8000850:	193a      	adds	r2, r7, r4
 8000852:	2390      	movs	r3, #144	; 0x90
 8000854:	05db      	lsls	r3, r3, #23
 8000856:	0011      	movs	r1, r2
 8000858:	0018      	movs	r0, r3
 800085a:	f000 ff99 	bl	8001790 <HAL_GPIO_Init>

    /* ADC1 DMA Init */
    /* ADC Init */
    hdma_adc.Instance = DMA1_Channel1;
 800085e:	4b1c      	ldr	r3, [pc, #112]	; (80008d0 <HAL_ADC_MspInit+0xec>)
 8000860:	4a1c      	ldr	r2, [pc, #112]	; (80008d4 <HAL_ADC_MspInit+0xf0>)
 8000862:	601a      	str	r2, [r3, #0]
    hdma_adc.Init.Direction = DMA_PERIPH_TO_MEMORY;
 8000864:	4b1a      	ldr	r3, [pc, #104]	; (80008d0 <HAL_ADC_MspInit+0xec>)
 8000866:	2200      	movs	r2, #0
 8000868:	605a      	str	r2, [r3, #4]
    hdma_adc.Init.PeriphInc = DMA_PINC_DISABLE;
 800086a:	4b19      	ldr	r3, [pc, #100]	; (80008d0 <HAL_ADC_MspInit+0xec>)
 800086c:	2200      	movs	r2, #0
 800086e:	609a      	str	r2, [r3, #8]
    hdma_adc.Init.MemInc = DMA_MINC_ENABLE;
 8000870:	4b17      	ldr	r3, [pc, #92]	; (80008d0 <HAL_ADC_MspInit+0xec>)
 8000872:	2280      	movs	r2, #128	; 0x80
 8000874:	60da      	str	r2, [r3, #12]
    hdma_adc.Init.PeriphDataAlignment = DMA_PDATAALIGN_HALFWORD;
 8000876:	4b16      	ldr	r3, [pc, #88]	; (80008d0 <HAL_ADC_MspInit+0xec>)
 8000878:	2280      	movs	r2, #128	; 0x80
 800087a:	0052      	lsls	r2, r2, #1
 800087c:	611a      	str	r2, [r3, #16]
    hdma_adc.Init.MemDataAlignment = DMA_MDATAALIGN_HALFWORD;
 800087e:	4b14      	ldr	r3, [pc, #80]	; (80008d0 <HAL_ADC_MspInit+0xec>)
 8000880:	2280      	movs	r2, #128	; 0x80
 8000882:	00d2      	lsls	r2, r2, #3
 8000884:	615a      	str	r2, [r3, #20]
    hdma_adc.Init.Mode = DMA_NORMAL;
 8000886:	4b12      	ldr	r3, [pc, #72]	; (80008d0 <HAL_ADC_MspInit+0xec>)
 8000888:	2200      	movs	r2, #0
 800088a:	619a      	str	r2, [r3, #24]
    hdma_adc.Init.Priority = DMA_PRIORITY_LOW;
 800088c:	4b10      	ldr	r3, [pc, #64]	; (80008d0 <HAL_ADC_MspInit+0xec>)
 800088e:	2200      	movs	r2, #0
 8000890:	61da      	str	r2, [r3, #28]
    if (HAL_DMA_Init(&hdma_adc) != HAL_OK)
 8000892:	4b0f      	ldr	r3, [pc, #60]	; (80008d0 <HAL_ADC_MspInit+0xec>)
 8000894:	0018      	movs	r0, r3
 8000896:	f000 fdf7 	bl	8001488 <HAL_DMA_Init>
 800089a:	1e03      	subs	r3, r0, #0
 800089c:	d001      	beq.n	80008a2 <HAL_ADC_MspInit+0xbe>
    {
      Error_Handler();
 800089e:	f7ff ff77 	bl	8000790 <Error_Handler>
    }

    __HAL_LINKDMA(hadc,DMA_Handle,hdma_adc);
 80008a2:	687b      	ldr	r3, [r7, #4]
 80008a4:	4a0a      	ldr	r2, [pc, #40]	; (80008d0 <HAL_ADC_MspInit+0xec>)
 80008a6:	631a      	str	r2, [r3, #48]	; 0x30
 80008a8:	4b09      	ldr	r3, [pc, #36]	; (80008d0 <HAL_ADC_MspInit+0xec>)
 80008aa:	687a      	ldr	r2, [r7, #4]
 80008ac:	625a      	str	r2, [r3, #36]	; 0x24

    /* ADC1 interrupt Init */
    HAL_NVIC_SetPriority(ADC1_COMP_IRQn, 0, 0);
 80008ae:	2200      	movs	r2, #0
 80008b0:	2100      	movs	r1, #0
 80008b2:	200c      	movs	r0, #12
 80008b4:	f000 fdb6 	bl	8001424 <HAL_NVIC_SetPriority>
    HAL_NVIC_EnableIRQ(ADC1_COMP_IRQn);
 80008b8:	200c      	movs	r0, #12
 80008ba:	f000 fdc8 	bl	800144e <HAL_NVIC_EnableIRQ>
  /* USER CODE BEGIN ADC1_MspInit 1 */

  /* USER CODE END ADC1_MspInit 1 */
  }

}
 80008be:	46c0      	nop			; (mov r8, r8)
 80008c0:	46bd      	mov	sp, r7
 80008c2:	b00b      	add	sp, #44	; 0x2c
 80008c4:	bd90      	pop	{r4, r7, pc}
 80008c6:	46c0      	nop			; (mov r8, r8)
 80008c8:	40012400 	.word	0x40012400
 80008cc:	40021000 	.word	0x40021000
 80008d0:	20000070 	.word	0x20000070
 80008d4:	40020008 	.word	0x40020008

080008d8 <HAL_TIM_Base_MspInit>:
* This function configures the hardware resources used in this example
* @param htim_base: TIM_Base handle pointer
* @retval None
*/
void HAL_TIM_Base_MspInit(TIM_HandleTypeDef* htim_base)
{
 80008d8:	b580      	push	{r7, lr}
 80008da:	b084      	sub	sp, #16
 80008dc:	af00      	add	r7, sp, #0
 80008de:	6078      	str	r0, [r7, #4]
  if(htim_base->Instance==TIM3)
 80008e0:	687b      	ldr	r3, [r7, #4]
 80008e2:	681b      	ldr	r3, [r3, #0]
 80008e4:	4a09      	ldr	r2, [pc, #36]	; (800090c <HAL_TIM_Base_MspInit+0x34>)
 80008e6:	4293      	cmp	r3, r2
 80008e8:	d10b      	bne.n	8000902 <HAL_TIM_Base_MspInit+0x2a>
  {
  /* USER CODE BEGIN TIM3_MspInit 0 */

  /* USER CODE END TIM3_MspInit 0 */
    /* Peripheral clock enable */
    __HAL_RCC_TIM3_CLK_ENABLE();
 80008ea:	4b09      	ldr	r3, [pc, #36]	; (8000910 <HAL_TIM_Base_MspInit+0x38>)
 80008ec:	69da      	ldr	r2, [r3, #28]
 80008ee:	4b08      	ldr	r3, [pc, #32]	; (8000910 <HAL_TIM_Base_MspInit+0x38>)
 80008f0:	2102      	movs	r1, #2
 80008f2:	430a      	orrs	r2, r1
 80008f4:	61da      	str	r2, [r3, #28]
 80008f6:	4b06      	ldr	r3, [pc, #24]	; (8000910 <HAL_TIM_Base_MspInit+0x38>)
 80008f8:	69db      	ldr	r3, [r3, #28]
 80008fa:	2202      	movs	r2, #2
 80008fc:	4013      	ands	r3, r2
 80008fe:	60fb      	str	r3, [r7, #12]
 8000900:	68fb      	ldr	r3, [r7, #12]
  /* USER CODE BEGIN TIM3_MspInit 1 */

  /* USER CODE END TIM3_MspInit 1 */
  }

}
 8000902:	46c0      	nop			; (mov r8, r8)
 8000904:	46bd      	mov	sp, r7
 8000906:	b004      	add	sp, #16
 8000908:	bd80      	pop	{r7, pc}
 800090a:	46c0      	nop			; (mov r8, r8)
 800090c:	40000400 	.word	0x40000400
 8000910:	40021000 	.word	0x40021000

08000914 <HAL_TIM_MspPostInit>:

void HAL_TIM_MspPostInit(TIM_HandleTypeDef* htim)
{
 8000914:	b590      	push	{r4, r7, lr}
 8000916:	b089      	sub	sp, #36	; 0x24
 8000918:	af00      	add	r7, sp, #0
 800091a:	6078      	str	r0, [r7, #4]
  GPIO_InitTypeDef GPIO_InitStruct = {0};
 800091c:	240c      	movs	r4, #12
 800091e:	193b      	adds	r3, r7, r4
 8000920:	0018      	movs	r0, r3
 8000922:	2314      	movs	r3, #20
 8000924:	001a      	movs	r2, r3
 8000926:	2100      	movs	r1, #0
 8000928:	f003 fbde 	bl	80040e8 <memset>
  if(htim->Instance==TIM3)
 800092c:	687b      	ldr	r3, [r7, #4]
 800092e:	681b      	ldr	r3, [r3, #0]
 8000930:	4a15      	ldr	r2, [pc, #84]	; (8000988 <HAL_TIM_MspPostInit+0x74>)
 8000932:	4293      	cmp	r3, r2
 8000934:	d124      	bne.n	8000980 <HAL_TIM_MspPostInit+0x6c>
  {
  /* USER CODE BEGIN TIM3_MspPostInit 0 */

  /* USER CODE END TIM3_MspPostInit 0 */

    __HAL_RCC_GPIOC_CLK_ENABLE();
 8000936:	4b15      	ldr	r3, [pc, #84]	; (800098c <HAL_TIM_MspPostInit+0x78>)
 8000938:	695a      	ldr	r2, [r3, #20]
 800093a:	4b14      	ldr	r3, [pc, #80]	; (800098c <HAL_TIM_MspPostInit+0x78>)
 800093c:	2180      	movs	r1, #128	; 0x80
 800093e:	0309      	lsls	r1, r1, #12
 8000940:	430a      	orrs	r2, r1
 8000942:	615a      	str	r2, [r3, #20]
 8000944:	4b11      	ldr	r3, [pc, #68]	; (800098c <HAL_TIM_MspPostInit+0x78>)
 8000946:	695a      	ldr	r2, [r3, #20]
 8000948:	2380      	movs	r3, #128	; 0x80
 800094a:	031b      	lsls	r3, r3, #12
 800094c:	4013      	ands	r3, r2
 800094e:	60bb      	str	r3, [r7, #8]
 8000950:	68bb      	ldr	r3, [r7, #8]
    /**TIM3 GPIO Configuration
    PC9     ------> TIM3_CH4
    */
    GPIO_InitStruct.Pin = GPIO_PIN_9;
 8000952:	193b      	adds	r3, r7, r4
 8000954:	2280      	movs	r2, #128	; 0x80
 8000956:	0092      	lsls	r2, r2, #2
 8000958:	601a      	str	r2, [r3, #0]
    GPIO_InitStruct.Mode = GPIO_MODE_AF_PP;
 800095a:	0021      	movs	r1, r4
 800095c:	187b      	adds	r3, r7, r1
 800095e:	2202      	movs	r2, #2
 8000960:	605a      	str	r2, [r3, #4]
    GPIO_InitStruct.Pull = GPIO_NOPULL;
 8000962:	187b      	adds	r3, r7, r1
 8000964:	2200      	movs	r2, #0
 8000966:	609a      	str	r2, [r3, #8]
    GPIO_InitStruct.Speed = GPIO_SPEED_FREQ_LOW;
 8000968:	187b      	adds	r3, r7, r1
 800096a:	2200      	movs	r2, #0
 800096c:	60da      	str	r2, [r3, #12]
    GPIO_InitStruct.Alternate = GPIO_AF0_MCO;
 800096e:	187b      	adds	r3, r7, r1
 8000970:	2200      	movs	r2, #0
 8000972:	611a      	str	r2, [r3, #16]
    HAL_GPIO_Init(GPIOC, &GPIO_InitStruct);
 8000974:	187b      	adds	r3, r7, r1
 8000976:	4a06      	ldr	r2, [pc, #24]	; (8000990 <HAL_TIM_MspPostInit+0x7c>)
 8000978:	0019      	movs	r1, r3
 800097a:	0010      	movs	r0, r2
 800097c:	f000 ff08 	bl	8001790 <HAL_GPIO_Init>
  /* USER CODE BEGIN TIM3_MspPostInit 1 */

  /* USER CODE END TIM3_MspPostInit 1 */
  }

}
 8000980:	46c0      	nop			; (mov r8, r8)
 8000982:	46bd      	mov	sp, r7
 8000984:	b009      	add	sp, #36	; 0x24
 8000986:	bd90      	pop	{r4, r7, pc}
 8000988:	40000400 	.word	0x40000400
 800098c:	40021000 	.word	0x40021000
 8000990:	48000800 	.word	0x48000800

08000994 <HAL_UART_MspInit>:
* This function configures the hardware resources used in this example
* @param huart: UART handle pointer
* @retval None
*/
void HAL_UART_MspInit(UART_HandleTypeDef* huart)
{
 8000994:	b590      	push	{r4, r7, lr}
 8000996:	b08b      	sub	sp, #44	; 0x2c
 8000998:	af00      	add	r7, sp, #0
 800099a:	6078      	str	r0, [r7, #4]
  GPIO_InitTypeDef GPIO_InitStruct = {0};
 800099c:	2414      	movs	r4, #20
 800099e:	193b      	adds	r3, r7, r4
 80009a0:	0018      	movs	r0, r3
 80009a2:	2314      	movs	r3, #20
 80009a4:	001a      	movs	r2, r3
 80009a6:	2100      	movs	r1, #0
 80009a8:	f003 fb9e 	bl	80040e8 <memset>
  if(huart->Instance==USART2)
 80009ac:	687b      	ldr	r3, [r7, #4]
 80009ae:	681b      	ldr	r3, [r3, #0]
 80009b0:	4a33      	ldr	r2, [pc, #204]	; (8000a80 <HAL_UART_MspInit+0xec>)
 80009b2:	4293      	cmp	r3, r2
 80009b4:	d160      	bne.n	8000a78 <HAL_UART_MspInit+0xe4>
  {
  /* USER CODE BEGIN USART2_MspInit 0 */

  /* USER CODE END USART2_MspInit 0 */
    /* Peripheral clock enable */
    __HAL_RCC_USART2_CLK_ENABLE();
 80009b6:	4b33      	ldr	r3, [pc, #204]	; (8000a84 <HAL_UART_MspInit+0xf0>)
 80009b8:	69da      	ldr	r2, [r3, #28]
 80009ba:	4b32      	ldr	r3, [pc, #200]	; (8000a84 <HAL_UART_MspInit+0xf0>)
 80009bc:	2180      	movs	r1, #128	; 0x80
 80009be:	0289      	lsls	r1, r1, #10
 80009c0:	430a      	orrs	r2, r1
 80009c2:	61da      	str	r2, [r3, #28]
 80009c4:	4b2f      	ldr	r3, [pc, #188]	; (8000a84 <HAL_UART_MspInit+0xf0>)
 80009c6:	69da      	ldr	r2, [r3, #28]
 80009c8:	2380      	movs	r3, #128	; 0x80
 80009ca:	029b      	lsls	r3, r3, #10
 80009cc:	4013      	ands	r3, r2
 80009ce:	613b      	str	r3, [r7, #16]
 80009d0:	693b      	ldr	r3, [r7, #16]

    __HAL_RCC_GPIOA_CLK_ENABLE();
 80009d2:	4b2c      	ldr	r3, [pc, #176]	; (8000a84 <HAL_UART_MspInit+0xf0>)
 80009d4:	695a      	ldr	r2, [r3, #20]
 80009d6:	4b2b      	ldr	r3, [pc, #172]	; (8000a84 <HAL_UART_MspInit+0xf0>)
 80009d8:	2180      	movs	r1, #128	; 0x80
 80009da:	0289      	lsls	r1, r1, #10
 80009dc:	430a      	orrs	r2, r1
 80009de:	615a      	str	r2, [r3, #20]
 80009e0:	4b28      	ldr	r3, [pc, #160]	; (8000a84 <HAL_UART_MspInit+0xf0>)
 80009e2:	695a      	ldr	r2, [r3, #20]
 80009e4:	2380      	movs	r3, #128	; 0x80
 80009e6:	029b      	lsls	r3, r3, #10
 80009e8:	4013      	ands	r3, r2
 80009ea:	60fb      	str	r3, [r7, #12]
 80009ec:	68fb      	ldr	r3, [r7, #12]
    /**USART2 GPIO Configuration
    PA2     ------> USART2_TX
    PA3     ------> USART2_RX
    */
    GPIO_InitStruct.Pin = GPIO_PIN_2|GPIO_PIN_3;
 80009ee:	0021      	movs	r1, r4
 80009f0:	187b      	adds	r3, r7, r1
 80009f2:	220c      	movs	r2, #12
 80009f4:	601a      	str	r2, [r3, #0]
    GPIO_InitStruct.Mode = GPIO_MODE_AF_PP;
 80009f6:	187b      	adds	r3, r7, r1
 80009f8:	2202      	movs	r2, #2
 80009fa:	605a      	str	r2, [r3, #4]
    GPIO_InitStruct.Pull = GPIO_NOPULL;
 80009fc:	187b      	adds	r3, r7, r1
 80009fe:	2200      	movs	r2, #0
 8000a00:	609a      	str	r2, [r3, #8]
    GPIO_InitStruct.Speed = GPIO_SPEED_FREQ_HIGH;
 8000a02:	187b      	adds	r3, r7, r1
 8000a04:	2203      	movs	r2, #3
 8000a06:	60da      	str	r2, [r3, #12]
    GPIO_InitStruct.Alternate = GPIO_AF1_USART2;
 8000a08:	187b      	adds	r3, r7, r1
 8000a0a:	2201      	movs	r2, #1
 8000a0c:	611a      	str	r2, [r3, #16]
    HAL_GPIO_Init(GPIOA, &GPIO_InitStruct);
 8000a0e:	187a      	adds	r2, r7, r1
 8000a10:	2390      	movs	r3, #144	; 0x90
 8000a12:	05db      	lsls	r3, r3, #23
 8000a14:	0011      	movs	r1, r2
 8000a16:	0018      	movs	r0, r3
 8000a18:	f000 feba 	bl	8001790 <HAL_GPIO_Init>

    /* USART2 DMA Init */
    /* USART2_TX Init */
    hdma_usart2_tx.Instance = DMA1_Channel4;
 8000a1c:	4b1a      	ldr	r3, [pc, #104]	; (8000a88 <HAL_UART_MspInit+0xf4>)
 8000a1e:	4a1b      	ldr	r2, [pc, #108]	; (8000a8c <HAL_UART_MspInit+0xf8>)
 8000a20:	601a      	str	r2, [r3, #0]
    hdma_usart2_tx.Init.Direction = DMA_MEMORY_TO_PERIPH;
 8000a22:	4b19      	ldr	r3, [pc, #100]	; (8000a88 <HAL_UART_MspInit+0xf4>)
 8000a24:	2210      	movs	r2, #16
 8000a26:	605a      	str	r2, [r3, #4]
    hdma_usart2_tx.Init.PeriphInc = DMA_PINC_DISABLE;
 8000a28:	4b17      	ldr	r3, [pc, #92]	; (8000a88 <HAL_UART_MspInit+0xf4>)
 8000a2a:	2200      	movs	r2, #0
 8000a2c:	609a      	str	r2, [r3, #8]
    hdma_usart2_tx.Init.MemInc = DMA_MINC_ENABLE;
 8000a2e:	4b16      	ldr	r3, [pc, #88]	; (8000a88 <HAL_UART_MspInit+0xf4>)
 8000a30:	2280      	movs	r2, #128	; 0x80
 8000a32:	60da      	str	r2, [r3, #12]
    hdma_usart2_tx.Init.PeriphDataAlignment = DMA_PDATAALIGN_BYTE;
 8000a34:	4b14      	ldr	r3, [pc, #80]	; (8000a88 <HAL_UART_MspInit+0xf4>)
 8000a36:	2200      	movs	r2, #0
 8000a38:	611a      	str	r2, [r3, #16]
    hdma_usart2_tx.Init.MemDataAlignment = DMA_MDATAALIGN_BYTE;
 8000a3a:	4b13      	ldr	r3, [pc, #76]	; (8000a88 <HAL_UART_MspInit+0xf4>)
 8000a3c:	2200      	movs	r2, #0
 8000a3e:	615a      	str	r2, [r3, #20]
    hdma_usart2_tx.Init.Mode = DMA_NORMAL;
 8000a40:	4b11      	ldr	r3, [pc, #68]	; (8000a88 <HAL_UART_MspInit+0xf4>)
 8000a42:	2200      	movs	r2, #0
 8000a44:	619a      	str	r2, [r3, #24]
    hdma_usart2_tx.Init.Priority = DMA_PRIORITY_LOW;
 8000a46:	4b10      	ldr	r3, [pc, #64]	; (8000a88 <HAL_UART_MspInit+0xf4>)
 8000a48:	2200      	movs	r2, #0
 8000a4a:	61da      	str	r2, [r3, #28]
    if (HAL_DMA_Init(&hdma_usart2_tx) != HAL_OK)
 8000a4c:	4b0e      	ldr	r3, [pc, #56]	; (8000a88 <HAL_UART_MspInit+0xf4>)
 8000a4e:	0018      	movs	r0, r3
 8000a50:	f000 fd1a 	bl	8001488 <HAL_DMA_Init>
 8000a54:	1e03      	subs	r3, r0, #0
 8000a56:	d001      	beq.n	8000a5c <HAL_UART_MspInit+0xc8>
    {
      Error_Handler();
 8000a58:	f7ff fe9a 	bl	8000790 <Error_Handler>
    }

    __HAL_LINKDMA(huart,hdmatx,hdma_usart2_tx);
 8000a5c:	687b      	ldr	r3, [r7, #4]
 8000a5e:	4a0a      	ldr	r2, [pc, #40]	; (8000a88 <HAL_UART_MspInit+0xf4>)
 8000a60:	66da      	str	r2, [r3, #108]	; 0x6c
 8000a62:	4b09      	ldr	r3, [pc, #36]	; (8000a88 <HAL_UART_MspInit+0xf4>)
 8000a64:	687a      	ldr	r2, [r7, #4]
 8000a66:	625a      	str	r2, [r3, #36]	; 0x24

    /* USART2 interrupt Init */
    HAL_NVIC_SetPriority(USART2_IRQn, 0, 0);
 8000a68:	2200      	movs	r2, #0
 8000a6a:	2100      	movs	r1, #0
 8000a6c:	201c      	movs	r0, #28
 8000a6e:	f000 fcd9 	bl	8001424 <HAL_NVIC_SetPriority>
    HAL_NVIC_EnableIRQ(USART2_IRQn);
 8000a72:	201c      	movs	r0, #28
 8000a74:	f000 fceb 	bl	800144e <HAL_NVIC_EnableIRQ>
  /* USER CODE BEGIN USART2_MspInit 1 */

  /* USER CODE END USART2_MspInit 1 */
  }

}
 8000a78:	46c0      	nop			; (mov r8, r8)
 8000a7a:	46bd      	mov	sp, r7
 8000a7c:	b00b      	add	sp, #44	; 0x2c
 8000a7e:	bd90      	pop	{r4, r7, pc}
 8000a80:	40004400 	.word	0x40004400
 8000a84:	40021000 	.word	0x40021000
 8000a88:	20000180 	.word	0x20000180
 8000a8c:	40020044 	.word	0x40020044

08000a90 <NMI_Handler>:
/******************************************************************************/
/**
  * @brief This function handles Non maskable interrupt.
  */
void NMI_Handler(void)
{
 8000a90:	b580      	push	{r7, lr}
 8000a92:	af00      	add	r7, sp, #0
  /* USER CODE BEGIN NonMaskableInt_IRQn 0 */

  /* USER CODE END NonMaskableInt_IRQn 0 */
  /* USER CODE BEGIN NonMaskableInt_IRQn 1 */
  while (1)
 8000a94:	e7fe      	b.n	8000a94 <NMI_Handler+0x4>

08000a96 <HardFault_Handler>:

/**
  * @brief This function handles Hard fault interrupt.
  */
void HardFault_Handler(void)
{
 8000a96:	b580      	push	{r7, lr}
 8000a98:	af00      	add	r7, sp, #0
  /* USER CODE BEGIN HardFault_IRQn 0 */

  /* USER CODE END HardFault_IRQn 0 */
  while (1)
 8000a9a:	e7fe      	b.n	8000a9a <HardFault_Handler+0x4>

08000a9c <SVC_Handler>:

/**
  * @brief This function handles System service call via SWI instruction.
  */
void SVC_Handler(void)
{
 8000a9c:	b580      	push	{r7, lr}
 8000a9e:	af00      	add	r7, sp, #0

  /* USER CODE END SVC_IRQn 0 */
  /* USER CODE BEGIN SVC_IRQn 1 */

  /* USER CODE END SVC_IRQn 1 */
}
 8000aa0:	46c0      	nop			; (mov r8, r8)
 8000aa2:	46bd      	mov	sp, r7
 8000aa4:	bd80      	pop	{r7, pc}

08000aa6 <PendSV_Handler>:

/**
  * @brief This function handles Pendable request for system service.
  */
void PendSV_Handler(void)
{
 8000aa6:	b580      	push	{r7, lr}
 8000aa8:	af00      	add	r7, sp, #0

  /* USER CODE END PendSV_IRQn 0 */
  /* USER CODE BEGIN PendSV_IRQn 1 */

  /* USER CODE END PendSV_IRQn 1 */
}
 8000aaa:	46c0      	nop			; (mov r8, r8)
 8000aac:	46bd      	mov	sp, r7
 8000aae:	bd80      	pop	{r7, pc}

08000ab0 <SysTick_Handler>:

/**
  * @brief This function handles System tick timer.
  */
void SysTick_Handler(void)
{
 8000ab0:	b580      	push	{r7, lr}
 8000ab2:	af00      	add	r7, sp, #0
  /* USER CODE BEGIN SysTick_IRQn 0 */

  /* USER CODE END SysTick_IRQn 0 */
  HAL_IncTick();
 8000ab4:	f000 f8ac 	bl	8000c10 <HAL_IncTick>
  /* USER CODE BEGIN SysTick_IRQn 1 */

  /* USER CODE END SysTick_IRQn 1 */
}
 8000ab8:	46c0      	nop			; (mov r8, r8)
 8000aba:	46bd      	mov	sp, r7
 8000abc:	bd80      	pop	{r7, pc}
	...

08000ac0 <DMA1_Channel1_IRQHandler>:

/**
  * @brief This function handles DMA1 channel 1 interrupt.
  */
void DMA1_Channel1_IRQHandler(void)
{
 8000ac0:	b580      	push	{r7, lr}
 8000ac2:	af00      	add	r7, sp, #0
  /* USER CODE BEGIN DMA1_Channel1_IRQn 0 */

  /* USER CODE END DMA1_Channel1_IRQn 0 */
  HAL_DMA_IRQHandler(&hdma_adc);
 8000ac4:	4b03      	ldr	r3, [pc, #12]	; (8000ad4 <DMA1_Channel1_IRQHandler+0x14>)
 8000ac6:	0018      	movs	r0, r3
 8000ac8:	f000 fda3 	bl	8001612 <HAL_DMA_IRQHandler>
  /* USER CODE BEGIN DMA1_Channel1_IRQn 1 */

  /* USER CODE END DMA1_Channel1_IRQn 1 */
}
 8000acc:	46c0      	nop			; (mov r8, r8)
 8000ace:	46bd      	mov	sp, r7
 8000ad0:	bd80      	pop	{r7, pc}
 8000ad2:	46c0      	nop			; (mov r8, r8)
 8000ad4:	20000070 	.word	0x20000070

08000ad8 <DMA1_Channel4_5_IRQHandler>:

/**
  * @brief This function handles DMA1 channel 4 and 5 interrupts.
  */
void DMA1_Channel4_5_IRQHandler(void)
{
 8000ad8:	b580      	push	{r7, lr}
 8000ada:	af00      	add	r7, sp, #0
  /* USER CODE BEGIN DMA1_Channel4_5_IRQn 0 */

  /* USER CODE END DMA1_Channel4_5_IRQn 0 */
  HAL_DMA_IRQHandler(&hdma_usart2_tx);
 8000adc:	4b03      	ldr	r3, [pc, #12]	; (8000aec <DMA1_Channel4_5_IRQHandler+0x14>)
 8000ade:	0018      	movs	r0, r3
 8000ae0:	f000 fd97 	bl	8001612 <HAL_DMA_IRQHandler>
  /* USER CODE BEGIN DMA1_Channel4_5_IRQn 1 */

  /* USER CODE END DMA1_Channel4_5_IRQn 1 */
}
 8000ae4:	46c0      	nop			; (mov r8, r8)
 8000ae6:	46bd      	mov	sp, r7
 8000ae8:	bd80      	pop	{r7, pc}
 8000aea:	46c0      	nop			; (mov r8, r8)
 8000aec:	20000180 	.word	0x20000180

08000af0 <ADC1_COMP_IRQHandler>:

/**
  * @brief This function handles ADC and COMP interrupts (COMP interrupts through EXTI lines 21 and 22).
  */
void ADC1_COMP_IRQHandler(void)
{
 8000af0:	b580      	push	{r7, lr}
 8000af2:	af00      	add	r7, sp, #0
  /* USER CODE BEGIN ADC1_COMP_IRQn 0 */

  /* USER CODE END ADC1_COMP_IRQn 0 */
  HAL_ADC_IRQHandler(&hadc);
 8000af4:	4b03      	ldr	r3, [pc, #12]	; (8000b04 <ADC1_COMP_IRQHandler+0x14>)
 8000af6:	0018      	movs	r0, r3
 8000af8:	f000 fa0a 	bl	8000f10 <HAL_ADC_IRQHandler>
  /* USER CODE BEGIN ADC1_COMP_IRQn 1 */

  /* USER CODE END ADC1_COMP_IRQn 1 */
}
 8000afc:	46c0      	nop			; (mov r8, r8)
 8000afe:	46bd      	mov	sp, r7
 8000b00:	bd80      	pop	{r7, pc}
 8000b02:	46c0      	nop			; (mov r8, r8)
 8000b04:	20000030 	.word	0x20000030

08000b08 <USART2_IRQHandler>:

/**
  * @brief This function handles USART2 global interrupt.
  */
void USART2_IRQHandler(void)
{
 8000b08:	b580      	push	{r7, lr}
 8000b0a:	af00      	add	r7, sp, #0
  /* USER CODE BEGIN USART2_IRQn 0 */

  /* USER CODE END USART2_IRQn 0 */
  HAL_UART_IRQHandler(&huart2);
 8000b0c:	4b03      	ldr	r3, [pc, #12]	; (8000b1c <USART2_IRQHandler+0x14>)
 8000b0e:	0018      	movs	r0, r3
 8000b10:	f002 fc26 	bl	8003360 <HAL_UART_IRQHandler>
  /* USER CODE BEGIN USART2_IRQn 1 */

  /* USER CODE END USART2_IRQn 1 */
}
 8000b14:	46c0      	nop			; (mov r8, r8)
 8000b16:	46bd      	mov	sp, r7
 8000b18:	bd80      	pop	{r7, pc}
 8000b1a:	46c0      	nop			; (mov r8, r8)
 8000b1c:	200000fc 	.word	0x200000fc

08000b20 <SystemInit>:
  * @brief  Setup the microcontroller system
  * @param  None
  * @retval None
  */
void SystemInit(void)
{
 8000b20:	b580      	push	{r7, lr}
 8000b22:	af00      	add	r7, sp, #0
                         before branch to main program. This call is made inside
                         the "startup_stm32f0xx.s" file.
                         User can setups the default system clock (System clock source, PLL Multiplier
                         and Divider factors, AHB/APBx prescalers and Flash settings).
   */
}
 8000b24:	46c0      	nop			; (mov r8, r8)
 8000b26:	46bd      	mov	sp, r7
 8000b28:	bd80      	pop	{r7, pc}
	...

08000b2c <Reset_Handler>:

  .section .text.Reset_Handler
  .weak Reset_Handler
  .type Reset_Handler, %function
Reset_Handler:
  ldr   r0, =_estack
 8000b2c:	480d      	ldr	r0, [pc, #52]	; (8000b64 <LoopForever+0x2>)
  mov   sp, r0          /* set stack pointer */
 8000b2e:	4685      	mov	sp, r0

/* Copy the data segment initializers from flash to SRAM */
  ldr r0, =_sdata
 8000b30:	480d      	ldr	r0, [pc, #52]	; (8000b68 <LoopForever+0x6>)
  ldr r1, =_edata
 8000b32:	490e      	ldr	r1, [pc, #56]	; (8000b6c <LoopForever+0xa>)
  ldr r2, =_sidata
 8000b34:	4a0e      	ldr	r2, [pc, #56]	; (8000b70 <LoopForever+0xe>)
  movs r3, #0
 8000b36:	2300      	movs	r3, #0
  b LoopCopyDataInit
 8000b38:	e002      	b.n	8000b40 <LoopCopyDataInit>

08000b3a <CopyDataInit>:

CopyDataInit:
  ldr r4, [r2, r3]
 8000b3a:	58d4      	ldr	r4, [r2, r3]
  str r4, [r0, r3]
 8000b3c:	50c4      	str	r4, [r0, r3]
  adds r3, r3, #4
 8000b3e:	3304      	adds	r3, #4

08000b40 <LoopCopyDataInit>:

LoopCopyDataInit:
  adds r4, r0, r3
 8000b40:	18c4      	adds	r4, r0, r3
  cmp r4, r1
 8000b42:	428c      	cmp	r4, r1
  bcc CopyDataInit
 8000b44:	d3f9      	bcc.n	8000b3a <CopyDataInit>
  
/* Zero fill the bss segment. */
  ldr r2, =_sbss
 8000b46:	4a0b      	ldr	r2, [pc, #44]	; (8000b74 <LoopForever+0x12>)
  ldr r4, =_ebss
 8000b48:	4c0b      	ldr	r4, [pc, #44]	; (8000b78 <LoopForever+0x16>)
  movs r3, #0
 8000b4a:	2300      	movs	r3, #0
  b LoopFillZerobss
 8000b4c:	e001      	b.n	8000b52 <LoopFillZerobss>

08000b4e <FillZerobss>:

FillZerobss:
  str  r3, [r2]
 8000b4e:	6013      	str	r3, [r2, #0]
  adds r2, r2, #4
 8000b50:	3204      	adds	r2, #4

08000b52 <LoopFillZerobss>:

LoopFillZerobss:
  cmp r2, r4
 8000b52:	42a2      	cmp	r2, r4
  bcc FillZerobss
 8000b54:	d3fb      	bcc.n	8000b4e <FillZerobss>

/* Call the clock system intitialization function.*/
  bl  SystemInit
 8000b56:	f7ff ffe3 	bl	8000b20 <SystemInit>
/* Call static constructors */
  bl __libc_init_array
 8000b5a:	f003 faa1 	bl	80040a0 <__libc_init_array>
/* Call the application's entry point.*/
  bl main
 8000b5e:	f7ff fb5f 	bl	8000220 <main>

08000b62 <LoopForever>:

LoopForever:
    b LoopForever
 8000b62:	e7fe      	b.n	8000b62 <LoopForever>
  ldr   r0, =_estack
 8000b64:	20002000 	.word	0x20002000
  ldr r0, =_sdata
 8000b68:	20000000 	.word	0x20000000
  ldr r1, =_edata
 8000b6c:	20000014 	.word	0x20000014
  ldr r2, =_sidata
 8000b70:	08004158 	.word	0x08004158
  ldr r2, =_sbss
 8000b74:	20000014 	.word	0x20000014
  ldr r4, =_ebss
 8000b78:	200001c8 	.word	0x200001c8

08000b7c <CEC_CAN_IRQHandler>:
 * @retval : None
*/
    .section .text.Default_Handler,"ax",%progbits
Default_Handler:
Infinite_Loop:
  b Infinite_Loop
 8000b7c:	e7fe      	b.n	8000b7c <CEC_CAN_IRQHandler>
	...

08000b80 <HAL_Init>:
  *       In the default implementation,Systick is used as source of time base.
  *       The tick variable is incremented each 1ms in its ISR.
  * @retval HAL status
  */
HAL_StatusTypeDef HAL_Init(void)
{
 8000b80:	b580      	push	{r7, lr}
 8000b82:	af00      	add	r7, sp, #0
  /* Configure Flash prefetch */ 
#if (PREFETCH_ENABLE != 0)
  __HAL_FLASH_PREFETCH_BUFFER_ENABLE();
 8000b84:	4b07      	ldr	r3, [pc, #28]	; (8000ba4 <HAL_Init+0x24>)
 8000b86:	681a      	ldr	r2, [r3, #0]
 8000b88:	4b06      	ldr	r3, [pc, #24]	; (8000ba4 <HAL_Init+0x24>)
 8000b8a:	2110      	movs	r1, #16
 8000b8c:	430a      	orrs	r2, r1
 8000b8e:	601a      	str	r2, [r3, #0]
#endif /* PREFETCH_ENABLE */

  /* Use systick as time base source and configure 1ms tick (default clock after Reset is HSI) */

  HAL_InitTick(TICK_INT_PRIORITY);
 8000b90:	2000      	movs	r0, #0
 8000b92:	f000 f809 	bl	8000ba8 <HAL_InitTick>

  /* Init the low level hardware */
  HAL_MspInit();
 8000b96:	f7ff fe01 	bl	800079c <HAL_MspInit>

  /* Return function status */
  return HAL_OK;
 8000b9a:	2300      	movs	r3, #0
}
 8000b9c:	0018      	movs	r0, r3
 8000b9e:	46bd      	mov	sp, r7
 8000ba0:	bd80      	pop	{r7, pc}
 8000ba2:	46c0      	nop			; (mov r8, r8)
 8000ba4:	40022000 	.word	0x40022000

08000ba8 <HAL_InitTick>:
  *       implementation  in user file.
  * @param TickPriority Tick interrupt priority.
  * @retval HAL status
  */
__weak HAL_StatusTypeDef HAL_InitTick(uint32_t TickPriority)
{
 8000ba8:	b590      	push	{r4, r7, lr}
 8000baa:	b083      	sub	sp, #12
 8000bac:	af00      	add	r7, sp, #0
 8000bae:	6078      	str	r0, [r7, #4]
  /*Configure the SysTick to have interrupt in 1ms time basis*/
  if (HAL_SYSTICK_Config(SystemCoreClock / (1000U / uwTickFreq)) > 0U)
 8000bb0:	4b14      	ldr	r3, [pc, #80]	; (8000c04 <HAL_InitTick+0x5c>)
 8000bb2:	681c      	ldr	r4, [r3, #0]
 8000bb4:	4b14      	ldr	r3, [pc, #80]	; (8000c08 <HAL_InitTick+0x60>)
 8000bb6:	781b      	ldrb	r3, [r3, #0]
 8000bb8:	0019      	movs	r1, r3
 8000bba:	23fa      	movs	r3, #250	; 0xfa
 8000bbc:	0098      	lsls	r0, r3, #2
 8000bbe:	f7ff faa3 	bl	8000108 <__udivsi3>
 8000bc2:	0003      	movs	r3, r0
 8000bc4:	0019      	movs	r1, r3
 8000bc6:	0020      	movs	r0, r4
 8000bc8:	f7ff fa9e 	bl	8000108 <__udivsi3>
 8000bcc:	0003      	movs	r3, r0
 8000bce:	0018      	movs	r0, r3
 8000bd0:	f000 fc4d 	bl	800146e <HAL_SYSTICK_Config>
 8000bd4:	1e03      	subs	r3, r0, #0
 8000bd6:	d001      	beq.n	8000bdc <HAL_InitTick+0x34>
  {
    return HAL_ERROR;
 8000bd8:	2301      	movs	r3, #1
 8000bda:	e00f      	b.n	8000bfc <HAL_InitTick+0x54>
  }

  /* Configure the SysTick IRQ priority */
  if (TickPriority < (1UL << __NVIC_PRIO_BITS))
 8000bdc:	687b      	ldr	r3, [r7, #4]
 8000bde:	2b03      	cmp	r3, #3
 8000be0:	d80b      	bhi.n	8000bfa <HAL_InitTick+0x52>
  {
    HAL_NVIC_SetPriority(SysTick_IRQn, TickPriority, 0U);
 8000be2:	6879      	ldr	r1, [r7, #4]
 8000be4:	2301      	movs	r3, #1
 8000be6:	425b      	negs	r3, r3
 8000be8:	2200      	movs	r2, #0
 8000bea:	0018      	movs	r0, r3
 8000bec:	f000 fc1a 	bl	8001424 <HAL_NVIC_SetPriority>
    uwTickPrio = TickPriority;
 8000bf0:	4b06      	ldr	r3, [pc, #24]	; (8000c0c <HAL_InitTick+0x64>)
 8000bf2:	687a      	ldr	r2, [r7, #4]
 8000bf4:	601a      	str	r2, [r3, #0]
  {
    return HAL_ERROR;
  }

   /* Return function status */
  return HAL_OK;
 8000bf6:	2300      	movs	r3, #0
 8000bf8:	e000      	b.n	8000bfc <HAL_InitTick+0x54>
    return HAL_ERROR;
 8000bfa:	2301      	movs	r3, #1
}
 8000bfc:	0018      	movs	r0, r3
 8000bfe:	46bd      	mov	sp, r7
 8000c00:	b003      	add	sp, #12
 8000c02:	bd90      	pop	{r4, r7, pc}
 8000c04:	20000008 	.word	0x20000008
 8000c08:	20000010 	.word	0x20000010
 8000c0c:	2000000c 	.word	0x2000000c

08000c10 <HAL_IncTick>:
  * @note This function is declared as __weak to be overwritten in case of other 
  *       implementations in user file.
  * @retval None
  */
__weak void HAL_IncTick(void)
{
 8000c10:	b580      	push	{r7, lr}
 8000c12:	af00      	add	r7, sp, #0
  uwTick += uwTickFreq;
 8000c14:	4b05      	ldr	r3, [pc, #20]	; (8000c2c <HAL_IncTick+0x1c>)
 8000c16:	781b      	ldrb	r3, [r3, #0]
 8000c18:	001a      	movs	r2, r3
 8000c1a:	4b05      	ldr	r3, [pc, #20]	; (8000c30 <HAL_IncTick+0x20>)
 8000c1c:	681b      	ldr	r3, [r3, #0]
 8000c1e:	18d2      	adds	r2, r2, r3
 8000c20:	4b03      	ldr	r3, [pc, #12]	; (8000c30 <HAL_IncTick+0x20>)
 8000c22:	601a      	str	r2, [r3, #0]
}
 8000c24:	46c0      	nop			; (mov r8, r8)
 8000c26:	46bd      	mov	sp, r7
 8000c28:	bd80      	pop	{r7, pc}
 8000c2a:	46c0      	nop			; (mov r8, r8)
 8000c2c:	20000010 	.word	0x20000010
 8000c30:	200001c4 	.word	0x200001c4

08000c34 <HAL_GetTick>:
  * @note   This function is declared as __weak  to be overwritten  in case of other 
  *       implementations in user file.
  * @retval tick value
  */
__weak uint32_t HAL_GetTick(void)
{
 8000c34:	b580      	push	{r7, lr}
 8000c36:	af00      	add	r7, sp, #0
  return uwTick;
 8000c38:	4b02      	ldr	r3, [pc, #8]	; (8000c44 <HAL_GetTick+0x10>)
 8000c3a:	681b      	ldr	r3, [r3, #0]
}
 8000c3c:	0018      	movs	r0, r3
 8000c3e:	46bd      	mov	sp, r7
 8000c40:	bd80      	pop	{r7, pc}
 8000c42:	46c0      	nop			; (mov r8, r8)
 8000c44:	200001c4 	.word	0x200001c4

08000c48 <HAL_Delay>:
  *       implementations in user file.
  * @param Delay specifies the delay time length, in milliseconds.
  * @retval None
  */
__weak void HAL_Delay(uint32_t Delay)
{
 8000c48:	b580      	push	{r7, lr}
 8000c4a:	b084      	sub	sp, #16
 8000c4c:	af00      	add	r7, sp, #0
 8000c4e:	6078      	str	r0, [r7, #4]
  uint32_t tickstart = HAL_GetTick();
 8000c50:	f7ff fff0 	bl	8000c34 <HAL_GetTick>
 8000c54:	0003      	movs	r3, r0
 8000c56:	60bb      	str	r3, [r7, #8]
  uint32_t wait = Delay;
 8000c58:	687b      	ldr	r3, [r7, #4]
 8000c5a:	60fb      	str	r3, [r7, #12]
  
  /* Add a freq to guarantee minimum wait */
  if (wait < HAL_MAX_DELAY)
 8000c5c:	68fb      	ldr	r3, [r7, #12]
 8000c5e:	3301      	adds	r3, #1
 8000c60:	d005      	beq.n	8000c6e <HAL_Delay+0x26>
  {
    wait += (uint32_t)(uwTickFreq);
 8000c62:	4b0a      	ldr	r3, [pc, #40]	; (8000c8c <HAL_Delay+0x44>)
 8000c64:	781b      	ldrb	r3, [r3, #0]
 8000c66:	001a      	movs	r2, r3
 8000c68:	68fb      	ldr	r3, [r7, #12]
 8000c6a:	189b      	adds	r3, r3, r2
 8000c6c:	60fb      	str	r3, [r7, #12]
  }
  
  while((HAL_GetTick() - tickstart) < wait)
 8000c6e:	46c0      	nop			; (mov r8, r8)
 8000c70:	f7ff ffe0 	bl	8000c34 <HAL_GetTick>
 8000c74:	0002      	movs	r2, r0
 8000c76:	68bb      	ldr	r3, [r7, #8]
 8000c78:	1ad3      	subs	r3, r2, r3
 8000c7a:	68fa      	ldr	r2, [r7, #12]
 8000c7c:	429a      	cmp	r2, r3
 8000c7e:	d8f7      	bhi.n	8000c70 <HAL_Delay+0x28>
  {
  }
}
 8000c80:	46c0      	nop			; (mov r8, r8)
 8000c82:	46c0      	nop			; (mov r8, r8)
 8000c84:	46bd      	mov	sp, r7
 8000c86:	b004      	add	sp, #16
 8000c88:	bd80      	pop	{r7, pc}
 8000c8a:	46c0      	nop			; (mov r8, r8)
 8000c8c:	20000010 	.word	0x20000010

08000c90 <HAL_ADC_Init>:
  *         of structure "ADC_InitTypeDef".
  * @param  hadc ADC handle
  * @retval HAL status
  */
HAL_StatusTypeDef HAL_ADC_Init(ADC_HandleTypeDef* hadc)
{
 8000c90:	b580      	push	{r7, lr}
 8000c92:	b084      	sub	sp, #16
 8000c94:	af00      	add	r7, sp, #0
 8000c96:	6078      	str	r0, [r7, #4]
  HAL_StatusTypeDef tmp_hal_status = HAL_OK;
 8000c98:	230f      	movs	r3, #15
 8000c9a:	18fb      	adds	r3, r7, r3
 8000c9c:	2200      	movs	r2, #0
 8000c9e:	701a      	strb	r2, [r3, #0]
  uint32_t tmpCFGR1 = 0U;
 8000ca0:	2300      	movs	r3, #0
 8000ca2:	60bb      	str	r3, [r7, #8]

  /* Check ADC handle */
  if(hadc == NULL)
 8000ca4:	687b      	ldr	r3, [r7, #4]
 8000ca6:	2b00      	cmp	r3, #0
 8000ca8:	d101      	bne.n	8000cae <HAL_ADC_Init+0x1e>
  {
    return HAL_ERROR;
 8000caa:	2301      	movs	r3, #1
 8000cac:	e125      	b.n	8000efa <HAL_ADC_Init+0x26a>
  /* Refer to header of this file for more details on clock enabling procedure*/
  
  /* Actions performed only if ADC is coming from state reset:                */
  /* - Initialization of ADC MSP                                              */
  /* - ADC voltage regulator enable                                           */
  if (hadc->State == HAL_ADC_STATE_RESET)
 8000cae:	687b      	ldr	r3, [r7, #4]
 8000cb0:	6b9b      	ldr	r3, [r3, #56]	; 0x38
 8000cb2:	2b00      	cmp	r3, #0
 8000cb4:	d10a      	bne.n	8000ccc <HAL_ADC_Init+0x3c>
  {
    /* Initialize ADC error code */
    ADC_CLEAR_ERRORCODE(hadc);
 8000cb6:	687b      	ldr	r3, [r7, #4]
 8000cb8:	2200      	movs	r2, #0
 8000cba:	63da      	str	r2, [r3, #60]	; 0x3c
    
    /* Allocate lock resource and initialize it */
    hadc->Lock = HAL_UNLOCKED;
 8000cbc:	687b      	ldr	r3, [r7, #4]
 8000cbe:	2234      	movs	r2, #52	; 0x34
 8000cc0:	2100      	movs	r1, #0
 8000cc2:	5499      	strb	r1, [r3, r2]
    
    /* Init the low level hardware */
    hadc->MspInitCallback(hadc);
#else
    /* Init the low level hardware */
    HAL_ADC_MspInit(hadc);
 8000cc4:	687b      	ldr	r3, [r7, #4]
 8000cc6:	0018      	movs	r0, r3
 8000cc8:	f7ff fd8c 	bl	80007e4 <HAL_ADC_MspInit>
  /* Configuration of ADC parameters if previous preliminary actions are      */ 
  /* correctly completed.                                                     */
  /* and if there is no conversion on going on regular group (ADC can be      */ 
  /* enabled anyway, in case of call of this function to update a parameter   */
  /* on the fly).                                                             */
  if (HAL_IS_BIT_CLR(hadc->State, HAL_ADC_STATE_ERROR_INTERNAL) &&
 8000ccc:	687b      	ldr	r3, [r7, #4]
 8000cce:	6b9b      	ldr	r3, [r3, #56]	; 0x38
 8000cd0:	2210      	movs	r2, #16
 8000cd2:	4013      	ands	r3, r2
 8000cd4:	d000      	beq.n	8000cd8 <HAL_ADC_Init+0x48>
 8000cd6:	e103      	b.n	8000ee0 <HAL_ADC_Init+0x250>
 8000cd8:	230f      	movs	r3, #15
 8000cda:	18fb      	adds	r3, r7, r3
 8000cdc:	781b      	ldrb	r3, [r3, #0]
 8000cde:	2b00      	cmp	r3, #0
 8000ce0:	d000      	beq.n	8000ce4 <HAL_ADC_Init+0x54>
 8000ce2:	e0fd      	b.n	8000ee0 <HAL_ADC_Init+0x250>
      (tmp_hal_status == HAL_OK)                                &&
      (ADC_IS_CONVERSION_ONGOING_REGULAR(hadc) == RESET)          )
 8000ce4:	687b      	ldr	r3, [r7, #4]
 8000ce6:	681b      	ldr	r3, [r3, #0]
 8000ce8:	689b      	ldr	r3, [r3, #8]
 8000cea:	2204      	movs	r2, #4
 8000cec:	4013      	ands	r3, r2
      (tmp_hal_status == HAL_OK)                                &&
 8000cee:	d000      	beq.n	8000cf2 <HAL_ADC_Init+0x62>
 8000cf0:	e0f6      	b.n	8000ee0 <HAL_ADC_Init+0x250>
  {
    /* Set ADC state */
    ADC_STATE_CLR_SET(hadc->State,
 8000cf2:	687b      	ldr	r3, [r7, #4]
 8000cf4:	6b9b      	ldr	r3, [r3, #56]	; 0x38
 8000cf6:	4a83      	ldr	r2, [pc, #524]	; (8000f04 <HAL_ADC_Init+0x274>)
 8000cf8:	4013      	ands	r3, r2
 8000cfa:	2202      	movs	r2, #2
 8000cfc:	431a      	orrs	r2, r3
 8000cfe:	687b      	ldr	r3, [r7, #4]
 8000d00:	639a      	str	r2, [r3, #56]	; 0x38
    /* Parameters update conditioned to ADC state:                            */
    /* Parameters that can be updated only when ADC is disabled:              */
    /*  - ADC clock mode                                                      */
    /*  - ADC clock prescaler                                                 */
    /*  - ADC resolution                                                      */
    if (ADC_IS_ENABLE(hadc) == RESET)
 8000d02:	687b      	ldr	r3, [r7, #4]
 8000d04:	681b      	ldr	r3, [r3, #0]
 8000d06:	689b      	ldr	r3, [r3, #8]
 8000d08:	2203      	movs	r2, #3
 8000d0a:	4013      	ands	r3, r2
 8000d0c:	2b01      	cmp	r3, #1
 8000d0e:	d112      	bne.n	8000d36 <HAL_ADC_Init+0xa6>
 8000d10:	687b      	ldr	r3, [r7, #4]
 8000d12:	681b      	ldr	r3, [r3, #0]
 8000d14:	681b      	ldr	r3, [r3, #0]
 8000d16:	2201      	movs	r2, #1
 8000d18:	4013      	ands	r3, r2
 8000d1a:	2b01      	cmp	r3, #1
 8000d1c:	d009      	beq.n	8000d32 <HAL_ADC_Init+0xa2>
 8000d1e:	687b      	ldr	r3, [r7, #4]
 8000d20:	681b      	ldr	r3, [r3, #0]
 8000d22:	68da      	ldr	r2, [r3, #12]
 8000d24:	2380      	movs	r3, #128	; 0x80
 8000d26:	021b      	lsls	r3, r3, #8
 8000d28:	401a      	ands	r2, r3
 8000d2a:	2380      	movs	r3, #128	; 0x80
 8000d2c:	021b      	lsls	r3, r3, #8
 8000d2e:	429a      	cmp	r2, r3
 8000d30:	d101      	bne.n	8000d36 <HAL_ADC_Init+0xa6>
 8000d32:	2301      	movs	r3, #1
 8000d34:	e000      	b.n	8000d38 <HAL_ADC_Init+0xa8>
 8000d36:	2300      	movs	r3, #0
 8000d38:	2b00      	cmp	r3, #0
 8000d3a:	d116      	bne.n	8000d6a <HAL_ADC_Init+0xda>
      /* parameters):                                                         */
      /*   - internal measurement paths: Vbat, temperature sensor, Vref       */
      /*     (set into HAL_ADC_ConfigChannel() )                              */
     
      /* Configuration of ADC resolution                                      */
      MODIFY_REG(hadc->Instance->CFGR1,
 8000d3c:	687b      	ldr	r3, [r7, #4]
 8000d3e:	681b      	ldr	r3, [r3, #0]
 8000d40:	68db      	ldr	r3, [r3, #12]
 8000d42:	2218      	movs	r2, #24
 8000d44:	4393      	bics	r3, r2
 8000d46:	0019      	movs	r1, r3
 8000d48:	687b      	ldr	r3, [r7, #4]
 8000d4a:	689a      	ldr	r2, [r3, #8]
 8000d4c:	687b      	ldr	r3, [r7, #4]
 8000d4e:	681b      	ldr	r3, [r3, #0]
 8000d50:	430a      	orrs	r2, r1
 8000d52:	60da      	str	r2, [r3, #12]
                 ADC_CFGR1_RES        ,
                 hadc->Init.Resolution );
      
      /* Configuration of ADC clock mode: clock source AHB or HSI with        */
      /* selectable prescaler                                                 */
      MODIFY_REG(hadc->Instance->CFGR2    ,
 8000d54:	687b      	ldr	r3, [r7, #4]
 8000d56:	681b      	ldr	r3, [r3, #0]
 8000d58:	691b      	ldr	r3, [r3, #16]
 8000d5a:	009b      	lsls	r3, r3, #2
 8000d5c:	0899      	lsrs	r1, r3, #2
 8000d5e:	687b      	ldr	r3, [r7, #4]
 8000d60:	685a      	ldr	r2, [r3, #4]
 8000d62:	687b      	ldr	r3, [r7, #4]
 8000d64:	681b      	ldr	r3, [r3, #0]
 8000d66:	430a      	orrs	r2, r1
 8000d68:	611a      	str	r2, [r3, #16]
    /*  - external trigger polarity                                           */
    /*  - data alignment                                                      */
    /*  - resolution                                                          */
    /*  - scan direction                                                      */
    /*  - DMA continuous request                                              */
    hadc->Instance->CFGR1 &= ~( ADC_CFGR1_DISCEN  |
 8000d6a:	687b      	ldr	r3, [r7, #4]
 8000d6c:	681b      	ldr	r3, [r3, #0]
 8000d6e:	68da      	ldr	r2, [r3, #12]
 8000d70:	687b      	ldr	r3, [r7, #4]
 8000d72:	681b      	ldr	r3, [r3, #0]
 8000d74:	4964      	ldr	r1, [pc, #400]	; (8000f08 <HAL_ADC_Init+0x278>)
 8000d76:	400a      	ands	r2, r1
 8000d78:	60da      	str	r2, [r3, #12]
                                ADC_CFGR1_EXTEN   |
                                ADC_CFGR1_ALIGN   |
                                ADC_CFGR1_SCANDIR |
                                ADC_CFGR1_DMACFG   );

    tmpCFGR1 |= (ADC_CFGR1_AUTOWAIT((uint32_t)hadc->Init.LowPowerAutoWait)        |
 8000d7a:	687b      	ldr	r3, [r7, #4]
 8000d7c:	7e1b      	ldrb	r3, [r3, #24]
 8000d7e:	039a      	lsls	r2, r3, #14
                 ADC_CFGR1_AUTOOFF((uint32_t)hadc->Init.LowPowerAutoPowerOff)     |
 8000d80:	687b      	ldr	r3, [r7, #4]
 8000d82:	7e5b      	ldrb	r3, [r3, #25]
 8000d84:	03db      	lsls	r3, r3, #15
    tmpCFGR1 |= (ADC_CFGR1_AUTOWAIT((uint32_t)hadc->Init.LowPowerAutoWait)        |
 8000d86:	431a      	orrs	r2, r3
                 ADC_CFGR1_CONTINUOUS((uint32_t)hadc->Init.ContinuousConvMode)    |
 8000d88:	687b      	ldr	r3, [r7, #4]
 8000d8a:	7e9b      	ldrb	r3, [r3, #26]
 8000d8c:	035b      	lsls	r3, r3, #13
                 ADC_CFGR1_AUTOOFF((uint32_t)hadc->Init.LowPowerAutoPowerOff)     |
 8000d8e:	431a      	orrs	r2, r3
                 ADC_CFGR1_OVERRUN(hadc->Init.Overrun)                            |
 8000d90:	687b      	ldr	r3, [r7, #4]
 8000d92:	6a9b      	ldr	r3, [r3, #40]	; 0x28
 8000d94:	2b01      	cmp	r3, #1
 8000d96:	d002      	beq.n	8000d9e <HAL_ADC_Init+0x10e>
 8000d98:	2380      	movs	r3, #128	; 0x80
 8000d9a:	015b      	lsls	r3, r3, #5
 8000d9c:	e000      	b.n	8000da0 <HAL_ADC_Init+0x110>
 8000d9e:	2300      	movs	r3, #0
                 ADC_CFGR1_CONTINUOUS((uint32_t)hadc->Init.ContinuousConvMode)    |
 8000da0:	431a      	orrs	r2, r3
                 hadc->Init.DataAlign                                             |
 8000da2:	687b      	ldr	r3, [r7, #4]
 8000da4:	68db      	ldr	r3, [r3, #12]
                 ADC_CFGR1_OVERRUN(hadc->Init.Overrun)                            |
 8000da6:	431a      	orrs	r2, r3
                 ADC_SCANDIR(hadc->Init.ScanConvMode)                             |
 8000da8:	687b      	ldr	r3, [r7, #4]
 8000daa:	691b      	ldr	r3, [r3, #16]
 8000dac:	2b02      	cmp	r3, #2
 8000dae:	d101      	bne.n	8000db4 <HAL_ADC_Init+0x124>
 8000db0:	2304      	movs	r3, #4
 8000db2:	e000      	b.n	8000db6 <HAL_ADC_Init+0x126>
 8000db4:	2300      	movs	r3, #0
                 hadc->Init.DataAlign                                             |
 8000db6:	431a      	orrs	r2, r3
                 ADC_CFGR1_DMACONTREQ((uint32_t)hadc->Init.DMAContinuousRequests)  );
 8000db8:	687b      	ldr	r3, [r7, #4]
 8000dba:	2124      	movs	r1, #36	; 0x24
 8000dbc:	5c5b      	ldrb	r3, [r3, r1]
 8000dbe:	005b      	lsls	r3, r3, #1
                 ADC_SCANDIR(hadc->Init.ScanConvMode)                             |
 8000dc0:	4313      	orrs	r3, r2
    tmpCFGR1 |= (ADC_CFGR1_AUTOWAIT((uint32_t)hadc->Init.LowPowerAutoWait)        |
 8000dc2:	68ba      	ldr	r2, [r7, #8]
 8000dc4:	4313      	orrs	r3, r2
 8000dc6:	60bb      	str	r3, [r7, #8]
    
    /* Enable discontinuous mode only if continuous mode is disabled */
    if (hadc->Init.DiscontinuousConvMode == ENABLE)
 8000dc8:	687b      	ldr	r3, [r7, #4]
 8000dca:	7edb      	ldrb	r3, [r3, #27]
 8000dcc:	2b01      	cmp	r3, #1
 8000dce:	d115      	bne.n	8000dfc <HAL_ADC_Init+0x16c>
    {
      if (hadc->Init.ContinuousConvMode == DISABLE)
 8000dd0:	687b      	ldr	r3, [r7, #4]
 8000dd2:	7e9b      	ldrb	r3, [r3, #26]
 8000dd4:	2b00      	cmp	r3, #0
 8000dd6:	d105      	bne.n	8000de4 <HAL_ADC_Init+0x154>
      {
        /* Enable the selected ADC group regular discontinuous mode */
        tmpCFGR1 |= ADC_CFGR1_DISCEN;
 8000dd8:	68bb      	ldr	r3, [r7, #8]
 8000dda:	2280      	movs	r2, #128	; 0x80
 8000ddc:	0252      	lsls	r2, r2, #9
 8000dde:	4313      	orrs	r3, r2
 8000de0:	60bb      	str	r3, [r7, #8]
 8000de2:	e00b      	b.n	8000dfc <HAL_ADC_Init+0x16c>
        /* ADC regular group discontinuous was intended to be enabled,        */
        /* but ADC regular group modes continuous and sequencer discontinuous */
        /* cannot be enabled simultaneously.                                  */
        
        /* Update ADC state machine to error */
        SET_BIT(hadc->State, HAL_ADC_STATE_ERROR_CONFIG);
 8000de4:	687b      	ldr	r3, [r7, #4]
 8000de6:	6b9b      	ldr	r3, [r3, #56]	; 0x38
 8000de8:	2220      	movs	r2, #32
 8000dea:	431a      	orrs	r2, r3
 8000dec:	687b      	ldr	r3, [r7, #4]
 8000dee:	639a      	str	r2, [r3, #56]	; 0x38
        
        /* Set ADC error code to ADC IP internal error */
        SET_BIT(hadc->ErrorCode, HAL_ADC_ERROR_INTERNAL);
 8000df0:	687b      	ldr	r3, [r7, #4]
 8000df2:	6bdb      	ldr	r3, [r3, #60]	; 0x3c
 8000df4:	2201      	movs	r2, #1
 8000df6:	431a      	orrs	r2, r3
 8000df8:	687b      	ldr	r3, [r7, #4]
 8000dfa:	63da      	str	r2, [r3, #60]	; 0x3c
    /* Enable external trigger if trigger selection is different of software  */
    /* start.                                                                 */
    /* Note: This configuration keeps the hardware feature of parameter       */
    /*       ExternalTrigConvEdge "trigger edge none" equivalent to           */
    /*       software start.                                                  */
    if (hadc->Init.ExternalTrigConv != ADC_SOFTWARE_START)
 8000dfc:	687b      	ldr	r3, [r7, #4]
 8000dfe:	69da      	ldr	r2, [r3, #28]
 8000e00:	23c2      	movs	r3, #194	; 0xc2
 8000e02:	33ff      	adds	r3, #255	; 0xff
 8000e04:	429a      	cmp	r2, r3
 8000e06:	d007      	beq.n	8000e18 <HAL_ADC_Init+0x188>
    {
      tmpCFGR1 |= ( hadc->Init.ExternalTrigConv    |
 8000e08:	687b      	ldr	r3, [r7, #4]
 8000e0a:	69da      	ldr	r2, [r3, #28]
                    hadc->Init.ExternalTrigConvEdge );
 8000e0c:	687b      	ldr	r3, [r7, #4]
 8000e0e:	6a1b      	ldr	r3, [r3, #32]
      tmpCFGR1 |= ( hadc->Init.ExternalTrigConv    |
 8000e10:	4313      	orrs	r3, r2
 8000e12:	68ba      	ldr	r2, [r7, #8]
 8000e14:	4313      	orrs	r3, r2
 8000e16:	60bb      	str	r3, [r7, #8]
    }
    
    /* Update ADC configuration register with previous settings */
    hadc->Instance->CFGR1 |= tmpCFGR1;
 8000e18:	687b      	ldr	r3, [r7, #4]
 8000e1a:	681b      	ldr	r3, [r3, #0]
 8000e1c:	68d9      	ldr	r1, [r3, #12]
 8000e1e:	687b      	ldr	r3, [r7, #4]
 8000e20:	681b      	ldr	r3, [r3, #0]
 8000e22:	68ba      	ldr	r2, [r7, #8]
 8000e24:	430a      	orrs	r2, r1
 8000e26:	60da      	str	r2, [r3, #12]
    /* Management of parameters "SamplingTimeCommon" and "SamplingTime"       */
    /* (obsolete): sampling time set in this function if parameter            */
    /*  "SamplingTimeCommon" has been set to a valid sampling time.           */
    /* Otherwise, sampling time is set into ADC channel initialization        */
    /* structure with parameter "SamplingTime" (obsolete).                    */
    if (IS_ADC_SAMPLE_TIME(hadc->Init.SamplingTimeCommon))
 8000e28:	687b      	ldr	r3, [r7, #4]
 8000e2a:	6ada      	ldr	r2, [r3, #44]	; 0x2c
 8000e2c:	2380      	movs	r3, #128	; 0x80
 8000e2e:	055b      	lsls	r3, r3, #21
 8000e30:	429a      	cmp	r2, r3
 8000e32:	d01b      	beq.n	8000e6c <HAL_ADC_Init+0x1dc>
 8000e34:	687b      	ldr	r3, [r7, #4]
 8000e36:	6adb      	ldr	r3, [r3, #44]	; 0x2c
 8000e38:	2b01      	cmp	r3, #1
 8000e3a:	d017      	beq.n	8000e6c <HAL_ADC_Init+0x1dc>
 8000e3c:	687b      	ldr	r3, [r7, #4]
 8000e3e:	6adb      	ldr	r3, [r3, #44]	; 0x2c
 8000e40:	2b02      	cmp	r3, #2
 8000e42:	d013      	beq.n	8000e6c <HAL_ADC_Init+0x1dc>
 8000e44:	687b      	ldr	r3, [r7, #4]
 8000e46:	6adb      	ldr	r3, [r3, #44]	; 0x2c
 8000e48:	2b03      	cmp	r3, #3
 8000e4a:	d00f      	beq.n	8000e6c <HAL_ADC_Init+0x1dc>
 8000e4c:	687b      	ldr	r3, [r7, #4]
 8000e4e:	6adb      	ldr	r3, [r3, #44]	; 0x2c
 8000e50:	2b04      	cmp	r3, #4
 8000e52:	d00b      	beq.n	8000e6c <HAL_ADC_Init+0x1dc>
 8000e54:	687b      	ldr	r3, [r7, #4]
 8000e56:	6adb      	ldr	r3, [r3, #44]	; 0x2c
 8000e58:	2b05      	cmp	r3, #5
 8000e5a:	d007      	beq.n	8000e6c <HAL_ADC_Init+0x1dc>
 8000e5c:	687b      	ldr	r3, [r7, #4]
 8000e5e:	6adb      	ldr	r3, [r3, #44]	; 0x2c
 8000e60:	2b06      	cmp	r3, #6
 8000e62:	d003      	beq.n	8000e6c <HAL_ADC_Init+0x1dc>
 8000e64:	687b      	ldr	r3, [r7, #4]
 8000e66:	6adb      	ldr	r3, [r3, #44]	; 0x2c
 8000e68:	2b07      	cmp	r3, #7
 8000e6a:	d112      	bne.n	8000e92 <HAL_ADC_Init+0x202>
    {
      /* Channel sampling time configuration */
      /* Clear the old sample time */
      hadc->Instance->SMPR &= ~(ADC_SMPR_SMP);
 8000e6c:	687b      	ldr	r3, [r7, #4]
 8000e6e:	681b      	ldr	r3, [r3, #0]
 8000e70:	695a      	ldr	r2, [r3, #20]
 8000e72:	687b      	ldr	r3, [r7, #4]
 8000e74:	681b      	ldr	r3, [r3, #0]
 8000e76:	2107      	movs	r1, #7
 8000e78:	438a      	bics	r2, r1
 8000e7a:	615a      	str	r2, [r3, #20]
      
      /* Set the new sample time */
      hadc->Instance->SMPR |= ADC_SMPR_SET(hadc->Init.SamplingTimeCommon);
 8000e7c:	687b      	ldr	r3, [r7, #4]
 8000e7e:	681b      	ldr	r3, [r3, #0]
 8000e80:	6959      	ldr	r1, [r3, #20]
 8000e82:	687b      	ldr	r3, [r7, #4]
 8000e84:	6adb      	ldr	r3, [r3, #44]	; 0x2c
 8000e86:	2207      	movs	r2, #7
 8000e88:	401a      	ands	r2, r3
 8000e8a:	687b      	ldr	r3, [r7, #4]
 8000e8c:	681b      	ldr	r3, [r3, #0]
 8000e8e:	430a      	orrs	r2, r1
 8000e90:	615a      	str	r2, [r3, #20]
    /* Check back that ADC registers have effectively been configured to      */
    /* ensure of no potential problem of ADC core IP clocking.                */
    /* Check through register CFGR1 (excluding analog watchdog configuration: */
    /* set into separate dedicated function, and bits of ADC resolution set   */
    /* out of temporary variable 'tmpCFGR1').                                 */
    if ((hadc->Instance->CFGR1 & ~(ADC_CFGR1_AWDCH | ADC_CFGR1_AWDEN | ADC_CFGR1_AWDSGL | ADC_CFGR1_RES))
 8000e92:	687b      	ldr	r3, [r7, #4]
 8000e94:	681b      	ldr	r3, [r3, #0]
 8000e96:	68db      	ldr	r3, [r3, #12]
 8000e98:	4a1c      	ldr	r2, [pc, #112]	; (8000f0c <HAL_ADC_Init+0x27c>)
 8000e9a:	4013      	ands	r3, r2
 8000e9c:	68ba      	ldr	r2, [r7, #8]
 8000e9e:	429a      	cmp	r2, r3
 8000ea0:	d10b      	bne.n	8000eba <HAL_ADC_Init+0x22a>
         == tmpCFGR1)
    {
      /* Set ADC error code to none */
      ADC_CLEAR_ERRORCODE(hadc);
 8000ea2:	687b      	ldr	r3, [r7, #4]
 8000ea4:	2200      	movs	r2, #0
 8000ea6:	63da      	str	r2, [r3, #60]	; 0x3c
      
      /* Set the ADC state */
      ADC_STATE_CLR_SET(hadc->State,
 8000ea8:	687b      	ldr	r3, [r7, #4]
 8000eaa:	6b9b      	ldr	r3, [r3, #56]	; 0x38
 8000eac:	2203      	movs	r2, #3
 8000eae:	4393      	bics	r3, r2
 8000eb0:	2201      	movs	r2, #1
 8000eb2:	431a      	orrs	r2, r3
 8000eb4:	687b      	ldr	r3, [r7, #4]
 8000eb6:	639a      	str	r2, [r3, #56]	; 0x38
    if ((hadc->Instance->CFGR1 & ~(ADC_CFGR1_AWDCH | ADC_CFGR1_AWDEN | ADC_CFGR1_AWDSGL | ADC_CFGR1_RES))
 8000eb8:	e01c      	b.n	8000ef4 <HAL_ADC_Init+0x264>
                        HAL_ADC_STATE_READY);
    }
    else
    {
      /* Update ADC state machine to error */
      ADC_STATE_CLR_SET(hadc->State,
 8000eba:	687b      	ldr	r3, [r7, #4]
 8000ebc:	6b9b      	ldr	r3, [r3, #56]	; 0x38
 8000ebe:	2212      	movs	r2, #18
 8000ec0:	4393      	bics	r3, r2
 8000ec2:	2210      	movs	r2, #16
 8000ec4:	431a      	orrs	r2, r3
 8000ec6:	687b      	ldr	r3, [r7, #4]
 8000ec8:	639a      	str	r2, [r3, #56]	; 0x38
                        HAL_ADC_STATE_BUSY_INTERNAL,
                        HAL_ADC_STATE_ERROR_INTERNAL);
      
      /* Set ADC error code to ADC IP internal error */
      SET_BIT(hadc->ErrorCode, HAL_ADC_ERROR_INTERNAL);
 8000eca:	687b      	ldr	r3, [r7, #4]
 8000ecc:	6bdb      	ldr	r3, [r3, #60]	; 0x3c
 8000ece:	2201      	movs	r2, #1
 8000ed0:	431a      	orrs	r2, r3
 8000ed2:	687b      	ldr	r3, [r7, #4]
 8000ed4:	63da      	str	r2, [r3, #60]	; 0x3c
      
      tmp_hal_status = HAL_ERROR;
 8000ed6:	230f      	movs	r3, #15
 8000ed8:	18fb      	adds	r3, r7, r3
 8000eda:	2201      	movs	r2, #1
 8000edc:	701a      	strb	r2, [r3, #0]
    if ((hadc->Instance->CFGR1 & ~(ADC_CFGR1_AWDCH | ADC_CFGR1_AWDEN | ADC_CFGR1_AWDSGL | ADC_CFGR1_RES))
 8000ede:	e009      	b.n	8000ef4 <HAL_ADC_Init+0x264>
  
  }
  else
  {
    /* Update ADC state machine to error */
    SET_BIT(hadc->State, HAL_ADC_STATE_ERROR_INTERNAL);
 8000ee0:	687b      	ldr	r3, [r7, #4]
 8000ee2:	6b9b      	ldr	r3, [r3, #56]	; 0x38
 8000ee4:	2210      	movs	r2, #16
 8000ee6:	431a      	orrs	r2, r3
 8000ee8:	687b      	ldr	r3, [r7, #4]
 8000eea:	639a      	str	r2, [r3, #56]	; 0x38
        
    tmp_hal_status = HAL_ERROR;
 8000eec:	230f      	movs	r3, #15
 8000eee:	18fb      	adds	r3, r7, r3
 8000ef0:	2201      	movs	r2, #1
 8000ef2:	701a      	strb	r2, [r3, #0]
  }
  
  /* Return function status */
  return tmp_hal_status;
 8000ef4:	230f      	movs	r3, #15
 8000ef6:	18fb      	adds	r3, r7, r3
 8000ef8:	781b      	ldrb	r3, [r3, #0]
}
 8000efa:	0018      	movs	r0, r3
 8000efc:	46bd      	mov	sp, r7
 8000efe:	b004      	add	sp, #16
 8000f00:	bd80      	pop	{r7, pc}
 8000f02:	46c0      	nop			; (mov r8, r8)
 8000f04:	fffffefd 	.word	0xfffffefd
 8000f08:	fffe0219 	.word	0xfffe0219
 8000f0c:	833fffe7 	.word	0x833fffe7

08000f10 <HAL_ADC_IRQHandler>:
  * @brief  Handles ADC interrupt request.  
  * @param  hadc ADC handle
  * @retval None
  */
void HAL_ADC_IRQHandler(ADC_HandleTypeDef* hadc)
{
 8000f10:	b580      	push	{r7, lr}
 8000f12:	b082      	sub	sp, #8
 8000f14:	af00      	add	r7, sp, #0
 8000f16:	6078      	str	r0, [r7, #4]
  assert_param(IS_ADC_ALL_INSTANCE(hadc->Instance));
  assert_param(IS_FUNCTIONAL_STATE(hadc->Init.ContinuousConvMode));
  assert_param(IS_ADC_EOC_SELECTION(hadc->Init.EOCSelection));
  
  /* ========== Check End of Conversion flag for regular group ========== */
  if( (__HAL_ADC_GET_FLAG(hadc, ADC_FLAG_EOC) && __HAL_ADC_GET_IT_SOURCE(hadc, ADC_IT_EOC)) || 
 8000f18:	687b      	ldr	r3, [r7, #4]
 8000f1a:	681b      	ldr	r3, [r3, #0]
 8000f1c:	681b      	ldr	r3, [r3, #0]
 8000f1e:	2204      	movs	r2, #4
 8000f20:	4013      	ands	r3, r2
 8000f22:	2b04      	cmp	r3, #4
 8000f24:	d106      	bne.n	8000f34 <HAL_ADC_IRQHandler+0x24>
 8000f26:	687b      	ldr	r3, [r7, #4]
 8000f28:	681b      	ldr	r3, [r3, #0]
 8000f2a:	685b      	ldr	r3, [r3, #4]
 8000f2c:	2204      	movs	r2, #4
 8000f2e:	4013      	ands	r3, r2
 8000f30:	2b04      	cmp	r3, #4
 8000f32:	d00d      	beq.n	8000f50 <HAL_ADC_IRQHandler+0x40>
      (__HAL_ADC_GET_FLAG(hadc, ADC_FLAG_EOS) && __HAL_ADC_GET_IT_SOURCE(hadc, ADC_IT_EOS))   )
 8000f34:	687b      	ldr	r3, [r7, #4]
 8000f36:	681b      	ldr	r3, [r3, #0]
 8000f38:	681b      	ldr	r3, [r3, #0]
 8000f3a:	2208      	movs	r2, #8
 8000f3c:	4013      	ands	r3, r2
  if( (__HAL_ADC_GET_FLAG(hadc, ADC_FLAG_EOC) && __HAL_ADC_GET_IT_SOURCE(hadc, ADC_IT_EOC)) || 
 8000f3e:	2b08      	cmp	r3, #8
 8000f40:	d14f      	bne.n	8000fe2 <HAL_ADC_IRQHandler+0xd2>
      (__HAL_ADC_GET_FLAG(hadc, ADC_FLAG_EOS) && __HAL_ADC_GET_IT_SOURCE(hadc, ADC_IT_EOS))   )
 8000f42:	687b      	ldr	r3, [r7, #4]
 8000f44:	681b      	ldr	r3, [r3, #0]
 8000f46:	685b      	ldr	r3, [r3, #4]
 8000f48:	2208      	movs	r2, #8
 8000f4a:	4013      	ands	r3, r2
 8000f4c:	2b08      	cmp	r3, #8
 8000f4e:	d148      	bne.n	8000fe2 <HAL_ADC_IRQHandler+0xd2>
  {
    /* Update state machine on conversion status if not in error state */
    if (HAL_IS_BIT_CLR(hadc->State, HAL_ADC_STATE_ERROR_INTERNAL))
 8000f50:	687b      	ldr	r3, [r7, #4]
 8000f52:	6b9b      	ldr	r3, [r3, #56]	; 0x38
 8000f54:	2210      	movs	r2, #16
 8000f56:	4013      	ands	r3, r2
 8000f58:	d106      	bne.n	8000f68 <HAL_ADC_IRQHandler+0x58>
    {
      /* Set ADC state */
      SET_BIT(hadc->State, HAL_ADC_STATE_REG_EOC); 
 8000f5a:	687b      	ldr	r3, [r7, #4]
 8000f5c:	6b9b      	ldr	r3, [r3, #56]	; 0x38
 8000f5e:	2280      	movs	r2, #128	; 0x80
 8000f60:	0092      	lsls	r2, r2, #2
 8000f62:	431a      	orrs	r2, r3
 8000f64:	687b      	ldr	r3, [r7, #4]
 8000f66:	639a      	str	r2, [r3, #56]	; 0x38
    }
    
    /* Determine whether any further conversion upcoming on group regular     */
    /* by external trigger, continuous mode or scan sequence on going.        */
    if(ADC_IS_SOFTWARE_START_REGULAR(hadc)        && 
 8000f68:	687b      	ldr	r3, [r7, #4]
 8000f6a:	681b      	ldr	r3, [r3, #0]
 8000f6c:	68da      	ldr	r2, [r3, #12]
 8000f6e:	23c0      	movs	r3, #192	; 0xc0
 8000f70:	011b      	lsls	r3, r3, #4
 8000f72:	4013      	ands	r3, r2
 8000f74:	d12d      	bne.n	8000fd2 <HAL_ADC_IRQHandler+0xc2>
       (hadc->Init.ContinuousConvMode == DISABLE)   )
 8000f76:	687b      	ldr	r3, [r7, #4]
 8000f78:	7e9b      	ldrb	r3, [r3, #26]
    if(ADC_IS_SOFTWARE_START_REGULAR(hadc)        && 
 8000f7a:	2b00      	cmp	r3, #0
 8000f7c:	d129      	bne.n	8000fd2 <HAL_ADC_IRQHandler+0xc2>
    {
      /* If End of Sequence is reached, disable interrupts */
      if( __HAL_ADC_GET_FLAG(hadc, ADC_FLAG_EOS) )
 8000f7e:	687b      	ldr	r3, [r7, #4]
 8000f80:	681b      	ldr	r3, [r3, #0]
 8000f82:	681b      	ldr	r3, [r3, #0]
 8000f84:	2208      	movs	r2, #8
 8000f86:	4013      	ands	r3, r2
 8000f88:	2b08      	cmp	r3, #8
 8000f8a:	d122      	bne.n	8000fd2 <HAL_ADC_IRQHandler+0xc2>
      {
        /* Allowed to modify bits ADC_IT_EOC/ADC_IT_EOS only if bit           */
        /* ADSTART==0 (no conversion on going)                                */
        if (ADC_IS_CONVERSION_ONGOING_REGULAR(hadc) == RESET)
 8000f8c:	687b      	ldr	r3, [r7, #4]
 8000f8e:	681b      	ldr	r3, [r3, #0]
 8000f90:	689b      	ldr	r3, [r3, #8]
 8000f92:	2204      	movs	r2, #4
 8000f94:	4013      	ands	r3, r2
 8000f96:	d110      	bne.n	8000fba <HAL_ADC_IRQHandler+0xaa>
        {
          /* Disable ADC end of single conversion interrupt on group regular */
          /* Note: Overrun interrupt was enabled with EOC interrupt in        */
          /* HAL_Start_IT(), but is not disabled here because can be used     */
          /* by overrun IRQ process below.                                    */
          __HAL_ADC_DISABLE_IT(hadc, ADC_IT_EOC | ADC_IT_EOS);
 8000f98:	687b      	ldr	r3, [r7, #4]
 8000f9a:	681b      	ldr	r3, [r3, #0]
 8000f9c:	685a      	ldr	r2, [r3, #4]
 8000f9e:	687b      	ldr	r3, [r7, #4]
 8000fa0:	681b      	ldr	r3, [r3, #0]
 8000fa2:	210c      	movs	r1, #12
 8000fa4:	438a      	bics	r2, r1
 8000fa6:	605a      	str	r2, [r3, #4]
          
          /* Set ADC state */
          ADC_STATE_CLR_SET(hadc->State,
 8000fa8:	687b      	ldr	r3, [r7, #4]
 8000faa:	6b9b      	ldr	r3, [r3, #56]	; 0x38
 8000fac:	4a33      	ldr	r2, [pc, #204]	; (800107c <HAL_ADC_IRQHandler+0x16c>)
 8000fae:	4013      	ands	r3, r2
 8000fb0:	2201      	movs	r2, #1
 8000fb2:	431a      	orrs	r2, r3
 8000fb4:	687b      	ldr	r3, [r7, #4]
 8000fb6:	639a      	str	r2, [r3, #56]	; 0x38
 8000fb8:	e00b      	b.n	8000fd2 <HAL_ADC_IRQHandler+0xc2>
                            HAL_ADC_STATE_READY);
        }
        else
        {
          /* Change ADC state to error state */
          SET_BIT(hadc->State, HAL_ADC_STATE_ERROR_CONFIG);
 8000fba:	687b      	ldr	r3, [r7, #4]
 8000fbc:	6b9b      	ldr	r3, [r3, #56]	; 0x38
 8000fbe:	2220      	movs	r2, #32
 8000fc0:	431a      	orrs	r2, r3
 8000fc2:	687b      	ldr	r3, [r7, #4]
 8000fc4:	639a      	str	r2, [r3, #56]	; 0x38
          
          /* Set ADC error code to ADC IP internal error */
          SET_BIT(hadc->ErrorCode, HAL_ADC_ERROR_INTERNAL);
 8000fc6:	687b      	ldr	r3, [r7, #4]
 8000fc8:	6bdb      	ldr	r3, [r3, #60]	; 0x3c
 8000fca:	2201      	movs	r2, #1
 8000fcc:	431a      	orrs	r2, r3
 8000fce:	687b      	ldr	r3, [r7, #4]
 8000fd0:	63da      	str	r2, [r3, #60]	; 0x3c
    /*       from EOC or EOS, possibility to use:                             */
    /*        " if( __HAL_ADC_GET_FLAG(&hadc, ADC_FLAG_EOS)) "                */
#if (USE_HAL_ADC_REGISTER_CALLBACKS == 1)
      hadc->ConvCpltCallback(hadc);
#else
    HAL_ADC_ConvCpltCallback(hadc);
 8000fd2:	687b      	ldr	r3, [r7, #4]
 8000fd4:	0018      	movs	r0, r3
 8000fd6:	f000 f853 	bl	8001080 <HAL_ADC_ConvCpltCallback>
    /* Clear regular group conversion flag */
    /* Note: in case of overrun set to ADC_OVR_DATA_PRESERVED, end of         */
    /*       conversion flags clear induces the release of the preserved data.*/
    /*       Therefore, if the preserved data value is needed, it must be     */
    /*       read preliminarily into HAL_ADC_ConvCpltCallback().              */
    __HAL_ADC_CLEAR_FLAG(hadc, (ADC_FLAG_EOC | ADC_FLAG_EOS) );
 8000fda:	687b      	ldr	r3, [r7, #4]
 8000fdc:	681b      	ldr	r3, [r3, #0]
 8000fde:	220c      	movs	r2, #12
 8000fe0:	601a      	str	r2, [r3, #0]
  }
   
  /* ========== Check Analog watchdog flags ========== */
  if(__HAL_ADC_GET_FLAG(hadc, ADC_FLAG_AWD) && __HAL_ADC_GET_IT_SOURCE(hadc, ADC_IT_AWD))
 8000fe2:	687b      	ldr	r3, [r7, #4]
 8000fe4:	681b      	ldr	r3, [r3, #0]
 8000fe6:	681b      	ldr	r3, [r3, #0]
 8000fe8:	2280      	movs	r2, #128	; 0x80
 8000fea:	4013      	ands	r3, r2
 8000fec:	2b80      	cmp	r3, #128	; 0x80
 8000fee:	d115      	bne.n	800101c <HAL_ADC_IRQHandler+0x10c>
 8000ff0:	687b      	ldr	r3, [r7, #4]
 8000ff2:	681b      	ldr	r3, [r3, #0]
 8000ff4:	685b      	ldr	r3, [r3, #4]
 8000ff6:	2280      	movs	r2, #128	; 0x80
 8000ff8:	4013      	ands	r3, r2
 8000ffa:	2b80      	cmp	r3, #128	; 0x80
 8000ffc:	d10e      	bne.n	800101c <HAL_ADC_IRQHandler+0x10c>
  {
      /* Set ADC state */
      SET_BIT(hadc->State, HAL_ADC_STATE_AWD1);
 8000ffe:	687b      	ldr	r3, [r7, #4]
 8001000:	6b9b      	ldr	r3, [r3, #56]	; 0x38
 8001002:	2280      	movs	r2, #128	; 0x80
 8001004:	0252      	lsls	r2, r2, #9
 8001006:	431a      	orrs	r2, r3
 8001008:	687b      	ldr	r3, [r7, #4]
 800100a:	639a      	str	r2, [r3, #56]	; 0x38

#if (USE_HAL_ADC_REGISTER_CALLBACKS == 1)
      hadc->LevelOutOfWindowCallback(hadc);
#else
    HAL_ADC_LevelOutOfWindowCallback(hadc);
 800100c:	687b      	ldr	r3, [r7, #4]
 800100e:	0018      	movs	r0, r3
 8001010:	f000 f83e 	bl	8001090 <HAL_ADC_LevelOutOfWindowCallback>
#endif /* USE_HAL_ADC_REGISTER_CALLBACKS */
    
    /* Clear ADC Analog watchdog flag */
    __HAL_ADC_CLEAR_FLAG(hadc, ADC_FLAG_AWD);
 8001014:	687b      	ldr	r3, [r7, #4]
 8001016:	681b      	ldr	r3, [r3, #0]
 8001018:	2280      	movs	r2, #128	; 0x80
 800101a:	601a      	str	r2, [r3, #0]
   
  }
  
  
  /* ========== Check Overrun flag ========== */
  if(__HAL_ADC_GET_FLAG(hadc, ADC_FLAG_OVR) && __HAL_ADC_GET_IT_SOURCE(hadc, ADC_IT_OVR))
 800101c:	687b      	ldr	r3, [r7, #4]
 800101e:	681b      	ldr	r3, [r3, #0]
 8001020:	681b      	ldr	r3, [r3, #0]
 8001022:	2210      	movs	r2, #16
 8001024:	4013      	ands	r3, r2
 8001026:	2b10      	cmp	r3, #16
 8001028:	d123      	bne.n	8001072 <HAL_ADC_IRQHandler+0x162>
 800102a:	687b      	ldr	r3, [r7, #4]
 800102c:	681b      	ldr	r3, [r3, #0]
 800102e:	685b      	ldr	r3, [r3, #4]
 8001030:	2210      	movs	r2, #16
 8001032:	4013      	ands	r3, r2
 8001034:	2b10      	cmp	r3, #16
 8001036:	d11c      	bne.n	8001072 <HAL_ADC_IRQHandler+0x162>
    /* overrun event is not considered as an error.                           */
    /* (cf ref manual "Managing conversions without using the DMA and without */
    /* overrun ")                                                             */
    /* Exception for usage with DMA overrun event always considered as an     */
    /* error.                                                                 */
    if ((hadc->Init.Overrun == ADC_OVR_DATA_PRESERVED)            ||
 8001038:	687b      	ldr	r3, [r7, #4]
 800103a:	6a9b      	ldr	r3, [r3, #40]	; 0x28
 800103c:	2b01      	cmp	r3, #1
 800103e:	d006      	beq.n	800104e <HAL_ADC_IRQHandler+0x13e>
        HAL_IS_BIT_SET(hadc->Instance->CFGR1, ADC_CFGR1_DMAEN)  )
 8001040:	687b      	ldr	r3, [r7, #4]
 8001042:	681b      	ldr	r3, [r3, #0]
 8001044:	68db      	ldr	r3, [r3, #12]
 8001046:	2201      	movs	r2, #1
 8001048:	4013      	ands	r3, r2
    if ((hadc->Init.Overrun == ADC_OVR_DATA_PRESERVED)            ||
 800104a:	2b01      	cmp	r3, #1
 800104c:	d10d      	bne.n	800106a <HAL_ADC_IRQHandler+0x15a>
    {
      /* Set ADC error code to overrun */
      SET_BIT(hadc->ErrorCode, HAL_ADC_ERROR_OVR);
 800104e:	687b      	ldr	r3, [r7, #4]
 8001050:	6bdb      	ldr	r3, [r3, #60]	; 0x3c
 8001052:	2202      	movs	r2, #2
 8001054:	431a      	orrs	r2, r3
 8001056:	687b      	ldr	r3, [r7, #4]
 8001058:	63da      	str	r2, [r3, #60]	; 0x3c
      
      /* Clear ADC overrun flag */
      __HAL_ADC_CLEAR_FLAG(hadc, ADC_FLAG_OVR);
 800105a:	687b      	ldr	r3, [r7, #4]
 800105c:	681b      	ldr	r3, [r3, #0]
 800105e:	2210      	movs	r2, #16
 8001060:	601a      	str	r2, [r3, #0]
      
#if (USE_HAL_ADC_REGISTER_CALLBACKS == 1)
      hadc->ErrorCallback(hadc);
#else
      HAL_ADC_ErrorCallback(hadc);
 8001062:	687b      	ldr	r3, [r7, #4]
 8001064:	0018      	movs	r0, r3
 8001066:	f000 f81b 	bl	80010a0 <HAL_ADC_ErrorCallback>
#endif /* USE_HAL_ADC_REGISTER_CALLBACKS */
    }
    
    /* Clear the Overrun flag */
    __HAL_ADC_CLEAR_FLAG(hadc, ADC_FLAG_OVR);
 800106a:	687b      	ldr	r3, [r7, #4]
 800106c:	681b      	ldr	r3, [r3, #0]
 800106e:	2210      	movs	r2, #16
 8001070:	601a      	str	r2, [r3, #0]
  }

}
 8001072:	46c0      	nop			; (mov r8, r8)
 8001074:	46bd      	mov	sp, r7
 8001076:	b002      	add	sp, #8
 8001078:	bd80      	pop	{r7, pc}
 800107a:	46c0      	nop			; (mov r8, r8)
 800107c:	fffffefe 	.word	0xfffffefe

08001080 <HAL_ADC_ConvCpltCallback>:
  * @brief  Conversion complete callback in non blocking mode 
  * @param  hadc ADC handle
  * @retval None
  */
__weak void HAL_ADC_ConvCpltCallback(ADC_HandleTypeDef* hadc)
{
 8001080:	b580      	push	{r7, lr}
 8001082:	b082      	sub	sp, #8
 8001084:	af00      	add	r7, sp, #0
 8001086:	6078      	str	r0, [r7, #4]
  UNUSED(hadc);

  /* NOTE : This function should not be modified. When the callback is needed,
            function HAL_ADC_ConvCpltCallback must be implemented in the user file.
   */
}
 8001088:	46c0      	nop			; (mov r8, r8)
 800108a:	46bd      	mov	sp, r7
 800108c:	b002      	add	sp, #8
 800108e:	bd80      	pop	{r7, pc}

08001090 <HAL_ADC_LevelOutOfWindowCallback>:
  * @brief  Analog watchdog callback in non blocking mode. 
  * @param  hadc ADC handle
  * @retval None
  */
__weak void HAL_ADC_LevelOutOfWindowCallback(ADC_HandleTypeDef* hadc)
{
 8001090:	b580      	push	{r7, lr}
 8001092:	b082      	sub	sp, #8
 8001094:	af00      	add	r7, sp, #0
 8001096:	6078      	str	r0, [r7, #4]
  UNUSED(hadc);

  /* NOTE : This function should not be modified. When the callback is needed,
            function HAL_ADC_LevelOoutOfWindowCallback must be implemented in the user file.
  */
}
 8001098:	46c0      	nop			; (mov r8, r8)
 800109a:	46bd      	mov	sp, r7
 800109c:	b002      	add	sp, #8
 800109e:	bd80      	pop	{r7, pc}

080010a0 <HAL_ADC_ErrorCallback>:
  *        (ADC conversion with interruption or transfer by DMA)
  * @param  hadc ADC handle
  * @retval None
  */
__weak void HAL_ADC_ErrorCallback(ADC_HandleTypeDef *hadc)
{
 80010a0:	b580      	push	{r7, lr}
 80010a2:	b082      	sub	sp, #8
 80010a4:	af00      	add	r7, sp, #0
 80010a6:	6078      	str	r0, [r7, #4]
  UNUSED(hadc);

  /* NOTE : This function should not be modified. When the callback is needed,
            function HAL_ADC_ErrorCallback must be implemented in the user file.
  */
}
 80010a8:	46c0      	nop			; (mov r8, r8)
 80010aa:	46bd      	mov	sp, r7
 80010ac:	b002      	add	sp, #8
 80010ae:	bd80      	pop	{r7, pc}

080010b0 <HAL_ADC_ConfigChannel>:
  * @param  hadc ADC handle
  * @param  sConfig Structure of ADC channel for regular group.
  * @retval HAL status
  */
HAL_StatusTypeDef HAL_ADC_ConfigChannel(ADC_HandleTypeDef* hadc, ADC_ChannelConfTypeDef* sConfig)
{
 80010b0:	b580      	push	{r7, lr}
 80010b2:	b084      	sub	sp, #16
 80010b4:	af00      	add	r7, sp, #0
 80010b6:	6078      	str	r0, [r7, #4]
 80010b8:	6039      	str	r1, [r7, #0]
  HAL_StatusTypeDef tmp_hal_status = HAL_OK;
 80010ba:	230f      	movs	r3, #15
 80010bc:	18fb      	adds	r3, r7, r3
 80010be:	2200      	movs	r2, #0
 80010c0:	701a      	strb	r2, [r3, #0]
  __IO uint32_t wait_loop_index = 0U;
 80010c2:	2300      	movs	r3, #0
 80010c4:	60bb      	str	r3, [r7, #8]
  /* Check the parameters */
  assert_param(IS_ADC_ALL_INSTANCE(hadc->Instance));
  assert_param(IS_ADC_CHANNEL(sConfig->Channel));
  assert_param(IS_ADC_RANK(sConfig->Rank));
  
  if (! IS_ADC_SAMPLE_TIME(hadc->Init.SamplingTimeCommon))
 80010c6:	687b      	ldr	r3, [r7, #4]
 80010c8:	6ada      	ldr	r2, [r3, #44]	; 0x2c
 80010ca:	2380      	movs	r3, #128	; 0x80
 80010cc:	055b      	lsls	r3, r3, #21
 80010ce:	429a      	cmp	r2, r3
 80010d0:	d011      	beq.n	80010f6 <HAL_ADC_ConfigChannel+0x46>
 80010d2:	687b      	ldr	r3, [r7, #4]
 80010d4:	6adb      	ldr	r3, [r3, #44]	; 0x2c
 80010d6:	2b01      	cmp	r3, #1
 80010d8:	d00d      	beq.n	80010f6 <HAL_ADC_ConfigChannel+0x46>
 80010da:	687b      	ldr	r3, [r7, #4]
 80010dc:	6adb      	ldr	r3, [r3, #44]	; 0x2c
 80010de:	2b02      	cmp	r3, #2
 80010e0:	d009      	beq.n	80010f6 <HAL_ADC_ConfigChannel+0x46>
 80010e2:	687b      	ldr	r3, [r7, #4]
 80010e4:	6adb      	ldr	r3, [r3, #44]	; 0x2c
 80010e6:	2b03      	cmp	r3, #3
 80010e8:	d005      	beq.n	80010f6 <HAL_ADC_ConfigChannel+0x46>
 80010ea:	687b      	ldr	r3, [r7, #4]
 80010ec:	6adb      	ldr	r3, [r3, #44]	; 0x2c
 80010ee:	2b04      	cmp	r3, #4
 80010f0:	d001      	beq.n	80010f6 <HAL_ADC_ConfigChannel+0x46>
 80010f2:	687b      	ldr	r3, [r7, #4]
 80010f4:	6adb      	ldr	r3, [r3, #44]	; 0x2c
  {
    assert_param(IS_ADC_SAMPLE_TIME(sConfig->SamplingTime));
  }
  
  /* Process locked */
  __HAL_LOCK(hadc);
 80010f6:	687b      	ldr	r3, [r7, #4]
 80010f8:	2234      	movs	r2, #52	; 0x34
 80010fa:	5c9b      	ldrb	r3, [r3, r2]
 80010fc:	2b01      	cmp	r3, #1
 80010fe:	d101      	bne.n	8001104 <HAL_ADC_ConfigChannel+0x54>
 8001100:	2302      	movs	r3, #2
 8001102:	e0d0      	b.n	80012a6 <HAL_ADC_ConfigChannel+0x1f6>
 8001104:	687b      	ldr	r3, [r7, #4]
 8001106:	2234      	movs	r2, #52	; 0x34
 8001108:	2101      	movs	r1, #1
 800110a:	5499      	strb	r1, [r3, r2]
  /* Parameters that can be updated when ADC is disabled or enabled without   */
  /* conversion on going on regular group:                                    */
  /*  - Channel number                                                        */
  /*  - Channel sampling time                                                 */
  /*  - Management of internal measurement channels: VrefInt/TempSensor/Vbat  */
  if (ADC_IS_CONVERSION_ONGOING_REGULAR(hadc) == RESET)
 800110c:	687b      	ldr	r3, [r7, #4]
 800110e:	681b      	ldr	r3, [r3, #0]
 8001110:	689b      	ldr	r3, [r3, #8]
 8001112:	2204      	movs	r2, #4
 8001114:	4013      	ands	r3, r2
 8001116:	d000      	beq.n	800111a <HAL_ADC_ConfigChannel+0x6a>
 8001118:	e0b4      	b.n	8001284 <HAL_ADC_ConfigChannel+0x1d4>
  {
    /* Configure channel: depending on rank setting, add it or remove it from */
    /* ADC conversion sequencer.                                              */
    if (sConfig->Rank != ADC_RANK_NONE)
 800111a:	683b      	ldr	r3, [r7, #0]
 800111c:	685b      	ldr	r3, [r3, #4]
 800111e:	4a64      	ldr	r2, [pc, #400]	; (80012b0 <HAL_ADC_ConfigChannel+0x200>)
 8001120:	4293      	cmp	r3, r2
 8001122:	d100      	bne.n	8001126 <HAL_ADC_ConfigChannel+0x76>
 8001124:	e082      	b.n	800122c <HAL_ADC_ConfigChannel+0x17c>
    {
      /* Regular sequence configuration */
      /* Set the channel selection register from the selected channel */
      hadc->Instance->CHSELR |= ADC_CHSELR_CHANNEL(sConfig->Channel);
 8001126:	687b      	ldr	r3, [r7, #4]
 8001128:	681b      	ldr	r3, [r3, #0]
 800112a:	6a99      	ldr	r1, [r3, #40]	; 0x28
 800112c:	683b      	ldr	r3, [r7, #0]
 800112e:	681b      	ldr	r3, [r3, #0]
 8001130:	2201      	movs	r2, #1
 8001132:	409a      	lsls	r2, r3
 8001134:	687b      	ldr	r3, [r7, #4]
 8001136:	681b      	ldr	r3, [r3, #0]
 8001138:	430a      	orrs	r2, r1
 800113a:	629a      	str	r2, [r3, #40]	; 0x28
      /* Channel sampling time configuration */
      /* Management of parameters "SamplingTimeCommon" and "SamplingTime"     */
      /* (obsolete): sampling time set in this function with                  */
      /* parameter "SamplingTime" (obsolete) only if not already set into     */
      /* ADC initialization structure with parameter "SamplingTimeCommon".    */
      if (! IS_ADC_SAMPLE_TIME(hadc->Init.SamplingTimeCommon))
 800113c:	687b      	ldr	r3, [r7, #4]
 800113e:	6ada      	ldr	r2, [r3, #44]	; 0x2c
 8001140:	2380      	movs	r3, #128	; 0x80
 8001142:	055b      	lsls	r3, r3, #21
 8001144:	429a      	cmp	r2, r3
 8001146:	d037      	beq.n	80011b8 <HAL_ADC_ConfigChannel+0x108>
 8001148:	687b      	ldr	r3, [r7, #4]
 800114a:	6adb      	ldr	r3, [r3, #44]	; 0x2c
 800114c:	2b01      	cmp	r3, #1
 800114e:	d033      	beq.n	80011b8 <HAL_ADC_ConfigChannel+0x108>
 8001150:	687b      	ldr	r3, [r7, #4]
 8001152:	6adb      	ldr	r3, [r3, #44]	; 0x2c
 8001154:	2b02      	cmp	r3, #2
 8001156:	d02f      	beq.n	80011b8 <HAL_ADC_ConfigChannel+0x108>
 8001158:	687b      	ldr	r3, [r7, #4]
 800115a:	6adb      	ldr	r3, [r3, #44]	; 0x2c
 800115c:	2b03      	cmp	r3, #3
 800115e:	d02b      	beq.n	80011b8 <HAL_ADC_ConfigChannel+0x108>
 8001160:	687b      	ldr	r3, [r7, #4]
 8001162:	6adb      	ldr	r3, [r3, #44]	; 0x2c
 8001164:	2b04      	cmp	r3, #4
 8001166:	d027      	beq.n	80011b8 <HAL_ADC_ConfigChannel+0x108>
 8001168:	687b      	ldr	r3, [r7, #4]
 800116a:	6adb      	ldr	r3, [r3, #44]	; 0x2c
 800116c:	2b05      	cmp	r3, #5
 800116e:	d023      	beq.n	80011b8 <HAL_ADC_ConfigChannel+0x108>
 8001170:	687b      	ldr	r3, [r7, #4]
 8001172:	6adb      	ldr	r3, [r3, #44]	; 0x2c
 8001174:	2b06      	cmp	r3, #6
 8001176:	d01f      	beq.n	80011b8 <HAL_ADC_ConfigChannel+0x108>
 8001178:	687b      	ldr	r3, [r7, #4]
 800117a:	6adb      	ldr	r3, [r3, #44]	; 0x2c
 800117c:	2b07      	cmp	r3, #7
 800117e:	d01b      	beq.n	80011b8 <HAL_ADC_ConfigChannel+0x108>
      {
        /* Modify sampling time if needed (not needed in case of reoccurrence */
        /* for several channels programmed consecutively into the sequencer)  */
        if (sConfig->SamplingTime != ADC_GET_SAMPLINGTIME(hadc))
 8001180:	683b      	ldr	r3, [r7, #0]
 8001182:	689a      	ldr	r2, [r3, #8]
 8001184:	687b      	ldr	r3, [r7, #4]
 8001186:	681b      	ldr	r3, [r3, #0]
 8001188:	695b      	ldr	r3, [r3, #20]
 800118a:	2107      	movs	r1, #7
 800118c:	400b      	ands	r3, r1
 800118e:	429a      	cmp	r2, r3
 8001190:	d012      	beq.n	80011b8 <HAL_ADC_ConfigChannel+0x108>
        {
          /* Channel sampling time configuration */
          /* Clear the old sample time */
          hadc->Instance->SMPR &= ~(ADC_SMPR_SMP);
 8001192:	687b      	ldr	r3, [r7, #4]
 8001194:	681b      	ldr	r3, [r3, #0]
 8001196:	695a      	ldr	r2, [r3, #20]
 8001198:	687b      	ldr	r3, [r7, #4]
 800119a:	681b      	ldr	r3, [r3, #0]
 800119c:	2107      	movs	r1, #7
 800119e:	438a      	bics	r2, r1
 80011a0:	615a      	str	r2, [r3, #20]
          
          /* Set the new sample time */
          hadc->Instance->SMPR |= ADC_SMPR_SET(sConfig->SamplingTime);
 80011a2:	687b      	ldr	r3, [r7, #4]
 80011a4:	681b      	ldr	r3, [r3, #0]
 80011a6:	6959      	ldr	r1, [r3, #20]
 80011a8:	683b      	ldr	r3, [r7, #0]
 80011aa:	689b      	ldr	r3, [r3, #8]
 80011ac:	2207      	movs	r2, #7
 80011ae:	401a      	ands	r2, r3
 80011b0:	687b      	ldr	r3, [r7, #4]
 80011b2:	681b      	ldr	r3, [r3, #0]
 80011b4:	430a      	orrs	r2, r1
 80011b6:	615a      	str	r2, [r3, #20]
      /* internal measurement paths enable: If internal channel selected,     */
      /* enable dedicated internal buffers and path.                          */
      /* Note: these internal measurement paths can be disabled using         */
      /*       HAL_ADC_DeInit() or removing the channel from sequencer with   */
      /*       channel configuration parameter "Rank".                        */
      if(ADC_IS_CHANNEL_INTERNAL(sConfig->Channel))
 80011b8:	683b      	ldr	r3, [r7, #0]
 80011ba:	681b      	ldr	r3, [r3, #0]
 80011bc:	2b10      	cmp	r3, #16
 80011be:	d007      	beq.n	80011d0 <HAL_ADC_ConfigChannel+0x120>
 80011c0:	683b      	ldr	r3, [r7, #0]
 80011c2:	681b      	ldr	r3, [r3, #0]
 80011c4:	2b11      	cmp	r3, #17
 80011c6:	d003      	beq.n	80011d0 <HAL_ADC_ConfigChannel+0x120>
 80011c8:	683b      	ldr	r3, [r7, #0]
 80011ca:	681b      	ldr	r3, [r3, #0]
 80011cc:	2b12      	cmp	r3, #18
 80011ce:	d163      	bne.n	8001298 <HAL_ADC_ConfigChannel+0x1e8>
      {
        /* If Channel_16 is selected, enable Temp. sensor measurement path. */
        /* If Channel_17 is selected, enable VREFINT measurement path. */
        /* If Channel_18 is selected, enable VBAT measurement path. */
        ADC->CCR |= ADC_CHANNEL_INTERNAL_PATH(sConfig->Channel);
 80011d0:	4b38      	ldr	r3, [pc, #224]	; (80012b4 <HAL_ADC_ConfigChannel+0x204>)
 80011d2:	6819      	ldr	r1, [r3, #0]
 80011d4:	683b      	ldr	r3, [r7, #0]
 80011d6:	681b      	ldr	r3, [r3, #0]
 80011d8:	2b10      	cmp	r3, #16
 80011da:	d009      	beq.n	80011f0 <HAL_ADC_ConfigChannel+0x140>
 80011dc:	683b      	ldr	r3, [r7, #0]
 80011de:	681b      	ldr	r3, [r3, #0]
 80011e0:	2b11      	cmp	r3, #17
 80011e2:	d102      	bne.n	80011ea <HAL_ADC_ConfigChannel+0x13a>
 80011e4:	2380      	movs	r3, #128	; 0x80
 80011e6:	03db      	lsls	r3, r3, #15
 80011e8:	e004      	b.n	80011f4 <HAL_ADC_ConfigChannel+0x144>
 80011ea:	2380      	movs	r3, #128	; 0x80
 80011ec:	045b      	lsls	r3, r3, #17
 80011ee:	e001      	b.n	80011f4 <HAL_ADC_ConfigChannel+0x144>
 80011f0:	2380      	movs	r3, #128	; 0x80
 80011f2:	041b      	lsls	r3, r3, #16
 80011f4:	4a2f      	ldr	r2, [pc, #188]	; (80012b4 <HAL_ADC_ConfigChannel+0x204>)
 80011f6:	430b      	orrs	r3, r1
 80011f8:	6013      	str	r3, [r2, #0]
        
        /* If Temp. sensor is selected, wait for stabilization delay */
        if (sConfig->Channel == ADC_CHANNEL_TEMPSENSOR)
 80011fa:	683b      	ldr	r3, [r7, #0]
 80011fc:	681b      	ldr	r3, [r3, #0]
 80011fe:	2b10      	cmp	r3, #16
 8001200:	d14a      	bne.n	8001298 <HAL_ADC_ConfigChannel+0x1e8>
        {
          /* Delay for temperature sensor stabilization time */
          /* Compute number of CPU cycles to wait for */
          wait_loop_index = (ADC_TEMPSENSOR_DELAY_US * (SystemCoreClock / 1000000U));
 8001202:	4b2d      	ldr	r3, [pc, #180]	; (80012b8 <HAL_ADC_ConfigChannel+0x208>)
 8001204:	681b      	ldr	r3, [r3, #0]
 8001206:	492d      	ldr	r1, [pc, #180]	; (80012bc <HAL_ADC_ConfigChannel+0x20c>)
 8001208:	0018      	movs	r0, r3
 800120a:	f7fe ff7d 	bl	8000108 <__udivsi3>
 800120e:	0003      	movs	r3, r0
 8001210:	001a      	movs	r2, r3
 8001212:	0013      	movs	r3, r2
 8001214:	009b      	lsls	r3, r3, #2
 8001216:	189b      	adds	r3, r3, r2
 8001218:	005b      	lsls	r3, r3, #1
 800121a:	60bb      	str	r3, [r7, #8]
          while(wait_loop_index != 0U)
 800121c:	e002      	b.n	8001224 <HAL_ADC_ConfigChannel+0x174>
          {
            wait_loop_index--;
 800121e:	68bb      	ldr	r3, [r7, #8]
 8001220:	3b01      	subs	r3, #1
 8001222:	60bb      	str	r3, [r7, #8]
          while(wait_loop_index != 0U)
 8001224:	68bb      	ldr	r3, [r7, #8]
 8001226:	2b00      	cmp	r3, #0
 8001228:	d1f9      	bne.n	800121e <HAL_ADC_ConfigChannel+0x16e>
 800122a:	e035      	b.n	8001298 <HAL_ADC_ConfigChannel+0x1e8>
    }
    else
    {
      /* Regular sequence configuration */
      /* Reset the channel selection register from the selected channel */
      hadc->Instance->CHSELR &= ~ADC_CHSELR_CHANNEL(sConfig->Channel);
 800122c:	687b      	ldr	r3, [r7, #4]
 800122e:	681b      	ldr	r3, [r3, #0]
 8001230:	6a9a      	ldr	r2, [r3, #40]	; 0x28
 8001232:	683b      	ldr	r3, [r7, #0]
 8001234:	681b      	ldr	r3, [r3, #0]
 8001236:	2101      	movs	r1, #1
 8001238:	4099      	lsls	r1, r3
 800123a:	000b      	movs	r3, r1
 800123c:	43d9      	mvns	r1, r3
 800123e:	687b      	ldr	r3, [r7, #4]
 8001240:	681b      	ldr	r3, [r3, #0]
 8001242:	400a      	ands	r2, r1
 8001244:	629a      	str	r2, [r3, #40]	; 0x28
      
      /* Management of internal measurement channels: VrefInt/TempSensor/Vbat */
      /* internal measurement paths disable: If internal channel selected,    */
      /* disable dedicated internal buffers and path.                         */
      if(ADC_IS_CHANNEL_INTERNAL(sConfig->Channel))
 8001246:	683b      	ldr	r3, [r7, #0]
 8001248:	681b      	ldr	r3, [r3, #0]
 800124a:	2b10      	cmp	r3, #16
 800124c:	d007      	beq.n	800125e <HAL_ADC_ConfigChannel+0x1ae>
 800124e:	683b      	ldr	r3, [r7, #0]
 8001250:	681b      	ldr	r3, [r3, #0]
 8001252:	2b11      	cmp	r3, #17
 8001254:	d003      	beq.n	800125e <HAL_ADC_ConfigChannel+0x1ae>
 8001256:	683b      	ldr	r3, [r7, #0]
 8001258:	681b      	ldr	r3, [r3, #0]
 800125a:	2b12      	cmp	r3, #18
 800125c:	d11c      	bne.n	8001298 <HAL_ADC_ConfigChannel+0x1e8>
      {
        /* If Channel_16 is selected, disable Temp. sensor measurement path. */
        /* If Channel_17 is selected, disable VREFINT measurement path. */
        /* If Channel_18 is selected, disable VBAT measurement path. */
        ADC->CCR &= ~ADC_CHANNEL_INTERNAL_PATH(sConfig->Channel);
 800125e:	4b15      	ldr	r3, [pc, #84]	; (80012b4 <HAL_ADC_ConfigChannel+0x204>)
 8001260:	6819      	ldr	r1, [r3, #0]
 8001262:	683b      	ldr	r3, [r7, #0]
 8001264:	681b      	ldr	r3, [r3, #0]
 8001266:	2b10      	cmp	r3, #16
 8001268:	d007      	beq.n	800127a <HAL_ADC_ConfigChannel+0x1ca>
 800126a:	683b      	ldr	r3, [r7, #0]
 800126c:	681b      	ldr	r3, [r3, #0]
 800126e:	2b11      	cmp	r3, #17
 8001270:	d101      	bne.n	8001276 <HAL_ADC_ConfigChannel+0x1c6>
 8001272:	4b13      	ldr	r3, [pc, #76]	; (80012c0 <HAL_ADC_ConfigChannel+0x210>)
 8001274:	e002      	b.n	800127c <HAL_ADC_ConfigChannel+0x1cc>
 8001276:	4b13      	ldr	r3, [pc, #76]	; (80012c4 <HAL_ADC_ConfigChannel+0x214>)
 8001278:	e000      	b.n	800127c <HAL_ADC_ConfigChannel+0x1cc>
 800127a:	4b13      	ldr	r3, [pc, #76]	; (80012c8 <HAL_ADC_ConfigChannel+0x218>)
 800127c:	4a0d      	ldr	r2, [pc, #52]	; (80012b4 <HAL_ADC_ConfigChannel+0x204>)
 800127e:	400b      	ands	r3, r1
 8001280:	6013      	str	r3, [r2, #0]
 8001282:	e009      	b.n	8001298 <HAL_ADC_ConfigChannel+0x1e8>
  /* channel could be done on neither of the channel configuration structure  */
  /* parameters.                                                              */
  else
  {
    /* Update ADC state machine to error */
    SET_BIT(hadc->State, HAL_ADC_STATE_ERROR_CONFIG);
 8001284:	687b      	ldr	r3, [r7, #4]
 8001286:	6b9b      	ldr	r3, [r3, #56]	; 0x38
 8001288:	2220      	movs	r2, #32
 800128a:	431a      	orrs	r2, r3
 800128c:	687b      	ldr	r3, [r7, #4]
 800128e:	639a      	str	r2, [r3, #56]	; 0x38
    
    tmp_hal_status = HAL_ERROR;
 8001290:	230f      	movs	r3, #15
 8001292:	18fb      	adds	r3, r7, r3
 8001294:	2201      	movs	r2, #1
 8001296:	701a      	strb	r2, [r3, #0]
  }
  
  /* Process unlocked */
  __HAL_UNLOCK(hadc);
 8001298:	687b      	ldr	r3, [r7, #4]
 800129a:	2234      	movs	r2, #52	; 0x34
 800129c:	2100      	movs	r1, #0
 800129e:	5499      	strb	r1, [r3, r2]
  
  /* Return function status */
  return tmp_hal_status;
 80012a0:	230f      	movs	r3, #15
 80012a2:	18fb      	adds	r3, r7, r3
 80012a4:	781b      	ldrb	r3, [r3, #0]
}
 80012a6:	0018      	movs	r0, r3
 80012a8:	46bd      	mov	sp, r7
 80012aa:	b004      	add	sp, #16
 80012ac:	bd80      	pop	{r7, pc}
 80012ae:	46c0      	nop			; (mov r8, r8)
 80012b0:	00001001 	.word	0x00001001
 80012b4:	40012708 	.word	0x40012708
 80012b8:	20000008 	.word	0x20000008
 80012bc:	000f4240 	.word	0x000f4240
 80012c0:	ffbfffff 	.word	0xffbfffff
 80012c4:	feffffff 	.word	0xfeffffff
 80012c8:	ff7fffff 	.word	0xff7fffff

080012cc <__NVIC_EnableIRQ>:
  \details Enables a device specific interrupt in the NVIC interrupt controller.
  \param [in]      IRQn  Device specific interrupt number.
  \note    IRQn must not be negative.
 */
__STATIC_INLINE void __NVIC_EnableIRQ(IRQn_Type IRQn)
{
 80012cc:	b580      	push	{r7, lr}
 80012ce:	b082      	sub	sp, #8
 80012d0:	af00      	add	r7, sp, #0
 80012d2:	0002      	movs	r2, r0
 80012d4:	1dfb      	adds	r3, r7, #7
 80012d6:	701a      	strb	r2, [r3, #0]
  if ((int32_t)(IRQn) >= 0)
 80012d8:	1dfb      	adds	r3, r7, #7
 80012da:	781b      	ldrb	r3, [r3, #0]
 80012dc:	2b7f      	cmp	r3, #127	; 0x7f
 80012de:	d809      	bhi.n	80012f4 <__NVIC_EnableIRQ+0x28>
  {
    NVIC->ISER[0U] = (uint32_t)(1UL << (((uint32_t)IRQn) & 0x1FUL));
 80012e0:	1dfb      	adds	r3, r7, #7
 80012e2:	781b      	ldrb	r3, [r3, #0]
 80012e4:	001a      	movs	r2, r3
 80012e6:	231f      	movs	r3, #31
 80012e8:	401a      	ands	r2, r3
 80012ea:	4b04      	ldr	r3, [pc, #16]	; (80012fc <__NVIC_EnableIRQ+0x30>)
 80012ec:	2101      	movs	r1, #1
 80012ee:	4091      	lsls	r1, r2
 80012f0:	000a      	movs	r2, r1
 80012f2:	601a      	str	r2, [r3, #0]
  }
}
 80012f4:	46c0      	nop			; (mov r8, r8)
 80012f6:	46bd      	mov	sp, r7
 80012f8:	b002      	add	sp, #8
 80012fa:	bd80      	pop	{r7, pc}
 80012fc:	e000e100 	.word	0xe000e100

08001300 <__NVIC_SetPriority>:
  \param [in]      IRQn  Interrupt number.
  \param [in]  priority  Priority to set.
  \note    The priority cannot be set for every processor exception.
 */
__STATIC_INLINE void __NVIC_SetPriority(IRQn_Type IRQn, uint32_t priority)
{
 8001300:	b590      	push	{r4, r7, lr}
 8001302:	b083      	sub	sp, #12
 8001304:	af00      	add	r7, sp, #0
 8001306:	0002      	movs	r2, r0
 8001308:	6039      	str	r1, [r7, #0]
 800130a:	1dfb      	adds	r3, r7, #7
 800130c:	701a      	strb	r2, [r3, #0]
  if ((int32_t)(IRQn) >= 0)
 800130e:	1dfb      	adds	r3, r7, #7
 8001310:	781b      	ldrb	r3, [r3, #0]
 8001312:	2b7f      	cmp	r3, #127	; 0x7f
 8001314:	d828      	bhi.n	8001368 <__NVIC_SetPriority+0x68>
  {
    NVIC->IP[_IP_IDX(IRQn)]  = ((uint32_t)(NVIC->IP[_IP_IDX(IRQn)]  & ~(0xFFUL << _BIT_SHIFT(IRQn))) |
 8001316:	4a2f      	ldr	r2, [pc, #188]	; (80013d4 <__NVIC_SetPriority+0xd4>)
 8001318:	1dfb      	adds	r3, r7, #7
 800131a:	781b      	ldrb	r3, [r3, #0]
 800131c:	b25b      	sxtb	r3, r3
 800131e:	089b      	lsrs	r3, r3, #2
 8001320:	33c0      	adds	r3, #192	; 0xc0
 8001322:	009b      	lsls	r3, r3, #2
 8001324:	589b      	ldr	r3, [r3, r2]
 8001326:	1dfa      	adds	r2, r7, #7
 8001328:	7812      	ldrb	r2, [r2, #0]
 800132a:	0011      	movs	r1, r2
 800132c:	2203      	movs	r2, #3
 800132e:	400a      	ands	r2, r1
 8001330:	00d2      	lsls	r2, r2, #3
 8001332:	21ff      	movs	r1, #255	; 0xff
 8001334:	4091      	lsls	r1, r2
 8001336:	000a      	movs	r2, r1
 8001338:	43d2      	mvns	r2, r2
 800133a:	401a      	ands	r2, r3
 800133c:	0011      	movs	r1, r2
       (((priority << (8U - __NVIC_PRIO_BITS)) & (uint32_t)0xFFUL) << _BIT_SHIFT(IRQn)));
 800133e:	683b      	ldr	r3, [r7, #0]
 8001340:	019b      	lsls	r3, r3, #6
 8001342:	22ff      	movs	r2, #255	; 0xff
 8001344:	401a      	ands	r2, r3
 8001346:	1dfb      	adds	r3, r7, #7
 8001348:	781b      	ldrb	r3, [r3, #0]
 800134a:	0018      	movs	r0, r3
 800134c:	2303      	movs	r3, #3
 800134e:	4003      	ands	r3, r0
 8001350:	00db      	lsls	r3, r3, #3
 8001352:	409a      	lsls	r2, r3
    NVIC->IP[_IP_IDX(IRQn)]  = ((uint32_t)(NVIC->IP[_IP_IDX(IRQn)]  & ~(0xFFUL << _BIT_SHIFT(IRQn))) |
 8001354:	481f      	ldr	r0, [pc, #124]	; (80013d4 <__NVIC_SetPriority+0xd4>)
 8001356:	1dfb      	adds	r3, r7, #7
 8001358:	781b      	ldrb	r3, [r3, #0]
 800135a:	b25b      	sxtb	r3, r3
 800135c:	089b      	lsrs	r3, r3, #2
 800135e:	430a      	orrs	r2, r1
 8001360:	33c0      	adds	r3, #192	; 0xc0
 8001362:	009b      	lsls	r3, r3, #2
 8001364:	501a      	str	r2, [r3, r0]
  else
  {
    SCB->SHP[_SHP_IDX(IRQn)] = ((uint32_t)(SCB->SHP[_SHP_IDX(IRQn)] & ~(0xFFUL << _BIT_SHIFT(IRQn))) |
       (((priority << (8U - __NVIC_PRIO_BITS)) & (uint32_t)0xFFUL) << _BIT_SHIFT(IRQn)));
  }
}
 8001366:	e031      	b.n	80013cc <__NVIC_SetPriority+0xcc>
    SCB->SHP[_SHP_IDX(IRQn)] = ((uint32_t)(SCB->SHP[_SHP_IDX(IRQn)] & ~(0xFFUL << _BIT_SHIFT(IRQn))) |
 8001368:	4a1b      	ldr	r2, [pc, #108]	; (80013d8 <__NVIC_SetPriority+0xd8>)
 800136a:	1dfb      	adds	r3, r7, #7
 800136c:	781b      	ldrb	r3, [r3, #0]
 800136e:	0019      	movs	r1, r3
 8001370:	230f      	movs	r3, #15
 8001372:	400b      	ands	r3, r1
 8001374:	3b08      	subs	r3, #8
 8001376:	089b      	lsrs	r3, r3, #2
 8001378:	3306      	adds	r3, #6
 800137a:	009b      	lsls	r3, r3, #2
 800137c:	18d3      	adds	r3, r2, r3
 800137e:	3304      	adds	r3, #4
 8001380:	681b      	ldr	r3, [r3, #0]
 8001382:	1dfa      	adds	r2, r7, #7
 8001384:	7812      	ldrb	r2, [r2, #0]
 8001386:	0011      	movs	r1, r2
 8001388:	2203      	movs	r2, #3
 800138a:	400a      	ands	r2, r1
 800138c:	00d2      	lsls	r2, r2, #3
 800138e:	21ff      	movs	r1, #255	; 0xff
 8001390:	4091      	lsls	r1, r2
 8001392:	000a      	movs	r2, r1
 8001394:	43d2      	mvns	r2, r2
 8001396:	401a      	ands	r2, r3
 8001398:	0011      	movs	r1, r2
       (((priority << (8U - __NVIC_PRIO_BITS)) & (uint32_t)0xFFUL) << _BIT_SHIFT(IRQn)));
 800139a:	683b      	ldr	r3, [r7, #0]
 800139c:	019b      	lsls	r3, r3, #6
 800139e:	22ff      	movs	r2, #255	; 0xff
 80013a0:	401a      	ands	r2, r3
 80013a2:	1dfb      	adds	r3, r7, #7
 80013a4:	781b      	ldrb	r3, [r3, #0]
 80013a6:	0018      	movs	r0, r3
 80013a8:	2303      	movs	r3, #3
 80013aa:	4003      	ands	r3, r0
 80013ac:	00db      	lsls	r3, r3, #3
 80013ae:	409a      	lsls	r2, r3
    SCB->SHP[_SHP_IDX(IRQn)] = ((uint32_t)(SCB->SHP[_SHP_IDX(IRQn)] & ~(0xFFUL << _BIT_SHIFT(IRQn))) |
 80013b0:	4809      	ldr	r0, [pc, #36]	; (80013d8 <__NVIC_SetPriority+0xd8>)
 80013b2:	1dfb      	adds	r3, r7, #7
 80013b4:	781b      	ldrb	r3, [r3, #0]
 80013b6:	001c      	movs	r4, r3
 80013b8:	230f      	movs	r3, #15
 80013ba:	4023      	ands	r3, r4
 80013bc:	3b08      	subs	r3, #8
 80013be:	089b      	lsrs	r3, r3, #2
 80013c0:	430a      	orrs	r2, r1
 80013c2:	3306      	adds	r3, #6
 80013c4:	009b      	lsls	r3, r3, #2
 80013c6:	18c3      	adds	r3, r0, r3
 80013c8:	3304      	adds	r3, #4
 80013ca:	601a      	str	r2, [r3, #0]
}
 80013cc:	46c0      	nop			; (mov r8, r8)
 80013ce:	46bd      	mov	sp, r7
 80013d0:	b003      	add	sp, #12
 80013d2:	bd90      	pop	{r4, r7, pc}
 80013d4:	e000e100 	.word	0xe000e100
 80013d8:	e000ed00 	.word	0xe000ed00

080013dc <SysTick_Config>:
  \note    When the variable <b>__Vendor_SysTickConfig</b> is set to 1, then the
           function <b>SysTick_Config</b> is not included. In this case, the file <b><i>device</i>.h</b>
           must contain a vendor-specific implementation of this function.
 */
__STATIC_INLINE uint32_t SysTick_Config(uint32_t ticks)
{
 80013dc:	b580      	push	{r7, lr}
 80013de:	b082      	sub	sp, #8
 80013e0:	af00      	add	r7, sp, #0
 80013e2:	6078      	str	r0, [r7, #4]
  if ((ticks - 1UL) > SysTick_LOAD_RELOAD_Msk)
 80013e4:	687b      	ldr	r3, [r7, #4]
 80013e6:	1e5a      	subs	r2, r3, #1
 80013e8:	2380      	movs	r3, #128	; 0x80
 80013ea:	045b      	lsls	r3, r3, #17
 80013ec:	429a      	cmp	r2, r3
 80013ee:	d301      	bcc.n	80013f4 <SysTick_Config+0x18>
  {
    return (1UL);                                                   /* Reload value impossible */
 80013f0:	2301      	movs	r3, #1
 80013f2:	e010      	b.n	8001416 <SysTick_Config+0x3a>
  }

  SysTick->LOAD  = (uint32_t)(ticks - 1UL);                         /* set reload register */
 80013f4:	4b0a      	ldr	r3, [pc, #40]	; (8001420 <SysTick_Config+0x44>)
 80013f6:	687a      	ldr	r2, [r7, #4]
 80013f8:	3a01      	subs	r2, #1
 80013fa:	605a      	str	r2, [r3, #4]
  NVIC_SetPriority (SysTick_IRQn, (1UL << __NVIC_PRIO_BITS) - 1UL); /* set Priority for Systick Interrupt */
 80013fc:	2301      	movs	r3, #1
 80013fe:	425b      	negs	r3, r3
 8001400:	2103      	movs	r1, #3
 8001402:	0018      	movs	r0, r3
 8001404:	f7ff ff7c 	bl	8001300 <__NVIC_SetPriority>
  SysTick->VAL   = 0UL;                                             /* Load the SysTick Counter Value */
 8001408:	4b05      	ldr	r3, [pc, #20]	; (8001420 <SysTick_Config+0x44>)
 800140a:	2200      	movs	r2, #0
 800140c:	609a      	str	r2, [r3, #8]
  SysTick->CTRL  = SysTick_CTRL_CLKSOURCE_Msk |
 800140e:	4b04      	ldr	r3, [pc, #16]	; (8001420 <SysTick_Config+0x44>)
 8001410:	2207      	movs	r2, #7
 8001412:	601a      	str	r2, [r3, #0]
                   SysTick_CTRL_TICKINT_Msk   |
                   SysTick_CTRL_ENABLE_Msk;                         /* Enable SysTick IRQ and SysTick Timer */
  return (0UL);                                                     /* Function successful */
 8001414:	2300      	movs	r3, #0
}
 8001416:	0018      	movs	r0, r3
 8001418:	46bd      	mov	sp, r7
 800141a:	b002      	add	sp, #8
 800141c:	bd80      	pop	{r7, pc}
 800141e:	46c0      	nop			; (mov r8, r8)
 8001420:	e000e010 	.word	0xe000e010

08001424 <HAL_NVIC_SetPriority>:
  *         with stm32f0xx devices, this parameter is a dummy value and it is ignored, because 
  *         no subpriority supported in Cortex M0 based products.   
  * @retval None
  */
void HAL_NVIC_SetPriority(IRQn_Type IRQn, uint32_t PreemptPriority, uint32_t SubPriority)
{ 
 8001424:	b580      	push	{r7, lr}
 8001426:	b084      	sub	sp, #16
 8001428:	af00      	add	r7, sp, #0
 800142a:	60b9      	str	r1, [r7, #8]
 800142c:	607a      	str	r2, [r7, #4]
 800142e:	210f      	movs	r1, #15
 8001430:	187b      	adds	r3, r7, r1
 8001432:	1c02      	adds	r2, r0, #0
 8001434:	701a      	strb	r2, [r3, #0]
  /* Check the parameters */
  assert_param(IS_NVIC_PREEMPTION_PRIORITY(PreemptPriority));
  NVIC_SetPriority(IRQn,PreemptPriority);
 8001436:	68ba      	ldr	r2, [r7, #8]
 8001438:	187b      	adds	r3, r7, r1
 800143a:	781b      	ldrb	r3, [r3, #0]
 800143c:	b25b      	sxtb	r3, r3
 800143e:	0011      	movs	r1, r2
 8001440:	0018      	movs	r0, r3
 8001442:	f7ff ff5d 	bl	8001300 <__NVIC_SetPriority>
}
 8001446:	46c0      	nop			; (mov r8, r8)
 8001448:	46bd      	mov	sp, r7
 800144a:	b004      	add	sp, #16
 800144c:	bd80      	pop	{r7, pc}

0800144e <HAL_NVIC_EnableIRQ>:
  *         This parameter can be an enumerator of IRQn_Type enumeration
  *         (For the complete STM32 Devices IRQ Channels list, please refer to the appropriate CMSIS device file (stm32f0xxxx.h))
  * @retval None
  */
void HAL_NVIC_EnableIRQ(IRQn_Type IRQn)
{
 800144e:	b580      	push	{r7, lr}
 8001450:	b082      	sub	sp, #8
 8001452:	af00      	add	r7, sp, #0
 8001454:	0002      	movs	r2, r0
 8001456:	1dfb      	adds	r3, r7, #7
 8001458:	701a      	strb	r2, [r3, #0]
  /* Check the parameters */
  assert_param(IS_NVIC_DEVICE_IRQ(IRQn));
  
  /* Enable interrupt */
  NVIC_EnableIRQ(IRQn);
 800145a:	1dfb      	adds	r3, r7, #7
 800145c:	781b      	ldrb	r3, [r3, #0]
 800145e:	b25b      	sxtb	r3, r3
 8001460:	0018      	movs	r0, r3
 8001462:	f7ff ff33 	bl	80012cc <__NVIC_EnableIRQ>
}
 8001466:	46c0      	nop			; (mov r8, r8)
 8001468:	46bd      	mov	sp, r7
 800146a:	b002      	add	sp, #8
 800146c:	bd80      	pop	{r7, pc}

0800146e <HAL_SYSTICK_Config>:
  * @param  TicksNumb Specifies the ticks Number of ticks between two interrupts.
  * @retval status:  - 0  Function succeeded.
  *                  - 1  Function failed.
  */
uint32_t HAL_SYSTICK_Config(uint32_t TicksNumb)
{
 800146e:	b580      	push	{r7, lr}
 8001470:	b082      	sub	sp, #8
 8001472:	af00      	add	r7, sp, #0
 8001474:	6078      	str	r0, [r7, #4]
   return SysTick_Config(TicksNumb);
 8001476:	687b      	ldr	r3, [r7, #4]
 8001478:	0018      	movs	r0, r3
 800147a:	f7ff ffaf 	bl	80013dc <SysTick_Config>
 800147e:	0003      	movs	r3, r0
}
 8001480:	0018      	movs	r0, r3
 8001482:	46bd      	mov	sp, r7
 8001484:	b002      	add	sp, #8
 8001486:	bd80      	pop	{r7, pc}

08001488 <HAL_DMA_Init>:
  * @param  hdma Pointer to a DMA_HandleTypeDef structure that contains
  *               the configuration information for the specified DMA Channel.  
  * @retval HAL status
  */
HAL_StatusTypeDef HAL_DMA_Init(DMA_HandleTypeDef *hdma)
{ 
 8001488:	b580      	push	{r7, lr}
 800148a:	b084      	sub	sp, #16
 800148c:	af00      	add	r7, sp, #0
 800148e:	6078      	str	r0, [r7, #4]
  uint32_t tmp = 0U;
 8001490:	2300      	movs	r3, #0
 8001492:	60fb      	str	r3, [r7, #12]
  
  /* Check the DMA handle allocation */
  if(NULL == hdma)
 8001494:	687b      	ldr	r3, [r7, #4]
 8001496:	2b00      	cmp	r3, #0
 8001498:	d101      	bne.n	800149e <HAL_DMA_Init+0x16>
  {
    return HAL_ERROR;
 800149a:	2301      	movs	r3, #1
 800149c:	e036      	b.n	800150c <HAL_DMA_Init+0x84>
  assert_param(IS_DMA_MEMORY_DATA_SIZE(hdma->Init.MemDataAlignment));
  assert_param(IS_DMA_MODE(hdma->Init.Mode));
  assert_param(IS_DMA_PRIORITY(hdma->Init.Priority));
  
  /* Change DMA peripheral state */
  hdma->State = HAL_DMA_STATE_BUSY;
 800149e:	687b      	ldr	r3, [r7, #4]
 80014a0:	2221      	movs	r2, #33	; 0x21
 80014a2:	2102      	movs	r1, #2
 80014a4:	5499      	strb	r1, [r3, r2]

  /* Get the CR register value */
  tmp = hdma->Instance->CCR;
 80014a6:	687b      	ldr	r3, [r7, #4]
 80014a8:	681b      	ldr	r3, [r3, #0]
 80014aa:	681b      	ldr	r3, [r3, #0]
 80014ac:	60fb      	str	r3, [r7, #12]
  
  /* Clear PL, MSIZE, PSIZE, MINC, PINC, CIRC, DIR bits */
  tmp &= ((uint32_t)~(DMA_CCR_PL    | DMA_CCR_MSIZE  | DMA_CCR_PSIZE  | \
 80014ae:	68fb      	ldr	r3, [r7, #12]
 80014b0:	4a18      	ldr	r2, [pc, #96]	; (8001514 <HAL_DMA_Init+0x8c>)
 80014b2:	4013      	ands	r3, r2
 80014b4:	60fb      	str	r3, [r7, #12]
                      DMA_CCR_MINC  | DMA_CCR_PINC   | DMA_CCR_CIRC   | \
                      DMA_CCR_DIR));
  
  /* Prepare the DMA Channel configuration */
  tmp |=  hdma->Init.Direction        |
 80014b6:	687b      	ldr	r3, [r7, #4]
 80014b8:	685a      	ldr	r2, [r3, #4]
          hdma->Init.PeriphInc           | hdma->Init.MemInc           |
 80014ba:	687b      	ldr	r3, [r7, #4]
 80014bc:	689b      	ldr	r3, [r3, #8]
  tmp |=  hdma->Init.Direction        |
 80014be:	431a      	orrs	r2, r3
          hdma->Init.PeriphInc           | hdma->Init.MemInc           |
 80014c0:	687b      	ldr	r3, [r7, #4]
 80014c2:	68db      	ldr	r3, [r3, #12]
 80014c4:	431a      	orrs	r2, r3
          hdma->Init.PeriphDataAlignment | hdma->Init.MemDataAlignment |
 80014c6:	687b      	ldr	r3, [r7, #4]
 80014c8:	691b      	ldr	r3, [r3, #16]
          hdma->Init.PeriphInc           | hdma->Init.MemInc           |
 80014ca:	431a      	orrs	r2, r3
          hdma->Init.PeriphDataAlignment | hdma->Init.MemDataAlignment |
 80014cc:	687b      	ldr	r3, [r7, #4]
 80014ce:	695b      	ldr	r3, [r3, #20]
 80014d0:	431a      	orrs	r2, r3
          hdma->Init.Mode                | hdma->Init.Priority;
 80014d2:	687b      	ldr	r3, [r7, #4]
 80014d4:	699b      	ldr	r3, [r3, #24]
          hdma->Init.PeriphDataAlignment | hdma->Init.MemDataAlignment |
 80014d6:	431a      	orrs	r2, r3
          hdma->Init.Mode                | hdma->Init.Priority;
 80014d8:	687b      	ldr	r3, [r7, #4]
 80014da:	69db      	ldr	r3, [r3, #28]
 80014dc:	4313      	orrs	r3, r2
  tmp |=  hdma->Init.Direction        |
 80014de:	68fa      	ldr	r2, [r7, #12]
 80014e0:	4313      	orrs	r3, r2
 80014e2:	60fb      	str	r3, [r7, #12]

  /* Write to DMA Channel CR register */
  hdma->Instance->CCR = tmp;  
 80014e4:	687b      	ldr	r3, [r7, #4]
 80014e6:	681b      	ldr	r3, [r3, #0]
 80014e8:	68fa      	ldr	r2, [r7, #12]
 80014ea:	601a      	str	r2, [r3, #0]
  
  /* Initialize DmaBaseAddress and ChannelIndex parameters used 
     by HAL_DMA_IRQHandler() and HAL_DMA_PollForTransfer() */
  DMA_CalcBaseAndBitshift(hdma);
 80014ec:	687b      	ldr	r3, [r7, #4]
 80014ee:	0018      	movs	r0, r3
 80014f0:	f000 f932 	bl	8001758 <DMA_CalcBaseAndBitshift>
  
  /* Initialise the error code */
  hdma->ErrorCode = HAL_DMA_ERROR_NONE;
 80014f4:	687b      	ldr	r3, [r7, #4]
 80014f6:	2200      	movs	r2, #0
 80014f8:	639a      	str	r2, [r3, #56]	; 0x38

  /* Initialize the DMA state*/
  hdma->State = HAL_DMA_STATE_READY;
 80014fa:	687b      	ldr	r3, [r7, #4]
 80014fc:	2221      	movs	r2, #33	; 0x21
 80014fe:	2101      	movs	r1, #1
 8001500:	5499      	strb	r1, [r3, r2]
  
  /* Allocate lock resource and initialize it */
  hdma->Lock = HAL_UNLOCKED;
 8001502:	687b      	ldr	r3, [r7, #4]
 8001504:	2220      	movs	r2, #32
 8001506:	2100      	movs	r1, #0
 8001508:	5499      	strb	r1, [r3, r2]
  
  return HAL_OK;
 800150a:	2300      	movs	r3, #0
}  
 800150c:	0018      	movs	r0, r3
 800150e:	46bd      	mov	sp, r7
 8001510:	b004      	add	sp, #16
 8001512:	bd80      	pop	{r7, pc}
 8001514:	ffffc00f 	.word	0xffffc00f

08001518 <HAL_DMA_Abort>:
  * @param  hdma  pointer to a DMA_HandleTypeDef structure that contains
  *               the configuration information for the specified DMA Channel.
  * @retval HAL status
  */
HAL_StatusTypeDef HAL_DMA_Abort(DMA_HandleTypeDef *hdma)
{
 8001518:	b580      	push	{r7, lr}
 800151a:	b082      	sub	sp, #8
 800151c:	af00      	add	r7, sp, #0
 800151e:	6078      	str	r0, [r7, #4]
  if(hdma->State != HAL_DMA_STATE_BUSY)
 8001520:	687b      	ldr	r3, [r7, #4]
 8001522:	2221      	movs	r2, #33	; 0x21
 8001524:	5c9b      	ldrb	r3, [r3, r2]
 8001526:	b2db      	uxtb	r3, r3
 8001528:	2b02      	cmp	r3, #2
 800152a:	d008      	beq.n	800153e <HAL_DMA_Abort+0x26>
  {
    /* no transfer ongoing */
    hdma->ErrorCode = HAL_DMA_ERROR_NO_XFER;
 800152c:	687b      	ldr	r3, [r7, #4]
 800152e:	2204      	movs	r2, #4
 8001530:	639a      	str	r2, [r3, #56]	; 0x38
    
    /* Process Unlocked */
    __HAL_UNLOCK(hdma);
 8001532:	687b      	ldr	r3, [r7, #4]
 8001534:	2220      	movs	r2, #32
 8001536:	2100      	movs	r1, #0
 8001538:	5499      	strb	r1, [r3, r2]
    
    return HAL_ERROR;
 800153a:	2301      	movs	r3, #1
 800153c:	e020      	b.n	8001580 <HAL_DMA_Abort+0x68>
  }
  else
  {
    /* Disable DMA IT */
    hdma->Instance->CCR &= ~(DMA_IT_TC | DMA_IT_HT | DMA_IT_TE);
 800153e:	687b      	ldr	r3, [r7, #4]
 8001540:	681b      	ldr	r3, [r3, #0]
 8001542:	681a      	ldr	r2, [r3, #0]
 8001544:	687b      	ldr	r3, [r7, #4]
 8001546:	681b      	ldr	r3, [r3, #0]
 8001548:	210e      	movs	r1, #14
 800154a:	438a      	bics	r2, r1
 800154c:	601a      	str	r2, [r3, #0]
    
    /* Disable the channel */
    hdma->Instance->CCR &= ~DMA_CCR_EN;
 800154e:	687b      	ldr	r3, [r7, #4]
 8001550:	681b      	ldr	r3, [r3, #0]
 8001552:	681a      	ldr	r2, [r3, #0]
 8001554:	687b      	ldr	r3, [r7, #4]
 8001556:	681b      	ldr	r3, [r3, #0]
 8001558:	2101      	movs	r1, #1
 800155a:	438a      	bics	r2, r1
 800155c:	601a      	str	r2, [r3, #0]
    
    /* Clear all flags */
    hdma->DmaBaseAddress->IFCR = (DMA_FLAG_GL1 << hdma->ChannelIndex);
 800155e:	687b      	ldr	r3, [r7, #4]
 8001560:	6c1a      	ldr	r2, [r3, #64]	; 0x40
 8001562:	687b      	ldr	r3, [r7, #4]
 8001564:	6bdb      	ldr	r3, [r3, #60]	; 0x3c
 8001566:	2101      	movs	r1, #1
 8001568:	4091      	lsls	r1, r2
 800156a:	000a      	movs	r2, r1
 800156c:	605a      	str	r2, [r3, #4]
  }
  /* Change the DMA state*/
  hdma->State = HAL_DMA_STATE_READY; 
 800156e:	687b      	ldr	r3, [r7, #4]
 8001570:	2221      	movs	r2, #33	; 0x21
 8001572:	2101      	movs	r1, #1
 8001574:	5499      	strb	r1, [r3, r2]
  
  /* Process Unlocked */
  __HAL_UNLOCK(hdma);
 8001576:	687b      	ldr	r3, [r7, #4]
 8001578:	2220      	movs	r2, #32
 800157a:	2100      	movs	r1, #0
 800157c:	5499      	strb	r1, [r3, r2]
  
  return HAL_OK;
 800157e:	2300      	movs	r3, #0
}
 8001580:	0018      	movs	r0, r3
 8001582:	46bd      	mov	sp, r7
 8001584:	b002      	add	sp, #8
 8001586:	bd80      	pop	{r7, pc}

08001588 <HAL_DMA_Abort_IT>:
  * @param  hdma  pointer to a DMA_HandleTypeDef structure that contains
  *               the configuration information for the specified DMA Stream.
  * @retval HAL status
  */
HAL_StatusTypeDef HAL_DMA_Abort_IT(DMA_HandleTypeDef *hdma)
{  
 8001588:	b580      	push	{r7, lr}
 800158a:	b084      	sub	sp, #16
 800158c:	af00      	add	r7, sp, #0
 800158e:	6078      	str	r0, [r7, #4]
  HAL_StatusTypeDef status = HAL_OK;
 8001590:	210f      	movs	r1, #15
 8001592:	187b      	adds	r3, r7, r1
 8001594:	2200      	movs	r2, #0
 8001596:	701a      	strb	r2, [r3, #0]
  
  if(HAL_DMA_STATE_BUSY != hdma->State)
 8001598:	687b      	ldr	r3, [r7, #4]
 800159a:	2221      	movs	r2, #33	; 0x21
 800159c:	5c9b      	ldrb	r3, [r3, r2]
 800159e:	b2db      	uxtb	r3, r3
 80015a0:	2b02      	cmp	r3, #2
 80015a2:	d006      	beq.n	80015b2 <HAL_DMA_Abort_IT+0x2a>
  {
    /* no transfer ongoing */
    hdma->ErrorCode = HAL_DMA_ERROR_NO_XFER;
 80015a4:	687b      	ldr	r3, [r7, #4]
 80015a6:	2204      	movs	r2, #4
 80015a8:	639a      	str	r2, [r3, #56]	; 0x38
        
    status = HAL_ERROR;
 80015aa:	187b      	adds	r3, r7, r1
 80015ac:	2201      	movs	r2, #1
 80015ae:	701a      	strb	r2, [r3, #0]
 80015b0:	e028      	b.n	8001604 <HAL_DMA_Abort_IT+0x7c>
  }
  else
  { 
  
    /* Disable DMA IT */
    hdma->Instance->CCR &= ~(DMA_IT_TC | DMA_IT_HT | DMA_IT_TE);
 80015b2:	687b      	ldr	r3, [r7, #4]
 80015b4:	681b      	ldr	r3, [r3, #0]
 80015b6:	681a      	ldr	r2, [r3, #0]
 80015b8:	687b      	ldr	r3, [r7, #4]
 80015ba:	681b      	ldr	r3, [r3, #0]
 80015bc:	210e      	movs	r1, #14
 80015be:	438a      	bics	r2, r1
 80015c0:	601a      	str	r2, [r3, #0]
    
    /* Disable the channel */
    hdma->Instance->CCR &= ~DMA_CCR_EN;
 80015c2:	687b      	ldr	r3, [r7, #4]
 80015c4:	681b      	ldr	r3, [r3, #0]
 80015c6:	681a      	ldr	r2, [r3, #0]
 80015c8:	687b      	ldr	r3, [r7, #4]
 80015ca:	681b      	ldr	r3, [r3, #0]
 80015cc:	2101      	movs	r1, #1
 80015ce:	438a      	bics	r2, r1
 80015d0:	601a      	str	r2, [r3, #0]
    
    /* Clear all flags */
    hdma->DmaBaseAddress->IFCR = DMA_FLAG_GL1 << hdma->ChannelIndex;
 80015d2:	687b      	ldr	r3, [r7, #4]
 80015d4:	6c1a      	ldr	r2, [r3, #64]	; 0x40
 80015d6:	687b      	ldr	r3, [r7, #4]
 80015d8:	6bdb      	ldr	r3, [r3, #60]	; 0x3c
 80015da:	2101      	movs	r1, #1
 80015dc:	4091      	lsls	r1, r2
 80015de:	000a      	movs	r2, r1
 80015e0:	605a      	str	r2, [r3, #4]
    
    /* Change the DMA state */
    hdma->State = HAL_DMA_STATE_READY;
 80015e2:	687b      	ldr	r3, [r7, #4]
 80015e4:	2221      	movs	r2, #33	; 0x21
 80015e6:	2101      	movs	r1, #1
 80015e8:	5499      	strb	r1, [r3, r2]
    
    /* Process Unlocked */
    __HAL_UNLOCK(hdma);
 80015ea:	687b      	ldr	r3, [r7, #4]
 80015ec:	2220      	movs	r2, #32
 80015ee:	2100      	movs	r1, #0
 80015f0:	5499      	strb	r1, [r3, r2]
    
    /* Call User Abort callback */ 
    if(hdma->XferAbortCallback != NULL)
 80015f2:	687b      	ldr	r3, [r7, #4]
 80015f4:	6b5b      	ldr	r3, [r3, #52]	; 0x34
 80015f6:	2b00      	cmp	r3, #0
 80015f8:	d004      	beq.n	8001604 <HAL_DMA_Abort_IT+0x7c>
    {
      hdma->XferAbortCallback(hdma);
 80015fa:	687b      	ldr	r3, [r7, #4]
 80015fc:	6b5b      	ldr	r3, [r3, #52]	; 0x34
 80015fe:	687a      	ldr	r2, [r7, #4]
 8001600:	0010      	movs	r0, r2
 8001602:	4798      	blx	r3
    } 
  }
  return status;
 8001604:	230f      	movs	r3, #15
 8001606:	18fb      	adds	r3, r7, r3
 8001608:	781b      	ldrb	r3, [r3, #0]
}
 800160a:	0018      	movs	r0, r3
 800160c:	46bd      	mov	sp, r7
 800160e:	b004      	add	sp, #16
 8001610:	bd80      	pop	{r7, pc}

08001612 <HAL_DMA_IRQHandler>:
  * @param  hdma pointer to a DMA_HandleTypeDef structure that contains
  *               the configuration information for the specified DMA Channel.  
  * @retval None
  */
void HAL_DMA_IRQHandler(DMA_HandleTypeDef *hdma)
{
 8001612:	b580      	push	{r7, lr}
 8001614:	b084      	sub	sp, #16
 8001616:	af00      	add	r7, sp, #0
 8001618:	6078      	str	r0, [r7, #4]
	uint32_t flag_it = hdma->DmaBaseAddress->ISR;
 800161a:	687b      	ldr	r3, [r7, #4]
 800161c:	6bdb      	ldr	r3, [r3, #60]	; 0x3c
 800161e:	681b      	ldr	r3, [r3, #0]
 8001620:	60fb      	str	r3, [r7, #12]
  uint32_t source_it = hdma->Instance->CCR;
 8001622:	687b      	ldr	r3, [r7, #4]
 8001624:	681b      	ldr	r3, [r3, #0]
 8001626:	681b      	ldr	r3, [r3, #0]
 8001628:	60bb      	str	r3, [r7, #8]
          
  /* Half Transfer Complete Interrupt management ******************************/
  if ((RESET != (flag_it & (DMA_FLAG_HT1 << hdma->ChannelIndex))) && (RESET != (source_it & DMA_IT_HT)))
 800162a:	687b      	ldr	r3, [r7, #4]
 800162c:	6c1b      	ldr	r3, [r3, #64]	; 0x40
 800162e:	2204      	movs	r2, #4
 8001630:	409a      	lsls	r2, r3
 8001632:	0013      	movs	r3, r2
 8001634:	68fa      	ldr	r2, [r7, #12]
 8001636:	4013      	ands	r3, r2
 8001638:	d024      	beq.n	8001684 <HAL_DMA_IRQHandler+0x72>
 800163a:	68bb      	ldr	r3, [r7, #8]
 800163c:	2204      	movs	r2, #4
 800163e:	4013      	ands	r3, r2
 8001640:	d020      	beq.n	8001684 <HAL_DMA_IRQHandler+0x72>
  {
  	/* Disable the half transfer interrupt if the DMA mode is not CIRCULAR */
  	if((hdma->Instance->CCR & DMA_CCR_CIRC) == 0U)
 8001642:	687b      	ldr	r3, [r7, #4]
 8001644:	681b      	ldr	r3, [r3, #0]
 8001646:	681b      	ldr	r3, [r3, #0]
 8001648:	2220      	movs	r2, #32
 800164a:	4013      	ands	r3, r2
 800164c:	d107      	bne.n	800165e <HAL_DMA_IRQHandler+0x4c>
  	{
  		/* Disable the half transfer interrupt */
  		hdma->Instance->CCR &= ~DMA_IT_HT;
 800164e:	687b      	ldr	r3, [r7, #4]
 8001650:	681b      	ldr	r3, [r3, #0]
 8001652:	681a      	ldr	r2, [r3, #0]
 8001654:	687b      	ldr	r3, [r7, #4]
 8001656:	681b      	ldr	r3, [r3, #0]
 8001658:	2104      	movs	r1, #4
 800165a:	438a      	bics	r2, r1
 800165c:	601a      	str	r2, [r3, #0]
  	}
  	
  	/* Clear the half transfer complete flag */
  	hdma->DmaBaseAddress->IFCR = DMA_FLAG_HT1 << hdma->ChannelIndex;
 800165e:	687b      	ldr	r3, [r7, #4]
 8001660:	6c1a      	ldr	r2, [r3, #64]	; 0x40
 8001662:	687b      	ldr	r3, [r7, #4]
 8001664:	6bdb      	ldr	r3, [r3, #60]	; 0x3c
 8001666:	2104      	movs	r1, #4
 8001668:	4091      	lsls	r1, r2
 800166a:	000a      	movs	r2, r1
 800166c:	605a      	str	r2, [r3, #4]
  	
  	/* DMA peripheral state is not updated in Half Transfer */
  	/* State is updated only in Transfer Complete case */
  	
  	if(hdma->XferHalfCpltCallback != NULL)
 800166e:	687b      	ldr	r3, [r7, #4]
 8001670:	6adb      	ldr	r3, [r3, #44]	; 0x2c
 8001672:	2b00      	cmp	r3, #0
 8001674:	d100      	bne.n	8001678 <HAL_DMA_IRQHandler+0x66>
 8001676:	e06a      	b.n	800174e <HAL_DMA_IRQHandler+0x13c>
  	{
  		/* Half transfer callback */
  		hdma->XferHalfCpltCallback(hdma);
 8001678:	687b      	ldr	r3, [r7, #4]
 800167a:	6adb      	ldr	r3, [r3, #44]	; 0x2c
 800167c:	687a      	ldr	r2, [r7, #4]
 800167e:	0010      	movs	r0, r2
 8001680:	4798      	blx	r3
  	if(hdma->XferHalfCpltCallback != NULL)
 8001682:	e064      	b.n	800174e <HAL_DMA_IRQHandler+0x13c>
  	}
  }
  
  /* Transfer Complete Interrupt management ***********************************/
  else if ((RESET != (flag_it & (DMA_FLAG_TC1 << hdma->ChannelIndex))) && (RESET != (source_it & DMA_IT_TC)))
 8001684:	687b      	ldr	r3, [r7, #4]
 8001686:	6c1b      	ldr	r3, [r3, #64]	; 0x40
 8001688:	2202      	movs	r2, #2
 800168a:	409a      	lsls	r2, r3
 800168c:	0013      	movs	r3, r2
 800168e:	68fa      	ldr	r2, [r7, #12]
 8001690:	4013      	ands	r3, r2
 8001692:	d02b      	beq.n	80016ec <HAL_DMA_IRQHandler+0xda>
 8001694:	68bb      	ldr	r3, [r7, #8]
 8001696:	2202      	movs	r2, #2
 8001698:	4013      	ands	r3, r2
 800169a:	d027      	beq.n	80016ec <HAL_DMA_IRQHandler+0xda>
  {
  	if((hdma->Instance->CCR & DMA_CCR_CIRC) == 0U)
 800169c:	687b      	ldr	r3, [r7, #4]
 800169e:	681b      	ldr	r3, [r3, #0]
 80016a0:	681b      	ldr	r3, [r3, #0]
 80016a2:	2220      	movs	r2, #32
 80016a4:	4013      	ands	r3, r2
 80016a6:	d10b      	bne.n	80016c0 <HAL_DMA_IRQHandler+0xae>
  	{
  		/* Disable the transfer complete  & transfer error interrupts */
  		/* if the DMA mode is not CIRCULAR */
  		hdma->Instance->CCR &= ~(DMA_IT_TC | DMA_IT_TE);
 80016a8:	687b      	ldr	r3, [r7, #4]
 80016aa:	681b      	ldr	r3, [r3, #0]
 80016ac:	681a      	ldr	r2, [r3, #0]
 80016ae:	687b      	ldr	r3, [r7, #4]
 80016b0:	681b      	ldr	r3, [r3, #0]
 80016b2:	210a      	movs	r1, #10
 80016b4:	438a      	bics	r2, r1
 80016b6:	601a      	str	r2, [r3, #0]
  		
  		/* Change the DMA state */
  		hdma->State = HAL_DMA_STATE_READY;
 80016b8:	687b      	ldr	r3, [r7, #4]
 80016ba:	2221      	movs	r2, #33	; 0x21
 80016bc:	2101      	movs	r1, #1
 80016be:	5499      	strb	r1, [r3, r2]
  	}
  	
  	/* Clear the transfer complete flag */
  	hdma->DmaBaseAddress->IFCR = DMA_FLAG_TC1 << hdma->ChannelIndex;
 80016c0:	687b      	ldr	r3, [r7, #4]
 80016c2:	6c1a      	ldr	r2, [r3, #64]	; 0x40
 80016c4:	687b      	ldr	r3, [r7, #4]
 80016c6:	6bdb      	ldr	r3, [r3, #60]	; 0x3c
 80016c8:	2102      	movs	r1, #2
 80016ca:	4091      	lsls	r1, r2
 80016cc:	000a      	movs	r2, r1
 80016ce:	605a      	str	r2, [r3, #4]
  	
  	/* Process Unlocked */
  	__HAL_UNLOCK(hdma);
 80016d0:	687b      	ldr	r3, [r7, #4]
 80016d2:	2220      	movs	r2, #32
 80016d4:	2100      	movs	r1, #0
 80016d6:	5499      	strb	r1, [r3, r2]
  	
  	if(hdma->XferCpltCallback != NULL)
 80016d8:	687b      	ldr	r3, [r7, #4]
 80016da:	6a9b      	ldr	r3, [r3, #40]	; 0x28
 80016dc:	2b00      	cmp	r3, #0
 80016de:	d036      	beq.n	800174e <HAL_DMA_IRQHandler+0x13c>
  	{
  		/* Transfer complete callback */
  		hdma->XferCpltCallback(hdma);
 80016e0:	687b      	ldr	r3, [r7, #4]
 80016e2:	6a9b      	ldr	r3, [r3, #40]	; 0x28
 80016e4:	687a      	ldr	r2, [r7, #4]
 80016e6:	0010      	movs	r0, r2
 80016e8:	4798      	blx	r3
  	if(hdma->XferCpltCallback != NULL)
 80016ea:	e030      	b.n	800174e <HAL_DMA_IRQHandler+0x13c>
  	}
  }
  
  /* Transfer Error Interrupt management ***************************************/
  else if (( RESET != (flag_it & (DMA_FLAG_TE1 << hdma->ChannelIndex))) && (RESET != (source_it & DMA_IT_TE)))
 80016ec:	687b      	ldr	r3, [r7, #4]
 80016ee:	6c1b      	ldr	r3, [r3, #64]	; 0x40
 80016f0:	2208      	movs	r2, #8
 80016f2:	409a      	lsls	r2, r3
 80016f4:	0013      	movs	r3, r2
 80016f6:	68fa      	ldr	r2, [r7, #12]
 80016f8:	4013      	ands	r3, r2
 80016fa:	d028      	beq.n	800174e <HAL_DMA_IRQHandler+0x13c>
 80016fc:	68bb      	ldr	r3, [r7, #8]
 80016fe:	2208      	movs	r2, #8
 8001700:	4013      	ands	r3, r2
 8001702:	d024      	beq.n	800174e <HAL_DMA_IRQHandler+0x13c>
  {
  	/* When a DMA transfer error occurs */
    /* A hardware clear of its EN bits is performed */
    /* Then, disable all DMA interrupts */
    hdma->Instance->CCR &= ~(DMA_IT_TC | DMA_IT_HT | DMA_IT_TE);
 8001704:	687b      	ldr	r3, [r7, #4]
 8001706:	681b      	ldr	r3, [r3, #0]
 8001708:	681a      	ldr	r2, [r3, #0]
 800170a:	687b      	ldr	r3, [r7, #4]
 800170c:	681b      	ldr	r3, [r3, #0]
 800170e:	210e      	movs	r1, #14
 8001710:	438a      	bics	r2, r1
 8001712:	601a      	str	r2, [r3, #0]
    
    /* Clear all flags */
    hdma->DmaBaseAddress->IFCR = DMA_FLAG_GL1 << hdma->ChannelIndex;
 8001714:	687b      	ldr	r3, [r7, #4]
 8001716:	6c1a      	ldr	r2, [r3, #64]	; 0x40
 8001718:	687b      	ldr	r3, [r7, #4]
 800171a:	6bdb      	ldr	r3, [r3, #60]	; 0x3c
 800171c:	2101      	movs	r1, #1
 800171e:	4091      	lsls	r1, r2
 8001720:	000a      	movs	r2, r1
 8001722:	605a      	str	r2, [r3, #4]
    
    /* Update error code */
    hdma->ErrorCode = HAL_DMA_ERROR_TE;
 8001724:	687b      	ldr	r3, [r7, #4]
 8001726:	2201      	movs	r2, #1
 8001728:	639a      	str	r2, [r3, #56]	; 0x38
    
    /* Change the DMA state */
    hdma->State = HAL_DMA_STATE_READY;    
 800172a:	687b      	ldr	r3, [r7, #4]
 800172c:	2221      	movs	r2, #33	; 0x21
 800172e:	2101      	movs	r1, #1
 8001730:	5499      	strb	r1, [r3, r2]
    
    /* Process Unlocked */
    __HAL_UNLOCK(hdma); 
 8001732:	687b      	ldr	r3, [r7, #4]
 8001734:	2220      	movs	r2, #32
 8001736:	2100      	movs	r1, #0
 8001738:	5499      	strb	r1, [r3, r2]
    
    if(hdma->XferErrorCallback != NULL)
 800173a:	687b      	ldr	r3, [r7, #4]
 800173c:	6b1b      	ldr	r3, [r3, #48]	; 0x30
 800173e:	2b00      	cmp	r3, #0
 8001740:	d005      	beq.n	800174e <HAL_DMA_IRQHandler+0x13c>
    {
    	/* Transfer error callback */
    	hdma->XferErrorCallback(hdma);
 8001742:	687b      	ldr	r3, [r7, #4]
 8001744:	6b1b      	ldr	r3, [r3, #48]	; 0x30
 8001746:	687a      	ldr	r2, [r7, #4]
 8001748:	0010      	movs	r0, r2
 800174a:	4798      	blx	r3
    }
   }
}  
 800174c:	e7ff      	b.n	800174e <HAL_DMA_IRQHandler+0x13c>
 800174e:	46c0      	nop			; (mov r8, r8)
 8001750:	46bd      	mov	sp, r7
 8001752:	b004      	add	sp, #16
 8001754:	bd80      	pop	{r7, pc}
	...

08001758 <DMA_CalcBaseAndBitshift>:
  * @param  hdma       pointer to a DMA_HandleTypeDef structure that contains
  *                     the configuration information for the specified DMA Stream. 
  * @retval None
  */
static void DMA_CalcBaseAndBitshift(DMA_HandleTypeDef *hdma)
{
 8001758:	b580      	push	{r7, lr}
 800175a:	b082      	sub	sp, #8
 800175c:	af00      	add	r7, sp, #0
 800175e:	6078      	str	r0, [r7, #4]
    hdma->DmaBaseAddress = DMA2;
  }
#else
  /* calculation of the channel index */
  /* DMA1 */
  hdma->ChannelIndex = (((uint32_t)hdma->Instance - (uint32_t)DMA1_Channel1) / ((uint32_t)DMA1_Channel2 - (uint32_t)DMA1_Channel1)) << 2U;
 8001760:	687b      	ldr	r3, [r7, #4]
 8001762:	681b      	ldr	r3, [r3, #0]
 8001764:	4a08      	ldr	r2, [pc, #32]	; (8001788 <DMA_CalcBaseAndBitshift+0x30>)
 8001766:	4694      	mov	ip, r2
 8001768:	4463      	add	r3, ip
 800176a:	2114      	movs	r1, #20
 800176c:	0018      	movs	r0, r3
 800176e:	f7fe fccb 	bl	8000108 <__udivsi3>
 8001772:	0003      	movs	r3, r0
 8001774:	009a      	lsls	r2, r3, #2
 8001776:	687b      	ldr	r3, [r7, #4]
 8001778:	641a      	str	r2, [r3, #64]	; 0x40
  hdma->DmaBaseAddress = DMA1;
 800177a:	687b      	ldr	r3, [r7, #4]
 800177c:	4a03      	ldr	r2, [pc, #12]	; (800178c <DMA_CalcBaseAndBitshift+0x34>)
 800177e:	63da      	str	r2, [r3, #60]	; 0x3c
#endif
}
 8001780:	46c0      	nop			; (mov r8, r8)
 8001782:	46bd      	mov	sp, r7
 8001784:	b002      	add	sp, #8
 8001786:	bd80      	pop	{r7, pc}
 8001788:	bffdfff8 	.word	0xbffdfff8
 800178c:	40020000 	.word	0x40020000

08001790 <HAL_GPIO_Init>:
  * @param  GPIO_Init pointer to a GPIO_InitTypeDef structure that contains
  *         the configuration information for the specified GPIO peripheral.
  * @retval None
  */
void HAL_GPIO_Init(GPIO_TypeDef  *GPIOx, GPIO_InitTypeDef *GPIO_Init)
{
 8001790:	b580      	push	{r7, lr}
 8001792:	b086      	sub	sp, #24
 8001794:	af00      	add	r7, sp, #0
 8001796:	6078      	str	r0, [r7, #4]
 8001798:	6039      	str	r1, [r7, #0]
  uint32_t position = 0x00u;
 800179a:	2300      	movs	r3, #0
 800179c:	617b      	str	r3, [r7, #20]
  assert_param(IS_GPIO_ALL_INSTANCE(GPIOx));
  assert_param(IS_GPIO_PIN(GPIO_Init->Pin));
  assert_param(IS_GPIO_MODE(GPIO_Init->Mode));

  /* Configure the port pins */
  while (((GPIO_Init->Pin) >> position) != 0x00u)
 800179e:	e14f      	b.n	8001a40 <HAL_GPIO_Init+0x2b0>
  {
    /* Get current io position */
    iocurrent = (GPIO_Init->Pin) & (1uL << position);
 80017a0:	683b      	ldr	r3, [r7, #0]
 80017a2:	681b      	ldr	r3, [r3, #0]
 80017a4:	2101      	movs	r1, #1
 80017a6:	697a      	ldr	r2, [r7, #20]
 80017a8:	4091      	lsls	r1, r2
 80017aa:	000a      	movs	r2, r1
 80017ac:	4013      	ands	r3, r2
 80017ae:	60fb      	str	r3, [r7, #12]

    if (iocurrent != 0x00u)
 80017b0:	68fb      	ldr	r3, [r7, #12]
 80017b2:	2b00      	cmp	r3, #0
 80017b4:	d100      	bne.n	80017b8 <HAL_GPIO_Init+0x28>
 80017b6:	e140      	b.n	8001a3a <HAL_GPIO_Init+0x2aa>
    {
      /*--------------------- GPIO Mode Configuration ------------------------*/
      /* In case of Output or Alternate function mode selection */
      if(((GPIO_Init->Mode & GPIO_MODE) == MODE_OUTPUT) ||
 80017b8:	683b      	ldr	r3, [r7, #0]
 80017ba:	685b      	ldr	r3, [r3, #4]
 80017bc:	2203      	movs	r2, #3
 80017be:	4013      	ands	r3, r2
 80017c0:	2b01      	cmp	r3, #1
 80017c2:	d005      	beq.n	80017d0 <HAL_GPIO_Init+0x40>
         ((GPIO_Init->Mode & GPIO_MODE) == MODE_AF))
 80017c4:	683b      	ldr	r3, [r7, #0]
 80017c6:	685b      	ldr	r3, [r3, #4]
 80017c8:	2203      	movs	r2, #3
 80017ca:	4013      	ands	r3, r2
      if(((GPIO_Init->Mode & GPIO_MODE) == MODE_OUTPUT) ||
 80017cc:	2b02      	cmp	r3, #2
 80017ce:	d130      	bne.n	8001832 <HAL_GPIO_Init+0xa2>
      {
        /* Check the Speed parameter */
        assert_param(IS_GPIO_SPEED(GPIO_Init->Speed));
        /* Configure the IO Speed */
        temp = GPIOx->OSPEEDR;
 80017d0:	687b      	ldr	r3, [r7, #4]
 80017d2:	689b      	ldr	r3, [r3, #8]
 80017d4:	613b      	str	r3, [r7, #16]
        temp &= ~(GPIO_OSPEEDER_OSPEEDR0 << (position * 2u));
 80017d6:	697b      	ldr	r3, [r7, #20]
 80017d8:	005b      	lsls	r3, r3, #1
 80017da:	2203      	movs	r2, #3
 80017dc:	409a      	lsls	r2, r3
 80017de:	0013      	movs	r3, r2
 80017e0:	43da      	mvns	r2, r3
 80017e2:	693b      	ldr	r3, [r7, #16]
 80017e4:	4013      	ands	r3, r2
 80017e6:	613b      	str	r3, [r7, #16]
        temp |= (GPIO_Init->Speed << (position * 2u));
 80017e8:	683b      	ldr	r3, [r7, #0]
 80017ea:	68da      	ldr	r2, [r3, #12]
 80017ec:	697b      	ldr	r3, [r7, #20]
 80017ee:	005b      	lsls	r3, r3, #1
 80017f0:	409a      	lsls	r2, r3
 80017f2:	0013      	movs	r3, r2
 80017f4:	693a      	ldr	r2, [r7, #16]
 80017f6:	4313      	orrs	r3, r2
 80017f8:	613b      	str	r3, [r7, #16]
        GPIOx->OSPEEDR = temp;
 80017fa:	687b      	ldr	r3, [r7, #4]
 80017fc:	693a      	ldr	r2, [r7, #16]
 80017fe:	609a      	str	r2, [r3, #8]

        /* Configure the IO Output Type */
        temp = GPIOx->OTYPER;
 8001800:	687b      	ldr	r3, [r7, #4]
 8001802:	685b      	ldr	r3, [r3, #4]
 8001804:	613b      	str	r3, [r7, #16]
        temp &= ~(GPIO_OTYPER_OT_0 << position) ;
 8001806:	2201      	movs	r2, #1
 8001808:	697b      	ldr	r3, [r7, #20]
 800180a:	409a      	lsls	r2, r3
 800180c:	0013      	movs	r3, r2
 800180e:	43da      	mvns	r2, r3
 8001810:	693b      	ldr	r3, [r7, #16]
 8001812:	4013      	ands	r3, r2
 8001814:	613b      	str	r3, [r7, #16]
        temp |= (((GPIO_Init->Mode & OUTPUT_TYPE) >> OUTPUT_TYPE_Pos) << position);
 8001816:	683b      	ldr	r3, [r7, #0]
 8001818:	685b      	ldr	r3, [r3, #4]
 800181a:	091b      	lsrs	r3, r3, #4
 800181c:	2201      	movs	r2, #1
 800181e:	401a      	ands	r2, r3
 8001820:	697b      	ldr	r3, [r7, #20]
 8001822:	409a      	lsls	r2, r3
 8001824:	0013      	movs	r3, r2
 8001826:	693a      	ldr	r2, [r7, #16]
 8001828:	4313      	orrs	r3, r2
 800182a:	613b      	str	r3, [r7, #16]
        GPIOx->OTYPER = temp;
 800182c:	687b      	ldr	r3, [r7, #4]
 800182e:	693a      	ldr	r2, [r7, #16]
 8001830:	605a      	str	r2, [r3, #4]
      }
      
      if((GPIO_Init->Mode & GPIO_MODE) != MODE_ANALOG)
 8001832:	683b      	ldr	r3, [r7, #0]
 8001834:	685b      	ldr	r3, [r3, #4]
 8001836:	2203      	movs	r2, #3
 8001838:	4013      	ands	r3, r2
 800183a:	2b03      	cmp	r3, #3
 800183c:	d017      	beq.n	800186e <HAL_GPIO_Init+0xde>
      {
        /* Check the Pull parameter */
        assert_param(IS_GPIO_PULL(GPIO_Init->Pull));

        /* Activate the Pull-up or Pull down resistor for the current IO */
        temp = GPIOx->PUPDR;
 800183e:	687b      	ldr	r3, [r7, #4]
 8001840:	68db      	ldr	r3, [r3, #12]
 8001842:	613b      	str	r3, [r7, #16]
        temp &= ~(GPIO_PUPDR_PUPDR0 << (position * 2u));
 8001844:	697b      	ldr	r3, [r7, #20]
 8001846:	005b      	lsls	r3, r3, #1
 8001848:	2203      	movs	r2, #3
 800184a:	409a      	lsls	r2, r3
 800184c:	0013      	movs	r3, r2
 800184e:	43da      	mvns	r2, r3
 8001850:	693b      	ldr	r3, [r7, #16]
 8001852:	4013      	ands	r3, r2
 8001854:	613b      	str	r3, [r7, #16]
        temp |= ((GPIO_Init->Pull) << (position * 2u));
 8001856:	683b      	ldr	r3, [r7, #0]
 8001858:	689a      	ldr	r2, [r3, #8]
 800185a:	697b      	ldr	r3, [r7, #20]
 800185c:	005b      	lsls	r3, r3, #1
 800185e:	409a      	lsls	r2, r3
 8001860:	0013      	movs	r3, r2
 8001862:	693a      	ldr	r2, [r7, #16]
 8001864:	4313      	orrs	r3, r2
 8001866:	613b      	str	r3, [r7, #16]
        GPIOx->PUPDR = temp;
 8001868:	687b      	ldr	r3, [r7, #4]
 800186a:	693a      	ldr	r2, [r7, #16]
 800186c:	60da      	str	r2, [r3, #12]
      }

      /* In case of Alternate function mode selection */
      if((GPIO_Init->Mode & GPIO_MODE) == MODE_AF)
 800186e:	683b      	ldr	r3, [r7, #0]
 8001870:	685b      	ldr	r3, [r3, #4]
 8001872:	2203      	movs	r2, #3
 8001874:	4013      	ands	r3, r2
 8001876:	2b02      	cmp	r3, #2
 8001878:	d123      	bne.n	80018c2 <HAL_GPIO_Init+0x132>
        /* Check the Alternate function parameters */
        assert_param(IS_GPIO_AF_INSTANCE(GPIOx));
        assert_param(IS_GPIO_AF(GPIO_Init->Alternate));

        /* Configure Alternate function mapped with the current IO */
        temp = GPIOx->AFR[position >> 3u];
 800187a:	697b      	ldr	r3, [r7, #20]
 800187c:	08da      	lsrs	r2, r3, #3
 800187e:	687b      	ldr	r3, [r7, #4]
 8001880:	3208      	adds	r2, #8
 8001882:	0092      	lsls	r2, r2, #2
 8001884:	58d3      	ldr	r3, [r2, r3]
 8001886:	613b      	str	r3, [r7, #16]
        temp &= ~(0xFu << ((position & 0x07u) * 4u));
 8001888:	697b      	ldr	r3, [r7, #20]
 800188a:	2207      	movs	r2, #7
 800188c:	4013      	ands	r3, r2
 800188e:	009b      	lsls	r3, r3, #2
 8001890:	220f      	movs	r2, #15
 8001892:	409a      	lsls	r2, r3
 8001894:	0013      	movs	r3, r2
 8001896:	43da      	mvns	r2, r3
 8001898:	693b      	ldr	r3, [r7, #16]
 800189a:	4013      	ands	r3, r2
 800189c:	613b      	str	r3, [r7, #16]
        temp |= ((GPIO_Init->Alternate) << ((position & 0x07u) * 4u));
 800189e:	683b      	ldr	r3, [r7, #0]
 80018a0:	691a      	ldr	r2, [r3, #16]
 80018a2:	697b      	ldr	r3, [r7, #20]
 80018a4:	2107      	movs	r1, #7
 80018a6:	400b      	ands	r3, r1
 80018a8:	009b      	lsls	r3, r3, #2
 80018aa:	409a      	lsls	r2, r3
 80018ac:	0013      	movs	r3, r2
 80018ae:	693a      	ldr	r2, [r7, #16]
 80018b0:	4313      	orrs	r3, r2
 80018b2:	613b      	str	r3, [r7, #16]
        GPIOx->AFR[position >> 3u] = temp;
 80018b4:	697b      	ldr	r3, [r7, #20]
 80018b6:	08da      	lsrs	r2, r3, #3
 80018b8:	687b      	ldr	r3, [r7, #4]
 80018ba:	3208      	adds	r2, #8
 80018bc:	0092      	lsls	r2, r2, #2
 80018be:	6939      	ldr	r1, [r7, #16]
 80018c0:	50d1      	str	r1, [r2, r3]
      }

      /* Configure IO Direction mode (Input, Output, Alternate or Analog) */
      temp = GPIOx->MODER;
 80018c2:	687b      	ldr	r3, [r7, #4]
 80018c4:	681b      	ldr	r3, [r3, #0]
 80018c6:	613b      	str	r3, [r7, #16]
      temp &= ~(GPIO_MODER_MODER0 << (position * 2u));
 80018c8:	697b      	ldr	r3, [r7, #20]
 80018ca:	005b      	lsls	r3, r3, #1
 80018cc:	2203      	movs	r2, #3
 80018ce:	409a      	lsls	r2, r3
 80018d0:	0013      	movs	r3, r2
 80018d2:	43da      	mvns	r2, r3
 80018d4:	693b      	ldr	r3, [r7, #16]
 80018d6:	4013      	ands	r3, r2
 80018d8:	613b      	str	r3, [r7, #16]
      temp |= ((GPIO_Init->Mode & GPIO_MODE) << (position * 2u));
 80018da:	683b      	ldr	r3, [r7, #0]
 80018dc:	685b      	ldr	r3, [r3, #4]
 80018de:	2203      	movs	r2, #3
 80018e0:	401a      	ands	r2, r3
 80018e2:	697b      	ldr	r3, [r7, #20]
 80018e4:	005b      	lsls	r3, r3, #1
 80018e6:	409a      	lsls	r2, r3
 80018e8:	0013      	movs	r3, r2
 80018ea:	693a      	ldr	r2, [r7, #16]
 80018ec:	4313      	orrs	r3, r2
 80018ee:	613b      	str	r3, [r7, #16]
      GPIOx->MODER = temp;
 80018f0:	687b      	ldr	r3, [r7, #4]
 80018f2:	693a      	ldr	r2, [r7, #16]
 80018f4:	601a      	str	r2, [r3, #0]

      /*--------------------- EXTI Mode Configuration ------------------------*/
      /* Configure the External Interrupt or event for the current IO */
      if((GPIO_Init->Mode & EXTI_MODE) != 0x00u)
 80018f6:	683b      	ldr	r3, [r7, #0]
 80018f8:	685a      	ldr	r2, [r3, #4]
 80018fa:	23c0      	movs	r3, #192	; 0xc0
 80018fc:	029b      	lsls	r3, r3, #10
 80018fe:	4013      	ands	r3, r2
 8001900:	d100      	bne.n	8001904 <HAL_GPIO_Init+0x174>
 8001902:	e09a      	b.n	8001a3a <HAL_GPIO_Init+0x2aa>
      {
        /* Enable SYSCFG Clock */
        __HAL_RCC_SYSCFG_CLK_ENABLE();
 8001904:	4b54      	ldr	r3, [pc, #336]	; (8001a58 <HAL_GPIO_Init+0x2c8>)
 8001906:	699a      	ldr	r2, [r3, #24]
 8001908:	4b53      	ldr	r3, [pc, #332]	; (8001a58 <HAL_GPIO_Init+0x2c8>)
 800190a:	2101      	movs	r1, #1
 800190c:	430a      	orrs	r2, r1
 800190e:	619a      	str	r2, [r3, #24]
 8001910:	4b51      	ldr	r3, [pc, #324]	; (8001a58 <HAL_GPIO_Init+0x2c8>)
 8001912:	699b      	ldr	r3, [r3, #24]
 8001914:	2201      	movs	r2, #1
 8001916:	4013      	ands	r3, r2
 8001918:	60bb      	str	r3, [r7, #8]
 800191a:	68bb      	ldr	r3, [r7, #8]

        temp = SYSCFG->EXTICR[position >> 2u];
 800191c:	4a4f      	ldr	r2, [pc, #316]	; (8001a5c <HAL_GPIO_Init+0x2cc>)
 800191e:	697b      	ldr	r3, [r7, #20]
 8001920:	089b      	lsrs	r3, r3, #2
 8001922:	3302      	adds	r3, #2
 8001924:	009b      	lsls	r3, r3, #2
 8001926:	589b      	ldr	r3, [r3, r2]
 8001928:	613b      	str	r3, [r7, #16]
        temp &= ~(0x0FuL << (4u * (position & 0x03u)));
 800192a:	697b      	ldr	r3, [r7, #20]
 800192c:	2203      	movs	r2, #3
 800192e:	4013      	ands	r3, r2
 8001930:	009b      	lsls	r3, r3, #2
 8001932:	220f      	movs	r2, #15
 8001934:	409a      	lsls	r2, r3
 8001936:	0013      	movs	r3, r2
 8001938:	43da      	mvns	r2, r3
 800193a:	693b      	ldr	r3, [r7, #16]
 800193c:	4013      	ands	r3, r2
 800193e:	613b      	str	r3, [r7, #16]
        temp |= (GPIO_GET_INDEX(GPIOx) << (4u * (position & 0x03u)));
 8001940:	687a      	ldr	r2, [r7, #4]
 8001942:	2390      	movs	r3, #144	; 0x90
 8001944:	05db      	lsls	r3, r3, #23
 8001946:	429a      	cmp	r2, r3
 8001948:	d013      	beq.n	8001972 <HAL_GPIO_Init+0x1e2>
 800194a:	687b      	ldr	r3, [r7, #4]
 800194c:	4a44      	ldr	r2, [pc, #272]	; (8001a60 <HAL_GPIO_Init+0x2d0>)
 800194e:	4293      	cmp	r3, r2
 8001950:	d00d      	beq.n	800196e <HAL_GPIO_Init+0x1de>
 8001952:	687b      	ldr	r3, [r7, #4]
 8001954:	4a43      	ldr	r2, [pc, #268]	; (8001a64 <HAL_GPIO_Init+0x2d4>)
 8001956:	4293      	cmp	r3, r2
 8001958:	d007      	beq.n	800196a <HAL_GPIO_Init+0x1da>
 800195a:	687b      	ldr	r3, [r7, #4]
 800195c:	4a42      	ldr	r2, [pc, #264]	; (8001a68 <HAL_GPIO_Init+0x2d8>)
 800195e:	4293      	cmp	r3, r2
 8001960:	d101      	bne.n	8001966 <HAL_GPIO_Init+0x1d6>
 8001962:	2303      	movs	r3, #3
 8001964:	e006      	b.n	8001974 <HAL_GPIO_Init+0x1e4>
 8001966:	2305      	movs	r3, #5
 8001968:	e004      	b.n	8001974 <HAL_GPIO_Init+0x1e4>
 800196a:	2302      	movs	r3, #2
 800196c:	e002      	b.n	8001974 <HAL_GPIO_Init+0x1e4>
 800196e:	2301      	movs	r3, #1
 8001970:	e000      	b.n	8001974 <HAL_GPIO_Init+0x1e4>
 8001972:	2300      	movs	r3, #0
 8001974:	697a      	ldr	r2, [r7, #20]
 8001976:	2103      	movs	r1, #3
 8001978:	400a      	ands	r2, r1
 800197a:	0092      	lsls	r2, r2, #2
 800197c:	4093      	lsls	r3, r2
 800197e:	693a      	ldr	r2, [r7, #16]
 8001980:	4313      	orrs	r3, r2
 8001982:	613b      	str	r3, [r7, #16]
        SYSCFG->EXTICR[position >> 2u] = temp;
 8001984:	4935      	ldr	r1, [pc, #212]	; (8001a5c <HAL_GPIO_Init+0x2cc>)
 8001986:	697b      	ldr	r3, [r7, #20]
 8001988:	089b      	lsrs	r3, r3, #2
 800198a:	3302      	adds	r3, #2
 800198c:	009b      	lsls	r3, r3, #2
 800198e:	693a      	ldr	r2, [r7, #16]
 8001990:	505a      	str	r2, [r3, r1]

        /* Clear EXTI line configuration */
        temp = EXTI->IMR;
 8001992:	4b36      	ldr	r3, [pc, #216]	; (8001a6c <HAL_GPIO_Init+0x2dc>)
 8001994:	681b      	ldr	r3, [r3, #0]
 8001996:	613b      	str	r3, [r7, #16]
        temp &= ~(iocurrent);
 8001998:	68fb      	ldr	r3, [r7, #12]
 800199a:	43da      	mvns	r2, r3
 800199c:	693b      	ldr	r3, [r7, #16]
 800199e:	4013      	ands	r3, r2
 80019a0:	613b      	str	r3, [r7, #16]
        if((GPIO_Init->Mode & EXTI_IT) != 0x00u)
 80019a2:	683b      	ldr	r3, [r7, #0]
 80019a4:	685a      	ldr	r2, [r3, #4]
 80019a6:	2380      	movs	r3, #128	; 0x80
 80019a8:	025b      	lsls	r3, r3, #9
 80019aa:	4013      	ands	r3, r2
 80019ac:	d003      	beq.n	80019b6 <HAL_GPIO_Init+0x226>
        {
          temp |= iocurrent;
 80019ae:	693a      	ldr	r2, [r7, #16]
 80019b0:	68fb      	ldr	r3, [r7, #12]
 80019b2:	4313      	orrs	r3, r2
 80019b4:	613b      	str	r3, [r7, #16]
        }
        EXTI->IMR = temp;
 80019b6:	4b2d      	ldr	r3, [pc, #180]	; (8001a6c <HAL_GPIO_Init+0x2dc>)
 80019b8:	693a      	ldr	r2, [r7, #16]
 80019ba:	601a      	str	r2, [r3, #0]

        temp = EXTI->EMR;
 80019bc:	4b2b      	ldr	r3, [pc, #172]	; (8001a6c <HAL_GPIO_Init+0x2dc>)
 80019be:	685b      	ldr	r3, [r3, #4]
 80019c0:	613b      	str	r3, [r7, #16]
        temp &= ~(iocurrent);
 80019c2:	68fb      	ldr	r3, [r7, #12]
 80019c4:	43da      	mvns	r2, r3
 80019c6:	693b      	ldr	r3, [r7, #16]
 80019c8:	4013      	ands	r3, r2
 80019ca:	613b      	str	r3, [r7, #16]
        if((GPIO_Init->Mode & EXTI_EVT) != 0x00u)
 80019cc:	683b      	ldr	r3, [r7, #0]
 80019ce:	685a      	ldr	r2, [r3, #4]
 80019d0:	2380      	movs	r3, #128	; 0x80
 80019d2:	029b      	lsls	r3, r3, #10
 80019d4:	4013      	ands	r3, r2
 80019d6:	d003      	beq.n	80019e0 <HAL_GPIO_Init+0x250>
        {
          temp |= iocurrent;
 80019d8:	693a      	ldr	r2, [r7, #16]
 80019da:	68fb      	ldr	r3, [r7, #12]
 80019dc:	4313      	orrs	r3, r2
 80019de:	613b      	str	r3, [r7, #16]
        }
        EXTI->EMR = temp;
 80019e0:	4b22      	ldr	r3, [pc, #136]	; (8001a6c <HAL_GPIO_Init+0x2dc>)
 80019e2:	693a      	ldr	r2, [r7, #16]
 80019e4:	605a      	str	r2, [r3, #4]

        /* Clear Rising Falling edge configuration */
        temp = EXTI->RTSR;
 80019e6:	4b21      	ldr	r3, [pc, #132]	; (8001a6c <HAL_GPIO_Init+0x2dc>)
 80019e8:	689b      	ldr	r3, [r3, #8]
 80019ea:	613b      	str	r3, [r7, #16]
        temp &= ~(iocurrent);
 80019ec:	68fb      	ldr	r3, [r7, #12]
 80019ee:	43da      	mvns	r2, r3
 80019f0:	693b      	ldr	r3, [r7, #16]
 80019f2:	4013      	ands	r3, r2
 80019f4:	613b      	str	r3, [r7, #16]
        if((GPIO_Init->Mode & TRIGGER_RISING) != 0x00u)
 80019f6:	683b      	ldr	r3, [r7, #0]
 80019f8:	685a      	ldr	r2, [r3, #4]
 80019fa:	2380      	movs	r3, #128	; 0x80
 80019fc:	035b      	lsls	r3, r3, #13
 80019fe:	4013      	ands	r3, r2
 8001a00:	d003      	beq.n	8001a0a <HAL_GPIO_Init+0x27a>
        {
          temp |= iocurrent;
 8001a02:	693a      	ldr	r2, [r7, #16]
 8001a04:	68fb      	ldr	r3, [r7, #12]
 8001a06:	4313      	orrs	r3, r2
 8001a08:	613b      	str	r3, [r7, #16]
        }
        EXTI->RTSR = temp;
 8001a0a:	4b18      	ldr	r3, [pc, #96]	; (8001a6c <HAL_GPIO_Init+0x2dc>)
 8001a0c:	693a      	ldr	r2, [r7, #16]
 8001a0e:	609a      	str	r2, [r3, #8]

        temp = EXTI->FTSR;
 8001a10:	4b16      	ldr	r3, [pc, #88]	; (8001a6c <HAL_GPIO_Init+0x2dc>)
 8001a12:	68db      	ldr	r3, [r3, #12]
 8001a14:	613b      	str	r3, [r7, #16]
        temp &= ~(iocurrent);
 8001a16:	68fb      	ldr	r3, [r7, #12]
 8001a18:	43da      	mvns	r2, r3
 8001a1a:	693b      	ldr	r3, [r7, #16]
 8001a1c:	4013      	ands	r3, r2
 8001a1e:	613b      	str	r3, [r7, #16]
        if((GPIO_Init->Mode & TRIGGER_FALLING) != 0x00u)
 8001a20:	683b      	ldr	r3, [r7, #0]
 8001a22:	685a      	ldr	r2, [r3, #4]
 8001a24:	2380      	movs	r3, #128	; 0x80
 8001a26:	039b      	lsls	r3, r3, #14
 8001a28:	4013      	ands	r3, r2
 8001a2a:	d003      	beq.n	8001a34 <HAL_GPIO_Init+0x2a4>
        {
          temp |= iocurrent;
 8001a2c:	693a      	ldr	r2, [r7, #16]
 8001a2e:	68fb      	ldr	r3, [r7, #12]
 8001a30:	4313      	orrs	r3, r2
 8001a32:	613b      	str	r3, [r7, #16]
        }
        EXTI->FTSR = temp;
 8001a34:	4b0d      	ldr	r3, [pc, #52]	; (8001a6c <HAL_GPIO_Init+0x2dc>)
 8001a36:	693a      	ldr	r2, [r7, #16]
 8001a38:	60da      	str	r2, [r3, #12]
      }
    }

    position++;
 8001a3a:	697b      	ldr	r3, [r7, #20]
 8001a3c:	3301      	adds	r3, #1
 8001a3e:	617b      	str	r3, [r7, #20]
  while (((GPIO_Init->Pin) >> position) != 0x00u)
 8001a40:	683b      	ldr	r3, [r7, #0]
 8001a42:	681a      	ldr	r2, [r3, #0]
 8001a44:	697b      	ldr	r3, [r7, #20]
 8001a46:	40da      	lsrs	r2, r3
 8001a48:	1e13      	subs	r3, r2, #0
 8001a4a:	d000      	beq.n	8001a4e <HAL_GPIO_Init+0x2be>
 8001a4c:	e6a8      	b.n	80017a0 <HAL_GPIO_Init+0x10>
  } 
}
 8001a4e:	46c0      	nop			; (mov r8, r8)
 8001a50:	46c0      	nop			; (mov r8, r8)
 8001a52:	46bd      	mov	sp, r7
 8001a54:	b006      	add	sp, #24
 8001a56:	bd80      	pop	{r7, pc}
 8001a58:	40021000 	.word	0x40021000
 8001a5c:	40010000 	.word	0x40010000
 8001a60:	48000400 	.word	0x48000400
 8001a64:	48000800 	.word	0x48000800
 8001a68:	48000c00 	.word	0x48000c00
 8001a6c:	40010400 	.word	0x40010400

08001a70 <HAL_GPIO_ReadPin>:
  * @param  GPIO_Pin specifies the port bit to read.
  *         This parameter can be GPIO_PIN_x where x can be (0..15).
  * @retval The input port pin value.
  */
GPIO_PinState HAL_GPIO_ReadPin(GPIO_TypeDef* GPIOx, uint16_t GPIO_Pin)
{
 8001a70:	b580      	push	{r7, lr}
 8001a72:	b084      	sub	sp, #16
 8001a74:	af00      	add	r7, sp, #0
 8001a76:	6078      	str	r0, [r7, #4]
 8001a78:	000a      	movs	r2, r1
 8001a7a:	1cbb      	adds	r3, r7, #2
 8001a7c:	801a      	strh	r2, [r3, #0]
  GPIO_PinState bitstatus;

  /* Check the parameters */
  assert_param(IS_GPIO_PIN(GPIO_Pin));

  if ((GPIOx->IDR & GPIO_Pin) != (uint32_t)GPIO_PIN_RESET)
 8001a7e:	687b      	ldr	r3, [r7, #4]
 8001a80:	691b      	ldr	r3, [r3, #16]
 8001a82:	1cba      	adds	r2, r7, #2
 8001a84:	8812      	ldrh	r2, [r2, #0]
 8001a86:	4013      	ands	r3, r2
 8001a88:	d004      	beq.n	8001a94 <HAL_GPIO_ReadPin+0x24>
  {
    bitstatus = GPIO_PIN_SET;
 8001a8a:	230f      	movs	r3, #15
 8001a8c:	18fb      	adds	r3, r7, r3
 8001a8e:	2201      	movs	r2, #1
 8001a90:	701a      	strb	r2, [r3, #0]
 8001a92:	e003      	b.n	8001a9c <HAL_GPIO_ReadPin+0x2c>
  }
  else
  {
    bitstatus = GPIO_PIN_RESET;
 8001a94:	230f      	movs	r3, #15
 8001a96:	18fb      	adds	r3, r7, r3
 8001a98:	2200      	movs	r2, #0
 8001a9a:	701a      	strb	r2, [r3, #0]
  }
  return bitstatus;
 8001a9c:	230f      	movs	r3, #15
 8001a9e:	18fb      	adds	r3, r7, r3
 8001aa0:	781b      	ldrb	r3, [r3, #0]
  }
 8001aa2:	0018      	movs	r0, r3
 8001aa4:	46bd      	mov	sp, r7
 8001aa6:	b004      	add	sp, #16
 8001aa8:	bd80      	pop	{r7, pc}

08001aaa <HAL_GPIO_WritePin>:
  *            @arg GPIO_PIN_RESET: to clear the port pin
  *            @arg GPIO_PIN_SET: to set the port pin
  * @retval None
  */
void HAL_GPIO_WritePin(GPIO_TypeDef* GPIOx, uint16_t GPIO_Pin, GPIO_PinState PinState)
{
 8001aaa:	b580      	push	{r7, lr}
 8001aac:	b082      	sub	sp, #8
 8001aae:	af00      	add	r7, sp, #0
 8001ab0:	6078      	str	r0, [r7, #4]
 8001ab2:	0008      	movs	r0, r1
 8001ab4:	0011      	movs	r1, r2
 8001ab6:	1cbb      	adds	r3, r7, #2
 8001ab8:	1c02      	adds	r2, r0, #0
 8001aba:	801a      	strh	r2, [r3, #0]
 8001abc:	1c7b      	adds	r3, r7, #1
 8001abe:	1c0a      	adds	r2, r1, #0
 8001ac0:	701a      	strb	r2, [r3, #0]
  /* Check the parameters */
  assert_param(IS_GPIO_PIN(GPIO_Pin));
  assert_param(IS_GPIO_PIN_ACTION(PinState));

  if (PinState != GPIO_PIN_RESET)
 8001ac2:	1c7b      	adds	r3, r7, #1
 8001ac4:	781b      	ldrb	r3, [r3, #0]
 8001ac6:	2b00      	cmp	r3, #0
 8001ac8:	d004      	beq.n	8001ad4 <HAL_GPIO_WritePin+0x2a>
  {
    GPIOx->BSRR = (uint32_t)GPIO_Pin;
 8001aca:	1cbb      	adds	r3, r7, #2
 8001acc:	881a      	ldrh	r2, [r3, #0]
 8001ace:	687b      	ldr	r3, [r7, #4]
 8001ad0:	619a      	str	r2, [r3, #24]
  }
  else
  {
    GPIOx->BRR = (uint32_t)GPIO_Pin;
  }
}
 8001ad2:	e003      	b.n	8001adc <HAL_GPIO_WritePin+0x32>
    GPIOx->BRR = (uint32_t)GPIO_Pin;
 8001ad4:	1cbb      	adds	r3, r7, #2
 8001ad6:	881a      	ldrh	r2, [r3, #0]
 8001ad8:	687b      	ldr	r3, [r7, #4]
 8001ada:	629a      	str	r2, [r3, #40]	; 0x28
}
 8001adc:	46c0      	nop			; (mov r8, r8)
 8001ade:	46bd      	mov	sp, r7
 8001ae0:	b002      	add	sp, #8
 8001ae2:	bd80      	pop	{r7, pc}

08001ae4 <HAL_GPIO_TogglePin>:
  * @param  GPIOx where x can be (A..F) to select the GPIO peripheral for STM32F0 family
  * @param  GPIO_Pin specifies the pin to be toggled.
  * @retval None
  */
void HAL_GPIO_TogglePin(GPIO_TypeDef* GPIOx, uint16_t GPIO_Pin)
{
 8001ae4:	b580      	push	{r7, lr}
 8001ae6:	b084      	sub	sp, #16
 8001ae8:	af00      	add	r7, sp, #0
 8001aea:	6078      	str	r0, [r7, #4]
 8001aec:	000a      	movs	r2, r1
 8001aee:	1cbb      	adds	r3, r7, #2
 8001af0:	801a      	strh	r2, [r3, #0]

  /* Check the parameters */
  assert_param(IS_GPIO_PIN(GPIO_Pin));

  /* get current Ouput Data Register value */
  odr = GPIOx->ODR;
 8001af2:	687b      	ldr	r3, [r7, #4]
 8001af4:	695b      	ldr	r3, [r3, #20]
 8001af6:	60fb      	str	r3, [r7, #12]

  /* Set selected pins that were at low level, and reset ones that were high */
  GPIOx->BSRR = ((odr & GPIO_Pin) << GPIO_NUMBER) | (~odr & GPIO_Pin);
 8001af8:	1cbb      	adds	r3, r7, #2
 8001afa:	881b      	ldrh	r3, [r3, #0]
 8001afc:	68fa      	ldr	r2, [r7, #12]
 8001afe:	4013      	ands	r3, r2
 8001b00:	041a      	lsls	r2, r3, #16
 8001b02:	68fb      	ldr	r3, [r7, #12]
 8001b04:	43db      	mvns	r3, r3
 8001b06:	1cb9      	adds	r1, r7, #2
 8001b08:	8809      	ldrh	r1, [r1, #0]
 8001b0a:	400b      	ands	r3, r1
 8001b0c:	431a      	orrs	r2, r3
 8001b0e:	687b      	ldr	r3, [r7, #4]
 8001b10:	619a      	str	r2, [r3, #24]
}
 8001b12:	46c0      	nop			; (mov r8, r8)
 8001b14:	46bd      	mov	sp, r7
 8001b16:	b004      	add	sp, #16
 8001b18:	bd80      	pop	{r7, pc}
	...

08001b1c <HAL_GPIO_EXTI_IRQHandler>:
  * @brief  Handle EXTI interrupt request.
  * @param  GPIO_Pin Specifies the port pin connected to corresponding EXTI line.
  * @retval None
  */
void HAL_GPIO_EXTI_IRQHandler(uint16_t GPIO_Pin)
{
 8001b1c:	b580      	push	{r7, lr}
 8001b1e:	b082      	sub	sp, #8
 8001b20:	af00      	add	r7, sp, #0
 8001b22:	0002      	movs	r2, r0
 8001b24:	1dbb      	adds	r3, r7, #6
 8001b26:	801a      	strh	r2, [r3, #0]
  /* EXTI line interrupt detected */
  if(__HAL_GPIO_EXTI_GET_IT(GPIO_Pin) != 0x00u)
 8001b28:	4b09      	ldr	r3, [pc, #36]	; (8001b50 <HAL_GPIO_EXTI_IRQHandler+0x34>)
 8001b2a:	695b      	ldr	r3, [r3, #20]
 8001b2c:	1dba      	adds	r2, r7, #6
 8001b2e:	8812      	ldrh	r2, [r2, #0]
 8001b30:	4013      	ands	r3, r2
 8001b32:	d008      	beq.n	8001b46 <HAL_GPIO_EXTI_IRQHandler+0x2a>
  { 
    __HAL_GPIO_EXTI_CLEAR_IT(GPIO_Pin);
 8001b34:	4b06      	ldr	r3, [pc, #24]	; (8001b50 <HAL_GPIO_EXTI_IRQHandler+0x34>)
 8001b36:	1dba      	adds	r2, r7, #6
 8001b38:	8812      	ldrh	r2, [r2, #0]
 8001b3a:	615a      	str	r2, [r3, #20]
    HAL_GPIO_EXTI_Callback(GPIO_Pin);
 8001b3c:	1dbb      	adds	r3, r7, #6
 8001b3e:	881b      	ldrh	r3, [r3, #0]
 8001b40:	0018      	movs	r0, r3
 8001b42:	f000 f807 	bl	8001b54 <HAL_GPIO_EXTI_Callback>
  }
}
 8001b46:	46c0      	nop			; (mov r8, r8)
 8001b48:	46bd      	mov	sp, r7
 8001b4a:	b002      	add	sp, #8
 8001b4c:	bd80      	pop	{r7, pc}
 8001b4e:	46c0      	nop			; (mov r8, r8)
 8001b50:	40010400 	.word	0x40010400

08001b54 <HAL_GPIO_EXTI_Callback>:
  * @brief  EXTI line detection callback.
  * @param  GPIO_Pin Specifies the port pin connected to corresponding EXTI line.
  * @retval None
  */
__weak void HAL_GPIO_EXTI_Callback(uint16_t GPIO_Pin)
{
 8001b54:	b580      	push	{r7, lr}
 8001b56:	b082      	sub	sp, #8
 8001b58:	af00      	add	r7, sp, #0
 8001b5a:	0002      	movs	r2, r0
 8001b5c:	1dbb      	adds	r3, r7, #6
 8001b5e:	801a      	strh	r2, [r3, #0]
  UNUSED(GPIO_Pin);

  /* NOTE: This function should not be modified, when the callback is needed,
            the HAL_GPIO_EXTI_Callback could be implemented in the user file
   */ 
}
 8001b60:	46c0      	nop			; (mov r8, r8)
 8001b62:	46bd      	mov	sp, r7
 8001b64:	b002      	add	sp, #8
 8001b66:	bd80      	pop	{r7, pc}

08001b68 <HAL_RCC_OscConfig>:
  *         supported by this macro. User should request a transition to HSE Off
  *         first and then HSE On or HSE Bypass.
  * @retval HAL status
  */
HAL_StatusTypeDef HAL_RCC_OscConfig(RCC_OscInitTypeDef  *RCC_OscInitStruct)
{
 8001b68:	b580      	push	{r7, lr}
 8001b6a:	b088      	sub	sp, #32
 8001b6c:	af00      	add	r7, sp, #0
 8001b6e:	6078      	str	r0, [r7, #4]
  uint32_t tickstart;
  uint32_t pll_config;
  uint32_t pll_config2;

  /* Check Null pointer */
  if(RCC_OscInitStruct == NULL)
 8001b70:	687b      	ldr	r3, [r7, #4]
 8001b72:	2b00      	cmp	r3, #0
 8001b74:	d101      	bne.n	8001b7a <HAL_RCC_OscConfig+0x12>
  {
    return HAL_ERROR;
 8001b76:	2301      	movs	r3, #1
 8001b78:	e301      	b.n	800217e <HAL_RCC_OscConfig+0x616>

  /* Check the parameters */
  assert_param(IS_RCC_OSCILLATORTYPE(RCC_OscInitStruct->OscillatorType));

  /*------------------------------- HSE Configuration ------------------------*/ 
  if(((RCC_OscInitStruct->OscillatorType) & RCC_OSCILLATORTYPE_HSE) == RCC_OSCILLATORTYPE_HSE)
 8001b7a:	687b      	ldr	r3, [r7, #4]
 8001b7c:	681b      	ldr	r3, [r3, #0]
 8001b7e:	2201      	movs	r2, #1
 8001b80:	4013      	ands	r3, r2
 8001b82:	d100      	bne.n	8001b86 <HAL_RCC_OscConfig+0x1e>
 8001b84:	e08d      	b.n	8001ca2 <HAL_RCC_OscConfig+0x13a>
  {
    /* Check the parameters */
    assert_param(IS_RCC_HSE(RCC_OscInitStruct->HSEState));

    /* When the HSE is used as system clock or clock source for PLL in these cases it is not allowed to be disabled */
    if((__HAL_RCC_GET_SYSCLK_SOURCE() == RCC_SYSCLKSOURCE_STATUS_HSE) 
 8001b86:	4bc3      	ldr	r3, [pc, #780]	; (8001e94 <HAL_RCC_OscConfig+0x32c>)
 8001b88:	685b      	ldr	r3, [r3, #4]
 8001b8a:	220c      	movs	r2, #12
 8001b8c:	4013      	ands	r3, r2
 8001b8e:	2b04      	cmp	r3, #4
 8001b90:	d00e      	beq.n	8001bb0 <HAL_RCC_OscConfig+0x48>
       || ((__HAL_RCC_GET_SYSCLK_SOURCE() == RCC_SYSCLKSOURCE_STATUS_PLLCLK) && (__HAL_RCC_GET_PLL_OSCSOURCE() == RCC_PLLSOURCE_HSE)))
 8001b92:	4bc0      	ldr	r3, [pc, #768]	; (8001e94 <HAL_RCC_OscConfig+0x32c>)
 8001b94:	685b      	ldr	r3, [r3, #4]
 8001b96:	220c      	movs	r2, #12
 8001b98:	4013      	ands	r3, r2
 8001b9a:	2b08      	cmp	r3, #8
 8001b9c:	d116      	bne.n	8001bcc <HAL_RCC_OscConfig+0x64>
 8001b9e:	4bbd      	ldr	r3, [pc, #756]	; (8001e94 <HAL_RCC_OscConfig+0x32c>)
 8001ba0:	685a      	ldr	r2, [r3, #4]
 8001ba2:	2380      	movs	r3, #128	; 0x80
 8001ba4:	025b      	lsls	r3, r3, #9
 8001ba6:	401a      	ands	r2, r3
 8001ba8:	2380      	movs	r3, #128	; 0x80
 8001baa:	025b      	lsls	r3, r3, #9
 8001bac:	429a      	cmp	r2, r3
 8001bae:	d10d      	bne.n	8001bcc <HAL_RCC_OscConfig+0x64>
    {
      if((__HAL_RCC_GET_FLAG(RCC_FLAG_HSERDY) != RESET) && (RCC_OscInitStruct->HSEState == RCC_HSE_OFF))
 8001bb0:	4bb8      	ldr	r3, [pc, #736]	; (8001e94 <HAL_RCC_OscConfig+0x32c>)
 8001bb2:	681a      	ldr	r2, [r3, #0]
 8001bb4:	2380      	movs	r3, #128	; 0x80
 8001bb6:	029b      	lsls	r3, r3, #10
 8001bb8:	4013      	ands	r3, r2
 8001bba:	d100      	bne.n	8001bbe <HAL_RCC_OscConfig+0x56>
 8001bbc:	e070      	b.n	8001ca0 <HAL_RCC_OscConfig+0x138>
 8001bbe:	687b      	ldr	r3, [r7, #4]
 8001bc0:	685b      	ldr	r3, [r3, #4]
 8001bc2:	2b00      	cmp	r3, #0
 8001bc4:	d000      	beq.n	8001bc8 <HAL_RCC_OscConfig+0x60>
 8001bc6:	e06b      	b.n	8001ca0 <HAL_RCC_OscConfig+0x138>
      {
        return HAL_ERROR;
 8001bc8:	2301      	movs	r3, #1
 8001bca:	e2d8      	b.n	800217e <HAL_RCC_OscConfig+0x616>
      }
    }
    else
    {
      /* Set the new HSE configuration ---------------------------------------*/
      __HAL_RCC_HSE_CONFIG(RCC_OscInitStruct->HSEState);
 8001bcc:	687b      	ldr	r3, [r7, #4]
 8001bce:	685b      	ldr	r3, [r3, #4]
 8001bd0:	2b01      	cmp	r3, #1
 8001bd2:	d107      	bne.n	8001be4 <HAL_RCC_OscConfig+0x7c>
 8001bd4:	4baf      	ldr	r3, [pc, #700]	; (8001e94 <HAL_RCC_OscConfig+0x32c>)
 8001bd6:	681a      	ldr	r2, [r3, #0]
 8001bd8:	4bae      	ldr	r3, [pc, #696]	; (8001e94 <HAL_RCC_OscConfig+0x32c>)
 8001bda:	2180      	movs	r1, #128	; 0x80
 8001bdc:	0249      	lsls	r1, r1, #9
 8001bde:	430a      	orrs	r2, r1
 8001be0:	601a      	str	r2, [r3, #0]
 8001be2:	e02f      	b.n	8001c44 <HAL_RCC_OscConfig+0xdc>
 8001be4:	687b      	ldr	r3, [r7, #4]
 8001be6:	685b      	ldr	r3, [r3, #4]
 8001be8:	2b00      	cmp	r3, #0
 8001bea:	d10c      	bne.n	8001c06 <HAL_RCC_OscConfig+0x9e>
 8001bec:	4ba9      	ldr	r3, [pc, #676]	; (8001e94 <HAL_RCC_OscConfig+0x32c>)
 8001bee:	681a      	ldr	r2, [r3, #0]
 8001bf0:	4ba8      	ldr	r3, [pc, #672]	; (8001e94 <HAL_RCC_OscConfig+0x32c>)
 8001bf2:	49a9      	ldr	r1, [pc, #676]	; (8001e98 <HAL_RCC_OscConfig+0x330>)
 8001bf4:	400a      	ands	r2, r1
 8001bf6:	601a      	str	r2, [r3, #0]
 8001bf8:	4ba6      	ldr	r3, [pc, #664]	; (8001e94 <HAL_RCC_OscConfig+0x32c>)
 8001bfa:	681a      	ldr	r2, [r3, #0]
 8001bfc:	4ba5      	ldr	r3, [pc, #660]	; (8001e94 <HAL_RCC_OscConfig+0x32c>)
 8001bfe:	49a7      	ldr	r1, [pc, #668]	; (8001e9c <HAL_RCC_OscConfig+0x334>)
 8001c00:	400a      	ands	r2, r1
 8001c02:	601a      	str	r2, [r3, #0]
 8001c04:	e01e      	b.n	8001c44 <HAL_RCC_OscConfig+0xdc>
 8001c06:	687b      	ldr	r3, [r7, #4]
 8001c08:	685b      	ldr	r3, [r3, #4]
 8001c0a:	2b05      	cmp	r3, #5
 8001c0c:	d10e      	bne.n	8001c2c <HAL_RCC_OscConfig+0xc4>
 8001c0e:	4ba1      	ldr	r3, [pc, #644]	; (8001e94 <HAL_RCC_OscConfig+0x32c>)
 8001c10:	681a      	ldr	r2, [r3, #0]
 8001c12:	4ba0      	ldr	r3, [pc, #640]	; (8001e94 <HAL_RCC_OscConfig+0x32c>)
 8001c14:	2180      	movs	r1, #128	; 0x80
 8001c16:	02c9      	lsls	r1, r1, #11
 8001c18:	430a      	orrs	r2, r1
 8001c1a:	601a      	str	r2, [r3, #0]
 8001c1c:	4b9d      	ldr	r3, [pc, #628]	; (8001e94 <HAL_RCC_OscConfig+0x32c>)
 8001c1e:	681a      	ldr	r2, [r3, #0]
 8001c20:	4b9c      	ldr	r3, [pc, #624]	; (8001e94 <HAL_RCC_OscConfig+0x32c>)
 8001c22:	2180      	movs	r1, #128	; 0x80
 8001c24:	0249      	lsls	r1, r1, #9
 8001c26:	430a      	orrs	r2, r1
 8001c28:	601a      	str	r2, [r3, #0]
 8001c2a:	e00b      	b.n	8001c44 <HAL_RCC_OscConfig+0xdc>
 8001c2c:	4b99      	ldr	r3, [pc, #612]	; (8001e94 <HAL_RCC_OscConfig+0x32c>)
 8001c2e:	681a      	ldr	r2, [r3, #0]
 8001c30:	4b98      	ldr	r3, [pc, #608]	; (8001e94 <HAL_RCC_OscConfig+0x32c>)
 8001c32:	4999      	ldr	r1, [pc, #612]	; (8001e98 <HAL_RCC_OscConfig+0x330>)
 8001c34:	400a      	ands	r2, r1
 8001c36:	601a      	str	r2, [r3, #0]
 8001c38:	4b96      	ldr	r3, [pc, #600]	; (8001e94 <HAL_RCC_OscConfig+0x32c>)
 8001c3a:	681a      	ldr	r2, [r3, #0]
 8001c3c:	4b95      	ldr	r3, [pc, #596]	; (8001e94 <HAL_RCC_OscConfig+0x32c>)
 8001c3e:	4997      	ldr	r1, [pc, #604]	; (8001e9c <HAL_RCC_OscConfig+0x334>)
 8001c40:	400a      	ands	r2, r1
 8001c42:	601a      	str	r2, [r3, #0]
      

       /* Check the HSE State */
      if(RCC_OscInitStruct->HSEState != RCC_HSE_OFF)
 8001c44:	687b      	ldr	r3, [r7, #4]
 8001c46:	685b      	ldr	r3, [r3, #4]
 8001c48:	2b00      	cmp	r3, #0
 8001c4a:	d014      	beq.n	8001c76 <HAL_RCC_OscConfig+0x10e>
      {
        /* Get Start Tick */
        tickstart = HAL_GetTick();
 8001c4c:	f7fe fff2 	bl	8000c34 <HAL_GetTick>
 8001c50:	0003      	movs	r3, r0
 8001c52:	61bb      	str	r3, [r7, #24]
        
        /* Wait till HSE is ready */
        while(__HAL_RCC_GET_FLAG(RCC_FLAG_HSERDY) == RESET)
 8001c54:	e008      	b.n	8001c68 <HAL_RCC_OscConfig+0x100>
        {
          if((HAL_GetTick() - tickstart ) > HSE_TIMEOUT_VALUE)
 8001c56:	f7fe ffed 	bl	8000c34 <HAL_GetTick>
 8001c5a:	0002      	movs	r2, r0
 8001c5c:	69bb      	ldr	r3, [r7, #24]
 8001c5e:	1ad3      	subs	r3, r2, r3
 8001c60:	2b64      	cmp	r3, #100	; 0x64
