
EEE3096S_2022_Prac_3_ADCs_Interrupts_and_PWM_Student_Version.elf:     file format elf32-littlearm

Sections:
Idx Name          Size      VMA       LMA       File off  Algn
  0 .isr_vector   000000c0  08000000  08000000  00010000  2**0
                  CONTENTS, ALLOC, LOAD, READONLY, DATA
  1 .text         00004e94  080000c0  080000c0  000100c0  2**2
                  CONTENTS, ALLOC, LOAD, READONLY, CODE
  2 .rodata       00000094  08004f54  08004f54  00014f54  2**2
                  CONTENTS, ALLOC, LOAD, READONLY, DATA
  3 .ARM.extab    00000000  08004fe8  08004fe8  00020078  2**0
                  CONTENTS
  4 .ARM          00000000  08004fe8  08004fe8  00020078  2**0
                  CONTENTS
  5 .preinit_array 00000000  08004fe8  08004fe8  00020078  2**0
                  CONTENTS, ALLOC, LOAD, DATA
  6 .init_array   00000004  08004fe8  08004fe8  00014fe8  2**2
                  CONTENTS, ALLOC, LOAD, DATA
  7 .fini_array   00000004  08004fec  08004fec  00014fec  2**2
                  CONTENTS, ALLOC, LOAD, DATA
  8 .data         00000078  20000000  08004ff0  00020000  2**2
                  CONTENTS, ALLOC, LOAD, DATA
  9 .bss          000001fc  20000078  08005068  00020078  2**2
                  ALLOC
 10 ._user_heap_stack 00000604  20000274  08005068  00020274  2**0
                  ALLOC
 11 .ARM.attributes 00000028  00000000  00000000  00020078  2**0
                  CONTENTS, READONLY
 12 .debug_info   0000f0d2  00000000  00000000  000200a0  2**0
                  CONTENTS, READONLY, DEBUGGING, OCTETS
 13 .debug_abbrev 0000203e  00000000  00000000  0002f172  2**0
                  CONTENTS, READONLY, DEBUGGING, OCTETS
 14 .debug_aranges 00000d48  00000000  00000000  000311b0  2**3
                  CONTENTS, READONLY, DEBUGGING, OCTETS
 15 .debug_ranges 00000c80  00000000  00000000  00031ef8  2**3
                  CONTENTS, READONLY, DEBUGGING, OCTETS
 16 .debug_macro  0001237e  00000000  00000000  00032b78  2**0
                  CONTENTS, READONLY, DEBUGGING, OCTETS
 17 .debug_line   0000f9fd  00000000  00000000  00044ef6  2**0
                  CONTENTS, READONLY, DEBUGGING, OCTETS
 18 .debug_str    00071ddc  00000000  00000000  000548f3  2**0
                  CONTENTS, READONLY, DEBUGGING, OCTETS
 19 .comment      00000050  00000000  00000000  000c66cf  2**0
                  CONTENTS, READONLY
 20 .debug_frame  000033a0  00000000  00000000  000c6720  2**2
                  CONTENTS, READONLY, DEBUGGING, OCTETS

Disassembly of section .text:

080000c0 <__do_global_dtors_aux>:
 80000c0:	b510      	push	{r4, lr}
 80000c2:	4c06      	ldr	r4, [pc, #24]	; (80000dc <__do_global_dtors_aux+0x1c>)
 80000c4:	7823      	ldrb	r3, [r4, #0]
 80000c6:	2b00      	cmp	r3, #0
 80000c8:	d107      	bne.n	80000da <__do_global_dtors_aux+0x1a>
 80000ca:	4b05      	ldr	r3, [pc, #20]	; (80000e0 <__do_global_dtors_aux+0x20>)
 80000cc:	2b00      	cmp	r3, #0
 80000ce:	d002      	beq.n	80000d6 <__do_global_dtors_aux+0x16>
 80000d0:	4804      	ldr	r0, [pc, #16]	; (80000e4 <__do_global_dtors_aux+0x24>)
 80000d2:	e000      	b.n	80000d6 <__do_global_dtors_aux+0x16>
 80000d4:	bf00      	nop
 80000d6:	2301      	movs	r3, #1
 80000d8:	7023      	strb	r3, [r4, #0]
 80000da:	bd10      	pop	{r4, pc}
 80000dc:	20000078 	.word	0x20000078
 80000e0:	00000000 	.word	0x00000000
 80000e4:	08004f3c 	.word	0x08004f3c

080000e8 <frame_dummy>:
 80000e8:	4b04      	ldr	r3, [pc, #16]	; (80000fc <frame_dummy+0x14>)
 80000ea:	b510      	push	{r4, lr}
 80000ec:	2b00      	cmp	r3, #0
 80000ee:	d003      	beq.n	80000f8 <frame_dummy+0x10>
 80000f0:	4903      	ldr	r1, [pc, #12]	; (8000100 <frame_dummy+0x18>)
 80000f2:	4804      	ldr	r0, [pc, #16]	; (8000104 <frame_dummy+0x1c>)
 80000f4:	e000      	b.n	80000f8 <frame_dummy+0x10>
 80000f6:	bf00      	nop
 80000f8:	bd10      	pop	{r4, pc}
 80000fa:	46c0      	nop			; (mov r8, r8)
 80000fc:	00000000 	.word	0x00000000
 8000100:	2000007c 	.word	0x2000007c
 8000104:	08004f3c 	.word	0x08004f3c

08000108 <__gnu_thumb1_case_shi>:
 8000108:	b403      	push	{r0, r1}
 800010a:	4671      	mov	r1, lr
 800010c:	0849      	lsrs	r1, r1, #1
 800010e:	0040      	lsls	r0, r0, #1
 8000110:	0049      	lsls	r1, r1, #1
 8000112:	5e09      	ldrsh	r1, [r1, r0]
 8000114:	0049      	lsls	r1, r1, #1
 8000116:	448e      	add	lr, r1
 8000118:	bc03      	pop	{r0, r1}
 800011a:	4770      	bx	lr

0800011c <__udivsi3>:
 800011c:	2200      	movs	r2, #0
 800011e:	0843      	lsrs	r3, r0, #1
 8000120:	428b      	cmp	r3, r1
 8000122:	d374      	bcc.n	800020e <__udivsi3+0xf2>
 8000124:	0903      	lsrs	r3, r0, #4
 8000126:	428b      	cmp	r3, r1
 8000128:	d35f      	bcc.n	80001ea <__udivsi3+0xce>
 800012a:	0a03      	lsrs	r3, r0, #8
 800012c:	428b      	cmp	r3, r1
 800012e:	d344      	bcc.n	80001ba <__udivsi3+0x9e>
 8000130:	0b03      	lsrs	r3, r0, #12
 8000132:	428b      	cmp	r3, r1
 8000134:	d328      	bcc.n	8000188 <__udivsi3+0x6c>
 8000136:	0c03      	lsrs	r3, r0, #16
 8000138:	428b      	cmp	r3, r1
 800013a:	d30d      	bcc.n	8000158 <__udivsi3+0x3c>
 800013c:	22ff      	movs	r2, #255	; 0xff
 800013e:	0209      	lsls	r1, r1, #8
 8000140:	ba12      	rev	r2, r2
 8000142:	0c03      	lsrs	r3, r0, #16
 8000144:	428b      	cmp	r3, r1
 8000146:	d302      	bcc.n	800014e <__udivsi3+0x32>
 8000148:	1212      	asrs	r2, r2, #8
 800014a:	0209      	lsls	r1, r1, #8
 800014c:	d065      	beq.n	800021a <__udivsi3+0xfe>
 800014e:	0b03      	lsrs	r3, r0, #12
 8000150:	428b      	cmp	r3, r1
 8000152:	d319      	bcc.n	8000188 <__udivsi3+0x6c>
 8000154:	e000      	b.n	8000158 <__udivsi3+0x3c>
 8000156:	0a09      	lsrs	r1, r1, #8
 8000158:	0bc3      	lsrs	r3, r0, #15
 800015a:	428b      	cmp	r3, r1
 800015c:	d301      	bcc.n	8000162 <__udivsi3+0x46>
 800015e:	03cb      	lsls	r3, r1, #15
 8000160:	1ac0      	subs	r0, r0, r3
 8000162:	4152      	adcs	r2, r2
 8000164:	0b83      	lsrs	r3, r0, #14
 8000166:	428b      	cmp	r3, r1
 8000168:	d301      	bcc.n	800016e <__udivsi3+0x52>
 800016a:	038b      	lsls	r3, r1, #14
 800016c:	1ac0      	subs	r0, r0, r3
 800016e:	4152      	adcs	r2, r2
 8000170:	0b43      	lsrs	r3, r0, #13
 8000172:	428b      	cmp	r3, r1
 8000174:	d301      	bcc.n	800017a <__udivsi3+0x5e>
 8000176:	034b      	lsls	r3, r1, #13
 8000178:	1ac0      	subs	r0, r0, r3
 800017a:	4152      	adcs	r2, r2
 800017c:	0b03      	lsrs	r3, r0, #12
 800017e:	428b      	cmp	r3, r1
 8000180:	d301      	bcc.n	8000186 <__udivsi3+0x6a>
 8000182:	030b      	lsls	r3, r1, #12
 8000184:	1ac0      	subs	r0, r0, r3
 8000186:	4152      	adcs	r2, r2
 8000188:	0ac3      	lsrs	r3, r0, #11
 800018a:	428b      	cmp	r3, r1
 800018c:	d301      	bcc.n	8000192 <__udivsi3+0x76>
 800018e:	02cb      	lsls	r3, r1, #11
 8000190:	1ac0      	subs	r0, r0, r3
 8000192:	4152      	adcs	r2, r2
 8000194:	0a83      	lsrs	r3, r0, #10
 8000196:	428b      	cmp	r3, r1
 8000198:	d301      	bcc.n	800019e <__udivsi3+0x82>
 800019a:	028b      	lsls	r3, r1, #10
 800019c:	1ac0      	subs	r0, r0, r3
 800019e:	4152      	adcs	r2, r2
 80001a0:	0a43      	lsrs	r3, r0, #9
 80001a2:	428b      	cmp	r3, r1
 80001a4:	d301      	bcc.n	80001aa <__udivsi3+0x8e>
 80001a6:	024b      	lsls	r3, r1, #9
 80001a8:	1ac0      	subs	r0, r0, r3
 80001aa:	4152      	adcs	r2, r2
 80001ac:	0a03      	lsrs	r3, r0, #8
 80001ae:	428b      	cmp	r3, r1
 80001b0:	d301      	bcc.n	80001b6 <__udivsi3+0x9a>
 80001b2:	020b      	lsls	r3, r1, #8
 80001b4:	1ac0      	subs	r0, r0, r3
 80001b6:	4152      	adcs	r2, r2
 80001b8:	d2cd      	bcs.n	8000156 <__udivsi3+0x3a>
 80001ba:	09c3      	lsrs	r3, r0, #7
 80001bc:	428b      	cmp	r3, r1
 80001be:	d301      	bcc.n	80001c4 <__udivsi3+0xa8>
 80001c0:	01cb      	lsls	r3, r1, #7
 80001c2:	1ac0      	subs	r0, r0, r3
 80001c4:	4152      	adcs	r2, r2
 80001c6:	0983      	lsrs	r3, r0, #6
 80001c8:	428b      	cmp	r3, r1
 80001ca:	d301      	bcc.n	80001d0 <__udivsi3+0xb4>
 80001cc:	018b      	lsls	r3, r1, #6
 80001ce:	1ac0      	subs	r0, r0, r3
 80001d0:	4152      	adcs	r2, r2
 80001d2:	0943      	lsrs	r3, r0, #5
 80001d4:	428b      	cmp	r3, r1
 80001d6:	d301      	bcc.n	80001dc <__udivsi3+0xc0>
 80001d8:	014b      	lsls	r3, r1, #5
 80001da:	1ac0      	subs	r0, r0, r3
 80001dc:	4152      	adcs	r2, r2
 80001de:	0903      	lsrs	r3, r0, #4
 80001e0:	428b      	cmp	r3, r1
 80001e2:	d301      	bcc.n	80001e8 <__udivsi3+0xcc>
 80001e4:	010b      	lsls	r3, r1, #4
 80001e6:	1ac0      	subs	r0, r0, r3
 80001e8:	4152      	adcs	r2, r2
 80001ea:	08c3      	lsrs	r3, r0, #3
 80001ec:	428b      	cmp	r3, r1
 80001ee:	d301      	bcc.n	80001f4 <__udivsi3+0xd8>
 80001f0:	00cb      	lsls	r3, r1, #3
 80001f2:	1ac0      	subs	r0, r0, r3
 80001f4:	4152      	adcs	r2, r2
 80001f6:	0883      	lsrs	r3, r0, #2
 80001f8:	428b      	cmp	r3, r1
 80001fa:	d301      	bcc.n	8000200 <__udivsi3+0xe4>
 80001fc:	008b      	lsls	r3, r1, #2
 80001fe:	1ac0      	subs	r0, r0, r3
 8000200:	4152      	adcs	r2, r2
 8000202:	0843      	lsrs	r3, r0, #1
 8000204:	428b      	cmp	r3, r1
 8000206:	d301      	bcc.n	800020c <__udivsi3+0xf0>
 8000208:	004b      	lsls	r3, r1, #1
 800020a:	1ac0      	subs	r0, r0, r3
 800020c:	4152      	adcs	r2, r2
 800020e:	1a41      	subs	r1, r0, r1
 8000210:	d200      	bcs.n	8000214 <__udivsi3+0xf8>
 8000212:	4601      	mov	r1, r0
 8000214:	4152      	adcs	r2, r2
 8000216:	4610      	mov	r0, r2
 8000218:	4770      	bx	lr
 800021a:	e7ff      	b.n	800021c <__udivsi3+0x100>
 800021c:	b501      	push	{r0, lr}
 800021e:	2000      	movs	r0, #0
 8000220:	f000 f806 	bl	8000230 <__aeabi_idiv0>
 8000224:	bd02      	pop	{r1, pc}
 8000226:	46c0      	nop			; (mov r8, r8)

08000228 <__aeabi_uidivmod>:
 8000228:	2900      	cmp	r1, #0
 800022a:	d0f7      	beq.n	800021c <__udivsi3+0x100>
 800022c:	e776      	b.n	800011c <__udivsi3>
 800022e:	4770      	bx	lr

08000230 <__aeabi_idiv0>:
 8000230:	4770      	bx	lr
 8000232:	46c0      	nop			; (mov r8, r8)

08000234 <main>:
/**
  * @brief  The application entry point.
  * @retval int
  */
int main(void)
{
 8000234:	b580      	push	{r7, lr}
 8000236:	b082      	sub	sp, #8
 8000238:	af00      	add	r7, sp, #0
  /* USER CODE END 1 */

  /* MCU Configuration--------------------------------------------------------*/

  /* Reset of all peripherals, Initializes the Flash interface and the Systick. */
  HAL_Init();
 800023a:	f000 fcf7 	bl	8000c2c <HAL_Init>
  /* USER CODE BEGIN Init */

  /* USER CODE END Init */

  /* Configure the system clock */
  SystemClock_Config();
 800023e:	f000 f84f 	bl	80002e0 <SystemClock_Config>
  /* USER CODE BEGIN SysInit */

  /* USER CODE END SysInit */

  /* Initialize all configured peripherals */
  MX_GPIO_Init();
 8000242:	f000 f9cf 	bl	80005e4 <MX_GPIO_Init>
  MX_DMA_Init();
 8000246:	f000 f9a7 	bl	8000598 <MX_DMA_Init>
  MX_USART2_UART_Init();
 800024a:	f000 f975 	bl	8000538 <MX_USART2_UART_Init>
  MX_ADC_Init();
 800024e:	f000 f897 	bl	8000380 <MX_ADC_Init>
  MX_TIM3_Init();
 8000252:	f000 f8f1 	bl	8000438 <MX_TIM3_Init>
  /* USER CODE BEGIN 2 */

  //TO DO:
  //Create variables needed in while loop

  HAL_TIM_PWM_Start(&htim3, TIM_CHANNEL_4); //Start the PWM on TIM3 Channel 4 (Green LED)
 8000256:	4b1b      	ldr	r3, [pc, #108]	; (80002c4 <main+0x90>)
 8000258:	210c      	movs	r1, #12
 800025a:	0018      	movs	r0, r3
 800025c:	f002 fc4a 	bl	8002af4 <HAL_TIM_PWM_Start>

  /* Infinite loop */
  /* USER CODE BEGIN WHILE */
  while (1)
  {
	  HAL_GPIO_TogglePin(GPIOC, GPIO_PIN_8); // Toggle blue LED
 8000260:	2380      	movs	r3, #128	; 0x80
 8000262:	005b      	lsls	r3, r3, #1
 8000264:	4a18      	ldr	r2, [pc, #96]	; (80002c8 <main+0x94>)
 8000266:	0019      	movs	r1, r3
 8000268:	0010      	movs	r0, r2
 800026a:	f001 feee 	bl	800204a <HAL_GPIO_TogglePin>
	  	  //TO DO:
	  	  //TASK 2
	  	  //Test your pollADC function and display via UART
	  uint32_t valueADC = pollADC(); // Poll the ADC
 800026e:	f000 fa7b 	bl	8000768 <pollADC>
 8000272:	0003      	movs	r3, r0
 8000274:	607b      	str	r3, [r7, #4]
	  uint32_t valueCRR= ADCtoCRR(valueADC); //Set the PWM duty cycle of the green LED
 8000276:	687b      	ldr	r3, [r7, #4]
 8000278:	0018      	movs	r0, r3
 800027a:	f000 fa93 	bl	80007a4 <ADCtoCRR>
 800027e:	0003      	movs	r3, r0
 8000280:	603b      	str	r3, [r7, #0]

	  // Display the ADC and duty cycle values to the Serial port.

	  sprintf(buffer, "ADC Value = %d \r\n", valueADC);
 8000282:	687a      	ldr	r2, [r7, #4]
 8000284:	4911      	ldr	r1, [pc, #68]	; (80002cc <main+0x98>)
 8000286:	4b12      	ldr	r3, [pc, #72]	; (80002d0 <main+0x9c>)
 8000288:	0018      	movs	r0, r3
 800028a:	f004 f9ed 	bl	8004668 <siprintf>
	  HAL_UART_Transmit(&huart2, buffer, sizeof(buffer), 1000);
 800028e:	23fa      	movs	r3, #250	; 0xfa
 8000290:	009b      	lsls	r3, r3, #2
 8000292:	490f      	ldr	r1, [pc, #60]	; (80002d0 <main+0x9c>)
 8000294:	480f      	ldr	r0, [pc, #60]	; (80002d4 <main+0xa0>)
 8000296:	2232      	movs	r2, #50	; 0x32
 8000298:	f003 fa6a 	bl	8003770 <HAL_UART_Transmit>

	  	  //TASK 3
	  	  //Test your ADCtoCRR function. Display CRR value via UART
	  sprintf(buffer, "CRR Value = %d \r\n", valueCRR); // Set the PWM duty cycle of the green LED
 800029c:	683a      	ldr	r2, [r7, #0]
 800029e:	490e      	ldr	r1, [pc, #56]	; (80002d8 <main+0xa4>)
 80002a0:	4b0b      	ldr	r3, [pc, #44]	; (80002d0 <main+0x9c>)
 80002a2:	0018      	movs	r0, r3
 80002a4:	f004 f9e0 	bl	8004668 <siprintf>
	  HAL_UART_Transmit(&huart2, buffer, sizeof(buffer), 1000);
 80002a8:	23fa      	movs	r3, #250	; 0xfa
 80002aa:	009b      	lsls	r3, r3, #2
 80002ac:	4908      	ldr	r1, [pc, #32]	; (80002d0 <main+0x9c>)
 80002ae:	4809      	ldr	r0, [pc, #36]	; (80002d4 <main+0xa0>)
 80002b0:	2232      	movs	r2, #50	; 0x32
 80002b2:	f003 fa5d 	bl	8003770 <HAL_UART_Transmit>

	  	  //TASK 4
	  	  //Complete rest of implementation

	  HAL_Delay (delay); // Toggle the delay interval when the blue push-button is pressed.
 80002b6:	4b09      	ldr	r3, [pc, #36]	; (80002dc <main+0xa8>)
 80002b8:	681b      	ldr	r3, [r3, #0]
 80002ba:	0018      	movs	r0, r3
 80002bc:	f000 fd1a 	bl	8000cf4 <HAL_Delay>
  {
 80002c0:	e7ce      	b.n	8000260 <main+0x2c>
 80002c2:	46c0      	nop			; (mov r8, r8)
 80002c4:	20000118 	.word	0x20000118
 80002c8:	48000800 	.word	0x48000800
 80002cc:	08004f54 	.word	0x08004f54
 80002d0:	20000228 	.word	0x20000228
 80002d4:	20000160 	.word	0x20000160
 80002d8:	08004f68 	.word	0x08004f68
 80002dc:	20000004 	.word	0x20000004

080002e0 <SystemClock_Config>:
/**
  * @brief System Clock Configuration
  * @retval None
  */
void SystemClock_Config(void)
{
 80002e0:	b590      	push	{r4, r7, lr}
 80002e2:	b091      	sub	sp, #68	; 0x44
 80002e4:	af00      	add	r7, sp, #0
  RCC_OscInitTypeDef RCC_OscInitStruct = {0};
 80002e6:	2410      	movs	r4, #16
 80002e8:	193b      	adds	r3, r7, r4
 80002ea:	0018      	movs	r0, r3
 80002ec:	2330      	movs	r3, #48	; 0x30
 80002ee:	001a      	movs	r2, r3
 80002f0:	2100      	movs	r1, #0
 80002f2:	f004 f9b1 	bl	8004658 <memset>
  RCC_ClkInitTypeDef RCC_ClkInitStruct = {0};
 80002f6:	003b      	movs	r3, r7
 80002f8:	0018      	movs	r0, r3
 80002fa:	2310      	movs	r3, #16
 80002fc:	001a      	movs	r2, r3
 80002fe:	2100      	movs	r1, #0
 8000300:	f004 f9aa 	bl	8004658 <memset>

  /** Initializes the RCC Oscillators according to the specified parameters
  * in the RCC_OscInitTypeDef structure.
  */
  RCC_OscInitStruct.OscillatorType = RCC_OSCILLATORTYPE_HSI|RCC_OSCILLATORTYPE_HSI14;
 8000304:	0021      	movs	r1, r4
 8000306:	187b      	adds	r3, r7, r1
 8000308:	2212      	movs	r2, #18
 800030a:	601a      	str	r2, [r3, #0]
  RCC_OscInitStruct.HSIState = RCC_HSI_ON;
 800030c:	187b      	adds	r3, r7, r1
 800030e:	2201      	movs	r2, #1
 8000310:	60da      	str	r2, [r3, #12]
  RCC_OscInitStruct.HSI14State = RCC_HSI14_ON;
 8000312:	187b      	adds	r3, r7, r1
 8000314:	2201      	movs	r2, #1
 8000316:	615a      	str	r2, [r3, #20]
  RCC_OscInitStruct.HSICalibrationValue = RCC_HSICALIBRATION_DEFAULT;
 8000318:	187b      	adds	r3, r7, r1
 800031a:	2210      	movs	r2, #16
 800031c:	611a      	str	r2, [r3, #16]
  RCC_OscInitStruct.HSI14CalibrationValue = 16;
 800031e:	187b      	adds	r3, r7, r1
 8000320:	2210      	movs	r2, #16
 8000322:	619a      	str	r2, [r3, #24]
  RCC_OscInitStruct.PLL.PLLState = RCC_PLL_ON;
 8000324:	187b      	adds	r3, r7, r1
 8000326:	2202      	movs	r2, #2
 8000328:	621a      	str	r2, [r3, #32]
  RCC_OscInitStruct.PLL.PLLSource = RCC_PLLSOURCE_HSI;
 800032a:	187b      	adds	r3, r7, r1
 800032c:	2200      	movs	r2, #0
 800032e:	625a      	str	r2, [r3, #36]	; 0x24
  RCC_OscInitStruct.PLL.PLLMUL = RCC_PLL_MUL12;
 8000330:	187b      	adds	r3, r7, r1
 8000332:	22a0      	movs	r2, #160	; 0xa0
 8000334:	0392      	lsls	r2, r2, #14
 8000336:	629a      	str	r2, [r3, #40]	; 0x28
  RCC_OscInitStruct.PLL.PREDIV = RCC_PREDIV_DIV1;
 8000338:	187b      	adds	r3, r7, r1
 800033a:	2200      	movs	r2, #0
 800033c:	62da      	str	r2, [r3, #44]	; 0x2c
  if (HAL_RCC_OscConfig(&RCC_OscInitStruct) != HAL_OK)
 800033e:	187b      	adds	r3, r7, r1
 8000340:	0018      	movs	r0, r3
 8000342:	f001 fec3 	bl	80020cc <HAL_RCC_OscConfig>
 8000346:	1e03      	subs	r3, r0, #0
 8000348:	d001      	beq.n	800034e <SystemClock_Config+0x6e>
  {
    Error_Handler();
 800034a:	f000 fa41 	bl	80007d0 <Error_Handler>
  }

  /** Initializes the CPU, AHB and APB buses clocks
  */
  RCC_ClkInitStruct.ClockType = RCC_CLOCKTYPE_HCLK|RCC_CLOCKTYPE_SYSCLK
 800034e:	003b      	movs	r3, r7
 8000350:	2207      	movs	r2, #7
 8000352:	601a      	str	r2, [r3, #0]
                              |RCC_CLOCKTYPE_PCLK1;
  RCC_ClkInitStruct.SYSCLKSource = RCC_SYSCLKSOURCE_PLLCLK;
 8000354:	003b      	movs	r3, r7
 8000356:	2202      	movs	r2, #2
 8000358:	605a      	str	r2, [r3, #4]
  RCC_ClkInitStruct.AHBCLKDivider = RCC_SYSCLK_DIV1;
 800035a:	003b      	movs	r3, r7
 800035c:	2200      	movs	r2, #0
 800035e:	609a      	str	r2, [r3, #8]
  RCC_ClkInitStruct.APB1CLKDivider = RCC_HCLK_DIV1;
 8000360:	003b      	movs	r3, r7
 8000362:	2200      	movs	r2, #0
 8000364:	60da      	str	r2, [r3, #12]

  if (HAL_RCC_ClockConfig(&RCC_ClkInitStruct, FLASH_LATENCY_1) != HAL_OK)
 8000366:	003b      	movs	r3, r7
 8000368:	2101      	movs	r1, #1
 800036a:	0018      	movs	r0, r3
 800036c:	f002 f9c8 	bl	8002700 <HAL_RCC_ClockConfig>
 8000370:	1e03      	subs	r3, r0, #0
 8000372:	d001      	beq.n	8000378 <SystemClock_Config+0x98>
  {
    Error_Handler();
 8000374:	f000 fa2c 	bl	80007d0 <Error_Handler>
  }
}
 8000378:	46c0      	nop			; (mov r8, r8)
 800037a:	46bd      	mov	sp, r7
 800037c:	b011      	add	sp, #68	; 0x44
 800037e:	bd90      	pop	{r4, r7, pc}

08000380 <MX_ADC_Init>:
  * @brief ADC Initialization Function
  * @param None
  * @retval None
  */
static void MX_ADC_Init(void)
{
 8000380:	b580      	push	{r7, lr}
 8000382:	b084      	sub	sp, #16
 8000384:	af00      	add	r7, sp, #0

  /* USER CODE BEGIN ADC_Init 0 */

  /* USER CODE END ADC_Init 0 */

  ADC_ChannelConfTypeDef sConfig = {0};
 8000386:	1d3b      	adds	r3, r7, #4
 8000388:	0018      	movs	r0, r3
 800038a:	230c      	movs	r3, #12
 800038c:	001a      	movs	r2, r3
 800038e:	2100      	movs	r1, #0
 8000390:	f004 f962 	bl	8004658 <memset>

  /* USER CODE END ADC_Init 1 */

  /** Configure the global features of the ADC (Clock, Resolution, Data Alignment and number of conversion)
  */
  hadc.Instance = ADC1;
 8000394:	4b26      	ldr	r3, [pc, #152]	; (8000430 <MX_ADC_Init+0xb0>)
 8000396:	4a27      	ldr	r2, [pc, #156]	; (8000434 <MX_ADC_Init+0xb4>)
 8000398:	601a      	str	r2, [r3, #0]
  hadc.Init.ClockPrescaler = ADC_CLOCK_ASYNC_DIV1;
 800039a:	4b25      	ldr	r3, [pc, #148]	; (8000430 <MX_ADC_Init+0xb0>)
 800039c:	2200      	movs	r2, #0
 800039e:	605a      	str	r2, [r3, #4]
  hadc.Init.Resolution = ADC_RESOLUTION_12B;
 80003a0:	4b23      	ldr	r3, [pc, #140]	; (8000430 <MX_ADC_Init+0xb0>)
 80003a2:	2200      	movs	r2, #0
 80003a4:	609a      	str	r2, [r3, #8]
  hadc.Init.DataAlign = ADC_DATAALIGN_RIGHT;
 80003a6:	4b22      	ldr	r3, [pc, #136]	; (8000430 <MX_ADC_Init+0xb0>)
 80003a8:	2200      	movs	r2, #0
 80003aa:	60da      	str	r2, [r3, #12]
  hadc.Init.ScanConvMode = ADC_SCAN_DIRECTION_FORWARD;
 80003ac:	4b20      	ldr	r3, [pc, #128]	; (8000430 <MX_ADC_Init+0xb0>)
 80003ae:	2201      	movs	r2, #1
 80003b0:	611a      	str	r2, [r3, #16]
  hadc.Init.EOCSelection = ADC_EOC_SINGLE_CONV;
 80003b2:	4b1f      	ldr	r3, [pc, #124]	; (8000430 <MX_ADC_Init+0xb0>)
 80003b4:	2204      	movs	r2, #4
 80003b6:	615a      	str	r2, [r3, #20]
  hadc.Init.LowPowerAutoWait = DISABLE;
 80003b8:	4b1d      	ldr	r3, [pc, #116]	; (8000430 <MX_ADC_Init+0xb0>)
 80003ba:	2200      	movs	r2, #0
 80003bc:	761a      	strb	r2, [r3, #24]
  hadc.Init.LowPowerAutoPowerOff = DISABLE;
 80003be:	4b1c      	ldr	r3, [pc, #112]	; (8000430 <MX_ADC_Init+0xb0>)
 80003c0:	2200      	movs	r2, #0
 80003c2:	765a      	strb	r2, [r3, #25]
  hadc.Init.ContinuousConvMode = DISABLE;
 80003c4:	4b1a      	ldr	r3, [pc, #104]	; (8000430 <MX_ADC_Init+0xb0>)
 80003c6:	2200      	movs	r2, #0
 80003c8:	769a      	strb	r2, [r3, #26]
  hadc.Init.DiscontinuousConvMode = DISABLE;
 80003ca:	4b19      	ldr	r3, [pc, #100]	; (8000430 <MX_ADC_Init+0xb0>)
 80003cc:	2200      	movs	r2, #0
 80003ce:	76da      	strb	r2, [r3, #27]
  hadc.Init.ExternalTrigConv = ADC_SOFTWARE_START;
 80003d0:	4b17      	ldr	r3, [pc, #92]	; (8000430 <MX_ADC_Init+0xb0>)
 80003d2:	22c2      	movs	r2, #194	; 0xc2
 80003d4:	32ff      	adds	r2, #255	; 0xff
 80003d6:	61da      	str	r2, [r3, #28]
  hadc.Init.ExternalTrigConvEdge = ADC_EXTERNALTRIGCONVEDGE_NONE;
 80003d8:	4b15      	ldr	r3, [pc, #84]	; (8000430 <MX_ADC_Init+0xb0>)
 80003da:	2200      	movs	r2, #0
 80003dc:	621a      	str	r2, [r3, #32]
  hadc.Init.DMAContinuousRequests = DISABLE;
 80003de:	4b14      	ldr	r3, [pc, #80]	; (8000430 <MX_ADC_Init+0xb0>)
 80003e0:	2224      	movs	r2, #36	; 0x24
 80003e2:	2100      	movs	r1, #0
 80003e4:	5499      	strb	r1, [r3, r2]
  hadc.Init.Overrun = ADC_OVR_DATA_PRESERVED;
 80003e6:	4b12      	ldr	r3, [pc, #72]	; (8000430 <MX_ADC_Init+0xb0>)
 80003e8:	2201      	movs	r2, #1
 80003ea:	629a      	str	r2, [r3, #40]	; 0x28
  if (HAL_ADC_Init(&hadc) != HAL_OK)
 80003ec:	4b10      	ldr	r3, [pc, #64]	; (8000430 <MX_ADC_Init+0xb0>)
 80003ee:	0018      	movs	r0, r3
 80003f0:	f000 fca4 	bl	8000d3c <HAL_ADC_Init>
 80003f4:	1e03      	subs	r3, r0, #0
 80003f6:	d001      	beq.n	80003fc <MX_ADC_Init+0x7c>
  {
    Error_Handler();
 80003f8:	f000 f9ea 	bl	80007d0 <Error_Handler>
  }

  /** Configure for the selected ADC regular channel to be converted.
  */
  sConfig.Channel = ADC_CHANNEL_7;
 80003fc:	1d3b      	adds	r3, r7, #4
 80003fe:	2207      	movs	r2, #7
 8000400:	601a      	str	r2, [r3, #0]
  sConfig.Rank = ADC_RANK_CHANNEL_NUMBER;
 8000402:	1d3b      	adds	r3, r7, #4
 8000404:	2280      	movs	r2, #128	; 0x80
 8000406:	0152      	lsls	r2, r2, #5
 8000408:	605a      	str	r2, [r3, #4]
  sConfig.SamplingTime = ADC_SAMPLETIME_1CYCLE_5;
 800040a:	1d3b      	adds	r3, r7, #4
 800040c:	2280      	movs	r2, #128	; 0x80
 800040e:	0552      	lsls	r2, r2, #21
 8000410:	609a      	str	r2, [r3, #8]
  if (HAL_ADC_ConfigChannel(&hadc, &sConfig) != HAL_OK)
 8000412:	1d3a      	adds	r2, r7, #4
 8000414:	4b06      	ldr	r3, [pc, #24]	; (8000430 <MX_ADC_Init+0xb0>)
 8000416:	0011      	movs	r1, r2
 8000418:	0018      	movs	r0, r3
 800041a:	f000 ffd7 	bl	80013cc <HAL_ADC_ConfigChannel>
 800041e:	1e03      	subs	r3, r0, #0
 8000420:	d001      	beq.n	8000426 <MX_ADC_Init+0xa6>
  {
    Error_Handler();
 8000422:	f000 f9d5 	bl	80007d0 <Error_Handler>
  }
  /* USER CODE BEGIN ADC_Init 2 */

  /* USER CODE END ADC_Init 2 */

}
 8000426:	46c0      	nop			; (mov r8, r8)
 8000428:	46bd      	mov	sp, r7
 800042a:	b004      	add	sp, #16
 800042c:	bd80      	pop	{r7, pc}
 800042e:	46c0      	nop			; (mov r8, r8)
 8000430:	20000094 	.word	0x20000094
 8000434:	40012400 	.word	0x40012400

08000438 <MX_TIM3_Init>:
  * @brief TIM3 Initialization Function
  * @param None
  * @retval None
  */
static void MX_TIM3_Init(void)
{
 8000438:	b580      	push	{r7, lr}
 800043a:	b08e      	sub	sp, #56	; 0x38
 800043c:	af00      	add	r7, sp, #0

  /* USER CODE BEGIN TIM3_Init 0 */

  /* USER CODE END TIM3_Init 0 */

  TIM_ClockConfigTypeDef sClockSourceConfig = {0};
 800043e:	2328      	movs	r3, #40	; 0x28
 8000440:	18fb      	adds	r3, r7, r3
 8000442:	0018      	movs	r0, r3
 8000444:	2310      	movs	r3, #16
 8000446:	001a      	movs	r2, r3
 8000448:	2100      	movs	r1, #0
 800044a:	f004 f905 	bl	8004658 <memset>
  TIM_MasterConfigTypeDef sMasterConfig = {0};
 800044e:	2320      	movs	r3, #32
 8000450:	18fb      	adds	r3, r7, r3
 8000452:	0018      	movs	r0, r3
 8000454:	2308      	movs	r3, #8
 8000456:	001a      	movs	r2, r3
 8000458:	2100      	movs	r1, #0
 800045a:	f004 f8fd 	bl	8004658 <memset>
  TIM_OC_InitTypeDef sConfigOC = {0};
 800045e:	1d3b      	adds	r3, r7, #4
 8000460:	0018      	movs	r0, r3
 8000462:	231c      	movs	r3, #28
 8000464:	001a      	movs	r2, r3
 8000466:	2100      	movs	r1, #0
 8000468:	f004 f8f6 	bl	8004658 <memset>

  /* USER CODE BEGIN TIM3_Init 1 */

  /* USER CODE END TIM3_Init 1 */
  htim3.Instance = TIM3;
 800046c:	4b2f      	ldr	r3, [pc, #188]	; (800052c <MX_TIM3_Init+0xf4>)
 800046e:	4a30      	ldr	r2, [pc, #192]	; (8000530 <MX_TIM3_Init+0xf8>)
 8000470:	601a      	str	r2, [r3, #0]
  htim3.Init.Prescaler = 0;
 8000472:	4b2e      	ldr	r3, [pc, #184]	; (800052c <MX_TIM3_Init+0xf4>)
 8000474:	2200      	movs	r2, #0
 8000476:	605a      	str	r2, [r3, #4]
  htim3.Init.CounterMode = TIM_COUNTERMODE_UP;
 8000478:	4b2c      	ldr	r3, [pc, #176]	; (800052c <MX_TIM3_Init+0xf4>)
 800047a:	2200      	movs	r2, #0
 800047c:	609a      	str	r2, [r3, #8]
  htim3.Init.Period = 47999;
 800047e:	4b2b      	ldr	r3, [pc, #172]	; (800052c <MX_TIM3_Init+0xf4>)
 8000480:	4a2c      	ldr	r2, [pc, #176]	; (8000534 <MX_TIM3_Init+0xfc>)
 8000482:	60da      	str	r2, [r3, #12]
  htim3.Init.ClockDivision = TIM_CLOCKDIVISION_DIV1;
 8000484:	4b29      	ldr	r3, [pc, #164]	; (800052c <MX_TIM3_Init+0xf4>)
 8000486:	2200      	movs	r2, #0
 8000488:	611a      	str	r2, [r3, #16]
  htim3.Init.AutoReloadPreload = TIM_AUTORELOAD_PRELOAD_ENABLE;
 800048a:	4b28      	ldr	r3, [pc, #160]	; (800052c <MX_TIM3_Init+0xf4>)
 800048c:	2280      	movs	r2, #128	; 0x80
 800048e:	619a      	str	r2, [r3, #24]
  if (HAL_TIM_Base_Init(&htim3) != HAL_OK)
 8000490:	4b26      	ldr	r3, [pc, #152]	; (800052c <MX_TIM3_Init+0xf4>)
 8000492:	0018      	movs	r0, r3
 8000494:	f002 fa86 	bl	80029a4 <HAL_TIM_Base_Init>
 8000498:	1e03      	subs	r3, r0, #0
 800049a:	d001      	beq.n	80004a0 <MX_TIM3_Init+0x68>
  {
    Error_Handler();
 800049c:	f000 f998 	bl	80007d0 <Error_Handler>
  }
  sClockSourceConfig.ClockSource = TIM_CLOCKSOURCE_INTERNAL;
 80004a0:	2128      	movs	r1, #40	; 0x28
 80004a2:	187b      	adds	r3, r7, r1
 80004a4:	2280      	movs	r2, #128	; 0x80
 80004a6:	0152      	lsls	r2, r2, #5
 80004a8:	601a      	str	r2, [r3, #0]
  if (HAL_TIM_ConfigClockSource(&htim3, &sClockSourceConfig) != HAL_OK)
 80004aa:	187a      	adds	r2, r7, r1
 80004ac:	4b1f      	ldr	r3, [pc, #124]	; (800052c <MX_TIM3_Init+0xf4>)
 80004ae:	0011      	movs	r1, r2
 80004b0:	0018      	movs	r0, r3
 80004b2:	f002 fc9d 	bl	8002df0 <HAL_TIM_ConfigClockSource>
 80004b6:	1e03      	subs	r3, r0, #0
 80004b8:	d001      	beq.n	80004be <MX_TIM3_Init+0x86>
  {
    Error_Handler();
 80004ba:	f000 f989 	bl	80007d0 <Error_Handler>
  }
  if (HAL_TIM_PWM_Init(&htim3) != HAL_OK)
 80004be:	4b1b      	ldr	r3, [pc, #108]	; (800052c <MX_TIM3_Init+0xf4>)
 80004c0:	0018      	movs	r0, r3
 80004c2:	f002 fabf 	bl	8002a44 <HAL_TIM_PWM_Init>
 80004c6:	1e03      	subs	r3, r0, #0
 80004c8:	d001      	beq.n	80004ce <MX_TIM3_Init+0x96>
  {
    Error_Handler();
 80004ca:	f000 f981 	bl	80007d0 <Error_Handler>
  }
  sMasterConfig.MasterOutputTrigger = TIM_TRGO_RESET;
 80004ce:	2120      	movs	r1, #32
 80004d0:	187b      	adds	r3, r7, r1
 80004d2:	2200      	movs	r2, #0
 80004d4:	601a      	str	r2, [r3, #0]
  sMasterConfig.MasterSlaveMode = TIM_MASTERSLAVEMODE_DISABLE;
 80004d6:	187b      	adds	r3, r7, r1
 80004d8:	2200      	movs	r2, #0
 80004da:	605a      	str	r2, [r3, #4]
  if (HAL_TIMEx_MasterConfigSynchronization(&htim3, &sMasterConfig) != HAL_OK)
 80004dc:	187a      	adds	r2, r7, r1
 80004de:	4b13      	ldr	r3, [pc, #76]	; (800052c <MX_TIM3_Init+0xf4>)
 80004e0:	0011      	movs	r1, r2
 80004e2:	0018      	movs	r0, r3
 80004e4:	f003 f892 	bl	800360c <HAL_TIMEx_MasterConfigSynchronization>
 80004e8:	1e03      	subs	r3, r0, #0
 80004ea:	d001      	beq.n	80004f0 <MX_TIM3_Init+0xb8>
  {
    Error_Handler();
 80004ec:	f000 f970 	bl	80007d0 <Error_Handler>
  }
  sConfigOC.OCMode = TIM_OCMODE_PWM1;
 80004f0:	1d3b      	adds	r3, r7, #4
 80004f2:	2260      	movs	r2, #96	; 0x60
 80004f4:	601a      	str	r2, [r3, #0]
  sConfigOC.Pulse = 0;
 80004f6:	1d3b      	adds	r3, r7, #4
 80004f8:	2200      	movs	r2, #0
 80004fa:	605a      	str	r2, [r3, #4]
  sConfigOC.OCPolarity = TIM_OCPOLARITY_HIGH;
 80004fc:	1d3b      	adds	r3, r7, #4
 80004fe:	2200      	movs	r2, #0
 8000500:	609a      	str	r2, [r3, #8]
  sConfigOC.OCFastMode = TIM_OCFAST_DISABLE;
 8000502:	1d3b      	adds	r3, r7, #4
 8000504:	2200      	movs	r2, #0
 8000506:	611a      	str	r2, [r3, #16]
  if (HAL_TIM_PWM_ConfigChannel(&htim3, &sConfigOC, TIM_CHANNEL_4) != HAL_OK)
 8000508:	1d39      	adds	r1, r7, #4
 800050a:	4b08      	ldr	r3, [pc, #32]	; (800052c <MX_TIM3_Init+0xf4>)
 800050c:	220c      	movs	r2, #12
 800050e:	0018      	movs	r0, r3
 8000510:	f002 fba8 	bl	8002c64 <HAL_TIM_PWM_ConfigChannel>
 8000514:	1e03      	subs	r3, r0, #0
 8000516:	d001      	beq.n	800051c <MX_TIM3_Init+0xe4>
  {
    Error_Handler();
 8000518:	f000 f95a 	bl	80007d0 <Error_Handler>
  }
  /* USER CODE BEGIN TIM3_Init 2 */

  /* USER CODE END TIM3_Init 2 */
  HAL_TIM_MspPostInit(&htim3);
 800051c:	4b03      	ldr	r3, [pc, #12]	; (800052c <MX_TIM3_Init+0xf4>)
 800051e:	0018      	movs	r0, r3
 8000520:	f000 fa18 	bl	8000954 <HAL_TIM_MspPostInit>

}
 8000524:	46c0      	nop			; (mov r8, r8)
 8000526:	46bd      	mov	sp, r7
 8000528:	b00e      	add	sp, #56	; 0x38
 800052a:	bd80      	pop	{r7, pc}
 800052c:	20000118 	.word	0x20000118
 8000530:	40000400 	.word	0x40000400
 8000534:	0000bb7f 	.word	0x0000bb7f

08000538 <MX_USART2_UART_Init>:
  * @brief USART2 Initialization Function
  * @param None
  * @retval None
  */
static void MX_USART2_UART_Init(void)
{
 8000538:	b580      	push	{r7, lr}
 800053a:	af00      	add	r7, sp, #0
  /* USER CODE END USART2_Init 0 */

  /* USER CODE BEGIN USART2_Init 1 */

  /* USER CODE END USART2_Init 1 */
  huart2.Instance = USART2;
 800053c:	4b14      	ldr	r3, [pc, #80]	; (8000590 <MX_USART2_UART_Init+0x58>)
 800053e:	4a15      	ldr	r2, [pc, #84]	; (8000594 <MX_USART2_UART_Init+0x5c>)
 8000540:	601a      	str	r2, [r3, #0]
  huart2.Init.BaudRate = 9600;
 8000542:	4b13      	ldr	r3, [pc, #76]	; (8000590 <MX_USART2_UART_Init+0x58>)
 8000544:	2296      	movs	r2, #150	; 0x96
 8000546:	0192      	lsls	r2, r2, #6
 8000548:	605a      	str	r2, [r3, #4]
  huart2.Init.WordLength = UART_WORDLENGTH_8B;
 800054a:	4b11      	ldr	r3, [pc, #68]	; (8000590 <MX_USART2_UART_Init+0x58>)
 800054c:	2200      	movs	r2, #0
 800054e:	609a      	str	r2, [r3, #8]
  huart2.Init.StopBits = UART_STOPBITS_1;
 8000550:	4b0f      	ldr	r3, [pc, #60]	; (8000590 <MX_USART2_UART_Init+0x58>)
 8000552:	2200      	movs	r2, #0
 8000554:	60da      	str	r2, [r3, #12]
  huart2.Init.Parity = UART_PARITY_NONE;
 8000556:	4b0e      	ldr	r3, [pc, #56]	; (8000590 <MX_USART2_UART_Init+0x58>)
 8000558:	2200      	movs	r2, #0
 800055a:	611a      	str	r2, [r3, #16]
  huart2.Init.Mode = UART_MODE_TX_RX;
 800055c:	4b0c      	ldr	r3, [pc, #48]	; (8000590 <MX_USART2_UART_Init+0x58>)
 800055e:	220c      	movs	r2, #12
 8000560:	615a      	str	r2, [r3, #20]
  huart2.Init.HwFlowCtl = UART_HWCONTROL_NONE;
 8000562:	4b0b      	ldr	r3, [pc, #44]	; (8000590 <MX_USART2_UART_Init+0x58>)
 8000564:	2200      	movs	r2, #0
 8000566:	619a      	str	r2, [r3, #24]
  huart2.Init.OverSampling = UART_OVERSAMPLING_16;
 8000568:	4b09      	ldr	r3, [pc, #36]	; (8000590 <MX_USART2_UART_Init+0x58>)
 800056a:	2200      	movs	r2, #0
 800056c:	61da      	str	r2, [r3, #28]
  huart2.Init.OneBitSampling = UART_ONE_BIT_SAMPLE_DISABLE;
 800056e:	4b08      	ldr	r3, [pc, #32]	; (8000590 <MX_USART2_UART_Init+0x58>)
 8000570:	2200      	movs	r2, #0
 8000572:	621a      	str	r2, [r3, #32]
  huart2.AdvancedInit.AdvFeatureInit = UART_ADVFEATURE_NO_INIT;
 8000574:	4b06      	ldr	r3, [pc, #24]	; (8000590 <MX_USART2_UART_Init+0x58>)
 8000576:	2200      	movs	r2, #0
 8000578:	625a      	str	r2, [r3, #36]	; 0x24
  if (HAL_UART_Init(&huart2) != HAL_OK)
 800057a:	4b05      	ldr	r3, [pc, #20]	; (8000590 <MX_USART2_UART_Init+0x58>)
 800057c:	0018      	movs	r0, r3
 800057e:	f003 f8a3 	bl	80036c8 <HAL_UART_Init>
 8000582:	1e03      	subs	r3, r0, #0
 8000584:	d001      	beq.n	800058a <MX_USART2_UART_Init+0x52>
  {
    Error_Handler();
 8000586:	f000 f923 	bl	80007d0 <Error_Handler>
  }
  /* USER CODE BEGIN USART2_Init 2 */

  /* USER CODE END USART2_Init 2 */

}
 800058a:	46c0      	nop			; (mov r8, r8)
 800058c:	46bd      	mov	sp, r7
 800058e:	bd80      	pop	{r7, pc}
 8000590:	20000160 	.word	0x20000160
 8000594:	40004400 	.word	0x40004400

08000598 <MX_DMA_Init>:

/**
  * Enable DMA controller clock
  */
static void MX_DMA_Init(void)
{
 8000598:	b580      	push	{r7, lr}
 800059a:	b082      	sub	sp, #8
 800059c:	af00      	add	r7, sp, #0

  /* DMA controller clock enable */
  __HAL_RCC_DMA1_CLK_ENABLE();
 800059e:	4b10      	ldr	r3, [pc, #64]	; (80005e0 <MX_DMA_Init+0x48>)
 80005a0:	695a      	ldr	r2, [r3, #20]
 80005a2:	4b0f      	ldr	r3, [pc, #60]	; (80005e0 <MX_DMA_Init+0x48>)
 80005a4:	2101      	movs	r1, #1
 80005a6:	430a      	orrs	r2, r1
 80005a8:	615a      	str	r2, [r3, #20]
 80005aa:	4b0d      	ldr	r3, [pc, #52]	; (80005e0 <MX_DMA_Init+0x48>)
 80005ac:	695b      	ldr	r3, [r3, #20]
 80005ae:	2201      	movs	r2, #1
 80005b0:	4013      	ands	r3, r2
 80005b2:	607b      	str	r3, [r7, #4]
 80005b4:	687b      	ldr	r3, [r7, #4]

  /* DMA interrupt init */
  /* DMA1_Channel1_IRQn interrupt configuration */
  HAL_NVIC_SetPriority(DMA1_Channel1_IRQn, 0, 0);
 80005b6:	2200      	movs	r2, #0
 80005b8:	2100      	movs	r1, #0
 80005ba:	2009      	movs	r0, #9
 80005bc:	f001 fa02 	bl	80019c4 <HAL_NVIC_SetPriority>
  HAL_NVIC_EnableIRQ(DMA1_Channel1_IRQn);
 80005c0:	2009      	movs	r0, #9
 80005c2:	f001 fa14 	bl	80019ee <HAL_NVIC_EnableIRQ>
  /* DMA1_Channel4_5_IRQn interrupt configuration */
  HAL_NVIC_SetPriority(DMA1_Channel4_5_IRQn, 0, 0);
 80005c6:	2200      	movs	r2, #0
 80005c8:	2100      	movs	r1, #0
 80005ca:	200b      	movs	r0, #11
 80005cc:	f001 f9fa 	bl	80019c4 <HAL_NVIC_SetPriority>
  HAL_NVIC_EnableIRQ(DMA1_Channel4_5_IRQn);
 80005d0:	200b      	movs	r0, #11
 80005d2:	f001 fa0c 	bl	80019ee <HAL_NVIC_EnableIRQ>

}
 80005d6:	46c0      	nop			; (mov r8, r8)
 80005d8:	46bd      	mov	sp, r7
 80005da:	b002      	add	sp, #8
 80005dc:	bd80      	pop	{r7, pc}
 80005de:	46c0      	nop			; (mov r8, r8)
 80005e0:	40021000 	.word	0x40021000

080005e4 <MX_GPIO_Init>:
  * @brief GPIO Initialization Function
  * @param None
  * @retval None
  */
static void MX_GPIO_Init(void)
{
 80005e4:	b590      	push	{r4, r7, lr}
 80005e6:	b08b      	sub	sp, #44	; 0x2c
 80005e8:	af00      	add	r7, sp, #0
  GPIO_InitTypeDef GPIO_InitStruct = {0};
 80005ea:	2414      	movs	r4, #20
 80005ec:	193b      	adds	r3, r7, r4
 80005ee:	0018      	movs	r0, r3
 80005f0:	2314      	movs	r3, #20
 80005f2:	001a      	movs	r2, r3
 80005f4:	2100      	movs	r1, #0
 80005f6:	f004 f82f 	bl	8004658 <memset>

  /* GPIO Ports Clock Enable */
  __HAL_RCC_GPIOF_CLK_ENABLE();
 80005fa:	4b43      	ldr	r3, [pc, #268]	; (8000708 <MX_GPIO_Init+0x124>)
 80005fc:	695a      	ldr	r2, [r3, #20]
 80005fe:	4b42      	ldr	r3, [pc, #264]	; (8000708 <MX_GPIO_Init+0x124>)
 8000600:	2180      	movs	r1, #128	; 0x80
 8000602:	03c9      	lsls	r1, r1, #15
 8000604:	430a      	orrs	r2, r1
 8000606:	615a      	str	r2, [r3, #20]
 8000608:	4b3f      	ldr	r3, [pc, #252]	; (8000708 <MX_GPIO_Init+0x124>)
 800060a:	695a      	ldr	r2, [r3, #20]
 800060c:	2380      	movs	r3, #128	; 0x80
 800060e:	03db      	lsls	r3, r3, #15
 8000610:	4013      	ands	r3, r2
 8000612:	613b      	str	r3, [r7, #16]
 8000614:	693b      	ldr	r3, [r7, #16]
  __HAL_RCC_GPIOA_CLK_ENABLE();
 8000616:	4b3c      	ldr	r3, [pc, #240]	; (8000708 <MX_GPIO_Init+0x124>)
 8000618:	695a      	ldr	r2, [r3, #20]
 800061a:	4b3b      	ldr	r3, [pc, #236]	; (8000708 <MX_GPIO_Init+0x124>)
 800061c:	2180      	movs	r1, #128	; 0x80
 800061e:	0289      	lsls	r1, r1, #10
 8000620:	430a      	orrs	r2, r1
 8000622:	615a      	str	r2, [r3, #20]
 8000624:	4b38      	ldr	r3, [pc, #224]	; (8000708 <MX_GPIO_Init+0x124>)
 8000626:	695a      	ldr	r2, [r3, #20]
 8000628:	2380      	movs	r3, #128	; 0x80
 800062a:	029b      	lsls	r3, r3, #10
 800062c:	4013      	ands	r3, r2
 800062e:	60fb      	str	r3, [r7, #12]
 8000630:	68fb      	ldr	r3, [r7, #12]
  __HAL_RCC_GPIOC_CLK_ENABLE();
 8000632:	4b35      	ldr	r3, [pc, #212]	; (8000708 <MX_GPIO_Init+0x124>)
 8000634:	695a      	ldr	r2, [r3, #20]
 8000636:	4b34      	ldr	r3, [pc, #208]	; (8000708 <MX_GPIO_Init+0x124>)
 8000638:	2180      	movs	r1, #128	; 0x80
 800063a:	0309      	lsls	r1, r1, #12
 800063c:	430a      	orrs	r2, r1
 800063e:	615a      	str	r2, [r3, #20]
 8000640:	4b31      	ldr	r3, [pc, #196]	; (8000708 <MX_GPIO_Init+0x124>)
 8000642:	695a      	ldr	r2, [r3, #20]
 8000644:	2380      	movs	r3, #128	; 0x80
 8000646:	031b      	lsls	r3, r3, #12
 8000648:	4013      	ands	r3, r2
 800064a:	60bb      	str	r3, [r7, #8]
 800064c:	68bb      	ldr	r3, [r7, #8]
  __HAL_RCC_GPIOB_CLK_ENABLE();
 800064e:	4b2e      	ldr	r3, [pc, #184]	; (8000708 <MX_GPIO_Init+0x124>)
 8000650:	695a      	ldr	r2, [r3, #20]
 8000652:	4b2d      	ldr	r3, [pc, #180]	; (8000708 <MX_GPIO_Init+0x124>)
 8000654:	2180      	movs	r1, #128	; 0x80
 8000656:	02c9      	lsls	r1, r1, #11
 8000658:	430a      	orrs	r2, r1
 800065a:	615a      	str	r2, [r3, #20]
 800065c:	4b2a      	ldr	r3, [pc, #168]	; (8000708 <MX_GPIO_Init+0x124>)
 800065e:	695a      	ldr	r2, [r3, #20]
 8000660:	2380      	movs	r3, #128	; 0x80
 8000662:	02db      	lsls	r3, r3, #11
 8000664:	4013      	ands	r3, r2
 8000666:	607b      	str	r3, [r7, #4]
 8000668:	687b      	ldr	r3, [r7, #4]

  /*Configure GPIO pin Output Level */
  HAL_GPIO_WritePin(LD4_GPIO_Port, LD4_Pin, GPIO_PIN_RESET);
 800066a:	2380      	movs	r3, #128	; 0x80
 800066c:	005b      	lsls	r3, r3, #1
 800066e:	4827      	ldr	r0, [pc, #156]	; (800070c <MX_GPIO_Init+0x128>)
 8000670:	2200      	movs	r2, #0
 8000672:	0019      	movs	r1, r3
 8000674:	f001 fccc 	bl	8002010 <HAL_GPIO_WritePin>

  /*Configure GPIO pin : B1_Pin */
  GPIO_InitStruct.Pin = B1_Pin;
 8000678:	193b      	adds	r3, r7, r4
 800067a:	2201      	movs	r2, #1
 800067c:	601a      	str	r2, [r3, #0]
  GPIO_InitStruct.Mode = GPIO_MODE_IT_FALLING;
 800067e:	193b      	adds	r3, r7, r4
 8000680:	2284      	movs	r2, #132	; 0x84
 8000682:	0392      	lsls	r2, r2, #14
 8000684:	605a      	str	r2, [r3, #4]
  GPIO_InitStruct.Pull = GPIO_NOPULL;
 8000686:	193b      	adds	r3, r7, r4
 8000688:	2200      	movs	r2, #0
 800068a:	609a      	str	r2, [r3, #8]
  HAL_GPIO_Init(B1_GPIO_Port, &GPIO_InitStruct);
 800068c:	193a      	adds	r2, r7, r4
 800068e:	2390      	movs	r3, #144	; 0x90
 8000690:	05db      	lsls	r3, r3, #23
 8000692:	0011      	movs	r1, r2
 8000694:	0018      	movs	r0, r3
 8000696:	f001 fb4b 	bl	8001d30 <HAL_GPIO_Init>

  /*Configure GPIO pin : LD4_Pin */
  GPIO_InitStruct.Pin = LD4_Pin;
 800069a:	0021      	movs	r1, r4
 800069c:	187b      	adds	r3, r7, r1
 800069e:	2280      	movs	r2, #128	; 0x80
 80006a0:	0052      	lsls	r2, r2, #1
 80006a2:	601a      	str	r2, [r3, #0]
  GPIO_InitStruct.Mode = GPIO_MODE_OUTPUT_PP;
 80006a4:	000c      	movs	r4, r1
 80006a6:	193b      	adds	r3, r7, r4
 80006a8:	2201      	movs	r2, #1
 80006aa:	605a      	str	r2, [r3, #4]
  GPIO_InitStruct.Pull = GPIO_NOPULL;
 80006ac:	193b      	adds	r3, r7, r4
 80006ae:	2200      	movs	r2, #0
 80006b0:	609a      	str	r2, [r3, #8]
  GPIO_InitStruct.Speed = GPIO_SPEED_FREQ_LOW;
 80006b2:	193b      	adds	r3, r7, r4
 80006b4:	2200      	movs	r2, #0
 80006b6:	60da      	str	r2, [r3, #12]
  HAL_GPIO_Init(LD4_GPIO_Port, &GPIO_InitStruct);
 80006b8:	193b      	adds	r3, r7, r4
 80006ba:	4a14      	ldr	r2, [pc, #80]	; (800070c <MX_GPIO_Init+0x128>)
 80006bc:	0019      	movs	r1, r3
 80006be:	0010      	movs	r0, r2
 80006c0:	f001 fb36 	bl	8001d30 <HAL_GPIO_Init>

  /*Configure GPIO pins : PB6 PB7 */
  GPIO_InitStruct.Pin = GPIO_PIN_6|GPIO_PIN_7;
 80006c4:	0021      	movs	r1, r4
 80006c6:	187b      	adds	r3, r7, r1
 80006c8:	22c0      	movs	r2, #192	; 0xc0
 80006ca:	601a      	str	r2, [r3, #0]
  GPIO_InitStruct.Mode = GPIO_MODE_AF_OD;
 80006cc:	187b      	adds	r3, r7, r1
 80006ce:	2212      	movs	r2, #18
 80006d0:	605a      	str	r2, [r3, #4]
  GPIO_InitStruct.Pull = GPIO_NOPULL;
 80006d2:	187b      	adds	r3, r7, r1
 80006d4:	2200      	movs	r2, #0
 80006d6:	609a      	str	r2, [r3, #8]
  GPIO_InitStruct.Speed = GPIO_SPEED_FREQ_HIGH;
 80006d8:	187b      	adds	r3, r7, r1
 80006da:	2203      	movs	r2, #3
 80006dc:	60da      	str	r2, [r3, #12]
  GPIO_InitStruct.Alternate = GPIO_AF1_I2C1;
 80006de:	187b      	adds	r3, r7, r1
 80006e0:	2201      	movs	r2, #1
 80006e2:	611a      	str	r2, [r3, #16]
  HAL_GPIO_Init(GPIOB, &GPIO_InitStruct);
 80006e4:	187b      	adds	r3, r7, r1
 80006e6:	4a0a      	ldr	r2, [pc, #40]	; (8000710 <MX_GPIO_Init+0x12c>)
 80006e8:	0019      	movs	r1, r3
 80006ea:	0010      	movs	r0, r2
 80006ec:	f001 fb20 	bl	8001d30 <HAL_GPIO_Init>

  /* EXTI interrupt init*/
  HAL_NVIC_SetPriority(EXTI0_1_IRQn, 0, 0);
 80006f0:	2200      	movs	r2, #0
 80006f2:	2100      	movs	r1, #0
 80006f4:	2005      	movs	r0, #5
 80006f6:	f001 f965 	bl	80019c4 <HAL_NVIC_SetPriority>
  HAL_NVIC_EnableIRQ(EXTI0_1_IRQn);
 80006fa:	2005      	movs	r0, #5
 80006fc:	f001 f977 	bl	80019ee <HAL_NVIC_EnableIRQ>

}
 8000700:	46c0      	nop			; (mov r8, r8)
 8000702:	46bd      	mov	sp, r7
 8000704:	b00b      	add	sp, #44	; 0x2c
 8000706:	bd90      	pop	{r4, r7, pc}
 8000708:	40021000 	.word	0x40021000
 800070c:	48000800 	.word	0x48000800
 8000710:	48000400 	.word	0x48000400

08000714 <EXTI0_1_IRQHandler>:

/* USER CODE BEGIN 4 */
void EXTI0_1_IRQHandler(void)
{
 8000714:	b580      	push	{r7, lr}
 8000716:	af00      	add	r7, sp, #0
	//TO DO:
	//TASK 1
	//Switch delay frequency
	if(HAL_GetTick() > (prevPress + 500)) {
 8000718:	f000 fae2 	bl	8000ce0 <HAL_GetTick>
 800071c:	0002      	movs	r2, r0
 800071e:	4b10      	ldr	r3, [pc, #64]	; (8000760 <EXTI0_1_IRQHandler+0x4c>)
 8000720:	681b      	ldr	r3, [r3, #0]
 8000722:	33f5      	adds	r3, #245	; 0xf5
 8000724:	33ff      	adds	r3, #255	; 0xff
 8000726:	429a      	cmp	r2, r3
 8000728:	d913      	bls.n	8000752 <EXTI0_1_IRQHandler+0x3e>
		switch (delay) {
 800072a:	4b0e      	ldr	r3, [pc, #56]	; (8000764 <EXTI0_1_IRQHandler+0x50>)
 800072c:	681a      	ldr	r2, [r3, #0]
 800072e:	23fa      	movs	r3, #250	; 0xfa
 8000730:	005b      	lsls	r3, r3, #1
 8000732:	429a      	cmp	r2, r3
 8000734:	d104      	bne.n	8000740 <EXTI0_1_IRQHandler+0x2c>
		case 500:
			delay = 1000;
 8000736:	4b0b      	ldr	r3, [pc, #44]	; (8000764 <EXTI0_1_IRQHandler+0x50>)
 8000738:	22fa      	movs	r2, #250	; 0xfa
 800073a:	0092      	lsls	r2, r2, #2
 800073c:	601a      	str	r2, [r3, #0]
			break;
 800073e:	e003      	b.n	8000748 <EXTI0_1_IRQHandler+0x34>
		default:
			delay = 500;
 8000740:	4b08      	ldr	r3, [pc, #32]	; (8000764 <EXTI0_1_IRQHandler+0x50>)
 8000742:	22fa      	movs	r2, #250	; 0xfa
 8000744:	0052      	lsls	r2, r2, #1
 8000746:	601a      	str	r2, [r3, #0]
		}
		prevPress = HAL_GetTick();
 8000748:	f000 faca 	bl	8000ce0 <HAL_GetTick>
 800074c:	0002      	movs	r2, r0
 800074e:	4b04      	ldr	r3, [pc, #16]	; (8000760 <EXTI0_1_IRQHandler+0x4c>)
 8000750:	601a      	str	r2, [r3, #0]
	}
	HAL_GPIO_EXTI_IRQHandler(B1_Pin); // Clear interrupt flags
 8000752:	2001      	movs	r0, #1
 8000754:	f001 fc94 	bl	8002080 <HAL_GPIO_EXTI_IRQHandler>
}
 8000758:	46c0      	nop			; (mov r8, r8)
 800075a:	46bd      	mov	sp, r7
 800075c:	bd80      	pop	{r7, pc}
 800075e:	46c0      	nop			; (mov r8, r8)
 8000760:	20000000 	.word	0x20000000
 8000764:	20000004 	.word	0x20000004

08000768 <pollADC>:

uint32_t pollADC(void){
 8000768:	b580      	push	{r7, lr}
 800076a:	b082      	sub	sp, #8
 800076c:	af00      	add	r7, sp, #0
	//TO DO:
	//TASK 2
	// Complete the function body
	HAL_ADC_Start(&hadc);
 800076e:	4b0c      	ldr	r3, [pc, #48]	; (80007a0 <pollADC+0x38>)
 8000770:	0018      	movs	r0, r3
 8000772:	f000 fc23 	bl	8000fbc <HAL_ADC_Start>
	HAL_ADC_PollForConversion(&hadc, 100);
 8000776:	4b0a      	ldr	r3, [pc, #40]	; (80007a0 <pollADC+0x38>)
 8000778:	2164      	movs	r1, #100	; 0x64
 800077a:	0018      	movs	r0, r3
 800077c:	f000 fcb2 	bl	80010e4 <HAL_ADC_PollForConversion>
	uint32_t val = HAL_ADC_GetValue(&hadc);
 8000780:	4b07      	ldr	r3, [pc, #28]	; (80007a0 <pollADC+0x38>)
 8000782:	0018      	movs	r0, r3
 8000784:	f000 fd46 	bl	8001214 <HAL_ADC_GetValue>
 8000788:	0003      	movs	r3, r0
 800078a:	607b      	str	r3, [r7, #4]
	HAL_ADC_Stop(&hadc);
 800078c:	4b04      	ldr	r3, [pc, #16]	; (80007a0 <pollADC+0x38>)
 800078e:	0018      	movs	r0, r3
 8000790:	f000 fc68 	bl	8001064 <HAL_ADC_Stop>
	return val;
 8000794:	687b      	ldr	r3, [r7, #4]
}
 8000796:	0018      	movs	r0, r3
 8000798:	46bd      	mov	sp, r7
 800079a:	b002      	add	sp, #8
 800079c:	bd80      	pop	{r7, pc}
 800079e:	46c0      	nop			; (mov r8, r8)
 80007a0:	20000094 	.word	0x20000094

080007a4 <ADCtoCRR>:

uint32_t ADCtoCRR(uint32_t adc_val){
 80007a4:	b580      	push	{r7, lr}
 80007a6:	b084      	sub	sp, #16
 80007a8:	af00      	add	r7, sp, #0
 80007aa:	6078      	str	r0, [r7, #4]
	//HINT: Scale number from 0-4096 to 0 - 47999
//	uint32_t value = 100 * adc_val / 4096;
//	sprintf(buffer, "Duty Cycle Value = %d \r\n", value);
//	HAL_UART_Transmit(&huart2, buffer, sizeof(buffer), 1000);

	uint32_t val = 47999 * adc_val / 4096;
 80007ac:	687b      	ldr	r3, [r7, #4]
 80007ae:	4a06      	ldr	r2, [pc, #24]	; (80007c8 <ADCtoCRR+0x24>)
 80007b0:	4353      	muls	r3, r2
 80007b2:	0b1b      	lsrs	r3, r3, #12
 80007b4:	60fb      	str	r3, [r7, #12]
	__HAL_TIM_SetCompare(&htim3, TIM_CHANNEL_4, val);
 80007b6:	4b05      	ldr	r3, [pc, #20]	; (80007cc <ADCtoCRR+0x28>)
 80007b8:	681b      	ldr	r3, [r3, #0]
 80007ba:	68fa      	ldr	r2, [r7, #12]
 80007bc:	641a      	str	r2, [r3, #64]	; 0x40
	return val;
 80007be:	68fb      	ldr	r3, [r7, #12]
}
 80007c0:	0018      	movs	r0, r3
 80007c2:	46bd      	mov	sp, r7
 80007c4:	b004      	add	sp, #16
 80007c6:	bd80      	pop	{r7, pc}
 80007c8:	0000bb7f 	.word	0x0000bb7f
 80007cc:	20000118 	.word	0x20000118

080007d0 <Error_Handler>:
/**
  * @brief  This function is executed in case of error occurrence.
  * @retval None
  */
void Error_Handler(void)
{
 80007d0:	b580      	push	{r7, lr}
 80007d2:	af00      	add	r7, sp, #0
  \details Disables IRQ interrupts by setting the I-bit in the CPSR.
           Can only be executed in Privileged modes.
 */
__STATIC_FORCEINLINE void __disable_irq(void)
{
  __ASM volatile ("cpsid i" : : : "memory");
 80007d4:	b672      	cpsid	i
}
 80007d6:	46c0      	nop			; (mov r8, r8)
  /* USER CODE BEGIN Error_Handler_Debug */
  /* User can add his own implementation to report the HAL error return state */
  __disable_irq();
  while (1)
 80007d8:	e7fe      	b.n	80007d8 <Error_Handler+0x8>
	...

080007dc <HAL_MspInit>:
void HAL_TIM_MspPostInit(TIM_HandleTypeDef *htim);
                    /**
  * Initializes the Global MSP.
  */
void HAL_MspInit(void)
{
 80007dc:	b580      	push	{r7, lr}
 80007de:	b082      	sub	sp, #8
 80007e0:	af00      	add	r7, sp, #0
  /* USER CODE BEGIN MspInit 0 */

  /* USER CODE END MspInit 0 */

  __HAL_RCC_SYSCFG_CLK_ENABLE();
 80007e2:	4b0f      	ldr	r3, [pc, #60]	; (8000820 <HAL_MspInit+0x44>)
 80007e4:	699a      	ldr	r2, [r3, #24]
 80007e6:	4b0e      	ldr	r3, [pc, #56]	; (8000820 <HAL_MspInit+0x44>)
 80007e8:	2101      	movs	r1, #1
 80007ea:	430a      	orrs	r2, r1
 80007ec:	619a      	str	r2, [r3, #24]
 80007ee:	4b0c      	ldr	r3, [pc, #48]	; (8000820 <HAL_MspInit+0x44>)
 80007f0:	699b      	ldr	r3, [r3, #24]
 80007f2:	2201      	movs	r2, #1
 80007f4:	4013      	ands	r3, r2
 80007f6:	607b      	str	r3, [r7, #4]
 80007f8:	687b      	ldr	r3, [r7, #4]
  __HAL_RCC_PWR_CLK_ENABLE();
 80007fa:	4b09      	ldr	r3, [pc, #36]	; (8000820 <HAL_MspInit+0x44>)
 80007fc:	69da      	ldr	r2, [r3, #28]
 80007fe:	4b08      	ldr	r3, [pc, #32]	; (8000820 <HAL_MspInit+0x44>)
 8000800:	2180      	movs	r1, #128	; 0x80
 8000802:	0549      	lsls	r1, r1, #21
 8000804:	430a      	orrs	r2, r1
 8000806:	61da      	str	r2, [r3, #28]
 8000808:	4b05      	ldr	r3, [pc, #20]	; (8000820 <HAL_MspInit+0x44>)
 800080a:	69da      	ldr	r2, [r3, #28]
 800080c:	2380      	movs	r3, #128	; 0x80
 800080e:	055b      	lsls	r3, r3, #21
 8000810:	4013      	ands	r3, r2
 8000812:	603b      	str	r3, [r7, #0]
 8000814:	683b      	ldr	r3, [r7, #0]
  /* System interrupt init*/

  /* USER CODE BEGIN MspInit 1 */

  /* USER CODE END MspInit 1 */
}
 8000816:	46c0      	nop			; (mov r8, r8)
 8000818:	46bd      	mov	sp, r7
 800081a:	b002      	add	sp, #8
 800081c:	bd80      	pop	{r7, pc}
 800081e:	46c0      	nop			; (mov r8, r8)
 8000820:	40021000 	.word	0x40021000

08000824 <HAL_ADC_MspInit>:
* This function configures the hardware resources used in this example
* @param hadc: ADC handle pointer
* @retval None
*/
void HAL_ADC_MspInit(ADC_HandleTypeDef* hadc)
{
 8000824:	b590      	push	{r4, r7, lr}
 8000826:	b08b      	sub	sp, #44	; 0x2c
 8000828:	af00      	add	r7, sp, #0
 800082a:	6078      	str	r0, [r7, #4]
  GPIO_InitTypeDef GPIO_InitStruct = {0};
 800082c:	2414      	movs	r4, #20
 800082e:	193b      	adds	r3, r7, r4
 8000830:	0018      	movs	r0, r3
 8000832:	2314      	movs	r3, #20
 8000834:	001a      	movs	r2, r3
 8000836:	2100      	movs	r1, #0
 8000838:	f003 ff0e 	bl	8004658 <memset>
  if(hadc->Instance==ADC1)
 800083c:	687b      	ldr	r3, [r7, #4]
 800083e:	681b      	ldr	r3, [r3, #0]
 8000840:	4a31      	ldr	r2, [pc, #196]	; (8000908 <HAL_ADC_MspInit+0xe4>)
 8000842:	4293      	cmp	r3, r2
 8000844:	d15b      	bne.n	80008fe <HAL_ADC_MspInit+0xda>
  {
  /* USER CODE BEGIN ADC1_MspInit 0 */

  /* USER CODE END ADC1_MspInit 0 */
    /* Peripheral clock enable */
    __HAL_RCC_ADC1_CLK_ENABLE();
 8000846:	4b31      	ldr	r3, [pc, #196]	; (800090c <HAL_ADC_MspInit+0xe8>)
 8000848:	699a      	ldr	r2, [r3, #24]
 800084a:	4b30      	ldr	r3, [pc, #192]	; (800090c <HAL_ADC_MspInit+0xe8>)
 800084c:	2180      	movs	r1, #128	; 0x80
 800084e:	0089      	lsls	r1, r1, #2
 8000850:	430a      	orrs	r2, r1
 8000852:	619a      	str	r2, [r3, #24]
 8000854:	4b2d      	ldr	r3, [pc, #180]	; (800090c <HAL_ADC_MspInit+0xe8>)
 8000856:	699a      	ldr	r2, [r3, #24]
 8000858:	2380      	movs	r3, #128	; 0x80
 800085a:	009b      	lsls	r3, r3, #2
 800085c:	4013      	ands	r3, r2
 800085e:	613b      	str	r3, [r7, #16]
 8000860:	693b      	ldr	r3, [r7, #16]

    __HAL_RCC_GPIOA_CLK_ENABLE();
 8000862:	4b2a      	ldr	r3, [pc, #168]	; (800090c <HAL_ADC_MspInit+0xe8>)
 8000864:	695a      	ldr	r2, [r3, #20]
 8000866:	4b29      	ldr	r3, [pc, #164]	; (800090c <HAL_ADC_MspInit+0xe8>)
 8000868:	2180      	movs	r1, #128	; 0x80
 800086a:	0289      	lsls	r1, r1, #10
 800086c:	430a      	orrs	r2, r1
 800086e:	615a      	str	r2, [r3, #20]
 8000870:	4b26      	ldr	r3, [pc, #152]	; (800090c <HAL_ADC_MspInit+0xe8>)
 8000872:	695a      	ldr	r2, [r3, #20]
 8000874:	2380      	movs	r3, #128	; 0x80
 8000876:	029b      	lsls	r3, r3, #10
 8000878:	4013      	ands	r3, r2
 800087a:	60fb      	str	r3, [r7, #12]
 800087c:	68fb      	ldr	r3, [r7, #12]
    /**ADC GPIO Configuration
    PA7     ------> ADC_IN7
    */
    GPIO_InitStruct.Pin = GPIO_PIN_7;
 800087e:	193b      	adds	r3, r7, r4
 8000880:	2280      	movs	r2, #128	; 0x80
 8000882:	601a      	str	r2, [r3, #0]
    GPIO_InitStruct.Mode = GPIO_MODE_ANALOG;
 8000884:	193b      	adds	r3, r7, r4
 8000886:	2203      	movs	r2, #3
 8000888:	605a      	str	r2, [r3, #4]
    GPIO_InitStruct.Pull = GPIO_NOPULL;
 800088a:	193b      	adds	r3, r7, r4
 800088c:	2200      	movs	r2, #0
 800088e:	609a      	str	r2, [r3, #8]
    HAL_GPIO_Init(GPIOA, &GPIO_InitStruct);
 8000890:	193a      	adds	r2, r7, r4
 8000892:	2390      	movs	r3, #144	; 0x90
 8000894:	05db      	lsls	r3, r3, #23
 8000896:	0011      	movs	r1, r2
 8000898:	0018      	movs	r0, r3
 800089a:	f001 fa49 	bl	8001d30 <HAL_GPIO_Init>

    /* ADC1 DMA Init */
    /* ADC Init */
    hdma_adc.Instance = DMA1_Channel1;
 800089e:	4b1c      	ldr	r3, [pc, #112]	; (8000910 <HAL_ADC_MspInit+0xec>)
 80008a0:	4a1c      	ldr	r2, [pc, #112]	; (8000914 <HAL_ADC_MspInit+0xf0>)
 80008a2:	601a      	str	r2, [r3, #0]
    hdma_adc.Init.Direction = DMA_PERIPH_TO_MEMORY;
 80008a4:	4b1a      	ldr	r3, [pc, #104]	; (8000910 <HAL_ADC_MspInit+0xec>)
 80008a6:	2200      	movs	r2, #0
 80008a8:	605a      	str	r2, [r3, #4]
    hdma_adc.Init.PeriphInc = DMA_PINC_DISABLE;
 80008aa:	4b19      	ldr	r3, [pc, #100]	; (8000910 <HAL_ADC_MspInit+0xec>)
 80008ac:	2200      	movs	r2, #0
 80008ae:	609a      	str	r2, [r3, #8]
    hdma_adc.Init.MemInc = DMA_MINC_ENABLE;
 80008b0:	4b17      	ldr	r3, [pc, #92]	; (8000910 <HAL_ADC_MspInit+0xec>)
 80008b2:	2280      	movs	r2, #128	; 0x80
 80008b4:	60da      	str	r2, [r3, #12]
    hdma_adc.Init.PeriphDataAlignment = DMA_PDATAALIGN_HALFWORD;
 80008b6:	4b16      	ldr	r3, [pc, #88]	; (8000910 <HAL_ADC_MspInit+0xec>)
 80008b8:	2280      	movs	r2, #128	; 0x80
 80008ba:	0052      	lsls	r2, r2, #1
 80008bc:	611a      	str	r2, [r3, #16]
    hdma_adc.Init.MemDataAlignment = DMA_MDATAALIGN_HALFWORD;
 80008be:	4b14      	ldr	r3, [pc, #80]	; (8000910 <HAL_ADC_MspInit+0xec>)
 80008c0:	2280      	movs	r2, #128	; 0x80
 80008c2:	00d2      	lsls	r2, r2, #3
 80008c4:	615a      	str	r2, [r3, #20]
    hdma_adc.Init.Mode = DMA_NORMAL;
 80008c6:	4b12      	ldr	r3, [pc, #72]	; (8000910 <HAL_ADC_MspInit+0xec>)
 80008c8:	2200      	movs	r2, #0
 80008ca:	619a      	str	r2, [r3, #24]
    hdma_adc.Init.Priority = DMA_PRIORITY_LOW;
 80008cc:	4b10      	ldr	r3, [pc, #64]	; (8000910 <HAL_ADC_MspInit+0xec>)
 80008ce:	2200      	movs	r2, #0
 80008d0:	61da      	str	r2, [r3, #28]
    if (HAL_DMA_Init(&hdma_adc) != HAL_OK)
 80008d2:	4b0f      	ldr	r3, [pc, #60]	; (8000910 <HAL_ADC_MspInit+0xec>)
 80008d4:	0018      	movs	r0, r3
 80008d6:	f001 f8a7 	bl	8001a28 <HAL_DMA_Init>
 80008da:	1e03      	subs	r3, r0, #0
 80008dc:	d001      	beq.n	80008e2 <HAL_ADC_MspInit+0xbe>
    {
      Error_Handler();
 80008de:	f7ff ff77 	bl	80007d0 <Error_Handler>
    }

    __HAL_LINKDMA(hadc,DMA_Handle,hdma_adc);
 80008e2:	687b      	ldr	r3, [r7, #4]
 80008e4:	4a0a      	ldr	r2, [pc, #40]	; (8000910 <HAL_ADC_MspInit+0xec>)
 80008e6:	631a      	str	r2, [r3, #48]	; 0x30
 80008e8:	4b09      	ldr	r3, [pc, #36]	; (8000910 <HAL_ADC_MspInit+0xec>)
 80008ea:	687a      	ldr	r2, [r7, #4]
 80008ec:	625a      	str	r2, [r3, #36]	; 0x24

    /* ADC1 interrupt Init */
    HAL_NVIC_SetPriority(ADC1_COMP_IRQn, 0, 0);
 80008ee:	2200      	movs	r2, #0
 80008f0:	2100      	movs	r1, #0
 80008f2:	200c      	movs	r0, #12
 80008f4:	f001 f866 	bl	80019c4 <HAL_NVIC_SetPriority>
    HAL_NVIC_EnableIRQ(ADC1_COMP_IRQn);
 80008f8:	200c      	movs	r0, #12
 80008fa:	f001 f878 	bl	80019ee <HAL_NVIC_EnableIRQ>
  /* USER CODE BEGIN ADC1_MspInit 1 */

  /* USER CODE END ADC1_MspInit 1 */
  }

}
 80008fe:	46c0      	nop			; (mov r8, r8)
 8000900:	46bd      	mov	sp, r7
 8000902:	b00b      	add	sp, #44	; 0x2c
 8000904:	bd90      	pop	{r4, r7, pc}
 8000906:	46c0      	nop			; (mov r8, r8)
 8000908:	40012400 	.word	0x40012400
 800090c:	40021000 	.word	0x40021000
 8000910:	200000d4 	.word	0x200000d4
 8000914:	40020008 	.word	0x40020008

08000918 <HAL_TIM_Base_MspInit>:
* This function configures the hardware resources used in this example
* @param htim_base: TIM_Base handle pointer
* @retval None
*/
void HAL_TIM_Base_MspInit(TIM_HandleTypeDef* htim_base)
{
 8000918:	b580      	push	{r7, lr}
 800091a:	b084      	sub	sp, #16
 800091c:	af00      	add	r7, sp, #0
 800091e:	6078      	str	r0, [r7, #4]
  if(htim_base->Instance==TIM3)
 8000920:	687b      	ldr	r3, [r7, #4]
 8000922:	681b      	ldr	r3, [r3, #0]
 8000924:	4a09      	ldr	r2, [pc, #36]	; (800094c <HAL_TIM_Base_MspInit+0x34>)
 8000926:	4293      	cmp	r3, r2
 8000928:	d10b      	bne.n	8000942 <HAL_TIM_Base_MspInit+0x2a>
  {
  /* USER CODE BEGIN TIM3_MspInit 0 */

  /* USER CODE END TIM3_MspInit 0 */
    /* Peripheral clock enable */
    __HAL_RCC_TIM3_CLK_ENABLE();
 800092a:	4b09      	ldr	r3, [pc, #36]	; (8000950 <HAL_TIM_Base_MspInit+0x38>)
 800092c:	69da      	ldr	r2, [r3, #28]
 800092e:	4b08      	ldr	r3, [pc, #32]	; (8000950 <HAL_TIM_Base_MspInit+0x38>)
 8000930:	2102      	movs	r1, #2
 8000932:	430a      	orrs	r2, r1
 8000934:	61da      	str	r2, [r3, #28]
 8000936:	4b06      	ldr	r3, [pc, #24]	; (8000950 <HAL_TIM_Base_MspInit+0x38>)
 8000938:	69db      	ldr	r3, [r3, #28]
 800093a:	2202      	movs	r2, #2
 800093c:	4013      	ands	r3, r2
 800093e:	60fb      	str	r3, [r7, #12]
 8000940:	68fb      	ldr	r3, [r7, #12]
  /* USER CODE BEGIN TIM3_MspInit 1 */

  /* USER CODE END TIM3_MspInit 1 */
  }

}
 8000942:	46c0      	nop			; (mov r8, r8)
 8000944:	46bd      	mov	sp, r7
 8000946:	b004      	add	sp, #16
 8000948:	bd80      	pop	{r7, pc}
 800094a:	46c0      	nop			; (mov r8, r8)
 800094c:	40000400 	.word	0x40000400
 8000950:	40021000 	.word	0x40021000

08000954 <HAL_TIM_MspPostInit>:

void HAL_TIM_MspPostInit(TIM_HandleTypeDef* htim)
{
 8000954:	b590      	push	{r4, r7, lr}
 8000956:	b089      	sub	sp, #36	; 0x24
 8000958:	af00      	add	r7, sp, #0
 800095a:	6078      	str	r0, [r7, #4]
  GPIO_InitTypeDef GPIO_InitStruct = {0};
 800095c:	240c      	movs	r4, #12
 800095e:	193b      	adds	r3, r7, r4
 8000960:	0018      	movs	r0, r3
 8000962:	2314      	movs	r3, #20
 8000964:	001a      	movs	r2, r3
 8000966:	2100      	movs	r1, #0
 8000968:	f003 fe76 	bl	8004658 <memset>
  if(htim->Instance==TIM3)
 800096c:	687b      	ldr	r3, [r7, #4]
 800096e:	681b      	ldr	r3, [r3, #0]
 8000970:	4a15      	ldr	r2, [pc, #84]	; (80009c8 <HAL_TIM_MspPostInit+0x74>)
 8000972:	4293      	cmp	r3, r2
 8000974:	d124      	bne.n	80009c0 <HAL_TIM_MspPostInit+0x6c>
  {
  /* USER CODE BEGIN TIM3_MspPostInit 0 */

  /* USER CODE END TIM3_MspPostInit 0 */

    __HAL_RCC_GPIOC_CLK_ENABLE();
 8000976:	4b15      	ldr	r3, [pc, #84]	; (80009cc <HAL_TIM_MspPostInit+0x78>)
 8000978:	695a      	ldr	r2, [r3, #20]
 800097a:	4b14      	ldr	r3, [pc, #80]	; (80009cc <HAL_TIM_MspPostInit+0x78>)
 800097c:	2180      	movs	r1, #128	; 0x80
 800097e:	0309      	lsls	r1, r1, #12
 8000980:	430a      	orrs	r2, r1
 8000982:	615a      	str	r2, [r3, #20]
 8000984:	4b11      	ldr	r3, [pc, #68]	; (80009cc <HAL_TIM_MspPostInit+0x78>)
 8000986:	695a      	ldr	r2, [r3, #20]
 8000988:	2380      	movs	r3, #128	; 0x80
 800098a:	031b      	lsls	r3, r3, #12
 800098c:	4013      	ands	r3, r2
 800098e:	60bb      	str	r3, [r7, #8]
 8000990:	68bb      	ldr	r3, [r7, #8]
    /**TIM3 GPIO Configuration
    PC9     ------> TIM3_CH4
    */
    GPIO_InitStruct.Pin = GPIO_PIN_9;
 8000992:	193b      	adds	r3, r7, r4
 8000994:	2280      	movs	r2, #128	; 0x80
 8000996:	0092      	lsls	r2, r2, #2
 8000998:	601a      	str	r2, [r3, #0]
    GPIO_InitStruct.Mode = GPIO_MODE_AF_PP;
 800099a:	0021      	movs	r1, r4
 800099c:	187b      	adds	r3, r7, r1
 800099e:	2202      	movs	r2, #2
 80009a0:	605a      	str	r2, [r3, #4]
    GPIO_InitStruct.Pull = GPIO_NOPULL;
 80009a2:	187b      	adds	r3, r7, r1
 80009a4:	2200      	movs	r2, #0
 80009a6:	609a      	str	r2, [r3, #8]
    GPIO_InitStruct.Speed = GPIO_SPEED_FREQ_LOW;
 80009a8:	187b      	adds	r3, r7, r1
 80009aa:	2200      	movs	r2, #0
 80009ac:	60da      	str	r2, [r3, #12]
    GPIO_InitStruct.Alternate = GPIO_AF0_MCO;
 80009ae:	187b      	adds	r3, r7, r1
 80009b0:	2200      	movs	r2, #0
 80009b2:	611a      	str	r2, [r3, #16]
    HAL_GPIO_Init(GPIOC, &GPIO_InitStruct);
 80009b4:	187b      	adds	r3, r7, r1
 80009b6:	4a06      	ldr	r2, [pc, #24]	; (80009d0 <HAL_TIM_MspPostInit+0x7c>)
 80009b8:	0019      	movs	r1, r3
 80009ba:	0010      	movs	r0, r2
 80009bc:	f001 f9b8 	bl	8001d30 <HAL_GPIO_Init>
  /* USER CODE BEGIN TIM3_MspPostInit 1 */

  /* USER CODE END TIM3_MspPostInit 1 */
  }

}
 80009c0:	46c0      	nop			; (mov r8, r8)
 80009c2:	46bd      	mov	sp, r7
 80009c4:	b009      	add	sp, #36	; 0x24
 80009c6:	bd90      	pop	{r4, r7, pc}
 80009c8:	40000400 	.word	0x40000400
 80009cc:	40021000 	.word	0x40021000
 80009d0:	48000800 	.word	0x48000800

080009d4 <HAL_UART_MspInit>:
* This function configures the hardware resources used in this example
* @param huart: UART handle pointer
* @retval None
*/
void HAL_UART_MspInit(UART_HandleTypeDef* huart)
{
 80009d4:	b590      	push	{r4, r7, lr}
 80009d6:	b08b      	sub	sp, #44	; 0x2c
 80009d8:	af00      	add	r7, sp, #0
 80009da:	6078      	str	r0, [r7, #4]
  GPIO_InitTypeDef GPIO_InitStruct = {0};
 80009dc:	2414      	movs	r4, #20
 80009de:	193b      	adds	r3, r7, r4
 80009e0:	0018      	movs	r0, r3
 80009e2:	2314      	movs	r3, #20
 80009e4:	001a      	movs	r2, r3
 80009e6:	2100      	movs	r1, #0
 80009e8:	f003 fe36 	bl	8004658 <memset>
  if(huart->Instance==USART2)
 80009ec:	687b      	ldr	r3, [r7, #4]
 80009ee:	681b      	ldr	r3, [r3, #0]
 80009f0:	4a33      	ldr	r2, [pc, #204]	; (8000ac0 <HAL_UART_MspInit+0xec>)
 80009f2:	4293      	cmp	r3, r2
 80009f4:	d160      	bne.n	8000ab8 <HAL_UART_MspInit+0xe4>
  {
  /* USER CODE BEGIN USART2_MspInit 0 */

  /* USER CODE END USART2_MspInit 0 */
    /* Peripheral clock enable */
    __HAL_RCC_USART2_CLK_ENABLE();
 80009f6:	4b33      	ldr	r3, [pc, #204]	; (8000ac4 <HAL_UART_MspInit+0xf0>)
 80009f8:	69da      	ldr	r2, [r3, #28]
 80009fa:	4b32      	ldr	r3, [pc, #200]	; (8000ac4 <HAL_UART_MspInit+0xf0>)
 80009fc:	2180      	movs	r1, #128	; 0x80
 80009fe:	0289      	lsls	r1, r1, #10
 8000a00:	430a      	orrs	r2, r1
 8000a02:	61da      	str	r2, [r3, #28]
 8000a04:	4b2f      	ldr	r3, [pc, #188]	; (8000ac4 <HAL_UART_MspInit+0xf0>)
 8000a06:	69da      	ldr	r2, [r3, #28]
 8000a08:	2380      	movs	r3, #128	; 0x80
 8000a0a:	029b      	lsls	r3, r3, #10
 8000a0c:	4013      	ands	r3, r2
 8000a0e:	613b      	str	r3, [r7, #16]
 8000a10:	693b      	ldr	r3, [r7, #16]

    __HAL_RCC_GPIOA_CLK_ENABLE();
 8000a12:	4b2c      	ldr	r3, [pc, #176]	; (8000ac4 <HAL_UART_MspInit+0xf0>)
 8000a14:	695a      	ldr	r2, [r3, #20]
 8000a16:	4b2b      	ldr	r3, [pc, #172]	; (8000ac4 <HAL_UART_MspInit+0xf0>)
 8000a18:	2180      	movs	r1, #128	; 0x80
 8000a1a:	0289      	lsls	r1, r1, #10
 8000a1c:	430a      	orrs	r2, r1
 8000a1e:	615a      	str	r2, [r3, #20]
 8000a20:	4b28      	ldr	r3, [pc, #160]	; (8000ac4 <HAL_UART_MspInit+0xf0>)
 8000a22:	695a      	ldr	r2, [r3, #20]
 8000a24:	2380      	movs	r3, #128	; 0x80
 8000a26:	029b      	lsls	r3, r3, #10
 8000a28:	4013      	ands	r3, r2
 8000a2a:	60fb      	str	r3, [r7, #12]
 8000a2c:	68fb      	ldr	r3, [r7, #12]
    /**USART2 GPIO Configuration
    PA2     ------> USART2_TX
    PA3     ------> USART2_RX
    */
    GPIO_InitStruct.Pin = GPIO_PIN_2|GPIO_PIN_3;
 8000a2e:	0021      	movs	r1, r4
 8000a30:	187b      	adds	r3, r7, r1
 8000a32:	220c      	movs	r2, #12
 8000a34:	601a      	str	r2, [r3, #0]
    GPIO_InitStruct.Mode = GPIO_MODE_AF_PP;
 8000a36:	187b      	adds	r3, r7, r1
 8000a38:	2202      	movs	r2, #2
 8000a3a:	605a      	str	r2, [r3, #4]
    GPIO_InitStruct.Pull = GPIO_NOPULL;
 8000a3c:	187b      	adds	r3, r7, r1
 8000a3e:	2200      	movs	r2, #0
 8000a40:	609a      	str	r2, [r3, #8]
    GPIO_InitStruct.Speed = GPIO_SPEED_FREQ_HIGH;
 8000a42:	187b      	adds	r3, r7, r1
 8000a44:	2203      	movs	r2, #3
 8000a46:	60da      	str	r2, [r3, #12]
    GPIO_InitStruct.Alternate = GPIO_AF1_USART2;
 8000a48:	187b      	adds	r3, r7, r1
 8000a4a:	2201      	movs	r2, #1
 8000a4c:	611a      	str	r2, [r3, #16]
    HAL_GPIO_Init(GPIOA, &GPIO_InitStruct);
 8000a4e:	187a      	adds	r2, r7, r1
 8000a50:	2390      	movs	r3, #144	; 0x90
 8000a52:	05db      	lsls	r3, r3, #23
 8000a54:	0011      	movs	r1, r2
 8000a56:	0018      	movs	r0, r3
 8000a58:	f001 f96a 	bl	8001d30 <HAL_GPIO_Init>

    /* USART2 DMA Init */
    /* USART2_TX Init */
    hdma_usart2_tx.Instance = DMA1_Channel4;
 8000a5c:	4b1a      	ldr	r3, [pc, #104]	; (8000ac8 <HAL_UART_MspInit+0xf4>)
 8000a5e:	4a1b      	ldr	r2, [pc, #108]	; (8000acc <HAL_UART_MspInit+0xf8>)
 8000a60:	601a      	str	r2, [r3, #0]
    hdma_usart2_tx.Init.Direction = DMA_MEMORY_TO_PERIPH;
 8000a62:	4b19      	ldr	r3, [pc, #100]	; (8000ac8 <HAL_UART_MspInit+0xf4>)
 8000a64:	2210      	movs	r2, #16
 8000a66:	605a      	str	r2, [r3, #4]
    hdma_usart2_tx.Init.PeriphInc = DMA_PINC_DISABLE;
 8000a68:	4b17      	ldr	r3, [pc, #92]	; (8000ac8 <HAL_UART_MspInit+0xf4>)
 8000a6a:	2200      	movs	r2, #0
 8000a6c:	609a      	str	r2, [r3, #8]
    hdma_usart2_tx.Init.MemInc = DMA_MINC_ENABLE;
 8000a6e:	4b16      	ldr	r3, [pc, #88]	; (8000ac8 <HAL_UART_MspInit+0xf4>)
 8000a70:	2280      	movs	r2, #128	; 0x80
 8000a72:	60da      	str	r2, [r3, #12]
    hdma_usart2_tx.Init.PeriphDataAlignment = DMA_PDATAALIGN_BYTE;
 8000a74:	4b14      	ldr	r3, [pc, #80]	; (8000ac8 <HAL_UART_MspInit+0xf4>)
 8000a76:	2200      	movs	r2, #0
 8000a78:	611a      	str	r2, [r3, #16]
    hdma_usart2_tx.Init.MemDataAlignment = DMA_MDATAALIGN_BYTE;
 8000a7a:	4b13      	ldr	r3, [pc, #76]	; (8000ac8 <HAL_UART_MspInit+0xf4>)
 8000a7c:	2200      	movs	r2, #0
 8000a7e:	615a      	str	r2, [r3, #20]
    hdma_usart2_tx.Init.Mode = DMA_NORMAL;
 8000a80:	4b11      	ldr	r3, [pc, #68]	; (8000ac8 <HAL_UART_MspInit+0xf4>)
 8000a82:	2200      	movs	r2, #0
 8000a84:	619a      	str	r2, [r3, #24]
    hdma_usart2_tx.Init.Priority = DMA_PRIORITY_LOW;
 8000a86:	4b10      	ldr	r3, [pc, #64]	; (8000ac8 <HAL_UART_MspInit+0xf4>)
 8000a88:	2200      	movs	r2, #0
 8000a8a:	61da      	str	r2, [r3, #28]
    if (HAL_DMA_Init(&hdma_usart2_tx) != HAL_OK)
 8000a8c:	4b0e      	ldr	r3, [pc, #56]	; (8000ac8 <HAL_UART_MspInit+0xf4>)
 8000a8e:	0018      	movs	r0, r3
 8000a90:	f000 ffca 	bl	8001a28 <HAL_DMA_Init>
 8000a94:	1e03      	subs	r3, r0, #0
 8000a96:	d001      	beq.n	8000a9c <HAL_UART_MspInit+0xc8>
    {
      Error_Handler();
 8000a98:	f7ff fe9a 	bl	80007d0 <Error_Handler>
    }

    __HAL_LINKDMA(huart,hdmatx,hdma_usart2_tx);
 8000a9c:	687b      	ldr	r3, [r7, #4]
 8000a9e:	4a0a      	ldr	r2, [pc, #40]	; (8000ac8 <HAL_UART_MspInit+0xf4>)
 8000aa0:	66da      	str	r2, [r3, #108]	; 0x6c
 8000aa2:	4b09      	ldr	r3, [pc, #36]	; (8000ac8 <HAL_UART_MspInit+0xf4>)
 8000aa4:	687a      	ldr	r2, [r7, #4]
 8000aa6:	625a      	str	r2, [r3, #36]	; 0x24

    /* USART2 interrupt Init */
    HAL_NVIC_SetPriority(USART2_IRQn, 0, 0);
 8000aa8:	2200      	movs	r2, #0
 8000aaa:	2100      	movs	r1, #0
 8000aac:	201c      	movs	r0, #28
 8000aae:	f000 ff89 	bl	80019c4 <HAL_NVIC_SetPriority>
    HAL_NVIC_EnableIRQ(USART2_IRQn);
 8000ab2:	201c      	movs	r0, #28
 8000ab4:	f000 ff9b 	bl	80019ee <HAL_NVIC_EnableIRQ>
  /* USER CODE BEGIN USART2_MspInit 1 */

  /* USER CODE END USART2_MspInit 1 */
  }

}
 8000ab8:	46c0      	nop			; (mov r8, r8)
 8000aba:	46bd      	mov	sp, r7
 8000abc:	b00b      	add	sp, #44	; 0x2c
 8000abe:	bd90      	pop	{r4, r7, pc}
 8000ac0:	40004400 	.word	0x40004400
 8000ac4:	40021000 	.word	0x40021000
 8000ac8:	200001e4 	.word	0x200001e4
 8000acc:	40020044 	.word	0x40020044

08000ad0 <NMI_Handler>:
/******************************************************************************/
/**
  * @brief This function handles Non maskable interrupt.
  */
void NMI_Handler(void)
{
 8000ad0:	b580      	push	{r7, lr}
 8000ad2:	af00      	add	r7, sp, #0
  /* USER CODE BEGIN NonMaskableInt_IRQn 0 */

  /* USER CODE END NonMaskableInt_IRQn 0 */
  /* USER CODE BEGIN NonMaskableInt_IRQn 1 */
  while (1)
 8000ad4:	e7fe      	b.n	8000ad4 <NMI_Handler+0x4>

08000ad6 <HardFault_Handler>:

/**
  * @brief This function handles Hard fault interrupt.
  */
void HardFault_Handler(void)
{
 8000ad6:	b580      	push	{r7, lr}
 8000ad8:	af00      	add	r7, sp, #0
  /* USER CODE BEGIN HardFault_IRQn 0 */

  /* USER CODE END HardFault_IRQn 0 */
  while (1)
 8000ada:	e7fe      	b.n	8000ada <HardFault_Handler+0x4>

08000adc <SVC_Handler>:

/**
  * @brief This function handles System service call via SWI instruction.
  */
void SVC_Handler(void)
{
 8000adc:	b580      	push	{r7, lr}
 8000ade:	af00      	add	r7, sp, #0

  /* USER CODE END SVC_IRQn 0 */
  /* USER CODE BEGIN SVC_IRQn 1 */

  /* USER CODE END SVC_IRQn 1 */
}
 8000ae0:	46c0      	nop			; (mov r8, r8)
 8000ae2:	46bd      	mov	sp, r7
 8000ae4:	bd80      	pop	{r7, pc}

08000ae6 <PendSV_Handler>:

/**
  * @brief This function handles Pendable request for system service.
  */
void PendSV_Handler(void)
{
 8000ae6:	b580      	push	{r7, lr}
 8000ae8:	af00      	add	r7, sp, #0

  /* USER CODE END PendSV_IRQn 0 */
  /* USER CODE BEGIN PendSV_IRQn 1 */

  /* USER CODE END PendSV_IRQn 1 */
}
 8000aea:	46c0      	nop			; (mov r8, r8)
 8000aec:	46bd      	mov	sp, r7
 8000aee:	bd80      	pop	{r7, pc}

08000af0 <SysTick_Handler>:

/**
  * @brief This function handles System tick timer.
  */
void SysTick_Handler(void)
{
 8000af0:	b580      	push	{r7, lr}
 8000af2:	af00      	add	r7, sp, #0
  /* USER CODE BEGIN SysTick_IRQn 0 */

  /* USER CODE END SysTick_IRQn 0 */
  HAL_IncTick();
 8000af4:	f000 f8e2 	bl	8000cbc <HAL_IncTick>
  /* USER CODE BEGIN SysTick_IRQn 1 */

  /* USER CODE END SysTick_IRQn 1 */
}
 8000af8:	46c0      	nop			; (mov r8, r8)
 8000afa:	46bd      	mov	sp, r7
 8000afc:	bd80      	pop	{r7, pc}
	...

08000b00 <DMA1_Channel1_IRQHandler>:

/**
  * @brief This function handles DMA1 channel 1 interrupt.
  */
void DMA1_Channel1_IRQHandler(void)
{
 8000b00:	b580      	push	{r7, lr}
 8000b02:	af00      	add	r7, sp, #0
  /* USER CODE BEGIN DMA1_Channel1_IRQn 0 */

  /* USER CODE END DMA1_Channel1_IRQn 0 */
  HAL_DMA_IRQHandler(&hdma_adc);
 8000b04:	4b03      	ldr	r3, [pc, #12]	; (8000b14 <DMA1_Channel1_IRQHandler+0x14>)
 8000b06:	0018      	movs	r0, r3
 8000b08:	f001 f853 	bl	8001bb2 <HAL_DMA_IRQHandler>
  /* USER CODE BEGIN DMA1_Channel1_IRQn 1 */

  /* USER CODE END DMA1_Channel1_IRQn 1 */
}
 8000b0c:	46c0      	nop			; (mov r8, r8)
 8000b0e:	46bd      	mov	sp, r7
 8000b10:	bd80      	pop	{r7, pc}
 8000b12:	46c0      	nop			; (mov r8, r8)
 8000b14:	200000d4 	.word	0x200000d4

08000b18 <DMA1_Channel4_5_IRQHandler>:

/**
  * @brief This function handles DMA1 channel 4 and 5 interrupts.
  */
void DMA1_Channel4_5_IRQHandler(void)
{
 8000b18:	b580      	push	{r7, lr}
 8000b1a:	af00      	add	r7, sp, #0
  /* USER CODE BEGIN DMA1_Channel4_5_IRQn 0 */

  /* USER CODE END DMA1_Channel4_5_IRQn 0 */
  HAL_DMA_IRQHandler(&hdma_usart2_tx);
 8000b1c:	4b03      	ldr	r3, [pc, #12]	; (8000b2c <DMA1_Channel4_5_IRQHandler+0x14>)
 8000b1e:	0018      	movs	r0, r3
 8000b20:	f001 f847 	bl	8001bb2 <HAL_DMA_IRQHandler>
  /* USER CODE BEGIN DMA1_Channel4_5_IRQn 1 */

  /* USER CODE END DMA1_Channel4_5_IRQn 1 */
}
 8000b24:	46c0      	nop			; (mov r8, r8)
 8000b26:	46bd      	mov	sp, r7
 8000b28:	bd80      	pop	{r7, pc}
 8000b2a:	46c0      	nop			; (mov r8, r8)
 8000b2c:	200001e4 	.word	0x200001e4

08000b30 <ADC1_COMP_IRQHandler>:

/**
  * @brief This function handles ADC and COMP interrupts (COMP interrupts through EXTI lines 21 and 22).
  */
void ADC1_COMP_IRQHandler(void)
{
 8000b30:	b580      	push	{r7, lr}
 8000b32:	af00      	add	r7, sp, #0
  /* USER CODE BEGIN ADC1_COMP_IRQn 0 */

  /* USER CODE END ADC1_COMP_IRQn 0 */
  HAL_ADC_IRQHandler(&hadc);
 8000b34:	4b03      	ldr	r3, [pc, #12]	; (8000b44 <ADC1_COMP_IRQHandler+0x14>)
 8000b36:	0018      	movs	r0, r3
 8000b38:	f000 fb78 	bl	800122c <HAL_ADC_IRQHandler>
  /* USER CODE BEGIN ADC1_COMP_IRQn 1 */

  /* USER CODE END ADC1_COMP_IRQn 1 */
}
 8000b3c:	46c0      	nop			; (mov r8, r8)
 8000b3e:	46bd      	mov	sp, r7
 8000b40:	bd80      	pop	{r7, pc}
 8000b42:	46c0      	nop			; (mov r8, r8)
 8000b44:	20000094 	.word	0x20000094

08000b48 <USART2_IRQHandler>:

/**
  * @brief This function handles USART2 global interrupt.
  */
void USART2_IRQHandler(void)
{
 8000b48:	b580      	push	{r7, lr}
 8000b4a:	af00      	add	r7, sp, #0
  /* USER CODE BEGIN USART2_IRQn 0 */

  /* USER CODE END USART2_IRQn 0 */
  HAL_UART_IRQHandler(&huart2);
 8000b4c:	4b03      	ldr	r3, [pc, #12]	; (8000b5c <USART2_IRQHandler+0x14>)
 8000b4e:	0018      	movs	r0, r3
 8000b50:	f002 feb8 	bl	80038c4 <HAL_UART_IRQHandler>
  /* USER CODE BEGIN USART2_IRQn 1 */

  /* USER CODE END USART2_IRQn 1 */
}
 8000b54:	46c0      	nop			; (mov r8, r8)
 8000b56:	46bd      	mov	sp, r7
 8000b58:	bd80      	pop	{r7, pc}
 8000b5a:	46c0      	nop			; (mov r8, r8)
 8000b5c:	20000160 	.word	0x20000160

08000b60 <_sbrk>:
 *
 * @param incr Memory size
 * @return Pointer to allocated memory
 */
void *_sbrk(ptrdiff_t incr)
{
 8000b60:	b580      	push	{r7, lr}
 8000b62:	b086      	sub	sp, #24
 8000b64:	af00      	add	r7, sp, #0
 8000b66:	6078      	str	r0, [r7, #4]
  extern uint8_t _end; /* Symbol defined in the linker script */
  extern uint8_t _estack; /* Symbol defined in the linker script */
  extern uint32_t _Min_Stack_Size; /* Symbol defined in the linker script */
  const uint32_t stack_limit = (uint32_t)&_estack - (uint32_t)&_Min_Stack_Size;
 8000b68:	4a14      	ldr	r2, [pc, #80]	; (8000bbc <_sbrk+0x5c>)
 8000b6a:	4b15      	ldr	r3, [pc, #84]	; (8000bc0 <_sbrk+0x60>)
 8000b6c:	1ad3      	subs	r3, r2, r3
 8000b6e:	617b      	str	r3, [r7, #20]
  const uint8_t *max_heap = (uint8_t *)stack_limit;
 8000b70:	697b      	ldr	r3, [r7, #20]
 8000b72:	613b      	str	r3, [r7, #16]
  uint8_t *prev_heap_end;

  /* Initialize heap end at first call */
  if (NULL == __sbrk_heap_end)
 8000b74:	4b13      	ldr	r3, [pc, #76]	; (8000bc4 <_sbrk+0x64>)
 8000b76:	681b      	ldr	r3, [r3, #0]
 8000b78:	2b00      	cmp	r3, #0
 8000b7a:	d102      	bne.n	8000b82 <_sbrk+0x22>
  {
    __sbrk_heap_end = &_end;
 8000b7c:	4b11      	ldr	r3, [pc, #68]	; (8000bc4 <_sbrk+0x64>)
 8000b7e:	4a12      	ldr	r2, [pc, #72]	; (8000bc8 <_sbrk+0x68>)
 8000b80:	601a      	str	r2, [r3, #0]
  }

  /* Protect heap from growing into the reserved MSP stack */
  if (__sbrk_heap_end + incr > max_heap)
 8000b82:	4b10      	ldr	r3, [pc, #64]	; (8000bc4 <_sbrk+0x64>)
 8000b84:	681a      	ldr	r2, [r3, #0]
 8000b86:	687b      	ldr	r3, [r7, #4]
 8000b88:	18d3      	adds	r3, r2, r3
 8000b8a:	693a      	ldr	r2, [r7, #16]
 8000b8c:	429a      	cmp	r2, r3
 8000b8e:	d207      	bcs.n	8000ba0 <_sbrk+0x40>
  {
    errno = ENOMEM;
 8000b90:	f003 fd38 	bl	8004604 <__errno>
 8000b94:	0003      	movs	r3, r0
 8000b96:	220c      	movs	r2, #12
 8000b98:	601a      	str	r2, [r3, #0]
    return (void *)-1;
 8000b9a:	2301      	movs	r3, #1
 8000b9c:	425b      	negs	r3, r3
 8000b9e:	e009      	b.n	8000bb4 <_sbrk+0x54>
  }

  prev_heap_end = __sbrk_heap_end;
 8000ba0:	4b08      	ldr	r3, [pc, #32]	; (8000bc4 <_sbrk+0x64>)
 8000ba2:	681b      	ldr	r3, [r3, #0]
 8000ba4:	60fb      	str	r3, [r7, #12]
  __sbrk_heap_end += incr;
 8000ba6:	4b07      	ldr	r3, [pc, #28]	; (8000bc4 <_sbrk+0x64>)
 8000ba8:	681a      	ldr	r2, [r3, #0]
 8000baa:	687b      	ldr	r3, [r7, #4]
 8000bac:	18d2      	adds	r2, r2, r3
 8000bae:	4b05      	ldr	r3, [pc, #20]	; (8000bc4 <_sbrk+0x64>)
 8000bb0:	601a      	str	r2, [r3, #0]

  return (void *)prev_heap_end;
 8000bb2:	68fb      	ldr	r3, [r7, #12]
}
 8000bb4:	0018      	movs	r0, r3
 8000bb6:	46bd      	mov	sp, r7
 8000bb8:	b006      	add	sp, #24
 8000bba:	bd80      	pop	{r7, pc}
 8000bbc:	20002000 	.word	0x20002000
 8000bc0:	00000400 	.word	0x00000400
 8000bc4:	2000025c 	.word	0x2000025c
 8000bc8:	20000278 	.word	0x20000278

08000bcc <SystemInit>:
  * @brief  Setup the microcontroller system
  * @param  None
  * @retval None
  */
void SystemInit(void)
{
 8000bcc:	b580      	push	{r7, lr}
 8000bce:	af00      	add	r7, sp, #0
                         before branch to main program. This call is made inside
                         the "startup_stm32f0xx.s" file.
                         User can setups the default system clock (System clock source, PLL Multiplier
                         and Divider factors, AHB/APBx prescalers and Flash settings).
   */
}
 8000bd0:	46c0      	nop			; (mov r8, r8)
 8000bd2:	46bd      	mov	sp, r7
 8000bd4:	bd80      	pop	{r7, pc}
	...

08000bd8 <Reset_Handler>:

  .section .text.Reset_Handler
  .weak Reset_Handler
  .type Reset_Handler, %function
Reset_Handler:
  ldr   r0, =_estack
 8000bd8:	480d      	ldr	r0, [pc, #52]	; (8000c10 <LoopForever+0x2>)
  mov   sp, r0          /* set stack pointer */
 8000bda:	4685      	mov	sp, r0

/* Copy the data segment initializers from flash to SRAM */
  ldr r0, =_sdata
 8000bdc:	480d      	ldr	r0, [pc, #52]	; (8000c14 <LoopForever+0x6>)
  ldr r1, =_edata
 8000bde:	490e      	ldr	r1, [pc, #56]	; (8000c18 <LoopForever+0xa>)
  ldr r2, =_sidata
 8000be0:	4a0e      	ldr	r2, [pc, #56]	; (8000c1c <LoopForever+0xe>)
  movs r3, #0
 8000be2:	2300      	movs	r3, #0
  b LoopCopyDataInit
 8000be4:	e002      	b.n	8000bec <LoopCopyDataInit>

08000be6 <CopyDataInit>:

CopyDataInit:
  ldr r4, [r2, r3]
 8000be6:	58d4      	ldr	r4, [r2, r3]
  str r4, [r0, r3]
 8000be8:	50c4      	str	r4, [r0, r3]
  adds r3, r3, #4
 8000bea:	3304      	adds	r3, #4

08000bec <LoopCopyDataInit>:

LoopCopyDataInit:
  adds r4, r0, r3
 8000bec:	18c4      	adds	r4, r0, r3
  cmp r4, r1
 8000bee:	428c      	cmp	r4, r1
  bcc CopyDataInit
 8000bf0:	d3f9      	bcc.n	8000be6 <CopyDataInit>
  
/* Zero fill the bss segment. */
  ldr r2, =_sbss
 8000bf2:	4a0b      	ldr	r2, [pc, #44]	; (8000c20 <LoopForever+0x12>)
  ldr r4, =_ebss
 8000bf4:	4c0b      	ldr	r4, [pc, #44]	; (8000c24 <LoopForever+0x16>)
  movs r3, #0
 8000bf6:	2300      	movs	r3, #0
  b LoopFillZerobss
 8000bf8:	e001      	b.n	8000bfe <LoopFillZerobss>

08000bfa <FillZerobss>:

FillZerobss:
  str  r3, [r2]
 8000bfa:	6013      	str	r3, [r2, #0]
  adds r2, r2, #4
 8000bfc:	3204      	adds	r2, #4

08000bfe <LoopFillZerobss>:

LoopFillZerobss:
  cmp r2, r4
 8000bfe:	42a2      	cmp	r2, r4
  bcc FillZerobss
 8000c00:	d3fb      	bcc.n	8000bfa <FillZerobss>

/* Call the clock system intitialization function.*/
  bl  SystemInit
 8000c02:	f7ff ffe3 	bl	8000bcc <SystemInit>
/* Call static constructors */
  bl __libc_init_array
 8000c06:	f003 fd03 	bl	8004610 <__libc_init_array>
/* Call the application's entry point.*/
  bl main
 8000c0a:	f7ff fb13 	bl	8000234 <main>

08000c0e <LoopForever>:

LoopForever:
    b LoopForever
 8000c0e:	e7fe      	b.n	8000c0e <LoopForever>
  ldr   r0, =_estack
 8000c10:	20002000 	.word	0x20002000
  ldr r0, =_sdata
 8000c14:	20000000 	.word	0x20000000
  ldr r1, =_edata
 8000c18:	20000078 	.word	0x20000078
  ldr r2, =_sidata
 8000c1c:	08004ff0 	.word	0x08004ff0
  ldr r2, =_sbss
 8000c20:	20000078 	.word	0x20000078
  ldr r4, =_ebss
 8000c24:	20000274 	.word	0x20000274

08000c28 <CEC_CAN_IRQHandler>:
 * @retval : None
*/
    .section .text.Default_Handler,"ax",%progbits
Default_Handler:
Infinite_Loop:
  b Infinite_Loop
 8000c28:	e7fe      	b.n	8000c28 <CEC_CAN_IRQHandler>
	...

08000c2c <HAL_Init>:
  *       In the default implementation,Systick is used as source of time base.
  *       The tick variable is incremented each 1ms in its ISR.
  * @retval HAL status
  */
HAL_StatusTypeDef HAL_Init(void)
{
 8000c2c:	b580      	push	{r7, lr}
 8000c2e:	af00      	add	r7, sp, #0
  /* Configure Flash prefetch */ 
#if (PREFETCH_ENABLE != 0)
  __HAL_FLASH_PREFETCH_BUFFER_ENABLE();
 8000c30:	4b07      	ldr	r3, [pc, #28]	; (8000c50 <HAL_Init+0x24>)
 8000c32:	681a      	ldr	r2, [r3, #0]
 8000c34:	4b06      	ldr	r3, [pc, #24]	; (8000c50 <HAL_Init+0x24>)
 8000c36:	2110      	movs	r1, #16
 8000c38:	430a      	orrs	r2, r1
 8000c3a:	601a      	str	r2, [r3, #0]
#endif /* PREFETCH_ENABLE */

  /* Use systick as time base source and configure 1ms tick (default clock after Reset is HSI) */

  HAL_InitTick(TICK_INT_PRIORITY);
 8000c3c:	2000      	movs	r0, #0
 8000c3e:	f000 f809 	bl	8000c54 <HAL_InitTick>

  /* Init the low level hardware */
  HAL_MspInit();
 8000c42:	f7ff fdcb 	bl	80007dc <HAL_MspInit>

  /* Return function status */
  return HAL_OK;
 8000c46:	2300      	movs	r3, #0
}
 8000c48:	0018      	movs	r0, r3
 8000c4a:	46bd      	mov	sp, r7
 8000c4c:	bd80      	pop	{r7, pc}
 8000c4e:	46c0      	nop			; (mov r8, r8)
 8000c50:	40022000 	.word	0x40022000

08000c54 <HAL_InitTick>:
  *       implementation  in user file.
  * @param TickPriority Tick interrupt priority.
  * @retval HAL status
  */
__weak HAL_StatusTypeDef HAL_InitTick(uint32_t TickPriority)
{
 8000c54:	b590      	push	{r4, r7, lr}
 8000c56:	b083      	sub	sp, #12
 8000c58:	af00      	add	r7, sp, #0
 8000c5a:	6078      	str	r0, [r7, #4]
  /*Configure the SysTick to have interrupt in 1ms time basis*/
  if (HAL_SYSTICK_Config(SystemCoreClock / (1000U / uwTickFreq)) > 0U)
 8000c5c:	4b14      	ldr	r3, [pc, #80]	; (8000cb0 <HAL_InitTick+0x5c>)
 8000c5e:	681c      	ldr	r4, [r3, #0]
 8000c60:	4b14      	ldr	r3, [pc, #80]	; (8000cb4 <HAL_InitTick+0x60>)
 8000c62:	781b      	ldrb	r3, [r3, #0]
 8000c64:	0019      	movs	r1, r3
 8000c66:	23fa      	movs	r3, #250	; 0xfa
 8000c68:	0098      	lsls	r0, r3, #2
 8000c6a:	f7ff fa57 	bl	800011c <__udivsi3>
 8000c6e:	0003      	movs	r3, r0
 8000c70:	0019      	movs	r1, r3
 8000c72:	0020      	movs	r0, r4
 8000c74:	f7ff fa52 	bl	800011c <__udivsi3>
 8000c78:	0003      	movs	r3, r0
 8000c7a:	0018      	movs	r0, r3
 8000c7c:	f000 fec7 	bl	8001a0e <HAL_SYSTICK_Config>
 8000c80:	1e03      	subs	r3, r0, #0
 8000c82:	d001      	beq.n	8000c88 <HAL_InitTick+0x34>
  {
    return HAL_ERROR;
 8000c84:	2301      	movs	r3, #1
 8000c86:	e00f      	b.n	8000ca8 <HAL_InitTick+0x54>
  }

  /* Configure the SysTick IRQ priority */
  if (TickPriority < (1UL << __NVIC_PRIO_BITS))
 8000c88:	687b      	ldr	r3, [r7, #4]
 8000c8a:	2b03      	cmp	r3, #3
 8000c8c:	d80b      	bhi.n	8000ca6 <HAL_InitTick+0x52>
  {
    HAL_NVIC_SetPriority(SysTick_IRQn, TickPriority, 0U);
 8000c8e:	6879      	ldr	r1, [r7, #4]
 8000c90:	2301      	movs	r3, #1
 8000c92:	425b      	negs	r3, r3
 8000c94:	2200      	movs	r2, #0
 8000c96:	0018      	movs	r0, r3
 8000c98:	f000 fe94 	bl	80019c4 <HAL_NVIC_SetPriority>
    uwTickPrio = TickPriority;
 8000c9c:	4b06      	ldr	r3, [pc, #24]	; (8000cb8 <HAL_InitTick+0x64>)
 8000c9e:	687a      	ldr	r2, [r7, #4]
 8000ca0:	601a      	str	r2, [r3, #0]
  {
    return HAL_ERROR;
  }

   /* Return function status */
  return HAL_OK;
 8000ca2:	2300      	movs	r3, #0
 8000ca4:	e000      	b.n	8000ca8 <HAL_InitTick+0x54>
    return HAL_ERROR;
 8000ca6:	2301      	movs	r3, #1
}
 8000ca8:	0018      	movs	r0, r3
 8000caa:	46bd      	mov	sp, r7
 8000cac:	b003      	add	sp, #12
 8000cae:	bd90      	pop	{r4, r7, pc}
 8000cb0:	20000008 	.word	0x20000008
 8000cb4:	20000010 	.word	0x20000010
 8000cb8:	2000000c 	.word	0x2000000c

08000cbc <HAL_IncTick>:
  * @note This function is declared as __weak to be overwritten in case of other 
  *       implementations in user file.
  * @retval None
  */
__weak void HAL_IncTick(void)
{
 8000cbc:	b580      	push	{r7, lr}
 8000cbe:	af00      	add	r7, sp, #0
  uwTick += uwTickFreq;
 8000cc0:	4b05      	ldr	r3, [pc, #20]	; (8000cd8 <HAL_IncTick+0x1c>)
 8000cc2:	781b      	ldrb	r3, [r3, #0]
 8000cc4:	001a      	movs	r2, r3
 8000cc6:	4b05      	ldr	r3, [pc, #20]	; (8000cdc <HAL_IncTick+0x20>)
 8000cc8:	681b      	ldr	r3, [r3, #0]
 8000cca:	18d2      	adds	r2, r2, r3
 8000ccc:	4b03      	ldr	r3, [pc, #12]	; (8000cdc <HAL_IncTick+0x20>)
 8000cce:	601a      	str	r2, [r3, #0]
}
 8000cd0:	46c0      	nop			; (mov r8, r8)
 8000cd2:	46bd      	mov	sp, r7
 8000cd4:	bd80      	pop	{r7, pc}
 8000cd6:	46c0      	nop			; (mov r8, r8)
 8000cd8:	20000010 	.word	0x20000010
 8000cdc:	20000260 	.word	0x20000260

08000ce0 <HAL_GetTick>:
  * @note   This function is declared as __weak  to be overwritten  in case of other 
  *       implementations in user file.
  * @retval tick value
  */
__weak uint32_t HAL_GetTick(void)
{
 8000ce0:	b580      	push	{r7, lr}
 8000ce2:	af00      	add	r7, sp, #0
  return uwTick;
 8000ce4:	4b02      	ldr	r3, [pc, #8]	; (8000cf0 <HAL_GetTick+0x10>)
 8000ce6:	681b      	ldr	r3, [r3, #0]
}
 8000ce8:	0018      	movs	r0, r3
 8000cea:	46bd      	mov	sp, r7
 8000cec:	bd80      	pop	{r7, pc}
 8000cee:	46c0      	nop			; (mov r8, r8)
 8000cf0:	20000260 	.word	0x20000260

08000cf4 <HAL_Delay>:
  *       implementations in user file.
  * @param Delay specifies the delay time length, in milliseconds.
  * @retval None
  */
__weak void HAL_Delay(uint32_t Delay)
{
 8000cf4:	b580      	push	{r7, lr}
 8000cf6:	b084      	sub	sp, #16
 8000cf8:	af00      	add	r7, sp, #0
 8000cfa:	6078      	str	r0, [r7, #4]
  uint32_t tickstart = HAL_GetTick();
 8000cfc:	f7ff fff0 	bl	8000ce0 <HAL_GetTick>
 8000d00:	0003      	movs	r3, r0
 8000d02:	60bb      	str	r3, [r7, #8]
  uint32_t wait = Delay;
 8000d04:	687b      	ldr	r3, [r7, #4]
 8000d06:	60fb      	str	r3, [r7, #12]
  
  /* Add a freq to guarantee minimum wait */
  if (wait < HAL_MAX_DELAY)
 8000d08:	68fb      	ldr	r3, [r7, #12]
 8000d0a:	3301      	adds	r3, #1
 8000d0c:	d005      	beq.n	8000d1a <HAL_Delay+0x26>
  {
    wait += (uint32_t)(uwTickFreq);
 8000d0e:	4b0a      	ldr	r3, [pc, #40]	; (8000d38 <HAL_Delay+0x44>)
 8000d10:	781b      	ldrb	r3, [r3, #0]
 8000d12:	001a      	movs	r2, r3
 8000d14:	68fb      	ldr	r3, [r7, #12]
 8000d16:	189b      	adds	r3, r3, r2
 8000d18:	60fb      	str	r3, [r7, #12]
  }
  
  while((HAL_GetTick() - tickstart) < wait)
 8000d1a:	46c0      	nop			; (mov r8, r8)
 8000d1c:	f7ff ffe0 	bl	8000ce0 <HAL_GetTick>
 8000d20:	0002      	movs	r2, r0
 8000d22:	68bb      	ldr	r3, [r7, #8]
 8000d24:	1ad3      	subs	r3, r2, r3
 8000d26:	68fa      	ldr	r2, [r7, #12]
 8000d28:	429a      	cmp	r2, r3
 8000d2a:	d8f7      	bhi.n	8000d1c <HAL_Delay+0x28>
  {
  }
}
 8000d2c:	46c0      	nop			; (mov r8, r8)
 8000d2e:	46c0      	nop			; (mov r8, r8)
 8000d30:	46bd      	mov	sp, r7
 8000d32:	b004      	add	sp, #16
 8000d34:	bd80      	pop	{r7, pc}
 8000d36:	46c0      	nop			; (mov r8, r8)
 8000d38:	20000010 	.word	0x20000010

08000d3c <HAL_ADC_Init>:
  *         of structure "ADC_InitTypeDef".
  * @param  hadc ADC handle
  * @retval HAL status
  */
HAL_StatusTypeDef HAL_ADC_Init(ADC_HandleTypeDef* hadc)
{
 8000d3c:	b580      	push	{r7, lr}
 8000d3e:	b084      	sub	sp, #16
 8000d40:	af00      	add	r7, sp, #0
 8000d42:	6078      	str	r0, [r7, #4]
  HAL_StatusTypeDef tmp_hal_status = HAL_OK;
 8000d44:	230f      	movs	r3, #15
 8000d46:	18fb      	adds	r3, r7, r3
 8000d48:	2200      	movs	r2, #0
 8000d4a:	701a      	strb	r2, [r3, #0]
  uint32_t tmpCFGR1 = 0U;
 8000d4c:	2300      	movs	r3, #0
 8000d4e:	60bb      	str	r3, [r7, #8]

  /* Check ADC handle */
  if(hadc == NULL)
 8000d50:	687b      	ldr	r3, [r7, #4]
 8000d52:	2b00      	cmp	r3, #0
 8000d54:	d101      	bne.n	8000d5a <HAL_ADC_Init+0x1e>
  {
    return HAL_ERROR;
 8000d56:	2301      	movs	r3, #1
 8000d58:	e125      	b.n	8000fa6 <HAL_ADC_Init+0x26a>
  /* Refer to header of this file for more details on clock enabling procedure*/
  
  /* Actions performed only if ADC is coming from state reset:                */
  /* - Initialization of ADC MSP                                              */
  /* - ADC voltage regulator enable                                           */
  if (hadc->State == HAL_ADC_STATE_RESET)
 8000d5a:	687b      	ldr	r3, [r7, #4]
 8000d5c:	6b9b      	ldr	r3, [r3, #56]	; 0x38
 8000d5e:	2b00      	cmp	r3, #0
 8000d60:	d10a      	bne.n	8000d78 <HAL_ADC_Init+0x3c>
  {
    /* Initialize ADC error code */
    ADC_CLEAR_ERRORCODE(hadc);
 8000d62:	687b      	ldr	r3, [r7, #4]
 8000d64:	2200      	movs	r2, #0
 8000d66:	63da      	str	r2, [r3, #60]	; 0x3c
    
    /* Allocate lock resource and initialize it */
    hadc->Lock = HAL_UNLOCKED;
 8000d68:	687b      	ldr	r3, [r7, #4]
 8000d6a:	2234      	movs	r2, #52	; 0x34
 8000d6c:	2100      	movs	r1, #0
 8000d6e:	5499      	strb	r1, [r3, r2]
    
    /* Init the low level hardware */
    hadc->MspInitCallback(hadc);
#else
    /* Init the low level hardware */
    HAL_ADC_MspInit(hadc);
 8000d70:	687b      	ldr	r3, [r7, #4]
 8000d72:	0018      	movs	r0, r3
 8000d74:	f7ff fd56 	bl	8000824 <HAL_ADC_MspInit>
  /* Configuration of ADC parameters if previous preliminary actions are      */ 
  /* correctly completed.                                                     */
  /* and if there is no conversion on going on regular group (ADC can be      */ 
  /* enabled anyway, in case of call of this function to update a parameter   */
  /* on the fly).                                                             */
  if (HAL_IS_BIT_CLR(hadc->State, HAL_ADC_STATE_ERROR_INTERNAL) &&
 8000d78:	687b      	ldr	r3, [r7, #4]
 8000d7a:	6b9b      	ldr	r3, [r3, #56]	; 0x38
 8000d7c:	2210      	movs	r2, #16
 8000d7e:	4013      	ands	r3, r2
 8000d80:	d000      	beq.n	8000d84 <HAL_ADC_Init+0x48>
 8000d82:	e103      	b.n	8000f8c <HAL_ADC_Init+0x250>
 8000d84:	230f      	movs	r3, #15
 8000d86:	18fb      	adds	r3, r7, r3
 8000d88:	781b      	ldrb	r3, [r3, #0]
 8000d8a:	2b00      	cmp	r3, #0
 8000d8c:	d000      	beq.n	8000d90 <HAL_ADC_Init+0x54>
 8000d8e:	e0fd      	b.n	8000f8c <HAL_ADC_Init+0x250>
      (tmp_hal_status == HAL_OK)                                &&
      (ADC_IS_CONVERSION_ONGOING_REGULAR(hadc) == RESET)          )
 8000d90:	687b      	ldr	r3, [r7, #4]
 8000d92:	681b      	ldr	r3, [r3, #0]
 8000d94:	689b      	ldr	r3, [r3, #8]
 8000d96:	2204      	movs	r2, #4
 8000d98:	4013      	ands	r3, r2
      (tmp_hal_status == HAL_OK)                                &&
 8000d9a:	d000      	beq.n	8000d9e <HAL_ADC_Init+0x62>
 8000d9c:	e0f6      	b.n	8000f8c <HAL_ADC_Init+0x250>
  {
    /* Set ADC state */
    ADC_STATE_CLR_SET(hadc->State,
 8000d9e:	687b      	ldr	r3, [r7, #4]
 8000da0:	6b9b      	ldr	r3, [r3, #56]	; 0x38
 8000da2:	4a83      	ldr	r2, [pc, #524]	; (8000fb0 <HAL_ADC_Init+0x274>)
 8000da4:	4013      	ands	r3, r2
 8000da6:	2202      	movs	r2, #2
 8000da8:	431a      	orrs	r2, r3
 8000daa:	687b      	ldr	r3, [r7, #4]
 8000dac:	639a      	str	r2, [r3, #56]	; 0x38
    /* Parameters update conditioned to ADC state:                            */
    /* Parameters that can be updated only when ADC is disabled:              */
    /*  - ADC clock mode                                                      */
    /*  - ADC clock prescaler                                                 */
    /*  - ADC resolution                                                      */
    if (ADC_IS_ENABLE(hadc) == RESET)
 8000dae:	687b      	ldr	r3, [r7, #4]
 8000db0:	681b      	ldr	r3, [r3, #0]
 8000db2:	689b      	ldr	r3, [r3, #8]
 8000db4:	2203      	movs	r2, #3
 8000db6:	4013      	ands	r3, r2
 8000db8:	2b01      	cmp	r3, #1
 8000dba:	d112      	bne.n	8000de2 <HAL_ADC_Init+0xa6>
 8000dbc:	687b      	ldr	r3, [r7, #4]
 8000dbe:	681b      	ldr	r3, [r3, #0]
 8000dc0:	681b      	ldr	r3, [r3, #0]
 8000dc2:	2201      	movs	r2, #1
 8000dc4:	4013      	ands	r3, r2
 8000dc6:	2b01      	cmp	r3, #1
 8000dc8:	d009      	beq.n	8000dde <HAL_ADC_Init+0xa2>
 8000dca:	687b      	ldr	r3, [r7, #4]
 8000dcc:	681b      	ldr	r3, [r3, #0]
 8000dce:	68da      	ldr	r2, [r3, #12]
 8000dd0:	2380      	movs	r3, #128	; 0x80
 8000dd2:	021b      	lsls	r3, r3, #8
 8000dd4:	401a      	ands	r2, r3
 8000dd6:	2380      	movs	r3, #128	; 0x80
 8000dd8:	021b      	lsls	r3, r3, #8
 8000dda:	429a      	cmp	r2, r3
 8000ddc:	d101      	bne.n	8000de2 <HAL_ADC_Init+0xa6>
 8000dde:	2301      	movs	r3, #1
 8000de0:	e000      	b.n	8000de4 <HAL_ADC_Init+0xa8>
 8000de2:	2300      	movs	r3, #0
 8000de4:	2b00      	cmp	r3, #0
 8000de6:	d116      	bne.n	8000e16 <HAL_ADC_Init+0xda>
      /* parameters):                                                         */
      /*   - internal measurement paths: Vbat, temperature sensor, Vref       */
      /*     (set into HAL_ADC_ConfigChannel() )                              */
     
      /* Configuration of ADC resolution                                      */
      MODIFY_REG(hadc->Instance->CFGR1,
 8000de8:	687b      	ldr	r3, [r7, #4]
 8000dea:	681b      	ldr	r3, [r3, #0]
 8000dec:	68db      	ldr	r3, [r3, #12]
 8000dee:	2218      	movs	r2, #24
 8000df0:	4393      	bics	r3, r2
 8000df2:	0019      	movs	r1, r3
 8000df4:	687b      	ldr	r3, [r7, #4]
 8000df6:	689a      	ldr	r2, [r3, #8]
 8000df8:	687b      	ldr	r3, [r7, #4]
 8000dfa:	681b      	ldr	r3, [r3, #0]
 8000dfc:	430a      	orrs	r2, r1
 8000dfe:	60da      	str	r2, [r3, #12]
                 ADC_CFGR1_RES        ,
                 hadc->Init.Resolution );
      
      /* Configuration of ADC clock mode: clock source AHB or HSI with        */
      /* selectable prescaler                                                 */
      MODIFY_REG(hadc->Instance->CFGR2    ,
 8000e00:	687b      	ldr	r3, [r7, #4]
 8000e02:	681b      	ldr	r3, [r3, #0]
 8000e04:	691b      	ldr	r3, [r3, #16]
 8000e06:	009b      	lsls	r3, r3, #2
 8000e08:	0899      	lsrs	r1, r3, #2
 8000e0a:	687b      	ldr	r3, [r7, #4]
 8000e0c:	685a      	ldr	r2, [r3, #4]
 8000e0e:	687b      	ldr	r3, [r7, #4]
 8000e10:	681b      	ldr	r3, [r3, #0]
 8000e12:	430a      	orrs	r2, r1
 8000e14:	611a      	str	r2, [r3, #16]
    /*  - external trigger polarity                                           */
    /*  - data alignment                                                      */
    /*  - resolution                                                          */
    /*  - scan direction                                                      */
    /*  - DMA continuous request                                              */
    hadc->Instance->CFGR1 &= ~( ADC_CFGR1_DISCEN  |
 8000e16:	687b      	ldr	r3, [r7, #4]
 8000e18:	681b      	ldr	r3, [r3, #0]
 8000e1a:	68da      	ldr	r2, [r3, #12]
 8000e1c:	687b      	ldr	r3, [r7, #4]
 8000e1e:	681b      	ldr	r3, [r3, #0]
 8000e20:	4964      	ldr	r1, [pc, #400]	; (8000fb4 <HAL_ADC_Init+0x278>)
 8000e22:	400a      	ands	r2, r1
 8000e24:	60da      	str	r2, [r3, #12]
                                ADC_CFGR1_EXTEN   |
                                ADC_CFGR1_ALIGN   |
                                ADC_CFGR1_SCANDIR |
                                ADC_CFGR1_DMACFG   );

    tmpCFGR1 |= (ADC_CFGR1_AUTOWAIT((uint32_t)hadc->Init.LowPowerAutoWait)        |
 8000e26:	687b      	ldr	r3, [r7, #4]
 8000e28:	7e1b      	ldrb	r3, [r3, #24]
 8000e2a:	039a      	lsls	r2, r3, #14
                 ADC_CFGR1_AUTOOFF((uint32_t)hadc->Init.LowPowerAutoPowerOff)     |
 8000e2c:	687b      	ldr	r3, [r7, #4]
 8000e2e:	7e5b      	ldrb	r3, [r3, #25]
 8000e30:	03db      	lsls	r3, r3, #15
    tmpCFGR1 |= (ADC_CFGR1_AUTOWAIT((uint32_t)hadc->Init.LowPowerAutoWait)        |
 8000e32:	431a      	orrs	r2, r3
                 ADC_CFGR1_CONTINUOUS((uint32_t)hadc->Init.ContinuousConvMode)    |
 8000e34:	687b      	ldr	r3, [r7, #4]
 8000e36:	7e9b      	ldrb	r3, [r3, #26]
 8000e38:	035b      	lsls	r3, r3, #13
                 ADC_CFGR1_AUTOOFF((uint32_t)hadc->Init.LowPowerAutoPowerOff)     |
 8000e3a:	431a      	orrs	r2, r3
                 ADC_CFGR1_OVERRUN(hadc->Init.Overrun)                            |
 8000e3c:	687b      	ldr	r3, [r7, #4]
 8000e3e:	6a9b      	ldr	r3, [r3, #40]	; 0x28
 8000e40:	2b01      	cmp	r3, #1
 8000e42:	d002      	beq.n	8000e4a <HAL_ADC_Init+0x10e>
 8000e44:	2380      	movs	r3, #128	; 0x80
 8000e46:	015b      	lsls	r3, r3, #5
 8000e48:	e000      	b.n	8000e4c <HAL_ADC_Init+0x110>
 8000e4a:	2300      	movs	r3, #0
                 ADC_CFGR1_CONTINUOUS((uint32_t)hadc->Init.ContinuousConvMode)    |
 8000e4c:	431a      	orrs	r2, r3
                 hadc->Init.DataAlign                                             |
 8000e4e:	687b      	ldr	r3, [r7, #4]
 8000e50:	68db      	ldr	r3, [r3, #12]
                 ADC_CFGR1_OVERRUN(hadc->Init.Overrun)                            |
 8000e52:	431a      	orrs	r2, r3
                 ADC_SCANDIR(hadc->Init.ScanConvMode)                             |
 8000e54:	687b      	ldr	r3, [r7, #4]
 8000e56:	691b      	ldr	r3, [r3, #16]
 8000e58:	2b02      	cmp	r3, #2
 8000e5a:	d101      	bne.n	8000e60 <HAL_ADC_Init+0x124>
 8000e5c:	2304      	movs	r3, #4
 8000e5e:	e000      	b.n	8000e62 <HAL_ADC_Init+0x126>
 8000e60:	2300      	movs	r3, #0
                 hadc->Init.DataAlign                                             |
 8000e62:	431a      	orrs	r2, r3
                 ADC_CFGR1_DMACONTREQ((uint32_t)hadc->Init.DMAContinuousRequests)  );
 8000e64:	687b      	ldr	r3, [r7, #4]
 8000e66:	2124      	movs	r1, #36	; 0x24
 8000e68:	5c5b      	ldrb	r3, [r3, r1]
 8000e6a:	005b      	lsls	r3, r3, #1
                 ADC_SCANDIR(hadc->Init.ScanConvMode)                             |
 8000e6c:	4313      	orrs	r3, r2
    tmpCFGR1 |= (ADC_CFGR1_AUTOWAIT((uint32_t)hadc->Init.LowPowerAutoWait)        |
 8000e6e:	68ba      	ldr	r2, [r7, #8]
 8000e70:	4313      	orrs	r3, r2
 8000e72:	60bb      	str	r3, [r7, #8]
    
    /* Enable discontinuous mode only if continuous mode is disabled */
    if (hadc->Init.DiscontinuousConvMode == ENABLE)
 8000e74:	687b      	ldr	r3, [r7, #4]
 8000e76:	7edb      	ldrb	r3, [r3, #27]
 8000e78:	2b01      	cmp	r3, #1
 8000e7a:	d115      	bne.n	8000ea8 <HAL_ADC_Init+0x16c>
    {
      if (hadc->Init.ContinuousConvMode == DISABLE)
 8000e7c:	687b      	ldr	r3, [r7, #4]
 8000e7e:	7e9b      	ldrb	r3, [r3, #26]
 8000e80:	2b00      	cmp	r3, #0
 8000e82:	d105      	bne.n	8000e90 <HAL_ADC_Init+0x154>
      {
        /* Enable the selected ADC group regular discontinuous mode */
        tmpCFGR1 |= ADC_CFGR1_DISCEN;
 8000e84:	68bb      	ldr	r3, [r7, #8]
 8000e86:	2280      	movs	r2, #128	; 0x80
 8000e88:	0252      	lsls	r2, r2, #9
 8000e8a:	4313      	orrs	r3, r2
 8000e8c:	60bb      	str	r3, [r7, #8]
 8000e8e:	e00b      	b.n	8000ea8 <HAL_ADC_Init+0x16c>
        /* ADC regular group discontinuous was intended to be enabled,        */
        /* but ADC regular group modes continuous and sequencer discontinuous */
        /* cannot be enabled simultaneously.                                  */
        
        /* Update ADC state machine to error */
        SET_BIT(hadc->State, HAL_ADC_STATE_ERROR_CONFIG);
 8000e90:	687b      	ldr	r3, [r7, #4]
 8000e92:	6b9b      	ldr	r3, [r3, #56]	; 0x38
 8000e94:	2220      	movs	r2, #32
 8000e96:	431a      	orrs	r2, r3
 8000e98:	687b      	ldr	r3, [r7, #4]
 8000e9a:	639a      	str	r2, [r3, #56]	; 0x38
        
        /* Set ADC error code to ADC IP internal error */
        SET_BIT(hadc->ErrorCode, HAL_ADC_ERROR_INTERNAL);
 8000e9c:	687b      	ldr	r3, [r7, #4]
 8000e9e:	6bdb      	ldr	r3, [r3, #60]	; 0x3c
 8000ea0:	2201      	movs	r2, #1
 8000ea2:	431a      	orrs	r2, r3
 8000ea4:	687b      	ldr	r3, [r7, #4]
 8000ea6:	63da      	str	r2, [r3, #60]	; 0x3c
    /* Enable external trigger if trigger selection is different of software  */
    /* start.                                                                 */
    /* Note: This configuration keeps the hardware feature of parameter       */
    /*       ExternalTrigConvEdge "trigger edge none" equivalent to           */
    /*       software start.                                                  */
    if (hadc->Init.ExternalTrigConv != ADC_SOFTWARE_START)
 8000ea8:	687b      	ldr	r3, [r7, #4]
 8000eaa:	69da      	ldr	r2, [r3, #28]
 8000eac:	23c2      	movs	r3, #194	; 0xc2
 8000eae:	33ff      	adds	r3, #255	; 0xff
 8000eb0:	429a      	cmp	r2, r3
 8000eb2:	d007      	beq.n	8000ec4 <HAL_ADC_Init+0x188>
    {
      tmpCFGR1 |= ( hadc->Init.ExternalTrigConv    |
 8000eb4:	687b      	ldr	r3, [r7, #4]
 8000eb6:	69da      	ldr	r2, [r3, #28]
                    hadc->Init.ExternalTrigConvEdge );
 8000eb8:	687b      	ldr	r3, [r7, #4]
 8000eba:	6a1b      	ldr	r3, [r3, #32]
      tmpCFGR1 |= ( hadc->Init.ExternalTrigConv    |
 8000ebc:	4313      	orrs	r3, r2
 8000ebe:	68ba      	ldr	r2, [r7, #8]
 8000ec0:	4313      	orrs	r3, r2
 8000ec2:	60bb      	str	r3, [r7, #8]
    }
    
    /* Update ADC configuration register with previous settings */
    hadc->Instance->CFGR1 |= tmpCFGR1;
 8000ec4:	687b      	ldr	r3, [r7, #4]
 8000ec6:	681b      	ldr	r3, [r3, #0]
 8000ec8:	68d9      	ldr	r1, [r3, #12]
 8000eca:	687b      	ldr	r3, [r7, #4]
 8000ecc:	681b      	ldr	r3, [r3, #0]
 8000ece:	68ba      	ldr	r2, [r7, #8]
 8000ed0:	430a      	orrs	r2, r1
 8000ed2:	60da      	str	r2, [r3, #12]
    /* Management of parameters "SamplingTimeCommon" and "SamplingTime"       */
    /* (obsolete): sampling time set in this function if parameter            */
    /*  "SamplingTimeCommon" has been set to a valid sampling time.           */
    /* Otherwise, sampling time is set into ADC channel initialization        */
    /* structure with parameter "SamplingTime" (obsolete).                    */
    if (IS_ADC_SAMPLE_TIME(hadc->Init.SamplingTimeCommon))
 8000ed4:	687b      	ldr	r3, [r7, #4]
 8000ed6:	6ada      	ldr	r2, [r3, #44]	; 0x2c
 8000ed8:	2380      	movs	r3, #128	; 0x80
 8000eda:	055b      	lsls	r3, r3, #21
 8000edc:	429a      	cmp	r2, r3
 8000ede:	d01b      	beq.n	8000f18 <HAL_ADC_Init+0x1dc>
 8000ee0:	687b      	ldr	r3, [r7, #4]
 8000ee2:	6adb      	ldr	r3, [r3, #44]	; 0x2c
 8000ee4:	2b01      	cmp	r3, #1
 8000ee6:	d017      	beq.n	8000f18 <HAL_ADC_Init+0x1dc>
 8000ee8:	687b      	ldr	r3, [r7, #4]
 8000eea:	6adb      	ldr	r3, [r3, #44]	; 0x2c
 8000eec:	2b02      	cmp	r3, #2
 8000eee:	d013      	beq.n	8000f18 <HAL_ADC_Init+0x1dc>
 8000ef0:	687b      	ldr	r3, [r7, #4]
 8000ef2:	6adb      	ldr	r3, [r3, #44]	; 0x2c
 8000ef4:	2b03      	cmp	r3, #3
 8000ef6:	d00f      	beq.n	8000f18 <HAL_ADC_Init+0x1dc>
 8000ef8:	687b      	ldr	r3, [r7, #4]
 8000efa:	6adb      	ldr	r3, [r3, #44]	; 0x2c
 8000efc:	2b04      	cmp	r3, #4
 8000efe:	d00b      	beq.n	8000f18 <HAL_ADC_Init+0x1dc>
 8000f00:	687b      	ldr	r3, [r7, #4]
 8000f02:	6adb      	ldr	r3, [r3, #44]	; 0x2c
 8000f04:	2b05      	cmp	r3, #5
 8000f06:	d007      	beq.n	8000f18 <HAL_ADC_Init+0x1dc>
 8000f08:	687b      	ldr	r3, [r7, #4]
 8000f0a:	6adb      	ldr	r3, [r3, #44]	; 0x2c
 8000f0c:	2b06      	cmp	r3, #6
 8000f0e:	d003      	beq.n	8000f18 <HAL_ADC_Init+0x1dc>
 8000f10:	687b      	ldr	r3, [r7, #4]
 8000f12:	6adb      	ldr	r3, [r3, #44]	; 0x2c
 8000f14:	2b07      	cmp	r3, #7
 8000f16:	d112      	bne.n	8000f3e <HAL_ADC_Init+0x202>
    {
      /* Channel sampling time configuration */
      /* Clear the old sample time */
      hadc->Instance->SMPR &= ~(ADC_SMPR_SMP);
 8000f18:	687b      	ldr	r3, [r7, #4]
 8000f1a:	681b      	ldr	r3, [r3, #0]
 8000f1c:	695a      	ldr	r2, [r3, #20]
 8000f1e:	687b      	ldr	r3, [r7, #4]
 8000f20:	681b      	ldr	r3, [r3, #0]
 8000f22:	2107      	movs	r1, #7
 8000f24:	438a      	bics	r2, r1
 8000f26:	615a      	str	r2, [r3, #20]
      
      /* Set the new sample time */
      hadc->Instance->SMPR |= ADC_SMPR_SET(hadc->Init.SamplingTimeCommon);
 8000f28:	687b      	ldr	r3, [r7, #4]
 8000f2a:	681b      	ldr	r3, [r3, #0]
 8000f2c:	6959      	ldr	r1, [r3, #20]
 8000f2e:	687b      	ldr	r3, [r7, #4]
 8000f30:	6adb      	ldr	r3, [r3, #44]	; 0x2c
 8000f32:	2207      	movs	r2, #7
 8000f34:	401a      	ands	r2, r3
 8000f36:	687b      	ldr	r3, [r7, #4]
 8000f38:	681b      	ldr	r3, [r3, #0]
 8000f3a:	430a      	orrs	r2, r1
 8000f3c:	615a      	str	r2, [r3, #20]
    /* Check back that ADC registers have effectively been configured to      */
    /* ensure of no potential problem of ADC core IP clocking.                */
    /* Check through register CFGR1 (excluding analog watchdog configuration: */
    /* set into separate dedicated function, and bits of ADC resolution set   */
    /* out of temporary variable 'tmpCFGR1').                                 */
    if ((hadc->Instance->CFGR1 & ~(ADC_CFGR1_AWDCH | ADC_CFGR1_AWDEN | ADC_CFGR1_AWDSGL | ADC_CFGR1_RES))
 8000f3e:	687b      	ldr	r3, [r7, #4]
 8000f40:	681b      	ldr	r3, [r3, #0]
 8000f42:	68db      	ldr	r3, [r3, #12]
 8000f44:	4a1c      	ldr	r2, [pc, #112]	; (8000fb8 <HAL_ADC_Init+0x27c>)
 8000f46:	4013      	ands	r3, r2
 8000f48:	68ba      	ldr	r2, [r7, #8]
 8000f4a:	429a      	cmp	r2, r3
 8000f4c:	d10b      	bne.n	8000f66 <HAL_ADC_Init+0x22a>
         == tmpCFGR1)
    {
      /* Set ADC error code to none */
      ADC_CLEAR_ERRORCODE(hadc);
 8000f4e:	687b      	ldr	r3, [r7, #4]
 8000f50:	2200      	movs	r2, #0
 8000f52:	63da      	str	r2, [r3, #60]	; 0x3c
      
      /* Set the ADC state */
      ADC_STATE_CLR_SET(hadc->State,
 8000f54:	687b      	ldr	r3, [r7, #4]
 8000f56:	6b9b      	ldr	r3, [r3, #56]	; 0x38
 8000f58:	2203      	movs	r2, #3
 8000f5a:	4393      	bics	r3, r2
 8000f5c:	2201      	movs	r2, #1
 8000f5e:	431a      	orrs	r2, r3
 8000f60:	687b      	ldr	r3, [r7, #4]
 8000f62:	639a      	str	r2, [r3, #56]	; 0x38
    if ((hadc->Instance->CFGR1 & ~(ADC_CFGR1_AWDCH | ADC_CFGR1_AWDEN | ADC_CFGR1_AWDSGL | ADC_CFGR1_RES))
 8000f64:	e01c      	b.n	8000fa0 <HAL_ADC_Init+0x264>
                        HAL_ADC_STATE_READY);
    }
    else
    {
      /* Update ADC state machine to error */
      ADC_STATE_CLR_SET(hadc->State,
 8000f66:	687b      	ldr	r3, [r7, #4]
 8000f68:	6b9b      	ldr	r3, [r3, #56]	; 0x38
 8000f6a:	2212      	movs	r2, #18
 8000f6c:	4393      	bics	r3, r2
 8000f6e:	2210      	movs	r2, #16
 8000f70:	431a      	orrs	r2, r3
 8000f72:	687b      	ldr	r3, [r7, #4]
 8000f74:	639a      	str	r2, [r3, #56]	; 0x38
                        HAL_ADC_STATE_BUSY_INTERNAL,
                        HAL_ADC_STATE_ERROR_INTERNAL);
      
      /* Set ADC error code to ADC IP internal error */
      SET_BIT(hadc->ErrorCode, HAL_ADC_ERROR_INTERNAL);
 8000f76:	687b      	ldr	r3, [r7, #4]
 8000f78:	6bdb      	ldr	r3, [r3, #60]	; 0x3c
 8000f7a:	2201      	movs	r2, #1
 8000f7c:	431a      	orrs	r2, r3
 8000f7e:	687b      	ldr	r3, [r7, #4]
 8000f80:	63da      	str	r2, [r3, #60]	; 0x3c
      
      tmp_hal_status = HAL_ERROR;
 8000f82:	230f      	movs	r3, #15
 8000f84:	18fb      	adds	r3, r7, r3
 8000f86:	2201      	movs	r2, #1
 8000f88:	701a      	strb	r2, [r3, #0]
    if ((hadc->Instance->CFGR1 & ~(ADC_CFGR1_AWDCH | ADC_CFGR1_AWDEN | ADC_CFGR1_AWDSGL | ADC_CFGR1_RES))
 8000f8a:	e009      	b.n	8000fa0 <HAL_ADC_Init+0x264>
  
  }
  else
  {
    /* Update ADC state machine to error */
    SET_BIT(hadc->State, HAL_ADC_STATE_ERROR_INTERNAL);
 8000f8c:	687b      	ldr	r3, [r7, #4]
 8000f8e:	6b9b      	ldr	r3, [r3, #56]	; 0x38
 8000f90:	2210      	movs	r2, #16
 8000f92:	431a      	orrs	r2, r3
 8000f94:	687b      	ldr	r3, [r7, #4]
 8000f96:	639a      	str	r2, [r3, #56]	; 0x38
        
    tmp_hal_status = HAL_ERROR;
 8000f98:	230f      	movs	r3, #15
 8000f9a:	18fb      	adds	r3, r7, r3
 8000f9c:	2201      	movs	r2, #1
 8000f9e:	701a      	strb	r2, [r3, #0]
  }
  
  /* Return function status */
  return tmp_hal_status;
 8000fa0:	230f      	movs	r3, #15
 8000fa2:	18fb      	adds	r3, r7, r3
 8000fa4:	781b      	ldrb	r3, [r3, #0]
}
 8000fa6:	0018      	movs	r0, r3
 8000fa8:	46bd      	mov	sp, r7
 8000faa:	b004      	add	sp, #16
 8000fac:	bd80      	pop	{r7, pc}
 8000fae:	46c0      	nop			; (mov r8, r8)
 8000fb0:	fffffefd 	.word	0xfffffefd
 8000fb4:	fffe0219 	.word	0xfffe0219
 8000fb8:	833fffe7 	.word	0x833fffe7

08000fbc <HAL_ADC_Start>:
  *         Interruptions enabled in this function: None.
  * @param  hadc ADC handle
  * @retval HAL status
  */
HAL_StatusTypeDef HAL_ADC_Start(ADC_HandleTypeDef* hadc)
{
 8000fbc:	b590      	push	{r4, r7, lr}
 8000fbe:	b085      	sub	sp, #20
 8000fc0:	af00      	add	r7, sp, #0
 8000fc2:	6078      	str	r0, [r7, #4]
  HAL_StatusTypeDef tmp_hal_status = HAL_OK;
 8000fc4:	230f      	movs	r3, #15
 8000fc6:	18fb      	adds	r3, r7, r3
 8000fc8:	2200      	movs	r2, #0
 8000fca:	701a      	strb	r2, [r3, #0]

  /* Check the parameters */
  assert_param(IS_ADC_ALL_INSTANCE(hadc->Instance));

  /* Perform ADC enable and conversion start if no conversion is on going */
  if (ADC_IS_CONVERSION_ONGOING_REGULAR(hadc) == RESET)
 8000fcc:	687b      	ldr	r3, [r7, #4]
 8000fce:	681b      	ldr	r3, [r3, #0]
 8000fd0:	689b      	ldr	r3, [r3, #8]
 8000fd2:	2204      	movs	r2, #4
 8000fd4:	4013      	ands	r3, r2
 8000fd6:	d138      	bne.n	800104a <HAL_ADC_Start+0x8e>
  {
    /* Process locked */
    __HAL_LOCK(hadc);
 8000fd8:	687b      	ldr	r3, [r7, #4]
 8000fda:	2234      	movs	r2, #52	; 0x34
 8000fdc:	5c9b      	ldrb	r3, [r3, r2]
 8000fde:	2b01      	cmp	r3, #1
 8000fe0:	d101      	bne.n	8000fe6 <HAL_ADC_Start+0x2a>
 8000fe2:	2302      	movs	r3, #2
 8000fe4:	e038      	b.n	8001058 <HAL_ADC_Start+0x9c>
 8000fe6:	687b      	ldr	r3, [r7, #4]
 8000fe8:	2234      	movs	r2, #52	; 0x34
 8000fea:	2101      	movs	r1, #1
 8000fec:	5499      	strb	r1, [r3, r2]
      
    /* Enable the ADC peripheral */
    /* If low power mode AutoPowerOff is enabled, power-on/off phases are     */
    /* performed automatically by hardware.                                   */
    if (hadc->Init.LowPowerAutoPowerOff != ENABLE)
 8000fee:	687b      	ldr	r3, [r7, #4]
 8000ff0:	7e5b      	ldrb	r3, [r3, #25]
 8000ff2:	2b01      	cmp	r3, #1
 8000ff4:	d007      	beq.n	8001006 <HAL_ADC_Start+0x4a>
    {
      tmp_hal_status = ADC_Enable(hadc);
 8000ff6:	230f      	movs	r3, #15
 8000ff8:	18fc      	adds	r4, r7, r3
 8000ffa:	687b      	ldr	r3, [r7, #4]
 8000ffc:	0018      	movs	r0, r3
 8000ffe:	f000 faf3 	bl	80015e8 <ADC_Enable>
 8001002:	0003      	movs	r3, r0
 8001004:	7023      	strb	r3, [r4, #0]
    }
    
    /* Start conversion if ADC is effectively enabled */
    if (tmp_hal_status == HAL_OK)
 8001006:	230f      	movs	r3, #15
 8001008:	18fb      	adds	r3, r7, r3
 800100a:	781b      	ldrb	r3, [r3, #0]
 800100c:	2b00      	cmp	r3, #0
 800100e:	d120      	bne.n	8001052 <HAL_ADC_Start+0x96>
    {
      /* Set ADC state                                                        */
      /* - Clear state bitfield related to regular group conversion results   */
      /* - Set state bitfield related to regular operation                    */
      ADC_STATE_CLR_SET(hadc->State,
 8001010:	687b      	ldr	r3, [r7, #4]
 8001012:	6b9b      	ldr	r3, [r3, #56]	; 0x38
 8001014:	4a12      	ldr	r2, [pc, #72]	; (8001060 <HAL_ADC_Start+0xa4>)
 8001016:	4013      	ands	r3, r2
 8001018:	2280      	movs	r2, #128	; 0x80
 800101a:	0052      	lsls	r2, r2, #1
 800101c:	431a      	orrs	r2, r3
 800101e:	687b      	ldr	r3, [r7, #4]
 8001020:	639a      	str	r2, [r3, #56]	; 0x38
                        HAL_ADC_STATE_READY | HAL_ADC_STATE_REG_EOC | HAL_ADC_STATE_REG_OVR | HAL_ADC_STATE_REG_EOSMP,
                        HAL_ADC_STATE_REG_BUSY);
      
      /* Reset ADC all error code fields */
      ADC_CLEAR_ERRORCODE(hadc);
 8001022:	687b      	ldr	r3, [r7, #4]
 8001024:	2200      	movs	r2, #0
 8001026:	63da      	str	r2, [r3, #60]	; 0x3c
      
      /* Process unlocked */
      /* Unlock before starting ADC conversions: in case of potential         */
      /* interruption, to let the process to ADC IRQ Handler.                 */
      __HAL_UNLOCK(hadc);
 8001028:	687b      	ldr	r3, [r7, #4]
 800102a:	2234      	movs	r2, #52	; 0x34
 800102c:	2100      	movs	r1, #0
 800102e:	5499      	strb	r1, [r3, r2]
      
      /* Clear regular group conversion flag and overrun flag */
      /* (To ensure of no unknown state from potential previous ADC           */
      /* operations)                                                          */
      __HAL_ADC_CLEAR_FLAG(hadc, (ADC_FLAG_EOC | ADC_FLAG_EOS | ADC_FLAG_OVR));
 8001030:	687b      	ldr	r3, [r7, #4]
 8001032:	681b      	ldr	r3, [r3, #0]
 8001034:	221c      	movs	r2, #28
 8001036:	601a      	str	r2, [r3, #0]
      
      /* Enable conversion of regular group.                                  */
      /* If software start has been selected, conversion starts immediately.  */
      /* If external trigger has been selected, conversion will start at next */
      /* trigger event.                                                       */
      hadc->Instance->CR |= ADC_CR_ADSTART;
 8001038:	687b      	ldr	r3, [r7, #4]
 800103a:	681b      	ldr	r3, [r3, #0]
 800103c:	689a      	ldr	r2, [r3, #8]
 800103e:	687b      	ldr	r3, [r7, #4]
 8001040:	681b      	ldr	r3, [r3, #0]
 8001042:	2104      	movs	r1, #4
 8001044:	430a      	orrs	r2, r1
 8001046:	609a      	str	r2, [r3, #8]
 8001048:	e003      	b.n	8001052 <HAL_ADC_Start+0x96>
    }
  }
  else
  {
    tmp_hal_status = HAL_BUSY;
 800104a:	230f      	movs	r3, #15
 800104c:	18fb      	adds	r3, r7, r3
 800104e:	2202      	movs	r2, #2
 8001050:	701a      	strb	r2, [r3, #0]
  }
  
  /* Return function status */
  return tmp_hal_status;
 8001052:	230f      	movs	r3, #15
 8001054:	18fb      	adds	r3, r7, r3
 8001056:	781b      	ldrb	r3, [r3, #0]
}
 8001058:	0018      	movs	r0, r3
 800105a:	46bd      	mov	sp, r7
 800105c:	b005      	add	sp, #20
 800105e:	bd90      	pop	{r4, r7, pc}
 8001060:	fffff0fe 	.word	0xfffff0fe

08001064 <HAL_ADC_Stop>:
  * @brief  Stop ADC conversion of regular group, disable ADC peripheral.
  * @param  hadc ADC handle
  * @retval HAL status.
  */
HAL_StatusTypeDef HAL_ADC_Stop(ADC_HandleTypeDef* hadc)
{ 
 8001064:	b5b0      	push	{r4, r5, r7, lr}
 8001066:	b084      	sub	sp, #16
 8001068:	af00      	add	r7, sp, #0
 800106a:	6078      	str	r0, [r7, #4]
  HAL_StatusTypeDef tmp_hal_status = HAL_OK;
 800106c:	230f      	movs	r3, #15
 800106e:	18fb      	adds	r3, r7, r3
 8001070:	2200      	movs	r2, #0
 8001072:	701a      	strb	r2, [r3, #0]
  
  /* Check the parameters */
  assert_param(IS_ADC_ALL_INSTANCE(hadc->Instance));
  
  /* Process locked */
  __HAL_LOCK(hadc);
 8001074:	687b      	ldr	r3, [r7, #4]
 8001076:	2234      	movs	r2, #52	; 0x34
 8001078:	5c9b      	ldrb	r3, [r3, r2]
 800107a:	2b01      	cmp	r3, #1
 800107c:	d101      	bne.n	8001082 <HAL_ADC_Stop+0x1e>
 800107e:	2302      	movs	r3, #2
 8001080:	e029      	b.n	80010d6 <HAL_ADC_Stop+0x72>
 8001082:	687b      	ldr	r3, [r7, #4]
 8001084:	2234      	movs	r2, #52	; 0x34
 8001086:	2101      	movs	r1, #1
 8001088:	5499      	strb	r1, [r3, r2]
  
  /* 1. Stop potential conversion on going, on regular group */
  tmp_hal_status = ADC_ConversionStop(hadc);
 800108a:	250f      	movs	r5, #15
 800108c:	197c      	adds	r4, r7, r5
 800108e:	687b      	ldr	r3, [r7, #4]
 8001090:	0018      	movs	r0, r3
 8001092:	f000 fb9e 	bl	80017d2 <ADC_ConversionStop>
 8001096:	0003      	movs	r3, r0
 8001098:	7023      	strb	r3, [r4, #0]
  
  /* Disable ADC peripheral if conversions are effectively stopped */
  if (tmp_hal_status == HAL_OK)
 800109a:	197b      	adds	r3, r7, r5
 800109c:	781b      	ldrb	r3, [r3, #0]
 800109e:	2b00      	cmp	r3, #0
 80010a0:	d112      	bne.n	80010c8 <HAL_ADC_Stop+0x64>
  {
    /* 2. Disable the ADC peripheral */
    tmp_hal_status = ADC_Disable(hadc);
 80010a2:	197c      	adds	r4, r7, r5
 80010a4:	687b      	ldr	r3, [r7, #4]
 80010a6:	0018      	movs	r0, r3
 80010a8:	f000 fb22 	bl	80016f0 <ADC_Disable>
 80010ac:	0003      	movs	r3, r0
 80010ae:	7023      	strb	r3, [r4, #0]
    
    /* Check if ADC is effectively disabled */
    if (tmp_hal_status == HAL_OK)
 80010b0:	197b      	adds	r3, r7, r5
 80010b2:	781b      	ldrb	r3, [r3, #0]
 80010b4:	2b00      	cmp	r3, #0
 80010b6:	d107      	bne.n	80010c8 <HAL_ADC_Stop+0x64>
    {
      /* Set ADC state */
      ADC_STATE_CLR_SET(hadc->State,
 80010b8:	687b      	ldr	r3, [r7, #4]
 80010ba:	6b9b      	ldr	r3, [r3, #56]	; 0x38
 80010bc:	4a08      	ldr	r2, [pc, #32]	; (80010e0 <HAL_ADC_Stop+0x7c>)
 80010be:	4013      	ands	r3, r2
 80010c0:	2201      	movs	r2, #1
 80010c2:	431a      	orrs	r2, r3
 80010c4:	687b      	ldr	r3, [r7, #4]
 80010c6:	639a      	str	r2, [r3, #56]	; 0x38
                        HAL_ADC_STATE_READY);
    }
  }

  /* Process unlocked */
  __HAL_UNLOCK(hadc);
 80010c8:	687b      	ldr	r3, [r7, #4]
 80010ca:	2234      	movs	r2, #52	; 0x34
 80010cc:	2100      	movs	r1, #0
 80010ce:	5499      	strb	r1, [r3, r2]
  
  /* Return function status */
  return tmp_hal_status;
 80010d0:	230f      	movs	r3, #15
 80010d2:	18fb      	adds	r3, r7, r3
 80010d4:	781b      	ldrb	r3, [r3, #0]
}
 80010d6:	0018      	movs	r0, r3
 80010d8:	46bd      	mov	sp, r7
 80010da:	b004      	add	sp, #16
 80010dc:	bdb0      	pop	{r4, r5, r7, pc}
 80010de:	46c0      	nop			; (mov r8, r8)
 80010e0:	fffffefe 	.word	0xfffffefe

080010e4 <HAL_ADC_PollForConversion>:
  * @param  hadc ADC handle
  * @param  Timeout Timeout value in millisecond.
  * @retval HAL status
  */
HAL_StatusTypeDef HAL_ADC_PollForConversion(ADC_HandleTypeDef* hadc, uint32_t Timeout)
{
 80010e4:	b580      	push	{r7, lr}
 80010e6:	b084      	sub	sp, #16
 80010e8:	af00      	add	r7, sp, #0
 80010ea:	6078      	str	r0, [r7, #4]
 80010ec:	6039      	str	r1, [r7, #0]
 
  /* Check the parameters */
  assert_param(IS_ADC_ALL_INSTANCE(hadc->Instance));

  /* If end of conversion selected to end of sequence */
  if (hadc->Init.EOCSelection == ADC_EOC_SEQ_CONV)
 80010ee:	687b      	ldr	r3, [r7, #4]
 80010f0:	695b      	ldr	r3, [r3, #20]
 80010f2:	2b08      	cmp	r3, #8
 80010f4:	d102      	bne.n	80010fc <HAL_ADC_PollForConversion+0x18>
  {
    tmp_Flag_EOC = ADC_FLAG_EOS;
 80010f6:	2308      	movs	r3, #8
 80010f8:	60fb      	str	r3, [r7, #12]
 80010fa:	e014      	b.n	8001126 <HAL_ADC_PollForConversion+0x42>
    /* each conversion:                                                       */
    /* Particular case is ADC configured in DMA mode and ADC sequencer with   */
    /* several ranks and polling for end of each conversion.                  */
    /* For code simplicity sake, this particular case is generalized to       */
    /* ADC configured in DMA mode and and polling for end of each conversion. */
    if (HAL_IS_BIT_SET(hadc->Instance->CFGR1, ADC_CFGR1_DMAEN))
 80010fc:	687b      	ldr	r3, [r7, #4]
 80010fe:	681b      	ldr	r3, [r3, #0]
 8001100:	68db      	ldr	r3, [r3, #12]
 8001102:	2201      	movs	r2, #1
 8001104:	4013      	ands	r3, r2
 8001106:	2b01      	cmp	r3, #1
 8001108:	d10b      	bne.n	8001122 <HAL_ADC_PollForConversion+0x3e>
    {
      /* Update ADC state machine to error */
      SET_BIT(hadc->State, HAL_ADC_STATE_ERROR_CONFIG);
 800110a:	687b      	ldr	r3, [r7, #4]
 800110c:	6b9b      	ldr	r3, [r3, #56]	; 0x38
 800110e:	2220      	movs	r2, #32
 8001110:	431a      	orrs	r2, r3
 8001112:	687b      	ldr	r3, [r7, #4]
 8001114:	639a      	str	r2, [r3, #56]	; 0x38
      
      /* Process unlocked */
      __HAL_UNLOCK(hadc);
 8001116:	687b      	ldr	r3, [r7, #4]
 8001118:	2234      	movs	r2, #52	; 0x34
 800111a:	2100      	movs	r1, #0
 800111c:	5499      	strb	r1, [r3, r2]
      
      return HAL_ERROR;
 800111e:	2301      	movs	r3, #1
 8001120:	e071      	b.n	8001206 <HAL_ADC_PollForConversion+0x122>
    }
    else
    {
      tmp_Flag_EOC = (ADC_FLAG_EOC | ADC_FLAG_EOS);
 8001122:	230c      	movs	r3, #12
 8001124:	60fb      	str	r3, [r7, #12]
    }
  }
  
  /* Get tick count */
  tickstart = HAL_GetTick();
 8001126:	f7ff fddb 	bl	8000ce0 <HAL_GetTick>
 800112a:	0003      	movs	r3, r0
 800112c:	60bb      	str	r3, [r7, #8]
  
  /* Wait until End of Conversion flag is raised */
  while(HAL_IS_BIT_CLR(hadc->Instance->ISR, tmp_Flag_EOC))
 800112e:	e01f      	b.n	8001170 <HAL_ADC_PollForConversion+0x8c>
  {
    /* Check if timeout is disabled (set to infinite wait) */
    if(Timeout != HAL_MAX_DELAY)
 8001130:	683b      	ldr	r3, [r7, #0]
 8001132:	3301      	adds	r3, #1
 8001134:	d01c      	beq.n	8001170 <HAL_ADC_PollForConversion+0x8c>
    {
      if((Timeout == 0) || ((HAL_GetTick()-tickstart) > Timeout))
 8001136:	683b      	ldr	r3, [r7, #0]
 8001138:	2b00      	cmp	r3, #0
 800113a:	d007      	beq.n	800114c <HAL_ADC_PollForConversion+0x68>
 800113c:	f7ff fdd0 	bl	8000ce0 <HAL_GetTick>
 8001140:	0002      	movs	r2, r0
 8001142:	68bb      	ldr	r3, [r7, #8]
 8001144:	1ad3      	subs	r3, r2, r3
 8001146:	683a      	ldr	r2, [r7, #0]
 8001148:	429a      	cmp	r2, r3
 800114a:	d211      	bcs.n	8001170 <HAL_ADC_PollForConversion+0x8c>
      {
        /* New check to avoid false timeout detection in case of preemption */
        if(HAL_IS_BIT_CLR(hadc->Instance->ISR, tmp_Flag_EOC))
 800114c:	687b      	ldr	r3, [r7, #4]
 800114e:	681b      	ldr	r3, [r3, #0]
 8001150:	681b      	ldr	r3, [r3, #0]
 8001152:	68fa      	ldr	r2, [r7, #12]
 8001154:	4013      	ands	r3, r2
 8001156:	d10b      	bne.n	8001170 <HAL_ADC_PollForConversion+0x8c>
        {
          /* Update ADC state machine to timeout */
          SET_BIT(hadc->State, HAL_ADC_STATE_TIMEOUT);
 8001158:	687b      	ldr	r3, [r7, #4]
 800115a:	6b9b      	ldr	r3, [r3, #56]	; 0x38
 800115c:	2204      	movs	r2, #4
 800115e:	431a      	orrs	r2, r3
 8001160:	687b      	ldr	r3, [r7, #4]
 8001162:	639a      	str	r2, [r3, #56]	; 0x38

          /* Process unlocked */
          __HAL_UNLOCK(hadc);
 8001164:	687b      	ldr	r3, [r7, #4]
 8001166:	2234      	movs	r2, #52	; 0x34
 8001168:	2100      	movs	r1, #0
 800116a:	5499      	strb	r1, [r3, r2]

          return HAL_TIMEOUT;
 800116c:	2303      	movs	r3, #3
 800116e:	e04a      	b.n	8001206 <HAL_ADC_PollForConversion+0x122>
  while(HAL_IS_BIT_CLR(hadc->Instance->ISR, tmp_Flag_EOC))
 8001170:	687b      	ldr	r3, [r7, #4]
 8001172:	681b      	ldr	r3, [r3, #0]
 8001174:	681b      	ldr	r3, [r3, #0]
 8001176:	68fa      	ldr	r2, [r7, #12]
 8001178:	4013      	ands	r3, r2
 800117a:	d0d9      	beq.n	8001130 <HAL_ADC_PollForConversion+0x4c>
      }
    }
  }
    
  /* Update ADC state machine */
  SET_BIT(hadc->State, HAL_ADC_STATE_REG_EOC);
 800117c:	687b      	ldr	r3, [r7, #4]
 800117e:	6b9b      	ldr	r3, [r3, #56]	; 0x38
 8001180:	2280      	movs	r2, #128	; 0x80
 8001182:	0092      	lsls	r2, r2, #2
 8001184:	431a      	orrs	r2, r3
 8001186:	687b      	ldr	r3, [r7, #4]
 8001188:	639a      	str	r2, [r3, #56]	; 0x38
  
  /* Determine whether any further conversion upcoming on group regular       */
  /* by external trigger, continuous mode or scan sequence on going.          */
  if(ADC_IS_SOFTWARE_START_REGULAR(hadc)        && 
 800118a:	687b      	ldr	r3, [r7, #4]
 800118c:	681b      	ldr	r3, [r3, #0]
 800118e:	68da      	ldr	r2, [r3, #12]
 8001190:	23c0      	movs	r3, #192	; 0xc0
 8001192:	011b      	lsls	r3, r3, #4
 8001194:	4013      	ands	r3, r2
 8001196:	d12d      	bne.n	80011f4 <HAL_ADC_PollForConversion+0x110>
     (hadc->Init.ContinuousConvMode == DISABLE)   )
 8001198:	687b      	ldr	r3, [r7, #4]
 800119a:	7e9b      	ldrb	r3, [r3, #26]
  if(ADC_IS_SOFTWARE_START_REGULAR(hadc)        && 
 800119c:	2b00      	cmp	r3, #0
 800119e:	d129      	bne.n	80011f4 <HAL_ADC_PollForConversion+0x110>
  {
    /* If End of Sequence is reached, disable interrupts */
    if( __HAL_ADC_GET_FLAG(hadc, ADC_FLAG_EOS) )
 80011a0:	687b      	ldr	r3, [r7, #4]
 80011a2:	681b      	ldr	r3, [r3, #0]
 80011a4:	681b      	ldr	r3, [r3, #0]
 80011a6:	2208      	movs	r2, #8
 80011a8:	4013      	ands	r3, r2
 80011aa:	2b08      	cmp	r3, #8
 80011ac:	d122      	bne.n	80011f4 <HAL_ADC_PollForConversion+0x110>
    {
      /* Allowed to modify bits ADC_IT_EOC/ADC_IT_EOS only if bit             */
      /* ADSTART==0 (no conversion on going)                                  */
      if (ADC_IS_CONVERSION_ONGOING_REGULAR(hadc) == RESET)
 80011ae:	687b      	ldr	r3, [r7, #4]
 80011b0:	681b      	ldr	r3, [r3, #0]
 80011b2:	689b      	ldr	r3, [r3, #8]
 80011b4:	2204      	movs	r2, #4
 80011b6:	4013      	ands	r3, r2
 80011b8:	d110      	bne.n	80011dc <HAL_ADC_PollForConversion+0xf8>
      {
        /* Disable ADC end of single conversion interrupt on group regular */
        /* Note: Overrun interrupt was enabled with EOC interrupt in          */
        /* HAL_Start_IT(), but is not disabled here because can be used       */
        /* by overrun IRQ process below.                                      */
        __HAL_ADC_DISABLE_IT(hadc, ADC_IT_EOC | ADC_IT_EOS);
 80011ba:	687b      	ldr	r3, [r7, #4]
 80011bc:	681b      	ldr	r3, [r3, #0]
 80011be:	685a      	ldr	r2, [r3, #4]
 80011c0:	687b      	ldr	r3, [r7, #4]
 80011c2:	681b      	ldr	r3, [r3, #0]
 80011c4:	210c      	movs	r1, #12
 80011c6:	438a      	bics	r2, r1
 80011c8:	605a      	str	r2, [r3, #4]
        
        /* Set ADC state */
        ADC_STATE_CLR_SET(hadc->State,
 80011ca:	687b      	ldr	r3, [r7, #4]
 80011cc:	6b9b      	ldr	r3, [r3, #56]	; 0x38
 80011ce:	4a10      	ldr	r2, [pc, #64]	; (8001210 <HAL_ADC_PollForConversion+0x12c>)
 80011d0:	4013      	ands	r3, r2
 80011d2:	2201      	movs	r2, #1
 80011d4:	431a      	orrs	r2, r3
 80011d6:	687b      	ldr	r3, [r7, #4]
 80011d8:	639a      	str	r2, [r3, #56]	; 0x38
 80011da:	e00b      	b.n	80011f4 <HAL_ADC_PollForConversion+0x110>
                          HAL_ADC_STATE_READY);
      }
      else
      {
        /* Change ADC state to error state */
        SET_BIT(hadc->State, HAL_ADC_STATE_ERROR_CONFIG);
 80011dc:	687b      	ldr	r3, [r7, #4]
 80011de:	6b9b      	ldr	r3, [r3, #56]	; 0x38
 80011e0:	2220      	movs	r2, #32
 80011e2:	431a      	orrs	r2, r3
 80011e4:	687b      	ldr	r3, [r7, #4]
 80011e6:	639a      	str	r2, [r3, #56]	; 0x38
        
        /* Set ADC error code to ADC IP internal error */
        SET_BIT(hadc->ErrorCode, HAL_ADC_ERROR_INTERNAL);
 80011e8:	687b      	ldr	r3, [r7, #4]
 80011ea:	6bdb      	ldr	r3, [r3, #60]	; 0x3c
 80011ec:	2201      	movs	r2, #1
 80011ee:	431a      	orrs	r2, r3
 80011f0:	687b      	ldr	r3, [r7, #4]
 80011f2:	63da      	str	r2, [r3, #60]	; 0x3c
  }
  
  /* Clear end of conversion flag of regular group if low power feature       */
  /* "LowPowerAutoWait " is disabled, to not interfere with this feature      */
  /* until data register is read using function HAL_ADC_GetValue().           */
  if (hadc->Init.LowPowerAutoWait == DISABLE)
 80011f4:	687b      	ldr	r3, [r7, #4]
 80011f6:	7e1b      	ldrb	r3, [r3, #24]
 80011f8:	2b00      	cmp	r3, #0
 80011fa:	d103      	bne.n	8001204 <HAL_ADC_PollForConversion+0x120>
  {
    /* Clear regular group conversion flag */
    __HAL_ADC_CLEAR_FLAG(hadc, (ADC_FLAG_EOC | ADC_FLAG_EOS));
 80011fc:	687b      	ldr	r3, [r7, #4]
 80011fe:	681b      	ldr	r3, [r3, #0]
 8001200:	220c      	movs	r2, #12
 8001202:	601a      	str	r2, [r3, #0]
  }
  
  /* Return ADC state */
  return HAL_OK;
 8001204:	2300      	movs	r3, #0
}
 8001206:	0018      	movs	r0, r3
 8001208:	46bd      	mov	sp, r7
 800120a:	b004      	add	sp, #16
 800120c:	bd80      	pop	{r7, pc}
 800120e:	46c0      	nop			; (mov r8, r8)
 8001210:	fffffefe 	.word	0xfffffefe

08001214 <HAL_ADC_GetValue>:
  *         or @ref __HAL_ADC_CLEAR_FLAG(&hadc, ADC_FLAG_EOS).
  * @param  hadc ADC handle
  * @retval ADC group regular conversion data
  */
uint32_t HAL_ADC_GetValue(ADC_HandleTypeDef* hadc)
{
 8001214:	b580      	push	{r7, lr}
 8001216:	b082      	sub	sp, #8
 8001218:	af00      	add	r7, sp, #0
 800121a:	6078      	str	r0, [r7, #4]

  /* Note: EOC flag is not cleared here by software because automatically     */
  /*       cleared by hardware when reading register DR.                      */
  
  /* Return ADC converted value */ 
  return hadc->Instance->DR;
 800121c:	687b      	ldr	r3, [r7, #4]
 800121e:	681b      	ldr	r3, [r3, #0]
 8001220:	6c1b      	ldr	r3, [r3, #64]	; 0x40
}
 8001222:	0018      	movs	r0, r3
 8001224:	46bd      	mov	sp, r7
 8001226:	b002      	add	sp, #8
 8001228:	bd80      	pop	{r7, pc}
	...

0800122c <HAL_ADC_IRQHandler>:
  * @brief  Handles ADC interrupt request.  
  * @param  hadc ADC handle
  * @retval None
  */
void HAL_ADC_IRQHandler(ADC_HandleTypeDef* hadc)
{
 800122c:	b580      	push	{r7, lr}
 800122e:	b082      	sub	sp, #8
 8001230:	af00      	add	r7, sp, #0
 8001232:	6078      	str	r0, [r7, #4]
  assert_param(IS_ADC_ALL_INSTANCE(hadc->Instance));
  assert_param(IS_FUNCTIONAL_STATE(hadc->Init.ContinuousConvMode));
  assert_param(IS_ADC_EOC_SELECTION(hadc->Init.EOCSelection));
  
  /* ========== Check End of Conversion flag for regular group ========== */
  if( (__HAL_ADC_GET_FLAG(hadc, ADC_FLAG_EOC) && __HAL_ADC_GET_IT_SOURCE(hadc, ADC_IT_EOC)) || 
 8001234:	687b      	ldr	r3, [r7, #4]
 8001236:	681b      	ldr	r3, [r3, #0]
 8001238:	681b      	ldr	r3, [r3, #0]
 800123a:	2204      	movs	r2, #4
 800123c:	4013      	ands	r3, r2
 800123e:	2b04      	cmp	r3, #4
 8001240:	d106      	bne.n	8001250 <HAL_ADC_IRQHandler+0x24>
 8001242:	687b      	ldr	r3, [r7, #4]
 8001244:	681b      	ldr	r3, [r3, #0]
 8001246:	685b      	ldr	r3, [r3, #4]
 8001248:	2204      	movs	r2, #4
 800124a:	4013      	ands	r3, r2
 800124c:	2b04      	cmp	r3, #4
 800124e:	d00d      	beq.n	800126c <HAL_ADC_IRQHandler+0x40>
      (__HAL_ADC_GET_FLAG(hadc, ADC_FLAG_EOS) && __HAL_ADC_GET_IT_SOURCE(hadc, ADC_IT_EOS))   )
 8001250:	687b      	ldr	r3, [r7, #4]
 8001252:	681b      	ldr	r3, [r3, #0]
 8001254:	681b      	ldr	r3, [r3, #0]
 8001256:	2208      	movs	r2, #8
 8001258:	4013      	ands	r3, r2
  if( (__HAL_ADC_GET_FLAG(hadc, ADC_FLAG_EOC) && __HAL_ADC_GET_IT_SOURCE(hadc, ADC_IT_EOC)) || 
 800125a:	2b08      	cmp	r3, #8
 800125c:	d14f      	bne.n	80012fe <HAL_ADC_IRQHandler+0xd2>
      (__HAL_ADC_GET_FLAG(hadc, ADC_FLAG_EOS) && __HAL_ADC_GET_IT_SOURCE(hadc, ADC_IT_EOS))   )
 800125e:	687b      	ldr	r3, [r7, #4]
 8001260:	681b      	ldr	r3, [r3, #0]
 8001262:	685b      	ldr	r3, [r3, #4]
 8001264:	2208      	movs	r2, #8
 8001266:	4013      	ands	r3, r2
 8001268:	2b08      	cmp	r3, #8
 800126a:	d148      	bne.n	80012fe <HAL_ADC_IRQHandler+0xd2>
  {
    /* Update state machine on conversion status if not in error state */
    if (HAL_IS_BIT_CLR(hadc->State, HAL_ADC_STATE_ERROR_INTERNAL))
 800126c:	687b      	ldr	r3, [r7, #4]
 800126e:	6b9b      	ldr	r3, [r3, #56]	; 0x38
 8001270:	2210      	movs	r2, #16
 8001272:	4013      	ands	r3, r2
 8001274:	d106      	bne.n	8001284 <HAL_ADC_IRQHandler+0x58>
    {
      /* Set ADC state */
      SET_BIT(hadc->State, HAL_ADC_STATE_REG_EOC); 
 8001276:	687b      	ldr	r3, [r7, #4]
 8001278:	6b9b      	ldr	r3, [r3, #56]	; 0x38
 800127a:	2280      	movs	r2, #128	; 0x80
 800127c:	0092      	lsls	r2, r2, #2
 800127e:	431a      	orrs	r2, r3
 8001280:	687b      	ldr	r3, [r7, #4]
 8001282:	639a      	str	r2, [r3, #56]	; 0x38
    }
    
    /* Determine whether any further conversion upcoming on group regular     */
    /* by external trigger, continuous mode or scan sequence on going.        */
    if(ADC_IS_SOFTWARE_START_REGULAR(hadc)        && 
 8001284:	687b      	ldr	r3, [r7, #4]
 8001286:	681b      	ldr	r3, [r3, #0]
 8001288:	68da      	ldr	r2, [r3, #12]
 800128a:	23c0      	movs	r3, #192	; 0xc0
 800128c:	011b      	lsls	r3, r3, #4
 800128e:	4013      	ands	r3, r2
 8001290:	d12d      	bne.n	80012ee <HAL_ADC_IRQHandler+0xc2>
       (hadc->Init.ContinuousConvMode == DISABLE)   )
 8001292:	687b      	ldr	r3, [r7, #4]
 8001294:	7e9b      	ldrb	r3, [r3, #26]
    if(ADC_IS_SOFTWARE_START_REGULAR(hadc)        && 
 8001296:	2b00      	cmp	r3, #0
 8001298:	d129      	bne.n	80012ee <HAL_ADC_IRQHandler+0xc2>
    {
      /* If End of Sequence is reached, disable interrupts */
      if( __HAL_ADC_GET_FLAG(hadc, ADC_FLAG_EOS) )
 800129a:	687b      	ldr	r3, [r7, #4]
 800129c:	681b      	ldr	r3, [r3, #0]
 800129e:	681b      	ldr	r3, [r3, #0]
 80012a0:	2208      	movs	r2, #8
 80012a2:	4013      	ands	r3, r2
 80012a4:	2b08      	cmp	r3, #8
 80012a6:	d122      	bne.n	80012ee <HAL_ADC_IRQHandler+0xc2>
      {
        /* Allowed to modify bits ADC_IT_EOC/ADC_IT_EOS only if bit           */
        /* ADSTART==0 (no conversion on going)                                */
        if (ADC_IS_CONVERSION_ONGOING_REGULAR(hadc) == RESET)
 80012a8:	687b      	ldr	r3, [r7, #4]
 80012aa:	681b      	ldr	r3, [r3, #0]
 80012ac:	689b      	ldr	r3, [r3, #8]
 80012ae:	2204      	movs	r2, #4
 80012b0:	4013      	ands	r3, r2
 80012b2:	d110      	bne.n	80012d6 <HAL_ADC_IRQHandler+0xaa>
        {
          /* Disable ADC end of single conversion interrupt on group regular */
          /* Note: Overrun interrupt was enabled with EOC interrupt in        */
          /* HAL_Start_IT(), but is not disabled here because can be used     */
          /* by overrun IRQ process below.                                    */
          __HAL_ADC_DISABLE_IT(hadc, ADC_IT_EOC | ADC_IT_EOS);
 80012b4:	687b      	ldr	r3, [r7, #4]
 80012b6:	681b      	ldr	r3, [r3, #0]
 80012b8:	685a      	ldr	r2, [r3, #4]
 80012ba:	687b      	ldr	r3, [r7, #4]
 80012bc:	681b      	ldr	r3, [r3, #0]
 80012be:	210c      	movs	r1, #12
 80012c0:	438a      	bics	r2, r1
 80012c2:	605a      	str	r2, [r3, #4]
          
          /* Set ADC state */
          ADC_STATE_CLR_SET(hadc->State,
 80012c4:	687b      	ldr	r3, [r7, #4]
 80012c6:	6b9b      	ldr	r3, [r3, #56]	; 0x38
 80012c8:	4a33      	ldr	r2, [pc, #204]	; (8001398 <HAL_ADC_IRQHandler+0x16c>)
 80012ca:	4013      	ands	r3, r2
 80012cc:	2201      	movs	r2, #1
 80012ce:	431a      	orrs	r2, r3
 80012d0:	687b      	ldr	r3, [r7, #4]
 80012d2:	639a      	str	r2, [r3, #56]	; 0x38
 80012d4:	e00b      	b.n	80012ee <HAL_ADC_IRQHandler+0xc2>
                            HAL_ADC_STATE_READY);
        }
        else
        {
          /* Change ADC state to error state */
          SET_BIT(hadc->State, HAL_ADC_STATE_ERROR_CONFIG);
 80012d6:	687b      	ldr	r3, [r7, #4]
 80012d8:	6b9b      	ldr	r3, [r3, #56]	; 0x38
 80012da:	2220      	movs	r2, #32
 80012dc:	431a      	orrs	r2, r3
 80012de:	687b      	ldr	r3, [r7, #4]
 80012e0:	639a      	str	r2, [r3, #56]	; 0x38
          
          /* Set ADC error code to ADC IP internal error */
          SET_BIT(hadc->ErrorCode, HAL_ADC_ERROR_INTERNAL);
 80012e2:	687b      	ldr	r3, [r7, #4]
 80012e4:	6bdb      	ldr	r3, [r3, #60]	; 0x3c
 80012e6:	2201      	movs	r2, #1
 80012e8:	431a      	orrs	r2, r3
 80012ea:	687b      	ldr	r3, [r7, #4]
 80012ec:	63da      	str	r2, [r3, #60]	; 0x3c
    /*       from EOC or EOS, possibility to use:                             */
    /*        " if( __HAL_ADC_GET_FLAG(&hadc, ADC_FLAG_EOS)) "                */
#if (USE_HAL_ADC_REGISTER_CALLBACKS == 1)
      hadc->ConvCpltCallback(hadc);
#else
    HAL_ADC_ConvCpltCallback(hadc);
 80012ee:	687b      	ldr	r3, [r7, #4]
 80012f0:	0018      	movs	r0, r3
 80012f2:	f000 f853 	bl	800139c <HAL_ADC_ConvCpltCallback>
    /* Clear regular group conversion flag */
    /* Note: in case of overrun set to ADC_OVR_DATA_PRESERVED, end of         */
    /*       conversion flags clear induces the release of the preserved data.*/
    /*       Therefore, if the preserved data value is needed, it must be     */
    /*       read preliminarily into HAL_ADC_ConvCpltCallback().              */
    __HAL_ADC_CLEAR_FLAG(hadc, (ADC_FLAG_EOC | ADC_FLAG_EOS) );
 80012f6:	687b      	ldr	r3, [r7, #4]
 80012f8:	681b      	ldr	r3, [r3, #0]
 80012fa:	220c      	movs	r2, #12
 80012fc:	601a      	str	r2, [r3, #0]
  }
   
  /* ========== Check Analog watchdog flags ========== */
  if(__HAL_ADC_GET_FLAG(hadc, ADC_FLAG_AWD) && __HAL_ADC_GET_IT_SOURCE(hadc, ADC_IT_AWD))
 80012fe:	687b      	ldr	r3, [r7, #4]
 8001300:	681b      	ldr	r3, [r3, #0]
 8001302:	681b      	ldr	r3, [r3, #0]
 8001304:	2280      	movs	r2, #128	; 0x80
 8001306:	4013      	ands	r3, r2
 8001308:	2b80      	cmp	r3, #128	; 0x80
 800130a:	d115      	bne.n	8001338 <HAL_ADC_IRQHandler+0x10c>
 800130c:	687b      	ldr	r3, [r7, #4]
 800130e:	681b      	ldr	r3, [r3, #0]
 8001310:	685b      	ldr	r3, [r3, #4]
 8001312:	2280      	movs	r2, #128	; 0x80
 8001314:	4013      	ands	r3, r2
 8001316:	2b80      	cmp	r3, #128	; 0x80
 8001318:	d10e      	bne.n	8001338 <HAL_ADC_IRQHandler+0x10c>
  {
      /* Set ADC state */
      SET_BIT(hadc->State, HAL_ADC_STATE_AWD1);
 800131a:	687b      	ldr	r3, [r7, #4]
 800131c:	6b9b      	ldr	r3, [r3, #56]	; 0x38
 800131e:	2280      	movs	r2, #128	; 0x80
 8001320:	0252      	lsls	r2, r2, #9
 8001322:	431a      	orrs	r2, r3
 8001324:	687b      	ldr	r3, [r7, #4]
 8001326:	639a      	str	r2, [r3, #56]	; 0x38

#if (USE_HAL_ADC_REGISTER_CALLBACKS == 1)
      hadc->LevelOutOfWindowCallback(hadc);
#else
    HAL_ADC_LevelOutOfWindowCallback(hadc);
 8001328:	687b      	ldr	r3, [r7, #4]
 800132a:	0018      	movs	r0, r3
 800132c:	f000 f83e 	bl	80013ac <HAL_ADC_LevelOutOfWindowCallback>
#endif /* USE_HAL_ADC_REGISTER_CALLBACKS */
    
    /* Clear ADC Analog watchdog flag */
    __HAL_ADC_CLEAR_FLAG(hadc, ADC_FLAG_AWD);
 8001330:	687b      	ldr	r3, [r7, #4]
 8001332:	681b      	ldr	r3, [r3, #0]
 8001334:	2280      	movs	r2, #128	; 0x80
 8001336:	601a      	str	r2, [r3, #0]
   
  }
  
  
  /* ========== Check Overrun flag ========== */
  if(__HAL_ADC_GET_FLAG(hadc, ADC_FLAG_OVR) && __HAL_ADC_GET_IT_SOURCE(hadc, ADC_IT_OVR))
 8001338:	687b      	ldr	r3, [r7, #4]
 800133a:	681b      	ldr	r3, [r3, #0]
 800133c:	681b      	ldr	r3, [r3, #0]
 800133e:	2210      	movs	r2, #16
 8001340:	4013      	ands	r3, r2
 8001342:	2b10      	cmp	r3, #16
 8001344:	d123      	bne.n	800138e <HAL_ADC_IRQHandler+0x162>
 8001346:	687b      	ldr	r3, [r7, #4]
 8001348:	681b      	ldr	r3, [r3, #0]
 800134a:	685b      	ldr	r3, [r3, #4]
 800134c:	2210      	movs	r2, #16
 800134e:	4013      	ands	r3, r2
 8001350:	2b10      	cmp	r3, #16
 8001352:	d11c      	bne.n	800138e <HAL_ADC_IRQHandler+0x162>
    /* overrun event is not considered as an error.                           */
    /* (cf ref manual "Managing conversions without using the DMA and without */
    /* overrun ")                                                             */
    /* Exception for usage with DMA overrun event always considered as an     */
    /* error.                                                                 */
    if ((hadc->Init.Overrun == ADC_OVR_DATA_PRESERVED)            ||
 8001354:	687b      	ldr	r3, [r7, #4]
 8001356:	6a9b      	ldr	r3, [r3, #40]	; 0x28
 8001358:	2b01      	cmp	r3, #1
 800135a:	d006      	beq.n	800136a <HAL_ADC_IRQHandler+0x13e>
        HAL_IS_BIT_SET(hadc->Instance->CFGR1, ADC_CFGR1_DMAEN)  )
 800135c:	687b      	ldr	r3, [r7, #4]
 800135e:	681b      	ldr	r3, [r3, #0]
 8001360:	68db      	ldr	r3, [r3, #12]
 8001362:	2201      	movs	r2, #1
 8001364:	4013      	ands	r3, r2
    if ((hadc->Init.Overrun == ADC_OVR_DATA_PRESERVED)            ||
 8001366:	2b01      	cmp	r3, #1
 8001368:	d10d      	bne.n	8001386 <HAL_ADC_IRQHandler+0x15a>
    {
      /* Set ADC error code to overrun */
      SET_BIT(hadc->ErrorCode, HAL_ADC_ERROR_OVR);
 800136a:	687b      	ldr	r3, [r7, #4]
 800136c:	6bdb      	ldr	r3, [r3, #60]	; 0x3c
 800136e:	2202      	movs	r2, #2
 8001370:	431a      	orrs	r2, r3
 8001372:	687b      	ldr	r3, [r7, #4]
 8001374:	63da      	str	r2, [r3, #60]	; 0x3c
      
      /* Clear ADC overrun flag */
      __HAL_ADC_CLEAR_FLAG(hadc, ADC_FLAG_OVR);
 8001376:	687b      	ldr	r3, [r7, #4]
 8001378:	681b      	ldr	r3, [r3, #0]
 800137a:	2210      	movs	r2, #16
 800137c:	601a      	str	r2, [r3, #0]
      
#if (USE_HAL_ADC_REGISTER_CALLBACKS == 1)
      hadc->ErrorCallback(hadc);
#else
      HAL_ADC_ErrorCallback(hadc);
 800137e:	687b      	ldr	r3, [r7, #4]
 8001380:	0018      	movs	r0, r3
 8001382:	f000 f81b 	bl	80013bc <HAL_ADC_ErrorCallback>
#endif /* USE_HAL_ADC_REGISTER_CALLBACKS */
    }
    
    /* Clear the Overrun flag */
    __HAL_ADC_CLEAR_FLAG(hadc, ADC_FLAG_OVR);
 8001386:	687b      	ldr	r3, [r7, #4]
 8001388:	681b      	ldr	r3, [r3, #0]
 800138a:	2210      	movs	r2, #16
 800138c:	601a      	str	r2, [r3, #0]
  }

}
 800138e:	46c0      	nop			; (mov r8, r8)
 8001390:	46bd      	mov	sp, r7
 8001392:	b002      	add	sp, #8
 8001394:	bd80      	pop	{r7, pc}
 8001396:	46c0      	nop			; (mov r8, r8)
 8001398:	fffffefe 	.word	0xfffffefe

0800139c <HAL_ADC_ConvCpltCallback>:
  * @brief  Conversion complete callback in non blocking mode 
  * @param  hadc ADC handle
  * @retval None
  */
__weak void HAL_ADC_ConvCpltCallback(ADC_HandleTypeDef* hadc)
{
 800139c:	b580      	push	{r7, lr}
 800139e:	b082      	sub	sp, #8
 80013a0:	af00      	add	r7, sp, #0
 80013a2:	6078      	str	r0, [r7, #4]
  UNUSED(hadc);

  /* NOTE : This function should not be modified. When the callback is needed,
            function HAL_ADC_ConvCpltCallback must be implemented in the user file.
   */
}
 80013a4:	46c0      	nop			; (mov r8, r8)
 80013a6:	46bd      	mov	sp, r7
 80013a8:	b002      	add	sp, #8
 80013aa:	bd80      	pop	{r7, pc}

080013ac <HAL_ADC_LevelOutOfWindowCallback>:
  * @brief  Analog watchdog callback in non blocking mode. 
  * @param  hadc ADC handle
  * @retval None
  */
__weak void HAL_ADC_LevelOutOfWindowCallback(ADC_HandleTypeDef* hadc)
{
 80013ac:	b580      	push	{r7, lr}
 80013ae:	b082      	sub	sp, #8
 80013b0:	af00      	add	r7, sp, #0
 80013b2:	6078      	str	r0, [r7, #4]
  UNUSED(hadc);

  /* NOTE : This function should not be modified. When the callback is needed,
            function HAL_ADC_LevelOoutOfWindowCallback must be implemented in the user file.
  */
}
 80013b4:	46c0      	nop			; (mov r8, r8)
 80013b6:	46bd      	mov	sp, r7
 80013b8:	b002      	add	sp, #8
 80013ba:	bd80      	pop	{r7, pc}

080013bc <HAL_ADC_ErrorCallback>:
  *        (ADC conversion with interruption or transfer by DMA)
  * @param  hadc ADC handle
  * @retval None
  */
__weak void HAL_ADC_ErrorCallback(ADC_HandleTypeDef *hadc)
{
 80013bc:	b580      	push	{r7, lr}
 80013be:	b082      	sub	sp, #8
 80013c0:	af00      	add	r7, sp, #0
 80013c2:	6078      	str	r0, [r7, #4]
  UNUSED(hadc);

  /* NOTE : This function should not be modified. When the callback is needed,
            function HAL_ADC_ErrorCallback must be implemented in the user file.
  */
}
 80013c4:	46c0      	nop			; (mov r8, r8)
 80013c6:	46bd      	mov	sp, r7
 80013c8:	b002      	add	sp, #8
 80013ca:	bd80      	pop	{r7, pc}

080013cc <HAL_ADC_ConfigChannel>:
  * @param  hadc ADC handle
  * @param  sConfig Structure of ADC channel for regular group.
  * @retval HAL status
  */
HAL_StatusTypeDef HAL_ADC_ConfigChannel(ADC_HandleTypeDef* hadc, ADC_ChannelConfTypeDef* sConfig)
{
 80013cc:	b580      	push	{r7, lr}
 80013ce:	b084      	sub	sp, #16
 80013d0:	af00      	add	r7, sp, #0
 80013d2:	6078      	str	r0, [r7, #4]
 80013d4:	6039      	str	r1, [r7, #0]
  HAL_StatusTypeDef tmp_hal_status = HAL_OK;
 80013d6:	230f      	movs	r3, #15
 80013d8:	18fb      	adds	r3, r7, r3
 80013da:	2200      	movs	r2, #0
 80013dc:	701a      	strb	r2, [r3, #0]
  __IO uint32_t wait_loop_index = 0U;
 80013de:	2300      	movs	r3, #0
 80013e0:	60bb      	str	r3, [r7, #8]
  /* Check the parameters */
  assert_param(IS_ADC_ALL_INSTANCE(hadc->Instance));
  assert_param(IS_ADC_CHANNEL(sConfig->Channel));
  assert_param(IS_ADC_RANK(sConfig->Rank));
  
  if (! IS_ADC_SAMPLE_TIME(hadc->Init.SamplingTimeCommon))
 80013e2:	687b      	ldr	r3, [r7, #4]
 80013e4:	6ada      	ldr	r2, [r3, #44]	; 0x2c
 80013e6:	2380      	movs	r3, #128	; 0x80
 80013e8:	055b      	lsls	r3, r3, #21
 80013ea:	429a      	cmp	r2, r3
 80013ec:	d011      	beq.n	8001412 <HAL_ADC_ConfigChannel+0x46>
 80013ee:	687b      	ldr	r3, [r7, #4]
 80013f0:	6adb      	ldr	r3, [r3, #44]	; 0x2c
 80013f2:	2b01      	cmp	r3, #1
 80013f4:	d00d      	beq.n	8001412 <HAL_ADC_ConfigChannel+0x46>
 80013f6:	687b      	ldr	r3, [r7, #4]
 80013f8:	6adb      	ldr	r3, [r3, #44]	; 0x2c
 80013fa:	2b02      	cmp	r3, #2
 80013fc:	d009      	beq.n	8001412 <HAL_ADC_ConfigChannel+0x46>
 80013fe:	687b      	ldr	r3, [r7, #4]
 8001400:	6adb      	ldr	r3, [r3, #44]	; 0x2c
 8001402:	2b03      	cmp	r3, #3
 8001404:	d005      	beq.n	8001412 <HAL_ADC_ConfigChannel+0x46>
 8001406:	687b      	ldr	r3, [r7, #4]
 8001408:	6adb      	ldr	r3, [r3, #44]	; 0x2c
 800140a:	2b04      	cmp	r3, #4
 800140c:	d001      	beq.n	8001412 <HAL_ADC_ConfigChannel+0x46>
 800140e:	687b      	ldr	r3, [r7, #4]
 8001410:	6adb      	ldr	r3, [r3, #44]	; 0x2c
  {
    assert_param(IS_ADC_SAMPLE_TIME(sConfig->SamplingTime));
  }
  
  /* Process locked */
  __HAL_LOCK(hadc);
 8001412:	687b      	ldr	r3, [r7, #4]
 8001414:	2234      	movs	r2, #52	; 0x34
 8001416:	5c9b      	ldrb	r3, [r3, r2]
 8001418:	2b01      	cmp	r3, #1
 800141a:	d101      	bne.n	8001420 <HAL_ADC_ConfigChannel+0x54>
 800141c:	2302      	movs	r3, #2
 800141e:	e0d0      	b.n	80015c2 <HAL_ADC_ConfigChannel+0x1f6>
 8001420:	687b      	ldr	r3, [r7, #4]
 8001422:	2234      	movs	r2, #52	; 0x34
 8001424:	2101      	movs	r1, #1
 8001426:	5499      	strb	r1, [r3, r2]
  /* Parameters that can be updated when ADC is disabled or enabled without   */
  /* conversion on going on regular group:                                    */
  /*  - Channel number                                                        */
  /*  - Channel sampling time                                                 */
  /*  - Management of internal measurement channels: VrefInt/TempSensor/Vbat  */
  if (ADC_IS_CONVERSION_ONGOING_REGULAR(hadc) == RESET)
 8001428:	687b      	ldr	r3, [r7, #4]
 800142a:	681b      	ldr	r3, [r3, #0]
 800142c:	689b      	ldr	r3, [r3, #8]
 800142e:	2204      	movs	r2, #4
 8001430:	4013      	ands	r3, r2
 8001432:	d000      	beq.n	8001436 <HAL_ADC_ConfigChannel+0x6a>
 8001434:	e0b4      	b.n	80015a0 <HAL_ADC_ConfigChannel+0x1d4>
  {
    /* Configure channel: depending on rank setting, add it or remove it from */
    /* ADC conversion sequencer.                                              */
    if (sConfig->Rank != ADC_RANK_NONE)
 8001436:	683b      	ldr	r3, [r7, #0]
 8001438:	685b      	ldr	r3, [r3, #4]
 800143a:	4a64      	ldr	r2, [pc, #400]	; (80015cc <HAL_ADC_ConfigChannel+0x200>)
 800143c:	4293      	cmp	r3, r2
 800143e:	d100      	bne.n	8001442 <HAL_ADC_ConfigChannel+0x76>
 8001440:	e082      	b.n	8001548 <HAL_ADC_ConfigChannel+0x17c>
    {
      /* Regular sequence configuration */
      /* Set the channel selection register from the selected channel */
      hadc->Instance->CHSELR |= ADC_CHSELR_CHANNEL(sConfig->Channel);
 8001442:	687b      	ldr	r3, [r7, #4]
 8001444:	681b      	ldr	r3, [r3, #0]
 8001446:	6a99      	ldr	r1, [r3, #40]	; 0x28
 8001448:	683b      	ldr	r3, [r7, #0]
 800144a:	681b      	ldr	r3, [r3, #0]
 800144c:	2201      	movs	r2, #1
 800144e:	409a      	lsls	r2, r3
 8001450:	687b      	ldr	r3, [r7, #4]
 8001452:	681b      	ldr	r3, [r3, #0]
 8001454:	430a      	orrs	r2, r1
 8001456:	629a      	str	r2, [r3, #40]	; 0x28
      /* Channel sampling time configuration */
      /* Management of parameters "SamplingTimeCommon" and "SamplingTime"     */
      /* (obsolete): sampling time set in this function with                  */
      /* parameter "SamplingTime" (obsolete) only if not already set into     */
      /* ADC initialization structure with parameter "SamplingTimeCommon".    */
      if (! IS_ADC_SAMPLE_TIME(hadc->Init.SamplingTimeCommon))
 8001458:	687b      	ldr	r3, [r7, #4]
 800145a:	6ada      	ldr	r2, [r3, #44]	; 0x2c
 800145c:	2380      	movs	r3, #128	; 0x80
 800145e:	055b      	lsls	r3, r3, #21
 8001460:	429a      	cmp	r2, r3
 8001462:	d037      	beq.n	80014d4 <HAL_ADC_ConfigChannel+0x108>
 8001464:	687b      	ldr	r3, [r7, #4]
 8001466:	6adb      	ldr	r3, [r3, #44]	; 0x2c
 8001468:	2b01      	cmp	r3, #1
 800146a:	d033      	beq.n	80014d4 <HAL_ADC_ConfigChannel+0x108>
 800146c:	687b      	ldr	r3, [r7, #4]
 800146e:	6adb      	ldr	r3, [r3, #44]	; 0x2c
 8001470:	2b02      	cmp	r3, #2
 8001472:	d02f      	beq.n	80014d4 <HAL_ADC_ConfigChannel+0x108>
 8001474:	687b      	ldr	r3, [r7, #4]
 8001476:	6adb      	ldr	r3, [r3, #44]	; 0x2c
 8001478:	2b03      	cmp	r3, #3
 800147a:	d02b      	beq.n	80014d4 <HAL_ADC_ConfigChannel+0x108>
 800147c:	687b      	ldr	r3, [r7, #4]
 800147e:	6adb      	ldr	r3, [r3, #44]	; 0x2c
 8001480:	2b04      	cmp	r3, #4
 8001482:	d027      	beq.n	80014d4 <HAL_ADC_ConfigChannel+0x108>
 8001484:	687b      	ldr	r3, [r7, #4]
 8001486:	6adb      	ldr	r3, [r3, #44]	; 0x2c
 8001488:	2b05      	cmp	r3, #5
 800148a:	d023      	beq.n	80014d4 <HAL_ADC_ConfigChannel+0x108>
 800148c:	687b      	ldr	r3, [r7, #4]
 800148e:	6adb      	ldr	r3, [r3, #44]	; 0x2c
 8001490:	2b06      	cmp	r3, #6
 8001492:	d01f      	beq.n	80014d4 <HAL_ADC_ConfigChannel+0x108>
 8001494:	687b      	ldr	r3, [r7, #4]
 8001496:	6adb      	ldr	r3, [r3, #44]	; 0x2c
 8001498:	2b07      	cmp	r3, #7
 800149a:	d01b      	beq.n	80014d4 <HAL_ADC_ConfigChannel+0x108>
      {
        /* Modify sampling time if needed (not needed in case of reoccurrence */
        /* for several channels programmed consecutively into the sequencer)  */
        if (sConfig->SamplingTime != ADC_GET_SAMPLINGTIME(hadc))
 800149c:	683b      	ldr	r3, [r7, #0]
 800149e:	689a      	ldr	r2, [r3, #8]
 80014a0:	687b      	ldr	r3, [r7, #4]
 80014a2:	681b      	ldr	r3, [r3, #0]
 80014a4:	695b      	ldr	r3, [r3, #20]
 80014a6:	2107      	movs	r1, #7
 80014a8:	400b      	ands	r3, r1
 80014aa:	429a      	cmp	r2, r3
 80014ac:	d012      	beq.n	80014d4 <HAL_ADC_ConfigChannel+0x108>
        {
          /* Channel sampling time configuration */
          /* Clear the old sample time */
          hadc->Instance->SMPR &= ~(ADC_SMPR_SMP);
 80014ae:	687b      	ldr	r3, [r7, #4]
 80014b0:	681b      	ldr	r3, [r3, #0]
 80014b2:	695a      	ldr	r2, [r3, #20]
 80014b4:	687b      	ldr	r3, [r7, #4]
 80014b6:	681b      	ldr	r3, [r3, #0]
 80014b8:	2107      	movs	r1, #7
 80014ba:	438a      	bics	r2, r1
 80014bc:	615a      	str	r2, [r3, #20]
          
          /* Set the new sample time */
          hadc->Instance->SMPR |= ADC_SMPR_SET(sConfig->SamplingTime);
 80014be:	687b      	ldr	r3, [r7, #4]
 80014c0:	681b      	ldr	r3, [r3, #0]
 80014c2:	6959      	ldr	r1, [r3, #20]
 80014c4:	683b      	ldr	r3, [r7, #0]
 80014c6:	689b      	ldr	r3, [r3, #8]
 80014c8:	2207      	movs	r2, #7
 80014ca:	401a      	ands	r2, r3
 80014cc:	687b      	ldr	r3, [r7, #4]
 80014ce:	681b      	ldr	r3, [r3, #0]
 80014d0:	430a      	orrs	r2, r1
 80014d2:	615a      	str	r2, [r3, #20]
      /* internal measurement paths enable: If internal channel selected,     */
      /* enable dedicated internal buffers and path.                          */
      /* Note: these internal measurement paths can be disabled using         */
      /*       HAL_ADC_DeInit() or removing the channel from sequencer with   */
      /*       channel configuration parameter "Rank".                        */
      if(ADC_IS_CHANNEL_INTERNAL(sConfig->Channel))
 80014d4:	683b      	ldr	r3, [r7, #0]
 80014d6:	681b      	ldr	r3, [r3, #0]
 80014d8:	2b10      	cmp	r3, #16
 80014da:	d007      	beq.n	80014ec <HAL_ADC_ConfigChannel+0x120>
 80014dc:	683b      	ldr	r3, [r7, #0]
 80014de:	681b      	ldr	r3, [r3, #0]
 80014e0:	2b11      	cmp	r3, #17
 80014e2:	d003      	beq.n	80014ec <HAL_ADC_ConfigChannel+0x120>
 80014e4:	683b      	ldr	r3, [r7, #0]
 80014e6:	681b      	ldr	r3, [r3, #0]
 80014e8:	2b12      	cmp	r3, #18
 80014ea:	d163      	bne.n	80015b4 <HAL_ADC_ConfigChannel+0x1e8>
      {
        /* If Channel_16 is selected, enable Temp. sensor measurement path. */
        /* If Channel_17 is selected, enable VREFINT measurement path. */
        /* If Channel_18 is selected, enable VBAT measurement path. */
        ADC->CCR |= ADC_CHANNEL_INTERNAL_PATH(sConfig->Channel);
 80014ec:	4b38      	ldr	r3, [pc, #224]	; (80015d0 <HAL_ADC_ConfigChannel+0x204>)
 80014ee:	6819      	ldr	r1, [r3, #0]
 80014f0:	683b      	ldr	r3, [r7, #0]
 80014f2:	681b      	ldr	r3, [r3, #0]
 80014f4:	2b10      	cmp	r3, #16
 80014f6:	d009      	beq.n	800150c <HAL_ADC_ConfigChannel+0x140>
 80014f8:	683b      	ldr	r3, [r7, #0]
 80014fa:	681b      	ldr	r3, [r3, #0]
 80014fc:	2b11      	cmp	r3, #17
 80014fe:	d102      	bne.n	8001506 <HAL_ADC_ConfigChannel+0x13a>
 8001500:	2380      	movs	r3, #128	; 0x80
 8001502:	03db      	lsls	r3, r3, #15
 8001504:	e004      	b.n	8001510 <HAL_ADC_ConfigChannel+0x144>
 8001506:	2380      	movs	r3, #128	; 0x80
 8001508:	045b      	lsls	r3, r3, #17
 800150a:	e001      	b.n	8001510 <HAL_ADC_ConfigChannel+0x144>
 800150c:	2380      	movs	r3, #128	; 0x80
 800150e:	041b      	lsls	r3, r3, #16
 8001510:	4a2f      	ldr	r2, [pc, #188]	; (80015d0 <HAL_ADC_ConfigChannel+0x204>)
 8001512:	430b      	orrs	r3, r1
 8001514:	6013      	str	r3, [r2, #0]
        
        /* If Temp. sensor is selected, wait for stabilization delay */
        if (sConfig->Channel == ADC_CHANNEL_TEMPSENSOR)
 8001516:	683b      	ldr	r3, [r7, #0]
 8001518:	681b      	ldr	r3, [r3, #0]
 800151a:	2b10      	cmp	r3, #16
 800151c:	d14a      	bne.n	80015b4 <HAL_ADC_ConfigChannel+0x1e8>
        {
          /* Delay for temperature sensor stabilization time */
          /* Compute number of CPU cycles to wait for */
          wait_loop_index = (ADC_TEMPSENSOR_DELAY_US * (SystemCoreClock / 1000000U));
 800151e:	4b2d      	ldr	r3, [pc, #180]	; (80015d4 <HAL_ADC_ConfigChannel+0x208>)
 8001520:	681b      	ldr	r3, [r3, #0]
 8001522:	492d      	ldr	r1, [pc, #180]	; (80015d8 <HAL_ADC_ConfigChannel+0x20c>)
 8001524:	0018      	movs	r0, r3
 8001526:	f7fe fdf9 	bl	800011c <__udivsi3>
 800152a:	0003      	movs	r3, r0
 800152c:	001a      	movs	r2, r3
 800152e:	0013      	movs	r3, r2
 8001530:	009b      	lsls	r3, r3, #2
 8001532:	189b      	adds	r3, r3, r2
 8001534:	005b      	lsls	r3, r3, #1
 8001536:	60bb      	str	r3, [r7, #8]
          while(wait_loop_index != 0U)
 8001538:	e002      	b.n	8001540 <HAL_ADC_ConfigChannel+0x174>
          {
            wait_loop_index--;
 800153a:	68bb      	ldr	r3, [r7, #8]
 800153c:	3b01      	subs	r3, #1
 800153e:	60bb      	str	r3, [r7, #8]
          while(wait_loop_index != 0U)
 8001540:	68bb      	ldr	r3, [r7, #8]
 8001542:	2b00      	cmp	r3, #0
 8001544:	d1f9      	bne.n	800153a <HAL_ADC_ConfigChannel+0x16e>
 8001546:	e035      	b.n	80015b4 <HAL_ADC_ConfigChannel+0x1e8>
    }
    else
    {
      /* Regular sequence configuration */
      /* Reset the channel selection register from the selected channel */
      hadc->Instance->CHSELR &= ~ADC_CHSELR_CHANNEL(sConfig->Channel);
 8001548:	687b      	ldr	r3, [r7, #4]
 800154a:	681b      	ldr	r3, [r3, #0]
 800154c:	6a9a      	ldr	r2, [r3, #40]	; 0x28
 800154e:	683b      	ldr	r3, [r7, #0]
 8001550:	681b      	ldr	r3, [r3, #0]
 8001552:	2101      	movs	r1, #1
 8001554:	4099      	lsls	r1, r3
 8001556:	000b      	movs	r3, r1
 8001558:	43d9      	mvns	r1, r3
 800155a:	687b      	ldr	r3, [r7, #4]
 800155c:	681b      	ldr	r3, [r3, #0]
 800155e:	400a      	ands	r2, r1
 8001560:	629a      	str	r2, [r3, #40]	; 0x28
      
      /* Management of internal measurement channels: VrefInt/TempSensor/Vbat */
      /* internal measurement paths disable: If internal channel selected,    */
      /* disable dedicated internal buffers and path.                         */
      if(ADC_IS_CHANNEL_INTERNAL(sConfig->Channel))
 8001562:	683b      	ldr	r3, [r7, #0]
 8001564:	681b      	ldr	r3, [r3, #0]
 8001566:	2b10      	cmp	r3, #16
 8001568:	d007      	beq.n	800157a <HAL_ADC_ConfigChannel+0x1ae>
 800156a:	683b      	ldr	r3, [r7, #0]
 800156c:	681b      	ldr	r3, [r3, #0]
 800156e:	2b11      	cmp	r3, #17
 8001570:	d003      	beq.n	800157a <HAL_ADC_ConfigChannel+0x1ae>
 8001572:	683b      	ldr	r3, [r7, #0]
 8001574:	681b      	ldr	r3, [r3, #0]
 8001576:	2b12      	cmp	r3, #18
 8001578:	d11c      	bne.n	80015b4 <HAL_ADC_ConfigChannel+0x1e8>
      {
        /* If Channel_16 is selected, disable Temp. sensor measurement path. */
        /* If Channel_17 is selected, disable VREFINT measurement path. */
        /* If Channel_18 is selected, disable VBAT measurement path. */
        ADC->CCR &= ~ADC_CHANNEL_INTERNAL_PATH(sConfig->Channel);
 800157a:	4b15      	ldr	r3, [pc, #84]	; (80015d0 <HAL_ADC_ConfigChannel+0x204>)
 800157c:	6819      	ldr	r1, [r3, #0]
 800157e:	683b      	ldr	r3, [r7, #0]
 8001580:	681b      	ldr	r3, [r3, #0]
 8001582:	2b10      	cmp	r3, #16
 8001584:	d007      	beq.n	8001596 <HAL_ADC_ConfigChannel+0x1ca>
 8001586:	683b      	ldr	r3, [r7, #0]
 8001588:	681b      	ldr	r3, [r3, #0]
 800158a:	2b11      	cmp	r3, #17
 800158c:	d101      	bne.n	8001592 <HAL_ADC_ConfigChannel+0x1c6>
 800158e:	4b13      	ldr	r3, [pc, #76]	; (80015dc <HAL_ADC_ConfigChannel+0x210>)
 8001590:	e002      	b.n	8001598 <HAL_ADC_ConfigChannel+0x1cc>
 8001592:	4b13      	ldr	r3, [pc, #76]	; (80015e0 <HAL_ADC_ConfigChannel+0x214>)
 8001594:	e000      	b.n	8001598 <HAL_ADC_ConfigChannel+0x1cc>
 8001596:	4b13      	ldr	r3, [pc, #76]	; (80015e4 <HAL_ADC_ConfigChannel+0x218>)
 8001598:	4a0d      	ldr	r2, [pc, #52]	; (80015d0 <HAL_ADC_ConfigChannel+0x204>)
 800159a:	400b      	ands	r3, r1
 800159c:	6013      	str	r3, [r2, #0]
 800159e:	e009      	b.n	80015b4 <HAL_ADC_ConfigChannel+0x1e8>
  /* channel could be done on neither of the channel configuration structure  */
  /* parameters.                                                              */
  else
  {
    /* Update ADC state machine to error */
    SET_BIT(hadc->State, HAL_ADC_STATE_ERROR_CONFIG);
 80015a0:	687b      	ldr	r3, [r7, #4]
 80015a2:	6b9b      	ldr	r3, [r3, #56]	; 0x38
 80015a4:	2220      	movs	r2, #32
 80015a6:	431a      	orrs	r2, r3
 80015a8:	687b      	ldr	r3, [r7, #4]
 80015aa:	639a      	str	r2, [r3, #56]	; 0x38
    
    tmp_hal_status = HAL_ERROR;
 80015ac:	230f      	movs	r3, #15
 80015ae:	18fb      	adds	r3, r7, r3
 80015b0:	2201      	movs	r2, #1
 80015b2:	701a      	strb	r2, [r3, #0]
  }
  
  /* Process unlocked */
  __HAL_UNLOCK(hadc);
 80015b4:	687b      	ldr	r3, [r7, #4]
 80015b6:	2234      	movs	r2, #52	; 0x34
 80015b8:	2100      	movs	r1, #0
 80015ba:	5499      	strb	r1, [r3, r2]
  
  /* Return function status */
  return tmp_hal_status;
 80015bc:	230f      	movs	r3, #15
 80015be:	18fb      	adds	r3, r7, r3
 80015c0:	781b      	ldrb	r3, [r3, #0]
}
 80015c2:	0018      	movs	r0, r3
 80015c4:	46bd      	mov	sp, r7
 80015c6:	b004      	add	sp, #16
 80015c8:	bd80      	pop	{r7, pc}
 80015ca:	46c0      	nop			; (mov r8, r8)
 80015cc:	00001001 	.word	0x00001001
 80015d0:	40012708 	.word	0x40012708
 80015d4:	20000008 	.word	0x20000008
 80015d8:	000f4240 	.word	0x000f4240
 80015dc:	ffbfffff 	.word	0xffbfffff
 80015e0:	feffffff 	.word	0xfeffffff
 80015e4:	ff7fffff 	.word	0xff7fffff

080015e8 <ADC_Enable>:
  *         "if (hadc->Init.LowPowerAutoPowerOff != ENABLE)".
  * @param  hadc ADC handle
  * @retval HAL status.
  */
static HAL_StatusTypeDef ADC_Enable(ADC_HandleTypeDef* hadc)
{
 80015e8:	b580      	push	{r7, lr}
 80015ea:	b084      	sub	sp, #16
 80015ec:	af00      	add	r7, sp, #0
 80015ee:	6078      	str	r0, [r7, #4]
  uint32_t tickstart = 0U;
 80015f0:	2300      	movs	r3, #0
 80015f2:	60fb      	str	r3, [r7, #12]
  __IO uint32_t wait_loop_index = 0U;
 80015f4:	2300      	movs	r3, #0
 80015f6:	60bb      	str	r3, [r7, #8]
  
  /* ADC enable and wait for ADC ready (in case of ADC is disabled or         */
  /* enabling phase not yet completed: flag ADC ready not yet set).           */
  /* Timeout implemented to not be stuck if ADC cannot be enabled (possible   */
  /* causes: ADC clock not running, ...).                                     */
  if (ADC_IS_ENABLE(hadc) == RESET)
 80015f8:	687b      	ldr	r3, [r7, #4]
 80015fa:	681b      	ldr	r3, [r3, #0]
 80015fc:	689b      	ldr	r3, [r3, #8]
 80015fe:	2203      	movs	r2, #3
 8001600:	4013      	ands	r3, r2
 8001602:	2b01      	cmp	r3, #1
 8001604:	d112      	bne.n	800162c <ADC_Enable+0x44>
 8001606:	687b      	ldr	r3, [r7, #4]
 8001608:	681b      	ldr	r3, [r3, #0]
 800160a:	681b      	ldr	r3, [r3, #0]
 800160c:	2201      	movs	r2, #1
 800160e:	4013      	ands	r3, r2
 8001610:	2b01      	cmp	r3, #1
 8001612:	d009      	beq.n	8001628 <ADC_Enable+0x40>
 8001614:	687b      	ldr	r3, [r7, #4]
 8001616:	681b      	ldr	r3, [r3, #0]
 8001618:	68da      	ldr	r2, [r3, #12]
 800161a:	2380      	movs	r3, #128	; 0x80
 800161c:	021b      	lsls	r3, r3, #8
 800161e:	401a      	ands	r2, r3
 8001620:	2380      	movs	r3, #128	; 0x80
 8001622:	021b      	lsls	r3, r3, #8
 8001624:	429a      	cmp	r2, r3
 8001626:	d101      	bne.n	800162c <ADC_Enable+0x44>
 8001628:	2301      	movs	r3, #1
 800162a:	e000      	b.n	800162e <ADC_Enable+0x46>
 800162c:	2300      	movs	r3, #0
 800162e:	2b00      	cmp	r3, #0
 8001630:	d152      	bne.n	80016d8 <ADC_Enable+0xf0>
  {
    /* Check if conditions to enable the ADC are fulfilled */
    if (ADC_ENABLING_CONDITIONS(hadc) == RESET)
 8001632:	687b      	ldr	r3, [r7, #4]
 8001634:	681b      	ldr	r3, [r3, #0]
 8001636:	689b      	ldr	r3, [r3, #8]
 8001638:	4a2a      	ldr	r2, [pc, #168]	; (80016e4 <ADC_Enable+0xfc>)
 800163a:	4013      	ands	r3, r2
 800163c:	d00d      	beq.n	800165a <ADC_Enable+0x72>
    {
      /* Update ADC state machine to error */
      SET_BIT(hadc->State, HAL_ADC_STATE_ERROR_INTERNAL);
 800163e:	687b      	ldr	r3, [r7, #4]
 8001640:	6b9b      	ldr	r3, [r3, #56]	; 0x38
 8001642:	2210      	movs	r2, #16
 8001644:	431a      	orrs	r2, r3
 8001646:	687b      	ldr	r3, [r7, #4]
 8001648:	639a      	str	r2, [r3, #56]	; 0x38
    
      /* Set ADC error code to ADC IP internal error */
      SET_BIT(hadc->ErrorCode, HAL_ADC_ERROR_INTERNAL);
 800164a:	687b      	ldr	r3, [r7, #4]
 800164c:	6bdb      	ldr	r3, [r3, #60]	; 0x3c
 800164e:	2201      	movs	r2, #1
 8001650:	431a      	orrs	r2, r3
 8001652:	687b      	ldr	r3, [r7, #4]
 8001654:	63da      	str	r2, [r3, #60]	; 0x3c
      
      return HAL_ERROR;
 8001656:	2301      	movs	r3, #1
 8001658:	e03f      	b.n	80016da <ADC_Enable+0xf2>
    }
    
    /* Enable the ADC peripheral */
    __HAL_ADC_ENABLE(hadc);
 800165a:	687b      	ldr	r3, [r7, #4]
 800165c:	681b      	ldr	r3, [r3, #0]
 800165e:	689a      	ldr	r2, [r3, #8]
 8001660:	687b      	ldr	r3, [r7, #4]
 8001662:	681b      	ldr	r3, [r3, #0]
 8001664:	2101      	movs	r1, #1
 8001666:	430a      	orrs	r2, r1
 8001668:	609a      	str	r2, [r3, #8]
    
    /* Delay for ADC stabilization time */
    /* Compute number of CPU cycles to wait for */
    wait_loop_index = (ADC_STAB_DELAY_US * (SystemCoreClock / 1000000U));
 800166a:	4b1f      	ldr	r3, [pc, #124]	; (80016e8 <ADC_Enable+0x100>)
 800166c:	681b      	ldr	r3, [r3, #0]
 800166e:	491f      	ldr	r1, [pc, #124]	; (80016ec <ADC_Enable+0x104>)
 8001670:	0018      	movs	r0, r3
 8001672:	f7fe fd53 	bl	800011c <__udivsi3>
 8001676:	0003      	movs	r3, r0
 8001678:	60bb      	str	r3, [r7, #8]
    while(wait_loop_index != 0U)
 800167a:	e002      	b.n	8001682 <ADC_Enable+0x9a>
    {
      wait_loop_index--;
 800167c:	68bb      	ldr	r3, [r7, #8]
 800167e:	3b01      	subs	r3, #1
 8001680:	60bb      	str	r3, [r7, #8]
    while(wait_loop_index != 0U)
 8001682:	68bb      	ldr	r3, [r7, #8]
 8001684:	2b00      	cmp	r3, #0
 8001686:	d1f9      	bne.n	800167c <ADC_Enable+0x94>
    }

    /* Get tick count */
    tickstart = HAL_GetTick();
 8001688:	f7ff fb2a 	bl	8000ce0 <HAL_GetTick>
 800168c:	0003      	movs	r3, r0
 800168e:	60fb      	str	r3, [r7, #12]
    
    /* Wait for ADC effectively enabled */
    while(__HAL_ADC_GET_FLAG(hadc, ADC_FLAG_RDY) == RESET)
 8001690:	e01b      	b.n	80016ca <ADC_Enable+0xe2>
    {
      if((HAL_GetTick() - tickstart) > ADC_ENABLE_TIMEOUT)
 8001692:	f7ff fb25 	bl	8000ce0 <HAL_GetTick>
 8001696:	0002      	movs	r2, r0
 8001698:	68fb      	ldr	r3, [r7, #12]
 800169a:	1ad3      	subs	r3, r2, r3
 800169c:	2b02      	cmp	r3, #2
 800169e:	d914      	bls.n	80016ca <ADC_Enable+0xe2>
      {
        /* New check to avoid false timeout detection in case of preemption */
        if(__HAL_ADC_GET_FLAG(hadc, ADC_FLAG_RDY) == RESET)
 80016a0:	687b      	ldr	r3, [r7, #4]
 80016a2:	681b      	ldr	r3, [r3, #0]
 80016a4:	681b      	ldr	r3, [r3, #0]
 80016a6:	2201      	movs	r2, #1
 80016a8:	4013      	ands	r3, r2
 80016aa:	2b01      	cmp	r3, #1
 80016ac:	d00d      	beq.n	80016ca <ADC_Enable+0xe2>
        {
          /* Update ADC state machine to error */
          SET_BIT(hadc->State, HAL_ADC_STATE_ERROR_INTERNAL);
 80016ae:	687b      	ldr	r3, [r7, #4]
 80016b0:	6b9b      	ldr	r3, [r3, #56]	; 0x38
 80016b2:	2210      	movs	r2, #16
 80016b4:	431a      	orrs	r2, r3
 80016b6:	687b      	ldr	r3, [r7, #4]
 80016b8:	639a      	str	r2, [r3, #56]	; 0x38

          /* Set ADC error code to ADC IP internal error */
          SET_BIT(hadc->ErrorCode, HAL_ADC_ERROR_INTERNAL);
 80016ba:	687b      	ldr	r3, [r7, #4]
 80016bc:	6bdb      	ldr	r3, [r3, #60]	; 0x3c
 80016be:	2201      	movs	r2, #1
 80016c0:	431a      	orrs	r2, r3
 80016c2:	687b      	ldr	r3, [r7, #4]
 80016c4:	63da      	str	r2, [r3, #60]	; 0x3c

          return HAL_ERROR;
 80016c6:	2301      	movs	r3, #1
 80016c8:	e007      	b.n	80016da <ADC_Enable+0xf2>
    while(__HAL_ADC_GET_FLAG(hadc, ADC_FLAG_RDY) == RESET)
 80016ca:	687b      	ldr	r3, [r7, #4]
 80016cc:	681b      	ldr	r3, [r3, #0]
 80016ce:	681b      	ldr	r3, [r3, #0]
 80016d0:	2201      	movs	r2, #1
 80016d2:	4013      	ands	r3, r2
 80016d4:	2b01      	cmp	r3, #1
 80016d6:	d1dc      	bne.n	8001692 <ADC_Enable+0xaa>
      }
    }
  }
   
  /* Return HAL status */
  return HAL_OK;
 80016d8:	2300      	movs	r3, #0
}
 80016da:	0018      	movs	r0, r3
 80016dc:	46bd      	mov	sp, r7
 80016de:	b004      	add	sp, #16
 80016e0:	bd80      	pop	{r7, pc}
 80016e2:	46c0      	nop			; (mov r8, r8)
 80016e4:	80000017 	.word	0x80000017
 80016e8:	20000008 	.word	0x20000008
 80016ec:	000f4240 	.word	0x000f4240

080016f0 <ADC_Disable>:
  *         stopped.
  * @param  hadc ADC handle
  * @retval HAL status.
  */
static HAL_StatusTypeDef ADC_Disable(ADC_HandleTypeDef* hadc)
{
 80016f0:	b580      	push	{r7, lr}
 80016f2:	b084      	sub	sp, #16
 80016f4:	af00      	add	r7, sp, #0
 80016f6:	6078      	str	r0, [r7, #4]
  uint32_t tickstart = 0U;
 80016f8:	2300      	movs	r3, #0
 80016fa:	60fb      	str	r3, [r7, #12]
  
  /* Verification if ADC is not already disabled:                             */
  /* Note: forbidden to disable ADC (set bit ADC_CR_ADDIS) if ADC is already  */
  /*       disabled.                                                          */
  if (ADC_IS_ENABLE(hadc) != RESET)
 80016fc:	687b      	ldr	r3, [r7, #4]
 80016fe:	681b      	ldr	r3, [r3, #0]
 8001700:	689b      	ldr	r3, [r3, #8]
 8001702:	2203      	movs	r2, #3
 8001704:	4013      	ands	r3, r2
 8001706:	2b01      	cmp	r3, #1
 8001708:	d112      	bne.n	8001730 <ADC_Disable+0x40>
 800170a:	687b      	ldr	r3, [r7, #4]
 800170c:	681b      	ldr	r3, [r3, #0]
 800170e:	681b      	ldr	r3, [r3, #0]
 8001710:	2201      	movs	r2, #1
 8001712:	4013      	ands	r3, r2
 8001714:	2b01      	cmp	r3, #1
 8001716:	d009      	beq.n	800172c <ADC_Disable+0x3c>
 8001718:	687b      	ldr	r3, [r7, #4]
 800171a:	681b      	ldr	r3, [r3, #0]
 800171c:	68da      	ldr	r2, [r3, #12]
 800171e:	2380      	movs	r3, #128	; 0x80
 8001720:	021b      	lsls	r3, r3, #8
 8001722:	401a      	ands	r2, r3
 8001724:	2380      	movs	r3, #128	; 0x80
 8001726:	021b      	lsls	r3, r3, #8
 8001728:	429a      	cmp	r2, r3
 800172a:	d101      	bne.n	8001730 <ADC_Disable+0x40>
 800172c:	2301      	movs	r3, #1
 800172e:	e000      	b.n	8001732 <ADC_Disable+0x42>
 8001730:	2300      	movs	r3, #0
 8001732:	2b00      	cmp	r3, #0
 8001734:	d048      	beq.n	80017c8 <ADC_Disable+0xd8>
  {
    /* Check if conditions to disable the ADC are fulfilled */
    if (ADC_DISABLING_CONDITIONS(hadc) != RESET)
 8001736:	687b      	ldr	r3, [r7, #4]
 8001738:	681b      	ldr	r3, [r3, #0]
 800173a:	689b      	ldr	r3, [r3, #8]
 800173c:	2205      	movs	r2, #5
 800173e:	4013      	ands	r3, r2
 8001740:	2b01      	cmp	r3, #1
 8001742:	d110      	bne.n	8001766 <ADC_Disable+0x76>
    {
      /* Disable the ADC peripheral */
      __HAL_ADC_DISABLE(hadc);
 8001744:	687b      	ldr	r3, [r7, #4]
 8001746:	681b      	ldr	r3, [r3, #0]
 8001748:	689a      	ldr	r2, [r3, #8]
 800174a:	687b      	ldr	r3, [r7, #4]
 800174c:	681b      	ldr	r3, [r3, #0]
 800174e:	2102      	movs	r1, #2
 8001750:	430a      	orrs	r2, r1
 8001752:	609a      	str	r2, [r3, #8]
 8001754:	687b      	ldr	r3, [r7, #4]
 8001756:	681b      	ldr	r3, [r3, #0]
 8001758:	2203      	movs	r2, #3
 800175a:	601a      	str	r2, [r3, #0]
      return HAL_ERROR;
    }
     
    /* Wait for ADC effectively disabled */
    /* Get tick count */
    tickstart = HAL_GetTick();
 800175c:	f7ff fac0 	bl	8000ce0 <HAL_GetTick>
 8001760:	0003      	movs	r3, r0
 8001762:	60fb      	str	r3, [r7, #12]
    
    while(HAL_IS_BIT_SET(hadc->Instance->CR, ADC_CR_ADEN))
 8001764:	e029      	b.n	80017ba <ADC_Disable+0xca>
      SET_BIT(hadc->State, HAL_ADC_STATE_ERROR_INTERNAL);
 8001766:	687b      	ldr	r3, [r7, #4]
 8001768:	6b9b      	ldr	r3, [r3, #56]	; 0x38
 800176a:	2210      	movs	r2, #16
 800176c:	431a      	orrs	r2, r3
 800176e:	687b      	ldr	r3, [r7, #4]
 8001770:	639a      	str	r2, [r3, #56]	; 0x38
      SET_BIT(hadc->ErrorCode, HAL_ADC_ERROR_INTERNAL);
 8001772:	687b      	ldr	r3, [r7, #4]
 8001774:	6bdb      	ldr	r3, [r3, #60]	; 0x3c
 8001776:	2201      	movs	r2, #1
 8001778:	431a      	orrs	r2, r3
 800177a:	687b      	ldr	r3, [r7, #4]
 800177c:	63da      	str	r2, [r3, #60]	; 0x3c
      return HAL_ERROR;
 800177e:	2301      	movs	r3, #1
 8001780:	e023      	b.n	80017ca <ADC_Disable+0xda>
    {
      if((HAL_GetTick() - tickstart) > ADC_DISABLE_TIMEOUT)
 8001782:	f7ff faad 	bl	8000ce0 <HAL_GetTick>
 8001786:	0002      	movs	r2, r0
 8001788:	68fb      	ldr	r3, [r7, #12]
 800178a:	1ad3      	subs	r3, r2, r3
 800178c:	2b02      	cmp	r3, #2
 800178e:	d914      	bls.n	80017ba <ADC_Disable+0xca>
      {
        /* New check to avoid false timeout detection in case of preemption */
        if(HAL_IS_BIT_SET(hadc->Instance->CR, ADC_CR_ADEN))
 8001790:	687b      	ldr	r3, [r7, #4]
 8001792:	681b      	ldr	r3, [r3, #0]
 8001794:	689b      	ldr	r3, [r3, #8]
 8001796:	2201      	movs	r2, #1
 8001798:	4013      	ands	r3, r2
 800179a:	2b01      	cmp	r3, #1
 800179c:	d10d      	bne.n	80017ba <ADC_Disable+0xca>
        {
          /* Update ADC state machine to error */
          SET_BIT(hadc->State, HAL_ADC_STATE_ERROR_INTERNAL);
 800179e:	687b      	ldr	r3, [r7, #4]
 80017a0:	6b9b      	ldr	r3, [r3, #56]	; 0x38
 80017a2:	2210      	movs	r2, #16
 80017a4:	431a      	orrs	r2, r3
 80017a6:	687b      	ldr	r3, [r7, #4]
 80017a8:	639a      	str	r2, [r3, #56]	; 0x38

          /* Set ADC error code to ADC IP internal error */
          SET_BIT(hadc->ErrorCode, HAL_ADC_ERROR_INTERNAL);
 80017aa:	687b      	ldr	r3, [r7, #4]
 80017ac:	6bdb      	ldr	r3, [r3, #60]	; 0x3c
 80017ae:	2201      	movs	r2, #1
 80017b0:	431a      	orrs	r2, r3
 80017b2:	687b      	ldr	r3, [r7, #4]
 80017b4:	63da      	str	r2, [r3, #60]	; 0x3c

          return HAL_ERROR;
 80017b6:	2301      	movs	r3, #1
 80017b8:	e007      	b.n	80017ca <ADC_Disable+0xda>
    while(HAL_IS_BIT_SET(hadc->Instance->CR, ADC_CR_ADEN))
 80017ba:	687b      	ldr	r3, [r7, #4]
 80017bc:	681b      	ldr	r3, [r3, #0]
 80017be:	689b      	ldr	r3, [r3, #8]
 80017c0:	2201      	movs	r2, #1
 80017c2:	4013      	ands	r3, r2
 80017c4:	2b01      	cmp	r3, #1
 80017c6:	d0dc      	beq.n	8001782 <ADC_Disable+0x92>
      }
    }
  }
  
  /* Return HAL status */
  return HAL_OK;
 80017c8:	2300      	movs	r3, #0
}
 80017ca:	0018      	movs	r0, r3
 80017cc:	46bd      	mov	sp, r7
 80017ce:	b004      	add	sp, #16
 80017d0:	bd80      	pop	{r7, pc}

080017d2 <ADC_ConversionStop>:
  *         stopped to disable the ADC.
  * @param  hadc ADC handle
  * @retval HAL status.
  */
static HAL_StatusTypeDef ADC_ConversionStop(ADC_HandleTypeDef* hadc)
{
 80017d2:	b580      	push	{r7, lr}
 80017d4:	b084      	sub	sp, #16
 80017d6:	af00      	add	r7, sp, #0
 80017d8:	6078      	str	r0, [r7, #4]
  uint32_t tickstart = 0U;
 80017da:	2300      	movs	r3, #0
 80017dc:	60fb      	str	r3, [r7, #12]
  /* Check the parameters */
  assert_param(IS_ADC_ALL_INSTANCE(hadc->Instance));
    
  /* Verification if ADC is not already stopped on regular group to bypass    */
  /* this function if not needed.                                             */
  if (ADC_IS_CONVERSION_ONGOING_REGULAR(hadc))
 80017de:	687b      	ldr	r3, [r7, #4]
 80017e0:	681b      	ldr	r3, [r3, #0]
 80017e2:	689b      	ldr	r3, [r3, #8]
 80017e4:	2204      	movs	r2, #4
 80017e6:	4013      	ands	r3, r2
 80017e8:	d03a      	beq.n	8001860 <ADC_ConversionStop+0x8e>
  {
    
    /* Stop potential conversion on going on regular group */
    /* Software is allowed to set ADSTP only when ADSTART=1 and ADDIS=0 */
    if (HAL_IS_BIT_SET(hadc->Instance->CR, ADC_CR_ADSTART) && 
 80017ea:	687b      	ldr	r3, [r7, #4]
 80017ec:	681b      	ldr	r3, [r3, #0]
 80017ee:	689b      	ldr	r3, [r3, #8]
 80017f0:	2204      	movs	r2, #4
 80017f2:	4013      	ands	r3, r2
 80017f4:	2b04      	cmp	r3, #4
 80017f6:	d10d      	bne.n	8001814 <ADC_ConversionStop+0x42>
        HAL_IS_BIT_CLR(hadc->Instance->CR, ADC_CR_ADDIS)                  )
 80017f8:	687b      	ldr	r3, [r7, #4]
 80017fa:	681b      	ldr	r3, [r3, #0]
 80017fc:	689b      	ldr	r3, [r3, #8]
 80017fe:	2202      	movs	r2, #2
 8001800:	4013      	ands	r3, r2
    if (HAL_IS_BIT_SET(hadc->Instance->CR, ADC_CR_ADSTART) && 
 8001802:	d107      	bne.n	8001814 <ADC_ConversionStop+0x42>
    {
      /* Stop conversions on regular group */
      hadc->Instance->CR |= ADC_CR_ADSTP;
 8001804:	687b      	ldr	r3, [r7, #4]
 8001806:	681b      	ldr	r3, [r3, #0]
 8001808:	689a      	ldr	r2, [r3, #8]
 800180a:	687b      	ldr	r3, [r7, #4]
 800180c:	681b      	ldr	r3, [r3, #0]
 800180e:	2110      	movs	r1, #16
 8001810:	430a      	orrs	r2, r1
 8001812:	609a      	str	r2, [r3, #8]
    }
    
    /* Wait for conversion effectively stopped */
    /* Get tick count */
    tickstart = HAL_GetTick();
 8001814:	f7ff fa64 	bl	8000ce0 <HAL_GetTick>
 8001818:	0003      	movs	r3, r0
 800181a:	60fb      	str	r3, [r7, #12]
      
    while((hadc->Instance->CR & ADC_CR_ADSTART) != RESET)
 800181c:	e01a      	b.n	8001854 <ADC_ConversionStop+0x82>
    {
      if((HAL_GetTick() - tickstart) > ADC_STOP_CONVERSION_TIMEOUT)
 800181e:	f7ff fa5f 	bl	8000ce0 <HAL_GetTick>
 8001822:	0002      	movs	r2, r0
 8001824:	68fb      	ldr	r3, [r7, #12]
 8001826:	1ad3      	subs	r3, r2, r3
 8001828:	2b02      	cmp	r3, #2
 800182a:	d913      	bls.n	8001854 <ADC_ConversionStop+0x82>
      {
        /* New check to avoid false timeout detection in case of preemption */
        if((hadc->Instance->CR & ADC_CR_ADSTART) != RESET)
 800182c:	687b      	ldr	r3, [r7, #4]
 800182e:	681b      	ldr	r3, [r3, #0]
 8001830:	689b      	ldr	r3, [r3, #8]
 8001832:	2204      	movs	r2, #4
 8001834:	4013      	ands	r3, r2
 8001836:	d00d      	beq.n	8001854 <ADC_ConversionStop+0x82>
        {
          /* Update ADC state machine to error */
          SET_BIT(hadc->State, HAL_ADC_STATE_ERROR_INTERNAL);
 8001838:	687b      	ldr	r3, [r7, #4]
 800183a:	6b9b      	ldr	r3, [r3, #56]	; 0x38
 800183c:	2210      	movs	r2, #16
 800183e:	431a      	orrs	r2, r3
 8001840:	687b      	ldr	r3, [r7, #4]
 8001842:	639a      	str	r2, [r3, #56]	; 0x38

          /* Set ADC error code to ADC IP internal error */
          SET_BIT(hadc->ErrorCode, HAL_ADC_ERROR_INTERNAL);
 8001844:	687b      	ldr	r3, [r7, #4]
 8001846:	6bdb      	ldr	r3, [r3, #60]	; 0x3c
 8001848:	2201      	movs	r2, #1
 800184a:	431a      	orrs	r2, r3
 800184c:	687b      	ldr	r3, [r7, #4]
 800184e:	63da      	str	r2, [r3, #60]	; 0x3c

          return HAL_ERROR;
 8001850:	2301      	movs	r3, #1
 8001852:	e006      	b.n	8001862 <ADC_ConversionStop+0x90>
    while((hadc->Instance->CR & ADC_CR_ADSTART) != RESET)
 8001854:	687b      	ldr	r3, [r7, #4]
 8001856:	681b      	ldr	r3, [r3, #0]
 8001858:	689b      	ldr	r3, [r3, #8]
 800185a:	2204      	movs	r2, #4
 800185c:	4013      	ands	r3, r2
 800185e:	d1de      	bne.n	800181e <ADC_ConversionStop+0x4c>
      }
    }
  }
   
  /* Return HAL status */
  return HAL_OK;
 8001860:	2300      	movs	r3, #0
}
 8001862:	0018      	movs	r0, r3
 8001864:	46bd      	mov	sp, r7
 8001866:	b004      	add	sp, #16
 8001868:	bd80      	pop	{r7, pc}
	...

0800186c <__NVIC_EnableIRQ>:
  \details Enables a device specific interrupt in the NVIC interrupt controller.
  \param [in]      IRQn  Device specific interrupt number.
  \note    IRQn must not be negative.
 */
__STATIC_INLINE void __NVIC_EnableIRQ(IRQn_Type IRQn)
{
 800186c:	b580      	push	{r7, lr}
 800186e:	b082      	sub	sp, #8
 8001870:	af00      	add	r7, sp, #0
 8001872:	0002      	movs	r2, r0
 8001874:	1dfb      	adds	r3, r7, #7
 8001876:	701a      	strb	r2, [r3, #0]
  if ((int32_t)(IRQn) >= 0)
 8001878:	1dfb      	adds	r3, r7, #7
 800187a:	781b      	ldrb	r3, [r3, #0]
 800187c:	2b7f      	cmp	r3, #127	; 0x7f
 800187e:	d809      	bhi.n	8001894 <__NVIC_EnableIRQ+0x28>
  {
    NVIC->ISER[0U] = (uint32_t)(1UL << (((uint32_t)IRQn) & 0x1FUL));
 8001880:	1dfb      	adds	r3, r7, #7
 8001882:	781b      	ldrb	r3, [r3, #0]
 8001884:	001a      	movs	r2, r3
 8001886:	231f      	movs	r3, #31
 8001888:	401a      	ands	r2, r3
 800188a:	4b04      	ldr	r3, [pc, #16]	; (800189c <__NVIC_EnableIRQ+0x30>)
 800188c:	2101      	movs	r1, #1
 800188e:	4091      	lsls	r1, r2
 8001890:	000a      	movs	r2, r1
 8001892:	601a      	str	r2, [r3, #0]
  }
}
 8001894:	46c0      	nop			; (mov r8, r8)
 8001896:	46bd      	mov	sp, r7
 8001898:	b002      	add	sp, #8
 800189a:	bd80      	pop	{r7, pc}
 800189c:	e000e100 	.word	0xe000e100

080018a0 <__NVIC_SetPriority>:
  \param [in]      IRQn  Interrupt number.
  \param [in]  priority  Priority to set.
  \note    The priority cannot be set for every processor exception.
 */
__STATIC_INLINE void __NVIC_SetPriority(IRQn_Type IRQn, uint32_t priority)
{
 80018a0:	b590      	push	{r4, r7, lr}
 80018a2:	b083      	sub	sp, #12
 80018a4:	af00      	add	r7, sp, #0
 80018a6:	0002      	movs	r2, r0
 80018a8:	6039      	str	r1, [r7, #0]
 80018aa:	1dfb      	adds	r3, r7, #7
 80018ac:	701a      	strb	r2, [r3, #0]
  if ((int32_t)(IRQn) >= 0)
 80018ae:	1dfb      	adds	r3, r7, #7
 80018b0:	781b      	ldrb	r3, [r3, #0]
 80018b2:	2b7f      	cmp	r3, #127	; 0x7f
 80018b4:	d828      	bhi.n	8001908 <__NVIC_SetPriority+0x68>
  {
    NVIC->IP[_IP_IDX(IRQn)]  = ((uint32_t)(NVIC->IP[_IP_IDX(IRQn)]  & ~(0xFFUL << _BIT_SHIFT(IRQn))) |
 80018b6:	4a2f      	ldr	r2, [pc, #188]	; (8001974 <__NVIC_SetPriority+0xd4>)
 80018b8:	1dfb      	adds	r3, r7, #7
 80018ba:	781b      	ldrb	r3, [r3, #0]
 80018bc:	b25b      	sxtb	r3, r3
 80018be:	089b      	lsrs	r3, r3, #2
 80018c0:	33c0      	adds	r3, #192	; 0xc0
 80018c2:	009b      	lsls	r3, r3, #2
 80018c4:	589b      	ldr	r3, [r3, r2]
 80018c6:	1dfa      	adds	r2, r7, #7
 80018c8:	7812      	ldrb	r2, [r2, #0]
 80018ca:	0011      	movs	r1, r2
 80018cc:	2203      	movs	r2, #3
 80018ce:	400a      	ands	r2, r1
 80018d0:	00d2      	lsls	r2, r2, #3
 80018d2:	21ff      	movs	r1, #255	; 0xff
 80018d4:	4091      	lsls	r1, r2
 80018d6:	000a      	movs	r2, r1
 80018d8:	43d2      	mvns	r2, r2
 80018da:	401a      	ands	r2, r3
 80018dc:	0011      	movs	r1, r2
       (((priority << (8U - __NVIC_PRIO_BITS)) & (uint32_t)0xFFUL) << _BIT_SHIFT(IRQn)));
 80018de:	683b      	ldr	r3, [r7, #0]
 80018e0:	019b      	lsls	r3, r3, #6
 80018e2:	22ff      	movs	r2, #255	; 0xff
 80018e4:	401a      	ands	r2, r3
 80018e6:	1dfb      	adds	r3, r7, #7
 80018e8:	781b      	ldrb	r3, [r3, #0]
 80018ea:	0018      	movs	r0, r3
 80018ec:	2303      	movs	r3, #3
 80018ee:	4003      	ands	r3, r0
 80018f0:	00db      	lsls	r3, r3, #3
 80018f2:	409a      	lsls	r2, r3
    NVIC->IP[_IP_IDX(IRQn)]  = ((uint32_t)(NVIC->IP[_IP_IDX(IRQn)]  & ~(0xFFUL << _BIT_SHIFT(IRQn))) |
 80018f4:	481f      	ldr	r0, [pc, #124]	; (8001974 <__NVIC_SetPriority+0xd4>)
 80018f6:	1dfb      	adds	r3, r7, #7
 80018f8:	781b      	ldrb	r3, [r3, #0]
 80018fa:	b25b      	sxtb	r3, r3
 80018fc:	089b      	lsrs	r3, r3, #2
 80018fe:	430a      	orrs	r2, r1
 8001900:	33c0      	adds	r3, #192	; 0xc0
 8001902:	009b      	lsls	r3, r3, #2
 8001904:	501a      	str	r2, [r3, r0]
  else
  {
    SCB->SHP[_SHP_IDX(IRQn)] = ((uint32_t)(SCB->SHP[_SHP_IDX(IRQn)] & ~(0xFFUL << _BIT_SHIFT(IRQn))) |
       (((priority << (8U - __NVIC_PRIO_BITS)) & (uint32_t)0xFFUL) << _BIT_SHIFT(IRQn)));
  }
}
 8001906:	e031      	b.n	800196c <__NVIC_SetPriority+0xcc>
    SCB->SHP[_SHP_IDX(IRQn)] = ((uint32_t)(SCB->SHP[_SHP_IDX(IRQn)] & ~(0xFFUL << _BIT_SHIFT(IRQn))) |
 8001908:	4a1b      	ldr	r2, [pc, #108]	; (8001978 <__NVIC_SetPriority+0xd8>)
 800190a:	1dfb      	adds	r3, r7, #7
 800190c:	781b      	ldrb	r3, [r3, #0]
 800190e:	0019      	movs	r1, r3
 8001910:	230f      	movs	r3, #15
 8001912:	400b      	ands	r3, r1
 8001914:	3b08      	subs	r3, #8
 8001916:	089b      	lsrs	r3, r3, #2
 8001918:	3306      	adds	r3, #6
 800191a:	009b      	lsls	r3, r3, #2
 800191c:	18d3      	adds	r3, r2, r3
 800191e:	3304      	adds	r3, #4
 8001920:	681b      	ldr	r3, [r3, #0]
 8001922:	1dfa      	adds	r2, r7, #7
 8001924:	7812      	ldrb	r2, [r2, #0]
 8001926:	0011      	movs	r1, r2
 8001928:	2203      	movs	r2, #3
 800192a:	400a      	ands	r2, r1
 800192c:	00d2      	lsls	r2, r2, #3
 800192e:	21ff      	movs	r1, #255	; 0xff
 8001930:	4091      	lsls	r1, r2
 8001932:	000a      	movs	r2, r1
 8001934:	43d2      	mvns	r2, r2
 8001936:	401a      	ands	r2, r3
 8001938:	0011      	movs	r1, r2
       (((priority << (8U - __NVIC_PRIO_BITS)) & (uint32_t)0xFFUL) << _BIT_SHIFT(IRQn)));
 800193a:	683b      	ldr	r3, [r7, #0]
 800193c:	019b      	lsls	r3, r3, #6
 800193e:	22ff      	movs	r2, #255	; 0xff
 8001940:	401a      	ands	r2, r3
 8001942:	1dfb      	adds	r3, r7, #7
 8001944:	781b      	ldrb	r3, [r3, #0]
 8001946:	0018      	movs	r0, r3
 8001948:	2303      	movs	r3, #3
 800194a:	4003      	ands	r3, r0
 800194c:	00db      	lsls	r3, r3, #3
 800194e:	409a      	lsls	r2, r3
    SCB->SHP[_SHP_IDX(IRQn)] = ((uint32_t)(SCB->SHP[_SHP_IDX(IRQn)] & ~(0xFFUL << _BIT_SHIFT(IRQn))) |
 8001950:	4809      	ldr	r0, [pc, #36]	; (8001978 <__NVIC_SetPriority+0xd8>)
 8001952:	1dfb      	adds	r3, r7, #7
 8001954:	781b      	ldrb	r3, [r3, #0]
 8001956:	001c      	movs	r4, r3
 8001958:	230f      	movs	r3, #15
 800195a:	4023      	ands	r3, r4
 800195c:	3b08      	subs	r3, #8
 800195e:	089b      	lsrs	r3, r3, #2
 8001960:	430a      	orrs	r2, r1
 8001962:	3306      	adds	r3, #6
 8001964:	009b      	lsls	r3, r3, #2
 8001966:	18c3      	adds	r3, r0, r3
 8001968:	3304      	adds	r3, #4
 800196a:	601a      	str	r2, [r3, #0]
}
 800196c:	46c0      	nop			; (mov r8, r8)
 800196e:	46bd      	mov	sp, r7
 8001970:	b003      	add	sp, #12
 8001972:	bd90      	pop	{r4, r7, pc}
 8001974:	e000e100 	.word	0xe000e100
 8001978:	e000ed00 	.word	0xe000ed00

0800197c <SysTick_Config>:
  \note    When the variable <b>__Vendor_SysTickConfig</b> is set to 1, then the
           function <b>SysTick_Config</b> is not included. In this case, the file <b><i>device</i>.h</b>
           must contain a vendor-specific implementation of this function.
 */
__STATIC_INLINE uint32_t SysTick_Config(uint32_t ticks)
{
 800197c:	b580      	push	{r7, lr}
 800197e:	b082      	sub	sp, #8
 8001980:	af00      	add	r7, sp, #0
 8001982:	6078      	str	r0, [r7, #4]
  if ((ticks - 1UL) > SysTick_LOAD_RELOAD_Msk)
 8001984:	687b      	ldr	r3, [r7, #4]
 8001986:	1e5a      	subs	r2, r3, #1
 8001988:	2380      	movs	r3, #128	; 0x80
 800198a:	045b      	lsls	r3, r3, #17
 800198c:	429a      	cmp	r2, r3
 800198e:	d301      	bcc.n	8001994 <SysTick_Config+0x18>
  {
    return (1UL);                                                   /* Reload value impossible */
 8001990:	2301      	movs	r3, #1
 8001992:	e010      	b.n	80019b6 <SysTick_Config+0x3a>
  }

  SysTick->LOAD  = (uint32_t)(ticks - 1UL);                         /* set reload register */
 8001994:	4b0a      	ldr	r3, [pc, #40]	; (80019c0 <SysTick_Config+0x44>)
 8001996:	687a      	ldr	r2, [r7, #4]
 8001998:	3a01      	subs	r2, #1
 800199a:	605a      	str	r2, [r3, #4]
  NVIC_SetPriority (SysTick_IRQn, (1UL << __NVIC_PRIO_BITS) - 1UL); /* set Priority for Systick Interrupt */
 800199c:	2301      	movs	r3, #1
 800199e:	425b      	negs	r3, r3
 80019a0:	2103      	movs	r1, #3
 80019a2:	0018      	movs	r0, r3
 80019a4:	f7ff ff7c 	bl	80018a0 <__NVIC_SetPriority>
  SysTick->VAL   = 0UL;                                             /* Load the SysTick Counter Value */
 80019a8:	4b05      	ldr	r3, [pc, #20]	; (80019c0 <SysTick_Config+0x44>)
 80019aa:	2200      	movs	r2, #0
 80019ac:	609a      	str	r2, [r3, #8]
  SysTick->CTRL  = SysTick_CTRL_CLKSOURCE_Msk |
 80019ae:	4b04      	ldr	r3, [pc, #16]	; (80019c0 <SysTick_Config+0x44>)
 80019b0:	2207      	movs	r2, #7
 80019b2:	601a      	str	r2, [r3, #0]
                   SysTick_CTRL_TICKINT_Msk   |
                   SysTick_CTRL_ENABLE_Msk;                         /* Enable SysTick IRQ and SysTick Timer */
  return (0UL);                                                     /* Function successful */
 80019b4:	2300      	movs	r3, #0
}
 80019b6:	0018      	movs	r0, r3
 80019b8:	46bd      	mov	sp, r7
 80019ba:	b002      	add	sp, #8
 80019bc:	bd80      	pop	{r7, pc}
 80019be:	46c0      	nop			; (mov r8, r8)
 80019c0:	e000e010 	.word	0xe000e010

080019c4 <HAL_NVIC_SetPriority>:
  *         with stm32f0xx devices, this parameter is a dummy value and it is ignored, because 
  *         no subpriority supported in Cortex M0 based products.   
  * @retval None
  */
void HAL_NVIC_SetPriority(IRQn_Type IRQn, uint32_t PreemptPriority, uint32_t SubPriority)
{ 
 80019c4:	b580      	push	{r7, lr}
 80019c6:	b084      	sub	sp, #16
 80019c8:	af00      	add	r7, sp, #0
 80019ca:	60b9      	str	r1, [r7, #8]
 80019cc:	607a      	str	r2, [r7, #4]
 80019ce:	210f      	movs	r1, #15
 80019d0:	187b      	adds	r3, r7, r1
 80019d2:	1c02      	adds	r2, r0, #0
 80019d4:	701a      	strb	r2, [r3, #0]
  /* Check the parameters */
  assert_param(IS_NVIC_PREEMPTION_PRIORITY(PreemptPriority));
  NVIC_SetPriority(IRQn,PreemptPriority);
 80019d6:	68ba      	ldr	r2, [r7, #8]
 80019d8:	187b      	adds	r3, r7, r1
 80019da:	781b      	ldrb	r3, [r3, #0]
 80019dc:	b25b      	sxtb	r3, r3
 80019de:	0011      	movs	r1, r2
 80019e0:	0018      	movs	r0, r3
 80019e2:	f7ff ff5d 	bl	80018a0 <__NVIC_SetPriority>
}
 80019e6:	46c0      	nop			; (mov r8, r8)
 80019e8:	46bd      	mov	sp, r7
 80019ea:	b004      	add	sp, #16
 80019ec:	bd80      	pop	{r7, pc}

080019ee <HAL_NVIC_EnableIRQ>:
  *         This parameter can be an enumerator of IRQn_Type enumeration
  *         (For the complete STM32 Devices IRQ Channels list, please refer to the appropriate CMSIS device file (stm32f0xxxx.h))
  * @retval None
  */
void HAL_NVIC_EnableIRQ(IRQn_Type IRQn)
{
 80019ee:	b580      	push	{r7, lr}
 80019f0:	b082      	sub	sp, #8
 80019f2:	af00      	add	r7, sp, #0
 80019f4:	0002      	movs	r2, r0
 80019f6:	1dfb      	adds	r3, r7, #7
 80019f8:	701a      	strb	r2, [r3, #0]
  /* Check the parameters */
  assert_param(IS_NVIC_DEVICE_IRQ(IRQn));
  
  /* Enable interrupt */
  NVIC_EnableIRQ(IRQn);
 80019fa:	1dfb      	adds	r3, r7, #7
 80019fc:	781b      	ldrb	r3, [r3, #0]
 80019fe:	b25b      	sxtb	r3, r3
 8001a00:	0018      	movs	r0, r3
 8001a02:	f7ff ff33 	bl	800186c <__NVIC_EnableIRQ>
}
 8001a06:	46c0      	nop			; (mov r8, r8)
 8001a08:	46bd      	mov	sp, r7
 8001a0a:	b002      	add	sp, #8
 8001a0c:	bd80      	pop	{r7, pc}

08001a0e <HAL_SYSTICK_Config>:
  * @param  TicksNumb Specifies the ticks Number of ticks between two interrupts.
  * @retval status:  - 0  Function succeeded.
  *                  - 1  Function failed.
  */
uint32_t HAL_SYSTICK_Config(uint32_t TicksNumb)
{
 8001a0e:	b580      	push	{r7, lr}
 8001a10:	b082      	sub	sp, #8
 8001a12:	af00      	add	r7, sp, #0
 8001a14:	6078      	str	r0, [r7, #4]
   return SysTick_Config(TicksNumb);
 8001a16:	687b      	ldr	r3, [r7, #4]
 8001a18:	0018      	movs	r0, r3
 8001a1a:	f7ff ffaf 	bl	800197c <SysTick_Config>
 8001a1e:	0003      	movs	r3, r0
}
 8001a20:	0018      	movs	r0, r3
 8001a22:	46bd      	mov	sp, r7
 8001a24:	b002      	add	sp, #8
 8001a26:	bd80      	pop	{r7, pc}

08001a28 <HAL_DMA_Init>:
  * @param  hdma Pointer to a DMA_HandleTypeDef structure that contains
  *               the configuration information for the specified DMA Channel.  
  * @retval HAL status
  */
HAL_StatusTypeDef HAL_DMA_Init(DMA_HandleTypeDef *hdma)
{ 
 8001a28:	b580      	push	{r7, lr}
 8001a2a:	b084      	sub	sp, #16
 8001a2c:	af00      	add	r7, sp, #0
 8001a2e:	6078      	str	r0, [r7, #4]
  uint32_t tmp = 0U;
 8001a30:	2300      	movs	r3, #0
 8001a32:	60fb      	str	r3, [r7, #12]
  
  /* Check the DMA handle allocation */
  if(NULL == hdma)
 8001a34:	687b      	ldr	r3, [r7, #4]
 8001a36:	2b00      	cmp	r3, #0
 8001a38:	d101      	bne.n	8001a3e <HAL_DMA_Init+0x16>
  {
    return HAL_ERROR;
 8001a3a:	2301      	movs	r3, #1
 8001a3c:	e036      	b.n	8001aac <HAL_DMA_Init+0x84>
  assert_param(IS_DMA_MEMORY_DATA_SIZE(hdma->Init.MemDataAlignment));
  assert_param(IS_DMA_MODE(hdma->Init.Mode));
  assert_param(IS_DMA_PRIORITY(hdma->Init.Priority));
  
  /* Change DMA peripheral state */
  hdma->State = HAL_DMA_STATE_BUSY;
 8001a3e:	687b      	ldr	r3, [r7, #4]
 8001a40:	2221      	movs	r2, #33	; 0x21
 8001a42:	2102      	movs	r1, #2
 8001a44:	5499      	strb	r1, [r3, r2]

  /* Get the CR register value */
  tmp = hdma->Instance->CCR;
 8001a46:	687b      	ldr	r3, [r7, #4]
 8001a48:	681b      	ldr	r3, [r3, #0]
 8001a4a:	681b      	ldr	r3, [r3, #0]
 8001a4c:	60fb      	str	r3, [r7, #12]
  
  /* Clear PL, MSIZE, PSIZE, MINC, PINC, CIRC, DIR bits */
  tmp &= ((uint32_t)~(DMA_CCR_PL    | DMA_CCR_MSIZE  | DMA_CCR_PSIZE  | \
 8001a4e:	68fb      	ldr	r3, [r7, #12]
 8001a50:	4a18      	ldr	r2, [pc, #96]	; (8001ab4 <HAL_DMA_Init+0x8c>)
 8001a52:	4013      	ands	r3, r2
 8001a54:	60fb      	str	r3, [r7, #12]
                      DMA_CCR_MINC  | DMA_CCR_PINC   | DMA_CCR_CIRC   | \
                      DMA_CCR_DIR));
  
  /* Prepare the DMA Channel configuration */
  tmp |=  hdma->Init.Direction        |
 8001a56:	687b      	ldr	r3, [r7, #4]
 8001a58:	685a      	ldr	r2, [r3, #4]
          hdma->Init.PeriphInc           | hdma->Init.MemInc           |
 8001a5a:	687b      	ldr	r3, [r7, #4]
 8001a5c:	689b      	ldr	r3, [r3, #8]
  tmp |=  hdma->Init.Direction        |
 8001a5e:	431a      	orrs	r2, r3
          hdma->Init.PeriphInc           | hdma->Init.MemInc           |
 8001a60:	687b      	ldr	r3, [r7, #4]
 8001a62:	68db      	ldr	r3, [r3, #12]
 8001a64:	431a      	orrs	r2, r3
          hdma->Init.PeriphDataAlignment | hdma->Init.MemDataAlignment |
 8001a66:	687b      	ldr	r3, [r7, #4]
 8001a68:	691b      	ldr	r3, [r3, #16]
          hdma->Init.PeriphInc           | hdma->Init.MemInc           |
 8001a6a:	431a      	orrs	r2, r3
          hdma->Init.PeriphDataAlignment | hdma->Init.MemDataAlignment |
 8001a6c:	687b      	ldr	r3, [r7, #4]
 8001a6e:	695b      	ldr	r3, [r3, #20]
 8001a70:	431a      	orrs	r2, r3
          hdma->Init.Mode                | hdma->Init.Priority;
 8001a72:	687b      	ldr	r3, [r7, #4]
 8001a74:	699b      	ldr	r3, [r3, #24]
          hdma->Init.PeriphDataAlignment | hdma->Init.MemDataAlignment |
 8001a76:	431a      	orrs	r2, r3
          hdma->Init.Mode                | hdma->Init.Priority;
 8001a78:	687b      	ldr	r3, [r7, #4]
 8001a7a:	69db      	ldr	r3, [r3, #28]
 8001a7c:	4313      	orrs	r3, r2
  tmp |=  hdma->Init.Direction        |
 8001a7e:	68fa      	ldr	r2, [r7, #12]
 8001a80:	4313      	orrs	r3, r2
 8001a82:	60fb      	str	r3, [r7, #12]

  /* Write to DMA Channel CR register */
  hdma->Instance->CCR = tmp;  
 8001a84:	687b      	ldr	r3, [r7, #4]
 8001a86:	681b      	ldr	r3, [r3, #0]
 8001a88:	68fa      	ldr	r2, [r7, #12]
 8001a8a:	601a      	str	r2, [r3, #0]
  
  /* Initialize DmaBaseAddress and ChannelIndex parameters used 
     by HAL_DMA_IRQHandler() and HAL_DMA_PollForTransfer() */
  DMA_CalcBaseAndBitshift(hdma);
 8001a8c:	687b      	ldr	r3, [r7, #4]
 8001a8e:	0018      	movs	r0, r3
 8001a90:	f000 f932 	bl	8001cf8 <DMA_CalcBaseAndBitshift>
  
  /* Initialise the error code */
  hdma->ErrorCode = HAL_DMA_ERROR_NONE;
 8001a94:	687b      	ldr	r3, [r7, #4]
 8001a96:	2200      	movs	r2, #0
 8001a98:	639a      	str	r2, [r3, #56]	; 0x38

  /* Initialize the DMA state*/
  hdma->State = HAL_DMA_STATE_READY;
 8001a9a:	687b      	ldr	r3, [r7, #4]
 8001a9c:	2221      	movs	r2, #33	; 0x21
 8001a9e:	2101      	movs	r1, #1
 8001aa0:	5499      	strb	r1, [r3, r2]
  
  /* Allocate lock resource and initialize it */
  hdma->Lock = HAL_UNLOCKED;
 8001aa2:	687b      	ldr	r3, [r7, #4]
 8001aa4:	2220      	movs	r2, #32
 8001aa6:	2100      	movs	r1, #0
 8001aa8:	5499      	strb	r1, [r3, r2]
  
  return HAL_OK;
 8001aaa:	2300      	movs	r3, #0
}  
 8001aac:	0018      	movs	r0, r3
 8001aae:	46bd      	mov	sp, r7
 8001ab0:	b004      	add	sp, #16
 8001ab2:	bd80      	pop	{r7, pc}
 8001ab4:	ffffc00f 	.word	0xffffc00f

08001ab8 <HAL_DMA_Abort>:
  * @param  hdma  pointer to a DMA_HandleTypeDef structure that contains
  *               the configuration information for the specified DMA Channel.
  * @retval HAL status
  */
HAL_StatusTypeDef HAL_DMA_Abort(DMA_HandleTypeDef *hdma)
{
 8001ab8:	b580      	push	{r7, lr}
 8001aba:	b082      	sub	sp, #8
 8001abc:	af00      	add	r7, sp, #0
 8001abe:	6078      	str	r0, [r7, #4]
  if(hdma->State != HAL_DMA_STATE_BUSY)
 8001ac0:	687b      	ldr	r3, [r7, #4]
 8001ac2:	2221      	movs	r2, #33	; 0x21
 8001ac4:	5c9b      	ldrb	r3, [r3, r2]
 8001ac6:	b2db      	uxtb	r3, r3
 8001ac8:	2b02      	cmp	r3, #2
 8001aca:	d008      	beq.n	8001ade <HAL_DMA_Abort+0x26>
  {
    /* no transfer ongoing */
    hdma->ErrorCode = HAL_DMA_ERROR_NO_XFER;
 8001acc:	687b      	ldr	r3, [r7, #4]
 8001ace:	2204      	movs	r2, #4
 8001ad0:	639a      	str	r2, [r3, #56]	; 0x38
    
    /* Process Unlocked */
    __HAL_UNLOCK(hdma);
 8001ad2:	687b      	ldr	r3, [r7, #4]
 8001ad4:	2220      	movs	r2, #32
 8001ad6:	2100      	movs	r1, #0
 8001ad8:	5499      	strb	r1, [r3, r2]
    
    return HAL_ERROR;
 8001ada:	2301      	movs	r3, #1
 8001adc:	e020      	b.n	8001b20 <HAL_DMA_Abort+0x68>
  }
  else
  {
    /* Disable DMA IT */
    hdma->Instance->CCR &= ~(DMA_IT_TC | DMA_IT_HT | DMA_IT_TE);
 8001ade:	687b      	ldr	r3, [r7, #4]
 8001ae0:	681b      	ldr	r3, [r3, #0]
 8001ae2:	681a      	ldr	r2, [r3, #0]
 8001ae4:	687b      	ldr	r3, [r7, #4]
 8001ae6:	681b      	ldr	r3, [r3, #0]
 8001ae8:	210e      	movs	r1, #14
 8001aea:	438a      	bics	r2, r1
 8001aec:	601a      	str	r2, [r3, #0]
    
    /* Disable the channel */
    hdma->Instance->CCR &= ~DMA_CCR_EN;
 8001aee:	687b      	ldr	r3, [r7, #4]
 8001af0:	681b      	ldr	r3, [r3, #0]
 8001af2:	681a      	ldr	r2, [r3, #0]
 8001af4:	687b      	ldr	r3, [r7, #4]
 8001af6:	681b      	ldr	r3, [r3, #0]
 8001af8:	2101      	movs	r1, #1
 8001afa:	438a      	bics	r2, r1
 8001afc:	601a      	str	r2, [r3, #0]
    
    /* Clear all flags */
    hdma->DmaBaseAddress->IFCR = (DMA_FLAG_GL1 << hdma->ChannelIndex);
 8001afe:	687b      	ldr	r3, [r7, #4]
 8001b00:	6c1a      	ldr	r2, [r3, #64]	; 0x40
 8001b02:	687b      	ldr	r3, [r7, #4]
 8001b04:	6bdb      	ldr	r3, [r3, #60]	; 0x3c
 8001b06:	2101      	movs	r1, #1
 8001b08:	4091      	lsls	r1, r2
 8001b0a:	000a      	movs	r2, r1
 8001b0c:	605a      	str	r2, [r3, #4]
  }
  /* Change the DMA state*/
  hdma->State = HAL_DMA_STATE_READY; 
 8001b0e:	687b      	ldr	r3, [r7, #4]
 8001b10:	2221      	movs	r2, #33	; 0x21
 8001b12:	2101      	movs	r1, #1
 8001b14:	5499      	strb	r1, [r3, r2]
  
  /* Process Unlocked */
  __HAL_UNLOCK(hdma);
 8001b16:	687b      	ldr	r3, [r7, #4]
 8001b18:	2220      	movs	r2, #32
 8001b1a:	2100      	movs	r1, #0
 8001b1c:	5499      	strb	r1, [r3, r2]
  
  return HAL_OK;
 8001b1e:	2300      	movs	r3, #0
}
 8001b20:	0018      	movs	r0, r3
 8001b22:	46bd      	mov	sp, r7
 8001b24:	b002      	add	sp, #8
 8001b26:	bd80      	pop	{r7, pc}

08001b28 <HAL_DMA_Abort_IT>:
  * @param  hdma  pointer to a DMA_HandleTypeDef structure that contains
  *               the configuration information for the specified DMA Stream.
  * @retval HAL status
  */
HAL_StatusTypeDef HAL_DMA_Abort_IT(DMA_HandleTypeDef *hdma)
{  
 8001b28:	b580      	push	{r7, lr}
 8001b2a:	b084      	sub	sp, #16
 8001b2c:	af00      	add	r7, sp, #0
 8001b2e:	6078      	str	r0, [r7, #4]
  HAL_StatusTypeDef status = HAL_OK;
 8001b30:	210f      	movs	r1, #15
 8001b32:	187b      	adds	r3, r7, r1
 8001b34:	2200      	movs	r2, #0
 8001b36:	701a      	strb	r2, [r3, #0]
  
  if(HAL_DMA_STATE_BUSY != hdma->State)
 8001b38:	687b      	ldr	r3, [r7, #4]
 8001b3a:	2221      	movs	r2, #33	; 0x21
 8001b3c:	5c9b      	ldrb	r3, [r3, r2]
 8001b3e:	b2db      	uxtb	r3, r3
 8001b40:	2b02      	cmp	r3, #2
 8001b42:	d006      	beq.n	8001b52 <HAL_DMA_Abort_IT+0x2a>
  {
    /* no transfer ongoing */
    hdma->ErrorCode = HAL_DMA_ERROR_NO_XFER;
 8001b44:	687b      	ldr	r3, [r7, #4]
 8001b46:	2204      	movs	r2, #4
 8001b48:	639a      	str	r2, [r3, #56]	; 0x38
        
    status = HAL_ERROR;
 8001b4a:	187b      	adds	r3, r7, r1
 8001b4c:	2201      	movs	r2, #1
 8001b4e:	701a      	strb	r2, [r3, #0]
 8001b50:	e028      	b.n	8001ba4 <HAL_DMA_Abort_IT+0x7c>
  }
  else
  { 
  
    /* Disable DMA IT */
    hdma->Instance->CCR &= ~(DMA_IT_TC | DMA_IT_HT | DMA_IT_TE);
 8001b52:	687b      	ldr	r3, [r7, #4]
 8001b54:	681b      	ldr	r3, [r3, #0]
 8001b56:	681a      	ldr	r2, [r3, #0]
 8001b58:	687b      	ldr	r3, [r7, #4]
 8001b5a:	681b      	ldr	r3, [r3, #0]
 8001b5c:	210e      	movs	r1, #14
 8001b5e:	438a      	bics	r2, r1
 8001b60:	601a      	str	r2, [r3, #0]
    
    /* Disable the channel */
    hdma->Instance->CCR &= ~DMA_CCR_EN;
 8001b62:	687b      	ldr	r3, [r7, #4]
 8001b64:	681b      	ldr	r3, [r3, #0]
 8001b66:	681a      	ldr	r2, [r3, #0]
 8001b68:	687b      	ldr	r3, [r7, #4]
 8001b6a:	681b      	ldr	r3, [r3, #0]
 8001b6c:	2101      	movs	r1, #1
 8001b6e:	438a      	bics	r2, r1
 8001b70:	601a      	str	r2, [r3, #0]
    
    /* Clear all flags */
    hdma->DmaBaseAddress->IFCR = DMA_FLAG_GL1 << hdma->ChannelIndex;
 8001b72:	687b      	ldr	r3, [r7, #4]
 8001b74:	6c1a      	ldr	r2, [r3, #64]	; 0x40
 8001b76:	687b      	ldr	r3, [r7, #4]
 8001b78:	6bdb      	ldr	r3, [r3, #60]	; 0x3c
 8001b7a:	2101      	movs	r1, #1
 8001b7c:	4091      	lsls	r1, r2
 8001b7e:	000a      	movs	r2, r1
 8001b80:	605a      	str	r2, [r3, #4]
    
    /* Change the DMA state */
    hdma->State = HAL_DMA_STATE_READY;
 8001b82:	687b      	ldr	r3, [r7, #4]
 8001b84:	2221      	movs	r2, #33	; 0x21
 8001b86:	2101      	movs	r1, #1
 8001b88:	5499      	strb	r1, [r3, r2]
    
    /* Process Unlocked */
    __HAL_UNLOCK(hdma);
 8001b8a:	687b      	ldr	r3, [r7, #4]
 8001b8c:	2220      	movs	r2, #32
 8001b8e:	2100      	movs	r1, #0
 8001b90:	5499      	strb	r1, [r3, r2]
    
    /* Call User Abort callback */ 
    if(hdma->XferAbortCallback != NULL)
 8001b92:	687b      	ldr	r3, [r7, #4]
 8001b94:	6b5b      	ldr	r3, [r3, #52]	; 0x34
 8001b96:	2b00      	cmp	r3, #0
 8001b98:	d004      	beq.n	8001ba4 <HAL_DMA_Abort_IT+0x7c>
    {
      hdma->XferAbortCallback(hdma);
 8001b9a:	687b      	ldr	r3, [r7, #4]
 8001b9c:	6b5b      	ldr	r3, [r3, #52]	; 0x34
 8001b9e:	687a      	ldr	r2, [r7, #4]
 8001ba0:	0010      	movs	r0, r2
 8001ba2:	4798      	blx	r3
    } 
  }
  return status;
 8001ba4:	230f      	movs	r3, #15
 8001ba6:	18fb      	adds	r3, r7, r3
 8001ba8:	781b      	ldrb	r3, [r3, #0]
}
 8001baa:	0018      	movs	r0, r3
 8001bac:	46bd      	mov	sp, r7
 8001bae:	b004      	add	sp, #16
 8001bb0:	bd80      	pop	{r7, pc}

08001bb2 <HAL_DMA_IRQHandler>:
  * @param  hdma pointer to a DMA_HandleTypeDef structure that contains
  *               the configuration information for the specified DMA Channel.  
  * @retval None
  */
void HAL_DMA_IRQHandler(DMA_HandleTypeDef *hdma)
{
 8001bb2:	b580      	push	{r7, lr}
 8001bb4:	b084      	sub	sp, #16
 8001bb6:	af00      	add	r7, sp, #0
 8001bb8:	6078      	str	r0, [r7, #4]
	uint32_t flag_it = hdma->DmaBaseAddress->ISR;
 8001bba:	687b      	ldr	r3, [r7, #4]
 8001bbc:	6bdb      	ldr	r3, [r3, #60]	; 0x3c
 8001bbe:	681b      	ldr	r3, [r3, #0]
 8001bc0:	60fb      	str	r3, [r7, #12]
  uint32_t source_it = hdma->Instance->CCR;
 8001bc2:	687b      	ldr	r3, [r7, #4]
 8001bc4:	681b      	ldr	r3, [r3, #0]
 8001bc6:	681b      	ldr	r3, [r3, #0]
 8001bc8:	60bb      	str	r3, [r7, #8]
          
  /* Half Transfer Complete Interrupt management ******************************/
  if ((RESET != (flag_it & (DMA_FLAG_HT1 << hdma->ChannelIndex))) && (RESET != (source_it & DMA_IT_HT)))
 8001bca:	687b      	ldr	r3, [r7, #4]
 8001bcc:	6c1b      	ldr	r3, [r3, #64]	; 0x40
 8001bce:	2204      	movs	r2, #4
 8001bd0:	409a      	lsls	r2, r3
 8001bd2:	0013      	movs	r3, r2
 8001bd4:	68fa      	ldr	r2, [r7, #12]
 8001bd6:	4013      	ands	r3, r2
 8001bd8:	d024      	beq.n	8001c24 <HAL_DMA_IRQHandler+0x72>
 8001bda:	68bb      	ldr	r3, [r7, #8]
 8001bdc:	2204      	movs	r2, #4
 8001bde:	4013      	ands	r3, r2
 8001be0:	d020      	beq.n	8001c24 <HAL_DMA_IRQHandler+0x72>
  {
  	/* Disable the half transfer interrupt if the DMA mode is not CIRCULAR */
  	if((hdma->Instance->CCR & DMA_CCR_CIRC) == 0U)
 8001be2:	687b      	ldr	r3, [r7, #4]
 8001be4:	681b      	ldr	r3, [r3, #0]
 8001be6:	681b      	ldr	r3, [r3, #0]
