
EEE3096S_2022_Prac_2_Delays_and_I2C.elf:     file format elf32-littlearm

Sections:
Idx Name          Size      VMA       LMA       File off  Algn
  0 .isr_vector   000000c0  08000000  08000000  00010000  2**0
                  CONTENTS, ALLOC, LOAD, READONLY, DATA
  1 .text         000047c8  080000c0  080000c0  000100c0  2**2
                  CONTENTS, ALLOC, LOAD, READONLY, CODE
  2 .rodata       000000f0  08004888  08004888  00014888  2**2
                  CONTENTS, ALLOC, LOAD, READONLY, DATA
  3 .ARM.extab    00000000  08004978  08004978  00020070  2**0
                  CONTENTS
  4 .ARM          00000000  08004978  08004978  00020070  2**0
                  CONTENTS
  5 .preinit_array 00000000  08004978  08004978  00020070  2**0
                  CONTENTS, ALLOC, LOAD, DATA
  6 .init_array   00000004  08004978  08004978  00014978  2**2
                  CONTENTS, ALLOC, LOAD, DATA
  7 .fini_array   00000004  0800497c  0800497c  0001497c  2**2
                  CONTENTS, ALLOC, LOAD, DATA
  8 .data         00000070  20000000  08004980  00020000  2**2
                  CONTENTS, ALLOC, LOAD, DATA
  9 .bss          0000015c  20000070  080049f0  00020070  2**2
                  ALLOC
 10 ._user_heap_stack 00000604  200001cc  080049f0  000201cc  2**0
                  ALLOC
 11 .ARM.attributes 00000028  00000000  00000000  00020070  2**0
                  CONTENTS, READONLY
 12 .debug_info   0000c803  00000000  00000000  00020098  2**0
                  CONTENTS, READONLY, DEBUGGING, OCTETS
 13 .debug_abbrev 00001e57  00000000  00000000  0002c89b  2**0
                  CONTENTS, READONLY, DEBUGGING, OCTETS
 14 .debug_aranges 00000a10  00000000  00000000  0002e6f8  2**3
                  CONTENTS, READONLY, DEBUGGING, OCTETS
 15 .debug_ranges 00000948  00000000  00000000  0002f108  2**3
                  CONTENTS, READONLY, DEBUGGING, OCTETS
 16 .debug_macro  000120fb  00000000  00000000  0002fa50  2**0
                  CONTENTS, READONLY, DEBUGGING, OCTETS
 17 .debug_line   0000d933  00000000  00000000  00041b4b  2**0
                  CONTENTS, READONLY, DEBUGGING, OCTETS
 18 .debug_str    0006a254  00000000  00000000  0004f47e  2**0
                  CONTENTS, READONLY, DEBUGGING, OCTETS
 19 .comment      00000050  00000000  00000000  000b96d2  2**0
                  CONTENTS, READONLY
 20 .debug_frame  00002748  00000000  00000000  000b9724  2**2
                  CONTENTS, READONLY, DEBUGGING, OCTETS

Disassembly of section .text:

080000c0 <__do_global_dtors_aux>:
 80000c0:	b510      	push	{r4, lr}
 80000c2:	4c06      	ldr	r4, [pc, #24]	; (80000dc <__do_global_dtors_aux+0x1c>)
 80000c4:	7823      	ldrb	r3, [r4, #0]
 80000c6:	2b00      	cmp	r3, #0
 80000c8:	d107      	bne.n	80000da <__do_global_dtors_aux+0x1a>
 80000ca:	4b05      	ldr	r3, [pc, #20]	; (80000e0 <__do_global_dtors_aux+0x20>)
 80000cc:	2b00      	cmp	r3, #0
 80000ce:	d002      	beq.n	80000d6 <__do_global_dtors_aux+0x16>
 80000d0:	4804      	ldr	r0, [pc, #16]	; (80000e4 <__do_global_dtors_aux+0x24>)
 80000d2:	e000      	b.n	80000d6 <__do_global_dtors_aux+0x16>
 80000d4:	bf00      	nop
 80000d6:	2301      	movs	r3, #1
 80000d8:	7023      	strb	r3, [r4, #0]
 80000da:	bd10      	pop	{r4, pc}
 80000dc:	20000070 	.word	0x20000070
 80000e0:	00000000 	.word	0x00000000
 80000e4:	08004870 	.word	0x08004870

080000e8 <frame_dummy>:
 80000e8:	4b04      	ldr	r3, [pc, #16]	; (80000fc <frame_dummy+0x14>)
 80000ea:	b510      	push	{r4, lr}
 80000ec:	2b00      	cmp	r3, #0
 80000ee:	d003      	beq.n	80000f8 <frame_dummy+0x10>
 80000f0:	4903      	ldr	r1, [pc, #12]	; (8000100 <frame_dummy+0x18>)
 80000f2:	4804      	ldr	r0, [pc, #16]	; (8000104 <frame_dummy+0x1c>)
 80000f4:	e000      	b.n	80000f8 <frame_dummy+0x10>
 80000f6:	bf00      	nop
 80000f8:	bd10      	pop	{r4, pc}
 80000fa:	46c0      	nop			; (mov r8, r8)
 80000fc:	00000000 	.word	0x00000000
 8000100:	20000074 	.word	0x20000074
 8000104:	08004870 	.word	0x08004870

08000108 <__gnu_thumb1_case_shi>:
 8000108:	b403      	push	{r0, r1}
 800010a:	4671      	mov	r1, lr
 800010c:	0849      	lsrs	r1, r1, #1
 800010e:	0040      	lsls	r0, r0, #1
 8000110:	0049      	lsls	r1, r1, #1
 8000112:	5e09      	ldrsh	r1, [r1, r0]
 8000114:	0049      	lsls	r1, r1, #1
 8000116:	448e      	add	lr, r1
 8000118:	bc03      	pop	{r0, r1}
 800011a:	4770      	bx	lr

0800011c <__udivsi3>:
 800011c:	2200      	movs	r2, #0
 800011e:	0843      	lsrs	r3, r0, #1
 8000120:	428b      	cmp	r3, r1
 8000122:	d374      	bcc.n	800020e <__udivsi3+0xf2>
 8000124:	0903      	lsrs	r3, r0, #4
 8000126:	428b      	cmp	r3, r1
 8000128:	d35f      	bcc.n	80001ea <__udivsi3+0xce>
 800012a:	0a03      	lsrs	r3, r0, #8
 800012c:	428b      	cmp	r3, r1
 800012e:	d344      	bcc.n	80001ba <__udivsi3+0x9e>
 8000130:	0b03      	lsrs	r3, r0, #12
 8000132:	428b      	cmp	r3, r1
 8000134:	d328      	bcc.n	8000188 <__udivsi3+0x6c>
 8000136:	0c03      	lsrs	r3, r0, #16
 8000138:	428b      	cmp	r3, r1
 800013a:	d30d      	bcc.n	8000158 <__udivsi3+0x3c>
 800013c:	22ff      	movs	r2, #255	; 0xff
 800013e:	0209      	lsls	r1, r1, #8
 8000140:	ba12      	rev	r2, r2
 8000142:	0c03      	lsrs	r3, r0, #16
 8000144:	428b      	cmp	r3, r1
 8000146:	d302      	bcc.n	800014e <__udivsi3+0x32>
 8000148:	1212      	asrs	r2, r2, #8
 800014a:	0209      	lsls	r1, r1, #8
 800014c:	d065      	beq.n	800021a <__udivsi3+0xfe>
 800014e:	0b03      	lsrs	r3, r0, #12
 8000150:	428b      	cmp	r3, r1
 8000152:	d319      	bcc.n	8000188 <__udivsi3+0x6c>
 8000154:	e000      	b.n	8000158 <__udivsi3+0x3c>
 8000156:	0a09      	lsrs	r1, r1, #8
 8000158:	0bc3      	lsrs	r3, r0, #15
 800015a:	428b      	cmp	r3, r1
 800015c:	d301      	bcc.n	8000162 <__udivsi3+0x46>
 800015e:	03cb      	lsls	r3, r1, #15
 8000160:	1ac0      	subs	r0, r0, r3
 8000162:	4152      	adcs	r2, r2
 8000164:	0b83      	lsrs	r3, r0, #14
 8000166:	428b      	cmp	r3, r1
 8000168:	d301      	bcc.n	800016e <__udivsi3+0x52>
 800016a:	038b      	lsls	r3, r1, #14
 800016c:	1ac0      	subs	r0, r0, r3
 800016e:	4152      	adcs	r2, r2
 8000170:	0b43      	lsrs	r3, r0, #13
 8000172:	428b      	cmp	r3, r1
 8000174:	d301      	bcc.n	800017a <__udivsi3+0x5e>
 8000176:	034b      	lsls	r3, r1, #13
 8000178:	1ac0      	subs	r0, r0, r3
 800017a:	4152      	adcs	r2, r2
 800017c:	0b03      	lsrs	r3, r0, #12
 800017e:	428b      	cmp	r3, r1
 8000180:	d301      	bcc.n	8000186 <__udivsi3+0x6a>
 8000182:	030b      	lsls	r3, r1, #12
 8000184:	1ac0      	subs	r0, r0, r3
 8000186:	4152      	adcs	r2, r2
 8000188:	0ac3      	lsrs	r3, r0, #11
 800018a:	428b      	cmp	r3, r1
 800018c:	d301      	bcc.n	8000192 <__udivsi3+0x76>
 800018e:	02cb      	lsls	r3, r1, #11
 8000190:	1ac0      	subs	r0, r0, r3
 8000192:	4152      	adcs	r2, r2
 8000194:	0a83      	lsrs	r3, r0, #10
 8000196:	428b      	cmp	r3, r1
 8000198:	d301      	bcc.n	800019e <__udivsi3+0x82>
 800019a:	028b      	lsls	r3, r1, #10
 800019c:	1ac0      	subs	r0, r0, r3
 800019e:	4152      	adcs	r2, r2
 80001a0:	0a43      	lsrs	r3, r0, #9
 80001a2:	428b      	cmp	r3, r1
 80001a4:	d301      	bcc.n	80001aa <__udivsi3+0x8e>
 80001a6:	024b      	lsls	r3, r1, #9
 80001a8:	1ac0      	subs	r0, r0, r3
 80001aa:	4152      	adcs	r2, r2
 80001ac:	0a03      	lsrs	r3, r0, #8
 80001ae:	428b      	cmp	r3, r1
 80001b0:	d301      	bcc.n	80001b6 <__udivsi3+0x9a>
 80001b2:	020b      	lsls	r3, r1, #8
 80001b4:	1ac0      	subs	r0, r0, r3
 80001b6:	4152      	adcs	r2, r2
 80001b8:	d2cd      	bcs.n	8000156 <__udivsi3+0x3a>
 80001ba:	09c3      	lsrs	r3, r0, #7
 80001bc:	428b      	cmp	r3, r1
 80001be:	d301      	bcc.n	80001c4 <__udivsi3+0xa8>
 80001c0:	01cb      	lsls	r3, r1, #7
 80001c2:	1ac0      	subs	r0, r0, r3
 80001c4:	4152      	adcs	r2, r2
 80001c6:	0983      	lsrs	r3, r0, #6
 80001c8:	428b      	cmp	r3, r1
 80001ca:	d301      	bcc.n	80001d0 <__udivsi3+0xb4>
 80001cc:	018b      	lsls	r3, r1, #6
 80001ce:	1ac0      	subs	r0, r0, r3
 80001d0:	4152      	adcs	r2, r2
 80001d2:	0943      	lsrs	r3, r0, #5
 80001d4:	428b      	cmp	r3, r1
 80001d6:	d301      	bcc.n	80001dc <__udivsi3+0xc0>
 80001d8:	014b      	lsls	r3, r1, #5
 80001da:	1ac0      	subs	r0, r0, r3
 80001dc:	4152      	adcs	r2, r2
 80001de:	0903      	lsrs	r3, r0, #4
 80001e0:	428b      	cmp	r3, r1
 80001e2:	d301      	bcc.n	80001e8 <__udivsi3+0xcc>
 80001e4:	010b      	lsls	r3, r1, #4
 80001e6:	1ac0      	subs	r0, r0, r3
 80001e8:	4152      	adcs	r2, r2
 80001ea:	08c3      	lsrs	r3, r0, #3
 80001ec:	428b      	cmp	r3, r1
 80001ee:	d301      	bcc.n	80001f4 <__udivsi3+0xd8>
 80001f0:	00cb      	lsls	r3, r1, #3
 80001f2:	1ac0      	subs	r0, r0, r3
 80001f4:	4152      	adcs	r2, r2
 80001f6:	0883      	lsrs	r3, r0, #2
 80001f8:	428b      	cmp	r3, r1
 80001fa:	d301      	bcc.n	8000200 <__udivsi3+0xe4>
 80001fc:	008b      	lsls	r3, r1, #2
 80001fe:	1ac0      	subs	r0, r0, r3
 8000200:	4152      	adcs	r2, r2
 8000202:	0843      	lsrs	r3, r0, #1
 8000204:	428b      	cmp	r3, r1
 8000206:	d301      	bcc.n	800020c <__udivsi3+0xf0>
 8000208:	004b      	lsls	r3, r1, #1
 800020a:	1ac0      	subs	r0, r0, r3
 800020c:	4152      	adcs	r2, r2
 800020e:	1a41      	subs	r1, r0, r1
 8000210:	d200      	bcs.n	8000214 <__udivsi3+0xf8>
 8000212:	4601      	mov	r1, r0
 8000214:	4152      	adcs	r2, r2
 8000216:	4610      	mov	r0, r2
 8000218:	4770      	bx	lr
 800021a:	e7ff      	b.n	800021c <__udivsi3+0x100>
 800021c:	b501      	push	{r0, lr}
 800021e:	2000      	movs	r0, #0
 8000220:	f000 f8f0 	bl	8000404 <__aeabi_idiv0>
 8000224:	bd02      	pop	{r1, pc}
 8000226:	46c0      	nop			; (mov r8, r8)

08000228 <__aeabi_uidivmod>:
 8000228:	2900      	cmp	r1, #0
 800022a:	d0f7      	beq.n	800021c <__udivsi3+0x100>
 800022c:	e776      	b.n	800011c <__udivsi3>
 800022e:	4770      	bx	lr

08000230 <__divsi3>:
 8000230:	4603      	mov	r3, r0
 8000232:	430b      	orrs	r3, r1
 8000234:	d47f      	bmi.n	8000336 <__divsi3+0x106>
 8000236:	2200      	movs	r2, #0
 8000238:	0843      	lsrs	r3, r0, #1
 800023a:	428b      	cmp	r3, r1
 800023c:	d374      	bcc.n	8000328 <__divsi3+0xf8>
 800023e:	0903      	lsrs	r3, r0, #4
 8000240:	428b      	cmp	r3, r1
 8000242:	d35f      	bcc.n	8000304 <__divsi3+0xd4>
 8000244:	0a03      	lsrs	r3, r0, #8
 8000246:	428b      	cmp	r3, r1
 8000248:	d344      	bcc.n	80002d4 <__divsi3+0xa4>
 800024a:	0b03      	lsrs	r3, r0, #12
 800024c:	428b      	cmp	r3, r1
 800024e:	d328      	bcc.n	80002a2 <__divsi3+0x72>
 8000250:	0c03      	lsrs	r3, r0, #16
 8000252:	428b      	cmp	r3, r1
 8000254:	d30d      	bcc.n	8000272 <__divsi3+0x42>
 8000256:	22ff      	movs	r2, #255	; 0xff
 8000258:	0209      	lsls	r1, r1, #8
 800025a:	ba12      	rev	r2, r2
 800025c:	0c03      	lsrs	r3, r0, #16
 800025e:	428b      	cmp	r3, r1
 8000260:	d302      	bcc.n	8000268 <__divsi3+0x38>
 8000262:	1212      	asrs	r2, r2, #8
 8000264:	0209      	lsls	r1, r1, #8
 8000266:	d065      	beq.n	8000334 <__divsi3+0x104>
 8000268:	0b03      	lsrs	r3, r0, #12
 800026a:	428b      	cmp	r3, r1
 800026c:	d319      	bcc.n	80002a2 <__divsi3+0x72>
 800026e:	e000      	b.n	8000272 <__divsi3+0x42>
 8000270:	0a09      	lsrs	r1, r1, #8
 8000272:	0bc3      	lsrs	r3, r0, #15
 8000274:	428b      	cmp	r3, r1
 8000276:	d301      	bcc.n	800027c <__divsi3+0x4c>
 8000278:	03cb      	lsls	r3, r1, #15
 800027a:	1ac0      	subs	r0, r0, r3
 800027c:	4152      	adcs	r2, r2
 800027e:	0b83      	lsrs	r3, r0, #14
 8000280:	428b      	cmp	r3, r1
 8000282:	d301      	bcc.n	8000288 <__divsi3+0x58>
 8000284:	038b      	lsls	r3, r1, #14
 8000286:	1ac0      	subs	r0, r0, r3
 8000288:	4152      	adcs	r2, r2
 800028a:	0b43      	lsrs	r3, r0, #13
 800028c:	428b      	cmp	r3, r1
 800028e:	d301      	bcc.n	8000294 <__divsi3+0x64>
 8000290:	034b      	lsls	r3, r1, #13
 8000292:	1ac0      	subs	r0, r0, r3
 8000294:	4152      	adcs	r2, r2
 8000296:	0b03      	lsrs	r3, r0, #12
 8000298:	428b      	cmp	r3, r1
 800029a:	d301      	bcc.n	80002a0 <__divsi3+0x70>
 800029c:	030b      	lsls	r3, r1, #12
 800029e:	1ac0      	subs	r0, r0, r3
 80002a0:	4152      	adcs	r2, r2
 80002a2:	0ac3      	lsrs	r3, r0, #11
 80002a4:	428b      	cmp	r3, r1
 80002a6:	d301      	bcc.n	80002ac <__divsi3+0x7c>
 80002a8:	02cb      	lsls	r3, r1, #11
 80002aa:	1ac0      	subs	r0, r0, r3
 80002ac:	4152      	adcs	r2, r2
 80002ae:	0a83      	lsrs	r3, r0, #10
 80002b0:	428b      	cmp	r3, r1
 80002b2:	d301      	bcc.n	80002b8 <__divsi3+0x88>
 80002b4:	028b      	lsls	r3, r1, #10
 80002b6:	1ac0      	subs	r0, r0, r3
 80002b8:	4152      	adcs	r2, r2
 80002ba:	0a43      	lsrs	r3, r0, #9
 80002bc:	428b      	cmp	r3, r1
 80002be:	d301      	bcc.n	80002c4 <__divsi3+0x94>
 80002c0:	024b      	lsls	r3, r1, #9
 80002c2:	1ac0      	subs	r0, r0, r3
 80002c4:	4152      	adcs	r2, r2
 80002c6:	0a03      	lsrs	r3, r0, #8
 80002c8:	428b      	cmp	r3, r1
 80002ca:	d301      	bcc.n	80002d0 <__divsi3+0xa0>
 80002cc:	020b      	lsls	r3, r1, #8
 80002ce:	1ac0      	subs	r0, r0, r3
 80002d0:	4152      	adcs	r2, r2
 80002d2:	d2cd      	bcs.n	8000270 <__divsi3+0x40>
 80002d4:	09c3      	lsrs	r3, r0, #7
 80002d6:	428b      	cmp	r3, r1
 80002d8:	d301      	bcc.n	80002de <__divsi3+0xae>
 80002da:	01cb      	lsls	r3, r1, #7
 80002dc:	1ac0      	subs	r0, r0, r3
 80002de:	4152      	adcs	r2, r2
 80002e0:	0983      	lsrs	r3, r0, #6
 80002e2:	428b      	cmp	r3, r1
 80002e4:	d301      	bcc.n	80002ea <__divsi3+0xba>
 80002e6:	018b      	lsls	r3, r1, #6
 80002e8:	1ac0      	subs	r0, r0, r3
 80002ea:	4152      	adcs	r2, r2
 80002ec:	0943      	lsrs	r3, r0, #5
 80002ee:	428b      	cmp	r3, r1
 80002f0:	d301      	bcc.n	80002f6 <__divsi3+0xc6>
 80002f2:	014b      	lsls	r3, r1, #5
 80002f4:	1ac0      	subs	r0, r0, r3
 80002f6:	4152      	adcs	r2, r2
 80002f8:	0903      	lsrs	r3, r0, #4
 80002fa:	428b      	cmp	r3, r1
 80002fc:	d301      	bcc.n	8000302 <__divsi3+0xd2>
 80002fe:	010b      	lsls	r3, r1, #4
 8000300:	1ac0      	subs	r0, r0, r3
 8000302:	4152      	adcs	r2, r2
 8000304:	08c3      	lsrs	r3, r0, #3
 8000306:	428b      	cmp	r3, r1
 8000308:	d301      	bcc.n	800030e <__divsi3+0xde>
 800030a:	00cb      	lsls	r3, r1, #3
 800030c:	1ac0      	subs	r0, r0, r3
 800030e:	4152      	adcs	r2, r2
 8000310:	0883      	lsrs	r3, r0, #2
 8000312:	428b      	cmp	r3, r1
 8000314:	d301      	bcc.n	800031a <__divsi3+0xea>
 8000316:	008b      	lsls	r3, r1, #2
 8000318:	1ac0      	subs	r0, r0, r3
 800031a:	4152      	adcs	r2, r2
 800031c:	0843      	lsrs	r3, r0, #1
 800031e:	428b      	cmp	r3, r1
 8000320:	d301      	bcc.n	8000326 <__divsi3+0xf6>
 8000322:	004b      	lsls	r3, r1, #1
 8000324:	1ac0      	subs	r0, r0, r3
 8000326:	4152      	adcs	r2, r2
 8000328:	1a41      	subs	r1, r0, r1
 800032a:	d200      	bcs.n	800032e <__divsi3+0xfe>
 800032c:	4601      	mov	r1, r0
 800032e:	4152      	adcs	r2, r2
 8000330:	4610      	mov	r0, r2
 8000332:	4770      	bx	lr
 8000334:	e05d      	b.n	80003f2 <__divsi3+0x1c2>
 8000336:	0fca      	lsrs	r2, r1, #31
 8000338:	d000      	beq.n	800033c <__divsi3+0x10c>
 800033a:	4249      	negs	r1, r1
 800033c:	1003      	asrs	r3, r0, #32
 800033e:	d300      	bcc.n	8000342 <__divsi3+0x112>
 8000340:	4240      	negs	r0, r0
 8000342:	4053      	eors	r3, r2
 8000344:	2200      	movs	r2, #0
 8000346:	469c      	mov	ip, r3
 8000348:	0903      	lsrs	r3, r0, #4
 800034a:	428b      	cmp	r3, r1
 800034c:	d32d      	bcc.n	80003aa <__divsi3+0x17a>
 800034e:	0a03      	lsrs	r3, r0, #8
 8000350:	428b      	cmp	r3, r1
 8000352:	d312      	bcc.n	800037a <__divsi3+0x14a>
 8000354:	22fc      	movs	r2, #252	; 0xfc
 8000356:	0189      	lsls	r1, r1, #6
 8000358:	ba12      	rev	r2, r2
 800035a:	0a03      	lsrs	r3, r0, #8
 800035c:	428b      	cmp	r3, r1
 800035e:	d30c      	bcc.n	800037a <__divsi3+0x14a>
 8000360:	0189      	lsls	r1, r1, #6
 8000362:	1192      	asrs	r2, r2, #6
 8000364:	428b      	cmp	r3, r1
 8000366:	d308      	bcc.n	800037a <__divsi3+0x14a>
 8000368:	0189      	lsls	r1, r1, #6
 800036a:	1192      	asrs	r2, r2, #6
 800036c:	428b      	cmp	r3, r1
 800036e:	d304      	bcc.n	800037a <__divsi3+0x14a>
 8000370:	0189      	lsls	r1, r1, #6
 8000372:	d03a      	beq.n	80003ea <__divsi3+0x1ba>
 8000374:	1192      	asrs	r2, r2, #6
 8000376:	e000      	b.n	800037a <__divsi3+0x14a>
 8000378:	0989      	lsrs	r1, r1, #6
 800037a:	09c3      	lsrs	r3, r0, #7
 800037c:	428b      	cmp	r3, r1
 800037e:	d301      	bcc.n	8000384 <__divsi3+0x154>
 8000380:	01cb      	lsls	r3, r1, #7
 8000382:	1ac0      	subs	r0, r0, r3
 8000384:	4152      	adcs	r2, r2
 8000386:	0983      	lsrs	r3, r0, #6
 8000388:	428b      	cmp	r3, r1
 800038a:	d301      	bcc.n	8000390 <__divsi3+0x160>
 800038c:	018b      	lsls	r3, r1, #6
 800038e:	1ac0      	subs	r0, r0, r3
 8000390:	4152      	adcs	r2, r2
 8000392:	0943      	lsrs	r3, r0, #5
 8000394:	428b      	cmp	r3, r1
 8000396:	d301      	bcc.n	800039c <__divsi3+0x16c>
 8000398:	014b      	lsls	r3, r1, #5
 800039a:	1ac0      	subs	r0, r0, r3
 800039c:	4152      	adcs	r2, r2
 800039e:	0903      	lsrs	r3, r0, #4
 80003a0:	428b      	cmp	r3, r1
 80003a2:	d301      	bcc.n	80003a8 <__divsi3+0x178>
 80003a4:	010b      	lsls	r3, r1, #4
 80003a6:	1ac0      	subs	r0, r0, r3
 80003a8:	4152      	adcs	r2, r2
 80003aa:	08c3      	lsrs	r3, r0, #3
 80003ac:	428b      	cmp	r3, r1
 80003ae:	d301      	bcc.n	80003b4 <__divsi3+0x184>
 80003b0:	00cb      	lsls	r3, r1, #3
 80003b2:	1ac0      	subs	r0, r0, r3
 80003b4:	4152      	adcs	r2, r2
 80003b6:	0883      	lsrs	r3, r0, #2
 80003b8:	428b      	cmp	r3, r1
 80003ba:	d301      	bcc.n	80003c0 <__divsi3+0x190>
 80003bc:	008b      	lsls	r3, r1, #2
 80003be:	1ac0      	subs	r0, r0, r3
 80003c0:	4152      	adcs	r2, r2
 80003c2:	d2d9      	bcs.n	8000378 <__divsi3+0x148>
 80003c4:	0843      	lsrs	r3, r0, #1
 80003c6:	428b      	cmp	r3, r1
 80003c8:	d301      	bcc.n	80003ce <__divsi3+0x19e>
 80003ca:	004b      	lsls	r3, r1, #1
 80003cc:	1ac0      	subs	r0, r0, r3
 80003ce:	4152      	adcs	r2, r2
 80003d0:	1a41      	subs	r1, r0, r1
 80003d2:	d200      	bcs.n	80003d6 <__divsi3+0x1a6>
 80003d4:	4601      	mov	r1, r0
 80003d6:	4663      	mov	r3, ip
 80003d8:	4152      	adcs	r2, r2
 80003da:	105b      	asrs	r3, r3, #1
 80003dc:	4610      	mov	r0, r2
 80003de:	d301      	bcc.n	80003e4 <__divsi3+0x1b4>
 80003e0:	4240      	negs	r0, r0
 80003e2:	2b00      	cmp	r3, #0
 80003e4:	d500      	bpl.n	80003e8 <__divsi3+0x1b8>
 80003e6:	4249      	negs	r1, r1
 80003e8:	4770      	bx	lr
 80003ea:	4663      	mov	r3, ip
 80003ec:	105b      	asrs	r3, r3, #1
 80003ee:	d300      	bcc.n	80003f2 <__divsi3+0x1c2>
 80003f0:	4240      	negs	r0, r0
 80003f2:	b501      	push	{r0, lr}
 80003f4:	2000      	movs	r0, #0
 80003f6:	f000 f805 	bl	8000404 <__aeabi_idiv0>
 80003fa:	bd02      	pop	{r1, pc}

080003fc <__aeabi_idivmod>:
 80003fc:	2900      	cmp	r1, #0
 80003fe:	d0f8      	beq.n	80003f2 <__divsi3+0x1c2>
 8000400:	e716      	b.n	8000230 <__divsi3>
 8000402:	4770      	bx	lr

08000404 <__aeabi_idiv0>:
 8000404:	4770      	bx	lr
 8000406:	46c0      	nop			; (mov r8, r8)

08000408 <__aeabi_fmul>:
 8000408:	b5f0      	push	{r4, r5, r6, r7, lr}
 800040a:	464f      	mov	r7, r9
 800040c:	4646      	mov	r6, r8
 800040e:	46d6      	mov	lr, sl
 8000410:	0244      	lsls	r4, r0, #9
 8000412:	0045      	lsls	r5, r0, #1
 8000414:	b5c0      	push	{r6, r7, lr}
 8000416:	0a64      	lsrs	r4, r4, #9
 8000418:	1c0f      	adds	r7, r1, #0
 800041a:	0e2d      	lsrs	r5, r5, #24
 800041c:	0fc6      	lsrs	r6, r0, #31
 800041e:	2d00      	cmp	r5, #0
 8000420:	d100      	bne.n	8000424 <__aeabi_fmul+0x1c>
 8000422:	e08d      	b.n	8000540 <__aeabi_fmul+0x138>
 8000424:	2dff      	cmp	r5, #255	; 0xff
 8000426:	d100      	bne.n	800042a <__aeabi_fmul+0x22>
 8000428:	e092      	b.n	8000550 <__aeabi_fmul+0x148>
 800042a:	2300      	movs	r3, #0
 800042c:	2080      	movs	r0, #128	; 0x80
 800042e:	4699      	mov	r9, r3
 8000430:	469a      	mov	sl, r3
 8000432:	00e4      	lsls	r4, r4, #3
 8000434:	04c0      	lsls	r0, r0, #19
 8000436:	4304      	orrs	r4, r0
 8000438:	3d7f      	subs	r5, #127	; 0x7f
 800043a:	0278      	lsls	r0, r7, #9
 800043c:	0a43      	lsrs	r3, r0, #9
 800043e:	4698      	mov	r8, r3
 8000440:	007b      	lsls	r3, r7, #1
 8000442:	0e1b      	lsrs	r3, r3, #24
 8000444:	0fff      	lsrs	r7, r7, #31
 8000446:	2b00      	cmp	r3, #0
 8000448:	d100      	bne.n	800044c <__aeabi_fmul+0x44>
 800044a:	e070      	b.n	800052e <__aeabi_fmul+0x126>
 800044c:	2bff      	cmp	r3, #255	; 0xff
 800044e:	d100      	bne.n	8000452 <__aeabi_fmul+0x4a>
 8000450:	e086      	b.n	8000560 <__aeabi_fmul+0x158>
 8000452:	4642      	mov	r2, r8
 8000454:	00d0      	lsls	r0, r2, #3
 8000456:	2280      	movs	r2, #128	; 0x80
 8000458:	3b7f      	subs	r3, #127	; 0x7f
 800045a:	18ed      	adds	r5, r5, r3
 800045c:	2300      	movs	r3, #0
 800045e:	04d2      	lsls	r2, r2, #19
 8000460:	4302      	orrs	r2, r0
 8000462:	4690      	mov	r8, r2
 8000464:	469c      	mov	ip, r3
 8000466:	0031      	movs	r1, r6
 8000468:	464b      	mov	r3, r9
 800046a:	4079      	eors	r1, r7
 800046c:	1c68      	adds	r0, r5, #1
 800046e:	2b0f      	cmp	r3, #15
 8000470:	d81c      	bhi.n	80004ac <__aeabi_fmul+0xa4>
 8000472:	4a76      	ldr	r2, [pc, #472]	; (800064c <__aeabi_fmul+0x244>)
 8000474:	009b      	lsls	r3, r3, #2
 8000476:	58d3      	ldr	r3, [r2, r3]
 8000478:	469f      	mov	pc, r3
 800047a:	0039      	movs	r1, r7
 800047c:	4644      	mov	r4, r8
 800047e:	46e2      	mov	sl, ip
 8000480:	4653      	mov	r3, sl
 8000482:	2b02      	cmp	r3, #2
 8000484:	d00f      	beq.n	80004a6 <__aeabi_fmul+0x9e>
 8000486:	2b03      	cmp	r3, #3
 8000488:	d100      	bne.n	800048c <__aeabi_fmul+0x84>
 800048a:	e0d7      	b.n	800063c <__aeabi_fmul+0x234>
 800048c:	2b01      	cmp	r3, #1
 800048e:	d137      	bne.n	8000500 <__aeabi_fmul+0xf8>
 8000490:	2000      	movs	r0, #0
 8000492:	2400      	movs	r4, #0
 8000494:	05c0      	lsls	r0, r0, #23
 8000496:	4320      	orrs	r0, r4
 8000498:	07c9      	lsls	r1, r1, #31
 800049a:	4308      	orrs	r0, r1
 800049c:	bce0      	pop	{r5, r6, r7}
 800049e:	46ba      	mov	sl, r7
 80004a0:	46b1      	mov	r9, r6
 80004a2:	46a8      	mov	r8, r5
 80004a4:	bdf0      	pop	{r4, r5, r6, r7, pc}
 80004a6:	20ff      	movs	r0, #255	; 0xff
 80004a8:	2400      	movs	r4, #0
 80004aa:	e7f3      	b.n	8000494 <__aeabi_fmul+0x8c>
 80004ac:	0c26      	lsrs	r6, r4, #16
 80004ae:	0424      	lsls	r4, r4, #16
 80004b0:	0c22      	lsrs	r2, r4, #16
 80004b2:	4644      	mov	r4, r8
 80004b4:	0424      	lsls	r4, r4, #16
 80004b6:	0c24      	lsrs	r4, r4, #16
 80004b8:	4643      	mov	r3, r8
 80004ba:	0027      	movs	r7, r4
 80004bc:	0c1b      	lsrs	r3, r3, #16
 80004be:	4357      	muls	r7, r2
 80004c0:	4374      	muls	r4, r6
 80004c2:	435a      	muls	r2, r3
 80004c4:	435e      	muls	r6, r3
 80004c6:	1912      	adds	r2, r2, r4
 80004c8:	0c3b      	lsrs	r3, r7, #16
 80004ca:	189b      	adds	r3, r3, r2
 80004cc:	429c      	cmp	r4, r3
 80004ce:	d903      	bls.n	80004d8 <__aeabi_fmul+0xd0>
 80004d0:	2280      	movs	r2, #128	; 0x80
 80004d2:	0252      	lsls	r2, r2, #9
 80004d4:	4694      	mov	ip, r2
 80004d6:	4466      	add	r6, ip
 80004d8:	043f      	lsls	r7, r7, #16
 80004da:	041a      	lsls	r2, r3, #16
 80004dc:	0c3f      	lsrs	r7, r7, #16
 80004de:	19d2      	adds	r2, r2, r7
 80004e0:	0194      	lsls	r4, r2, #6
 80004e2:	1e67      	subs	r7, r4, #1
 80004e4:	41bc      	sbcs	r4, r7
 80004e6:	0c1b      	lsrs	r3, r3, #16
 80004e8:	0e92      	lsrs	r2, r2, #26
 80004ea:	199b      	adds	r3, r3, r6
 80004ec:	4314      	orrs	r4, r2
 80004ee:	019b      	lsls	r3, r3, #6
 80004f0:	431c      	orrs	r4, r3
 80004f2:	011b      	lsls	r3, r3, #4
 80004f4:	d400      	bmi.n	80004f8 <__aeabi_fmul+0xf0>
 80004f6:	e09b      	b.n	8000630 <__aeabi_fmul+0x228>
 80004f8:	2301      	movs	r3, #1
 80004fa:	0862      	lsrs	r2, r4, #1
 80004fc:	401c      	ands	r4, r3
 80004fe:	4314      	orrs	r4, r2
 8000500:	0002      	movs	r2, r0
 8000502:	327f      	adds	r2, #127	; 0x7f
 8000504:	2a00      	cmp	r2, #0
 8000506:	dd64      	ble.n	80005d2 <__aeabi_fmul+0x1ca>
 8000508:	0763      	lsls	r3, r4, #29
 800050a:	d004      	beq.n	8000516 <__aeabi_fmul+0x10e>
 800050c:	230f      	movs	r3, #15
 800050e:	4023      	ands	r3, r4
 8000510:	2b04      	cmp	r3, #4
 8000512:	d000      	beq.n	8000516 <__aeabi_fmul+0x10e>
 8000514:	3404      	adds	r4, #4
 8000516:	0123      	lsls	r3, r4, #4
 8000518:	d503      	bpl.n	8000522 <__aeabi_fmul+0x11a>
 800051a:	0002      	movs	r2, r0
 800051c:	4b4c      	ldr	r3, [pc, #304]	; (8000650 <__aeabi_fmul+0x248>)
 800051e:	3280      	adds	r2, #128	; 0x80
 8000520:	401c      	ands	r4, r3
 8000522:	2afe      	cmp	r2, #254	; 0xfe
 8000524:	dcbf      	bgt.n	80004a6 <__aeabi_fmul+0x9e>
 8000526:	01a4      	lsls	r4, r4, #6
 8000528:	0a64      	lsrs	r4, r4, #9
 800052a:	b2d0      	uxtb	r0, r2
 800052c:	e7b2      	b.n	8000494 <__aeabi_fmul+0x8c>
 800052e:	4643      	mov	r3, r8
 8000530:	2b00      	cmp	r3, #0
 8000532:	d13d      	bne.n	80005b0 <__aeabi_fmul+0x1a8>
 8000534:	464a      	mov	r2, r9
 8000536:	3301      	adds	r3, #1
 8000538:	431a      	orrs	r2, r3
 800053a:	4691      	mov	r9, r2
 800053c:	469c      	mov	ip, r3
 800053e:	e792      	b.n	8000466 <__aeabi_fmul+0x5e>
 8000540:	2c00      	cmp	r4, #0
 8000542:	d129      	bne.n	8000598 <__aeabi_fmul+0x190>
 8000544:	2304      	movs	r3, #4
 8000546:	4699      	mov	r9, r3
 8000548:	3b03      	subs	r3, #3
 800054a:	2500      	movs	r5, #0
 800054c:	469a      	mov	sl, r3
 800054e:	e774      	b.n	800043a <__aeabi_fmul+0x32>
 8000550:	2c00      	cmp	r4, #0
 8000552:	d11b      	bne.n	800058c <__aeabi_fmul+0x184>
 8000554:	2308      	movs	r3, #8
 8000556:	4699      	mov	r9, r3
 8000558:	3b06      	subs	r3, #6
 800055a:	25ff      	movs	r5, #255	; 0xff
 800055c:	469a      	mov	sl, r3
 800055e:	e76c      	b.n	800043a <__aeabi_fmul+0x32>
 8000560:	4643      	mov	r3, r8
 8000562:	35ff      	adds	r5, #255	; 0xff
 8000564:	2b00      	cmp	r3, #0
 8000566:	d10b      	bne.n	8000580 <__aeabi_fmul+0x178>
 8000568:	2302      	movs	r3, #2
 800056a:	464a      	mov	r2, r9
 800056c:	431a      	orrs	r2, r3
 800056e:	4691      	mov	r9, r2
 8000570:	469c      	mov	ip, r3
 8000572:	e778      	b.n	8000466 <__aeabi_fmul+0x5e>
 8000574:	4653      	mov	r3, sl
 8000576:	0031      	movs	r1, r6
 8000578:	2b02      	cmp	r3, #2
 800057a:	d000      	beq.n	800057e <__aeabi_fmul+0x176>
 800057c:	e783      	b.n	8000486 <__aeabi_fmul+0x7e>
 800057e:	e792      	b.n	80004a6 <__aeabi_fmul+0x9e>
 8000580:	2303      	movs	r3, #3
 8000582:	464a      	mov	r2, r9
 8000584:	431a      	orrs	r2, r3
 8000586:	4691      	mov	r9, r2
 8000588:	469c      	mov	ip, r3
 800058a:	e76c      	b.n	8000466 <__aeabi_fmul+0x5e>
 800058c:	230c      	movs	r3, #12
 800058e:	4699      	mov	r9, r3
 8000590:	3b09      	subs	r3, #9
 8000592:	25ff      	movs	r5, #255	; 0xff
 8000594:	469a      	mov	sl, r3
 8000596:	e750      	b.n	800043a <__aeabi_fmul+0x32>
 8000598:	0020      	movs	r0, r4
 800059a:	f000 f87b 	bl	8000694 <__clzsi2>
 800059e:	2576      	movs	r5, #118	; 0x76
 80005a0:	1f43      	subs	r3, r0, #5
 80005a2:	409c      	lsls	r4, r3
 80005a4:	2300      	movs	r3, #0
 80005a6:	426d      	negs	r5, r5
 80005a8:	4699      	mov	r9, r3
 80005aa:	469a      	mov	sl, r3
 80005ac:	1a2d      	subs	r5, r5, r0
 80005ae:	e744      	b.n	800043a <__aeabi_fmul+0x32>
 80005b0:	4640      	mov	r0, r8
 80005b2:	f000 f86f 	bl	8000694 <__clzsi2>
 80005b6:	4642      	mov	r2, r8
 80005b8:	1f43      	subs	r3, r0, #5
 80005ba:	409a      	lsls	r2, r3
 80005bc:	2300      	movs	r3, #0
 80005be:	1a2d      	subs	r5, r5, r0
 80005c0:	4690      	mov	r8, r2
 80005c2:	469c      	mov	ip, r3
 80005c4:	3d76      	subs	r5, #118	; 0x76
 80005c6:	e74e      	b.n	8000466 <__aeabi_fmul+0x5e>
 80005c8:	2480      	movs	r4, #128	; 0x80
 80005ca:	2100      	movs	r1, #0
 80005cc:	20ff      	movs	r0, #255	; 0xff
 80005ce:	03e4      	lsls	r4, r4, #15
 80005d0:	e760      	b.n	8000494 <__aeabi_fmul+0x8c>
 80005d2:	2301      	movs	r3, #1
 80005d4:	1a9b      	subs	r3, r3, r2
 80005d6:	2b1b      	cmp	r3, #27
 80005d8:	dd00      	ble.n	80005dc <__aeabi_fmul+0x1d4>
 80005da:	e759      	b.n	8000490 <__aeabi_fmul+0x88>
 80005dc:	0022      	movs	r2, r4
 80005de:	309e      	adds	r0, #158	; 0x9e
 80005e0:	40da      	lsrs	r2, r3
 80005e2:	4084      	lsls	r4, r0
 80005e4:	0013      	movs	r3, r2
 80005e6:	1e62      	subs	r2, r4, #1
 80005e8:	4194      	sbcs	r4, r2
 80005ea:	431c      	orrs	r4, r3
 80005ec:	0763      	lsls	r3, r4, #29
 80005ee:	d004      	beq.n	80005fa <__aeabi_fmul+0x1f2>
 80005f0:	230f      	movs	r3, #15
 80005f2:	4023      	ands	r3, r4
 80005f4:	2b04      	cmp	r3, #4
 80005f6:	d000      	beq.n	80005fa <__aeabi_fmul+0x1f2>
 80005f8:	3404      	adds	r4, #4
 80005fa:	0163      	lsls	r3, r4, #5
 80005fc:	d51a      	bpl.n	8000634 <__aeabi_fmul+0x22c>
 80005fe:	2001      	movs	r0, #1
 8000600:	2400      	movs	r4, #0
 8000602:	e747      	b.n	8000494 <__aeabi_fmul+0x8c>
 8000604:	2080      	movs	r0, #128	; 0x80
 8000606:	03c0      	lsls	r0, r0, #15
 8000608:	4204      	tst	r4, r0
 800060a:	d009      	beq.n	8000620 <__aeabi_fmul+0x218>
 800060c:	4643      	mov	r3, r8
 800060e:	4203      	tst	r3, r0
 8000610:	d106      	bne.n	8000620 <__aeabi_fmul+0x218>
 8000612:	4644      	mov	r4, r8
 8000614:	4304      	orrs	r4, r0
 8000616:	0264      	lsls	r4, r4, #9
 8000618:	0039      	movs	r1, r7
 800061a:	20ff      	movs	r0, #255	; 0xff
 800061c:	0a64      	lsrs	r4, r4, #9
 800061e:	e739      	b.n	8000494 <__aeabi_fmul+0x8c>
 8000620:	2080      	movs	r0, #128	; 0x80
 8000622:	03c0      	lsls	r0, r0, #15
 8000624:	4304      	orrs	r4, r0
 8000626:	0264      	lsls	r4, r4, #9
 8000628:	0031      	movs	r1, r6
 800062a:	20ff      	movs	r0, #255	; 0xff
 800062c:	0a64      	lsrs	r4, r4, #9
 800062e:	e731      	b.n	8000494 <__aeabi_fmul+0x8c>
 8000630:	0028      	movs	r0, r5
 8000632:	e765      	b.n	8000500 <__aeabi_fmul+0xf8>
 8000634:	01a4      	lsls	r4, r4, #6
 8000636:	2000      	movs	r0, #0
 8000638:	0a64      	lsrs	r4, r4, #9
 800063a:	e72b      	b.n	8000494 <__aeabi_fmul+0x8c>
 800063c:	2080      	movs	r0, #128	; 0x80
 800063e:	03c0      	lsls	r0, r0, #15
 8000640:	4304      	orrs	r4, r0
 8000642:	0264      	lsls	r4, r4, #9
 8000644:	20ff      	movs	r0, #255	; 0xff
 8000646:	0a64      	lsrs	r4, r4, #9
 8000648:	e724      	b.n	8000494 <__aeabi_fmul+0x8c>
 800064a:	46c0      	nop			; (mov r8, r8)
 800064c:	080048bc 	.word	0x080048bc
 8000650:	f7ffffff 	.word	0xf7ffffff

08000654 <__aeabi_f2iz>:
 8000654:	0241      	lsls	r1, r0, #9
 8000656:	0042      	lsls	r2, r0, #1
 8000658:	0fc3      	lsrs	r3, r0, #31
 800065a:	0a49      	lsrs	r1, r1, #9
 800065c:	2000      	movs	r0, #0
 800065e:	0e12      	lsrs	r2, r2, #24
 8000660:	2a7e      	cmp	r2, #126	; 0x7e
 8000662:	dd03      	ble.n	800066c <__aeabi_f2iz+0x18>
 8000664:	2a9d      	cmp	r2, #157	; 0x9d
 8000666:	dd02      	ble.n	800066e <__aeabi_f2iz+0x1a>
 8000668:	4a09      	ldr	r2, [pc, #36]	; (8000690 <__aeabi_f2iz+0x3c>)
 800066a:	1898      	adds	r0, r3, r2
 800066c:	4770      	bx	lr
 800066e:	2080      	movs	r0, #128	; 0x80
 8000670:	0400      	lsls	r0, r0, #16
 8000672:	4301      	orrs	r1, r0
 8000674:	2a95      	cmp	r2, #149	; 0x95
 8000676:	dc07      	bgt.n	8000688 <__aeabi_f2iz+0x34>
 8000678:	2096      	movs	r0, #150	; 0x96
 800067a:	1a82      	subs	r2, r0, r2
 800067c:	40d1      	lsrs	r1, r2
 800067e:	4248      	negs	r0, r1
 8000680:	2b00      	cmp	r3, #0
 8000682:	d1f3      	bne.n	800066c <__aeabi_f2iz+0x18>
 8000684:	0008      	movs	r0, r1
 8000686:	e7f1      	b.n	800066c <__aeabi_f2iz+0x18>
 8000688:	3a96      	subs	r2, #150	; 0x96
 800068a:	4091      	lsls	r1, r2
 800068c:	e7f7      	b.n	800067e <__aeabi_f2iz+0x2a>
 800068e:	46c0      	nop			; (mov r8, r8)
 8000690:	7fffffff 	.word	0x7fffffff

08000694 <__clzsi2>:
 8000694:	211c      	movs	r1, #28
 8000696:	2301      	movs	r3, #1
 8000698:	041b      	lsls	r3, r3, #16
 800069a:	4298      	cmp	r0, r3
 800069c:	d301      	bcc.n	80006a2 <__clzsi2+0xe>
 800069e:	0c00      	lsrs	r0, r0, #16
 80006a0:	3910      	subs	r1, #16
 80006a2:	0a1b      	lsrs	r3, r3, #8
 80006a4:	4298      	cmp	r0, r3
 80006a6:	d301      	bcc.n	80006ac <__clzsi2+0x18>
 80006a8:	0a00      	lsrs	r0, r0, #8
 80006aa:	3908      	subs	r1, #8
 80006ac:	091b      	lsrs	r3, r3, #4
 80006ae:	4298      	cmp	r0, r3
 80006b0:	d301      	bcc.n	80006b6 <__clzsi2+0x22>
 80006b2:	0900      	lsrs	r0, r0, #4
 80006b4:	3904      	subs	r1, #4
 80006b6:	a202      	add	r2, pc, #8	; (adr r2, 80006c0 <__clzsi2+0x2c>)
 80006b8:	5c10      	ldrb	r0, [r2, r0]
 80006ba:	1840      	adds	r0, r0, r1
 80006bc:	4770      	bx	lr
 80006be:	46c0      	nop			; (mov r8, r8)
 80006c0:	02020304 	.word	0x02020304
 80006c4:	01010101 	.word	0x01010101
	...

080006d0 <main>:
/**
  * @brief  The application entry point.
  * @retval int
  */
int main(void)
{
 80006d0:	b590      	push	{r4, r7, lr}
 80006d2:	b087      	sub	sp, #28
 80006d4:	af04      	add	r7, sp, #16
  /* USER CODE END 1 */

  /* MCU Configuration--------------------------------------------------------*/

  /* Reset of all peripherals, Initializes the Flash interface and the Systick. */
  HAL_Init();
 80006d6:	f000 fcf7 	bl	80010c8 <HAL_Init>
  /* USER CODE BEGIN Init */

  /* USER CODE END Init */

  /* Configure the system clock */
  SystemClock_Config();
 80006da:	f000 f859 	bl	8000790 <SystemClock_Config>
  /* USER CODE BEGIN SysInit */

  /* USER CODE END SysInit */

  /* Initialize all configured peripherals */
  MX_GPIO_Init();
 80006de:	f000 f947 	bl	8000970 <MX_GPIO_Init>
  MX_I2C1_Init();
 80006e2:	f000 f8b7 	bl	8000854 <MX_I2C1_Init>
  MX_DMA_Init();
 80006e6:	f000 f925 	bl	8000934 <MX_DMA_Init>
  MX_USART2_UART_Init();
 80006ea:	f000 f8f3 	bl	80008d4 <MX_USART2_UART_Init>
  /* USER CODE BEGIN 2 */
  Set_Time(0, 59, 19, 5, 17, 8, 22);
 80006ee:	2316      	movs	r3, #22
 80006f0:	9302      	str	r3, [sp, #8]
 80006f2:	2308      	movs	r3, #8
 80006f4:	9301      	str	r3, [sp, #4]
 80006f6:	2311      	movs	r3, #17
 80006f8:	9300      	str	r3, [sp, #0]
 80006fa:	2305      	movs	r3, #5
 80006fc:	2213      	movs	r2, #19
 80006fe:	213b      	movs	r1, #59	; 0x3b
 8000700:	2000      	movs	r0, #0
 8000702:	f000 fa0b 	bl	8000b1c <Set_Time>
  /* Infinite loop */
  /* USER CODE BEGIN WHILE */
  while (1)
  {
    /* USER CODE END WHILE */
	HAL_GPIO_TogglePin(GPIOC, GPIO_PIN_8);
 8000706:	2380      	movs	r3, #128	; 0x80
 8000708:	005b      	lsls	r3, r3, #1
 800070a:	4a1b      	ldr	r2, [pc, #108]	; (8000778 <main+0xa8>)
 800070c:	0019      	movs	r1, r3
 800070e:	0010      	movs	r0, r2
 8000710:	f001 f92d 	bl	800196e <HAL_GPIO_TogglePin>

	Get_Time();
 8000714:	f000 fa6c 	bl	8000bf0 <Get_Time>
	sprintf(buffer, "%02d:%02d:%02d\n", time.hour, time.minutes, time.seconds);
 8000718:	4b18      	ldr	r3, [pc, #96]	; (800077c <main+0xac>)
 800071a:	789b      	ldrb	r3, [r3, #2]
 800071c:	001a      	movs	r2, r3
 800071e:	4b17      	ldr	r3, [pc, #92]	; (800077c <main+0xac>)
 8000720:	785b      	ldrb	r3, [r3, #1]
 8000722:	001c      	movs	r4, r3
 8000724:	4b15      	ldr	r3, [pc, #84]	; (800077c <main+0xac>)
 8000726:	781b      	ldrb	r3, [r3, #0]
 8000728:	4915      	ldr	r1, [pc, #84]	; (8000780 <main+0xb0>)
 800072a:	4816      	ldr	r0, [pc, #88]	; (8000784 <main+0xb4>)
 800072c:	9300      	str	r3, [sp, #0]
 800072e:	0023      	movs	r3, r4
 8000730:	f003 fc34 	bl	8003f9c <siprintf>

	//Blocking! fine for small buffers
	HAL_UART_Transmit(&huart2, buffer, sizeof(buffer), 1000); //-> Notice led rate seems to be 4Hz
 8000734:	23fa      	movs	r3, #250	; 0xfa
 8000736:	009b      	lsls	r3, r3, #2
 8000738:	4912      	ldr	r1, [pc, #72]	; (8000784 <main+0xb4>)
 800073a:	4813      	ldr	r0, [pc, #76]	; (8000788 <main+0xb8>)
 800073c:	220a      	movs	r2, #10
 800073e:	f002 fcb1 	bl	80030a4 <HAL_UART_Transmit>

	int timeEpoch = epochFromTime(time);
 8000742:	4b0e      	ldr	r3, [pc, #56]	; (800077c <main+0xac>)
 8000744:	6818      	ldr	r0, [r3, #0]
 8000746:	6859      	ldr	r1, [r3, #4]
 8000748:	f000 faaa 	bl	8000ca0 <epochFromTime>
 800074c:	0003      	movs	r3, r0
 800074e:	607b      	str	r3, [r7, #4]
	sprintf(buffer, "%d\n", timeEpoch);
 8000750:	687a      	ldr	r2, [r7, #4]
 8000752:	490e      	ldr	r1, [pc, #56]	; (800078c <main+0xbc>)
 8000754:	4b0b      	ldr	r3, [pc, #44]	; (8000784 <main+0xb4>)
 8000756:	0018      	movs	r0, r3
 8000758:	f003 fc20 	bl	8003f9c <siprintf>
	HAL_UART_Transmit(&huart2, buffer, sizeof(buffer), 1000);
 800075c:	23fa      	movs	r3, #250	; 0xfa
 800075e:	009b      	lsls	r3, r3, #2
 8000760:	4908      	ldr	r1, [pc, #32]	; (8000784 <main+0xb4>)
 8000762:	4809      	ldr	r0, [pc, #36]	; (8000788 <main+0xb8>)
 8000764:	220a      	movs	r2, #10
 8000766:	f002 fc9d 	bl	80030a4 <HAL_UART_Transmit>

	pause_sec(1); //250ms delay -> Transmitting/Flashing LED at 4Hz
 800076a:	23fe      	movs	r3, #254	; 0xfe
 800076c:	059b      	lsls	r3, r3, #22
 800076e:	1c18      	adds	r0, r3, #0
 8000770:	f000 f976 	bl	8000a60 <pause_sec>
  {
 8000774:	e7c7      	b.n	8000706 <main+0x36>
 8000776:	46c0      	nop			; (mov r8, r8)
 8000778:	48000800 	.word	0x48000800
 800077c:	200001ac 	.word	0x200001ac
 8000780:	08004888 	.word	0x08004888
 8000784:	200001a0 	.word	0x200001a0
 8000788:	200000d8 	.word	0x200000d8
 800078c:	08004898 	.word	0x08004898

08000790 <SystemClock_Config>:
/**
  * @brief System Clock Configuration
  * @retval None
  */
void SystemClock_Config(void)
{
 8000790:	b590      	push	{r4, r7, lr}
 8000792:	b097      	sub	sp, #92	; 0x5c
 8000794:	af00      	add	r7, sp, #0
  RCC_OscInitTypeDef RCC_OscInitStruct = {0};
 8000796:	2428      	movs	r4, #40	; 0x28
 8000798:	193b      	adds	r3, r7, r4
 800079a:	0018      	movs	r0, r3
 800079c:	2330      	movs	r3, #48	; 0x30
 800079e:	001a      	movs	r2, r3
 80007a0:	2100      	movs	r1, #0
 80007a2:	f003 fbf3 	bl	8003f8c <memset>
  RCC_ClkInitTypeDef RCC_ClkInitStruct = {0};
 80007a6:	2318      	movs	r3, #24
 80007a8:	18fb      	adds	r3, r7, r3
 80007aa:	0018      	movs	r0, r3
 80007ac:	2310      	movs	r3, #16
 80007ae:	001a      	movs	r2, r3
 80007b0:	2100      	movs	r1, #0
 80007b2:	f003 fbeb 	bl	8003f8c <memset>
  RCC_PeriphCLKInitTypeDef PeriphClkInit = {0};
 80007b6:	1d3b      	adds	r3, r7, #4
 80007b8:	0018      	movs	r0, r3
 80007ba:	2314      	movs	r3, #20
 80007bc:	001a      	movs	r2, r3
 80007be:	2100      	movs	r1, #0
 80007c0:	f003 fbe4 	bl	8003f8c <memset>

  /** Initializes the RCC Oscillators according to the specified parameters
  * in the RCC_OscInitTypeDef structure.
  */
  RCC_OscInitStruct.OscillatorType = RCC_OSCILLATORTYPE_HSI;
 80007c4:	0021      	movs	r1, r4
 80007c6:	187b      	adds	r3, r7, r1
 80007c8:	2202      	movs	r2, #2
 80007ca:	601a      	str	r2, [r3, #0]
  RCC_OscInitStruct.HSIState = RCC_HSI_ON;
 80007cc:	187b      	adds	r3, r7, r1
 80007ce:	2201      	movs	r2, #1
 80007d0:	60da      	str	r2, [r3, #12]
  RCC_OscInitStruct.HSICalibrationValue = RCC_HSICALIBRATION_DEFAULT;
 80007d2:	187b      	adds	r3, r7, r1
 80007d4:	2210      	movs	r2, #16
 80007d6:	611a      	str	r2, [r3, #16]
  RCC_OscInitStruct.PLL.PLLState = RCC_PLL_ON;
 80007d8:	187b      	adds	r3, r7, r1
 80007da:	2202      	movs	r2, #2
 80007dc:	621a      	str	r2, [r3, #32]
  RCC_OscInitStruct.PLL.PLLSource = RCC_PLLSOURCE_HSI;
 80007de:	187b      	adds	r3, r7, r1
 80007e0:	2200      	movs	r2, #0
 80007e2:	625a      	str	r2, [r3, #36]	; 0x24
  RCC_OscInitStruct.PLL.PLLMUL = RCC_PLL_MUL12;
 80007e4:	187b      	adds	r3, r7, r1
 80007e6:	22a0      	movs	r2, #160	; 0xa0
 80007e8:	0392      	lsls	r2, r2, #14
 80007ea:	629a      	str	r2, [r3, #40]	; 0x28
  RCC_OscInitStruct.PLL.PREDIV = RCC_PREDIV_DIV1;
 80007ec:	187b      	adds	r3, r7, r1
 80007ee:	2200      	movs	r2, #0
 80007f0:	62da      	str	r2, [r3, #44]	; 0x2c
  if (HAL_RCC_OscConfig(&RCC_OscInitStruct) != HAL_OK)
 80007f2:	187b      	adds	r3, r7, r1
 80007f4:	0018      	movs	r0, r3
 80007f6:	f001 feb7 	bl	8002568 <HAL_RCC_OscConfig>
 80007fa:	1e03      	subs	r3, r0, #0
 80007fc:	d001      	beq.n	8000802 <SystemClock_Config+0x72>
  {
    Error_Handler();
 80007fe:	f000 fad7 	bl	8000db0 <Error_Handler>
  }

  /** Initializes the CPU, AHB and APB buses clocks
  */
  RCC_ClkInitStruct.ClockType = RCC_CLOCKTYPE_HCLK|RCC_CLOCKTYPE_SYSCLK
 8000802:	2118      	movs	r1, #24
 8000804:	187b      	adds	r3, r7, r1
 8000806:	2207      	movs	r2, #7
 8000808:	601a      	str	r2, [r3, #0]
                              |RCC_CLOCKTYPE_PCLK1;
  RCC_ClkInitStruct.SYSCLKSource = RCC_SYSCLKSOURCE_PLLCLK;
 800080a:	187b      	adds	r3, r7, r1
 800080c:	2202      	movs	r2, #2
 800080e:	605a      	str	r2, [r3, #4]
  RCC_ClkInitStruct.AHBCLKDivider = RCC_SYSCLK_DIV1;
 8000810:	187b      	adds	r3, r7, r1
 8000812:	2200      	movs	r2, #0
 8000814:	609a      	str	r2, [r3, #8]
  RCC_ClkInitStruct.APB1CLKDivider = RCC_HCLK_DIV1;
 8000816:	187b      	adds	r3, r7, r1
 8000818:	2200      	movs	r2, #0
 800081a:	60da      	str	r2, [r3, #12]

  if (HAL_RCC_ClockConfig(&RCC_ClkInitStruct, FLASH_LATENCY_1) != HAL_OK)
 800081c:	187b      	adds	r3, r7, r1
 800081e:	2101      	movs	r1, #1
 8000820:	0018      	movs	r0, r3
 8000822:	f002 f9bb 	bl	8002b9c <HAL_RCC_ClockConfig>
 8000826:	1e03      	subs	r3, r0, #0
 8000828:	d001      	beq.n	800082e <SystemClock_Config+0x9e>
  {
    Error_Handler();
 800082a:	f000 fac1 	bl	8000db0 <Error_Handler>
  }
  PeriphClkInit.PeriphClockSelection = RCC_PERIPHCLK_I2C1;
 800082e:	1d3b      	adds	r3, r7, #4
 8000830:	2220      	movs	r2, #32
 8000832:	601a      	str	r2, [r3, #0]
  PeriphClkInit.I2c1ClockSelection = RCC_I2C1CLKSOURCE_HSI;
 8000834:	1d3b      	adds	r3, r7, #4
 8000836:	2200      	movs	r2, #0
 8000838:	60da      	str	r2, [r3, #12]
  if (HAL_RCCEx_PeriphCLKConfig(&PeriphClkInit) != HAL_OK)
 800083a:	1d3b      	adds	r3, r7, #4
 800083c:	0018      	movs	r0, r3
 800083e:	f002 faff 	bl	8002e40 <HAL_RCCEx_PeriphCLKConfig>
 8000842:	1e03      	subs	r3, r0, #0
 8000844:	d001      	beq.n	800084a <SystemClock_Config+0xba>
  {
    Error_Handler();
 8000846:	f000 fab3 	bl	8000db0 <Error_Handler>
  }
}
 800084a:	46c0      	nop			; (mov r8, r8)
 800084c:	46bd      	mov	sp, r7
 800084e:	b017      	add	sp, #92	; 0x5c
 8000850:	bd90      	pop	{r4, r7, pc}
	...

08000854 <MX_I2C1_Init>:
  * @brief I2C1 Initialization Function
  * @param None
  * @retval None
  */
static void MX_I2C1_Init(void)
{
 8000854:	b580      	push	{r7, lr}
 8000856:	af00      	add	r7, sp, #0
  /* USER CODE END I2C1_Init 0 */

  /* USER CODE BEGIN I2C1_Init 1 */

  /* USER CODE END I2C1_Init 1 */
  hi2c1.Instance = I2C1;
 8000858:	4b1b      	ldr	r3, [pc, #108]	; (80008c8 <MX_I2C1_Init+0x74>)
 800085a:	4a1c      	ldr	r2, [pc, #112]	; (80008cc <MX_I2C1_Init+0x78>)
 800085c:	601a      	str	r2, [r3, #0]
  hi2c1.Init.Timing = 0x2000090E;
 800085e:	4b1a      	ldr	r3, [pc, #104]	; (80008c8 <MX_I2C1_Init+0x74>)
 8000860:	4a1b      	ldr	r2, [pc, #108]	; (80008d0 <MX_I2C1_Init+0x7c>)
 8000862:	605a      	str	r2, [r3, #4]
  hi2c1.Init.OwnAddress1 = 0;
 8000864:	4b18      	ldr	r3, [pc, #96]	; (80008c8 <MX_I2C1_Init+0x74>)
 8000866:	2200      	movs	r2, #0
 8000868:	609a      	str	r2, [r3, #8]
  hi2c1.Init.AddressingMode = I2C_ADDRESSINGMODE_7BIT;
 800086a:	4b17      	ldr	r3, [pc, #92]	; (80008c8 <MX_I2C1_Init+0x74>)
 800086c:	2201      	movs	r2, #1
 800086e:	60da      	str	r2, [r3, #12]
  hi2c1.Init.DualAddressMode = I2C_DUALADDRESS_DISABLE;
 8000870:	4b15      	ldr	r3, [pc, #84]	; (80008c8 <MX_I2C1_Init+0x74>)
 8000872:	2200      	movs	r2, #0
 8000874:	611a      	str	r2, [r3, #16]
  hi2c1.Init.OwnAddress2 = 0;
 8000876:	4b14      	ldr	r3, [pc, #80]	; (80008c8 <MX_I2C1_Init+0x74>)
 8000878:	2200      	movs	r2, #0
 800087a:	615a      	str	r2, [r3, #20]
  hi2c1.Init.OwnAddress2Masks = I2C_OA2_NOMASK;
 800087c:	4b12      	ldr	r3, [pc, #72]	; (80008c8 <MX_I2C1_Init+0x74>)
 800087e:	2200      	movs	r2, #0
 8000880:	619a      	str	r2, [r3, #24]
  hi2c1.Init.GeneralCallMode = I2C_GENERALCALL_DISABLE;
 8000882:	4b11      	ldr	r3, [pc, #68]	; (80008c8 <MX_I2C1_Init+0x74>)
 8000884:	2200      	movs	r2, #0
 8000886:	61da      	str	r2, [r3, #28]
  hi2c1.Init.NoStretchMode = I2C_NOSTRETCH_DISABLE;
 8000888:	4b0f      	ldr	r3, [pc, #60]	; (80008c8 <MX_I2C1_Init+0x74>)
 800088a:	2200      	movs	r2, #0
 800088c:	621a      	str	r2, [r3, #32]
  if (HAL_I2C_Init(&hi2c1) != HAL_OK)
 800088e:	4b0e      	ldr	r3, [pc, #56]	; (80008c8 <MX_I2C1_Init+0x74>)
 8000890:	0018      	movs	r0, r3
 8000892:	f001 f887 	bl	80019a4 <HAL_I2C_Init>
 8000896:	1e03      	subs	r3, r0, #0
 8000898:	d001      	beq.n	800089e <MX_I2C1_Init+0x4a>
  {
    Error_Handler();
 800089a:	f000 fa89 	bl	8000db0 <Error_Handler>
  }

  /** Configure Analogue filter
  */
  if (HAL_I2CEx_ConfigAnalogFilter(&hi2c1, I2C_ANALOGFILTER_ENABLE) != HAL_OK)
 800089e:	4b0a      	ldr	r3, [pc, #40]	; (80008c8 <MX_I2C1_Init+0x74>)
 80008a0:	2100      	movs	r1, #0
 80008a2:	0018      	movs	r0, r3
 80008a4:	f001 fdc8 	bl	8002438 <HAL_I2CEx_ConfigAnalogFilter>
 80008a8:	1e03      	subs	r3, r0, #0
 80008aa:	d001      	beq.n	80008b0 <MX_I2C1_Init+0x5c>
  {
    Error_Handler();
 80008ac:	f000 fa80 	bl	8000db0 <Error_Handler>
  }

  /** Configure Digital filter
  */
  if (HAL_I2CEx_ConfigDigitalFilter(&hi2c1, 0) != HAL_OK)
 80008b0:	4b05      	ldr	r3, [pc, #20]	; (80008c8 <MX_I2C1_Init+0x74>)
 80008b2:	2100      	movs	r1, #0
 80008b4:	0018      	movs	r0, r3
 80008b6:	f001 fe0b 	bl	80024d0 <HAL_I2CEx_ConfigDigitalFilter>
 80008ba:	1e03      	subs	r3, r0, #0
 80008bc:	d001      	beq.n	80008c2 <MX_I2C1_Init+0x6e>
  {
    Error_Handler();
 80008be:	f000 fa77 	bl	8000db0 <Error_Handler>
  }
  /* USER CODE BEGIN I2C1_Init 2 */

  /* USER CODE END I2C1_Init 2 */

}
 80008c2:	46c0      	nop			; (mov r8, r8)
 80008c4:	46bd      	mov	sp, r7
 80008c6:	bd80      	pop	{r7, pc}
 80008c8:	2000008c 	.word	0x2000008c
 80008cc:	40005400 	.word	0x40005400
 80008d0:	2000090e 	.word	0x2000090e

080008d4 <MX_USART2_UART_Init>:
  * @brief USART2 Initialization Function
  * @param None
  * @retval None
  */
static void MX_USART2_UART_Init(void)
{
 80008d4:	b580      	push	{r7, lr}
 80008d6:	af00      	add	r7, sp, #0
  /* USER CODE END USART2_Init 0 */

  /* USER CODE BEGIN USART2_Init 1 */

  /* USER CODE END USART2_Init 1 */
  huart2.Instance = USART2;
 80008d8:	4b14      	ldr	r3, [pc, #80]	; (800092c <MX_USART2_UART_Init+0x58>)
 80008da:	4a15      	ldr	r2, [pc, #84]	; (8000930 <MX_USART2_UART_Init+0x5c>)
 80008dc:	601a      	str	r2, [r3, #0]
  huart2.Init.BaudRate = 9600;
 80008de:	4b13      	ldr	r3, [pc, #76]	; (800092c <MX_USART2_UART_Init+0x58>)
 80008e0:	2296      	movs	r2, #150	; 0x96
 80008e2:	0192      	lsls	r2, r2, #6
 80008e4:	605a      	str	r2, [r3, #4]
  huart2.Init.WordLength = UART_WORDLENGTH_8B;
 80008e6:	4b11      	ldr	r3, [pc, #68]	; (800092c <MX_USART2_UART_Init+0x58>)
 80008e8:	2200      	movs	r2, #0
 80008ea:	609a      	str	r2, [r3, #8]
  huart2.Init.StopBits = UART_STOPBITS_1;
 80008ec:	4b0f      	ldr	r3, [pc, #60]	; (800092c <MX_USART2_UART_Init+0x58>)
 80008ee:	2200      	movs	r2, #0
 80008f0:	60da      	str	r2, [r3, #12]
  huart2.Init.Parity = UART_PARITY_NONE;
 80008f2:	4b0e      	ldr	r3, [pc, #56]	; (800092c <MX_USART2_UART_Init+0x58>)
 80008f4:	2200      	movs	r2, #0
 80008f6:	611a      	str	r2, [r3, #16]
  huart2.Init.Mode = UART_MODE_TX_RX;
 80008f8:	4b0c      	ldr	r3, [pc, #48]	; (800092c <MX_USART2_UART_Init+0x58>)
 80008fa:	220c      	movs	r2, #12
 80008fc:	615a      	str	r2, [r3, #20]
  huart2.Init.HwFlowCtl = UART_HWCONTROL_NONE;
 80008fe:	4b0b      	ldr	r3, [pc, #44]	; (800092c <MX_USART2_UART_Init+0x58>)
 8000900:	2200      	movs	r2, #0
 8000902:	619a      	str	r2, [r3, #24]
  huart2.Init.OverSampling = UART_OVERSAMPLING_16;
 8000904:	4b09      	ldr	r3, [pc, #36]	; (800092c <MX_USART2_UART_Init+0x58>)
 8000906:	2200      	movs	r2, #0
 8000908:	61da      	str	r2, [r3, #28]
  huart2.Init.OneBitSampling = UART_ONE_BIT_SAMPLE_DISABLE;
 800090a:	4b08      	ldr	r3, [pc, #32]	; (800092c <MX_USART2_UART_Init+0x58>)
 800090c:	2200      	movs	r2, #0
 800090e:	621a      	str	r2, [r3, #32]
  huart2.AdvancedInit.AdvFeatureInit = UART_ADVFEATURE_NO_INIT;
 8000910:	4b06      	ldr	r3, [pc, #24]	; (800092c <MX_USART2_UART_Init+0x58>)
 8000912:	2200      	movs	r2, #0
 8000914:	625a      	str	r2, [r3, #36]	; 0x24
  if (HAL_UART_Init(&huart2) != HAL_OK)
 8000916:	4b05      	ldr	r3, [pc, #20]	; (800092c <MX_USART2_UART_Init+0x58>)
 8000918:	0018      	movs	r0, r3
 800091a:	f002 fb6f 	bl	8002ffc <HAL_UART_Init>
 800091e:	1e03      	subs	r3, r0, #0
 8000920:	d001      	beq.n	8000926 <MX_USART2_UART_Init+0x52>
  {
    Error_Handler();
 8000922:	f000 fa45 	bl	8000db0 <Error_Handler>
  }
  /* USER CODE BEGIN USART2_Init 2 */

  /* USER CODE END USART2_Init 2 */

}
 8000926:	46c0      	nop			; (mov r8, r8)
 8000928:	46bd      	mov	sp, r7
 800092a:	bd80      	pop	{r7, pc}
 800092c:	200000d8 	.word	0x200000d8
 8000930:	40004400 	.word	0x40004400

08000934 <MX_DMA_Init>:

/**
  * Enable DMA controller clock
  */
static void MX_DMA_Init(void)
{
 8000934:	b580      	push	{r7, lr}
 8000936:	b082      	sub	sp, #8
 8000938:	af00      	add	r7, sp, #0

  /* DMA controller clock enable */
  __HAL_RCC_DMA1_CLK_ENABLE();
 800093a:	4b0c      	ldr	r3, [pc, #48]	; (800096c <MX_DMA_Init+0x38>)
 800093c:	695a      	ldr	r2, [r3, #20]
 800093e:	4b0b      	ldr	r3, [pc, #44]	; (800096c <MX_DMA_Init+0x38>)
 8000940:	2101      	movs	r1, #1
 8000942:	430a      	orrs	r2, r1
 8000944:	615a      	str	r2, [r3, #20]
 8000946:	4b09      	ldr	r3, [pc, #36]	; (800096c <MX_DMA_Init+0x38>)
 8000948:	695b      	ldr	r3, [r3, #20]
 800094a:	2201      	movs	r2, #1
 800094c:	4013      	ands	r3, r2
 800094e:	607b      	str	r3, [r7, #4]
 8000950:	687b      	ldr	r3, [r7, #4]

  /* DMA interrupt init */
  /* DMA1_Channel4_5_IRQn interrupt configuration */
  HAL_NVIC_SetPriority(DMA1_Channel4_5_IRQn, 0, 0);
 8000952:	2200      	movs	r2, #0
 8000954:	2100      	movs	r1, #0
 8000956:	200b      	movs	r0, #11
 8000958:	f000 fcc6 	bl	80012e8 <HAL_NVIC_SetPriority>
  HAL_NVIC_EnableIRQ(DMA1_Channel4_5_IRQn);
 800095c:	200b      	movs	r0, #11
 800095e:	f000 fcd8 	bl	8001312 <HAL_NVIC_EnableIRQ>

}
 8000962:	46c0      	nop			; (mov r8, r8)
 8000964:	46bd      	mov	sp, r7
 8000966:	b002      	add	sp, #8
 8000968:	bd80      	pop	{r7, pc}
 800096a:	46c0      	nop			; (mov r8, r8)
 800096c:	40021000 	.word	0x40021000

08000970 <MX_GPIO_Init>:
  * @brief GPIO Initialization Function
  * @param None
  * @retval None
  */
static void MX_GPIO_Init(void)
{
 8000970:	b590      	push	{r4, r7, lr}
 8000972:	b08b      	sub	sp, #44	; 0x2c
 8000974:	af00      	add	r7, sp, #0
  GPIO_InitTypeDef GPIO_InitStruct = {0};
 8000976:	2414      	movs	r4, #20
 8000978:	193b      	adds	r3, r7, r4
 800097a:	0018      	movs	r0, r3
 800097c:	2314      	movs	r3, #20
 800097e:	001a      	movs	r2, r3
 8000980:	2100      	movs	r1, #0
 8000982:	f003 fb03 	bl	8003f8c <memset>

  /* GPIO Ports Clock Enable */
  __HAL_RCC_GPIOF_CLK_ENABLE();
 8000986:	4b34      	ldr	r3, [pc, #208]	; (8000a58 <MX_GPIO_Init+0xe8>)
 8000988:	695a      	ldr	r2, [r3, #20]
 800098a:	4b33      	ldr	r3, [pc, #204]	; (8000a58 <MX_GPIO_Init+0xe8>)
 800098c:	2180      	movs	r1, #128	; 0x80
 800098e:	03c9      	lsls	r1, r1, #15
 8000990:	430a      	orrs	r2, r1
 8000992:	615a      	str	r2, [r3, #20]
 8000994:	4b30      	ldr	r3, [pc, #192]	; (8000a58 <MX_GPIO_Init+0xe8>)
 8000996:	695a      	ldr	r2, [r3, #20]
 8000998:	2380      	movs	r3, #128	; 0x80
 800099a:	03db      	lsls	r3, r3, #15
 800099c:	4013      	ands	r3, r2
 800099e:	613b      	str	r3, [r7, #16]
 80009a0:	693b      	ldr	r3, [r7, #16]
  __HAL_RCC_GPIOA_CLK_ENABLE();
 80009a2:	4b2d      	ldr	r3, [pc, #180]	; (8000a58 <MX_GPIO_Init+0xe8>)
 80009a4:	695a      	ldr	r2, [r3, #20]
 80009a6:	4b2c      	ldr	r3, [pc, #176]	; (8000a58 <MX_GPIO_Init+0xe8>)
 80009a8:	2180      	movs	r1, #128	; 0x80
 80009aa:	0289      	lsls	r1, r1, #10
 80009ac:	430a      	orrs	r2, r1
 80009ae:	615a      	str	r2, [r3, #20]
 80009b0:	4b29      	ldr	r3, [pc, #164]	; (8000a58 <MX_GPIO_Init+0xe8>)
 80009b2:	695a      	ldr	r2, [r3, #20]
 80009b4:	2380      	movs	r3, #128	; 0x80
 80009b6:	029b      	lsls	r3, r3, #10
 80009b8:	4013      	ands	r3, r2
 80009ba:	60fb      	str	r3, [r7, #12]
 80009bc:	68fb      	ldr	r3, [r7, #12]
  __HAL_RCC_GPIOC_CLK_ENABLE();
 80009be:	4b26      	ldr	r3, [pc, #152]	; (8000a58 <MX_GPIO_Init+0xe8>)
 80009c0:	695a      	ldr	r2, [r3, #20]
 80009c2:	4b25      	ldr	r3, [pc, #148]	; (8000a58 <MX_GPIO_Init+0xe8>)
 80009c4:	2180      	movs	r1, #128	; 0x80
 80009c6:	0309      	lsls	r1, r1, #12
 80009c8:	430a      	orrs	r2, r1
 80009ca:	615a      	str	r2, [r3, #20]
 80009cc:	4b22      	ldr	r3, [pc, #136]	; (8000a58 <MX_GPIO_Init+0xe8>)
 80009ce:	695a      	ldr	r2, [r3, #20]
 80009d0:	2380      	movs	r3, #128	; 0x80
 80009d2:	031b      	lsls	r3, r3, #12
 80009d4:	4013      	ands	r3, r2
 80009d6:	60bb      	str	r3, [r7, #8]
 80009d8:	68bb      	ldr	r3, [r7, #8]
  __HAL_RCC_GPIOB_CLK_ENABLE();
 80009da:	4b1f      	ldr	r3, [pc, #124]	; (8000a58 <MX_GPIO_Init+0xe8>)
 80009dc:	695a      	ldr	r2, [r3, #20]
 80009de:	4b1e      	ldr	r3, [pc, #120]	; (8000a58 <MX_GPIO_Init+0xe8>)
 80009e0:	2180      	movs	r1, #128	; 0x80
 80009e2:	02c9      	lsls	r1, r1, #11
 80009e4:	430a      	orrs	r2, r1
 80009e6:	615a      	str	r2, [r3, #20]
 80009e8:	4b1b      	ldr	r3, [pc, #108]	; (8000a58 <MX_GPIO_Init+0xe8>)
 80009ea:	695a      	ldr	r2, [r3, #20]
 80009ec:	2380      	movs	r3, #128	; 0x80
 80009ee:	02db      	lsls	r3, r3, #11
 80009f0:	4013      	ands	r3, r2
 80009f2:	607b      	str	r3, [r7, #4]
 80009f4:	687b      	ldr	r3, [r7, #4]

  /*Configure GPIO pin Output Level */
  HAL_GPIO_WritePin(GPIOC, LD4_Pin|LD3_Pin, GPIO_PIN_RESET);
 80009f6:	23c0      	movs	r3, #192	; 0xc0
 80009f8:	009b      	lsls	r3, r3, #2
 80009fa:	4818      	ldr	r0, [pc, #96]	; (8000a5c <MX_GPIO_Init+0xec>)
 80009fc:	2200      	movs	r2, #0
 80009fe:	0019      	movs	r1, r3
 8000a00:	f000 ff98 	bl	8001934 <HAL_GPIO_WritePin>

  /*Configure GPIO pin : B1_Pin */
  GPIO_InitStruct.Pin = B1_Pin;
 8000a04:	193b      	adds	r3, r7, r4
 8000a06:	2201      	movs	r2, #1
 8000a08:	601a      	str	r2, [r3, #0]
  GPIO_InitStruct.Mode = GPIO_MODE_EVT_RISING;
 8000a0a:	193b      	adds	r3, r7, r4
 8000a0c:	2290      	movs	r2, #144	; 0x90
 8000a0e:	0352      	lsls	r2, r2, #13
 8000a10:	605a      	str	r2, [r3, #4]
  GPIO_InitStruct.Pull = GPIO_NOPULL;
 8000a12:	193b      	adds	r3, r7, r4
 8000a14:	2200      	movs	r2, #0
 8000a16:	609a      	str	r2, [r3, #8]
  HAL_GPIO_Init(B1_GPIO_Port, &GPIO_InitStruct);
 8000a18:	193a      	adds	r2, r7, r4
 8000a1a:	2390      	movs	r3, #144	; 0x90
 8000a1c:	05db      	lsls	r3, r3, #23
 8000a1e:	0011      	movs	r1, r2
 8000a20:	0018      	movs	r0, r3
 8000a22:	f000 fe17 	bl	8001654 <HAL_GPIO_Init>

  /*Configure GPIO pins : LD4_Pin LD3_Pin */
  GPIO_InitStruct.Pin = LD4_Pin|LD3_Pin;
 8000a26:	0021      	movs	r1, r4
 8000a28:	187b      	adds	r3, r7, r1
 8000a2a:	22c0      	movs	r2, #192	; 0xc0
 8000a2c:	0092      	lsls	r2, r2, #2
 8000a2e:	601a      	str	r2, [r3, #0]
  GPIO_InitStruct.Mode = GPIO_MODE_OUTPUT_PP;
 8000a30:	187b      	adds	r3, r7, r1
 8000a32:	2201      	movs	r2, #1
 8000a34:	605a      	str	r2, [r3, #4]
  GPIO_InitStruct.Pull = GPIO_NOPULL;
 8000a36:	187b      	adds	r3, r7, r1
 8000a38:	2200      	movs	r2, #0
 8000a3a:	609a      	str	r2, [r3, #8]
  GPIO_InitStruct.Speed = GPIO_SPEED_FREQ_LOW;
 8000a3c:	187b      	adds	r3, r7, r1
 8000a3e:	2200      	movs	r2, #0
 8000a40:	60da      	str	r2, [r3, #12]
  HAL_GPIO_Init(GPIOC, &GPIO_InitStruct);
 8000a42:	187b      	adds	r3, r7, r1
 8000a44:	4a05      	ldr	r2, [pc, #20]	; (8000a5c <MX_GPIO_Init+0xec>)
 8000a46:	0019      	movs	r1, r3
 8000a48:	0010      	movs	r0, r2
 8000a4a:	f000 fe03 	bl	8001654 <HAL_GPIO_Init>

}
 8000a4e:	46c0      	nop			; (mov r8, r8)
 8000a50:	46bd      	mov	sp, r7
 8000a52:	b00b      	add	sp, #44	; 0x2c
 8000a54:	bd90      	pop	{r4, r7, pc}
 8000a56:	46c0      	nop			; (mov r8, r8)
 8000a58:	40021000 	.word	0x40021000
 8000a5c:	48000800 	.word	0x48000800

08000a60 <pause_sec>:

/* USER CODE BEGIN 4 */
void pause_sec(float x)
{
 8000a60:	b580      	push	{r7, lr}
 8000a62:	b086      	sub	sp, #24
 8000a64:	af00      	add	r7, sp, #0
 8000a66:	6078      	str	r0, [r7, #4]
	/* Delay program execution for x seconds */
	volatile uint32_t i,j;
	int delay = x*DELAY1;
 8000a68:	4911      	ldr	r1, [pc, #68]	; (8000ab0 <pause_sec+0x50>)
 8000a6a:	6878      	ldr	r0, [r7, #4]
 8000a6c:	f7ff fccc 	bl	8000408 <__aeabi_fmul>
 8000a70:	1c03      	adds	r3, r0, #0
 8000a72:	1c18      	adds	r0, r3, #0
 8000a74:	f7ff fdee 	bl	8000654 <__aeabi_f2iz>
 8000a78:	0003      	movs	r3, r0
 8000a7a:	617b      	str	r3, [r7, #20]
	for(i = 0 ;i<=delay;i++){
 8000a7c:	2300      	movs	r3, #0
 8000a7e:	613b      	str	r3, [r7, #16]
 8000a80:	e00d      	b.n	8000a9e <pause_sec+0x3e>
      	for(j = 0;j<=DELAY2;j++){};
 8000a82:	2300      	movs	r3, #0
 8000a84:	60fb      	str	r3, [r7, #12]
 8000a86:	e002      	b.n	8000a8e <pause_sec+0x2e>
 8000a88:	68fb      	ldr	r3, [r7, #12]
 8000a8a:	3301      	adds	r3, #1
 8000a8c:	60fb      	str	r3, [r7, #12]
 8000a8e:	68fa      	ldr	r2, [r7, #12]
 8000a90:	23fa      	movs	r3, #250	; 0xfa
 8000a92:	009b      	lsls	r3, r3, #2
 8000a94:	429a      	cmp	r2, r3
 8000a96:	d9f7      	bls.n	8000a88 <pause_sec+0x28>
	for(i = 0 ;i<=delay;i++){
 8000a98:	693b      	ldr	r3, [r7, #16]
 8000a9a:	3301      	adds	r3, #1
 8000a9c:	613b      	str	r3, [r7, #16]
 8000a9e:	693a      	ldr	r2, [r7, #16]
 8000aa0:	697b      	ldr	r3, [r7, #20]
 8000aa2:	429a      	cmp	r2, r3
 8000aa4:	d9ed      	bls.n	8000a82 <pause_sec+0x22>
	}
}
 8000aa6:	46c0      	nop			; (mov r8, r8)
 8000aa8:	46c0      	nop			; (mov r8, r8)
 8000aaa:	46bd      	mov	sp, r7
 8000aac:	b006      	add	sp, #24
 8000aae:	bd80      	pop	{r7, pc}
 8000ab0:	45960000 	.word	0x45960000

08000ab4 <decToBcd>:

// Convert normal decimal numbers to binary coded decimal
uint8_t decToBcd(int val)
{
 8000ab4:	b590      	push	{r4, r7, lr}
 8000ab6:	b083      	sub	sp, #12
 8000ab8:	af00      	add	r7, sp, #0
 8000aba:	6078      	str	r0, [r7, #4]
  return (uint8_t)( (val/10*16) + (val%10) );
 8000abc:	687b      	ldr	r3, [r7, #4]
 8000abe:	210a      	movs	r1, #10
 8000ac0:	0018      	movs	r0, r3
 8000ac2:	f7ff fbb5 	bl	8000230 <__divsi3>
 8000ac6:	0003      	movs	r3, r0
 8000ac8:	b2db      	uxtb	r3, r3
 8000aca:	011b      	lsls	r3, r3, #4
 8000acc:	b2dc      	uxtb	r4, r3
 8000ace:	687b      	ldr	r3, [r7, #4]
 8000ad0:	210a      	movs	r1, #10
 8000ad2:	0018      	movs	r0, r3
 8000ad4:	f7ff fc92 	bl	80003fc <__aeabi_idivmod>
 8000ad8:	000b      	movs	r3, r1
 8000ada:	b2db      	uxtb	r3, r3
 8000adc:	18e3      	adds	r3, r4, r3
 8000ade:	b2db      	uxtb	r3, r3
}
 8000ae0:	0018      	movs	r0, r3
 8000ae2:	46bd      	mov	sp, r7
 8000ae4:	b003      	add	sp, #12
 8000ae6:	bd90      	pop	{r4, r7, pc}

08000ae8 <bcdToDec>:

// Convert binary coded decimal to normal decimal numbers
int bcdToDec(uint8_t val)
{
 8000ae8:	b580      	push	{r7, lr}
 8000aea:	b082      	sub	sp, #8
 8000aec:	af00      	add	r7, sp, #0
 8000aee:	0002      	movs	r2, r0
 8000af0:	1dfb      	adds	r3, r7, #7
 8000af2:	701a      	strb	r2, [r3, #0]
  return (int)( (val/16*10) + (val%16) );
 8000af4:	1dfb      	adds	r3, r7, #7
 8000af6:	781b      	ldrb	r3, [r3, #0]
 8000af8:	091b      	lsrs	r3, r3, #4
 8000afa:	b2db      	uxtb	r3, r3
 8000afc:	001a      	movs	r2, r3
 8000afe:	0013      	movs	r3, r2
 8000b00:	009b      	lsls	r3, r3, #2
 8000b02:	189b      	adds	r3, r3, r2
 8000b04:	005b      	lsls	r3, r3, #1
 8000b06:	0019      	movs	r1, r3
 8000b08:	1dfb      	adds	r3, r7, #7
 8000b0a:	781b      	ldrb	r3, [r3, #0]
 8000b0c:	220f      	movs	r2, #15
 8000b0e:	4013      	ands	r3, r2
 8000b10:	18cb      	adds	r3, r1, r3
}
 8000b12:	0018      	movs	r0, r3
 8000b14:	46bd      	mov	sp, r7
 8000b16:	b002      	add	sp, #8
 8000b18:	bd80      	pop	{r7, pc}
	...

08000b1c <Set_Time>:

void Set_Time (uint8_t sec, uint8_t min, uint8_t hour, uint8_t dow, uint8_t dom, uint8_t month, uint8_t year)
{
 8000b1c:	b5b0      	push	{r4, r5, r7, lr}
 8000b1e:	b088      	sub	sp, #32
 8000b20:	af04      	add	r7, sp, #16
 8000b22:	0005      	movs	r5, r0
 8000b24:	000c      	movs	r4, r1
 8000b26:	0010      	movs	r0, r2
 8000b28:	0019      	movs	r1, r3
 8000b2a:	1dfb      	adds	r3, r7, #7
 8000b2c:	1c2a      	adds	r2, r5, #0
 8000b2e:	701a      	strb	r2, [r3, #0]
 8000b30:	1dbb      	adds	r3, r7, #6
 8000b32:	1c22      	adds	r2, r4, #0
 8000b34:	701a      	strb	r2, [r3, #0]
 8000b36:	1d7b      	adds	r3, r7, #5
 8000b38:	1c02      	adds	r2, r0, #0
 8000b3a:	701a      	strb	r2, [r3, #0]
 8000b3c:	1d3b      	adds	r3, r7, #4
 8000b3e:	1c0a      	adds	r2, r1, #0
 8000b40:	701a      	strb	r2, [r3, #0]
	uint8_t set_time[7];
	set_time[0] = decToBcd(sec);
 8000b42:	1dfb      	adds	r3, r7, #7
 8000b44:	781b      	ldrb	r3, [r3, #0]
 8000b46:	0018      	movs	r0, r3
 8000b48:	f7ff ffb4 	bl	8000ab4 <decToBcd>
 8000b4c:	0003      	movs	r3, r0
 8000b4e:	001a      	movs	r2, r3
 8000b50:	2408      	movs	r4, #8
 8000b52:	193b      	adds	r3, r7, r4
 8000b54:	701a      	strb	r2, [r3, #0]
	set_time[1] = decToBcd(min);
 8000b56:	1dbb      	adds	r3, r7, #6
 8000b58:	781b      	ldrb	r3, [r3, #0]
 8000b5a:	0018      	movs	r0, r3
 8000b5c:	f7ff ffaa 	bl	8000ab4 <decToBcd>
 8000b60:	0003      	movs	r3, r0
 8000b62:	001a      	movs	r2, r3
 8000b64:	193b      	adds	r3, r7, r4
 8000b66:	705a      	strb	r2, [r3, #1]
	set_time[2] = decToBcd(hour);
 8000b68:	1d7b      	adds	r3, r7, #5
 8000b6a:	781b      	ldrb	r3, [r3, #0]
 8000b6c:	0018      	movs	r0, r3
 8000b6e:	f7ff ffa1 	bl	8000ab4 <decToBcd>
 8000b72:	0003      	movs	r3, r0
 8000b74:	001a      	movs	r2, r3
 8000b76:	193b      	adds	r3, r7, r4
 8000b78:	709a      	strb	r2, [r3, #2]
	set_time[3] = decToBcd(dow);
 8000b7a:	1d3b      	adds	r3, r7, #4
 8000b7c:	781b      	ldrb	r3, [r3, #0]
 8000b7e:	0018      	movs	r0, r3
 8000b80:	f7ff ff98 	bl	8000ab4 <decToBcd>
 8000b84:	0003      	movs	r3, r0
 8000b86:	001a      	movs	r2, r3
 8000b88:	193b      	adds	r3, r7, r4
 8000b8a:	70da      	strb	r2, [r3, #3]
	set_time[4] = decToBcd(dom);
 8000b8c:	2320      	movs	r3, #32
 8000b8e:	18fb      	adds	r3, r7, r3
 8000b90:	781b      	ldrb	r3, [r3, #0]
 8000b92:	0018      	movs	r0, r3
 8000b94:	f7ff ff8e 	bl	8000ab4 <decToBcd>
 8000b98:	0003      	movs	r3, r0
 8000b9a:	001a      	movs	r2, r3
 8000b9c:	193b      	adds	r3, r7, r4
 8000b9e:	711a      	strb	r2, [r3, #4]
	set_time[5] = decToBcd(month);
 8000ba0:	2324      	movs	r3, #36	; 0x24
 8000ba2:	18fb      	adds	r3, r7, r3
 8000ba4:	781b      	ldrb	r3, [r3, #0]
 8000ba6:	0018      	movs	r0, r3
 8000ba8:	f7ff ff84 	bl	8000ab4 <decToBcd>
 8000bac:	0003      	movs	r3, r0
 8000bae:	001a      	movs	r2, r3
 8000bb0:	193b      	adds	r3, r7, r4
 8000bb2:	715a      	strb	r2, [r3, #5]
	set_time[6] = decToBcd(year);
 8000bb4:	2328      	movs	r3, #40	; 0x28
 8000bb6:	18fb      	adds	r3, r7, r3
 8000bb8:	781b      	ldrb	r3, [r3, #0]
 8000bba:	0018      	movs	r0, r3
 8000bbc:	f7ff ff7a 	bl	8000ab4 <decToBcd>
 8000bc0:	0003      	movs	r3, r0
 8000bc2:	001a      	movs	r2, r3
 8000bc4:	193b      	adds	r3, r7, r4
 8000bc6:	719a      	strb	r2, [r3, #6]

	HAL_I2C_Mem_Write(&hi2c1, DS3231_ADDRESS, 0x00, 1, set_time, 7, 1000);
 8000bc8:	4808      	ldr	r0, [pc, #32]	; (8000bec <Set_Time+0xd0>)
 8000bca:	23fa      	movs	r3, #250	; 0xfa
 8000bcc:	009b      	lsls	r3, r3, #2
 8000bce:	9302      	str	r3, [sp, #8]
 8000bd0:	2307      	movs	r3, #7
 8000bd2:	9301      	str	r3, [sp, #4]
 8000bd4:	193b      	adds	r3, r7, r4
 8000bd6:	9300      	str	r3, [sp, #0]
 8000bd8:	2301      	movs	r3, #1
 8000bda:	2200      	movs	r2, #0
 8000bdc:	21d0      	movs	r1, #208	; 0xd0
 8000bde:	f000 ff77 	bl	8001ad0 <HAL_I2C_Mem_Write>
}
 8000be2:	46c0      	nop			; (mov r8, r8)
 8000be4:	46bd      	mov	sp, r7
 8000be6:	b004      	add	sp, #16
 8000be8:	bdb0      	pop	{r4, r5, r7, pc}
 8000bea:	46c0      	nop			; (mov r8, r8)
 8000bec:	2000008c 	.word	0x2000008c

08000bf0 <Get_Time>:

void Get_Time (void)
{
 8000bf0:	b580      	push	{r7, lr}
 8000bf2:	b086      	sub	sp, #24
 8000bf4:	af04      	add	r7, sp, #16
	uint8_t get_time[7];

	HAL_I2C_Mem_Read(&hi2c1, DS3231_ADDRESS, 0x00, 1, get_time, 7, 1000);
 8000bf6:	4828      	ldr	r0, [pc, #160]	; (8000c98 <Get_Time+0xa8>)
 8000bf8:	23fa      	movs	r3, #250	; 0xfa
 8000bfa:	009b      	lsls	r3, r3, #2
 8000bfc:	9302      	str	r3, [sp, #8]
 8000bfe:	2307      	movs	r3, #7
 8000c00:	9301      	str	r3, [sp, #4]
 8000c02:	003b      	movs	r3, r7
 8000c04:	9300      	str	r3, [sp, #0]
 8000c06:	2301      	movs	r3, #1
 8000c08:	2200      	movs	r2, #0
 8000c0a:	21d0      	movs	r1, #208	; 0xd0
 8000c0c:	f001 f88e 	bl	8001d2c <HAL_I2C_Mem_Read>

	time.seconds = bcdToDec(get_time[0]);
 8000c10:	003b      	movs	r3, r7
 8000c12:	781b      	ldrb	r3, [r3, #0]
 8000c14:	0018      	movs	r0, r3
 8000c16:	f7ff ff67 	bl	8000ae8 <bcdToDec>
 8000c1a:	0003      	movs	r3, r0
 8000c1c:	b2da      	uxtb	r2, r3
 8000c1e:	4b1f      	ldr	r3, [pc, #124]	; (8000c9c <Get_Time+0xac>)
 8000c20:	701a      	strb	r2, [r3, #0]
	time.minutes = bcdToDec(get_time[1]);
 8000c22:	003b      	movs	r3, r7
 8000c24:	785b      	ldrb	r3, [r3, #1]
 8000c26:	0018      	movs	r0, r3
 8000c28:	f7ff ff5e 	bl	8000ae8 <bcdToDec>
 8000c2c:	0003      	movs	r3, r0
 8000c2e:	b2da      	uxtb	r2, r3
 8000c30:	4b1a      	ldr	r3, [pc, #104]	; (8000c9c <Get_Time+0xac>)
 8000c32:	705a      	strb	r2, [r3, #1]
	time.hour = bcdToDec(get_time[2]);
 8000c34:	003b      	movs	r3, r7
 8000c36:	789b      	ldrb	r3, [r3, #2]
 8000c38:	0018      	movs	r0, r3
 8000c3a:	f7ff ff55 	bl	8000ae8 <bcdToDec>
 8000c3e:	0003      	movs	r3, r0
 8000c40:	b2da      	uxtb	r2, r3
 8000c42:	4b16      	ldr	r3, [pc, #88]	; (8000c9c <Get_Time+0xac>)
 8000c44:	709a      	strb	r2, [r3, #2]
	time.dayofweek = bcdToDec(get_time[3]);
 8000c46:	003b      	movs	r3, r7
 8000c48:	78db      	ldrb	r3, [r3, #3]
 8000c4a:	0018      	movs	r0, r3
 8000c4c:	f7ff ff4c 	bl	8000ae8 <bcdToDec>
 8000c50:	0003      	movs	r3, r0
 8000c52:	b2da      	uxtb	r2, r3
 8000c54:	4b11      	ldr	r3, [pc, #68]	; (8000c9c <Get_Time+0xac>)
 8000c56:	70da      	strb	r2, [r3, #3]
	time.dayofmonth = bcdToDec(get_time[4]);
 8000c58:	003b      	movs	r3, r7
 8000c5a:	791b      	ldrb	r3, [r3, #4]
 8000c5c:	0018      	movs	r0, r3
 8000c5e:	f7ff ff43 	bl	8000ae8 <bcdToDec>
 8000c62:	0003      	movs	r3, r0
 8000c64:	b2da      	uxtb	r2, r3
 8000c66:	4b0d      	ldr	r3, [pc, #52]	; (8000c9c <Get_Time+0xac>)
 8000c68:	711a      	strb	r2, [r3, #4]
	time.month = bcdToDec(get_time[5]);
 8000c6a:	003b      	movs	r3, r7
 8000c6c:	795b      	ldrb	r3, [r3, #5]
 8000c6e:	0018      	movs	r0, r3
 8000c70:	f7ff ff3a 	bl	8000ae8 <bcdToDec>
 8000c74:	0003      	movs	r3, r0
 8000c76:	b2da      	uxtb	r2, r3
 8000c78:	4b08      	ldr	r3, [pc, #32]	; (8000c9c <Get_Time+0xac>)
 8000c7a:	715a      	strb	r2, [r3, #5]
	time.year = bcdToDec(get_time[6]);
 8000c7c:	003b      	movs	r3, r7
 8000c7e:	799b      	ldrb	r3, [r3, #6]
 8000c80:	0018      	movs	r0, r3
 8000c82:	f7ff ff31 	bl	8000ae8 <bcdToDec>
 8000c86:	0003      	movs	r3, r0
 8000c88:	b2da      	uxtb	r2, r3
 8000c8a:	4b04      	ldr	r3, [pc, #16]	; (8000c9c <Get_Time+0xac>)
 8000c8c:	719a      	strb	r2, [r3, #6]
}
 8000c8e:	46c0      	nop			; (mov r8, r8)
 8000c90:	46bd      	mov	sp, r7
 8000c92:	b002      	add	sp, #8
 8000c94:	bd80      	pop	{r7, pc}
 8000c96:	46c0      	nop			; (mov r8, r8)
 8000c98:	2000008c 	.word	0x2000008c
 8000c9c:	200001ac 	.word	0x200001ac

08000ca0 <epochFromTime>:


//1640995200+2*365*24*60*60 + (4*31 + 28 + 2*30)*24*60*60 + 8*24*60*60 + 0*60*60 + 15*60
//1640995200 + years*365*24*60*60 + (days elapsed this year excl current month)*24*60*60 + (days elapsed this month)*24*60*60 + (current hour)*60*60 + (current min)*60 + (current secs)
int epochFromTime(TIME time){
 8000ca0:	b580      	push	{r7, lr}
 8000ca2:	b088      	sub	sp, #32
 8000ca4:	af00      	add	r7, sp, #0
 8000ca6:	003b      	movs	r3, r7
 8000ca8:	6018      	str	r0, [r3, #0]
 8000caa:	6059      	str	r1, [r3, #4]
	int years = 22-time.year;
 8000cac:	003b      	movs	r3, r7
 8000cae:	799b      	ldrb	r3, [r3, #6]
 8000cb0:	001a      	movs	r2, r3
 8000cb2:	2316      	movs	r3, #22
 8000cb4:	1a9b      	subs	r3, r3, r2
 8000cb6:	61bb      	str	r3, [r7, #24]
	int months = time.month-1;
 8000cb8:	003b      	movs	r3, r7
 8000cba:	795b      	ldrb	r3, [r3, #5]
 8000cbc:	3b01      	subs	r3, #1
 8000cbe:	617b      	str	r3, [r7, #20]
	int day = time.dayofmonth;
 8000cc0:	003b      	movs	r3, r7
 8000cc2:	791b      	ldrb	r3, [r3, #4]
 8000cc4:	61fb      	str	r3, [r7, #28]
	int hour = time.hour;
 8000cc6:	003b      	movs	r3, r7
 8000cc8:	789b      	ldrb	r3, [r3, #2]
 8000cca:	613b      	str	r3, [r7, #16]
	int minutes = time.minutes;
 8000ccc:	003b      	movs	r3, r7
 8000cce:	785b      	ldrb	r3, [r3, #1]
 8000cd0:	60fb      	str	r3, [r7, #12]
	int seconds = time.seconds;
 8000cd2:	003b      	movs	r3, r7
 8000cd4:	781b      	ldrb	r3, [r3, #0]
 8000cd6:	60bb      	str	r3, [r7, #8]

	switch(months){
 8000cd8:	697b      	ldr	r3, [r7, #20]
 8000cda:	2b0b      	cmp	r3, #11
 8000cdc:	d834      	bhi.n	8000d48 <epochFromTime+0xa8>
 8000cde:	697b      	ldr	r3, [r7, #20]
 8000ce0:	009a      	lsls	r2, r3, #2
 8000ce2:	4b31      	ldr	r3, [pc, #196]	; (8000da8 <epochFromTime+0x108>)
 8000ce4:	18d3      	adds	r3, r2, r3
 8000ce6:	681b      	ldr	r3, [r3, #0]
 8000ce8:	469f      	mov	pc, r3
	case 1:
		day += 31;
 8000cea:	69fb      	ldr	r3, [r7, #28]
 8000cec:	331f      	adds	r3, #31
 8000cee:	61fb      	str	r3, [r7, #28]
	break;
 8000cf0:	e02a      	b.n	8000d48 <epochFromTime+0xa8>

	case 2:
		day += (31 + 28);
 8000cf2:	69fb      	ldr	r3, [r7, #28]
 8000cf4:	333b      	adds	r3, #59	; 0x3b
 8000cf6:	61fb      	str	r3, [r7, #28]
	break;
 8000cf8:	e026      	b.n	8000d48 <epochFromTime+0xa8>

	case 3:
		day += (31*2 + 28);
 8000cfa:	69fb      	ldr	r3, [r7, #28]
 8000cfc:	335a      	adds	r3, #90	; 0x5a
 8000cfe:	61fb      	str	r3, [r7, #28]
	break;
 8000d00:	e022      	b.n	8000d48 <epochFromTime+0xa8>

	case 4:
		day += (31*2 + 30 + 28);
 8000d02:	69fb      	ldr	r3, [r7, #28]
 8000d04:	3378      	adds	r3, #120	; 0x78
 8000d06:	61fb      	str	r3, [r7, #28]
	break;
 8000d08:	e01e      	b.n	8000d48 <epochFromTime+0xa8>

	case 5:
		day += (31*2 + 30*2 + 28);
 8000d0a:	69fb      	ldr	r3, [r7, #28]
 8000d0c:	3396      	adds	r3, #150	; 0x96
 8000d0e:	61fb      	str	r3, [r7, #28]
	break;
 8000d10:	e01a      	b.n	8000d48 <epochFromTime+0xa8>

	case 6:
		day += (31*3 + 30*2 + 28);
 8000d12:	69fb      	ldr	r3, [r7, #28]
 8000d14:	33b5      	adds	r3, #181	; 0xb5
 8000d16:	61fb      	str	r3, [r7, #28]
	break;
 8000d18:	e016      	b.n	8000d48 <epochFromTime+0xa8>

	case 7:
		day += (31*3 + 30*3 + 28);
 8000d1a:	69fb      	ldr	r3, [r7, #28]
 8000d1c:	33d3      	adds	r3, #211	; 0xd3
 8000d1e:	61fb      	str	r3, [r7, #28]
	break;
 8000d20:	e012      	b.n	8000d48 <epochFromTime+0xa8>

	case 8:
		day += (31*4 + 30*3 + 28);
 8000d22:	69fb      	ldr	r3, [r7, #28]
 8000d24:	33f2      	adds	r3, #242	; 0xf2
 8000d26:	61fb      	str	r3, [r7, #28]
	break;
 8000d28:	e00e      	b.n	8000d48 <epochFromTime+0xa8>

	case 9:
		day += (31*4 + 30*4 + 28);
 8000d2a:	69fb      	ldr	r3, [r7, #28]
 8000d2c:	3311      	adds	r3, #17
 8000d2e:	33ff      	adds	r3, #255	; 0xff
 8000d30:	61fb      	str	r3, [r7, #28]
	break;
 8000d32:	e009      	b.n	8000d48 <epochFromTime+0xa8>

	case 10:
		day += (31*5 + 30*4 + 28);
 8000d34:	69fb      	ldr	r3, [r7, #28]
 8000d36:	3330      	adds	r3, #48	; 0x30
 8000d38:	33ff      	adds	r3, #255	; 0xff
 8000d3a:	61fb      	str	r3, [r7, #28]
	break;
 8000d3c:	e004      	b.n	8000d48 <epochFromTime+0xa8>

	case 11:
		day += (31*5 + 30*5 + 28);
 8000d3e:	69fb      	ldr	r3, [r7, #28]
 8000d40:	334e      	adds	r3, #78	; 0x4e
 8000d42:	33ff      	adds	r3, #255	; 0xff
 8000d44:	61fb      	str	r3, [r7, #28]
	break;
 8000d46:	46c0      	nop			; (mov r8, r8)

	default:
		day = day;
	}

	return EPOCH_2022 + years*365*24*60*60 + day*24*60*60 + hour*60*60 + minutes*60 + seconds;
 8000d48:	69ba      	ldr	r2, [r7, #24]
 8000d4a:	0013      	movs	r3, r2
 8000d4c:	025b      	lsls	r3, r3, #9
 8000d4e:	189b      	adds	r3, r3, r2
 8000d50:	009b      	lsls	r3, r3, #2
 8000d52:	189b      	adds	r3, r3, r2
 8000d54:	00db      	lsls	r3, r3, #3
 8000d56:	189b      	adds	r3, r3, r2
 8000d58:	011a      	lsls	r2, r3, #4
 8000d5a:	1ad2      	subs	r2, r2, r3
 8000d5c:	01d3      	lsls	r3, r2, #7
 8000d5e:	001a      	movs	r2, r3
 8000d60:	0013      	movs	r3, r2
 8000d62:	4a12      	ldr	r2, [pc, #72]	; (8000dac <epochFromTime+0x10c>)
 8000d64:	1899      	adds	r1, r3, r2
 8000d66:	69fa      	ldr	r2, [r7, #28]
 8000d68:	0013      	movs	r3, r2
 8000d6a:	005b      	lsls	r3, r3, #1
 8000d6c:	189b      	adds	r3, r3, r2
 8000d6e:	011a      	lsls	r2, r3, #4
 8000d70:	1ad2      	subs	r2, r2, r3
 8000d72:	0113      	lsls	r3, r2, #4
 8000d74:	1a9b      	subs	r3, r3, r2
 8000d76:	01db      	lsls	r3, r3, #7
 8000d78:	18c9      	adds	r1, r1, r3
 8000d7a:	693a      	ldr	r2, [r7, #16]
 8000d7c:	0013      	movs	r3, r2
 8000d7e:	011b      	lsls	r3, r3, #4
 8000d80:	1a9b      	subs	r3, r3, r2
 8000d82:	011a      	lsls	r2, r3, #4
 8000d84:	1ad2      	subs	r2, r2, r3
 8000d86:	0113      	lsls	r3, r2, #4
 8000d88:	001a      	movs	r2, r3
 8000d8a:	0013      	movs	r3, r2
 8000d8c:	18c9      	adds	r1, r1, r3
 8000d8e:	68fa      	ldr	r2, [r7, #12]
 8000d90:	0013      	movs	r3, r2
 8000d92:	011b      	lsls	r3, r3, #4
 8000d94:	1a9b      	subs	r3, r3, r2
 8000d96:	009b      	lsls	r3, r3, #2
 8000d98:	18ca      	adds	r2, r1, r3
 8000d9a:	68bb      	ldr	r3, [r7, #8]
 8000d9c:	18d3      	adds	r3, r2, r3
}
 8000d9e:	0018      	movs	r0, r3
 8000da0:	46bd      	mov	sp, r7
 8000da2:	b008      	add	sp, #32
 8000da4:	bd80      	pop	{r7, pc}
 8000da6:	46c0      	nop			; (mov r8, r8)
 8000da8:	080048fc 	.word	0x080048fc
 8000dac:	61cf9980 	.word	0x61cf9980

08000db0 <Error_Handler>:
/**
  * @brief  This function is executed in case of error occurrence.
  * @retval None
  */
void Error_Handler(void)
{
 8000db0:	b580      	push	{r7, lr}
 8000db2:	af00      	add	r7, sp, #0
  \details Disables IRQ interrupts by setting the I-bit in the CPSR.
           Can only be executed in Privileged modes.
 */
__STATIC_FORCEINLINE void __disable_irq(void)
{
  __ASM volatile ("cpsid i" : : : "memory");
 8000db4:	b672      	cpsid	i
}
 8000db6:	46c0      	nop			; (mov r8, r8)
  /* USER CODE BEGIN Error_Handler_Debug */
  /* User can add his own implementation to report the HAL error return state */
  __disable_irq();
  while (1)
 8000db8:	e7fe      	b.n	8000db8 <Error_Handler+0x8>
	...

08000dbc <HAL_MspInit>:
/* USER CODE END 0 */
/**
  * Initializes the Global MSP.
  */
void HAL_MspInit(void)
{
 8000dbc:	b580      	push	{r7, lr}
 8000dbe:	b082      	sub	sp, #8
 8000dc0:	af00      	add	r7, sp, #0
  /* USER CODE BEGIN MspInit 0 */

  /* USER CODE END MspInit 0 */

  __HAL_RCC_SYSCFG_CLK_ENABLE();
 8000dc2:	4b0f      	ldr	r3, [pc, #60]	; (8000e00 <HAL_MspInit+0x44>)
 8000dc4:	699a      	ldr	r2, [r3, #24]
 8000dc6:	4b0e      	ldr	r3, [pc, #56]	; (8000e00 <HAL_MspInit+0x44>)
 8000dc8:	2101      	movs	r1, #1
 8000dca:	430a      	orrs	r2, r1
 8000dcc:	619a      	str	r2, [r3, #24]
 8000dce:	4b0c      	ldr	r3, [pc, #48]	; (8000e00 <HAL_MspInit+0x44>)
 8000dd0:	699b      	ldr	r3, [r3, #24]
 8000dd2:	2201      	movs	r2, #1
 8000dd4:	4013      	ands	r3, r2
 8000dd6:	607b      	str	r3, [r7, #4]
 8000dd8:	687b      	ldr	r3, [r7, #4]
  __HAL_RCC_PWR_CLK_ENABLE();
 8000dda:	4b09      	ldr	r3, [pc, #36]	; (8000e00 <HAL_MspInit+0x44>)
 8000ddc:	69da      	ldr	r2, [r3, #28]
 8000dde:	4b08      	ldr	r3, [pc, #32]	; (8000e00 <HAL_MspInit+0x44>)
 8000de0:	2180      	movs	r1, #128	; 0x80
 8000de2:	0549      	lsls	r1, r1, #21
 8000de4:	430a      	orrs	r2, r1
 8000de6:	61da      	str	r2, [r3, #28]
 8000de8:	4b05      	ldr	r3, [pc, #20]	; (8000e00 <HAL_MspInit+0x44>)
 8000dea:	69da      	ldr	r2, [r3, #28]
 8000dec:	2380      	movs	r3, #128	; 0x80
 8000dee:	055b      	lsls	r3, r3, #21
 8000df0:	4013      	ands	r3, r2
 8000df2:	603b      	str	r3, [r7, #0]
 8000df4:	683b      	ldr	r3, [r7, #0]
  /* System interrupt init*/

  /* USER CODE BEGIN MspInit 1 */

  /* USER CODE END MspInit 1 */
}
 8000df6:	46c0      	nop			; (mov r8, r8)
 8000df8:	46bd      	mov	sp, r7
 8000dfa:	b002      	add	sp, #8
 8000dfc:	bd80      	pop	{r7, pc}
 8000dfe:	46c0      	nop			; (mov r8, r8)
 8000e00:	40021000 	.word	0x40021000

08000e04 <HAL_I2C_MspInit>:
* This function configures the hardware resources used in this example
* @param hi2c: I2C handle pointer
* @retval None
*/
void HAL_I2C_MspInit(I2C_HandleTypeDef* hi2c)
{
 8000e04:	b590      	push	{r4, r7, lr}
 8000e06:	b08b      	sub	sp, #44	; 0x2c
 8000e08:	af00      	add	r7, sp, #0
 8000e0a:	6078      	str	r0, [r7, #4]
  GPIO_InitTypeDef GPIO_InitStruct = {0};
 8000e0c:	2414      	movs	r4, #20
 8000e0e:	193b      	adds	r3, r7, r4
 8000e10:	0018      	movs	r0, r3
 8000e12:	2314      	movs	r3, #20
 8000e14:	001a      	movs	r2, r3
 8000e16:	2100      	movs	r1, #0
 8000e18:	f003 f8b8 	bl	8003f8c <memset>
  if(hi2c->Instance==I2C1)
 8000e1c:	687b      	ldr	r3, [r7, #4]
 8000e1e:	681b      	ldr	r3, [r3, #0]
 8000e20:	4a1c      	ldr	r2, [pc, #112]	; (8000e94 <HAL_I2C_MspInit+0x90>)
 8000e22:	4293      	cmp	r3, r2
 8000e24:	d131      	bne.n	8000e8a <HAL_I2C_MspInit+0x86>
  {
  /* USER CODE BEGIN I2C1_MspInit 0 */

  /* USER CODE END I2C1_MspInit 0 */

    __HAL_RCC_GPIOB_CLK_ENABLE();
 8000e26:	4b1c      	ldr	r3, [pc, #112]	; (8000e98 <HAL_I2C_MspInit+0x94>)
 8000e28:	695a      	ldr	r2, [r3, #20]
 8000e2a:	4b1b      	ldr	r3, [pc, #108]	; (8000e98 <HAL_I2C_MspInit+0x94>)
 8000e2c:	2180      	movs	r1, #128	; 0x80
 8000e2e:	02c9      	lsls	r1, r1, #11
 8000e30:	430a      	orrs	r2, r1
 8000e32:	615a      	str	r2, [r3, #20]
 8000e34:	4b18      	ldr	r3, [pc, #96]	; (8000e98 <HAL_I2C_MspInit+0x94>)
 8000e36:	695a      	ldr	r2, [r3, #20]
 8000e38:	2380      	movs	r3, #128	; 0x80
 8000e3a:	02db      	lsls	r3, r3, #11
 8000e3c:	4013      	ands	r3, r2
 8000e3e:	613b      	str	r3, [r7, #16]
 8000e40:	693b      	ldr	r3, [r7, #16]
    /**I2C1 GPIO Configuration
    PB6     ------> I2C1_SCL
    PB7     ------> I2C1_SDA
    */
    GPIO_InitStruct.Pin = GPIO_PIN_6|GPIO_PIN_7;
 8000e42:	0021      	movs	r1, r4
 8000e44:	187b      	adds	r3, r7, r1
 8000e46:	22c0      	movs	r2, #192	; 0xc0
 8000e48:	601a      	str	r2, [r3, #0]
    GPIO_InitStruct.Mode = GPIO_MODE_AF_OD;
 8000e4a:	187b      	adds	r3, r7, r1
 8000e4c:	2212      	movs	r2, #18
 8000e4e:	605a      	str	r2, [r3, #4]
    GPIO_InitStruct.Pull = GPIO_NOPULL;
 8000e50:	187b      	adds	r3, r7, r1
 8000e52:	2200      	movs	r2, #0
 8000e54:	609a      	str	r2, [r3, #8]
    GPIO_InitStruct.Speed = GPIO_SPEED_FREQ_HIGH;
 8000e56:	187b      	adds	r3, r7, r1
 8000e58:	2203      	movs	r2, #3
 8000e5a:	60da      	str	r2, [r3, #12]
    GPIO_InitStruct.Alternate = GPIO_AF1_I2C1;
 8000e5c:	187b      	adds	r3, r7, r1
 8000e5e:	2201      	movs	r2, #1
 8000e60:	611a      	str	r2, [r3, #16]
    HAL_GPIO_Init(GPIOB, &GPIO_InitStruct);
 8000e62:	187b      	adds	r3, r7, r1
 8000e64:	4a0d      	ldr	r2, [pc, #52]	; (8000e9c <HAL_I2C_MspInit+0x98>)
 8000e66:	0019      	movs	r1, r3
 8000e68:	0010      	movs	r0, r2
 8000e6a:	f000 fbf3 	bl	8001654 <HAL_GPIO_Init>

    /* Peripheral clock enable */
    __HAL_RCC_I2C1_CLK_ENABLE();
 8000e6e:	4b0a      	ldr	r3, [pc, #40]	; (8000e98 <HAL_I2C_MspInit+0x94>)
 8000e70:	69da      	ldr	r2, [r3, #28]
 8000e72:	4b09      	ldr	r3, [pc, #36]	; (8000e98 <HAL_I2C_MspInit+0x94>)
 8000e74:	2180      	movs	r1, #128	; 0x80
 8000e76:	0389      	lsls	r1, r1, #14
 8000e78:	430a      	orrs	r2, r1
 8000e7a:	61da      	str	r2, [r3, #28]
 8000e7c:	4b06      	ldr	r3, [pc, #24]	; (8000e98 <HAL_I2C_MspInit+0x94>)
 8000e7e:	69da      	ldr	r2, [r3, #28]
 8000e80:	2380      	movs	r3, #128	; 0x80
 8000e82:	039b      	lsls	r3, r3, #14
 8000e84:	4013      	ands	r3, r2
 8000e86:	60fb      	str	r3, [r7, #12]
 8000e88:	68fb      	ldr	r3, [r7, #12]
  /* USER CODE BEGIN I2C1_MspInit 1 */

  /* USER CODE END I2C1_MspInit 1 */
  }

}
 8000e8a:	46c0      	nop			; (mov r8, r8)
 8000e8c:	46bd      	mov	sp, r7
 8000e8e:	b00b      	add	sp, #44	; 0x2c
 8000e90:	bd90      	pop	{r4, r7, pc}
 8000e92:	46c0      	nop			; (mov r8, r8)
 8000e94:	40005400 	.word	0x40005400
 8000e98:	40021000 	.word	0x40021000
 8000e9c:	48000400 	.word	0x48000400

08000ea0 <HAL_UART_MspInit>:
* This function configures the hardware resources used in this example
* @param huart: UART handle pointer
* @retval None
*/
void HAL_UART_MspInit(UART_HandleTypeDef* huart)
{
 8000ea0:	b590      	push	{r4, r7, lr}
 8000ea2:	b08b      	sub	sp, #44	; 0x2c
 8000ea4:	af00      	add	r7, sp, #0
 8000ea6:	6078      	str	r0, [r7, #4]
  GPIO_InitTypeDef GPIO_InitStruct = {0};
 8000ea8:	2414      	movs	r4, #20
 8000eaa:	193b      	adds	r3, r7, r4
 8000eac:	0018      	movs	r0, r3
 8000eae:	2314      	movs	r3, #20
 8000eb0:	001a      	movs	r2, r3
 8000eb2:	2100      	movs	r1, #0
 8000eb4:	f003 f86a 	bl	8003f8c <memset>
  if(huart->Instance==USART2)
 8000eb8:	687b      	ldr	r3, [r7, #4]
 8000eba:	681b      	ldr	r3, [r3, #0]
 8000ebc:	4a33      	ldr	r2, [pc, #204]	; (8000f8c <HAL_UART_MspInit+0xec>)
 8000ebe:	4293      	cmp	r3, r2
 8000ec0:	d160      	bne.n	8000f84 <HAL_UART_MspInit+0xe4>
  {
  /* USER CODE BEGIN USART2_MspInit 0 */

  /* USER CODE END USART2_MspInit 0 */
    /* Peripheral clock enable */
    __HAL_RCC_USART2_CLK_ENABLE();
 8000ec2:	4b33      	ldr	r3, [pc, #204]	; (8000f90 <HAL_UART_MspInit+0xf0>)
 8000ec4:	69da      	ldr	r2, [r3, #28]
 8000ec6:	4b32      	ldr	r3, [pc, #200]	; (8000f90 <HAL_UART_MspInit+0xf0>)
 8000ec8:	2180      	movs	r1, #128	; 0x80
 8000eca:	0289      	lsls	r1, r1, #10
 8000ecc:	430a      	orrs	r2, r1
 8000ece:	61da      	str	r2, [r3, #28]
 8000ed0:	4b2f      	ldr	r3, [pc, #188]	; (8000f90 <HAL_UART_MspInit+0xf0>)
 8000ed2:	69da      	ldr	r2, [r3, #28]
 8000ed4:	2380      	movs	r3, #128	; 0x80
 8000ed6:	029b      	lsls	r3, r3, #10
 8000ed8:	4013      	ands	r3, r2
 8000eda:	613b      	str	r3, [r7, #16]
 8000edc:	693b      	ldr	r3, [r7, #16]

    __HAL_RCC_GPIOA_CLK_ENABLE();
 8000ede:	4b2c      	ldr	r3, [pc, #176]	; (8000f90 <HAL_UART_MspInit+0xf0>)
 8000ee0:	695a      	ldr	r2, [r3, #20]
 8000ee2:	4b2b      	ldr	r3, [pc, #172]	; (8000f90 <HAL_UART_MspInit+0xf0>)
 8000ee4:	2180      	movs	r1, #128	; 0x80
 8000ee6:	0289      	lsls	r1, r1, #10
 8000ee8:	430a      	orrs	r2, r1
 8000eea:	615a      	str	r2, [r3, #20]
 8000eec:	4b28      	ldr	r3, [pc, #160]	; (8000f90 <HAL_UART_MspInit+0xf0>)
 8000eee:	695a      	ldr	r2, [r3, #20]
 8000ef0:	2380      	movs	r3, #128	; 0x80
 8000ef2:	029b      	lsls	r3, r3, #10
 8000ef4:	4013      	ands	r3, r2
 8000ef6:	60fb      	str	r3, [r7, #12]
 8000ef8:	68fb      	ldr	r3, [r7, #12]
    /**USART2 GPIO Configuration
    PA2     ------> USART2_TX
    PA3     ------> USART2_RX
    */
    GPIO_InitStruct.Pin = GPIO_PIN_2|GPIO_PIN_3;
 8000efa:	0021      	movs	r1, r4
 8000efc:	187b      	adds	r3, r7, r1
 8000efe:	220c      	movs	r2, #12
 8000f00:	601a      	str	r2, [r3, #0]
    GPIO_InitStruct.Mode = GPIO_MODE_AF_PP;
 8000f02:	187b      	adds	r3, r7, r1
 8000f04:	2202      	movs	r2, #2
 8000f06:	605a      	str	r2, [r3, #4]
    GPIO_InitStruct.Pull = GPIO_NOPULL;
 8000f08:	187b      	adds	r3, r7, r1
 8000f0a:	2200      	movs	r2, #0
 8000f0c:	609a      	str	r2, [r3, #8]
    GPIO_InitStruct.Speed = GPIO_SPEED_FREQ_HIGH;
 8000f0e:	187b      	adds	r3, r7, r1
 8000f10:	2203      	movs	r2, #3
 8000f12:	60da      	str	r2, [r3, #12]
    GPIO_InitStruct.Alternate = GPIO_AF1_USART2;
 8000f14:	187b      	adds	r3, r7, r1
 8000f16:	2201      	movs	r2, #1
 8000f18:	611a      	str	r2, [r3, #16]
    HAL_GPIO_Init(GPIOA, &GPIO_InitStruct);
 8000f1a:	187a      	adds	r2, r7, r1
 8000f1c:	2390      	movs	r3, #144	; 0x90
 8000f1e:	05db      	lsls	r3, r3, #23
 8000f20:	0011      	movs	r1, r2
 8000f22:	0018      	movs	r0, r3
 8000f24:	f000 fb96 	bl	8001654 <HAL_GPIO_Init>

    /* USART2 DMA Init */
    /* USART2_TX Init */
    hdma_usart2_tx.Instance = DMA1_Channel4;
 8000f28:	4b1a      	ldr	r3, [pc, #104]	; (8000f94 <HAL_UART_MspInit+0xf4>)
 8000f2a:	4a1b      	ldr	r2, [pc, #108]	; (8000f98 <HAL_UART_MspInit+0xf8>)
 8000f2c:	601a      	str	r2, [r3, #0]
    hdma_usart2_tx.Init.Direction = DMA_MEMORY_TO_PERIPH;
 8000f2e:	4b19      	ldr	r3, [pc, #100]	; (8000f94 <HAL_UART_MspInit+0xf4>)
 8000f30:	2210      	movs	r2, #16
 8000f32:	605a      	str	r2, [r3, #4]
    hdma_usart2_tx.Init.PeriphInc = DMA_PINC_DISABLE;
 8000f34:	4b17      	ldr	r3, [pc, #92]	; (8000f94 <HAL_UART_MspInit+0xf4>)
 8000f36:	2200      	movs	r2, #0
 8000f38:	609a      	str	r2, [r3, #8]
    hdma_usart2_tx.Init.MemInc = DMA_MINC_ENABLE;
 8000f3a:	4b16      	ldr	r3, [pc, #88]	; (8000f94 <HAL_UART_MspInit+0xf4>)
 8000f3c:	2280      	movs	r2, #128	; 0x80
 8000f3e:	60da      	str	r2, [r3, #12]
    hdma_usart2_tx.Init.PeriphDataAlignment = DMA_PDATAALIGN_BYTE;
 8000f40:	4b14      	ldr	r3, [pc, #80]	; (8000f94 <HAL_UART_MspInit+0xf4>)
 8000f42:	2200      	movs	r2, #0
 8000f44:	611a      	str	r2, [r3, #16]
    hdma_usart2_tx.Init.MemDataAlignment = DMA_MDATAALIGN_BYTE;
 8000f46:	4b13      	ldr	r3, [pc, #76]	; (8000f94 <HAL_UART_MspInit+0xf4>)
 8000f48:	2200      	movs	r2, #0
 8000f4a:	615a      	str	r2, [r3, #20]
    hdma_usart2_tx.Init.Mode = DMA_NORMAL;
 8000f4c:	4b11      	ldr	r3, [pc, #68]	; (8000f94 <HAL_UART_MspInit+0xf4>)
 8000f4e:	2200      	movs	r2, #0
 8000f50:	619a      	str	r2, [r3, #24]
    hdma_usart2_tx.Init.Priority = DMA_PRIORITY_LOW;
 8000f52:	4b10      	ldr	r3, [pc, #64]	; (8000f94 <HAL_UART_MspInit+0xf4>)
 8000f54:	2200      	movs	r2, #0
 8000f56:	61da      	str	r2, [r3, #28]
    if (HAL_DMA_Init(&hdma_usart2_tx) != HAL_OK)
 8000f58:	4b0e      	ldr	r3, [pc, #56]	; (8000f94 <HAL_UART_MspInit+0xf4>)
 8000f5a:	0018      	movs	r0, r3
 8000f5c:	f000 f9f6 	bl	800134c <HAL_DMA_Init>
 8000f60:	1e03      	subs	r3, r0, #0
 8000f62:	d001      	beq.n	8000f68 <HAL_UART_MspInit+0xc8>
    {
      Error_Handler();
 8000f64:	f7ff ff24 	bl	8000db0 <Error_Handler>
    }

    __HAL_LINKDMA(huart,hdmatx,hdma_usart2_tx);
 8000f68:	687b      	ldr	r3, [r7, #4]
 8000f6a:	4a0a      	ldr	r2, [pc, #40]	; (8000f94 <HAL_UART_MspInit+0xf4>)
 8000f6c:	66da      	str	r2, [r3, #108]	; 0x6c
 8000f6e:	4b09      	ldr	r3, [pc, #36]	; (8000f94 <HAL_UART_MspInit+0xf4>)
 8000f70:	687a      	ldr	r2, [r7, #4]
 8000f72:	625a      	str	r2, [r3, #36]	; 0x24

    /* USART2 interrupt Init */
    HAL_NVIC_SetPriority(USART2_IRQn, 0, 0);
 8000f74:	2200      	movs	r2, #0
 8000f76:	2100      	movs	r1, #0
 8000f78:	201c      	movs	r0, #28
 8000f7a:	f000 f9b5 	bl	80012e8 <HAL_NVIC_SetPriority>
    HAL_NVIC_EnableIRQ(USART2_IRQn);
 8000f7e:	201c      	movs	r0, #28
 8000f80:	f000 f9c7 	bl	8001312 <HAL_NVIC_EnableIRQ>
  /* USER CODE BEGIN USART2_MspInit 1 */

  /* USER CODE END USART2_MspInit 1 */
  }

}
 8000f84:	46c0      	nop			; (mov r8, r8)
 8000f86:	46bd      	mov	sp, r7
 8000f88:	b00b      	add	sp, #44	; 0x2c
 8000f8a:	bd90      	pop	{r4, r7, pc}
 8000f8c:	40004400 	.word	0x40004400
 8000f90:	40021000 	.word	0x40021000
 8000f94:	2000015c 	.word	0x2000015c
 8000f98:	40020044 	.word	0x40020044

08000f9c <NMI_Handler>:
/******************************************************************************/
/**
  * @brief This function handles Non maskable interrupt.
  */
void NMI_Handler(void)
{
 8000f9c:	b580      	push	{r7, lr}
 8000f9e:	af00      	add	r7, sp, #0
  /* USER CODE BEGIN NonMaskableInt_IRQn 0 */

  /* USER CODE END NonMaskableInt_IRQn 0 */
  /* USER CODE BEGIN NonMaskableInt_IRQn 1 */
  while (1)
 8000fa0:	e7fe      	b.n	8000fa0 <NMI_Handler+0x4>

08000fa2 <HardFault_Handler>:

/**
  * @brief This function handles Hard fault interrupt.
  */
void HardFault_Handler(void)
{
 8000fa2:	b580      	push	{r7, lr}
 8000fa4:	af00      	add	r7, sp, #0
  /* USER CODE BEGIN HardFault_IRQn 0 */

  /* USER CODE END HardFault_IRQn 0 */
  while (1)
 8000fa6:	e7fe      	b.n	8000fa6 <HardFault_Handler+0x4>

08000fa8 <SVC_Handler>:

/**
  * @brief This function handles System service call via SWI instruction.
  */
void SVC_Handler(void)
{
 8000fa8:	b580      	push	{r7, lr}
 8000faa:	af00      	add	r7, sp, #0

  /* USER CODE END SVC_IRQn 0 */
  /* USER CODE BEGIN SVC_IRQn 1 */

  /* USER CODE END SVC_IRQn 1 */
}
 8000fac:	46c0      	nop			; (mov r8, r8)
 8000fae:	46bd      	mov	sp, r7
 8000fb0:	bd80      	pop	{r7, pc}

08000fb2 <PendSV_Handler>:

/**
  * @brief This function handles Pendable request for system service.
  */
void PendSV_Handler(void)
{
 8000fb2:	b580      	push	{r7, lr}
 8000fb4:	af00      	add	r7, sp, #0

  /* USER CODE END PendSV_IRQn 0 */
  /* USER CODE BEGIN PendSV_IRQn 1 */

  /* USER CODE END PendSV_IRQn 1 */
}
 8000fb6:	46c0      	nop			; (mov r8, r8)
 8000fb8:	46bd      	mov	sp, r7
 8000fba:	bd80      	pop	{r7, pc}

08000fbc <SysTick_Handler>:

/**
  * @brief This function handles System tick timer.
  */
void SysTick_Handler(void)
{
 8000fbc:	b580      	push	{r7, lr}
 8000fbe:	af00      	add	r7, sp, #0
  /* USER CODE BEGIN SysTick_IRQn 0 */

  /* USER CODE END SysTick_IRQn 0 */
  HAL_IncTick();
 8000fc0:	f000 f8ca 	bl	8001158 <HAL_IncTick>
  /* USER CODE BEGIN SysTick_IRQn 1 */

  /* USER CODE END SysTick_IRQn 1 */
}
 8000fc4:	46c0      	nop			; (mov r8, r8)
 8000fc6:	46bd      	mov	sp, r7
 8000fc8:	bd80      	pop	{r7, pc}
	...

08000fcc <DMA1_Channel4_5_IRQHandler>:

/**
  * @brief This function handles DMA1 channel 4 and 5 interrupts.
  */
void DMA1_Channel4_5_IRQHandler(void)
{
 8000fcc:	b580      	push	{r7, lr}
 8000fce:	af00      	add	r7, sp, #0
  /* USER CODE BEGIN DMA1_Channel4_5_IRQn 0 */

  /* USER CODE END DMA1_Channel4_5_IRQn 0 */
  HAL_DMA_IRQHandler(&hdma_usart2_tx);
 8000fd0:	4b03      	ldr	r3, [pc, #12]	; (8000fe0 <DMA1_Channel4_5_IRQHandler+0x14>)
 8000fd2:	0018      	movs	r0, r3
 8000fd4:	f000 fa7f 	bl	80014d6 <HAL_DMA_IRQHandler>
  /* USER CODE BEGIN DMA1_Channel4_5_IRQn 1 */

  /* USER CODE END DMA1_Channel4_5_IRQn 1 */
}
 8000fd8:	46c0      	nop			; (mov r8, r8)
 8000fda:	46bd      	mov	sp, r7
 8000fdc:	bd80      	pop	{r7, pc}
 8000fde:	46c0      	nop			; (mov r8, r8)
 8000fe0:	2000015c 	.word	0x2000015c

08000fe4 <USART2_IRQHandler>:

/**
  * @brief This function handles USART2 global interrupt.
  */
void USART2_IRQHandler(void)
{
 8000fe4:	b580      	push	{r7, lr}
 8000fe6:	af00      	add	r7, sp, #0
  /* USER CODE BEGIN USART2_IRQn 0 */

  /* USER CODE END USART2_IRQn 0 */
  HAL_UART_IRQHandler(&huart2);
 8000fe8:	4b03      	ldr	r3, [pc, #12]	; (8000ff8 <USART2_IRQHandler+0x14>)
 8000fea:	0018      	movs	r0, r3
 8000fec:	f002 f904 	bl	80031f8 <HAL_UART_IRQHandler>
  /* USER CODE BEGIN USART2_IRQn 1 */

  /* USER CODE END USART2_IRQn 1 */
}
 8000ff0:	46c0      	nop			; (mov r8, r8)
 8000ff2:	46bd      	mov	sp, r7
 8000ff4:	bd80      	pop	{r7, pc}
 8000ff6:	46c0      	nop			; (mov r8, r8)
 8000ff8:	200000d8 	.word	0x200000d8

08000ffc <_sbrk>:
 *
 * @param incr Memory size
 * @return Pointer to allocated memory
 */
void *_sbrk(ptrdiff_t incr)
{
 8000ffc:	b580      	push	{r7, lr}
 8000ffe:	b086      	sub	sp, #24
 8001000:	af00      	add	r7, sp, #0
 8001002:	6078      	str	r0, [r7, #4]
  extern uint8_t _end; /* Symbol defined in the linker script */
  extern uint8_t _estack; /* Symbol defined in the linker script */
  extern uint32_t _Min_Stack_Size; /* Symbol defined in the linker script */
  const uint32_t stack_limit = (uint32_t)&_estack - (uint32_t)&_Min_Stack_Size;
 8001004:	4a14      	ldr	r2, [pc, #80]	; (8001058 <_sbrk+0x5c>)
 8001006:	4b15      	ldr	r3, [pc, #84]	; (800105c <_sbrk+0x60>)
 8001008:	1ad3      	subs	r3, r2, r3
 800100a:	617b      	str	r3, [r7, #20]
  const uint8_t *max_heap = (uint8_t *)stack_limit;
 800100c:	697b      	ldr	r3, [r7, #20]
 800100e:	613b      	str	r3, [r7, #16]
  uint8_t *prev_heap_end;

  /* Initialize heap end at first call */
  if (NULL == __sbrk_heap_end)
 8001010:	4b13      	ldr	r3, [pc, #76]	; (8001060 <_sbrk+0x64>)
 8001012:	681b      	ldr	r3, [r3, #0]
 8001014:	2b00      	cmp	r3, #0
 8001016:	d102      	bne.n	800101e <_sbrk+0x22>
  {
    __sbrk_heap_end = &_end;
 8001018:	4b11      	ldr	r3, [pc, #68]	; (8001060 <_sbrk+0x64>)
 800101a:	4a12      	ldr	r2, [pc, #72]	; (8001064 <_sbrk+0x68>)
 800101c:	601a      	str	r2, [r3, #0]
  }

  /* Protect heap from growing into the reserved MSP stack */
  if (__sbrk_heap_end + incr > max_heap)
 800101e:	4b10      	ldr	r3, [pc, #64]	; (8001060 <_sbrk+0x64>)
 8001020:	681a      	ldr	r2, [r3, #0]
 8001022:	687b      	ldr	r3, [r7, #4]
 8001024:	18d3      	adds	r3, r2, r3
 8001026:	693a      	ldr	r2, [r7, #16]
 8001028:	429a      	cmp	r2, r3
 800102a:	d207      	bcs.n	800103c <_sbrk+0x40>
  {
    errno = ENOMEM;
 800102c:	f002 ff84 	bl	8003f38 <__errno>
 8001030:	0003      	movs	r3, r0
 8001032:	220c      	movs	r2, #12
 8001034:	601a      	str	r2, [r3, #0]
    return (void *)-1;
 8001036:	2301      	movs	r3, #1
 8001038:	425b      	negs	r3, r3
 800103a:	e009      	b.n	8001050 <_sbrk+0x54>
  }

  prev_heap_end = __sbrk_heap_end;
 800103c:	4b08      	ldr	r3, [pc, #32]	; (8001060 <_sbrk+0x64>)
 800103e:	681b      	ldr	r3, [r3, #0]
 8001040:	60fb      	str	r3, [r7, #12]
  __sbrk_heap_end += incr;
 8001042:	4b07      	ldr	r3, [pc, #28]	; (8001060 <_sbrk+0x64>)
 8001044:	681a      	ldr	r2, [r3, #0]
 8001046:	687b      	ldr	r3, [r7, #4]
 8001048:	18d2      	adds	r2, r2, r3
 800104a:	4b05      	ldr	r3, [pc, #20]	; (8001060 <_sbrk+0x64>)
 800104c:	601a      	str	r2, [r3, #0]

  return (void *)prev_heap_end;
 800104e:	68fb      	ldr	r3, [r7, #12]
}
 8001050:	0018      	movs	r0, r3
 8001052:	46bd      	mov	sp, r7
 8001054:	b006      	add	sp, #24
 8001056:	bd80      	pop	{r7, pc}
 8001058:	20002000 	.word	0x20002000
 800105c:	00000400 	.word	0x00000400
 8001060:	200001b4 	.word	0x200001b4
 8001064:	200001d0 	.word	0x200001d0

08001068 <SystemInit>:
  * @brief  Setup the microcontroller system
  * @param  None
  * @retval None
  */
void SystemInit(void)
{
 8001068:	b580      	push	{r7, lr}
 800106a:	af00      	add	r7, sp, #0
                         before branch to main program. This call is made inside
                         the "startup_stm32f0xx.s" file.
                         User can setups the default system clock (System clock source, PLL Multiplier
                         and Divider factors, AHB/APBx prescalers and Flash settings).
   */
}
 800106c:	46c0      	nop			; (mov r8, r8)
 800106e:	46bd      	mov	sp, r7
 8001070:	bd80      	pop	{r7, pc}
	...

08001074 <Reset_Handler>:

  .section .text.Reset_Handler
  .weak Reset_Handler
  .type Reset_Handler, %function
Reset_Handler:
  ldr   r0, =_estack
 8001074:	480d      	ldr	r0, [pc, #52]	; (80010ac <LoopForever+0x2>)
  mov   sp, r0          /* set stack pointer */
 8001076:	4685      	mov	sp, r0

/* Copy the data segment initializers from flash to SRAM */
  ldr r0, =_sdata
 8001078:	480d      	ldr	r0, [pc, #52]	; (80010b0 <LoopForever+0x6>)
  ldr r1, =_edata
 800107a:	490e      	ldr	r1, [pc, #56]	; (80010b4 <LoopForever+0xa>)
  ldr r2, =_sidata
 800107c:	4a0e      	ldr	r2, [pc, #56]	; (80010b8 <LoopForever+0xe>)
  movs r3, #0
 800107e:	2300      	movs	r3, #0
  b LoopCopyDataInit
 8001080:	e002      	b.n	8001088 <LoopCopyDataInit>

08001082 <CopyDataInit>:

CopyDataInit:
  ldr r4, [r2, r3]
 8001082:	58d4      	ldr	r4, [r2, r3]
  str r4, [r0, r3]
 8001084:	50c4      	str	r4, [r0, r3]
  adds r3, r3, #4
 8001086:	3304      	adds	r3, #4

08001088 <LoopCopyDataInit>:

LoopCopyDataInit:
  adds r4, r0, r3
 8001088:	18c4      	adds	r4, r0, r3
  cmp r4, r1
 800108a:	428c      	cmp	r4, r1
  bcc CopyDataInit
 800108c:	d3f9      	bcc.n	8001082 <CopyDataInit>
  
/* Zero fill the bss segment. */
  ldr r2, =_sbss
 800108e:	4a0b      	ldr	r2, [pc, #44]	; (80010bc <LoopForever+0x12>)
  ldr r4, =_ebss
 8001090:	4c0b      	ldr	r4, [pc, #44]	; (80010c0 <LoopForever+0x16>)
  movs r3, #0
 8001092:	2300      	movs	r3, #0
  b LoopFillZerobss
 8001094:	e001      	b.n	800109a <LoopFillZerobss>

08001096 <FillZerobss>:

FillZerobss:
  str  r3, [r2]
 8001096:	6013      	str	r3, [r2, #0]
  adds r2, r2, #4
 8001098:	3204      	adds	r2, #4

0800109a <LoopFillZerobss>:

LoopFillZerobss:
  cmp r2, r4
 800109a:	42a2      	cmp	r2, r4
  bcc FillZerobss
 800109c:	d3fb      	bcc.n	8001096 <FillZerobss>

/* Call the clock system intitialization function.*/
  bl  SystemInit
 800109e:	f7ff ffe3 	bl	8001068 <SystemInit>
/* Call static constructors */
  bl __libc_init_array
 80010a2:	f002 ff4f 	bl	8003f44 <__libc_init_array>
/* Call the application's entry point.*/
  bl main
 80010a6:	f7ff fb13 	bl	80006d0 <main>

080010aa <LoopForever>:

LoopForever:
    b LoopForever
 80010aa:	e7fe      	b.n	80010aa <LoopForever>
  ldr   r0, =_estack
 80010ac:	20002000 	.word	0x20002000
  ldr r0, =_sdata
 80010b0:	20000000 	.word	0x20000000
  ldr r1, =_edata
 80010b4:	20000070 	.word	0x20000070
  ldr r2, =_sidata
 80010b8:	08004980 	.word	0x08004980
  ldr r2, =_sbss
 80010bc:	20000070 	.word	0x20000070
  ldr r4, =_ebss
 80010c0:	200001cc 	.word	0x200001cc

080010c4 <ADC1_COMP_IRQHandler>:
 * @retval : None
*/
    .section .text.Default_Handler,"ax",%progbits
Default_Handler:
Infinite_Loop:
  b Infinite_Loop
 80010c4:	e7fe      	b.n	80010c4 <ADC1_COMP_IRQHandler>
	...

080010c8 <HAL_Init>:
  *       In the default implementation,Systick is used as source of time base.
  *       The tick variable is incremented each 1ms in its ISR.
  * @retval HAL status
  */
HAL_StatusTypeDef HAL_Init(void)
{
 80010c8:	b580      	push	{r7, lr}
 80010ca:	af00      	add	r7, sp, #0
  /* Configure Flash prefetch */ 
#if (PREFETCH_ENABLE != 0)
  __HAL_FLASH_PREFETCH_BUFFER_ENABLE();
 80010cc:	4b07      	ldr	r3, [pc, #28]	; (80010ec <HAL_Init+0x24>)
 80010ce:	681a      	ldr	r2, [r3, #0]
 80010d0:	4b06      	ldr	r3, [pc, #24]	; (80010ec <HAL_Init+0x24>)
 80010d2:	2110      	movs	r1, #16
 80010d4:	430a      	orrs	r2, r1
 80010d6:	601a      	str	r2, [r3, #0]
#endif /* PREFETCH_ENABLE */

  /* Use systick as time base source and configure 1ms tick (default clock after Reset is HSI) */

  HAL_InitTick(TICK_INT_PRIORITY);
 80010d8:	2000      	movs	r0, #0
 80010da:	f000 f809 	bl	80010f0 <HAL_InitTick>

  /* Init the low level hardware */
  HAL_MspInit();
 80010de:	f7ff fe6d 	bl	8000dbc <HAL_MspInit>

  /* Return function status */
  return HAL_OK;
 80010e2:	2300      	movs	r3, #0
}
 80010e4:	0018      	movs	r0, r3
 80010e6:	46bd      	mov	sp, r7
 80010e8:	bd80      	pop	{r7, pc}
 80010ea:	46c0      	nop			; (mov r8, r8)
 80010ec:	40022000 	.word	0x40022000

080010f0 <HAL_InitTick>:
  *       implementation  in user file.
  * @param TickPriority Tick interrupt priority.
  * @retval HAL status
  */
__weak HAL_StatusTypeDef HAL_InitTick(uint32_t TickPriority)
{
 80010f0:	b590      	push	{r4, r7, lr}
 80010f2:	b083      	sub	sp, #12
 80010f4:	af00      	add	r7, sp, #0
 80010f6:	6078      	str	r0, [r7, #4]
  /*Configure the SysTick to have interrupt in 1ms time basis*/
  if (HAL_SYSTICK_Config(SystemCoreClock / (1000U / uwTickFreq)) > 0U)
 80010f8:	4b14      	ldr	r3, [pc, #80]	; (800114c <HAL_InitTick+0x5c>)
 80010fa:	681c      	ldr	r4, [r3, #0]
 80010fc:	4b14      	ldr	r3, [pc, #80]	; (8001150 <HAL_InitTick+0x60>)
 80010fe:	781b      	ldrb	r3, [r3, #0]
 8001100:	0019      	movs	r1, r3
 8001102:	23fa      	movs	r3, #250	; 0xfa
 8001104:	0098      	lsls	r0, r3, #2
 8001106:	f7ff f809 	bl	800011c <__udivsi3>
 800110a:	0003      	movs	r3, r0
 800110c:	0019      	movs	r1, r3
 800110e:	0020      	movs	r0, r4
 8001110:	f7ff f804 	bl	800011c <__udivsi3>
 8001114:	0003      	movs	r3, r0
 8001116:	0018      	movs	r0, r3
 8001118:	f000 f90b 	bl	8001332 <HAL_SYSTICK_Config>
 800111c:	1e03      	subs	r3, r0, #0
 800111e:	d001      	beq.n	8001124 <HAL_InitTick+0x34>
  {
    return HAL_ERROR;
 8001120:	2301      	movs	r3, #1
 8001122:	e00f      	b.n	8001144 <HAL_InitTick+0x54>
  }

  /* Configure the SysTick IRQ priority */
  if (TickPriority < (1UL << __NVIC_PRIO_BITS))
 8001124:	687b      	ldr	r3, [r7, #4]
 8001126:	2b03      	cmp	r3, #3
 8001128:	d80b      	bhi.n	8001142 <HAL_InitTick+0x52>
  {
    HAL_NVIC_SetPriority(SysTick_IRQn, TickPriority, 0U);
 800112a:	6879      	ldr	r1, [r7, #4]
 800112c:	2301      	movs	r3, #1
 800112e:	425b      	negs	r3, r3
 8001130:	2200      	movs	r2, #0
 8001132:	0018      	movs	r0, r3
 8001134:	f000 f8d8 	bl	80012e8 <HAL_NVIC_SetPriority>
    uwTickPrio = TickPriority;
 8001138:	4b06      	ldr	r3, [pc, #24]	; (8001154 <HAL_InitTick+0x64>)
 800113a:	687a      	ldr	r2, [r7, #4]
 800113c:	601a      	str	r2, [r3, #0]
  {
    return HAL_ERROR;
  }

   /* Return function status */
  return HAL_OK;
 800113e:	2300      	movs	r3, #0
 8001140:	e000      	b.n	8001144 <HAL_InitTick+0x54>
    return HAL_ERROR;
 8001142:	2301      	movs	r3, #1
}
 8001144:	0018      	movs	r0, r3
 8001146:	46bd      	mov	sp, r7
 8001148:	b003      	add	sp, #12
 800114a:	bd90      	pop	{r4, r7, pc}
 800114c:	20000000 	.word	0x20000000
 8001150:	20000008 	.word	0x20000008
 8001154:	20000004 	.word	0x20000004

08001158 <HAL_IncTick>:
  * @note This function is declared as __weak to be overwritten in case of other 
  *       implementations in user file.
  * @retval None
  */
__weak void HAL_IncTick(void)
{
 8001158:	b580      	push	{r7, lr}
 800115a:	af00      	add	r7, sp, #0
  uwTick += uwTickFreq;
 800115c:	4b05      	ldr	r3, [pc, #20]	; (8001174 <HAL_IncTick+0x1c>)
 800115e:	781b      	ldrb	r3, [r3, #0]
 8001160:	001a      	movs	r2, r3
 8001162:	4b05      	ldr	r3, [pc, #20]	; (8001178 <HAL_IncTick+0x20>)
 8001164:	681b      	ldr	r3, [r3, #0]
 8001166:	18d2      	adds	r2, r2, r3
 8001168:	4b03      	ldr	r3, [pc, #12]	; (8001178 <HAL_IncTick+0x20>)
 800116a:	601a      	str	r2, [r3, #0]
}
 800116c:	46c0      	nop			; (mov r8, r8)
 800116e:	46bd      	mov	sp, r7
 8001170:	bd80      	pop	{r7, pc}
 8001172:	46c0      	nop			; (mov r8, r8)
 8001174:	20000008 	.word	0x20000008
 8001178:	200001b8 	.word	0x200001b8

0800117c <HAL_GetTick>:
  * @note   This function is declared as __weak  to be overwritten  in case of other 
  *       implementations in user file.
  * @retval tick value
  */
__weak uint32_t HAL_GetTick(void)
{
 800117c:	b580      	push	{r7, lr}
 800117e:	af00      	add	r7, sp, #0
  return uwTick;
 8001180:	4b02      	ldr	r3, [pc, #8]	; (800118c <HAL_GetTick+0x10>)
 8001182:	681b      	ldr	r3, [r3, #0]
}
 8001184:	0018      	movs	r0, r3
 8001186:	46bd      	mov	sp, r7
 8001188:	bd80      	pop	{r7, pc}
 800118a:	46c0      	nop			; (mov r8, r8)
 800118c:	200001b8 	.word	0x200001b8

08001190 <__NVIC_EnableIRQ>:
  \details Enables a device specific interrupt in the NVIC interrupt controller.
  \param [in]      IRQn  Device specific interrupt number.
  \note    IRQn must not be negative.
 */
__STATIC_INLINE void __NVIC_EnableIRQ(IRQn_Type IRQn)
{
 8001190:	b580      	push	{r7, lr}
 8001192:	b082      	sub	sp, #8
 8001194:	af00      	add	r7, sp, #0
 8001196:	0002      	movs	r2, r0
 8001198:	1dfb      	adds	r3, r7, #7
 800119a:	701a      	strb	r2, [r3, #0]
  if ((int32_t)(IRQn) >= 0)
 800119c:	1dfb      	adds	r3, r7, #7
 800119e:	781b      	ldrb	r3, [r3, #0]
 80011a0:	2b7f      	cmp	r3, #127	; 0x7f
 80011a2:	d809      	bhi.n	80011b8 <__NVIC_EnableIRQ+0x28>
  {
    NVIC->ISER[0U] = (uint32_t)(1UL << (((uint32_t)IRQn) & 0x1FUL));
 80011a4:	1dfb      	adds	r3, r7, #7
 80011a6:	781b      	ldrb	r3, [r3, #0]
 80011a8:	001a      	movs	r2, r3
 80011aa:	231f      	movs	r3, #31
 80011ac:	401a      	ands	r2, r3
 80011ae:	4b04      	ldr	r3, [pc, #16]	; (80011c0 <__NVIC_EnableIRQ+0x30>)
 80011b0:	2101      	movs	r1, #1
 80011b2:	4091      	lsls	r1, r2
 80011b4:	000a      	movs	r2, r1
 80011b6:	601a      	str	r2, [r3, #0]
  }
}
 80011b8:	46c0      	nop			; (mov r8, r8)
 80011ba:	46bd      	mov	sp, r7
 80011bc:	b002      	add	sp, #8
 80011be:	bd80      	pop	{r7, pc}
 80011c0:	e000e100 	.word	0xe000e100

080011c4 <__NVIC_SetPriority>:
  \param [in]      IRQn  Interrupt number.
  \param [in]  priority  Priority to set.
  \note    The priority cannot be set for every processor exception.
 */
__STATIC_INLINE void __NVIC_SetPriority(IRQn_Type IRQn, uint32_t priority)
{
 80011c4:	b590      	push	{r4, r7, lr}
 80011c6:	b083      	sub	sp, #12
 80011c8:	af00      	add	r7, sp, #0
 80011ca:	0002      	movs	r2, r0
 80011cc:	6039      	str	r1, [r7, #0]
 80011ce:	1dfb      	adds	r3, r7, #7
 80011d0:	701a      	strb	r2, [r3, #0]
  if ((int32_t)(IRQn) >= 0)
 80011d2:	1dfb      	adds	r3, r7, #7
 80011d4:	781b      	ldrb	r3, [r3, #0]
 80011d6:	2b7f      	cmp	r3, #127	; 0x7f
 80011d8:	d828      	bhi.n	800122c <__NVIC_SetPriority+0x68>
  {
    NVIC->IP[_IP_IDX(IRQn)]  = ((uint32_t)(NVIC->IP[_IP_IDX(IRQn)]  & ~(0xFFUL << _BIT_SHIFT(IRQn))) |
 80011da:	4a2f      	ldr	r2, [pc, #188]	; (8001298 <__NVIC_SetPriority+0xd4>)
 80011dc:	1dfb      	adds	r3, r7, #7
 80011de:	781b      	ldrb	r3, [r3, #0]
 80011e0:	b25b      	sxtb	r3, r3
 80011e2:	089b      	lsrs	r3, r3, #2
 80011e4:	33c0      	adds	r3, #192	; 0xc0
 80011e6:	009b      	lsls	r3, r3, #2
 80011e8:	589b      	ldr	r3, [r3, r2]
 80011ea:	1dfa      	adds	r2, r7, #7
 80011ec:	7812      	ldrb	r2, [r2, #0]
 80011ee:	0011      	movs	r1, r2
 80011f0:	2203      	movs	r2, #3
 80011f2:	400a      	ands	r2, r1
 80011f4:	00d2      	lsls	r2, r2, #3
 80011f6:	21ff      	movs	r1, #255	; 0xff
 80011f8:	4091      	lsls	r1, r2
 80011fa:	000a      	movs	r2, r1
 80011fc:	43d2      	mvns	r2, r2
 80011fe:	401a      	ands	r2, r3
 8001200:	0011      	movs	r1, r2
       (((priority << (8U - __NVIC_PRIO_BITS)) & (uint32_t)0xFFUL) << _BIT_SHIFT(IRQn)));
 8001202:	683b      	ldr	r3, [r7, #0]
 8001204:	019b      	lsls	r3, r3, #6
 8001206:	22ff      	movs	r2, #255	; 0xff
 8001208:	401a      	ands	r2, r3
 800120a:	1dfb      	adds	r3, r7, #7
 800120c:	781b      	ldrb	r3, [r3, #0]
 800120e:	0018      	movs	r0, r3
 8001210:	2303      	movs	r3, #3
 8001212:	4003      	ands	r3, r0
 8001214:	00db      	lsls	r3, r3, #3
 8001216:	409a      	lsls	r2, r3
    NVIC->IP[_IP_IDX(IRQn)]  = ((uint32_t)(NVIC->IP[_IP_IDX(IRQn)]  & ~(0xFFUL << _BIT_SHIFT(IRQn))) |
 8001218:	481f      	ldr	r0, [pc, #124]	; (8001298 <__NVIC_SetPriority+0xd4>)
 800121a:	1dfb      	adds	r3, r7, #7
 800121c:	781b      	ldrb	r3, [r3, #0]
 800121e:	b25b      	sxtb	r3, r3
 8001220:	089b      	lsrs	r3, r3, #2
 8001222:	430a      	orrs	r2, r1
 8001224:	33c0      	adds	r3, #192	; 0xc0
 8001226:	009b      	lsls	r3, r3, #2
 8001228:	501a      	str	r2, [r3, r0]
  else
  {
    SCB->SHP[_SHP_IDX(IRQn)] = ((uint32_t)(SCB->SHP[_SHP_IDX(IRQn)] & ~(0xFFUL << _BIT_SHIFT(IRQn))) |
       (((priority << (8U - __NVIC_PRIO_BITS)) & (uint32_t)0xFFUL) << _BIT_SHIFT(IRQn)));
  }
}
 800122a:	e031      	b.n	8001290 <__NVIC_SetPriority+0xcc>
    SCB->SHP[_SHP_IDX(IRQn)] = ((uint32_t)(SCB->SHP[_SHP_IDX(IRQn)] & ~(0xFFUL << _BIT_SHIFT(IRQn))) |
 800122c:	4a1b      	ldr	r2, [pc, #108]	; (800129c <__NVIC_SetPriority+0xd8>)
 800122e:	1dfb      	adds	r3, r7, #7
 8001230:	781b      	ldrb	r3, [r3, #0]
 8001232:	0019      	movs	r1, r3
 8001234:	230f      	movs	r3, #15
 8001236:	400b      	ands	r3, r1
 8001238:	3b08      	subs	r3, #8
 800123a:	089b      	lsrs	r3, r3, #2
 800123c:	3306      	adds	r3, #6
 800123e:	009b      	lsls	r3, r3, #2
 8001240:	18d3      	adds	r3, r2, r3
 8001242:	3304      	adds	r3, #4
 8001244:	681b      	ldr	r3, [r3, #0]
 8001246:	1dfa      	adds	r2, r7, #7
 8001248:	7812      	ldrb	r2, [r2, #0]
 800124a:	0011      	movs	r1, r2
 800124c:	2203      	movs	r2, #3
 800124e:	400a      	ands	r2, r1
 8001250:	00d2      	lsls	r2, r2, #3
 8001252:	21ff      	movs	r1, #255	; 0xff
 8001254:	4091      	lsls	r1, r2
 8001256:	000a      	movs	r2, r1
 8001258:	43d2      	mvns	r2, r2
 800125a:	401a      	ands	r2, r3
 800125c:	0011      	movs	r1, r2
       (((priority << (8U - __NVIC_PRIO_BITS)) & (uint32_t)0xFFUL) << _BIT_SHIFT(IRQn)));
 800125e:	683b      	ldr	r3, [r7, #0]
 8001260:	019b      	lsls	r3, r3, #6
 8001262:	22ff      	movs	r2, #255	; 0xff
 8001264:	401a      	ands	r2, r3
 8001266:	1dfb      	adds	r3, r7, #7
 8001268:	781b      	ldrb	r3, [r3, #0]
 800126a:	0018      	movs	r0, r3
 800126c:	2303      	movs	r3, #3
 800126e:	4003      	ands	r3, r0
 8001270:	00db      	lsls	r3, r3, #3
 8001272:	409a      	lsls	r2, r3
    SCB->SHP[_SHP_IDX(IRQn)] = ((uint32_t)(SCB->SHP[_SHP_IDX(IRQn)] & ~(0xFFUL << _BIT_SHIFT(IRQn))) |
 8001274:	4809      	ldr	r0, [pc, #36]	; (800129c <__NVIC_SetPriority+0xd8>)
 8001276:	1dfb      	adds	r3, r7, #7
 8001278:	781b      	ldrb	r3, [r3, #0]
 800127a:	001c      	movs	r4, r3
 800127c:	230f      	movs	r3, #15
 800127e:	4023      	ands	r3, r4
 8001280:	3b08      	subs	r3, #8
 8001282:	089b      	lsrs	r3, r3, #2
 8001284:	430a      	orrs	r2, r1
 8001286:	3306      	adds	r3, #6
 8001288:	009b      	lsls	r3, r3, #2
 800128a:	18c3      	adds	r3, r0, r3
 800128c:	3304      	adds	r3, #4
 800128e:	601a      	str	r2, [r3, #0]
}
 8001290:	46c0      	nop			; (mov r8, r8)
 8001292:	46bd      	mov	sp, r7
 8001294:	b003      	add	sp, #12
 8001296:	bd90      	pop	{r4, r7, pc}
 8001298:	e000e100 	.word	0xe000e100
 800129c:	e000ed00 	.word	0xe000ed00

080012a0 <SysTick_Config>:
  \note    When the variable <b>__Vendor_SysTickConfig</b> is set to 1, then the
           function <b>SysTick_Config</b> is not included. In this case, the file <b><i>device</i>.h</b>
           must contain a vendor-specific implementation of this function.
 */
__STATIC_INLINE uint32_t SysTick_Config(uint32_t ticks)
{
 80012a0:	b580      	push	{r7, lr}
 80012a2:	b082      	sub	sp, #8
 80012a4:	af00      	add	r7, sp, #0
 80012a6:	6078      	str	r0, [r7, #4]
  if ((ticks - 1UL) > SysTick_LOAD_RELOAD_Msk)
 80012a8:	687b      	ldr	r3, [r7, #4]
 80012aa:	1e5a      	subs	r2, r3, #1
 80012ac:	2380      	movs	r3, #128	; 0x80
 80012ae:	045b      	lsls	r3, r3, #17
 80012b0:	429a      	cmp	r2, r3
 80012b2:	d301      	bcc.n	80012b8 <SysTick_Config+0x18>
  {
    return (1UL);                                                   /* Reload value impossible */
 80012b4:	2301      	movs	r3, #1
 80012b6:	e010      	b.n	80012da <SysTick_Config+0x3a>
  }

  SysTick->LOAD  = (uint32_t)(ticks - 1UL);                         /* set reload register */
 80012b8:	4b0a      	ldr	r3, [pc, #40]	; (80012e4 <SysTick_Config+0x44>)
 80012ba:	687a      	ldr	r2, [r7, #4]
 80012bc:	3a01      	subs	r2, #1
 80012be:	605a      	str	r2, [r3, #4]
  NVIC_SetPriority (SysTick_IRQn, (1UL << __NVIC_PRIO_BITS) - 1UL); /* set Priority for Systick Interrupt */
 80012c0:	2301      	movs	r3, #1
 80012c2:	425b      	negs	r3, r3
 80012c4:	2103      	movs	r1, #3
 80012c6:	0018      	movs	r0, r3
 80012c8:	f7ff ff7c 	bl	80011c4 <__NVIC_SetPriority>
  SysTick->VAL   = 0UL;                                             /* Load the SysTick Counter Value */
 80012cc:	4b05      	ldr	r3, [pc, #20]	; (80012e4 <SysTick_Config+0x44>)
 80012ce:	2200      	movs	r2, #0
 80012d0:	609a      	str	r2, [r3, #8]
  SysTick->CTRL  = SysTick_CTRL_CLKSOURCE_Msk |
 80012d2:	4b04      	ldr	r3, [pc, #16]	; (80012e4 <SysTick_Config+0x44>)
 80012d4:	2207      	movs	r2, #7
 80012d6:	601a      	str	r2, [r3, #0]
                   SysTick_CTRL_TICKINT_Msk   |
                   SysTick_CTRL_ENABLE_Msk;                         /* Enable SysTick IRQ and SysTick Timer */
  return (0UL);                                                     /* Function successful */
 80012d8:	2300      	movs	r3, #0
}
 80012da:	0018      	movs	r0, r3
 80012dc:	46bd      	mov	sp, r7
 80012de:	b002      	add	sp, #8
 80012e0:	bd80      	pop	{r7, pc}
 80012e2:	46c0      	nop			; (mov r8, r8)
 80012e4:	e000e010 	.word	0xe000e010

080012e8 <HAL_NVIC_SetPriority>:
  *         with stm32f0xx devices, this parameter is a dummy value and it is ignored, because 
  *         no subpriority supported in Cortex M0 based products.   
  * @retval None
  */
void HAL_NVIC_SetPriority(IRQn_Type IRQn, uint32_t PreemptPriority, uint32_t SubPriority)
{ 
 80012e8:	b580      	push	{r7, lr}
 80012ea:	b084      	sub	sp, #16
 80012ec:	af00      	add	r7, sp, #0
 80012ee:	60b9      	str	r1, [r7, #8]
 80012f0:	607a      	str	r2, [r7, #4]
 80012f2:	210f      	movs	r1, #15
 80012f4:	187b      	adds	r3, r7, r1
 80012f6:	1c02      	adds	r2, r0, #0
 80012f8:	701a      	strb	r2, [r3, #0]
  /* Check the parameters */
  assert_param(IS_NVIC_PREEMPTION_PRIORITY(PreemptPriority));
  NVIC_SetPriority(IRQn,PreemptPriority);
 80012fa:	68ba      	ldr	r2, [r7, #8]
 80012fc:	187b      	adds	r3, r7, r1
 80012fe:	781b      	ldrb	r3, [r3, #0]
 8001300:	b25b      	sxtb	r3, r3
 8001302:	0011      	movs	r1, r2
 8001304:	0018      	movs	r0, r3
 8001306:	f7ff ff5d 	bl	80011c4 <__NVIC_SetPriority>
}
 800130a:	46c0      	nop			; (mov r8, r8)
 800130c:	46bd      	mov	sp, r7
 800130e:	b004      	add	sp, #16
 8001310:	bd80      	pop	{r7, pc}

08001312 <HAL_NVIC_EnableIRQ>:
  *         This parameter can be an enumerator of IRQn_Type enumeration
  *         (For the complete STM32 Devices IRQ Channels list, please refer to the appropriate CMSIS device file (stm32f0xxxx.h))
  * @retval None
  */
void HAL_NVIC_EnableIRQ(IRQn_Type IRQn)
{
 8001312:	b580      	push	{r7, lr}
 8001314:	b082      	sub	sp, #8
 8001316:	af00      	add	r7, sp, #0
 8001318:	0002      	movs	r2, r0
 800131a:	1dfb      	adds	r3, r7, #7
 800131c:	701a      	strb	r2, [r3, #0]
  /* Check the parameters */
  assert_param(IS_NVIC_DEVICE_IRQ(IRQn));
  
  /* Enable interrupt */
  NVIC_EnableIRQ(IRQn);
 800131e:	1dfb      	adds	r3, r7, #7
 8001320:	781b      	ldrb	r3, [r3, #0]
 8001322:	b25b      	sxtb	r3, r3
 8001324:	0018      	movs	r0, r3
 8001326:	f7ff ff33 	bl	8001190 <__NVIC_EnableIRQ>
}
 800132a:	46c0      	nop			; (mov r8, r8)
 800132c:	46bd      	mov	sp, r7
 800132e:	b002      	add	sp, #8
 8001330:	bd80      	pop	{r7, pc}

08001332 <HAL_SYSTICK_Config>:
  * @param  TicksNumb Specifies the ticks Number of ticks between two interrupts.
  * @retval status:  - 0  Function succeeded.
  *                  - 1  Function failed.
  */
uint32_t HAL_SYSTICK_Config(uint32_t TicksNumb)
{
 8001332:	b580      	push	{r7, lr}
 8001334:	b082      	sub	sp, #8
 8001336:	af00      	add	r7, sp, #0
 8001338:	6078      	str	r0, [r7, #4]
   return SysTick_Config(TicksNumb);
 800133a:	687b      	ldr	r3, [r7, #4]
 800133c:	0018      	movs	r0, r3
 800133e:	f7ff ffaf 	bl	80012a0 <SysTick_Config>
 8001342:	0003      	movs	r3, r0
}
 8001344:	0018      	movs	r0, r3
 8001346:	46bd      	mov	sp, r7
 8001348:	b002      	add	sp, #8
 800134a:	bd80      	pop	{r7, pc}

0800134c <HAL_DMA_Init>:
  * @param  hdma Pointer to a DMA_HandleTypeDef structure that contains
  *               the configuration information for the specified DMA Channel.  
  * @retval HAL status
  */
HAL_StatusTypeDef HAL_DMA_Init(DMA_HandleTypeDef *hdma)
{ 
 800134c:	b580      	push	{r7, lr}
 800134e:	b084      	sub	sp, #16
 8001350:	af00      	add	r7, sp, #0
 8001352:	6078      	str	r0, [r7, #4]
  uint32_t tmp = 0U;
 8001354:	2300      	movs	r3, #0
 8001356:	60fb      	str	r3, [r7, #12]
  
  /* Check the DMA handle allocation */
  if(NULL == hdma)
 8001358:	687b      	ldr	r3, [r7, #4]
 800135a:	2b00      	cmp	r3, #0
 800135c:	d101      	bne.n	8001362 <HAL_DMA_Init+0x16>
  {
    return HAL_ERROR;
 800135e:	2301      	movs	r3, #1
 8001360:	e036      	b.n	80013d0 <HAL_DMA_Init+0x84>
  assert_param(IS_DMA_MEMORY_DATA_SIZE(hdma->Init.MemDataAlignment));
  assert_param(IS_DMA_MODE(hdma->Init.Mode));
  assert_param(IS_DMA_PRIORITY(hdma->Init.Priority));
  
  /* Change DMA peripheral state */
  hdma->State = HAL_DMA_STATE_BUSY;
 8001362:	687b      	ldr	r3, [r7, #4]
 8001364:	2221      	movs	r2, #33	; 0x21
 8001366:	2102      	movs	r1, #2
 8001368:	5499      	strb	r1, [r3, r2]

  /* Get the CR register value */
  tmp = hdma->Instance->CCR;
 800136a:	687b      	ldr	r3, [r7, #4]
 800136c:	681b      	ldr	r3, [r3, #0]
 800136e:	681b      	ldr	r3, [r3, #0]
 8001370:	60fb      	str	r3, [r7, #12]
  
  /* Clear PL, MSIZE, PSIZE, MINC, PINC, CIRC, DIR bits */
  tmp &= ((uint32_t)~(DMA_CCR_PL    | DMA_CCR_MSIZE  | DMA_CCR_PSIZE  | \
 8001372:	68fb      	ldr	r3, [r7, #12]
 8001374:	4a18      	ldr	r2, [pc, #96]	; (80013d8 <HAL_DMA_Init+0x8c>)
 8001376:	4013      	ands	r3, r2
 8001378:	60fb      	str	r3, [r7, #12]
                      DMA_CCR_MINC  | DMA_CCR_PINC   | DMA_CCR_CIRC   | \
                      DMA_CCR_DIR));
  
  /* Prepare the DMA Channel configuration */
  tmp |=  hdma->Init.Direction        |
 800137a:	687b      	ldr	r3, [r7, #4]
 800137c:	685a      	ldr	r2, [r3, #4]
          hdma->Init.PeriphInc           | hdma->Init.MemInc           |
 800137e:	687b      	ldr	r3, [r7, #4]
 8001380:	689b      	ldr	r3, [r3, #8]
  tmp |=  hdma->Init.Direction        |
 8001382:	431a      	orrs	r2, r3
          hdma->Init.PeriphInc           | hdma->Init.MemInc           |
 8001384:	687b      	ldr	r3, [r7, #4]
 8001386:	68db      	ldr	r3, [r3, #12]
 8001388:	431a      	orrs	r2, r3
          hdma->Init.PeriphDataAlignment | hdma->Init.MemDataAlignment |
 800138a:	687b      	ldr	r3, [r7, #4]
 800138c:	691b      	ldr	r3, [r3, #16]
          hdma->Init.PeriphInc           | hdma->Init.MemInc           |
 800138e:	431a      	orrs	r2, r3
          hdma->Init.PeriphDataAlignment | hdma->Init.MemDataAlignment |
 8001390:	687b      	ldr	r3, [r7, #4]
 8001392:	695b      	ldr	r3, [r3, #20]
 8001394:	431a      	orrs	r2, r3
          hdma->Init.Mode                | hdma->Init.Priority;
 8001396:	687b      	ldr	r3, [r7, #4]
 8001398:	699b      	ldr	r3, [r3, #24]
          hdma->Init.PeriphDataAlignment | hdma->Init.MemDataAlignment |
 800139a:	431a      	orrs	r2, r3
          hdma->Init.Mode                | hdma->Init.Priority;
 800139c:	687b      	ldr	r3, [r7, #4]
 800139e:	69db      	ldr	r3, [r3, #28]
 80013a0:	4313      	orrs	r3, r2
  tmp |=  hdma->Init.Direction        |
 80013a2:	68fa      	ldr	r2, [r7, #12]
 80013a4:	4313      	orrs	r3, r2
 80013a6:	60fb      	str	r3, [r7, #12]

  /* Write to DMA Channel CR register */
  hdma->Instance->CCR = tmp;  
 80013a8:	687b      	ldr	r3, [r7, #4]
 80013aa:	681b      	ldr	r3, [r3, #0]
 80013ac:	68fa      	ldr	r2, [r7, #12]
 80013ae:	601a      	str	r2, [r3, #0]
  
  /* Initialize DmaBaseAddress and ChannelIndex parameters used 
     by HAL_DMA_IRQHandler() and HAL_DMA_PollForTransfer() */
  DMA_CalcBaseAndBitshift(hdma);
 80013b0:	687b      	ldr	r3, [r7, #4]
 80013b2:	0018      	movs	r0, r3
 80013b4:	f000 f932 	bl	800161c <DMA_CalcBaseAndBitshift>
  
  /* Initialise the error code */
  hdma->ErrorCode = HAL_DMA_ERROR_NONE;
 80013b8:	687b      	ldr	r3, [r7, #4]
 80013ba:	2200      	movs	r2, #0
 80013bc:	639a      	str	r2, [r3, #56]	; 0x38

  /* Initialize the DMA state*/
  hdma->State = HAL_DMA_STATE_READY;
 80013be:	687b      	ldr	r3, [r7, #4]
 80013c0:	2221      	movs	r2, #33	; 0x21
 80013c2:	2101      	movs	r1, #1
 80013c4:	5499      	strb	r1, [r3, r2]
  
  /* Allocate lock resource and initialize it */
  hdma->Lock = HAL_UNLOCKED;
 80013c6:	687b      	ldr	r3, [r7, #4]
 80013c8:	2220      	movs	r2, #32
 80013ca:	2100      	movs	r1, #0
 80013cc:	5499      	strb	r1, [r3, r2]
  
  return HAL_OK;
 80013ce:	2300      	movs	r3, #0
}  
 80013d0:	0018      	movs	r0, r3
 80013d2:	46bd      	mov	sp, r7
 80013d4:	b004      	add	sp, #16
 80013d6:	bd80      	pop	{r7, pc}
 80013d8:	ffffc00f 	.word	0xffffc00f

080013dc <HAL_DMA_Abort>:
  * @param  hdma  pointer to a DMA_HandleTypeDef structure that contains
  *               the configuration information for the specified DMA Channel.
  * @retval HAL status
  */
HAL_StatusTypeDef HAL_DMA_Abort(DMA_HandleTypeDef *hdma)
{
 80013dc:	b580      	push	{r7, lr}
 80013de:	b082      	sub	sp, #8
 80013e0:	af00      	add	r7, sp, #0
 80013e2:	6078      	str	r0, [r7, #4]
  if(hdma->State != HAL_DMA_STATE_BUSY)
 80013e4:	687b      	ldr	r3, [r7, #4]
 80013e6:	2221      	movs	r2, #33	; 0x21
 80013e8:	5c9b      	ldrb	r3, [r3, r2]
 80013ea:	b2db      	uxtb	r3, r3
 80013ec:	2b02      	cmp	r3, #2
 80013ee:	d008      	beq.n	8001402 <HAL_DMA_Abort+0x26>
  {
    /* no transfer ongoing */
    hdma->ErrorCode = HAL_DMA_ERROR_NO_XFER;
 80013f0:	687b      	ldr	r3, [r7, #4]
 80013f2:	2204      	movs	r2, #4
 80013f4:	639a      	str	r2, [r3, #56]	; 0x38
    
    /* Process Unlocked */
    __HAL_UNLOCK(hdma);
 80013f6:	687b      	ldr	r3, [r7, #4]
 80013f8:	2220      	movs	r2, #32
 80013fa:	2100      	movs	r1, #0
 80013fc:	5499      	strb	r1, [r3, r2]
    
    return HAL_ERROR;
 80013fe:	2301      	movs	r3, #1
 8001400:	e020      	b.n	8001444 <HAL_DMA_Abort+0x68>
  }
  else
  {
    /* Disable DMA IT */
    hdma->Instance->CCR &= ~(DMA_IT_TC | DMA_IT_HT | DMA_IT_TE);
 8001402:	687b      	ldr	r3, [r7, #4]
 8001404:	681b      	ldr	r3, [r3, #0]
 8001406:	681a      	ldr	r2, [r3, #0]
 8001408:	687b      	ldr	r3, [r7, #4]
 800140a:	681b      	ldr	r3, [r3, #0]
 800140c:	210e      	movs	r1, #14
 800140e:	438a      	bics	r2, r1
 8001410:	601a      	str	r2, [r3, #0]
    
    /* Disable the channel */
    hdma->Instance->CCR &= ~DMA_CCR_EN;
 8001412:	687b      	ldr	r3, [r7, #4]
 8001414:	681b      	ldr	r3, [r3, #0]
 8001416:	681a      	ldr	r2, [r3, #0]
 8001418:	687b      	ldr	r3, [r7, #4]
 800141a:	681b      	ldr	r3, [r3, #0]
 800141c:	2101      	movs	r1, #1
 800141e:	438a      	bics	r2, r1
 8001420:	601a      	str	r2, [r3, #0]
    
    /* Clear all flags */
    hdma->DmaBaseAddress->IFCR = (DMA_FLAG_GL1 << hdma->ChannelIndex);
 8001422:	687b      	ldr	r3, [r7, #4]
 8001424:	6c1a      	ldr	r2, [r3, #64]	; 0x40
 8001426:	687b      	ldr	r3, [r7, #4]
 8001428:	6bdb      	ldr	r3, [r3, #60]	; 0x3c
 800142a:	2101      	movs	r1, #1
 800142c:	4091      	lsls	r1, r2
 800142e:	000a      	movs	r2, r1
 8001430:	605a      	str	r2, [r3, #4]
  }
  /* Change the DMA state*/
  hdma->State = HAL_DMA_STATE_READY; 
 8001432:	687b      	ldr	r3, [r7, #4]
 8001434:	2221      	movs	r2, #33	; 0x21
 8001436:	2101      	movs	r1, #1
 8001438:	5499      	strb	r1, [r3, r2]
  
  /* Process Unlocked */
  __HAL_UNLOCK(hdma);
 800143a:	687b      	ldr	r3, [r7, #4]
 800143c:	2220      	movs	r2, #32
 800143e:	2100      	movs	r1, #0
 8001440:	5499      	strb	r1, [r3, r2]
  
  return HAL_OK;
 8001442:	2300      	movs	r3, #0
}
 8001444:	0018      	movs	r0, r3
 8001446:	46bd      	mov	sp, r7
 8001448:	b002      	add	sp, #8
 800144a:	bd80      	pop	{r7, pc}

0800144c <HAL_DMA_Abort_IT>:
  * @param  hdma  pointer to a DMA_HandleTypeDef structure that contains
  *               the configuration information for the specified DMA Stream.
  * @retval HAL status
  */
HAL_StatusTypeDef HAL_DMA_Abort_IT(DMA_HandleTypeDef *hdma)
{  
 800144c:	b580      	push	{r7, lr}
 800144e:	b084      	sub	sp, #16
 8001450:	af00      	add	r7, sp, #0
 8001452:	6078      	str	r0, [r7, #4]
  HAL_StatusTypeDef status = HAL_OK;
 8001454:	210f      	movs	r1, #15
 8001456:	187b      	adds	r3, r7, r1
 8001458:	2200      	movs	r2, #0
 800145a:	701a      	strb	r2, [r3, #0]
  
  if(HAL_DMA_STATE_BUSY != hdma->State)
 800145c:	687b      	ldr	r3, [r7, #4]
 800145e:	2221      	movs	r2, #33	; 0x21
 8001460:	5c9b      	ldrb	r3, [r3, r2]
 8001462:	b2db      	uxtb	r3, r3
 8001464:	2b02      	cmp	r3, #2
 8001466:	d006      	beq.n	8001476 <HAL_DMA_Abort_IT+0x2a>
  {
    /* no transfer ongoing */
    hdma->ErrorCode = HAL_DMA_ERROR_NO_XFER;
 8001468:	687b      	ldr	r3, [r7, #4]
 800146a:	2204      	movs	r2, #4
 800146c:	639a      	str	r2, [r3, #56]	; 0x38
        
    status = HAL_ERROR;
 800146e:	187b      	adds	r3, r7, r1
 8001470:	2201      	movs	r2, #1
 8001472:	701a      	strb	r2, [r3, #0]
 8001474:	e028      	b.n	80014c8 <HAL_DMA_Abort_IT+0x7c>
  }
  else
  { 
  
    /* Disable DMA IT */
    hdma->Instance->CCR &= ~(DMA_IT_TC | DMA_IT_HT | DMA_IT_TE);
 8001476:	687b      	ldr	r3, [r7, #4]
 8001478:	681b      	ldr	r3, [r3, #0]
 800147a:	681a      	ldr	r2, [r3, #0]
 800147c:	687b      	ldr	r3, [r7, #4]
 800147e:	681b      	ldr	r3, [r3, #0]
 8001480:	210e      	movs	r1, #14
 8001482:	438a      	bics	r2, r1
 8001484:	601a      	str	r2, [r3, #0]
    
    /* Disable the channel */
    hdma->Instance->CCR &= ~DMA_CCR_EN;
 8001486:	687b      	ldr	r3, [r7, #4]
 8001488:	681b      	ldr	r3, [r3, #0]
 800148a:	681a      	ldr	r2, [r3, #0]
 800148c:	687b      	ldr	r3, [r7, #4]
 800148e:	681b      	ldr	r3, [r3, #0]
 8001490:	2101      	movs	r1, #1
 8001492:	438a      	bics	r2, r1
 8001494:	601a      	str	r2, [r3, #0]
    
    /* Clear all flags */
    hdma->DmaBaseAddress->IFCR = DMA_FLAG_GL1 << hdma->ChannelIndex;
 8001496:	687b      	ldr	r3, [r7, #4]
 8001498:	6c1a      	ldr	r2, [r3, #64]	; 0x40
 800149a:	687b      	ldr	r3, [r7, #4]
 800149c:	6bdb      	ldr	r3, [r3, #60]	; 0x3c
 800149e:	2101      	movs	r1, #1
 80014a0:	4091      	lsls	r1, r2
 80014a2:	000a      	movs	r2, r1
 80014a4:	605a      	str	r2, [r3, #4]
    
    /* Change the DMA state */
    hdma->State = HAL_DMA_STATE_READY;
 80014a6:	687b      	ldr	r3, [r7, #4]
 80014a8:	2221      	movs	r2, #33	; 0x21
 80014aa:	2101      	movs	r1, #1
 80014ac:	5499      	strb	r1, [r3, r2]
    
    /* Process Unlocked */
    __HAL_UNLOCK(hdma);
 80014ae:	687b      	ldr	r3, [r7, #4]
 80014b0:	2220      	movs	r2, #32
 80014b2:	2100      	movs	r1, #0
 80014b4:	5499      	strb	r1, [r3, r2]
    
    /* Call User Abort callback */ 
    if(hdma->XferAbortCallback != NULL)
 80014b6:	687b      	ldr	r3, [r7, #4]
 80014b8:	6b5b      	ldr	r3, [r3, #52]	; 0x34
 80014ba:	2b00      	cmp	r3, #0
 80014bc:	d004      	beq.n	80014c8 <HAL_DMA_Abort_IT+0x7c>
    {
      hdma->XferAbortCallback(hdma);
 80014be:	687b      	ldr	r3, [r7, #4]
 80014c0:	6b5b      	ldr	r3, [r3, #52]	; 0x34
 80014c2:	687a      	ldr	r2, [r7, #4]
 80014c4:	0010      	movs	r0, r2
 80014c6:	4798      	blx	r3
    } 
  }
  return status;
 80014c8:	230f      	movs	r3, #15
 80014ca:	18fb      	adds	r3, r7, r3
 80014cc:	781b      	ldrb	r3, [r3, #0]
}
 80014ce:	0018      	movs	r0, r3
 80014d0:	46bd      	mov	sp, r7
 80014d2:	b004      	add	sp, #16
 80014d4:	bd80      	pop	{r7, pc}

080014d6 <HAL_DMA_IRQHandler>:
  * @param  hdma pointer to a DMA_HandleTypeDef structure that contains
  *               the configuration information for the specified DMA Channel.  
  * @retval None
  */
void HAL_DMA_IRQHandler(DMA_HandleTypeDef *hdma)
{
 80014d6:	b580      	push	{r7, lr}
 80014d8:	b084      	sub	sp, #16
 80014da:	af00      	add	r7, sp, #0
 80014dc:	6078      	str	r0, [r7, #4]
	uint32_t flag_it = hdma->DmaBaseAddress->ISR;
 80014de:	687b      	ldr	r3, [r7, #4]
 80014e0:	6bdb      	ldr	r3, [r3, #60]	; 0x3c
 80014e2:	681b      	ldr	r3, [r3, #0]
 80014e4:	60fb      	str	r3, [r7, #12]
  uint32_t source_it = hdma->Instance->CCR;
 80014e6:	687b      	ldr	r3, [r7, #4]
 80014e8:	681b      	ldr	r3, [r3, #0]
 80014ea:	681b      	ldr	r3, [r3, #0]
 80014ec:	60bb      	str	r3, [r7, #8]
          
  /* Half Transfer Complete Interrupt management ******************************/
  if ((RESET != (flag_it & (DMA_FLAG_HT1 << hdma->ChannelIndex))) && (RESET != (source_it & DMA_IT_HT)))
 80014ee:	687b      	ldr	r3, [r7, #4]
 80014f0:	6c1b      	ldr	r3, [r3, #64]	; 0x40
 80014f2:	2204      	movs	r2, #4
 80014f4:	409a      	lsls	r2, r3
 80014f6:	0013      	movs	r3, r2
 80014f8:	68fa      	ldr	r2, [r7, #12]
 80014fa:	4013      	ands	r3, r2
 80014fc:	d024      	beq.n	8001548 <HAL_DMA_IRQHandler+0x72>
 80014fe:	68bb      	ldr	r3, [r7, #8]
 8001500:	2204      	movs	r2, #4
 8001502:	4013      	ands	r3, r2
 8001504:	d020      	beq.n	8001548 <HAL_DMA_IRQHandler+0x72>
  {
  	/* Disable the half transfer interrupt if the DMA mode is not CIRCULAR */
  	if((hdma->Instance->CCR & DMA_CCR_CIRC) == 0U)
 8001506:	687b      	ldr	r3, [r7, #4]
 8001508:	681b      	ldr	r3, [r3, #0]
 800150a:	681b      	ldr	r3, [r3, #0]
 800150c:	2220      	movs	r2, #32
 800150e:	4013      	ands	r3, r2
 8001510:	d107      	bne.n	8001522 <HAL_DMA_IRQHandler+0x4c>
  	{
  		/* Disable the half transfer interrupt */
  		hdma->Instance->CCR &= ~DMA_IT_HT;
 8001512:	687b      	ldr	r3, [r7, #4]
 8001514:	681b      	ldr	r3, [r3, #0]
 8001516:	681a      	ldr	r2, [r3, #0]
 8001518:	687b      	ldr	r3, [r7, #4]
 800151a:	681b      	ldr	r3, [r3, #0]
 800151c:	2104      	movs	r1, #4
 800151e:	438a      	bics	r2, r1
 8001520:	601a      	str	r2, [r3, #0]
  	}
  	
  	/* Clear the half transfer complete flag */
  	hdma->DmaBaseAddress->IFCR = DMA_FLAG_HT1 << hdma->ChannelIndex;
 8001522:	687b      	ldr	r3, [r7, #4]
 8001524:	6c1a      	ldr	r2, [r3, #64]	; 0x40
 8001526:	687b      	ldr	r3, [r7, #4]
 8001528:	6bdb      	ldr	r3, [r3, #60]	; 0x3c
 800152a:	2104      	movs	r1, #4
 800152c:	4091      	lsls	r1, r2
 800152e:	000a      	movs	r2, r1
 8001530:	605a      	str	r2, [r3, #4]
  	
  	/* DMA peripheral state is not updated in Half Transfer */
  	/* State is updated only in Transfer Complete case */
  	
  	if(hdma->XferHalfCpltCallback != NULL)
 8001532:	687b      	ldr	r3, [r7, #4]
 8001534:	6adb      	ldr	r3, [r3, #44]	; 0x2c
 8001536:	2b00      	cmp	r3, #0
 8001538:	d100      	bne.n	800153c <HAL_DMA_IRQHandler+0x66>
 800153a:	e06a      	b.n	8001612 <HAL_DMA_IRQHandler+0x13c>
  	{
  		/* Half transfer callback */
  		hdma->XferHalfCpltCallback(hdma);
 800153c:	687b      	ldr	r3, [r7, #4]
 800153e:	6adb      	ldr	r3, [r3, #44]	; 0x2c
 8001540:	687a      	ldr	r2, [r7, #4]
 8001542:	0010      	movs	r0, r2
 8001544:	4798      	blx	r3
  	if(hdma->XferHalfCpltCallback != NULL)
 8001546:	e064      	b.n	8001612 <HAL_DMA_IRQHandler+0x13c>
  	}
  }
  
  /* Transfer Complete Interrupt management ***********************************/
  else if ((RESET != (flag_it & (DMA_FLAG_TC1 << hdma->ChannelIndex))) && (RESET != (source_it & DMA_IT_TC)))
 8001548:	687b      	ldr	r3, [r7, #4]
 800154a:	6c1b      	ldr	r3, [r3, #64]	; 0x40
 800154c:	2202      	movs	r2, #2
 800154e:	409a      	lsls	r2, r3
 8001550:	0013      	movs	r3, r2
 8001552:	68fa      	ldr	r2, [r7, #12]
 8001554:	4013      	ands	r3, r2
 8001556:	d02b      	beq.n	80015b0 <HAL_DMA_IRQHandler+0xda>
 8001558:	68bb      	ldr	r3, [r7, #8]
 800155a:	2202      	movs	r2, #2
 800155c:	4013      	ands	r3, r2
 800155e:	d027      	beq.n	80015b0 <HAL_DMA_IRQHandler+0xda>
  {
  	if((hdma->Instance->CCR & DMA_CCR_CIRC) == 0U)
 8001560:	687b      	ldr	r3, [r7, #4]
 8001562:	681b      	ldr	r3, [r3, #0]
 8001564:	681b      	ldr	r3, [r3, #0]
 8001566:	2220      	movs	r2, #32
 8001568:	4013      	ands	r3, r2
 800156a:	d10b      	bne.n	8001584 <HAL_DMA_IRQHandler+0xae>
  	{
  		/* Disable the transfer complete  & transfer error interrupts */
  		/* if the DMA mode is not CIRCULAR */
  		hdma->Instance->CCR &= ~(DMA_IT_TC | DMA_IT_TE);
 800156c:	687b      	ldr	r3, [r7, #4]
 800156e:	681b      	ldr	r3, [r3, #0]
 8001570:	681a      	ldr	r2, [r3, #0]
 8001572:	687b      	ldr	r3, [r7, #4]
 8001574:	681b      	ldr	r3, [r3, #0]
 8001576:	210a      	movs	r1, #10
 8001578:	438a      	bics	r2, r1
 800157a:	601a      	str	r2, [r3, #0]
  		
  		/* Change the DMA state */
  		hdma->State = HAL_DMA_STATE_READY;
 800157c:	687b      	ldr	r3, [r7, #4]
 800157e:	2221      	movs	r2, #33	; 0x21
 8001580:	2101      	movs	r1, #1
 8001582:	5499      	strb	r1, [r3, r2]
  	}
  	
  	/* Clear the transfer complete flag */
  	hdma->DmaBaseAddress->IFCR = DMA_FLAG_TC1 << hdma->ChannelIndex;
 8001584:	687b      	ldr	r3, [r7, #4]
 8001586:	6c1a      	ldr	r2, [r3, #64]	; 0x40
 8001588:	687b      	ldr	r3, [r7, #4]
 800158a:	6bdb      	ldr	r3, [r3, #60]	; 0x3c
 800158c:	2102      	movs	r1, #2
 800158e:	4091      	lsls	r1, r2
 8001590:	000a      	movs	r2, r1
 8001592:	605a      	str	r2, [r3, #4]
  	
  	/* Process Unlocked */
  	__HAL_UNLOCK(hdma);
 8001594:	687b      	ldr	r3, [r7, #4]
 8001596:	2220      	movs	r2, #32
 8001598:	2100      	movs	r1, #0
 800159a:	5499      	strb	r1, [r3, r2]
  	
  	if(hdma->XferCpltCallback != NULL)
 800159c:	687b      	ldr	r3, [r7, #4]
 800159e:	6a9b      	ldr	r3, [r3, #40]	; 0x28
 80015a0:	2b00      	cmp	r3, #0
 80015a2:	d036      	beq.n	8001612 <HAL_DMA_IRQHandler+0x13c>
  	{
  		/* Transfer complete callback */
  		hdma->XferCpltCallback(hdma);
 80015a4:	687b      	ldr	r3, [r7, #4]
 80015a6:	6a9b      	ldr	r3, [r3, #40]	; 0x28
 80015a8:	687a      	ldr	r2, [r7, #4]
 80015aa:	0010      	movs	r0, r2
 80015ac:	4798      	blx	r3
  	if(hdma->XferCpltCallback != NULL)
 80015ae:	e030      	b.n	8001612 <HAL_DMA_IRQHandler+0x13c>
  	}
  }
  
  /* Transfer Error Interrupt management ***************************************/
  else if (( RESET != (flag_it & (DMA_FLAG_TE1 << hdma->ChannelIndex))) && (RESET != (source_it & DMA_IT_TE)))
 80015b0:	687b      	ldr	r3, [r7, #4]
 80015b2:	6c1b      	ldr	r3, [r3, #64]	; 0x40
 80015b4:	2208      	movs	r2, #8
 80015b6:	409a      	lsls	r2, r3
 80015b8:	0013      	movs	r3, r2
 80015ba:	68fa      	ldr	r2, [r7, #12]
 80015bc:	4013      	ands	r3, r2
 80015be:	d028      	beq.n	8001612 <HAL_DMA_IRQHandler+0x13c>
 80015c0:	68bb      	ldr	r3, [r7, #8]
 80015c2:	2208      	movs	r2, #8
 80015c4:	4013      	ands	r3, r2
 80015c6:	d024      	beq.n	8001612 <HAL_DMA_IRQHandler+0x13c>
  {
  	/* When a DMA transfer error occurs */
    /* A hardware clear of its EN bits is performed */
    /* Then, disable all DMA interrupts */
    hdma->Instance->CCR &= ~(DMA_IT_TC | DMA_IT_HT | DMA_IT_TE);
 80015c8:	687b      	ldr	r3, [r7, #4]
 80015ca:	681b      	ldr	r3, [r3, #0]
 80015cc:	681a      	ldr	r2, [r3, #0]
 80015ce:	687b      	ldr	r3, [r7, #4]
 80015d0:	681b      	ldr	r3, [r3, #0]
 80015d2:	210e      	movs	r1, #14
 80015d4:	438a      	bics	r2, r1
 80015d6:	601a      	str	r2, [r3, #0]
    
    /* Clear all flags */
    hdma->DmaBaseAddress->IFCR = DMA_FLAG_GL1 << hdma->ChannelIndex;
 80015d8:	687b      	ldr	r3, [r7, #4]
 80015da:	6c1a      	ldr	r2, [r3, #64]	; 0x40
 80015dc:	687b      	ldr	r3, [r7, #4]
 80015de:	6bdb      	ldr	r3, [r3, #60]	; 0x3c
 80015e0:	2101      	movs	r1, #1
 80015e2:	4091      	lsls	r1, r2
 80015e4:	000a      	movs	r2, r1
 80015e6:	605a      	str	r2, [r3, #4]
    
    /* Update error code */
    hdma->ErrorCode = HAL_DMA_ERROR_TE;
 80015e8:	687b      	ldr	r3, [r7, #4]
 80015ea:	2201      	movs	r2, #1
 80015ec:	639a      	str	r2, [r3, #56]	; 0x38
    
    /* Change the DMA state */
    hdma->State = HAL_DMA_STATE_READY;    
 80015ee:	687b      	ldr	r3, [r7, #4]
 80015f0:	2221      	movs	r2, #33	; 0x21
 80015f2:	2101      	movs	r1, #1
 80015f4:	5499      	strb	r1, [r3, r2]
    
    /* Process Unlocked */
    __HAL_UNLOCK(hdma); 
 80015f6:	687b      	ldr	r3, [r7, #4]
 80015f8:	2220      	movs	r2, #32
 80015fa:	2100      	movs	r1, #0
 80015fc:	5499      	strb	r1, [r3, r2]
    
    if(hdma->XferErrorCallback != NULL)
 80015fe:	687b      	ldr	r3, [r7, #4]
 8001600:	6b1b      	ldr	r3, [r3, #48]	; 0x30
 8001602:	2b00      	cmp	r3, #0
 8001604:	d005      	beq.n	8001612 <HAL_DMA_IRQHandler+0x13c>
    {
    	/* Transfer error callback */
    	hdma->XferErrorCallback(hdma);
 8001606:	687b      	ldr	r3, [r7, #4]
 8001608:	6b1b      	ldr	r3, [r3, #48]	; 0x30
 800160a:	687a      	ldr	r2, [r7, #4]
 800160c:	0010      	movs	r0, r2
 800160e:	4798      	blx	r3
    }
   }
}  
 8001610:	e7ff      	b.n	8001612 <HAL_DMA_IRQHandler+0x13c>
 8001612:	46c0      	nop			; (mov r8, r8)
 8001614:	46bd      	mov	sp, r7
 8001616:	b004      	add	sp, #16
 8001618:	bd80      	pop	{r7, pc}
	...

0800161c <DMA_CalcBaseAndBitshift>:
  * @param  hdma       pointer to a DMA_HandleTypeDef structure that contains
  *                     the configuration information for the specified DMA Stream. 
  * @retval None
  */
static void DMA_CalcBaseAndBitshift(DMA_HandleTypeDef *hdma)
{
 800161c:	b580      	push	{r7, lr}
 800161e:	b082      	sub	sp, #8
 8001620:	af00      	add	r7, sp, #0
 8001622:	6078      	str	r0, [r7, #4]
    hdma->DmaBaseAddress = DMA2;
  }
#else
  /* calculation of the channel index */
  /* DMA1 */
  hdma->ChannelIndex = (((uint32_t)hdma->Instance - (uint32_t)DMA1_Channel1) / ((uint32_t)DMA1_Channel2 - (uint32_t)DMA1_Channel1)) << 2U;
 8001624:	687b      	ldr	r3, [r7, #4]
 8001626:	681b      	ldr	r3, [r3, #0]
 8001628:	4a08      	ldr	r2, [pc, #32]	; (800164c <DMA_CalcBaseAndBitshift+0x30>)
 800162a:	4694      	mov	ip, r2
 800162c:	4463      	add	r3, ip
 800162e:	2114      	movs	r1, #20
 8001630:	0018      	movs	r0, r3
 8001632:	f7fe fd73 	bl	800011c <__udivsi3>
 8001636:	0003      	movs	r3, r0
 8001638:	009a      	lsls	r2, r3, #2
 800163a:	687b      	ldr	r3, [r7, #4]
 800163c:	641a      	str	r2, [r3, #64]	; 0x40
  hdma->DmaBaseAddress = DMA1;
 800163e:	687b      	ldr	r3, [r7, #4]
 8001640:	4a03      	ldr	r2, [pc, #12]	; (8001650 <DMA_CalcBaseAndBitshift+0x34>)
 8001642:	63da      	str	r2, [r3, #60]	; 0x3c
#endif
}
 8001644:	46c0      	nop			; (mov r8, r8)
 8001646:	46bd      	mov	sp, r7
 8001648:	b002      	add	sp, #8
 800164a:	bd80      	pop	{r7, pc}
 800164c:	bffdfff8 	.word	0xbffdfff8
 8001650:	40020000 	.word	0x40020000

08001654 <HAL_GPIO_Init>:
  * @param  GPIO_Init pointer to a GPIO_InitTypeDef structure that contains
  *         the configuration information for the specified GPIO peripheral.
  * @retval None
  */
void HAL_GPIO_Init(GPIO_TypeDef  *GPIOx, GPIO_InitTypeDef *GPIO_Init)
{
 8001654:	b580      	push	{r7, lr}
 8001656:	b086      	sub	sp, #24
 8001658:	af00      	add	r7, sp, #0
 800165a:	6078      	str	r0, [r7, #4]
 800165c:	6039      	str	r1, [r7, #0]
  uint32_t position = 0x00u;
 800165e:	2300      	movs	r3, #0
 8001660:	617b      	str	r3, [r7, #20]
  assert_param(IS_GPIO_ALL_INSTANCE(GPIOx));
  assert_param(IS_GPIO_PIN(GPIO_Init->Pin));
  assert_param(IS_GPIO_MODE(GPIO_Init->Mode));

  /* Configure the port pins */
  while (((GPIO_Init->Pin) >> position) != 0x00u)
 8001662:	e14f      	b.n	8001904 <HAL_GPIO_Init+0x2b0>
  {
    /* Get current io position */
    iocurrent = (GPIO_Init->Pin) & (1uL << position);
 8001664:	683b      	ldr	r3, [r7, #0]
 8001666:	681b      	ldr	r3, [r3, #0]
 8001668:	2101      	movs	r1, #1
 800166a:	697a      	ldr	r2, [r7, #20]
 800166c:	4091      	lsls	r1, r2
 800166e:	000a      	movs	r2, r1
 8001670:	4013      	ands	r3, r2
 8001672:	60fb      	str	r3, [r7, #12]

    if (iocurrent != 0x00u)
 8001674:	68fb      	ldr	r3, [r7, #12]
 8001676:	2b00      	cmp	r3, #0
 8001678:	d100      	bne.n	800167c <HAL_GPIO_Init+0x28>
 800167a:	e140      	b.n	80018fe <HAL_GPIO_Init+0x2aa>
    {
      /*--------------------- GPIO Mode Configuration ------------------------*/
      /* In case of Output or Alternate function mode selection */
      if(((GPIO_Init->Mode & GPIO_MODE) == MODE_OUTPUT) ||
 800167c:	683b      	ldr	r3, [r7, #0]
 800167e:	685b      	ldr	r3, [r3, #4]
 8001680:	2203      	movs	r2, #3
 8001682:	4013      	ands	r3, r2
 8001684:	2b01      	cmp	r3, #1
 8001686:	d005      	beq.n	8001694 <HAL_GPIO_Init+0x40>
         ((GPIO_Init->Mode & GPIO_MODE) == MODE_AF))
 8001688:	683b      	ldr	r3, [r7, #0]
 800168a:	685b      	ldr	r3, [r3, #4]
 800168c:	2203      	movs	r2, #3
 800168e:	4013      	ands	r3, r2
      if(((GPIO_Init->Mode & GPIO_MODE) == MODE_OUTPUT) ||
 8001690:	2b02      	cmp	r3, #2
 8001692:	d130      	bne.n	80016f6 <HAL_GPIO_Init+0xa2>
      {
        /* Check the Speed parameter */
        assert_param(IS_GPIO_SPEED(GPIO_Init->Speed));
        /* Configure the IO Speed */
        temp = GPIOx->OSPEEDR;
 8001694:	687b      	ldr	r3, [r7, #4]
 8001696:	689b      	ldr	r3, [r3, #8]
 8001698:	613b      	str	r3, [r7, #16]
        temp &= ~(GPIO_OSPEEDER_OSPEEDR0 << (position * 2u));
 800169a:	697b      	ldr	r3, [r7, #20]
 800169c:	005b      	lsls	r3, r3, #1
 800169e:	2203      	movs	r2, #3
 80016a0:	409a      	lsls	r2, r3
 80016a2:	0013      	movs	r3, r2
 80016a4:	43da      	mvns	r2, r3
 80016a6:	693b      	ldr	r3, [r7, #16]
 80016a8:	4013      	ands	r3, r2
 80016aa:	613b      	str	r3, [r7, #16]
        temp |= (GPIO_Init->Speed << (position * 2u));
 80016ac:	683b      	ldr	r3, [r7, #0]
 80016ae:	68da      	ldr	r2, [r3, #12]
 80016b0:	697b      	ldr	r3, [r7, #20]
 80016b2:	005b      	lsls	r3, r3, #1
 80016b4:	409a      	lsls	r2, r3
 80016b6:	0013      	movs	r3, r2
 80016b8:	693a      	ldr	r2, [r7, #16]
 80016ba:	4313      	orrs	r3, r2
 80016bc:	613b      	str	r3, [r7, #16]
        GPIOx->OSPEEDR = temp;
 80016be:	687b      	ldr	r3, [r7, #4]
 80016c0:	693a      	ldr	r2, [r7, #16]
 80016c2:	609a      	str	r2, [r3, #8]

        /* Configure the IO Output Type */
        temp = GPIOx->OTYPER;
 80016c4:	687b      	ldr	r3, [r7, #4]
 80016c6:	685b      	ldr	r3, [r3, #4]
 80016c8:	613b      	str	r3, [r7, #16]
        temp &= ~(GPIO_OTYPER_OT_0 << position) ;
 80016ca:	2201      	movs	r2, #1
 80016cc:	697b      	ldr	r3, [r7, #20]
 80016ce:	409a      	lsls	r2, r3
 80016d0:	0013      	movs	r3, r2
 80016d2:	43da      	mvns	r2, r3
 80016d4:	693b      	ldr	r3, [r7, #16]
 80016d6:	4013      	ands	r3, r2
 80016d8:	613b      	str	r3, [r7, #16]
        temp |= (((GPIO_Init->Mode & OUTPUT_TYPE) >> OUTPUT_TYPE_Pos) << position);
 80016da:	683b      	ldr	r3, [r7, #0]
 80016dc:	685b      	ldr	r3, [r3, #4]
 80016de:	091b      	lsrs	r3, r3, #4
 80016e0:	2201      	movs	r2, #1
 80016e2:	401a      	ands	r2, r3
 80016e4:	697b      	ldr	r3, [r7, #20]
 80016e6:	409a      	lsls	r2, r3
 80016e8:	0013      	movs	r3, r2
 80016ea:	693a      	ldr	r2, [r7, #16]
 80016ec:	4313      	orrs	r3, r2
 80016ee:	613b      	str	r3, [r7, #16]
        GPIOx->OTYPER = temp;
 80016f0:	687b      	ldr	r3, [r7, #4]
 80016f2:	693a      	ldr	r2, [r7, #16]
 80016f4:	605a      	str	r2, [r3, #4]
      }
      
      if((GPIO_Init->Mode & GPIO_MODE) != MODE_ANALOG)
 80016f6:	683b      	ldr	r3, [r7, #0]
 80016f8:	685b      	ldr	r3, [r3, #4]
 80016fa:	2203      	movs	r2, #3
 80016fc:	4013      	ands	r3, r2
 80016fe:	2b03      	cmp	r3, #3
 8001700:	d017      	beq.n	8001732 <HAL_GPIO_Init+0xde>
      {
        /* Check the Pull parameter */
        assert_param(IS_GPIO_PULL(GPIO_Init->Pull));

        /* Activate the Pull-up or Pull down resistor for the current IO */
        temp = GPIOx->PUPDR;
 8001702:	687b      	ldr	r3, [r7, #4]
 8001704:	68db      	ldr	r3, [r3, #12]
 8001706:	613b      	str	r3, [r7, #16]
        temp &= ~(GPIO_PUPDR_PUPDR0 << (position * 2u));
 8001708:	697b      	ldr	r3, [r7, #20]
 800170a:	005b      	lsls	r3, r3, #1
 800170c:	2203      	movs	r2, #3
 800170e:	409a      	lsls	r2, r3
 8001710:	0013      	movs	r3, r2
 8001712:	43da      	mvns	r2, r3
 8001714:	693b      	ldr	r3, [r7, #16]
 8001716:	4013      	ands	r3, r2
 8001718:	613b      	str	r3, [r7, #16]
        temp |= ((GPIO_Init->Pull) << (position * 2u));
 800171a:	683b      	ldr	r3, [r7, #0]
 800171c:	689a      	ldr	r2, [r3, #8]
 800171e:	697b      	ldr	r3, [r7, #20]
 8001720:	005b      	lsls	r3, r3, #1
 8001722:	409a      	lsls	r2, r3
 8001724:	0013      	movs	r3, r2
 8001726:	693a      	ldr	r2, [r7, #16]
 8001728:	4313      	orrs	r3, r2
 800172a:	613b      	str	r3, [r7, #16]
        GPIOx->PUPDR = temp;
 800172c:	687b      	ldr	r3, [r7, #4]
 800172e:	693a      	ldr	r2, [r7, #16]
 8001730:	60da      	str	r2, [r3, #12]
      }

      /* In case of Alternate function mode selection */
      if((GPIO_Init->Mode & GPIO_MODE) == MODE_AF)
 8001732:	683b      	ldr	r3, [r7, #0]
 8001734:	685b      	ldr	r3, [r3, #4]
 8001736:	2203      	movs	r2, #3
 8001738:	4013      	ands	r3, r2
 800173a:	2b02      	cmp	r3, #2
 800173c:	d123      	bne.n	8001786 <HAL_GPIO_Init+0x132>
        /* Check the Alternate function parameters */
        assert_param(IS_GPIO_AF_INSTANCE(GPIOx));
        assert_param(IS_GPIO_AF(GPIO_Init->Alternate));

        /* Configure Alternate function mapped with the current IO */
        temp = GPIOx->AFR[position >> 3u];
 800173e:	697b      	ldr	r3, [r7, #20]
 8001740:	08da      	lsrs	r2, r3, #3
 8001742:	687b      	ldr	r3, [r7, #4]
 8001744:	3208      	adds	r2, #8
 8001746:	0092      	lsls	r2, r2, #2
 8001748:	58d3      	ldr	r3, [r2, r3]
 800174a:	613b      	str	r3, [r7, #16]
        temp &= ~(0xFu << ((position & 0x07u) * 4u));
 800174c:	697b      	ldr	r3, [r7, #20]
 800174e:	2207      	movs	r2, #7
 8001750:	4013      	ands	r3, r2
 8001752:	009b      	lsls	r3, r3, #2
 8001754:	220f      	movs	r2, #15
 8001756:	409a      	lsls	r2, r3
 8001758:	0013      	movs	r3, r2
 800175a:	43da      	mvns	r2, r3
 800175c:	693b      	ldr	r3, [r7, #16]
 800175e:	4013      	ands	r3, r2
 8001760:	613b      	str	r3, [r7, #16]
        temp |= ((GPIO_Init->Alternate) << ((position & 0x07u) * 4u));
 8001762:	683b      	ldr	r3, [r7, #0]
 8001764:	691a      	ldr	r2, [r3, #16]
 8001766:	697b      	ldr	r3, [r7, #20]
 8001768:	2107      	movs	r1, #7
 800176a:	400b      	ands	r3, r1
 800176c:	009b      	lsls	r3, r3, #2
 800176e:	409a      	lsls	r2, r3
 8001770:	0013      	movs	r3, r2
 8001772:	693a      	ldr	r2, [r7, #16]
 8001774:	4313      	orrs	r3, r2
 8001776:	613b      	str	r3, [r7, #16]
        GPIOx->AFR[position >> 3u] = temp;
 8001778:	697b      	ldr	r3, [r7, #20]
 800177a:	08da      	lsrs	r2, r3, #3
 800177c:	687b      	ldr	r3, [r7, #4]
 800177e:	3208      	adds	r2, #8
 8001780:	0092      	lsls	r2, r2, #2
 8001782:	6939      	ldr	r1, [r7, #16]
 8001784:	50d1      	str	r1, [r2, r3]
      }

      /* Configure IO Direction mode (Input, Output, Alternate or Analog) */
      temp = GPIOx->MODER;
 8001786:	687b      	ldr	r3, [r7, #4]
 8001788:	681b      	ldr	r3, [r3, #0]
 800178a:	613b      	str	r3, [r7, #16]
      temp &= ~(GPIO_MODER_MODER0 << (position * 2u));
 800178c:	697b      	ldr	r3, [r7, #20]
 800178e:	005b      	lsls	r3, r3, #1
 8001790:	2203      	movs	r2, #3
 8001792:	409a      	lsls	r2, r3
 8001794:	0013      	movs	r3, r2
 8001796:	43da      	mvns	r2, r3
 8001798:	693b      	ldr	r3, [r7, #16]
 800179a:	4013      	ands	r3, r2
 800179c:	613b      	str	r3, [r7, #16]
      temp |= ((GPIO_Init->Mode & GPIO_MODE) << (position * 2u));
 800179e:	683b      	ldr	r3, [r7, #0]
 80017a0:	685b      	ldr	r3, [r3, #4]
 80017a2:	2203      	movs	r2, #3
 80017a4:	401a      	ands	r2, r3
 80017a6:	697b      	ldr	r3, [r7, #20]
 80017a8:	005b      	lsls	r3, r3, #1
 80017aa:	409a      	lsls	r2, r3
 80017ac:	0013      	movs	r3, r2
 80017ae:	693a      	ldr	r2, [r7, #16]
 80017b0:	4313      	orrs	r3, r2
 80017b2:	613b      	str	r3, [r7, #16]
      GPIOx->MODER = temp;
 80017b4:	687b      	ldr	r3, [r7, #4]
 80017b6:	693a      	ldr	r2, [r7, #16]
 80017b8:	601a      	str	r2, [r3, #0]

      /*--------------------- EXTI Mode Configuration ------------------------*/
      /* Configure the External Interrupt or event for the current IO */
      if((GPIO_Init->Mode & EXTI_MODE) != 0x00u)
 80017ba:	683b      	ldr	r3, [r7, #0]
 80017bc:	685a      	ldr	r2, [r3, #4]
 80017be:	23c0      	movs	r3, #192	; 0xc0
 80017c0:	029b      	lsls	r3, r3, #10
 80017c2:	4013      	ands	r3, r2
 80017c4:	d100      	bne.n	80017c8 <HAL_GPIO_Init+0x174>
 80017c6:	e09a      	b.n	80018fe <HAL_GPIO_Init+0x2aa>
      {
        /* Enable SYSCFG Clock */
        __HAL_RCC_SYSCFG_CLK_ENABLE();
 80017c8:	4b54      	ldr	r3, [pc, #336]	; (800191c <HAL_GPIO_Init+0x2c8>)
 80017ca:	699a      	ldr	r2, [r3, #24]
 80017cc:	4b53      	ldr	r3, [pc, #332]	; (800191c <HAL_GPIO_Init+0x2c8>)
 80017ce:	2101      	movs	r1, #1
 80017d0:	430a      	orrs	r2, r1
 80017d2:	619a      	str	r2, [r3, #24]
 80017d4:	4b51      	ldr	r3, [pc, #324]	; (800191c <HAL_GPIO_Init+0x2c8>)
 80017d6:	699b      	ldr	r3, [r3, #24]
 80017d8:	2201      	movs	r2, #1
 80017da:	4013      	ands	r3, r2
 80017dc:	60bb      	str	r3, [r7, #8]
 80017de:	68bb      	ldr	r3, [r7, #8]

        temp = SYSCFG->EXTICR[position >> 2u];
 80017e0:	4a4f      	ldr	r2, [pc, #316]	; (8001920 <HAL_GPIO_Init+0x2cc>)
 80017e2:	697b      	ldr	r3, [r7, #20]
 80017e4:	089b      	lsrs	r3, r3, #2
 80017e6:	3302      	adds	r3, #2
 80017e8:	009b      	lsls	r3, r3, #2
 80017ea:	589b      	ldr	r3, [r3, r2]
 80017ec:	613b      	str	r3, [r7, #16]
        temp &= ~(0x0FuL << (4u * (position & 0x03u)));
 80017ee:	697b      	ldr	r3, [r7, #20]
 80017f0:	2203      	movs	r2, #3
 80017f2:	4013      	ands	r3, r2
 80017f4:	009b      	lsls	r3, r3, #2
 80017f6:	220f      	movs	r2, #15
 80017f8:	409a      	lsls	r2, r3
 80017fa:	0013      	movs	r3, r2
 80017fc:	43da      	mvns	r2, r3
 80017fe:	693b      	ldr	r3, [r7, #16]
 8001800:	4013      	ands	r3, r2
 8001802:	613b      	str	r3, [r7, #16]
        temp |= (GPIO_GET_INDEX(GPIOx) << (4u * (position & 0x03u)));
 8001804:	687a      	ldr	r2, [r7, #4]
 8001806:	2390      	movs	r3, #144	; 0x90
 8001808:	05db      	lsls	r3, r3, #23
 800180a:	429a      	cmp	r2, r3
 800180c:	d013      	beq.n	8001836 <HAL_GPIO_Init+0x1e2>
 800180e:	687b      	ldr	r3, [r7, #4]
 8001810:	4a44      	ldr	r2, [pc, #272]	; (8001924 <HAL_GPIO_Init+0x2d0>)
 8001812:	4293      	cmp	r3, r2
 8001814:	d00d      	beq.n	8001832 <HAL_GPIO_Init+0x1de>
 8001816:	687b      	ldr	r3, [r7, #4]
 8001818:	4a43      	ldr	r2, [pc, #268]	; (8001928 <HAL_GPIO_Init+0x2d4>)
 800181a:	4293      	cmp	r3, r2
 800181c:	d007      	beq.n	800182e <HAL_GPIO_Init+0x1da>
 800181e:	687b      	ldr	r3, [r7, #4]
 8001820:	4a42      	ldr	r2, [pc, #264]	; (800192c <HAL_GPIO_Init+0x2d8>)
 8001822:	4293      	cmp	r3, r2
 8001824:	d101      	bne.n	800182a <HAL_GPIO_Init+0x1d6>
 8001826:	2303      	movs	r3, #3
 8001828:	e006      	b.n	8001838 <HAL_GPIO_Init+0x1e4>
 800182a:	2305      	movs	r3, #5
 800182c:	e004      	b.n	8001838 <HAL_GPIO_Init+0x1e4>
 800182e:	2302      	movs	r3, #2
 8001830:	e002      	b.n	8001838 <HAL_GPIO_Init+0x1e4>
 8001832:	2301      	movs	r3, #1
 8001834:	e000      	b.n	8001838 <HAL_GPIO_Init+0x1e4>
 8001836:	2300      	movs	r3, #0
 8001838:	697a      	ldr	r2, [r7, #20]
 800183a:	2103      	movs	r1, #3
 800183c:	400a      	ands	r2, r1
 800183e:	0092      	lsls	r2, r2, #2
 8001840:	4093      	lsls	r3, r2
 8001842:	693a      	ldr	r2, [r7, #16]
 8001844:	4313      	orrs	r3, r2
 8001846:	613b      	str	r3, [r7, #16]
        SYSCFG->EXTICR[position >> 2u] = temp;
 8001848:	4935      	ldr	r1, [pc, #212]	; (8001920 <HAL_GPIO_Init+0x2cc>)
 800184a:	697b      	ldr	r3, [r7, #20]
 800184c:	089b      	lsrs	r3, r3, #2
 800184e:	3302      	adds	r3, #2
 8001850:	009b      	lsls	r3, r3, #2
 8001852:	693a      	ldr	r2, [r7, #16]
 8001854:	505a      	str	r2, [r3, r1]

        /* Clear EXTI line configuration */
        temp = EXTI->IMR;
 8001856:	4b36      	ldr	r3, [pc, #216]	; (8001930 <HAL_GPIO_Init+0x2dc>)
 8001858:	681b      	ldr	r3, [r3, #0]
 800185a:	613b      	str	r3, [r7, #16]
        temp &= ~(iocurrent);
 800185c:	68fb      	ldr	r3, [r7, #12]
 800185e:	43da      	mvns	r2, r3
 8001860:	693b      	ldr	r3, [r7, #16]
 8001862:	4013      	ands	r3, r2
 8001864:	613b      	str	r3, [r7, #16]
        if((GPIO_Init->Mode & EXTI_IT) != 0x00u)
 8001866:	683b      	ldr	r3, [r7, #0]
 8001868:	685a      	ldr	r2, [r3, #4]
 800186a:	2380      	movs	r3, #128	; 0x80
 800186c:	025b      	lsls	r3, r3, #9
 800186e:	4013      	ands	r3, r2
 8001870:	d003      	beq.n	800187a <HAL_GPIO_Init+0x226>
        {
          temp |= iocurrent;
 8001872:	693a      	ldr	r2, [r7, #16]
 8001874:	68fb      	ldr	r3, [r7, #12]
 8001876:	4313      	orrs	r3, r2
 8001878:	613b      	str	r3, [r7, #16]
        }
        EXTI->IMR = temp;
 800187a:	4b2d      	ldr	r3, [pc, #180]	; (8001930 <HAL_GPIO_Init+0x2dc>)
 800187c:	693a      	ldr	r2, [r7, #16]
 800187e:	601a      	str	r2, [r3, #0]

        temp = EXTI->EMR;
 8001880:	4b2b      	ldr	r3, [pc, #172]	; (8001930 <HAL_GPIO_Init+0x2dc>)
 8001882:	685b      	ldr	r3, [r3, #4]
 8001884:	613b      	str	r3, [r7, #16]
        temp &= ~(iocurrent);
 8001886:	68fb      	ldr	r3, [r7, #12]
 8001888:	43da      	mvns	r2, r3
 800188a:	693b      	ldr	r3, [r7, #16]
 800188c:	4013      	ands	r3, r2
 800188e:	613b      	str	r3, [r7, #16]
        if((GPIO_Init->Mode & EXTI_EVT) != 0x00u)
 8001890:	683b      	ldr	r3, [r7, #0]
 8001892:	685a      	ldr	r2, [r3, #4]
 8001894:	2380      	movs	r3, #128	; 0x80
 8001896:	029b      	lsls	r3, r3, #10
 8001898:	4013      	ands	r3, r2
 800189a:	d003      	beq.n	80018a4 <HAL_GPIO_Init+0x250>
        {
          temp |= iocurrent;
 800189c:	693a      	ldr	r2, [r7, #16]
 800189e:	68fb      	ldr	r3, [r7, #12]
 80018a0:	4313      	orrs	r3, r2
 80018a2:	613b      	str	r3, [r7, #16]
        }
        EXTI->EMR = temp;
 80018a4:	4b22      	ldr	r3, [pc, #136]	; (8001930 <HAL_GPIO_Init+0x2dc>)
 80018a6:	693a      	ldr	r2, [r7, #16]
 80018a8:	605a      	str	r2, [r3, #4]

        /* Clear Rising Falling edge configuration */
        temp = EXTI->RTSR;
 80018aa:	4b21      	ldr	r3, [pc, #132]	; (8001930 <HAL_GPIO_Init+0x2dc>)
 80018ac:	689b      	ldr	r3, [r3, #8]
 80018ae:	613b      	str	r3, [r7, #16]
        temp &= ~(iocurrent);
 80018b0:	68fb      	ldr	r3, [r7, #12]
 80018b2:	43da      	mvns	r2, r3
 80018b4:	693b      	ldr	r3, [r7, #16]
 80018b6:	4013      	ands	r3, r2
 80018b8:	613b      	str	r3, [r7, #16]
        if((GPIO_Init->Mode & TRIGGER_RISING) != 0x00u)
 80018ba:	683b      	ldr	r3, [r7, #0]
 80018bc:	685a      	ldr	r2, [r3, #4]
 80018be:	2380      	movs	r3, #128	; 0x80
 80018c0:	035b      	lsls	r3, r3, #13
 80018c2:	4013      	ands	r3, r2
 80018c4:	d003      	beq.n	80018ce <HAL_GPIO_Init+0x27a>
        {
          temp |= iocurrent;
 80018c6:	693a      	ldr	r2, [r7, #16]
 80018c8:	68fb      	ldr	r3, [r7, #12]
 80018ca:	4313      	orrs	r3, r2
 80018cc:	613b      	str	r3, [r7, #16]
        }
        EXTI->RTSR = temp;
 80018ce:	4b18      	ldr	r3, [pc, #96]	; (8001930 <HAL_GPIO_Init+0x2dc>)
 80018d0:	693a      	ldr	r2, [r7, #16]
 80018d2:	609a      	str	r2, [r3, #8]

        temp = EXTI->FTSR;
 80018d4:	4b16      	ldr	r3, [pc, #88]	; (8001930 <HAL_GPIO_Init+0x2dc>)
 80018d6:	68db      	ldr	r3, [r3, #12]
 80018d8:	613b      	str	r3, [r7, #16]
        temp &= ~(iocurrent);
 80018da:	68fb      	ldr	r3, [r7, #12]
 80018dc:	43da      	mvns	r2, r3
 80018de:	693b      	ldr	r3, [r7, #16]
 80018e0:	4013      	ands	r3, r2
 80018e2:	613b      	str	r3, [r7, #16]
        if((GPIO_Init->Mode & TRIGGER_FALLING) != 0x00u)
 80018e4:	683b      	ldr	r3, [r7, #0]
 80018e6:	685a      	ldr	r2, [r3, #4]
 80018e8:	2380      	movs	r3, #128	; 0x80
 80018ea:	039b      	lsls	r3, r3, #14
 80018ec:	4013      	ands	r3, r2
 80018ee:	d003      	beq.n	80018f8 <HAL_GPIO_Init+0x2a4>
        {
          temp |= iocurrent;
 80018f0:	693a      	ldr	r2, [r7, #16]
 80018f2:	68fb      	ldr	r3, [r7, #12]
 80018f4:	4313      	orrs	r3, r2
 80018f6:	613b      	str	r3, [r7, #16]
        }
        EXTI->FTSR = temp;
 80018f8:	4b0d      	ldr	r3, [pc, #52]	; (8001930 <HAL_GPIO_Init+0x2dc>)
 80018fa:	693a      	ldr	r2, [r7, #16]
 80018fc:	60da      	str	r2, [r3, #12]
      }
    }

    position++;
 80018fe:	697b      	ldr	r3, [r7, #20]
 8001900:	3301      	adds	r3, #1
 8001902:	617b      	str	r3, [r7, #20]
  while (((GPIO_Init->Pin) >> position) != 0x00u)
 8001904:	683b      	ldr	r3, [r7, #0]
 8001906:	681a      	ldr	r2, [r3, #0]
 8001908:	697b      	ldr	r3, [r7, #20]
 800190a:	40da      	lsrs	r2, r3
 800190c:	1e13      	subs	r3, r2, #0
 800190e:	d000      	beq.n	8001912 <HAL_GPIO_Init+0x2be>
 8001910:	e6a8      	b.n	8001664 <HAL_GPIO_Init+0x10>
  } 
}
 8001912:	46c0      	nop			; (mov r8, r8)
 8001914:	46c0      	nop			; (mov r8, r8)
 8001916:	46bd      	mov	sp, r7
 8001918:	b006      	add	sp, #24
 800191a:	bd80      	pop	{r7, pc}
 800191c:	40021000 	.word	0x40021000
 8001920:	40010000 	.word	0x40010000
 8001924:	48000400 	.word	0x48000400
 8001928:	48000800 	.word	0x48000800
 800192c:	48000c00 	.word	0x48000c00
 8001930:	40010400 	.word	0x40010400

08001934 <HAL_GPIO_WritePin>:
  *            @arg GPIO_PIN_RESET: to clear the port pin
  *            @arg GPIO_PIN_SET: to set the port pin
  * @retval None
  */
void HAL_GPIO_WritePin(GPIO_TypeDef* GPIOx, uint16_t GPIO_Pin, GPIO_PinState PinState)
{
 8001934:	b580      	push	{r7, lr}
 8001936:	b082      	sub	sp, #8
 8001938:	af00      	add	r7, sp, #0
 800193a:	6078      	str	r0, [r7, #4]
 800193c:	0008      	movs	r0, r1
 800193e:	0011      	movs	r1, r2
 8001940:	1cbb      	adds	r3, r7, #2
 8001942:	1c02      	adds	r2, r0, #0
 8001944:	801a      	strh	r2, [r3, #0]
 8001946:	1c7b      	adds	r3, r7, #1
 8001948:	1c0a      	adds	r2, r1, #0
 800194a:	701a      	strb	r2, [r3, #0]
  /* Check the parameters */
  assert_param(IS_GPIO_PIN(GPIO_Pin));
  assert_param(IS_GPIO_PIN_ACTION(PinState));

  if (PinState != GPIO_PIN_RESET)
 800194c:	1c7b      	adds	r3, r7, #1
 800194e:	781b      	ldrb	r3, [r3, #0]
 8001950:	2b00      	cmp	r3, #0
 8001952:	d004      	beq.n	800195e <HAL_GPIO_WritePin+0x2a>
  {
    GPIOx->BSRR = (uint32_t)GPIO_Pin;
 8001954:	1cbb      	adds	r3, r7, #2
 8001956:	881a      	ldrh	r2, [r3, #0]
 8001958:	687b      	ldr	r3, [r7, #4]
 800195a:	619a      	str	r2, [r3, #24]
  }
  else
  {
    GPIOx->BRR = (uint32_t)GPIO_Pin;
  }
}
 800195c:	e003      	b.n	8001966 <HAL_GPIO_WritePin+0x32>
    GPIOx->BRR = (uint32_t)GPIO_Pin;
 800195e:	1cbb      	adds	r3, r7, #2
 8001960:	881a      	ldrh	r2, [r3, #0]
 8001962:	687b      	ldr	r3, [r7, #4]
 8001964:	629a      	str	r2, [r3, #40]	; 0x28
}
 8001966:	46c0      	nop			; (mov r8, r8)
 8001968:	46bd      	mov	sp, r7
 800196a:	b002      	add	sp, #8
 800196c:	bd80      	pop	{r7, pc}

0800196e <HAL_GPIO_TogglePin>:
  * @param  GPIOx where x can be (A..F) to select the GPIO peripheral for STM32F0 family
  * @param  GPIO_Pin specifies the pin to be toggled.
  * @retval None
  */
void HAL_GPIO_TogglePin(GPIO_TypeDef* GPIOx, uint16_t GPIO_Pin)
{
 800196e:	b580      	push	{r7, lr}
 8001970:	b084      	sub	sp, #16
 8001972:	af00      	add	r7, sp, #0
 8001974:	6078      	str	r0, [r7, #4]
 8001976:	000a      	movs	r2, r1
 8001978:	1cbb      	adds	r3, r7, #2
 800197a:	801a      	strh	r2, [r3, #0]

  /* Check the parameters */
  assert_param(IS_GPIO_PIN(GPIO_Pin));

  /* get current Ouput Data Register value */
  odr = GPIOx->ODR;
 800197c:	687b      	ldr	r3, [r7, #4]
 800197e:	695b      	ldr	r3, [r3, #20]
 8001980:	60fb      	str	r3, [r7, #12]

  /* Set selected pins that were at low level, and reset ones that were high */
  GPIOx->BSRR = ((odr & GPIO_Pin) << GPIO_NUMBER) | (~odr & GPIO_Pin);
 8001982:	1cbb      	adds	r3, r7, #2
 8001984:	881b      	ldrh	r3, [r3, #0]
 8001986:	68fa      	ldr	r2, [r7, #12]
 8001988:	4013      	ands	r3, r2
 800198a:	041a      	lsls	r2, r3, #16
 800198c:	68fb      	ldr	r3, [r7, #12]
 800198e:	43db      	mvns	r3, r3
 8001990:	1cb9      	adds	r1, r7, #2
 8001992:	8809      	ldrh	r1, [r1, #0]
 8001994:	400b      	ands	r3, r1
 8001996:	431a      	orrs	r2, r3
 8001998:	687b      	ldr	r3, [r7, #4]
 800199a:	619a      	str	r2, [r3, #24]
}
 800199c:	46c0      	nop			; (mov r8, r8)
 800199e:	46bd      	mov	sp, r7
 80019a0:	b004      	add	sp, #16
 80019a2:	bd80      	pop	{r7, pc}

080019a4 <HAL_I2C_Init>:
  * @param  hi2c Pointer to a I2C_HandleTypeDef structure that contains
  *                the configuration information for the specified I2C.
  * @retval HAL status
  */
HAL_StatusTypeDef HAL_I2C_Init(I2C_HandleTypeDef *hi2c)
{
 80019a4:	b580      	push	{r7, lr}
 80019a6:	b082      	sub	sp, #8
 80019a8:	af00      	add	r7, sp, #0
 80019aa:	6078      	str	r0, [r7, #4]
  /* Check the I2C handle allocation */
  if (hi2c == NULL)
 80019ac:	687b      	ldr	r3, [r7, #4]
 80019ae:	2b00      	cmp	r3, #0
 80019b0:	d101      	bne.n	80019b6 <HAL_I2C_Init+0x12>
  {
    return HAL_ERROR;
 80019b2:	2301      	movs	r3, #1
 80019b4:	e082      	b.n	8001abc <HAL_I2C_Init+0x118>
  assert_param(IS_I2C_OWN_ADDRESS2(hi2c->Init.OwnAddress2));
  assert_param(IS_I2C_OWN_ADDRESS2_MASK(hi2c->Init.OwnAddress2Masks));
  assert_param(IS_I2C_GENERAL_CALL(hi2c->Init.GeneralCallMode));
  assert_param(IS_I2C_NO_STRETCH(hi2c->Init.NoStretchMode));

  if (hi2c->State == HAL_I2C_STATE_RESET)
 80019b6:	687b      	ldr	r3, [r7, #4]
 80019b8:	2241      	movs	r2, #65	; 0x41
 80019ba:	5c9b      	ldrb	r3, [r3, r2]
 80019bc:	b2db      	uxtb	r3, r3
 80019be:	2b00      	cmp	r3, #0
 80019c0:	d107      	bne.n	80019d2 <HAL_I2C_Init+0x2e>
  {
    /* Allocate lock resource and initialize it */
    hi2c->Lock = HAL_UNLOCKED;
 80019c2:	687b      	ldr	r3, [r7, #4]
 80019c4:	2240      	movs	r2, #64	; 0x40
 80019c6:	2100      	movs	r1, #0
 80019c8:	5499      	strb	r1, [r3, r2]

    /* Init the low level hardware : GPIO, CLOCK, CORTEX...etc */
    hi2c->MspInitCallback(hi2c);
#else
    /* Init the low level hardware : GPIO, CLOCK, CORTEX...etc */
    HAL_I2C_MspInit(hi2c);
 80019ca:	687b      	ldr	r3, [r7, #4]
 80019cc:	0018      	movs	r0, r3
 80019ce:	f7ff fa19 	bl	8000e04 <HAL_I2C_MspInit>
#endif /* USE_HAL_I2C_REGISTER_CALLBACKS */
  }

  hi2c->State = HAL_I2C_STATE_BUSY;
 80019d2:	687b      	ldr	r3, [r7, #4]
 80019d4:	2241      	movs	r2, #65	; 0x41
 80019d6:	2124      	movs	r1, #36	; 0x24
 80019d8:	5499      	strb	r1, [r3, r2]

  /* Disable the selected I2C peripheral */
  __HAL_I2C_DISABLE(hi2c);
 80019da:	687b      	ldr	r3, [r7, #4]
 80019dc:	681b      	ldr	r3, [r3, #0]
 80019de:	681a      	ldr	r2, [r3, #0]
 80019e0:	687b      	ldr	r3, [r7, #4]
 80019e2:	681b      	ldr	r3, [r3, #0]
 80019e4:	2101      	movs	r1, #1
 80019e6:	438a      	bics	r2, r1
 80019e8:	601a      	str	r2, [r3, #0]

  /*---------------------------- I2Cx TIMINGR Configuration ------------------*/
  /* Configure I2Cx: Frequency range */
  hi2c->Instance->TIMINGR = hi2c->Init.Timing & TIMING_CLEAR_MASK;
 80019ea:	687b      	ldr	r3, [r7, #4]
 80019ec:	685a      	ldr	r2, [r3, #4]
 80019ee:	687b      	ldr	r3, [r7, #4]
 80019f0:	681b      	ldr	r3, [r3, #0]
 80019f2:	4934      	ldr	r1, [pc, #208]	; (8001ac4 <HAL_I2C_Init+0x120>)
 80019f4:	400a      	ands	r2, r1
 80019f6:	611a      	str	r2, [r3, #16]

  /*---------------------------- I2Cx OAR1 Configuration ---------------------*/
  /* Disable Own Address1 before set the Own Address1 configuration */
  hi2c->Instance->OAR1 &= ~I2C_OAR1_OA1EN;
 80019f8:	687b      	ldr	r3, [r7, #4]
 80019fa:	681b      	ldr	r3, [r3, #0]
 80019fc:	689a      	ldr	r2, [r3, #8]
 80019fe:	687b      	ldr	r3, [r7, #4]
 8001a00:	681b      	ldr	r3, [r3, #0]
 8001a02:	4931      	ldr	r1, [pc, #196]	; (8001ac8 <HAL_I2C_Init+0x124>)
 8001a04:	400a      	ands	r2, r1
 8001a06:	609a      	str	r2, [r3, #8]

  /* Configure I2Cx: Own Address1 and ack own address1 mode */
  if (hi2c->Init.AddressingMode == I2C_ADDRESSINGMODE_7BIT)
 8001a08:	687b      	ldr	r3, [r7, #4]
 8001a0a:	68db      	ldr	r3, [r3, #12]
 8001a0c:	2b01      	cmp	r3, #1
 8001a0e:	d108      	bne.n	8001a22 <HAL_I2C_Init+0x7e>
  {
    hi2c->Instance->OAR1 = (I2C_OAR1_OA1EN | hi2c->Init.OwnAddress1);
 8001a10:	687b      	ldr	r3, [r7, #4]
 8001a12:	689a      	ldr	r2, [r3, #8]
 8001a14:	687b      	ldr	r3, [r7, #4]
 8001a16:	681b      	ldr	r3, [r3, #0]
 8001a18:	2180      	movs	r1, #128	; 0x80
 8001a1a:	0209      	lsls	r1, r1, #8
 8001a1c:	430a      	orrs	r2, r1
 8001a1e:	609a      	str	r2, [r3, #8]
 8001a20:	e007      	b.n	8001a32 <HAL_I2C_Init+0x8e>
  }
  else /* I2C_ADDRESSINGMODE_10BIT */
  {
    hi2c->Instance->OAR1 = (I2C_OAR1_OA1EN | I2C_OAR1_OA1MODE | hi2c->Init.OwnAddress1);
 8001a22:	687b      	ldr	r3, [r7, #4]
 8001a24:	689a      	ldr	r2, [r3, #8]
 8001a26:	687b      	ldr	r3, [r7, #4]
 8001a28:	681b      	ldr	r3, [r3, #0]
 8001a2a:	2184      	movs	r1, #132	; 0x84
 8001a2c:	0209      	lsls	r1, r1, #8
 8001a2e:	430a      	orrs	r2, r1
 8001a30:	609a      	str	r2, [r3, #8]
  }

  /*---------------------------- I2Cx CR2 Configuration ----------------------*/
  /* Configure I2Cx: Addressing Master mode */
  if (hi2c->Init.AddressingMode == I2C_ADDRESSINGMODE_10BIT)
 8001a32:	687b      	ldr	r3, [r7, #4]
 8001a34:	68db      	ldr	r3, [r3, #12]
 8001a36:	2b02      	cmp	r3, #2
 8001a38:	d104      	bne.n	8001a44 <HAL_I2C_Init+0xa0>
  {
    hi2c->Instance->CR2 = (I2C_CR2_ADD10);
 8001a3a:	687b      	ldr	r3, [r7, #4]
 8001a3c:	681b      	ldr	r3, [r3, #0]
 8001a3e:	2280      	movs	r2, #128	; 0x80
 8001a40:	0112      	lsls	r2, r2, #4
 8001a42:	605a      	str	r2, [r3, #4]
  }
  /* Enable the AUTOEND by default, and enable NACK (should be disable only during Slave process */
  hi2c->Instance->CR2 |= (I2C_CR2_AUTOEND | I2C_CR2_NACK);
 8001a44:	687b      	ldr	r3, [r7, #4]
 8001a46:	681b      	ldr	r3, [r3, #0]
 8001a48:	685a      	ldr	r2, [r3, #4]
 8001a4a:	687b      	ldr	r3, [r7, #4]
 8001a4c:	681b      	ldr	r3, [r3, #0]
 8001a4e:	491f      	ldr	r1, [pc, #124]	; (8001acc <HAL_I2C_Init+0x128>)
 8001a50:	430a      	orrs	r2, r1
 8001a52:	605a      	str	r2, [r3, #4]

  /*---------------------------- I2Cx OAR2 Configuration ---------------------*/
  /* Disable Own Address2 before set the Own Address2 configuration */
  hi2c->Instance->OAR2 &= ~I2C_DUALADDRESS_ENABLE;
 8001a54:	687b      	ldr	r3, [r7, #4]
 8001a56:	681b      	ldr	r3, [r3, #0]
 8001a58:	68da      	ldr	r2, [r3, #12]
 8001a5a:	687b      	ldr	r3, [r7, #4]
 8001a5c:	681b      	ldr	r3, [r3, #0]
 8001a5e:	491a      	ldr	r1, [pc, #104]	; (8001ac8 <HAL_I2C_Init+0x124>)
 8001a60:	400a      	ands	r2, r1
 8001a62:	60da      	str	r2, [r3, #12]

  /* Configure I2Cx: Dual mode and Own Address2 */
  hi2c->Instance->OAR2 = (hi2c->Init.DualAddressMode | hi2c->Init.OwnAddress2 | \
 8001a64:	687b      	ldr	r3, [r7, #4]
 8001a66:	691a      	ldr	r2, [r3, #16]
 8001a68:	687b      	ldr	r3, [r7, #4]
 8001a6a:	695b      	ldr	r3, [r3, #20]
 8001a6c:	431a      	orrs	r2, r3
 8001a6e:	0011      	movs	r1, r2
                          (hi2c->Init.OwnAddress2Masks << 8));
 8001a70:	687b      	ldr	r3, [r7, #4]
 8001a72:	699b      	ldr	r3, [r3, #24]
 8001a74:	021a      	lsls	r2, r3, #8
  hi2c->Instance->OAR2 = (hi2c->Init.DualAddressMode | hi2c->Init.OwnAddress2 | \
 8001a76:	687b      	ldr	r3, [r7, #4]
 8001a78:	681b      	ldr	r3, [r3, #0]
 8001a7a:	430a      	orrs	r2, r1
 8001a7c:	60da      	str	r2, [r3, #12]

  /*---------------------------- I2Cx CR1 Configuration ----------------------*/
  /* Configure I2Cx: Generalcall and NoStretch mode */
  hi2c->Instance->CR1 = (hi2c->Init.GeneralCallMode | hi2c->Init.NoStretchMode);
 8001a7e:	687b      	ldr	r3, [r7, #4]
 8001a80:	69d9      	ldr	r1, [r3, #28]
 8001a82:	687b      	ldr	r3, [r7, #4]
 8001a84:	6a1a      	ldr	r2, [r3, #32]
 8001a86:	687b      	ldr	r3, [r7, #4]
 8001a88:	681b      	ldr	r3, [r3, #0]
 8001a8a:	430a      	orrs	r2, r1
 8001a8c:	601a      	str	r2, [r3, #0]

  /* Enable the selected I2C peripheral */
  __HAL_I2C_ENABLE(hi2c);
 8001a8e:	687b      	ldr	r3, [r7, #4]
 8001a90:	681b      	ldr	r3, [r3, #0]
 8001a92:	681a      	ldr	r2, [r3, #0]
 8001a94:	687b      	ldr	r3, [r7, #4]
 8001a96:	681b      	ldr	r3, [r3, #0]
 8001a98:	2101      	movs	r1, #1
 8001a9a:	430a      	orrs	r2, r1
 8001a9c:	601a      	str	r2, [r3, #0]

  hi2c->ErrorCode = HAL_I2C_ERROR_NONE;
 8001a9e:	687b      	ldr	r3, [r7, #4]
 8001aa0:	2200      	movs	r2, #0
 8001aa2:	645a      	str	r2, [r3, #68]	; 0x44
  hi2c->State = HAL_I2C_STATE_READY;
 8001aa4:	687b      	ldr	r3, [r7, #4]
 8001aa6:	2241      	movs	r2, #65	; 0x41
 8001aa8:	2120      	movs	r1, #32
 8001aaa:	5499      	strb	r1, [r3, r2]
  hi2c->PreviousState = I2C_STATE_NONE;
 8001aac:	687b      	ldr	r3, [r7, #4]
 8001aae:	2200      	movs	r2, #0
 8001ab0:	631a      	str	r2, [r3, #48]	; 0x30
  hi2c->Mode = HAL_I2C_MODE_NONE;
 8001ab2:	687b      	ldr	r3, [r7, #4]
 8001ab4:	2242      	movs	r2, #66	; 0x42
 8001ab6:	2100      	movs	r1, #0
 8001ab8:	5499      	strb	r1, [r3, r2]

  return HAL_OK;
 8001aba:	2300      	movs	r3, #0
}
 8001abc:	0018      	movs	r0, r3
 8001abe:	46bd      	mov	sp, r7
 8001ac0:	b002      	add	sp, #8
 8001ac2:	bd80      	pop	{r7, pc}
 8001ac4:	f0ffffff 	.word	0xf0ffffff
 8001ac8:	ffff7fff 	.word	0xffff7fff
 8001acc:	02008000 	.word	0x02008000

08001ad0 <HAL_I2C_Mem_Write>:
  * @param  Timeout Timeout duration
  * @retval HAL status
  */
HAL_StatusTypeDef HAL_I2C_Mem_Write(I2C_HandleTypeDef *hi2c, uint16_t DevAddress, uint16_t MemAddress,
                                    uint16_t MemAddSize, uint8_t *pData, uint16_t Size, uint32_t Timeout)
{
 8001ad0:	b590      	push	{r4, r7, lr}
 8001ad2:	b089      	sub	sp, #36	; 0x24
 8001ad4:	af02      	add	r7, sp, #8
 8001ad6:	60f8      	str	r0, [r7, #12]
 8001ad8:	000c      	movs	r4, r1
 8001ada:	0010      	movs	r0, r2
 8001adc:	0019      	movs	r1, r3
 8001ade:	230a      	movs	r3, #10
 8001ae0:	18fb      	adds	r3, r7, r3
 8001ae2:	1c22      	adds	r2, r4, #0
 8001ae4:	801a      	strh	r2, [r3, #0]
 8001ae6:	2308      	movs	r3, #8
 8001ae8:	18fb      	adds	r3, r7, r3
 8001aea:	1c02      	adds	r2, r0, #0
 8001aec:	801a      	strh	r2, [r3, #0]
 8001aee:	1dbb      	adds	r3, r7, #6
 8001af0:	1c0a      	adds	r2, r1, #0
 8001af2:	801a      	strh	r2, [r3, #0]
  uint32_t tickstart;

  /* Check the parameters */
  assert_param(IS_I2C_MEMADD_SIZE(MemAddSize));

  if (hi2c->State == HAL_I2C_STATE_READY)
 8001af4:	68fb      	ldr	r3, [r7, #12]
 8001af6:	2241      	movs	r2, #65	; 0x41
 8001af8:	5c9b      	ldrb	r3, [r3, r2]
 8001afa:	b2db      	uxtb	r3, r3
 8001afc:	2b20      	cmp	r3, #32
 8001afe:	d000      	beq.n	8001b02 <HAL_I2C_Mem_Write+0x32>
 8001b00:	e10c      	b.n	8001d1c <HAL_I2C_Mem_Write+0x24c>
  {
    if ((pData == NULL) || (Size == 0U))
 8001b02:	6abb      	ldr	r3, [r7, #40]	; 0x28
 8001b04:	2b00      	cmp	r3, #0
 8001b06:	d004      	beq.n	8001b12 <HAL_I2C_Mem_Write+0x42>
 8001b08:	232c      	movs	r3, #44	; 0x2c
 8001b0a:	18fb      	adds	r3, r7, r3
 8001b0c:	881b      	ldrh	r3, [r3, #0]
 8001b0e:	2b00      	cmp	r3, #0
 8001b10:	d105      	bne.n	8001b1e <HAL_I2C_Mem_Write+0x4e>
    {
      hi2c->ErrorCode = HAL_I2C_ERROR_INVALID_PARAM;
 8001b12:	68fb      	ldr	r3, [r7, #12]
 8001b14:	2280      	movs	r2, #128	; 0x80
 8001b16:	0092      	lsls	r2, r2, #2
 8001b18:	645a      	str	r2, [r3, #68]	; 0x44
      return  HAL_ERROR;
 8001b1a:	2301      	movs	r3, #1
 8001b1c:	e0ff      	b.n	8001d1e <HAL_I2C_Mem_Write+0x24e>
    }

    /* Process Locked */
    __HAL_LOCK(hi2c);
 8001b1e:	68fb      	ldr	r3, [r7, #12]
 8001b20:	2240      	movs	r2, #64	; 0x40
 8001b22:	5c9b      	ldrb	r3, [r3, r2]
 8001b24:	2b01      	cmp	r3, #1
 8001b26:	d101      	bne.n	8001b2c <HAL_I2C_Mem_Write+0x5c>
 8001b28:	2302      	movs	r3, #2
 8001b2a:	e0f8      	b.n	8001d1e <HAL_I2C_Mem_Write+0x24e>
 8001b2c:	68fb      	ldr	r3, [r7, #12]
 8001b2e:	2240      	movs	r2, #64	; 0x40
 8001b30:	2101      	movs	r1, #1
 8001b32:	5499      	strb	r1, [r3, r2]

    /* Init tickstart for timeout management*/
    tickstart = HAL_GetTick();
 8001b34:	f7ff fb22 	bl	800117c <HAL_GetTick>
 8001b38:	0003      	movs	r3, r0
 8001b3a:	617b      	str	r3, [r7, #20]

    if (I2C_WaitOnFlagUntilTimeout(hi2c, I2C_FLAG_BUSY, SET, I2C_TIMEOUT_BUSY, tickstart) != HAL_OK)
 8001b3c:	2380      	movs	r3, #128	; 0x80
 8001b3e:	0219      	lsls	r1, r3, #8
 8001b40:	68f8      	ldr	r0, [r7, #12]
 8001b42:	697b      	ldr	r3, [r7, #20]
 8001b44:	9300      	str	r3, [sp, #0]
 8001b46:	2319      	movs	r3, #25
 8001b48:	2201      	movs	r2, #1
 8001b4a:	f000 fb0b 	bl	8002164 <I2C_WaitOnFlagUntilTimeout>
 8001b4e:	1e03      	subs	r3, r0, #0
 8001b50:	d001      	beq.n	8001b56 <HAL_I2C_Mem_Write+0x86>
    {
      return HAL_ERROR;
 8001b52:	2301      	movs	r3, #1
 8001b54:	e0e3      	b.n	8001d1e <HAL_I2C_Mem_Write+0x24e>
    }

    hi2c->State     = HAL_I2C_STATE_BUSY_TX;
 8001b56:	68fb      	ldr	r3, [r7, #12]
 8001b58:	2241      	movs	r2, #65	; 0x41
 8001b5a:	2121      	movs	r1, #33	; 0x21
 8001b5c:	5499      	strb	r1, [r3, r2]
    hi2c->Mode      = HAL_I2C_MODE_MEM;
 8001b5e:	68fb      	ldr	r3, [r7, #12]
 8001b60:	2242      	movs	r2, #66	; 0x42
 8001b62:	2140      	movs	r1, #64	; 0x40
 8001b64:	5499      	strb	r1, [r3, r2]
    hi2c->ErrorCode = HAL_I2C_ERROR_NONE;
 8001b66:	68fb      	ldr	r3, [r7, #12]
 8001b68:	2200      	movs	r2, #0
 8001b6a:	645a      	str	r2, [r3, #68]	; 0x44

    /* Prepare transfer parameters */
    hi2c->pBuffPtr  = pData;
 8001b6c:	68fb      	ldr	r3, [r7, #12]
 8001b6e:	6aba      	ldr	r2, [r7, #40]	; 0x28
 8001b70:	625a      	str	r2, [r3, #36]	; 0x24
    hi2c->XferCount = Size;
 8001b72:	68fb      	ldr	r3, [r7, #12]
 8001b74:	222c      	movs	r2, #44	; 0x2c
 8001b76:	18ba      	adds	r2, r7, r2
 8001b78:	8812      	ldrh	r2, [r2, #0]
 8001b7a:	855a      	strh	r2, [r3, #42]	; 0x2a
    hi2c->XferISR   = NULL;
 8001b7c:	68fb      	ldr	r3, [r7, #12]
 8001b7e:	2200      	movs	r2, #0
 8001b80:	635a      	str	r2, [r3, #52]	; 0x34

    /* Send Slave Address and Memory Address */
    if (I2C_RequestMemoryWrite(hi2c, DevAddress, MemAddress, MemAddSize, Timeout, tickstart) != HAL_OK)
 8001b82:	1dbb      	adds	r3, r7, #6
 8001b84:	881c      	ldrh	r4, [r3, #0]
 8001b86:	2308      	movs	r3, #8
 8001b88:	18fb      	adds	r3, r7, r3
 8001b8a:	881a      	ldrh	r2, [r3, #0]
 8001b8c:	230a      	movs	r3, #10
 8001b8e:	18fb      	adds	r3, r7, r3
 8001b90:	8819      	ldrh	r1, [r3, #0]
 8001b92:	68f8      	ldr	r0, [r7, #12]
 8001b94:	697b      	ldr	r3, [r7, #20]
 8001b96:	9301      	str	r3, [sp, #4]
 8001b98:	6b3b      	ldr	r3, [r7, #48]	; 0x30
 8001b9a:	9300      	str	r3, [sp, #0]
 8001b9c:	0023      	movs	r3, r4
 8001b9e:	f000 f9f9 	bl	8001f94 <I2C_RequestMemoryWrite>
 8001ba2:	1e03      	subs	r3, r0, #0
 8001ba4:	d005      	beq.n	8001bb2 <HAL_I2C_Mem_Write+0xe2>
    {
      /* Process Unlocked */
      __HAL_UNLOCK(hi2c);
 8001ba6:	68fb      	ldr	r3, [r7, #12]
 8001ba8:	2240      	movs	r2, #64	; 0x40
 8001baa:	2100      	movs	r1, #0
 8001bac:	5499      	strb	r1, [r3, r2]
      return HAL_ERROR;
 8001bae:	2301      	movs	r3, #1
 8001bb0:	e0b5      	b.n	8001d1e <HAL_I2C_Mem_Write+0x24e>
    }

    /* Set NBYTES to write and reload if hi2c->XferCount > MAX_NBYTE_SIZE */
    if (hi2c->XferCount > MAX_NBYTE_SIZE)
 8001bb2:	68fb      	ldr	r3, [r7, #12]
 8001bb4:	8d5b      	ldrh	r3, [r3, #42]	; 0x2a
 8001bb6:	b29b      	uxth	r3, r3
 8001bb8:	2bff      	cmp	r3, #255	; 0xff
 8001bba:	d911      	bls.n	8001be0 <HAL_I2C_Mem_Write+0x110>
    {
      hi2c->XferSize = MAX_NBYTE_SIZE;
 8001bbc:	68fb      	ldr	r3, [r7, #12]
 8001bbe:	22ff      	movs	r2, #255	; 0xff
 8001bc0:	851a      	strh	r2, [r3, #40]	; 0x28
      I2C_TransferConfig(hi2c, DevAddress, (uint8_t)hi2c->XferSize, I2C_RELOAD_MODE, I2C_NO_STARTSTOP);
 8001bc2:	68fb      	ldr	r3, [r7, #12]
 8001bc4:	8d1b      	ldrh	r3, [r3, #40]	; 0x28
 8001bc6:	b2da      	uxtb	r2, r3
 8001bc8:	2380      	movs	r3, #128	; 0x80
 8001bca:	045c      	lsls	r4, r3, #17
 8001bcc:	230a      	movs	r3, #10
 8001bce:	18fb      	adds	r3, r7, r3
 8001bd0:	8819      	ldrh	r1, [r3, #0]
 8001bd2:	68f8      	ldr	r0, [r7, #12]
 8001bd4:	2300      	movs	r3, #0
 8001bd6:	9300      	str	r3, [sp, #0]
 8001bd8:	0023      	movs	r3, r4
 8001bda:	f000 fbf7 	bl	80023cc <I2C_TransferConfig>
 8001bde:	e012      	b.n	8001c06 <HAL_I2C_Mem_Write+0x136>
    }
    else
    {
      hi2c->XferSize = hi2c->XferCount;
 8001be0:	68fb      	ldr	r3, [r7, #12]
 8001be2:	8d5b      	ldrh	r3, [r3, #42]	; 0x2a
 8001be4:	b29a      	uxth	r2, r3
 8001be6:	68fb      	ldr	r3, [r7, #12]
 8001be8:	851a      	strh	r2, [r3, #40]	; 0x28
      I2C_TransferConfig(hi2c, DevAddress, (uint8_t)hi2c->XferSize, I2C_AUTOEND_MODE, I2C_NO_STARTSTOP);
 8001bea:	68fb      	ldr	r3, [r7, #12]
 8001bec:	8d1b      	ldrh	r3, [r3, #40]	; 0x28
 8001bee:	b2da      	uxtb	r2, r3
 8001bf0:	2380      	movs	r3, #128	; 0x80
 8001bf2:	049c      	lsls	r4, r3, #18
 8001bf4:	230a      	movs	r3, #10
 8001bf6:	18fb      	adds	r3, r7, r3
 8001bf8:	8819      	ldrh	r1, [r3, #0]
 8001bfa:	68f8      	ldr	r0, [r7, #12]
 8001bfc:	2300      	movs	r3, #0
 8001bfe:	9300      	str	r3, [sp, #0]
 8001c00:	0023      	movs	r3, r4
 8001c02:	f000 fbe3 	bl	80023cc <I2C_TransferConfig>
    }

    do
    {
      /* Wait until TXIS flag is set */
      if (I2C_WaitOnTXISFlagUntilTimeout(hi2c, Timeout, tickstart) != HAL_OK)
 8001c06:	697a      	ldr	r2, [r7, #20]
 8001c08:	6b39      	ldr	r1, [r7, #48]	; 0x30
 8001c0a:	68fb      	ldr	r3, [r7, #12]
 8001c0c:	0018      	movs	r0, r3
 8001c0e:	f000 fae8 	bl	80021e2 <I2C_WaitOnTXISFlagUntilTimeout>
 8001c12:	1e03      	subs	r3, r0, #0
 8001c14:	d001      	beq.n	8001c1a <HAL_I2C_Mem_Write+0x14a>
      {
        return HAL_ERROR;
 8001c16:	2301      	movs	r3, #1
 8001c18:	e081      	b.n	8001d1e <HAL_I2C_Mem_Write+0x24e>
      }

      /* Write data to TXDR */
      hi2c->Instance->TXDR = *hi2c->pBuffPtr;
 8001c1a:	68fb      	ldr	r3, [r7, #12]
 8001c1c:	6a5b      	ldr	r3, [r3, #36]	; 0x24
 8001c1e:	781a      	ldrb	r2, [r3, #0]
 8001c20:	68fb      	ldr	r3, [r7, #12]
 8001c22:	681b      	ldr	r3, [r3, #0]
 8001c24:	629a      	str	r2, [r3, #40]	; 0x28

      /* Increment Buffer pointer */
      hi2c->pBuffPtr++;
 8001c26:	68fb      	ldr	r3, [r7, #12]
 8001c28:	6a5b      	ldr	r3, [r3, #36]	; 0x24
 8001c2a:	1c5a      	adds	r2, r3, #1
 8001c2c:	68fb      	ldr	r3, [r7, #12]
 8001c2e:	625a      	str	r2, [r3, #36]	; 0x24

      hi2c->XferCount--;
 8001c30:	68fb      	ldr	r3, [r7, #12]
 8001c32:	8d5b      	ldrh	r3, [r3, #42]	; 0x2a
 8001c34:	b29b      	uxth	r3, r3
 8001c36:	3b01      	subs	r3, #1
 8001c38:	b29a      	uxth	r2, r3
 8001c3a:	68fb      	ldr	r3, [r7, #12]
 8001c3c:	855a      	strh	r2, [r3, #42]	; 0x2a
      hi2c->XferSize--;
 8001c3e:	68fb      	ldr	r3, [r7, #12]
 8001c40:	8d1b      	ldrh	r3, [r3, #40]	; 0x28
 8001c42:	3b01      	subs	r3, #1
 8001c44:	b29a      	uxth	r2, r3
 8001c46:	68fb      	ldr	r3, [r7, #12]
 8001c48:	851a      	strh	r2, [r3, #40]	; 0x28

      if ((hi2c->XferCount != 0U) && (hi2c->XferSize == 0U))
 8001c4a:	68fb      	ldr	r3, [r7, #12]
 8001c4c:	8d5b      	ldrh	r3, [r3, #42]	; 0x2a
 8001c4e:	b29b      	uxth	r3, r3
 8001c50:	2b00      	cmp	r3, #0
 8001c52:	d03a      	beq.n	8001cca <HAL_I2C_Mem_Write+0x1fa>
 8001c54:	68fb      	ldr	r3, [r7, #12]
 8001c56:	8d1b      	ldrh	r3, [r3, #40]	; 0x28
 8001c58:	2b00      	cmp	r3, #0
 8001c5a:	d136      	bne.n	8001cca <HAL_I2C_Mem_Write+0x1fa>
      {
        /* Wait until TCR flag is set */
        if (I2C_WaitOnFlagUntilTimeout(hi2c, I2C_FLAG_TCR, RESET, Timeout, tickstart) != HAL_OK)
 8001c5c:	6b3a      	ldr	r2, [r7, #48]	; 0x30
 8001c5e:	68f8      	ldr	r0, [r7, #12]
 8001c60:	697b      	ldr	r3, [r7, #20]
 8001c62:	9300      	str	r3, [sp, #0]
 8001c64:	0013      	movs	r3, r2
 8001c66:	2200      	movs	r2, #0
 8001c68:	2180      	movs	r1, #128	; 0x80
 8001c6a:	f000 fa7b 	bl	8002164 <I2C_WaitOnFlagUntilTimeout>
 8001c6e:	1e03      	subs	r3, r0, #0
 8001c70:	d001      	beq.n	8001c76 <HAL_I2C_Mem_Write+0x1a6>
        {
          return HAL_ERROR;
 8001c72:	2301      	movs	r3, #1
 8001c74:	e053      	b.n	8001d1e <HAL_I2C_Mem_Write+0x24e>
        }

        if (hi2c->XferCount > MAX_NBYTE_SIZE)
 8001c76:	68fb      	ldr	r3, [r7, #12]
 8001c78:	8d5b      	ldrh	r3, [r3, #42]	; 0x2a
 8001c7a:	b29b      	uxth	r3, r3
 8001c7c:	2bff      	cmp	r3, #255	; 0xff
 8001c7e:	d911      	bls.n	8001ca4 <HAL_I2C_Mem_Write+0x1d4>
        {
          hi2c->XferSize = MAX_NBYTE_SIZE;
 8001c80:	68fb      	ldr	r3, [r7, #12]
 8001c82:	22ff      	movs	r2, #255	; 0xff
 8001c84:	851a      	strh	r2, [r3, #40]	; 0x28
          I2C_TransferConfig(hi2c, DevAddress, (uint8_t)hi2c->XferSize, I2C_RELOAD_MODE,
 8001c86:	68fb      	ldr	r3, [r7, #12]
 8001c88:	8d1b      	ldrh	r3, [r3, #40]	; 0x28
 8001c8a:	b2da      	uxtb	r2, r3
 8001c8c:	2380      	movs	r3, #128	; 0x80
 8001c8e:	045c      	lsls	r4, r3, #17
 8001c90:	230a      	movs	r3, #10
 8001c92:	18fb      	adds	r3, r7, r3
 8001c94:	8819      	ldrh	r1, [r3, #0]
 8001c96:	68f8      	ldr	r0, [r7, #12]
 8001c98:	2300      	movs	r3, #0
 8001c9a:	9300      	str	r3, [sp, #0]
 8001c9c:	0023      	movs	r3, r4
 8001c9e:	f000 fb95 	bl	80023cc <I2C_TransferConfig>
 8001ca2:	e012      	b.n	8001cca <HAL_I2C_Mem_Write+0x1fa>
                             I2C_NO_STARTSTOP);
        }
        else
        {
          hi2c->XferSize = hi2c->XferCount;
 8001ca4:	68fb      	ldr	r3, [r7, #12]
 8001ca6:	8d5b      	ldrh	r3, [r3, #42]	; 0x2a
 8001ca8:	b29a      	uxth	r2, r3
 8001caa:	68fb      	ldr	r3, [r7, #12]
 8001cac:	851a      	strh	r2, [r3, #40]	; 0x28
          I2C_TransferConfig(hi2c, DevAddress, (uint8_t)hi2c->XferSize, I2C_AUTOEND_MODE,
 8001cae:	68fb      	ldr	r3, [r7, #12]
 8001cb0:	8d1b      	ldrh	r3, [r3, #40]	; 0x28
 8001cb2:	b2da      	uxtb	r2, r3
 8001cb4:	2380      	movs	r3, #128	; 0x80
 8001cb6:	049c      	lsls	r4, r3, #18
 8001cb8:	230a      	movs	r3, #10
 8001cba:	18fb      	adds	r3, r7, r3
 8001cbc:	8819      	ldrh	r1, [r3, #0]
 8001cbe:	68f8      	ldr	r0, [r7, #12]
 8001cc0:	2300      	movs	r3, #0
 8001cc2:	9300      	str	r3, [sp, #0]
 8001cc4:	0023      	movs	r3, r4
 8001cc6:	f000 fb81 	bl	80023cc <I2C_TransferConfig>
                             I2C_NO_STARTSTOP);
        }
      }

    } while (hi2c->XferCount > 0U);
 8001cca:	68fb      	ldr	r3, [r7, #12]
 8001ccc:	8d5b      	ldrh	r3, [r3, #42]	; 0x2a
 8001cce:	b29b      	uxth	r3, r3
 8001cd0:	2b00      	cmp	r3, #0
 8001cd2:	d198      	bne.n	8001c06 <HAL_I2C_Mem_Write+0x136>

    /* No need to Check TC flag, with AUTOEND mode the stop is automatically generated */
    /* Wait until STOPF flag is reset */
    if (I2C_WaitOnSTOPFlagUntilTimeout(hi2c, Timeout, tickstart) != HAL_OK)
 8001cd4:	697a      	ldr	r2, [r7, #20]
 8001cd6:	6b39      	ldr	r1, [r7, #48]	; 0x30
 8001cd8:	68fb      	ldr	r3, [r7, #12]
 8001cda:	0018      	movs	r0, r3
 8001cdc:	f000 fac0 	bl	8002260 <I2C_WaitOnSTOPFlagUntilTimeout>
 8001ce0:	1e03      	subs	r3, r0, #0
 8001ce2:	d001      	beq.n	8001ce8 <HAL_I2C_Mem_Write+0x218>
    {
      return HAL_ERROR;
 8001ce4:	2301      	movs	r3, #1
 8001ce6:	e01a      	b.n	8001d1e <HAL_I2C_Mem_Write+0x24e>
    }

    /* Clear STOP Flag */
    __HAL_I2C_CLEAR_FLAG(hi2c, I2C_FLAG_STOPF);
 8001ce8:	68fb      	ldr	r3, [r7, #12]
 8001cea:	681b      	ldr	r3, [r3, #0]
 8001cec:	2220      	movs	r2, #32
 8001cee:	61da      	str	r2, [r3, #28]

    /* Clear Configuration Register 2 */
    I2C_RESET_CR2(hi2c);
 8001cf0:	68fb      	ldr	r3, [r7, #12]
 8001cf2:	681b      	ldr	r3, [r3, #0]
 8001cf4:	685a      	ldr	r2, [r3, #4]
 8001cf6:	68fb      	ldr	r3, [r7, #12]
 8001cf8:	681b      	ldr	r3, [r3, #0]
 8001cfa:	490b      	ldr	r1, [pc, #44]	; (8001d28 <HAL_I2C_Mem_Write+0x258>)
 8001cfc:	400a      	ands	r2, r1
 8001cfe:	605a      	str	r2, [r3, #4]

    hi2c->State = HAL_I2C_STATE_READY;
 8001d00:	68fb      	ldr	r3, [r7, #12]
 8001d02:	2241      	movs	r2, #65	; 0x41
 8001d04:	2120      	movs	r1, #32
 8001d06:	5499      	strb	r1, [r3, r2]
    hi2c->Mode  = HAL_I2C_MODE_NONE;
 8001d08:	68fb      	ldr	r3, [r7, #12]
 8001d0a:	2242      	movs	r2, #66	; 0x42
 8001d0c:	2100      	movs	r1, #0
 8001d0e:	5499      	strb	r1, [r3, r2]

    /* Process Unlocked */
    __HAL_UNLOCK(hi2c);
 8001d10:	68fb      	ldr	r3, [r7, #12]
 8001d12:	2240      	movs	r2, #64	; 0x40
 8001d14:	2100      	movs	r1, #0
 8001d16:	5499      	strb	r1, [r3, r2]

    return HAL_OK;
 8001d18:	2300      	movs	r3, #0
 8001d1a:	e000      	b.n	8001d1e <HAL_I2C_Mem_Write+0x24e>
  }
  else
  {
    return HAL_BUSY;
 8001d1c:	2302      	movs	r3, #2
  }
}
 8001d1e:	0018      	movs	r0, r3
 8001d20:	46bd      	mov	sp, r7
 8001d22:	b007      	add	sp, #28
 8001d24:	bd90      	pop	{r4, r7, pc}
 8001d26:	46c0      	nop			; (mov r8, r8)
 8001d28:	fe00e800 	.word	0xfe00e800

08001d2c <HAL_I2C_Mem_Read>:
  * @param  Timeout Timeout duration
  * @retval HAL status
  */
HAL_StatusTypeDef HAL_I2C_Mem_Read(I2C_HandleTypeDef *hi2c, uint16_t DevAddress, uint16_t MemAddress,
                                   uint16_t MemAddSize, uint8_t *pData, uint16_t Size, uint32_t Timeout)
{
 8001d2c:	b590      	push	{r4, r7, lr}
 8001d2e:	b089      	sub	sp, #36	; 0x24
 8001d30:	af02      	add	r7, sp, #8
 8001d32:	60f8      	str	r0, [r7, #12]
 8001d34:	000c      	movs	r4, r1
 8001d36:	0010      	movs	r0, r2
 8001d38:	0019      	movs	r1, r3
 8001d3a:	230a      	movs	r3, #10
 8001d3c:	18fb      	adds	r3, r7, r3
 8001d3e:	1c22      	adds	r2, r4, #0
 8001d40:	801a      	strh	r2, [r3, #0]
 8001d42:	2308      	movs	r3, #8
 8001d44:	18fb      	adds	r3, r7, r3
 8001d46:	1c02      	adds	r2, r0, #0
 8001d48:	801a      	strh	r2, [r3, #0]
 8001d4a:	1dbb      	adds	r3, r7, #6
 8001d4c:	1c0a      	adds	r2, r1, #0
 8001d4e:	801a      	strh	r2, [r3, #0]
  uint32_t tickstart;

  /* Check the parameters */
  assert_param(IS_I2C_MEMADD_SIZE(MemAddSize));

  if (hi2c->State == HAL_I2C_STATE_READY)
 8001d50:	68fb      	ldr	r3, [r7, #12]
 8001d52:	2241      	movs	r2, #65	; 0x41
 8001d54:	5c9b      	ldrb	r3, [r3, r2]
 8001d56:	b2db      	uxtb	r3, r3
 8001d58:	2b20      	cmp	r3, #32
 8001d5a:	d000      	beq.n	8001d5e <HAL_I2C_Mem_Read+0x32>
 8001d5c:	e110      	b.n	8001f80 <HAL_I2C_Mem_Read+0x254>
  {
    if ((pData == NULL) || (Size == 0U))
 8001d5e:	6abb      	ldr	r3, [r7, #40]	; 0x28
 8001d60:	2b00      	cmp	r3, #0
 8001d62:	d004      	beq.n	8001d6e <HAL_I2C_Mem_Read+0x42>
 8001d64:	232c      	movs	r3, #44	; 0x2c
 8001d66:	18fb      	adds	r3, r7, r3
 8001d68:	881b      	ldrh	r3, [r3, #0]
 8001d6a:	2b00      	cmp	r3, #0
 8001d6c:	d105      	bne.n	8001d7a <HAL_I2C_Mem_Read+0x4e>
    {
      hi2c->ErrorCode = HAL_I2C_ERROR_INVALID_PARAM;
 8001d6e:	68fb      	ldr	r3, [r7, #12]
 8001d70:	2280      	movs	r2, #128	; 0x80
 8001d72:	0092      	lsls	r2, r2, #2
 8001d74:	645a      	str	r2, [r3, #68]	; 0x44
      return  HAL_ERROR;
 8001d76:	2301      	movs	r3, #1
 8001d78:	e103      	b.n	8001f82 <HAL_I2C_Mem_Read+0x256>
    }

    /* Process Locked */
    __HAL_LOCK(hi2c);
 8001d7a:	68fb      	ldr	r3, [r7, #12]
 8001d7c:	2240      	movs	r2, #64	; 0x40
 8001d7e:	5c9b      	ldrb	r3, [r3, r2]
 8001d80:	2b01      	cmp	r3, #1
 8001d82:	d101      	bne.n	8001d88 <HAL_I2C_Mem_Read+0x5c>
 8001d84:	2302      	movs	r3, #2
 8001d86:	e0fc      	b.n	8001f82 <HAL_I2C_Mem_Read+0x256>
 8001d88:	68fb      	ldr	r3, [r7, #12]
 8001d8a:	2240      	movs	r2, #64	; 0x40
 8001d8c:	2101      	movs	r1, #1
 8001d8e:	5499      	strb	r1, [r3, r2]

    /* Init tickstart for timeout management*/
    tickstart = HAL_GetTick();
 8001d90:	f7ff f9f4 	bl	800117c <HAL_GetTick>
 8001d94:	0003      	movs	r3, r0
 8001d96:	617b      	str	r3, [r7, #20]

    if (I2C_WaitOnFlagUntilTimeout(hi2c, I2C_FLAG_BUSY, SET, I2C_TIMEOUT_BUSY, tickstart) != HAL_OK)
 8001d98:	2380      	movs	r3, #128	; 0x80
 8001d9a:	0219      	lsls	r1, r3, #8
 8001d9c:	68f8      	ldr	r0, [r7, #12]
 8001d9e:	697b      	ldr	r3, [r7, #20]
 8001da0:	9300      	str	r3, [sp, #0]
 8001da2:	2319      	movs	r3, #25
 8001da4:	2201      	movs	r2, #1
 8001da6:	f000 f9dd 	bl	8002164 <I2C_WaitOnFlagUntilTimeout>
 8001daa:	1e03      	subs	r3, r0, #0
 8001dac:	d001      	beq.n	8001db2 <HAL_I2C_Mem_Read+0x86>
    {
      return HAL_ERROR;
 8001dae:	2301      	movs	r3, #1
 8001db0:	e0e7      	b.n	8001f82 <HAL_I2C_Mem_Read+0x256>
    }

    hi2c->State     = HAL_I2C_STATE_BUSY_RX;
 8001db2:	68fb      	ldr	r3, [r7, #12]
 8001db4:	2241      	movs	r2, #65	; 0x41
 8001db6:	2122      	movs	r1, #34	; 0x22
 8001db8:	5499      	strb	r1, [r3, r2]
    hi2c->Mode      = HAL_I2C_MODE_MEM;
 8001dba:	68fb      	ldr	r3, [r7, #12]
 8001dbc:	2242      	movs	r2, #66	; 0x42
 8001dbe:	2140      	movs	r1, #64	; 0x40
 8001dc0:	5499      	strb	r1, [r3, r2]
    hi2c->ErrorCode = HAL_I2C_ERROR_NONE;
 8001dc2:	68fb      	ldr	r3, [r7, #12]
 8001dc4:	2200      	movs	r2, #0
 8001dc6:	645a      	str	r2, [r3, #68]	; 0x44

    /* Prepare transfer parameters */
    hi2c->pBuffPtr  = pData;
 8001dc8:	68fb      	ldr	r3, [r7, #12]
 8001dca:	6aba      	ldr	r2, [r7, #40]	; 0x28
 8001dcc:	625a      	str	r2, [r3, #36]	; 0x24
    hi2c->XferCount = Size;
 8001dce:	68fb      	ldr	r3, [r7, #12]
 8001dd0:	222c      	movs	r2, #44	; 0x2c
 8001dd2:	18ba      	adds	r2, r7, r2
 8001dd4:	8812      	ldrh	r2, [r2, #0]
 8001dd6:	855a      	strh	r2, [r3, #42]	; 0x2a
    hi2c->XferISR   = NULL;
 8001dd8:	68fb      	ldr	r3, [r7, #12]
 8001dda:	2200      	movs	r2, #0
 8001ddc:	635a      	str	r2, [r3, #52]	; 0x34

    /* Send Slave Address and Memory Address */
    if (I2C_RequestMemoryRead(hi2c, DevAddress, MemAddress, MemAddSize, Timeout, tickstart) != HAL_OK)
 8001dde:	1dbb      	adds	r3, r7, #6
 8001de0:	881c      	ldrh	r4, [r3, #0]
 8001de2:	2308      	movs	r3, #8
 8001de4:	18fb      	adds	r3, r7, r3
 8001de6:	881a      	ldrh	r2, [r3, #0]
 8001de8:	230a      	movs	r3, #10
 8001dea:	18fb      	adds	r3, r7, r3
 8001dec:	8819      	ldrh	r1, [r3, #0]
 8001dee:	68f8      	ldr	r0, [r7, #12]
 8001df0:	697b      	ldr	r3, [r7, #20]
 8001df2:	9301      	str	r3, [sp, #4]
 8001df4:	6b3b      	ldr	r3, [r7, #48]	; 0x30
 8001df6:	9300      	str	r3, [sp, #0]
 8001df8:	0023      	movs	r3, r4
 8001dfa:	f000 f92f 	bl	800205c <I2C_RequestMemoryRead>
 8001dfe:	1e03      	subs	r3, r0, #0
 8001e00:	d005      	beq.n	8001e0e <HAL_I2C_Mem_Read+0xe2>
    {
      /* Process Unlocked */
      __HAL_UNLOCK(hi2c);
 8001e02:	68fb      	ldr	r3, [r7, #12]
 8001e04:	2240      	movs	r2, #64	; 0x40
 8001e06:	2100      	movs	r1, #0
 8001e08:	5499      	strb	r1, [r3, r2]
      return HAL_ERROR;
 8001e0a:	2301      	movs	r3, #1
 8001e0c:	e0b9      	b.n	8001f82 <HAL_I2C_Mem_Read+0x256>
    }

    /* Send Slave Address */
    /* Set NBYTES to write and reload if hi2c->XferCount > MAX_NBYTE_SIZE and generate RESTART */
    if (hi2c->XferCount > MAX_NBYTE_SIZE)
 8001e0e:	68fb      	ldr	r3, [r7, #12]
 8001e10:	8d5b      	ldrh	r3, [r3, #42]	; 0x2a
 8001e12:	b29b      	uxth	r3, r3
 8001e14:	2bff      	cmp	r3, #255	; 0xff
 8001e16:	d911      	bls.n	8001e3c <HAL_I2C_Mem_Read+0x110>
    {
      hi2c->XferSize = MAX_NBYTE_SIZE;
 8001e18:	68fb      	ldr	r3, [r7, #12]
 8001e1a:	22ff      	movs	r2, #255	; 0xff
 8001e1c:	851a      	strh	r2, [r3, #40]	; 0x28
      I2C_TransferConfig(hi2c, DevAddress, (uint8_t)hi2c->XferSize, I2C_RELOAD_MODE,
 8001e1e:	68fb      	ldr	r3, [r7, #12]
 8001e20:	8d1b      	ldrh	r3, [r3, #40]	; 0x28
 8001e22:	b2da      	uxtb	r2, r3
 8001e24:	2380      	movs	r3, #128	; 0x80
 8001e26:	045c      	lsls	r4, r3, #17
 8001e28:	230a      	movs	r3, #10
 8001e2a:	18fb      	adds	r3, r7, r3
 8001e2c:	8819      	ldrh	r1, [r3, #0]
 8001e2e:	68f8      	ldr	r0, [r7, #12]
 8001e30:	4b56      	ldr	r3, [pc, #344]	; (8001f8c <HAL_I2C_Mem_Read+0x260>)
 8001e32:	9300      	str	r3, [sp, #0]
 8001e34:	0023      	movs	r3, r4
 8001e36:	f000 fac9 	bl	80023cc <I2C_TransferConfig>
 8001e3a:	e012      	b.n	8001e62 <HAL_I2C_Mem_Read+0x136>
                         I2C_GENERATE_START_READ);
    }
    else
    {
      hi2c->XferSize = hi2c->XferCount;
 8001e3c:	68fb      	ldr	r3, [r7, #12]
 8001e3e:	8d5b      	ldrh	r3, [r3, #42]	; 0x2a
 8001e40:	b29a      	uxth	r2, r3
 8001e42:	68fb      	ldr	r3, [r7, #12]
 8001e44:	851a      	strh	r2, [r3, #40]	; 0x28
      I2C_TransferConfig(hi2c, DevAddress, (uint8_t)hi2c->XferSize, I2C_AUTOEND_MODE,
 8001e46:	68fb      	ldr	r3, [r7, #12]
 8001e48:	8d1b      	ldrh	r3, [r3, #40]	; 0x28
 8001e4a:	b2da      	uxtb	r2, r3
 8001e4c:	2380      	movs	r3, #128	; 0x80
 8001e4e:	049c      	lsls	r4, r3, #18
 8001e50:	230a      	movs	r3, #10
 8001e52:	18fb      	adds	r3, r7, r3
 8001e54:	8819      	ldrh	r1, [r3, #0]
 8001e56:	68f8      	ldr	r0, [r7, #12]
 8001e58:	4b4c      	ldr	r3, [pc, #304]	; (8001f8c <HAL_I2C_Mem_Read+0x260>)
 8001e5a:	9300      	str	r3, [sp, #0]
 8001e5c:	0023      	movs	r3, r4
 8001e5e:	f000 fab5 	bl	80023cc <I2C_TransferConfig>
    }

    do
    {
      /* Wait until RXNE flag is set */
      if (I2C_WaitOnFlagUntilTimeout(hi2c, I2C_FLAG_RXNE, RESET, Timeout, tickstart) != HAL_OK)
 8001e62:	6b3a      	ldr	r2, [r7, #48]	; 0x30
 8001e64:	68f8      	ldr	r0, [r7, #12]
 8001e66:	697b      	ldr	r3, [r7, #20]
 8001e68:	9300      	str	r3, [sp, #0]
 8001e6a:	0013      	movs	r3, r2
 8001e6c:	2200      	movs	r2, #0
 8001e6e:	2104      	movs	r1, #4
 8001e70:	f000 f978 	bl	8002164 <I2C_WaitOnFlagUntilTimeout>
 8001e74:	1e03      	subs	r3, r0, #0
 8001e76:	d001      	beq.n	8001e7c <HAL_I2C_Mem_Read+0x150>
      {
        return HAL_ERROR;
 8001e78:	2301      	movs	r3, #1
 8001e7a:	e082      	b.n	8001f82 <HAL_I2C_Mem_Read+0x256>
      }

      /* Read data from RXDR */
      *hi2c->pBuffPtr = (uint8_t)hi2c->Instance->RXDR;
 8001e7c:	68fb      	ldr	r3, [r7, #12]
 8001e7e:	681b      	ldr	r3, [r3, #0]
 8001e80:	6a5a      	ldr	r2, [r3, #36]	; 0x24
 8001e82:	68fb      	ldr	r3, [r7, #12]
 8001e84:	6a5b      	ldr	r3, [r3, #36]	; 0x24
 8001e86:	b2d2      	uxtb	r2, r2
 8001e88:	701a      	strb	r2, [r3, #0]

      /* Increment Buffer pointer */
      hi2c->pBuffPtr++;
 8001e8a:	68fb      	ldr	r3, [r7, #12]
 8001e8c:	6a5b      	ldr	r3, [r3, #36]	; 0x24
 8001e8e:	1c5a      	adds	r2, r3, #1
 8001e90:	68fb      	ldr	r3, [r7, #12]
 8001e92:	625a      	str	r2, [r3, #36]	; 0x24

      hi2c->XferSize--;
 8001e94:	68fb      	ldr	r3, [r7, #12]
 8001e96:	8d1b      	ldrh	r3, [r3, #40]	; 0x28
 8001e98:	3b01      	subs	r3, #1
 8001e9a:	b29a      	uxth	r2, r3
 8001e9c:	68fb      	ldr	r3, [r7, #12]
 8001e9e:	851a      	strh	r2, [r3, #40]	; 0x28
      hi2c->XferCount--;
 8001ea0:	68fb      	ldr	r3, [r7, #12]
 8001ea2:	8d5b      	ldrh	r3, [r3, #42]	; 0x2a
 8001ea4:	b29b      	uxth	r3, r3
 8001ea6:	3b01      	subs	r3, #1
 8001ea8:	b29a      	uxth	r2, r3
 8001eaa:	68fb      	ldr	r3, [r7, #12]
 8001eac:	855a      	strh	r2, [r3, #42]	; 0x2a

      if ((hi2c->XferCount != 0U) && (hi2c->XferSize == 0U))
 8001eae:	68fb      	ldr	r3, [r7, #12]
 8001eb0:	8d5b      	ldrh	r3, [r3, #42]	; 0x2a
 8001eb2:	b29b      	uxth	r3, r3
 8001eb4:	2b00      	cmp	r3, #0
 8001eb6:	d03a      	beq.n	8001f2e <HAL_I2C_Mem_Read+0x202>
 8001eb8:	68fb      	ldr	r3, [r7, #12]
 8001eba:	8d1b      	ldrh	r3, [r3, #40]	; 0x28
 8001ebc:	2b00      	cmp	r3, #0
 8001ebe:	d136      	bne.n	8001f2e <HAL_I2C_Mem_Read+0x202>
      {
        /* Wait until TCR flag is set */
        if (I2C_WaitOnFlagUntilTimeout(hi2c, I2C_FLAG_TCR, RESET, Timeout, tickstart) != HAL_OK)
 8001ec0:	6b3a      	ldr	r2, [r7, #48]	; 0x30
 8001ec2:	68f8      	ldr	r0, [r7, #12]
 8001ec4:	697b      	ldr	r3, [r7, #20]
 8001ec6:	9300      	str	r3, [sp, #0]
 8001ec8:	0013      	movs	r3, r2
 8001eca:	2200      	movs	r2, #0
 8001ecc:	2180      	movs	r1, #128	; 0x80
 8001ece:	f000 f949 	bl	8002164 <I2C_WaitOnFlagUntilTimeout>
 8001ed2:	1e03      	subs	r3, r0, #0
 8001ed4:	d001      	beq.n	8001eda <HAL_I2C_Mem_Read+0x1ae>
        {
          return HAL_ERROR;
 8001ed6:	2301      	movs	r3, #1
 8001ed8:	e053      	b.n	8001f82 <HAL_I2C_Mem_Read+0x256>
        }

        if (hi2c->XferCount > MAX_NBYTE_SIZE)
 8001eda:	68fb      	ldr	r3, [r7, #12]
 8001edc:	8d5b      	ldrh	r3, [r3, #42]	; 0x2a
 8001ede:	b29b      	uxth	r3, r3
 8001ee0:	2bff      	cmp	r3, #255	; 0xff
 8001ee2:	d911      	bls.n	8001f08 <HAL_I2C_Mem_Read+0x1dc>
        {
          hi2c->XferSize = MAX_NBYTE_SIZE;
 8001ee4:	68fb      	ldr	r3, [r7, #12]
 8001ee6:	22ff      	movs	r2, #255	; 0xff
 8001ee8:	851a      	strh	r2, [r3, #40]	; 0x28
          I2C_TransferConfig(hi2c, DevAddress, (uint8_t) hi2c->XferSize, I2C_RELOAD_MODE,
 8001eea:	68fb      	ldr	r3, [r7, #12]
 8001eec:	8d1b      	ldrh	r3, [r3, #40]	; 0x28
 8001eee:	b2da      	uxtb	r2, r3
 8001ef0:	2380      	movs	r3, #128	; 0x80
 8001ef2:	045c      	lsls	r4, r3, #17
 8001ef4:	230a      	movs	r3, #10
 8001ef6:	18fb      	adds	r3, r7, r3
 8001ef8:	8819      	ldrh	r1, [r3, #0]
 8001efa:	68f8      	ldr	r0, [r7, #12]
 8001efc:	2300      	movs	r3, #0
 8001efe:	9300      	str	r3, [sp, #0]
 8001f00:	0023      	movs	r3, r4
 8001f02:	f000 fa63 	bl	80023cc <I2C_TransferConfig>
 8001f06:	e012      	b.n	8001f2e <HAL_I2C_Mem_Read+0x202>
                             I2C_NO_STARTSTOP);
        }
        else
        {
          hi2c->XferSize = hi2c->XferCount;
 8001f08:	68fb      	ldr	r3, [r7, #12]
 8001f0a:	8d5b      	ldrh	r3, [r3, #42]	; 0x2a
 8001f0c:	b29a      	uxth	r2, r3
 8001f0e:	68fb      	ldr	r3, [r7, #12]
 8001f10:	851a      	strh	r2, [r3, #40]	; 0x28
          I2C_TransferConfig(hi2c, DevAddress, (uint8_t)hi2c->XferSize, I2C_AUTOEND_MODE,
 8001f12:	68fb      	ldr	r3, [r7, #12]
 8001f14:	8d1b      	ldrh	r3, [r3, #40]	; 0x28
 8001f16:	b2da      	uxtb	r2, r3
 8001f18:	2380      	movs	r3, #128	; 0x80
 8001f1a:	049c      	lsls	r4, r3, #18
 8001f1c:	230a      	movs	r3, #10
 8001f1e:	18fb      	adds	r3, r7, r3
 8001f20:	8819      	ldrh	r1, [r3, #0]
 8001f22:	68f8      	ldr	r0, [r7, #12]
 8001f24:	2300      	movs	r3, #0
 8001f26:	9300      	str	r3, [sp, #0]
 8001f28:	0023      	movs	r3, r4
 8001f2a:	f000 fa4f 	bl	80023cc <I2C_TransferConfig>
                             I2C_NO_STARTSTOP);
        }
      }
    } while (hi2c->XferCount > 0U);
 8001f2e:	68fb      	ldr	r3, [r7, #12]
 8001f30:	8d5b      	ldrh	r3, [r3, #42]	; 0x2a
 8001f32:	b29b      	uxth	r3, r3
 8001f34:	2b00      	cmp	r3, #0
 8001f36:	d194      	bne.n	8001e62 <HAL_I2C_Mem_Read+0x136>

    /* No need to Check TC flag, with AUTOEND mode the stop is automatically generated */
    /* Wait until STOPF flag is reset */
    if (I2C_WaitOnSTOPFlagUntilTimeout(hi2c, Timeout, tickstart) != HAL_OK)
 8001f38:	697a      	ldr	r2, [r7, #20]
 8001f3a:	6b39      	ldr	r1, [r7, #48]	; 0x30
 8001f3c:	68fb      	ldr	r3, [r7, #12]
 8001f3e:	0018      	movs	r0, r3
 8001f40:	f000 f98e 	bl	8002260 <I2C_WaitOnSTOPFlagUntilTimeout>
 8001f44:	1e03      	subs	r3, r0, #0
 8001f46:	d001      	beq.n	8001f4c <HAL_I2C_Mem_Read+0x220>
    {
      return HAL_ERROR;
 8001f48:	2301      	movs	r3, #1
 8001f4a:	e01a      	b.n	8001f82 <HAL_I2C_Mem_Read+0x256>
    }

    /* Clear STOP Flag */
    __HAL_I2C_CLEAR_FLAG(hi2c, I2C_FLAG_STOPF);
 8001f4c:	68fb      	ldr	r3, [r7, #12]
 8001f4e:	681b      	ldr	r3, [r3, #0]
 8001f50:	2220      	movs	r2, #32
 8001f52:	61da      	str	r2, [r3, #28]

    /* Clear Configuration Register 2 */
    I2C_RESET_CR2(hi2c);
 8001f54:	68fb      	ldr	r3, [r7, #12]
 8001f56:	681b      	ldr	r3, [r3, #0]
 8001f58:	685a      	ldr	r2, [r3, #4]
 8001f5a:	68fb      	ldr	r3, [r7, #12]
 8001f5c:	681b      	ldr	r3, [r3, #0]
 8001f5e:	490c      	ldr	r1, [pc, #48]	; (8001f90 <HAL_I2C_Mem_Read+0x264>)
 8001f60:	400a      	ands	r2, r1
 8001f62:	605a      	str	r2, [r3, #4]

    hi2c->State = HAL_I2C_STATE_READY;
 8001f64:	68fb      	ldr	r3, [r7, #12]
 8001f66:	2241      	movs	r2, #65	; 0x41
 8001f68:	2120      	movs	r1, #32
 8001f6a:	5499      	strb	r1, [r3, r2]
    hi2c->Mode  = HAL_I2C_MODE_NONE;
 8001f6c:	68fb      	ldr	r3, [r7, #12]
 8001f6e:	2242      	movs	r2, #66	; 0x42
 8001f70:	2100      	movs	r1, #0
 8001f72:	5499      	strb	r1, [r3, r2]

    /* Process Unlocked */
    __HAL_UNLOCK(hi2c);
 8001f74:	68fb      	ldr	r3, [r7, #12]
 8001f76:	2240      	movs	r2, #64	; 0x40
 8001f78:	2100      	movs	r1, #0
 8001f7a:	5499      	strb	r1, [r3, r2]

    return HAL_OK;
 8001f7c:	2300      	movs	r3, #0
 8001f7e:	e000      	b.n	8001f82 <HAL_I2C_Mem_Read+0x256>
  }
  else
  {
    return HAL_BUSY;
 8001f80:	2302      	movs	r3, #2
  }
}
 8001f82:	0018      	movs	r0, r3
 8001f84:	46bd      	mov	sp, r7
 8001f86:	b007      	add	sp, #28
 8001f88:	bd90      	pop	{r4, r7, pc}
 8001f8a:	46c0      	nop			; (mov r8, r8)
 8001f8c:	80002400 	.word	0x80002400
 8001f90:	fe00e800 	.word	0xfe00e800

08001f94 <I2C_RequestMemoryWrite>:
  * @retval HAL status
  */
static HAL_StatusTypeDef I2C_RequestMemoryWrite(I2C_HandleTypeDef *hi2c, uint16_t DevAddress,
                                                uint16_t MemAddress, uint16_t MemAddSize, uint32_t Timeout,
                                                uint32_t Tickstart)
{
 8001f94:	b5b0      	push	{r4, r5, r7, lr}
 8001f96:	b086      	sub	sp, #24
 8001f98:	af02      	add	r7, sp, #8
 8001f9a:	60f8      	str	r0, [r7, #12]
 8001f9c:	000c      	movs	r4, r1
 8001f9e:	0010      	movs	r0, r2
 8001fa0:	0019      	movs	r1, r3
 8001fa2:	250a      	movs	r5, #10
 8001fa4:	197b      	adds	r3, r7, r5
 8001fa6:	1c22      	adds	r2, r4, #0
 8001fa8:	801a      	strh	r2, [r3, #0]
 8001faa:	2308      	movs	r3, #8
 8001fac:	18fb      	adds	r3, r7, r3
 8001fae:	1c02      	adds	r2, r0, #0
 8001fb0:	801a      	strh	r2, [r3, #0]
 8001fb2:	1dbb      	adds	r3, r7, #6
 8001fb4:	1c0a      	adds	r2, r1, #0
 8001fb6:	801a      	strh	r2, [r3, #0]
  I2C_TransferConfig(hi2c, DevAddress, (uint8_t)MemAddSize, I2C_RELOAD_MODE, I2C_GENERATE_START_WRITE);
 8001fb8:	1dbb      	adds	r3, r7, #6
 8001fba:	881b      	ldrh	r3, [r3, #0]
 8001fbc:	b2da      	uxtb	r2, r3
 8001fbe:	2380      	movs	r3, #128	; 0x80
 8001fc0:	045c      	lsls	r4, r3, #17
 8001fc2:	197b      	adds	r3, r7, r5
 8001fc4:	8819      	ldrh	r1, [r3, #0]
 8001fc6:	68f8      	ldr	r0, [r7, #12]
 8001fc8:	4b23      	ldr	r3, [pc, #140]	; (8002058 <I2C_RequestMemoryWrite+0xc4>)
 8001fca:	9300      	str	r3, [sp, #0]
 8001fcc:	0023      	movs	r3, r4
 8001fce:	f000 f9fd 	bl	80023cc <I2C_TransferConfig>

  /* Wait until TXIS flag is set */
  if (I2C_WaitOnTXISFlagUntilTimeout(hi2c, Timeout, Tickstart) != HAL_OK)
 8001fd2:	6a7a      	ldr	r2, [r7, #36]	; 0x24
 8001fd4:	6a39      	ldr	r1, [r7, #32]
 8001fd6:	68fb      	ldr	r3, [r7, #12]
 8001fd8:	0018      	movs	r0, r3
 8001fda:	f000 f902 	bl	80021e2 <I2C_WaitOnTXISFlagUntilTimeout>
 8001fde:	1e03      	subs	r3, r0, #0
 8001fe0:	d001      	beq.n	8001fe6 <I2C_RequestMemoryWrite+0x52>
  {
    return HAL_ERROR;
 8001fe2:	2301      	movs	r3, #1
 8001fe4:	e033      	b.n	800204e <I2C_RequestMemoryWrite+0xba>
  }

  /* If Memory address size is 8Bit */
  if (MemAddSize == I2C_MEMADD_SIZE_8BIT)
