
EEE3096S_2022_Prac_2_Delays_and_I2C_Student_Version.elf:     file format elf32-littlearm

Sections:
Idx Name          Size      VMA       LMA       File off  Algn
  0 .isr_vector   000000c0  08000000  08000000  00010000  2**0
                  CONTENTS, ALLOC, LOAD, READONLY, DATA
  1 .text         000047d8  080000c0  080000c0  000100c0  2**2
                  CONTENTS, ALLOC, LOAD, READONLY, CODE
  2 .rodata       000000d0  08004898  08004898  00014898  2**2
                  CONTENTS, ALLOC, LOAD, READONLY, DATA
  3 .ARM.extab    00000000  08004968  08004968  00020070  2**0
                  CONTENTS
  4 .ARM          00000000  08004968  08004968  00020070  2**0
                  CONTENTS
  5 .preinit_array 00000000  08004968  08004968  00020070  2**0
                  CONTENTS, ALLOC, LOAD, DATA
  6 .init_array   00000004  08004968  08004968  00014968  2**2
                  CONTENTS, ALLOC, LOAD, DATA
  7 .fini_array   00000004  0800496c  0800496c  0001496c  2**2
                  CONTENTS, ALLOC, LOAD, DATA
  8 .data         00000070  20000000  08004970  00020000  2**2
                  CONTENTS, ALLOC, LOAD, DATA
  9 .bss          00000184  20000070  080049e0  00020070  2**2
                  ALLOC
 10 ._user_heap_stack 00000604  200001f4  080049e0  000201f4  2**0
                  ALLOC
 11 .ARM.attributes 00000028  00000000  00000000  00020070  2**0
                  CONTENTS, READONLY
 12 .debug_info   0000c79c  00000000  00000000  00020098  2**0
                  CONTENTS, READONLY, DEBUGGING, OCTETS
 13 .debug_abbrev 00001e55  00000000  00000000  0002c834  2**0
                  CONTENTS, READONLY, DEBUGGING, OCTETS
 14 .debug_aranges 00000a08  00000000  00000000  0002e690  2**3
                  CONTENTS, READONLY, DEBUGGING, OCTETS
 15 .debug_ranges 00000940  00000000  00000000  0002f098  2**3
                  CONTENTS, READONLY, DEBUGGING, OCTETS
 16 .debug_macro  000122a9  00000000  00000000  0002f9d8  2**0
                  CONTENTS, READONLY, DEBUGGING, OCTETS
 17 .debug_line   0000da4d  00000000  00000000  00041c81  2**0
                  CONTENTS, READONLY, DEBUGGING, OCTETS
 18 .debug_str    0006aa20  00000000  00000000  0004f6ce  2**0
                  CONTENTS, READONLY, DEBUGGING, OCTETS
 19 .comment      00000050  00000000  00000000  000ba0ee  2**0
                  CONTENTS, READONLY
 20 .debug_frame  00002784  00000000  00000000  000ba140  2**2
                  CONTENTS, READONLY, DEBUGGING, OCTETS

Disassembly of section .text:

080000c0 <__do_global_dtors_aux>:
 80000c0:	b510      	push	{r4, lr}
 80000c2:	4c06      	ldr	r4, [pc, #24]	; (80000dc <__do_global_dtors_aux+0x1c>)
 80000c4:	7823      	ldrb	r3, [r4, #0]
 80000c6:	2b00      	cmp	r3, #0
 80000c8:	d107      	bne.n	80000da <__do_global_dtors_aux+0x1a>
 80000ca:	4b05      	ldr	r3, [pc, #20]	; (80000e0 <__do_global_dtors_aux+0x20>)
 80000cc:	2b00      	cmp	r3, #0
 80000ce:	d002      	beq.n	80000d6 <__do_global_dtors_aux+0x16>
 80000d0:	4804      	ldr	r0, [pc, #16]	; (80000e4 <__do_global_dtors_aux+0x24>)
 80000d2:	e000      	b.n	80000d6 <__do_global_dtors_aux+0x16>
 80000d4:	bf00      	nop
 80000d6:	2301      	movs	r3, #1
 80000d8:	7023      	strb	r3, [r4, #0]
 80000da:	bd10      	pop	{r4, pc}
 80000dc:	20000070 	.word	0x20000070
 80000e0:	00000000 	.word	0x00000000
 80000e4:	08004880 	.word	0x08004880

080000e8 <frame_dummy>:
 80000e8:	4b04      	ldr	r3, [pc, #16]	; (80000fc <frame_dummy+0x14>)
 80000ea:	b510      	push	{r4, lr}
 80000ec:	2b00      	cmp	r3, #0
 80000ee:	d003      	beq.n	80000f8 <frame_dummy+0x10>
 80000f0:	4903      	ldr	r1, [pc, #12]	; (8000100 <frame_dummy+0x18>)
 80000f2:	4804      	ldr	r0, [pc, #16]	; (8000104 <frame_dummy+0x1c>)
 80000f4:	e000      	b.n	80000f8 <frame_dummy+0x10>
 80000f6:	bf00      	nop
 80000f8:	bd10      	pop	{r4, pc}
 80000fa:	46c0      	nop			; (mov r8, r8)
 80000fc:	00000000 	.word	0x00000000
 8000100:	20000074 	.word	0x20000074
 8000104:	08004880 	.word	0x08004880

08000108 <__gnu_thumb1_case_shi>:
 8000108:	b403      	push	{r0, r1}
 800010a:	4671      	mov	r1, lr
 800010c:	0849      	lsrs	r1, r1, #1
 800010e:	0040      	lsls	r0, r0, #1
 8000110:	0049      	lsls	r1, r1, #1
 8000112:	5e09      	ldrsh	r1, [r1, r0]
 8000114:	0049      	lsls	r1, r1, #1
 8000116:	448e      	add	lr, r1
 8000118:	bc03      	pop	{r0, r1}
 800011a:	4770      	bx	lr

0800011c <__udivsi3>:
 800011c:	2200      	movs	r2, #0
 800011e:	0843      	lsrs	r3, r0, #1
 8000120:	428b      	cmp	r3, r1
 8000122:	d374      	bcc.n	800020e <__udivsi3+0xf2>
 8000124:	0903      	lsrs	r3, r0, #4
 8000126:	428b      	cmp	r3, r1
 8000128:	d35f      	bcc.n	80001ea <__udivsi3+0xce>
 800012a:	0a03      	lsrs	r3, r0, #8
 800012c:	428b      	cmp	r3, r1
 800012e:	d344      	bcc.n	80001ba <__udivsi3+0x9e>
 8000130:	0b03      	lsrs	r3, r0, #12
 8000132:	428b      	cmp	r3, r1
 8000134:	d328      	bcc.n	8000188 <__udivsi3+0x6c>
 8000136:	0c03      	lsrs	r3, r0, #16
 8000138:	428b      	cmp	r3, r1
 800013a:	d30d      	bcc.n	8000158 <__udivsi3+0x3c>
 800013c:	22ff      	movs	r2, #255	; 0xff
 800013e:	0209      	lsls	r1, r1, #8
 8000140:	ba12      	rev	r2, r2
 8000142:	0c03      	lsrs	r3, r0, #16
 8000144:	428b      	cmp	r3, r1
 8000146:	d302      	bcc.n	800014e <__udivsi3+0x32>
 8000148:	1212      	asrs	r2, r2, #8
 800014a:	0209      	lsls	r1, r1, #8
 800014c:	d065      	beq.n	800021a <__udivsi3+0xfe>
 800014e:	0b03      	lsrs	r3, r0, #12
 8000150:	428b      	cmp	r3, r1
 8000152:	d319      	bcc.n	8000188 <__udivsi3+0x6c>
 8000154:	e000      	b.n	8000158 <__udivsi3+0x3c>
 8000156:	0a09      	lsrs	r1, r1, #8
 8000158:	0bc3      	lsrs	r3, r0, #15
 800015a:	428b      	cmp	r3, r1
 800015c:	d301      	bcc.n	8000162 <__udivsi3+0x46>
 800015e:	03cb      	lsls	r3, r1, #15
 8000160:	1ac0      	subs	r0, r0, r3
 8000162:	4152      	adcs	r2, r2
 8000164:	0b83      	lsrs	r3, r0, #14
 8000166:	428b      	cmp	r3, r1
 8000168:	d301      	bcc.n	800016e <__udivsi3+0x52>
 800016a:	038b      	lsls	r3, r1, #14
 800016c:	1ac0      	subs	r0, r0, r3
 800016e:	4152      	adcs	r2, r2
 8000170:	0b43      	lsrs	r3, r0, #13
 8000172:	428b      	cmp	r3, r1
 8000174:	d301      	bcc.n	800017a <__udivsi3+0x5e>
 8000176:	034b      	lsls	r3, r1, #13
 8000178:	1ac0      	subs	r0, r0, r3
 800017a:	4152      	adcs	r2, r2
 800017c:	0b03      	lsrs	r3, r0, #12
 800017e:	428b      	cmp	r3, r1
 8000180:	d301      	bcc.n	8000186 <__udivsi3+0x6a>
 8000182:	030b      	lsls	r3, r1, #12
 8000184:	1ac0      	subs	r0, r0, r3
 8000186:	4152      	adcs	r2, r2
 8000188:	0ac3      	lsrs	r3, r0, #11
 800018a:	428b      	cmp	r3, r1
 800018c:	d301      	bcc.n	8000192 <__udivsi3+0x76>
 800018e:	02cb      	lsls	r3, r1, #11
 8000190:	1ac0      	subs	r0, r0, r3
 8000192:	4152      	adcs	r2, r2
 8000194:	0a83      	lsrs	r3, r0, #10
 8000196:	428b      	cmp	r3, r1
 8000198:	d301      	bcc.n	800019e <__udivsi3+0x82>
 800019a:	028b      	lsls	r3, r1, #10
 800019c:	1ac0      	subs	r0, r0, r3
 800019e:	4152      	adcs	r2, r2
 80001a0:	0a43      	lsrs	r3, r0, #9
 80001a2:	428b      	cmp	r3, r1
 80001a4:	d301      	bcc.n	80001aa <__udivsi3+0x8e>
 80001a6:	024b      	lsls	r3, r1, #9
 80001a8:	1ac0      	subs	r0, r0, r3
 80001aa:	4152      	adcs	r2, r2
 80001ac:	0a03      	lsrs	r3, r0, #8
 80001ae:	428b      	cmp	r3, r1
 80001b0:	d301      	bcc.n	80001b6 <__udivsi3+0x9a>
 80001b2:	020b      	lsls	r3, r1, #8
 80001b4:	1ac0      	subs	r0, r0, r3
 80001b6:	4152      	adcs	r2, r2
 80001b8:	d2cd      	bcs.n	8000156 <__udivsi3+0x3a>
 80001ba:	09c3      	lsrs	r3, r0, #7
 80001bc:	428b      	cmp	r3, r1
 80001be:	d301      	bcc.n	80001c4 <__udivsi3+0xa8>
 80001c0:	01cb      	lsls	r3, r1, #7
 80001c2:	1ac0      	subs	r0, r0, r3
 80001c4:	4152      	adcs	r2, r2
 80001c6:	0983      	lsrs	r3, r0, #6
 80001c8:	428b      	cmp	r3, r1
 80001ca:	d301      	bcc.n	80001d0 <__udivsi3+0xb4>
 80001cc:	018b      	lsls	r3, r1, #6
 80001ce:	1ac0      	subs	r0, r0, r3
 80001d0:	4152      	adcs	r2, r2
 80001d2:	0943      	lsrs	r3, r0, #5
 80001d4:	428b      	cmp	r3, r1
 80001d6:	d301      	bcc.n	80001dc <__udivsi3+0xc0>
 80001d8:	014b      	lsls	r3, r1, #5
 80001da:	1ac0      	subs	r0, r0, r3
 80001dc:	4152      	adcs	r2, r2
 80001de:	0903      	lsrs	r3, r0, #4
 80001e0:	428b      	cmp	r3, r1
 80001e2:	d301      	bcc.n	80001e8 <__udivsi3+0xcc>
 80001e4:	010b      	lsls	r3, r1, #4
 80001e6:	1ac0      	subs	r0, r0, r3
 80001e8:	4152      	adcs	r2, r2
 80001ea:	08c3      	lsrs	r3, r0, #3
 80001ec:	428b      	cmp	r3, r1
 80001ee:	d301      	bcc.n	80001f4 <__udivsi3+0xd8>
 80001f0:	00cb      	lsls	r3, r1, #3
 80001f2:	1ac0      	subs	r0, r0, r3
 80001f4:	4152      	adcs	r2, r2
 80001f6:	0883      	lsrs	r3, r0, #2
 80001f8:	428b      	cmp	r3, r1
 80001fa:	d301      	bcc.n	8000200 <__udivsi3+0xe4>
 80001fc:	008b      	lsls	r3, r1, #2
 80001fe:	1ac0      	subs	r0, r0, r3
 8000200:	4152      	adcs	r2, r2
 8000202:	0843      	lsrs	r3, r0, #1
 8000204:	428b      	cmp	r3, r1
 8000206:	d301      	bcc.n	800020c <__udivsi3+0xf0>
 8000208:	004b      	lsls	r3, r1, #1
 800020a:	1ac0      	subs	r0, r0, r3
 800020c:	4152      	adcs	r2, r2
 800020e:	1a41      	subs	r1, r0, r1
 8000210:	d200      	bcs.n	8000214 <__udivsi3+0xf8>
 8000212:	4601      	mov	r1, r0
 8000214:	4152      	adcs	r2, r2
 8000216:	4610      	mov	r0, r2
 8000218:	4770      	bx	lr
 800021a:	e7ff      	b.n	800021c <__udivsi3+0x100>
 800021c:	b501      	push	{r0, lr}
 800021e:	2000      	movs	r0, #0
 8000220:	f000 f8f0 	bl	8000404 <__aeabi_idiv0>
 8000224:	bd02      	pop	{r1, pc}
 8000226:	46c0      	nop			; (mov r8, r8)

08000228 <__aeabi_uidivmod>:
 8000228:	2900      	cmp	r1, #0
 800022a:	d0f7      	beq.n	800021c <__udivsi3+0x100>
 800022c:	e776      	b.n	800011c <__udivsi3>
 800022e:	4770      	bx	lr

08000230 <__divsi3>:
 8000230:	4603      	mov	r3, r0
 8000232:	430b      	orrs	r3, r1
 8000234:	d47f      	bmi.n	8000336 <__divsi3+0x106>
 8000236:	2200      	movs	r2, #0
 8000238:	0843      	lsrs	r3, r0, #1
 800023a:	428b      	cmp	r3, r1
 800023c:	d374      	bcc.n	8000328 <__divsi3+0xf8>
 800023e:	0903      	lsrs	r3, r0, #4
 8000240:	428b      	cmp	r3, r1
 8000242:	d35f      	bcc.n	8000304 <__divsi3+0xd4>
 8000244:	0a03      	lsrs	r3, r0, #8
 8000246:	428b      	cmp	r3, r1
 8000248:	d344      	bcc.n	80002d4 <__divsi3+0xa4>
 800024a:	0b03      	lsrs	r3, r0, #12
 800024c:	428b      	cmp	r3, r1
 800024e:	d328      	bcc.n	80002a2 <__divsi3+0x72>
 8000250:	0c03      	lsrs	r3, r0, #16
 8000252:	428b      	cmp	r3, r1
 8000254:	d30d      	bcc.n	8000272 <__divsi3+0x42>
 8000256:	22ff      	movs	r2, #255	; 0xff
 8000258:	0209      	lsls	r1, r1, #8
 800025a:	ba12      	rev	r2, r2
 800025c:	0c03      	lsrs	r3, r0, #16
 800025e:	428b      	cmp	r3, r1
 8000260:	d302      	bcc.n	8000268 <__divsi3+0x38>
 8000262:	1212      	asrs	r2, r2, #8
 8000264:	0209      	lsls	r1, r1, #8
 8000266:	d065      	beq.n	8000334 <__divsi3+0x104>
 8000268:	0b03      	lsrs	r3, r0, #12
 800026a:	428b      	cmp	r3, r1
 800026c:	d319      	bcc.n	80002a2 <__divsi3+0x72>
 800026e:	e000      	b.n	8000272 <__divsi3+0x42>
 8000270:	0a09      	lsrs	r1, r1, #8
 8000272:	0bc3      	lsrs	r3, r0, #15
 8000274:	428b      	cmp	r3, r1
 8000276:	d301      	bcc.n	800027c <__divsi3+0x4c>
 8000278:	03cb      	lsls	r3, r1, #15
 800027a:	1ac0      	subs	r0, r0, r3
 800027c:	4152      	adcs	r2, r2
 800027e:	0b83      	lsrs	r3, r0, #14
 8000280:	428b      	cmp	r3, r1
 8000282:	d301      	bcc.n	8000288 <__divsi3+0x58>
 8000284:	038b      	lsls	r3, r1, #14
 8000286:	1ac0      	subs	r0, r0, r3
 8000288:	4152      	adcs	r2, r2
 800028a:	0b43      	lsrs	r3, r0, #13
 800028c:	428b      	cmp	r3, r1
 800028e:	d301      	bcc.n	8000294 <__divsi3+0x64>
 8000290:	034b      	lsls	r3, r1, #13
 8000292:	1ac0      	subs	r0, r0, r3
 8000294:	4152      	adcs	r2, r2
 8000296:	0b03      	lsrs	r3, r0, #12
 8000298:	428b      	cmp	r3, r1
 800029a:	d301      	bcc.n	80002a0 <__divsi3+0x70>
 800029c:	030b      	lsls	r3, r1, #12
 800029e:	1ac0      	subs	r0, r0, r3
 80002a0:	4152      	adcs	r2, r2
 80002a2:	0ac3      	lsrs	r3, r0, #11
 80002a4:	428b      	cmp	r3, r1
 80002a6:	d301      	bcc.n	80002ac <__divsi3+0x7c>
 80002a8:	02cb      	lsls	r3, r1, #11
 80002aa:	1ac0      	subs	r0, r0, r3
 80002ac:	4152      	adcs	r2, r2
 80002ae:	0a83      	lsrs	r3, r0, #10
 80002b0:	428b      	cmp	r3, r1
 80002b2:	d301      	bcc.n	80002b8 <__divsi3+0x88>
 80002b4:	028b      	lsls	r3, r1, #10
 80002b6:	1ac0      	subs	r0, r0, r3
 80002b8:	4152      	adcs	r2, r2
 80002ba:	0a43      	lsrs	r3, r0, #9
 80002bc:	428b      	cmp	r3, r1
 80002be:	d301      	bcc.n	80002c4 <__divsi3+0x94>
 80002c0:	024b      	lsls	r3, r1, #9
 80002c2:	1ac0      	subs	r0, r0, r3
 80002c4:	4152      	adcs	r2, r2
 80002c6:	0a03      	lsrs	r3, r0, #8
 80002c8:	428b      	cmp	r3, r1
 80002ca:	d301      	bcc.n	80002d0 <__divsi3+0xa0>
 80002cc:	020b      	lsls	r3, r1, #8
 80002ce:	1ac0      	subs	r0, r0, r3
 80002d0:	4152      	adcs	r2, r2
 80002d2:	d2cd      	bcs.n	8000270 <__divsi3+0x40>
 80002d4:	09c3      	lsrs	r3, r0, #7
 80002d6:	428b      	cmp	r3, r1
 80002d8:	d301      	bcc.n	80002de <__divsi3+0xae>
 80002da:	01cb      	lsls	r3, r1, #7
 80002dc:	1ac0      	subs	r0, r0, r3
 80002de:	4152      	adcs	r2, r2
 80002e0:	0983      	lsrs	r3, r0, #6
 80002e2:	428b      	cmp	r3, r1
 80002e4:	d301      	bcc.n	80002ea <__divsi3+0xba>
 80002e6:	018b      	lsls	r3, r1, #6
 80002e8:	1ac0      	subs	r0, r0, r3
 80002ea:	4152      	adcs	r2, r2
 80002ec:	0943      	lsrs	r3, r0, #5
 80002ee:	428b      	cmp	r3, r1
 80002f0:	d301      	bcc.n	80002f6 <__divsi3+0xc6>
 80002f2:	014b      	lsls	r3, r1, #5
 80002f4:	1ac0      	subs	r0, r0, r3
 80002f6:	4152      	adcs	r2, r2
 80002f8:	0903      	lsrs	r3, r0, #4
 80002fa:	428b      	cmp	r3, r1
 80002fc:	d301      	bcc.n	8000302 <__divsi3+0xd2>
 80002fe:	010b      	lsls	r3, r1, #4
 8000300:	1ac0      	subs	r0, r0, r3
 8000302:	4152      	adcs	r2, r2
 8000304:	08c3      	lsrs	r3, r0, #3
 8000306:	428b      	cmp	r3, r1
 8000308:	d301      	bcc.n	800030e <__divsi3+0xde>
 800030a:	00cb      	lsls	r3, r1, #3
 800030c:	1ac0      	subs	r0, r0, r3
 800030e:	4152      	adcs	r2, r2
 8000310:	0883      	lsrs	r3, r0, #2
 8000312:	428b      	cmp	r3, r1
 8000314:	d301      	bcc.n	800031a <__divsi3+0xea>
 8000316:	008b      	lsls	r3, r1, #2
 8000318:	1ac0      	subs	r0, r0, r3
 800031a:	4152      	adcs	r2, r2
 800031c:	0843      	lsrs	r3, r0, #1
 800031e:	428b      	cmp	r3, r1
 8000320:	d301      	bcc.n	8000326 <__divsi3+0xf6>
 8000322:	004b      	lsls	r3, r1, #1
 8000324:	1ac0      	subs	r0, r0, r3
 8000326:	4152      	adcs	r2, r2
 8000328:	1a41      	subs	r1, r0, r1
 800032a:	d200      	bcs.n	800032e <__divsi3+0xfe>
 800032c:	4601      	mov	r1, r0
 800032e:	4152      	adcs	r2, r2
 8000330:	4610      	mov	r0, r2
 8000332:	4770      	bx	lr
 8000334:	e05d      	b.n	80003f2 <__divsi3+0x1c2>
 8000336:	0fca      	lsrs	r2, r1, #31
 8000338:	d000      	beq.n	800033c <__divsi3+0x10c>
 800033a:	4249      	negs	r1, r1
 800033c:	1003      	asrs	r3, r0, #32
 800033e:	d300      	bcc.n	8000342 <__divsi3+0x112>
 8000340:	4240      	negs	r0, r0
 8000342:	4053      	eors	r3, r2
 8000344:	2200      	movs	r2, #0
 8000346:	469c      	mov	ip, r3
 8000348:	0903      	lsrs	r3, r0, #4
 800034a:	428b      	cmp	r3, r1
 800034c:	d32d      	bcc.n	80003aa <__divsi3+0x17a>
 800034e:	0a03      	lsrs	r3, r0, #8
 8000350:	428b      	cmp	r3, r1
 8000352:	d312      	bcc.n	800037a <__divsi3+0x14a>
 8000354:	22fc      	movs	r2, #252	; 0xfc
 8000356:	0189      	lsls	r1, r1, #6
 8000358:	ba12      	rev	r2, r2
 800035a:	0a03      	lsrs	r3, r0, #8
 800035c:	428b      	cmp	r3, r1
 800035e:	d30c      	bcc.n	800037a <__divsi3+0x14a>
 8000360:	0189      	lsls	r1, r1, #6
 8000362:	1192      	asrs	r2, r2, #6
 8000364:	428b      	cmp	r3, r1
 8000366:	d308      	bcc.n	800037a <__divsi3+0x14a>
 8000368:	0189      	lsls	r1, r1, #6
 800036a:	1192      	asrs	r2, r2, #6
 800036c:	428b      	cmp	r3, r1
 800036e:	d304      	bcc.n	800037a <__divsi3+0x14a>
 8000370:	0189      	lsls	r1, r1, #6
 8000372:	d03a      	beq.n	80003ea <__divsi3+0x1ba>
 8000374:	1192      	asrs	r2, r2, #6
 8000376:	e000      	b.n	800037a <__divsi3+0x14a>
 8000378:	0989      	lsrs	r1, r1, #6
 800037a:	09c3      	lsrs	r3, r0, #7
 800037c:	428b      	cmp	r3, r1
 800037e:	d301      	bcc.n	8000384 <__divsi3+0x154>
 8000380:	01cb      	lsls	r3, r1, #7
 8000382:	1ac0      	subs	r0, r0, r3
 8000384:	4152      	adcs	r2, r2
 8000386:	0983      	lsrs	r3, r0, #6
 8000388:	428b      	cmp	r3, r1
 800038a:	d301      	bcc.n	8000390 <__divsi3+0x160>
 800038c:	018b      	lsls	r3, r1, #6
 800038e:	1ac0      	subs	r0, r0, r3
 8000390:	4152      	adcs	r2, r2
 8000392:	0943      	lsrs	r3, r0, #5
 8000394:	428b      	cmp	r3, r1
 8000396:	d301      	bcc.n	800039c <__divsi3+0x16c>
 8000398:	014b      	lsls	r3, r1, #5
 800039a:	1ac0      	subs	r0, r0, r3
 800039c:	4152      	adcs	r2, r2
 800039e:	0903      	lsrs	r3, r0, #4
 80003a0:	428b      	cmp	r3, r1
 80003a2:	d301      	bcc.n	80003a8 <__divsi3+0x178>
 80003a4:	010b      	lsls	r3, r1, #4
 80003a6:	1ac0      	subs	r0, r0, r3
 80003a8:	4152      	adcs	r2, r2
 80003aa:	08c3      	lsrs	r3, r0, #3
 80003ac:	428b      	cmp	r3, r1
 80003ae:	d301      	bcc.n	80003b4 <__divsi3+0x184>
 80003b0:	00cb      	lsls	r3, r1, #3
 80003b2:	1ac0      	subs	r0, r0, r3
 80003b4:	4152      	adcs	r2, r2
 80003b6:	0883      	lsrs	r3, r0, #2
 80003b8:	428b      	cmp	r3, r1
 80003ba:	d301      	bcc.n	80003c0 <__divsi3+0x190>
 80003bc:	008b      	lsls	r3, r1, #2
 80003be:	1ac0      	subs	r0, r0, r3
 80003c0:	4152      	adcs	r2, r2
 80003c2:	d2d9      	bcs.n	8000378 <__divsi3+0x148>
 80003c4:	0843      	lsrs	r3, r0, #1
 80003c6:	428b      	cmp	r3, r1
 80003c8:	d301      	bcc.n	80003ce <__divsi3+0x19e>
 80003ca:	004b      	lsls	r3, r1, #1
 80003cc:	1ac0      	subs	r0, r0, r3
 80003ce:	4152      	adcs	r2, r2
 80003d0:	1a41      	subs	r1, r0, r1
 80003d2:	d200      	bcs.n	80003d6 <__divsi3+0x1a6>
 80003d4:	4601      	mov	r1, r0
 80003d6:	4663      	mov	r3, ip
 80003d8:	4152      	adcs	r2, r2
 80003da:	105b      	asrs	r3, r3, #1
 80003dc:	4610      	mov	r0, r2
 80003de:	d301      	bcc.n	80003e4 <__divsi3+0x1b4>
 80003e0:	4240      	negs	r0, r0
 80003e2:	2b00      	cmp	r3, #0
 80003e4:	d500      	bpl.n	80003e8 <__divsi3+0x1b8>
 80003e6:	4249      	negs	r1, r1
 80003e8:	4770      	bx	lr
 80003ea:	4663      	mov	r3, ip
 80003ec:	105b      	asrs	r3, r3, #1
 80003ee:	d300      	bcc.n	80003f2 <__divsi3+0x1c2>
 80003f0:	4240      	negs	r0, r0
 80003f2:	b501      	push	{r0, lr}
 80003f4:	2000      	movs	r0, #0
 80003f6:	f000 f805 	bl	8000404 <__aeabi_idiv0>
 80003fa:	bd02      	pop	{r1, pc}

080003fc <__aeabi_idivmod>:
 80003fc:	2900      	cmp	r1, #0
 80003fe:	d0f8      	beq.n	80003f2 <__divsi3+0x1c2>
 8000400:	e716      	b.n	8000230 <__divsi3>
 8000402:	4770      	bx	lr

08000404 <__aeabi_idiv0>:
 8000404:	4770      	bx	lr
 8000406:	46c0      	nop			; (mov r8, r8)

08000408 <__aeabi_cfrcmple>:
 8000408:	4684      	mov	ip, r0
 800040a:	0008      	movs	r0, r1
 800040c:	4661      	mov	r1, ip
 800040e:	e7ff      	b.n	8000410 <__aeabi_cfcmpeq>

08000410 <__aeabi_cfcmpeq>:
 8000410:	b51f      	push	{r0, r1, r2, r3, r4, lr}
 8000412:	f000 f89f 	bl	8000554 <__lesf2>
 8000416:	2800      	cmp	r0, #0
 8000418:	d401      	bmi.n	800041e <__aeabi_cfcmpeq+0xe>
 800041a:	2100      	movs	r1, #0
 800041c:	42c8      	cmn	r0, r1
 800041e:	bd1f      	pop	{r0, r1, r2, r3, r4, pc}

08000420 <__aeabi_fcmpeq>:
 8000420:	b510      	push	{r4, lr}
 8000422:	f000 f82b 	bl	800047c <__eqsf2>
 8000426:	4240      	negs	r0, r0
 8000428:	3001      	adds	r0, #1
 800042a:	bd10      	pop	{r4, pc}

0800042c <__aeabi_fcmplt>:
 800042c:	b510      	push	{r4, lr}
 800042e:	f000 f891 	bl	8000554 <__lesf2>
 8000432:	2800      	cmp	r0, #0
 8000434:	db01      	blt.n	800043a <__aeabi_fcmplt+0xe>
 8000436:	2000      	movs	r0, #0
 8000438:	bd10      	pop	{r4, pc}
 800043a:	2001      	movs	r0, #1
 800043c:	bd10      	pop	{r4, pc}
 800043e:	46c0      	nop			; (mov r8, r8)

08000440 <__aeabi_fcmple>:
 8000440:	b510      	push	{r4, lr}
 8000442:	f000 f887 	bl	8000554 <__lesf2>
 8000446:	2800      	cmp	r0, #0
 8000448:	dd01      	ble.n	800044e <__aeabi_fcmple+0xe>
 800044a:	2000      	movs	r0, #0
 800044c:	bd10      	pop	{r4, pc}
 800044e:	2001      	movs	r0, #1
 8000450:	bd10      	pop	{r4, pc}
 8000452:	46c0      	nop			; (mov r8, r8)

08000454 <__aeabi_fcmpgt>:
 8000454:	b510      	push	{r4, lr}
 8000456:	f000 f837 	bl	80004c8 <__gesf2>
 800045a:	2800      	cmp	r0, #0
 800045c:	dc01      	bgt.n	8000462 <__aeabi_fcmpgt+0xe>
 800045e:	2000      	movs	r0, #0
 8000460:	bd10      	pop	{r4, pc}
 8000462:	2001      	movs	r0, #1
 8000464:	bd10      	pop	{r4, pc}
 8000466:	46c0      	nop			; (mov r8, r8)

08000468 <__aeabi_fcmpge>:
 8000468:	b510      	push	{r4, lr}
 800046a:	f000 f82d 	bl	80004c8 <__gesf2>
 800046e:	2800      	cmp	r0, #0
 8000470:	da01      	bge.n	8000476 <__aeabi_fcmpge+0xe>
 8000472:	2000      	movs	r0, #0
 8000474:	bd10      	pop	{r4, pc}
 8000476:	2001      	movs	r0, #1
 8000478:	bd10      	pop	{r4, pc}
 800047a:	46c0      	nop			; (mov r8, r8)

0800047c <__eqsf2>:
 800047c:	b570      	push	{r4, r5, r6, lr}
 800047e:	0042      	lsls	r2, r0, #1
 8000480:	0245      	lsls	r5, r0, #9
 8000482:	024e      	lsls	r6, r1, #9
 8000484:	004c      	lsls	r4, r1, #1
 8000486:	0fc3      	lsrs	r3, r0, #31
 8000488:	0a6d      	lsrs	r5, r5, #9
 800048a:	2001      	movs	r0, #1
 800048c:	0e12      	lsrs	r2, r2, #24
 800048e:	0a76      	lsrs	r6, r6, #9
 8000490:	0e24      	lsrs	r4, r4, #24
 8000492:	0fc9      	lsrs	r1, r1, #31
 8000494:	2aff      	cmp	r2, #255	; 0xff
 8000496:	d006      	beq.n	80004a6 <__eqsf2+0x2a>
 8000498:	2cff      	cmp	r4, #255	; 0xff
 800049a:	d003      	beq.n	80004a4 <__eqsf2+0x28>
 800049c:	42a2      	cmp	r2, r4
 800049e:	d101      	bne.n	80004a4 <__eqsf2+0x28>
 80004a0:	42b5      	cmp	r5, r6
 80004a2:	d006      	beq.n	80004b2 <__eqsf2+0x36>
 80004a4:	bd70      	pop	{r4, r5, r6, pc}
 80004a6:	2d00      	cmp	r5, #0
 80004a8:	d1fc      	bne.n	80004a4 <__eqsf2+0x28>
 80004aa:	2cff      	cmp	r4, #255	; 0xff
 80004ac:	d1fa      	bne.n	80004a4 <__eqsf2+0x28>
 80004ae:	2e00      	cmp	r6, #0
 80004b0:	d1f8      	bne.n	80004a4 <__eqsf2+0x28>
 80004b2:	428b      	cmp	r3, r1
 80004b4:	d006      	beq.n	80004c4 <__eqsf2+0x48>
 80004b6:	2001      	movs	r0, #1
 80004b8:	2a00      	cmp	r2, #0
 80004ba:	d1f3      	bne.n	80004a4 <__eqsf2+0x28>
 80004bc:	0028      	movs	r0, r5
 80004be:	1e43      	subs	r3, r0, #1
 80004c0:	4198      	sbcs	r0, r3
 80004c2:	e7ef      	b.n	80004a4 <__eqsf2+0x28>
 80004c4:	2000      	movs	r0, #0
 80004c6:	e7ed      	b.n	80004a4 <__eqsf2+0x28>

080004c8 <__gesf2>:
 80004c8:	b570      	push	{r4, r5, r6, lr}
 80004ca:	0042      	lsls	r2, r0, #1
 80004cc:	0245      	lsls	r5, r0, #9
 80004ce:	024e      	lsls	r6, r1, #9
 80004d0:	004c      	lsls	r4, r1, #1
 80004d2:	0fc3      	lsrs	r3, r0, #31
 80004d4:	0a6d      	lsrs	r5, r5, #9
 80004d6:	0e12      	lsrs	r2, r2, #24
 80004d8:	0a76      	lsrs	r6, r6, #9
 80004da:	0e24      	lsrs	r4, r4, #24
 80004dc:	0fc8      	lsrs	r0, r1, #31
 80004de:	2aff      	cmp	r2, #255	; 0xff
 80004e0:	d01b      	beq.n	800051a <__gesf2+0x52>
 80004e2:	2cff      	cmp	r4, #255	; 0xff
 80004e4:	d00e      	beq.n	8000504 <__gesf2+0x3c>
 80004e6:	2a00      	cmp	r2, #0
 80004e8:	d11b      	bne.n	8000522 <__gesf2+0x5a>
 80004ea:	2c00      	cmp	r4, #0
 80004ec:	d101      	bne.n	80004f2 <__gesf2+0x2a>
 80004ee:	2e00      	cmp	r6, #0
 80004f0:	d01c      	beq.n	800052c <__gesf2+0x64>
 80004f2:	2d00      	cmp	r5, #0
 80004f4:	d00c      	beq.n	8000510 <__gesf2+0x48>
 80004f6:	4283      	cmp	r3, r0
 80004f8:	d01c      	beq.n	8000534 <__gesf2+0x6c>
 80004fa:	2102      	movs	r1, #2
 80004fc:	1e58      	subs	r0, r3, #1
 80004fe:	4008      	ands	r0, r1
 8000500:	3801      	subs	r0, #1
 8000502:	bd70      	pop	{r4, r5, r6, pc}
 8000504:	2e00      	cmp	r6, #0
 8000506:	d122      	bne.n	800054e <__gesf2+0x86>
 8000508:	2a00      	cmp	r2, #0
 800050a:	d1f4      	bne.n	80004f6 <__gesf2+0x2e>
 800050c:	2d00      	cmp	r5, #0
 800050e:	d1f2      	bne.n	80004f6 <__gesf2+0x2e>
 8000510:	2800      	cmp	r0, #0
 8000512:	d1f6      	bne.n	8000502 <__gesf2+0x3a>
 8000514:	2001      	movs	r0, #1
 8000516:	4240      	negs	r0, r0
 8000518:	e7f3      	b.n	8000502 <__gesf2+0x3a>
 800051a:	2d00      	cmp	r5, #0
 800051c:	d117      	bne.n	800054e <__gesf2+0x86>
 800051e:	2cff      	cmp	r4, #255	; 0xff
 8000520:	d0f0      	beq.n	8000504 <__gesf2+0x3c>
 8000522:	2c00      	cmp	r4, #0
 8000524:	d1e7      	bne.n	80004f6 <__gesf2+0x2e>
 8000526:	2e00      	cmp	r6, #0
 8000528:	d1e5      	bne.n	80004f6 <__gesf2+0x2e>
 800052a:	e7e6      	b.n	80004fa <__gesf2+0x32>
 800052c:	2000      	movs	r0, #0
 800052e:	2d00      	cmp	r5, #0
 8000530:	d0e7      	beq.n	8000502 <__gesf2+0x3a>
 8000532:	e7e2      	b.n	80004fa <__gesf2+0x32>
 8000534:	42a2      	cmp	r2, r4
 8000536:	dc05      	bgt.n	8000544 <__gesf2+0x7c>
 8000538:	dbea      	blt.n	8000510 <__gesf2+0x48>
 800053a:	42b5      	cmp	r5, r6
 800053c:	d802      	bhi.n	8000544 <__gesf2+0x7c>
 800053e:	d3e7      	bcc.n	8000510 <__gesf2+0x48>
 8000540:	2000      	movs	r0, #0
 8000542:	e7de      	b.n	8000502 <__gesf2+0x3a>
 8000544:	4243      	negs	r3, r0
 8000546:	4158      	adcs	r0, r3
 8000548:	0040      	lsls	r0, r0, #1
 800054a:	3801      	subs	r0, #1
 800054c:	e7d9      	b.n	8000502 <__gesf2+0x3a>
 800054e:	2002      	movs	r0, #2
 8000550:	4240      	negs	r0, r0
 8000552:	e7d6      	b.n	8000502 <__gesf2+0x3a>

08000554 <__lesf2>:
 8000554:	b570      	push	{r4, r5, r6, lr}
 8000556:	0042      	lsls	r2, r0, #1
 8000558:	0245      	lsls	r5, r0, #9
 800055a:	024e      	lsls	r6, r1, #9
 800055c:	004c      	lsls	r4, r1, #1
 800055e:	0fc3      	lsrs	r3, r0, #31
 8000560:	0a6d      	lsrs	r5, r5, #9
 8000562:	0e12      	lsrs	r2, r2, #24
 8000564:	0a76      	lsrs	r6, r6, #9
 8000566:	0e24      	lsrs	r4, r4, #24
 8000568:	0fc8      	lsrs	r0, r1, #31
 800056a:	2aff      	cmp	r2, #255	; 0xff
 800056c:	d00b      	beq.n	8000586 <__lesf2+0x32>
 800056e:	2cff      	cmp	r4, #255	; 0xff
 8000570:	d00d      	beq.n	800058e <__lesf2+0x3a>
 8000572:	2a00      	cmp	r2, #0
 8000574:	d11f      	bne.n	80005b6 <__lesf2+0x62>
 8000576:	2c00      	cmp	r4, #0
 8000578:	d116      	bne.n	80005a8 <__lesf2+0x54>
 800057a:	2e00      	cmp	r6, #0
 800057c:	d114      	bne.n	80005a8 <__lesf2+0x54>
 800057e:	2000      	movs	r0, #0
 8000580:	2d00      	cmp	r5, #0
 8000582:	d010      	beq.n	80005a6 <__lesf2+0x52>
 8000584:	e009      	b.n	800059a <__lesf2+0x46>
 8000586:	2d00      	cmp	r5, #0
 8000588:	d10c      	bne.n	80005a4 <__lesf2+0x50>
 800058a:	2cff      	cmp	r4, #255	; 0xff
 800058c:	d113      	bne.n	80005b6 <__lesf2+0x62>
 800058e:	2e00      	cmp	r6, #0
 8000590:	d108      	bne.n	80005a4 <__lesf2+0x50>
 8000592:	2a00      	cmp	r2, #0
 8000594:	d008      	beq.n	80005a8 <__lesf2+0x54>
 8000596:	4283      	cmp	r3, r0
 8000598:	d012      	beq.n	80005c0 <__lesf2+0x6c>
 800059a:	2102      	movs	r1, #2
 800059c:	1e58      	subs	r0, r3, #1
 800059e:	4008      	ands	r0, r1
 80005a0:	3801      	subs	r0, #1
 80005a2:	e000      	b.n	80005a6 <__lesf2+0x52>
 80005a4:	2002      	movs	r0, #2
 80005a6:	bd70      	pop	{r4, r5, r6, pc}
 80005a8:	2d00      	cmp	r5, #0
 80005aa:	d1f4      	bne.n	8000596 <__lesf2+0x42>
 80005ac:	2800      	cmp	r0, #0
 80005ae:	d1fa      	bne.n	80005a6 <__lesf2+0x52>
 80005b0:	2001      	movs	r0, #1
 80005b2:	4240      	negs	r0, r0
 80005b4:	e7f7      	b.n	80005a6 <__lesf2+0x52>
 80005b6:	2c00      	cmp	r4, #0
 80005b8:	d1ed      	bne.n	8000596 <__lesf2+0x42>
 80005ba:	2e00      	cmp	r6, #0
 80005bc:	d1eb      	bne.n	8000596 <__lesf2+0x42>
 80005be:	e7ec      	b.n	800059a <__lesf2+0x46>
 80005c0:	42a2      	cmp	r2, r4
 80005c2:	dc05      	bgt.n	80005d0 <__lesf2+0x7c>
 80005c4:	dbf2      	blt.n	80005ac <__lesf2+0x58>
 80005c6:	42b5      	cmp	r5, r6
 80005c8:	d802      	bhi.n	80005d0 <__lesf2+0x7c>
 80005ca:	d3ef      	bcc.n	80005ac <__lesf2+0x58>
 80005cc:	2000      	movs	r0, #0
 80005ce:	e7ea      	b.n	80005a6 <__lesf2+0x52>
 80005d0:	4243      	negs	r3, r0
 80005d2:	4158      	adcs	r0, r3
 80005d4:	0040      	lsls	r0, r0, #1
 80005d6:	3801      	subs	r0, #1
 80005d8:	e7e5      	b.n	80005a6 <__lesf2+0x52>
 80005da:	46c0      	nop			; (mov r8, r8)

080005dc <__aeabi_i2f>:
 80005dc:	b5f8      	push	{r3, r4, r5, r6, r7, lr}
 80005de:	2800      	cmp	r0, #0
 80005e0:	d013      	beq.n	800060a <__aeabi_i2f+0x2e>
 80005e2:	17c3      	asrs	r3, r0, #31
 80005e4:	18c6      	adds	r6, r0, r3
 80005e6:	405e      	eors	r6, r3
 80005e8:	0fc4      	lsrs	r4, r0, #31
 80005ea:	0030      	movs	r0, r6
 80005ec:	f000 f844 	bl	8000678 <__clzsi2>
 80005f0:	239e      	movs	r3, #158	; 0x9e
 80005f2:	0005      	movs	r5, r0
 80005f4:	1a1b      	subs	r3, r3, r0
 80005f6:	2b96      	cmp	r3, #150	; 0x96
 80005f8:	dc0f      	bgt.n	800061a <__aeabi_i2f+0x3e>
 80005fa:	2808      	cmp	r0, #8
 80005fc:	dd01      	ble.n	8000602 <__aeabi_i2f+0x26>
 80005fe:	3d08      	subs	r5, #8
 8000600:	40ae      	lsls	r6, r5
 8000602:	0276      	lsls	r6, r6, #9
 8000604:	0a76      	lsrs	r6, r6, #9
 8000606:	b2d8      	uxtb	r0, r3
 8000608:	e002      	b.n	8000610 <__aeabi_i2f+0x34>
 800060a:	2400      	movs	r4, #0
 800060c:	2000      	movs	r0, #0
 800060e:	2600      	movs	r6, #0
 8000610:	05c0      	lsls	r0, r0, #23
 8000612:	4330      	orrs	r0, r6
 8000614:	07e4      	lsls	r4, r4, #31
 8000616:	4320      	orrs	r0, r4
 8000618:	bdf8      	pop	{r3, r4, r5, r6, r7, pc}
 800061a:	2b99      	cmp	r3, #153	; 0x99
 800061c:	dd0c      	ble.n	8000638 <__aeabi_i2f+0x5c>
 800061e:	2205      	movs	r2, #5
 8000620:	0031      	movs	r1, r6
 8000622:	1a12      	subs	r2, r2, r0
 8000624:	40d1      	lsrs	r1, r2
 8000626:	000a      	movs	r2, r1
 8000628:	0001      	movs	r1, r0
 800062a:	0030      	movs	r0, r6
 800062c:	311b      	adds	r1, #27
 800062e:	4088      	lsls	r0, r1
 8000630:	1e41      	subs	r1, r0, #1
 8000632:	4188      	sbcs	r0, r1
 8000634:	4302      	orrs	r2, r0
 8000636:	0016      	movs	r6, r2
 8000638:	2d05      	cmp	r5, #5
 800063a:	dc12      	bgt.n	8000662 <__aeabi_i2f+0x86>
 800063c:	0031      	movs	r1, r6
 800063e:	4f0d      	ldr	r7, [pc, #52]	; (8000674 <__aeabi_i2f+0x98>)
 8000640:	4039      	ands	r1, r7
 8000642:	0772      	lsls	r2, r6, #29
 8000644:	d009      	beq.n	800065a <__aeabi_i2f+0x7e>
 8000646:	200f      	movs	r0, #15
 8000648:	4030      	ands	r0, r6
 800064a:	2804      	cmp	r0, #4
 800064c:	d005      	beq.n	800065a <__aeabi_i2f+0x7e>
 800064e:	3104      	adds	r1, #4
 8000650:	014a      	lsls	r2, r1, #5
 8000652:	d502      	bpl.n	800065a <__aeabi_i2f+0x7e>
 8000654:	239f      	movs	r3, #159	; 0x9f
 8000656:	4039      	ands	r1, r7
 8000658:	1b5b      	subs	r3, r3, r5
 800065a:	0189      	lsls	r1, r1, #6
 800065c:	0a4e      	lsrs	r6, r1, #9
 800065e:	b2d8      	uxtb	r0, r3
 8000660:	e7d6      	b.n	8000610 <__aeabi_i2f+0x34>
 8000662:	1f6a      	subs	r2, r5, #5
 8000664:	4096      	lsls	r6, r2
 8000666:	0031      	movs	r1, r6
 8000668:	4f02      	ldr	r7, [pc, #8]	; (8000674 <__aeabi_i2f+0x98>)
 800066a:	4039      	ands	r1, r7
 800066c:	0772      	lsls	r2, r6, #29
 800066e:	d0f4      	beq.n	800065a <__aeabi_i2f+0x7e>
 8000670:	e7e9      	b.n	8000646 <__aeabi_i2f+0x6a>
 8000672:	46c0      	nop			; (mov r8, r8)
 8000674:	fbffffff 	.word	0xfbffffff

08000678 <__clzsi2>:
 8000678:	211c      	movs	r1, #28
 800067a:	2301      	movs	r3, #1
 800067c:	041b      	lsls	r3, r3, #16
 800067e:	4298      	cmp	r0, r3
 8000680:	d301      	bcc.n	8000686 <__clzsi2+0xe>
 8000682:	0c00      	lsrs	r0, r0, #16
 8000684:	3910      	subs	r1, #16
 8000686:	0a1b      	lsrs	r3, r3, #8
 8000688:	4298      	cmp	r0, r3
 800068a:	d301      	bcc.n	8000690 <__clzsi2+0x18>
 800068c:	0a00      	lsrs	r0, r0, #8
 800068e:	3908      	subs	r1, #8
 8000690:	091b      	lsrs	r3, r3, #4
 8000692:	4298      	cmp	r0, r3
 8000694:	d301      	bcc.n	800069a <__clzsi2+0x22>
 8000696:	0900      	lsrs	r0, r0, #4
 8000698:	3904      	subs	r1, #4
 800069a:	a202      	add	r2, pc, #8	; (adr r2, 80006a4 <__clzsi2+0x2c>)
 800069c:	5c10      	ldrb	r0, [r2, r0]
 800069e:	1840      	adds	r0, r0, r1
 80006a0:	4770      	bx	lr
 80006a2:	46c0      	nop			; (mov r8, r8)
 80006a4:	02020304 	.word	0x02020304
 80006a8:	01010101 	.word	0x01010101
	...

080006b4 <main>:

/**
  * @brief  The application entry point.
  * @retval int
  */
int main(void){
 80006b4:	b590      	push	{r4, r7, lr}
 80006b6:	b085      	sub	sp, #20
 80006b8:	af04      	add	r7, sp, #16
  /* USER CODE END 1 */

  /* MCU Configuration--------------------------------------------------------*/

  /* Reset of all peripherals, Initializes the Flash interface and the Systick. */
  HAL_Init();
 80006ba:	f000 fd0d 	bl	80010d8 <HAL_Init>
  /* USER CODE BEGIN Init */

  /* USER CODE END Init */

  /* Configure the system clock */
  SystemClock_Config();
 80006be:	f000 f86d 	bl	800079c <SystemClock_Config>
  /* USER CODE BEGIN SysInit */

  /* USER CODE END SysInit */

  /* Initialize all configured peripherals */
  MX_GPIO_Init();
 80006c2:	f000 f95b 	bl	800097c <MX_GPIO_Init>
  MX_I2C1_Init();
 80006c6:	f000 f8cb 	bl	8000860 <MX_I2C1_Init>
  MX_DMA_Init();
 80006ca:	f000 f939 	bl	8000940 <MX_DMA_Init>
  MX_USART2_UART_Init();
 80006ce:	f000 f907 	bl	80008e0 <MX_USART2_UART_Init>

  //TO DO
  //TASK 6
  //YOUR CODE HERE

  setTime(27, 2, 8, 6, 27, 12, 22);
 80006d2:	2316      	movs	r3, #22
 80006d4:	9302      	str	r3, [sp, #8]
 80006d6:	230c      	movs	r3, #12
 80006d8:	9301      	str	r3, [sp, #4]
 80006da:	231b      	movs	r3, #27
 80006dc:	9300      	str	r3, [sp, #0]
 80006de:	2306      	movs	r3, #6
 80006e0:	2208      	movs	r2, #8
 80006e2:	2102      	movs	r1, #2
 80006e4:	201b      	movs	r0, #27
 80006e6:	f000 fa25 	bl	8000b34 <setTime>
  {
    /* USER CODE END WHILE */
	//TO DO:
	//TASK 1
	//First run this with nothing else in the loop and scope pin PC8 on an oscilloscope
	pause_sec(1);
 80006ea:	23fe      	movs	r3, #254	; 0xfe
 80006ec:	059b      	lsls	r3, r3, #22
 80006ee:	1c18      	adds	r0, r3, #0
 80006f0:	f000 f9bc 	bl	8000a6c <pause_sec>
	HAL_GPIO_TogglePin(GPIOC, GPIO_PIN_8);
 80006f4:	2380      	movs	r3, #128	; 0x80
 80006f6:	005b      	lsls	r3, r3, #1
 80006f8:	4a21      	ldr	r2, [pc, #132]	; (8000780 <main+0xcc>)
 80006fa:	0019      	movs	r1, r3
 80006fc:	0010      	movs	r0, r2
 80006fe:	f001 f93e 	bl	800197e <HAL_GPIO_TogglePin>



	//YOUR CODE HERE

	getTime();
 8000702:	f000 fa81 	bl	8000c08 <getTime>
	sprintf(buffer, "%02d:%02d:%02d \r", time1.hour, time1.minutes, time1.seconds);
 8000706:	4b1f      	ldr	r3, [pc, #124]	; (8000784 <main+0xd0>)
 8000708:	789b      	ldrb	r3, [r3, #2]
 800070a:	001a      	movs	r2, r3
 800070c:	4b1d      	ldr	r3, [pc, #116]	; (8000784 <main+0xd0>)
 800070e:	785b      	ldrb	r3, [r3, #1]
 8000710:	001c      	movs	r4, r3
 8000712:	4b1c      	ldr	r3, [pc, #112]	; (8000784 <main+0xd0>)
 8000714:	781b      	ldrb	r3, [r3, #0]
 8000716:	491c      	ldr	r1, [pc, #112]	; (8000788 <main+0xd4>)
 8000718:	481c      	ldr	r0, [pc, #112]	; (800078c <main+0xd8>)
 800071a:	9300      	str	r3, [sp, #0]
 800071c:	0023      	movs	r3, r4
 800071e:	f003 fc45 	bl	8003fac <siprintf>
	HAL_UART_Transmit(&huart2, buffer, sizeof(buffer), 1000);
 8000722:	23fa      	movs	r3, #250	; 0xfa
 8000724:	009b      	lsls	r3, r3, #2
 8000726:	4919      	ldr	r1, [pc, #100]	; (800078c <main+0xd8>)
 8000728:	4819      	ldr	r0, [pc, #100]	; (8000790 <main+0xdc>)
 800072a:	2232      	movs	r2, #50	; 0x32
 800072c:	f002 fcc2 	bl	80030b4 <HAL_UART_Transmit>

	sprintf(buffer, "%02d-%02d-20%02d \r\n", time1.dayofmonth, time1.month, time1.year);
 8000730:	4b14      	ldr	r3, [pc, #80]	; (8000784 <main+0xd0>)
 8000732:	791b      	ldrb	r3, [r3, #4]
 8000734:	001a      	movs	r2, r3
 8000736:	4b13      	ldr	r3, [pc, #76]	; (8000784 <main+0xd0>)
 8000738:	795b      	ldrb	r3, [r3, #5]
 800073a:	001c      	movs	r4, r3
 800073c:	4b11      	ldr	r3, [pc, #68]	; (8000784 <main+0xd0>)
 800073e:	799b      	ldrb	r3, [r3, #6]
 8000740:	4914      	ldr	r1, [pc, #80]	; (8000794 <main+0xe0>)
 8000742:	4812      	ldr	r0, [pc, #72]	; (800078c <main+0xd8>)
 8000744:	9300      	str	r3, [sp, #0]
 8000746:	0023      	movs	r3, r4
 8000748:	f003 fc30 	bl	8003fac <siprintf>
	HAL_UART_Transmit(&huart2, buffer, sizeof(buffer), 1000);
 800074c:	23fa      	movs	r3, #250	; 0xfa
 800074e:	009b      	lsls	r3, r3, #2
 8000750:	490e      	ldr	r1, [pc, #56]	; (800078c <main+0xd8>)
 8000752:	480f      	ldr	r0, [pc, #60]	; (8000790 <main+0xdc>)
 8000754:	2232      	movs	r2, #50	; 0x32
 8000756:	f002 fcad 	bl	80030b4 <HAL_UART_Transmit>


	sprintf(buffer, "%d \r\n", epochFromTime(time1));
 800075a:	4b0a      	ldr	r3, [pc, #40]	; (8000784 <main+0xd0>)
 800075c:	6818      	ldr	r0, [r3, #0]
 800075e:	6859      	ldr	r1, [r3, #4]
 8000760:	f000 faaa 	bl	8000cb8 <epochFromTime>
 8000764:	0002      	movs	r2, r0
 8000766:	490c      	ldr	r1, [pc, #48]	; (8000798 <main+0xe4>)
 8000768:	4b08      	ldr	r3, [pc, #32]	; (800078c <main+0xd8>)
 800076a:	0018      	movs	r0, r3
 800076c:	f003 fc1e 	bl	8003fac <siprintf>
	HAL_UART_Transmit(&huart2, buffer, sizeof(buffer), 1000);
 8000770:	23fa      	movs	r3, #250	; 0xfa
 8000772:	009b      	lsls	r3, r3, #2
 8000774:	4905      	ldr	r1, [pc, #20]	; (800078c <main+0xd8>)
 8000776:	4806      	ldr	r0, [pc, #24]	; (8000790 <main+0xdc>)
 8000778:	2232      	movs	r2, #50	; 0x32
 800077a:	f002 fc9b 	bl	80030b4 <HAL_UART_Transmit>
	pause_sec(1);
 800077e:	e7b4      	b.n	80006ea <main+0x36>
 8000780:	48000800 	.word	0x48000800
 8000784:	200001d4 	.word	0x200001d4
 8000788:	08004898 	.word	0x08004898
 800078c:	200001a0 	.word	0x200001a0
 8000790:	200000d8 	.word	0x200000d8
 8000794:	080048ac 	.word	0x080048ac
 8000798:	080048c0 	.word	0x080048c0

0800079c <SystemClock_Config>:
/**
  * @brief System Clock Configuration
  * @retval None
  */
void SystemClock_Config(void)
{
 800079c:	b590      	push	{r4, r7, lr}
 800079e:	b097      	sub	sp, #92	; 0x5c
 80007a0:	af00      	add	r7, sp, #0
  RCC_OscInitTypeDef RCC_OscInitStruct = {0};
 80007a2:	2428      	movs	r4, #40	; 0x28
 80007a4:	193b      	adds	r3, r7, r4
 80007a6:	0018      	movs	r0, r3
 80007a8:	2330      	movs	r3, #48	; 0x30
 80007aa:	001a      	movs	r2, r3
 80007ac:	2100      	movs	r1, #0
 80007ae:	f003 fbf5 	bl	8003f9c <memset>
  RCC_ClkInitTypeDef RCC_ClkInitStruct = {0};
 80007b2:	2318      	movs	r3, #24
 80007b4:	18fb      	adds	r3, r7, r3
 80007b6:	0018      	movs	r0, r3
 80007b8:	2310      	movs	r3, #16
 80007ba:	001a      	movs	r2, r3
 80007bc:	2100      	movs	r1, #0
 80007be:	f003 fbed 	bl	8003f9c <memset>
  RCC_PeriphCLKInitTypeDef PeriphClkInit = {0};
 80007c2:	1d3b      	adds	r3, r7, #4
 80007c4:	0018      	movs	r0, r3
 80007c6:	2314      	movs	r3, #20
 80007c8:	001a      	movs	r2, r3
 80007ca:	2100      	movs	r1, #0
 80007cc:	f003 fbe6 	bl	8003f9c <memset>

  /** Initializes the RCC Oscillators according to the specified parameters
  * in the RCC_OscInitTypeDef structure.
  */
  RCC_OscInitStruct.OscillatorType = RCC_OSCILLATORTYPE_HSI;
 80007d0:	0021      	movs	r1, r4
 80007d2:	187b      	adds	r3, r7, r1
 80007d4:	2202      	movs	r2, #2
 80007d6:	601a      	str	r2, [r3, #0]
  RCC_OscInitStruct.HSIState = RCC_HSI_ON;
 80007d8:	187b      	adds	r3, r7, r1
 80007da:	2201      	movs	r2, #1
 80007dc:	60da      	str	r2, [r3, #12]
  RCC_OscInitStruct.HSICalibrationValue = RCC_HSICALIBRATION_DEFAULT;
 80007de:	187b      	adds	r3, r7, r1
 80007e0:	2210      	movs	r2, #16
 80007e2:	611a      	str	r2, [r3, #16]
  RCC_OscInitStruct.PLL.PLLState = RCC_PLL_ON;
 80007e4:	187b      	adds	r3, r7, r1
 80007e6:	2202      	movs	r2, #2
 80007e8:	621a      	str	r2, [r3, #32]
  RCC_OscInitStruct.PLL.PLLSource = RCC_PLLSOURCE_HSI;
 80007ea:	187b      	adds	r3, r7, r1
 80007ec:	2200      	movs	r2, #0
 80007ee:	625a      	str	r2, [r3, #36]	; 0x24
  RCC_OscInitStruct.PLL.PLLMUL = RCC_PLL_MUL12;
 80007f0:	187b      	adds	r3, r7, r1
 80007f2:	22a0      	movs	r2, #160	; 0xa0
 80007f4:	0392      	lsls	r2, r2, #14
 80007f6:	629a      	str	r2, [r3, #40]	; 0x28
  RCC_OscInitStruct.PLL.PREDIV = RCC_PREDIV_DIV1;
 80007f8:	187b      	adds	r3, r7, r1
 80007fa:	2200      	movs	r2, #0
 80007fc:	62da      	str	r2, [r3, #44]	; 0x2c
  if (HAL_RCC_OscConfig(&RCC_OscInitStruct) != HAL_OK)
 80007fe:	187b      	adds	r3, r7, r1
 8000800:	0018      	movs	r0, r3
 8000802:	f001 feb9 	bl	8002578 <HAL_RCC_OscConfig>
 8000806:	1e03      	subs	r3, r0, #0
 8000808:	d001      	beq.n	800080e <SystemClock_Config+0x72>
  {
    Error_Handler();
 800080a:	f000 fad9 	bl	8000dc0 <Error_Handler>
  }

  /** Initializes the CPU, AHB and APB buses clocks
  */
  RCC_ClkInitStruct.ClockType = RCC_CLOCKTYPE_HCLK|RCC_CLOCKTYPE_SYSCLK
 800080e:	2118      	movs	r1, #24
 8000810:	187b      	adds	r3, r7, r1
 8000812:	2207      	movs	r2, #7
 8000814:	601a      	str	r2, [r3, #0]
                              |RCC_CLOCKTYPE_PCLK1;
  RCC_ClkInitStruct.SYSCLKSource = RCC_SYSCLKSOURCE_PLLCLK;
 8000816:	187b      	adds	r3, r7, r1
 8000818:	2202      	movs	r2, #2
 800081a:	605a      	str	r2, [r3, #4]
  RCC_ClkInitStruct.AHBCLKDivider = RCC_SYSCLK_DIV1;
 800081c:	187b      	adds	r3, r7, r1
 800081e:	2200      	movs	r2, #0
 8000820:	609a      	str	r2, [r3, #8]
  RCC_ClkInitStruct.APB1CLKDivider = RCC_HCLK_DIV1;
 8000822:	187b      	adds	r3, r7, r1
 8000824:	2200      	movs	r2, #0
 8000826:	60da      	str	r2, [r3, #12]

  if (HAL_RCC_ClockConfig(&RCC_ClkInitStruct, FLASH_LATENCY_1) != HAL_OK)
 8000828:	187b      	adds	r3, r7, r1
 800082a:	2101      	movs	r1, #1
 800082c:	0018      	movs	r0, r3
 800082e:	f002 f9bd 	bl	8002bac <HAL_RCC_ClockConfig>
 8000832:	1e03      	subs	r3, r0, #0
 8000834:	d001      	beq.n	800083a <SystemClock_Config+0x9e>
  {
    Error_Handler();
 8000836:	f000 fac3 	bl	8000dc0 <Error_Handler>
  }
  PeriphClkInit.PeriphClockSelection = RCC_PERIPHCLK_I2C1;
 800083a:	1d3b      	adds	r3, r7, #4
 800083c:	2220      	movs	r2, #32
 800083e:	601a      	str	r2, [r3, #0]
  PeriphClkInit.I2c1ClockSelection = RCC_I2C1CLKSOURCE_HSI;
 8000840:	1d3b      	adds	r3, r7, #4
 8000842:	2200      	movs	r2, #0
 8000844:	60da      	str	r2, [r3, #12]
  if (HAL_RCCEx_PeriphCLKConfig(&PeriphClkInit) != HAL_OK)
 8000846:	1d3b      	adds	r3, r7, #4
 8000848:	0018      	movs	r0, r3
 800084a:	f002 fb01 	bl	8002e50 <HAL_RCCEx_PeriphCLKConfig>
 800084e:	1e03      	subs	r3, r0, #0
 8000850:	d001      	beq.n	8000856 <SystemClock_Config+0xba>
  {
    Error_Handler();
 8000852:	f000 fab5 	bl	8000dc0 <Error_Handler>
  }
}
 8000856:	46c0      	nop			; (mov r8, r8)
 8000858:	46bd      	mov	sp, r7
 800085a:	b017      	add	sp, #92	; 0x5c
 800085c:	bd90      	pop	{r4, r7, pc}
	...

08000860 <MX_I2C1_Init>:
  * @brief I2C1 Initialization Function
  * @param None
  * @retval None
  */
static void MX_I2C1_Init(void)
{
 8000860:	b580      	push	{r7, lr}
 8000862:	af00      	add	r7, sp, #0
  /* USER CODE END I2C1_Init 0 */

  /* USER CODE BEGIN I2C1_Init 1 */

  /* USER CODE END I2C1_Init 1 */
  hi2c1.Instance = I2C1;
 8000864:	4b1b      	ldr	r3, [pc, #108]	; (80008d4 <MX_I2C1_Init+0x74>)
 8000866:	4a1c      	ldr	r2, [pc, #112]	; (80008d8 <MX_I2C1_Init+0x78>)
 8000868:	601a      	str	r2, [r3, #0]
  hi2c1.Init.Timing = 0x2000090E;
 800086a:	4b1a      	ldr	r3, [pc, #104]	; (80008d4 <MX_I2C1_Init+0x74>)
 800086c:	4a1b      	ldr	r2, [pc, #108]	; (80008dc <MX_I2C1_Init+0x7c>)
 800086e:	605a      	str	r2, [r3, #4]
  hi2c1.Init.OwnAddress1 = 0;
 8000870:	4b18      	ldr	r3, [pc, #96]	; (80008d4 <MX_I2C1_Init+0x74>)
 8000872:	2200      	movs	r2, #0
 8000874:	609a      	str	r2, [r3, #8]
  hi2c1.Init.AddressingMode = I2C_ADDRESSINGMODE_7BIT;
 8000876:	4b17      	ldr	r3, [pc, #92]	; (80008d4 <MX_I2C1_Init+0x74>)
 8000878:	2201      	movs	r2, #1
 800087a:	60da      	str	r2, [r3, #12]
  hi2c1.Init.DualAddressMode = I2C_DUALADDRESS_DISABLE;
 800087c:	4b15      	ldr	r3, [pc, #84]	; (80008d4 <MX_I2C1_Init+0x74>)
 800087e:	2200      	movs	r2, #0
 8000880:	611a      	str	r2, [r3, #16]
  hi2c1.Init.OwnAddress2 = 0;
 8000882:	4b14      	ldr	r3, [pc, #80]	; (80008d4 <MX_I2C1_Init+0x74>)
 8000884:	2200      	movs	r2, #0
 8000886:	615a      	str	r2, [r3, #20]
  hi2c1.Init.OwnAddress2Masks = I2C_OA2_NOMASK;
 8000888:	4b12      	ldr	r3, [pc, #72]	; (80008d4 <MX_I2C1_Init+0x74>)
 800088a:	2200      	movs	r2, #0
 800088c:	619a      	str	r2, [r3, #24]
  hi2c1.Init.GeneralCallMode = I2C_GENERALCALL_DISABLE;
 800088e:	4b11      	ldr	r3, [pc, #68]	; (80008d4 <MX_I2C1_Init+0x74>)
 8000890:	2200      	movs	r2, #0
 8000892:	61da      	str	r2, [r3, #28]
  hi2c1.Init.NoStretchMode = I2C_NOSTRETCH_DISABLE;
 8000894:	4b0f      	ldr	r3, [pc, #60]	; (80008d4 <MX_I2C1_Init+0x74>)
 8000896:	2200      	movs	r2, #0
 8000898:	621a      	str	r2, [r3, #32]
  if (HAL_I2C_Init(&hi2c1) != HAL_OK)
 800089a:	4b0e      	ldr	r3, [pc, #56]	; (80008d4 <MX_I2C1_Init+0x74>)
 800089c:	0018      	movs	r0, r3
 800089e:	f001 f889 	bl	80019b4 <HAL_I2C_Init>
 80008a2:	1e03      	subs	r3, r0, #0
 80008a4:	d001      	beq.n	80008aa <MX_I2C1_Init+0x4a>
  {
    Error_Handler();
 80008a6:	f000 fa8b 	bl	8000dc0 <Error_Handler>
  }

  /** Configure Analogue filter
  */
  if (HAL_I2CEx_ConfigAnalogFilter(&hi2c1, I2C_ANALOGFILTER_ENABLE) != HAL_OK)
 80008aa:	4b0a      	ldr	r3, [pc, #40]	; (80008d4 <MX_I2C1_Init+0x74>)
 80008ac:	2100      	movs	r1, #0
 80008ae:	0018      	movs	r0, r3
 80008b0:	f001 fdca 	bl	8002448 <HAL_I2CEx_ConfigAnalogFilter>
 80008b4:	1e03      	subs	r3, r0, #0
 80008b6:	d001      	beq.n	80008bc <MX_I2C1_Init+0x5c>
  {
    Error_Handler();
 80008b8:	f000 fa82 	bl	8000dc0 <Error_Handler>
  }

  /** Configure Digital filter
  */
  if (HAL_I2CEx_ConfigDigitalFilter(&hi2c1, 0) != HAL_OK)
 80008bc:	4b05      	ldr	r3, [pc, #20]	; (80008d4 <MX_I2C1_Init+0x74>)
 80008be:	2100      	movs	r1, #0
 80008c0:	0018      	movs	r0, r3
 80008c2:	f001 fe0d 	bl	80024e0 <HAL_I2CEx_ConfigDigitalFilter>
 80008c6:	1e03      	subs	r3, r0, #0
 80008c8:	d001      	beq.n	80008ce <MX_I2C1_Init+0x6e>
  {
    Error_Handler();
 80008ca:	f000 fa79 	bl	8000dc0 <Error_Handler>
  }
  /* USER CODE BEGIN I2C1_Init 2 */

  /* USER CODE END I2C1_Init 2 */

}
 80008ce:	46c0      	nop			; (mov r8, r8)
 80008d0:	46bd      	mov	sp, r7
 80008d2:	bd80      	pop	{r7, pc}
 80008d4:	2000008c 	.word	0x2000008c
 80008d8:	40005400 	.word	0x40005400
 80008dc:	2000090e 	.word	0x2000090e

080008e0 <MX_USART2_UART_Init>:
  * @brief USART2 Initialization Function
  * @param None
  * @retval None
  */
static void MX_USART2_UART_Init(void)
{
 80008e0:	b580      	push	{r7, lr}
 80008e2:	af00      	add	r7, sp, #0
  /* USER CODE END USART2_Init 0 */

  /* USER CODE BEGIN USART2_Init 1 */

  /* USER CODE END USART2_Init 1 */
  huart2.Instance = USART2;
 80008e4:	4b14      	ldr	r3, [pc, #80]	; (8000938 <MX_USART2_UART_Init+0x58>)
 80008e6:	4a15      	ldr	r2, [pc, #84]	; (800093c <MX_USART2_UART_Init+0x5c>)
 80008e8:	601a      	str	r2, [r3, #0]
  huart2.Init.BaudRate = 9600;
 80008ea:	4b13      	ldr	r3, [pc, #76]	; (8000938 <MX_USART2_UART_Init+0x58>)
 80008ec:	2296      	movs	r2, #150	; 0x96
 80008ee:	0192      	lsls	r2, r2, #6
 80008f0:	605a      	str	r2, [r3, #4]
  huart2.Init.WordLength = UART_WORDLENGTH_8B;
 80008f2:	4b11      	ldr	r3, [pc, #68]	; (8000938 <MX_USART2_UART_Init+0x58>)
 80008f4:	2200      	movs	r2, #0
 80008f6:	609a      	str	r2, [r3, #8]
  huart2.Init.StopBits = UART_STOPBITS_1;
 80008f8:	4b0f      	ldr	r3, [pc, #60]	; (8000938 <MX_USART2_UART_Init+0x58>)
 80008fa:	2200      	movs	r2, #0
 80008fc:	60da      	str	r2, [r3, #12]
  huart2.Init.Parity = UART_PARITY_NONE;
 80008fe:	4b0e      	ldr	r3, [pc, #56]	; (8000938 <MX_USART2_UART_Init+0x58>)
 8000900:	2200      	movs	r2, #0
 8000902:	611a      	str	r2, [r3, #16]
  huart2.Init.Mode = UART_MODE_TX_RX;
 8000904:	4b0c      	ldr	r3, [pc, #48]	; (8000938 <MX_USART2_UART_Init+0x58>)
 8000906:	220c      	movs	r2, #12
 8000908:	615a      	str	r2, [r3, #20]
  huart2.Init.HwFlowCtl = UART_HWCONTROL_NONE;
 800090a:	4b0b      	ldr	r3, [pc, #44]	; (8000938 <MX_USART2_UART_Init+0x58>)
 800090c:	2200      	movs	r2, #0
 800090e:	619a      	str	r2, [r3, #24]
  huart2.Init.OverSampling = UART_OVERSAMPLING_16;
 8000910:	4b09      	ldr	r3, [pc, #36]	; (8000938 <MX_USART2_UART_Init+0x58>)
 8000912:	2200      	movs	r2, #0
 8000914:	61da      	str	r2, [r3, #28]
  huart2.Init.OneBitSampling = UART_ONE_BIT_SAMPLE_DISABLE;
 8000916:	4b08      	ldr	r3, [pc, #32]	; (8000938 <MX_USART2_UART_Init+0x58>)
 8000918:	2200      	movs	r2, #0
 800091a:	621a      	str	r2, [r3, #32]
  huart2.AdvancedInit.AdvFeatureInit = UART_ADVFEATURE_NO_INIT;
 800091c:	4b06      	ldr	r3, [pc, #24]	; (8000938 <MX_USART2_UART_Init+0x58>)
 800091e:	2200      	movs	r2, #0
 8000920:	625a      	str	r2, [r3, #36]	; 0x24
  if (HAL_UART_Init(&huart2) != HAL_OK)
 8000922:	4b05      	ldr	r3, [pc, #20]	; (8000938 <MX_USART2_UART_Init+0x58>)
 8000924:	0018      	movs	r0, r3
 8000926:	f002 fb71 	bl	800300c <HAL_UART_Init>
 800092a:	1e03      	subs	r3, r0, #0
 800092c:	d001      	beq.n	8000932 <MX_USART2_UART_Init+0x52>
  {
    Error_Handler();
 800092e:	f000 fa47 	bl	8000dc0 <Error_Handler>
  }
  /* USER CODE BEGIN USART2_Init 2 */

  /* USER CODE END USART2_Init 2 */

}
 8000932:	46c0      	nop			; (mov r8, r8)
 8000934:	46bd      	mov	sp, r7
 8000936:	bd80      	pop	{r7, pc}
 8000938:	200000d8 	.word	0x200000d8
 800093c:	40004400 	.word	0x40004400

08000940 <MX_DMA_Init>:

/**
  * Enable DMA controller clock
  */
static void MX_DMA_Init(void)
{
 8000940:	b580      	push	{r7, lr}
 8000942:	b082      	sub	sp, #8
 8000944:	af00      	add	r7, sp, #0

  /* DMA controller clock enable */
  __HAL_RCC_DMA1_CLK_ENABLE();
 8000946:	4b0c      	ldr	r3, [pc, #48]	; (8000978 <MX_DMA_Init+0x38>)
 8000948:	695a      	ldr	r2, [r3, #20]
 800094a:	4b0b      	ldr	r3, [pc, #44]	; (8000978 <MX_DMA_Init+0x38>)
 800094c:	2101      	movs	r1, #1
 800094e:	430a      	orrs	r2, r1
 8000950:	615a      	str	r2, [r3, #20]
 8000952:	4b09      	ldr	r3, [pc, #36]	; (8000978 <MX_DMA_Init+0x38>)
 8000954:	695b      	ldr	r3, [r3, #20]
 8000956:	2201      	movs	r2, #1
 8000958:	4013      	ands	r3, r2
 800095a:	607b      	str	r3, [r7, #4]
 800095c:	687b      	ldr	r3, [r7, #4]

  /* DMA interrupt init */
  /* DMA1_Channel4_5_IRQn interrupt configuration */
  HAL_NVIC_SetPriority(DMA1_Channel4_5_IRQn, 0, 0);
 800095e:	2200      	movs	r2, #0
 8000960:	2100      	movs	r1, #0
 8000962:	200b      	movs	r0, #11
 8000964:	f000 fcc8 	bl	80012f8 <HAL_NVIC_SetPriority>
  HAL_NVIC_EnableIRQ(DMA1_Channel4_5_IRQn);
 8000968:	200b      	movs	r0, #11
 800096a:	f000 fcda 	bl	8001322 <HAL_NVIC_EnableIRQ>

}
 800096e:	46c0      	nop			; (mov r8, r8)
 8000970:	46bd      	mov	sp, r7
 8000972:	b002      	add	sp, #8
 8000974:	bd80      	pop	{r7, pc}
 8000976:	46c0      	nop			; (mov r8, r8)
 8000978:	40021000 	.word	0x40021000

0800097c <MX_GPIO_Init>:
  * @brief GPIO Initialization Function
  * @param None
  * @retval None
  */
static void MX_GPIO_Init(void)
{
 800097c:	b590      	push	{r4, r7, lr}
 800097e:	b08b      	sub	sp, #44	; 0x2c
 8000980:	af00      	add	r7, sp, #0
  GPIO_InitTypeDef GPIO_InitStruct = {0};
 8000982:	2414      	movs	r4, #20
 8000984:	193b      	adds	r3, r7, r4
 8000986:	0018      	movs	r0, r3
 8000988:	2314      	movs	r3, #20
 800098a:	001a      	movs	r2, r3
 800098c:	2100      	movs	r1, #0
 800098e:	f003 fb05 	bl	8003f9c <memset>

  /* GPIO Ports Clock Enable */
  __HAL_RCC_GPIOF_CLK_ENABLE();
 8000992:	4b34      	ldr	r3, [pc, #208]	; (8000a64 <MX_GPIO_Init+0xe8>)
 8000994:	695a      	ldr	r2, [r3, #20]
 8000996:	4b33      	ldr	r3, [pc, #204]	; (8000a64 <MX_GPIO_Init+0xe8>)
 8000998:	2180      	movs	r1, #128	; 0x80
 800099a:	03c9      	lsls	r1, r1, #15
 800099c:	430a      	orrs	r2, r1
 800099e:	615a      	str	r2, [r3, #20]
 80009a0:	4b30      	ldr	r3, [pc, #192]	; (8000a64 <MX_GPIO_Init+0xe8>)
 80009a2:	695a      	ldr	r2, [r3, #20]
 80009a4:	2380      	movs	r3, #128	; 0x80
 80009a6:	03db      	lsls	r3, r3, #15
 80009a8:	4013      	ands	r3, r2
 80009aa:	613b      	str	r3, [r7, #16]
 80009ac:	693b      	ldr	r3, [r7, #16]
  __HAL_RCC_GPIOA_CLK_ENABLE();
 80009ae:	4b2d      	ldr	r3, [pc, #180]	; (8000a64 <MX_GPIO_Init+0xe8>)
 80009b0:	695a      	ldr	r2, [r3, #20]
 80009b2:	4b2c      	ldr	r3, [pc, #176]	; (8000a64 <MX_GPIO_Init+0xe8>)
 80009b4:	2180      	movs	r1, #128	; 0x80
 80009b6:	0289      	lsls	r1, r1, #10
 80009b8:	430a      	orrs	r2, r1
 80009ba:	615a      	str	r2, [r3, #20]
 80009bc:	4b29      	ldr	r3, [pc, #164]	; (8000a64 <MX_GPIO_Init+0xe8>)
 80009be:	695a      	ldr	r2, [r3, #20]
 80009c0:	2380      	movs	r3, #128	; 0x80
 80009c2:	029b      	lsls	r3, r3, #10
 80009c4:	4013      	ands	r3, r2
 80009c6:	60fb      	str	r3, [r7, #12]
 80009c8:	68fb      	ldr	r3, [r7, #12]
  __HAL_RCC_GPIOC_CLK_ENABLE();
 80009ca:	4b26      	ldr	r3, [pc, #152]	; (8000a64 <MX_GPIO_Init+0xe8>)
 80009cc:	695a      	ldr	r2, [r3, #20]
 80009ce:	4b25      	ldr	r3, [pc, #148]	; (8000a64 <MX_GPIO_Init+0xe8>)
 80009d0:	2180      	movs	r1, #128	; 0x80
 80009d2:	0309      	lsls	r1, r1, #12
 80009d4:	430a      	orrs	r2, r1
 80009d6:	615a      	str	r2, [r3, #20]
 80009d8:	4b22      	ldr	r3, [pc, #136]	; (8000a64 <MX_GPIO_Init+0xe8>)
 80009da:	695a      	ldr	r2, [r3, #20]
 80009dc:	2380      	movs	r3, #128	; 0x80
 80009de:	031b      	lsls	r3, r3, #12
 80009e0:	4013      	ands	r3, r2
 80009e2:	60bb      	str	r3, [r7, #8]
 80009e4:	68bb      	ldr	r3, [r7, #8]
  __HAL_RCC_GPIOB_CLK_ENABLE();
 80009e6:	4b1f      	ldr	r3, [pc, #124]	; (8000a64 <MX_GPIO_Init+0xe8>)
 80009e8:	695a      	ldr	r2, [r3, #20]
 80009ea:	4b1e      	ldr	r3, [pc, #120]	; (8000a64 <MX_GPIO_Init+0xe8>)
 80009ec:	2180      	movs	r1, #128	; 0x80
 80009ee:	02c9      	lsls	r1, r1, #11
 80009f0:	430a      	orrs	r2, r1
 80009f2:	615a      	str	r2, [r3, #20]
 80009f4:	4b1b      	ldr	r3, [pc, #108]	; (8000a64 <MX_GPIO_Init+0xe8>)
 80009f6:	695a      	ldr	r2, [r3, #20]
 80009f8:	2380      	movs	r3, #128	; 0x80
 80009fa:	02db      	lsls	r3, r3, #11
 80009fc:	4013      	ands	r3, r2
 80009fe:	607b      	str	r3, [r7, #4]
 8000a00:	687b      	ldr	r3, [r7, #4]

  /*Configure GPIO pin Output Level */
  HAL_GPIO_WritePin(GPIOC, LD4_Pin|LD3_Pin, GPIO_PIN_RESET);
 8000a02:	23c0      	movs	r3, #192	; 0xc0
 8000a04:	009b      	lsls	r3, r3, #2
 8000a06:	4818      	ldr	r0, [pc, #96]	; (8000a68 <MX_GPIO_Init+0xec>)
 8000a08:	2200      	movs	r2, #0
 8000a0a:	0019      	movs	r1, r3
 8000a0c:	f000 ff9a 	bl	8001944 <HAL_GPIO_WritePin>

  /*Configure GPIO pin : B1_Pin */
  GPIO_InitStruct.Pin = B1_Pin;
 8000a10:	193b      	adds	r3, r7, r4
 8000a12:	2201      	movs	r2, #1
 8000a14:	601a      	str	r2, [r3, #0]
  GPIO_InitStruct.Mode = GPIO_MODE_EVT_RISING;
 8000a16:	193b      	adds	r3, r7, r4
 8000a18:	2290      	movs	r2, #144	; 0x90
 8000a1a:	0352      	lsls	r2, r2, #13
 8000a1c:	605a      	str	r2, [r3, #4]
  GPIO_InitStruct.Pull = GPIO_NOPULL;
 8000a1e:	193b      	adds	r3, r7, r4
 8000a20:	2200      	movs	r2, #0
 8000a22:	609a      	str	r2, [r3, #8]
  HAL_GPIO_Init(B1_GPIO_Port, &GPIO_InitStruct);
 8000a24:	193a      	adds	r2, r7, r4
 8000a26:	2390      	movs	r3, #144	; 0x90
 8000a28:	05db      	lsls	r3, r3, #23
 8000a2a:	0011      	movs	r1, r2
 8000a2c:	0018      	movs	r0, r3
 8000a2e:	f000 fe19 	bl	8001664 <HAL_GPIO_Init>

  /*Configure GPIO pins : LD4_Pin LD3_Pin */
  GPIO_InitStruct.Pin = LD4_Pin|LD3_Pin;
 8000a32:	0021      	movs	r1, r4
 8000a34:	187b      	adds	r3, r7, r1
 8000a36:	22c0      	movs	r2, #192	; 0xc0
 8000a38:	0092      	lsls	r2, r2, #2
 8000a3a:	601a      	str	r2, [r3, #0]
  GPIO_InitStruct.Mode = GPIO_MODE_OUTPUT_PP;
 8000a3c:	187b      	adds	r3, r7, r1
 8000a3e:	2201      	movs	r2, #1
 8000a40:	605a      	str	r2, [r3, #4]
  GPIO_InitStruct.Pull = GPIO_NOPULL;
 8000a42:	187b      	adds	r3, r7, r1
 8000a44:	2200      	movs	r2, #0
 8000a46:	609a      	str	r2, [r3, #8]
  GPIO_InitStruct.Speed = GPIO_SPEED_FREQ_LOW;
 8000a48:	187b      	adds	r3, r7, r1
 8000a4a:	2200      	movs	r2, #0
 8000a4c:	60da      	str	r2, [r3, #12]
  HAL_GPIO_Init(GPIOC, &GPIO_InitStruct);
 8000a4e:	187b      	adds	r3, r7, r1
 8000a50:	4a05      	ldr	r2, [pc, #20]	; (8000a68 <MX_GPIO_Init+0xec>)
 8000a52:	0019      	movs	r1, r3
 8000a54:	0010      	movs	r0, r2
 8000a56:	f000 fe05 	bl	8001664 <HAL_GPIO_Init>

}
 8000a5a:	46c0      	nop			; (mov r8, r8)
 8000a5c:	46bd      	mov	sp, r7
 8000a5e:	b00b      	add	sp, #44	; 0x2c
 8000a60:	bd90      	pop	{r4, r7, pc}
 8000a62:	46c0      	nop			; (mov r8, r8)
 8000a64:	40021000 	.word	0x40021000
 8000a68:	48000800 	.word	0x48000800

08000a6c <pause_sec>:

/* USER CODE BEGIN 4 */
void pause_sec(float x)
{
 8000a6c:	b580      	push	{r7, lr}
 8000a6e:	b086      	sub	sp, #24
 8000a70:	af00      	add	r7, sp, #0
 8000a72:	6078      	str	r0, [r7, #4]
	//TO DO:
	//TASK 2
	//Make sure you've defined DELAY1 and DELAY2 in the private define section

	//YOUR CODE HERE
	for (int i = 0; i < x; i++) {
 8000a74:	2300      	movs	r3, #0
 8000a76:	617b      	str	r3, [r7, #20]
 8000a78:	e017      	b.n	8000aaa <pause_sec+0x3e>
		for (int j = 0; j < DELAY1; j++) {
 8000a7a:	2300      	movs	r3, #0
 8000a7c:	613b      	str	r3, [r7, #16]
 8000a7e:	e00c      	b.n	8000a9a <pause_sec+0x2e>
			for (int k = 0; k < DELAY2; k++) {
 8000a80:	2300      	movs	r3, #0
 8000a82:	60fb      	str	r3, [r7, #12]
 8000a84:	e002      	b.n	8000a8c <pause_sec+0x20>
 8000a86:	68fb      	ldr	r3, [r7, #12]
 8000a88:	3301      	adds	r3, #1
 8000a8a:	60fb      	str	r3, [r7, #12]
 8000a8c:	68fb      	ldr	r3, [r7, #12]
 8000a8e:	4a0e      	ldr	r2, [pc, #56]	; (8000ac8 <pause_sec+0x5c>)
 8000a90:	4293      	cmp	r3, r2
 8000a92:	ddf8      	ble.n	8000a86 <pause_sec+0x1a>
		for (int j = 0; j < DELAY1; j++) {
 8000a94:	693b      	ldr	r3, [r7, #16]
 8000a96:	3301      	adds	r3, #1
 8000a98:	613b      	str	r3, [r7, #16]
 8000a9a:	693a      	ldr	r2, [r7, #16]
 8000a9c:	23fa      	movs	r3, #250	; 0xfa
 8000a9e:	00db      	lsls	r3, r3, #3
 8000aa0:	429a      	cmp	r2, r3
 8000aa2:	dbed      	blt.n	8000a80 <pause_sec+0x14>
	for (int i = 0; i < x; i++) {
 8000aa4:	697b      	ldr	r3, [r7, #20]
 8000aa6:	3301      	adds	r3, #1
 8000aa8:	617b      	str	r3, [r7, #20]
 8000aaa:	6978      	ldr	r0, [r7, #20]
 8000aac:	f7ff fd96 	bl	80005dc <__aeabi_i2f>
 8000ab0:	1c03      	adds	r3, r0, #0
 8000ab2:	1c19      	adds	r1, r3, #0
 8000ab4:	6878      	ldr	r0, [r7, #4]
 8000ab6:	f7ff fccd 	bl	8000454 <__aeabi_fcmpgt>
 8000aba:	1e03      	subs	r3, r0, #0
 8000abc:	d1dd      	bne.n	8000a7a <pause_sec+0xe>
			}
		}
	}
}
 8000abe:	46c0      	nop			; (mov r8, r8)
 8000ac0:	46c0      	nop			; (mov r8, r8)
 8000ac2:	46bd      	mov	sp, r7
 8000ac4:	b006      	add	sp, #24
 8000ac6:	bd80      	pop	{r7, pc}
 8000ac8:	000004e1 	.word	0x000004e1

08000acc <decToBcd>:

uint8_t decToBcd(int val)
{
 8000acc:	b590      	push	{r4, r7, lr}
 8000ace:	b083      	sub	sp, #12
 8000ad0:	af00      	add	r7, sp, #0
 8000ad2:	6078      	str	r0, [r7, #4]
    /* Convert normal decimal numbers to binary coded decimal*/
	//TO DO:
	//TASK 3

	//YOUR CODE HERE
	return (uint8_t)((val/10*16) + (val%10));
 8000ad4:	687b      	ldr	r3, [r7, #4]
 8000ad6:	210a      	movs	r1, #10
 8000ad8:	0018      	movs	r0, r3
 8000ada:	f7ff fba9 	bl	8000230 <__divsi3>
 8000ade:	0003      	movs	r3, r0
 8000ae0:	b2db      	uxtb	r3, r3
 8000ae2:	011b      	lsls	r3, r3, #4
 8000ae4:	b2dc      	uxtb	r4, r3
 8000ae6:	687b      	ldr	r3, [r7, #4]
 8000ae8:	210a      	movs	r1, #10
 8000aea:	0018      	movs	r0, r3
 8000aec:	f7ff fc86 	bl	80003fc <__aeabi_idivmod>
 8000af0:	000b      	movs	r3, r1
 8000af2:	b2db      	uxtb	r3, r3
 8000af4:	18e3      	adds	r3, r4, r3
 8000af6:	b2db      	uxtb	r3, r3
}
 8000af8:	0018      	movs	r0, r3
 8000afa:	46bd      	mov	sp, r7
 8000afc:	b003      	add	sp, #12
 8000afe:	bd90      	pop	{r4, r7, pc}

08000b00 <bcdToDec>:


int bcdToDec(uint8_t val)
{
 8000b00:	b580      	push	{r7, lr}
 8000b02:	b082      	sub	sp, #8
 8000b04:	af00      	add	r7, sp, #0
 8000b06:	0002      	movs	r2, r0
 8000b08:	1dfb      	adds	r3, r7, #7
 8000b0a:	701a      	strb	r2, [r3, #0]
	//TO DO:
	//TASK 3
	//Complete the BCD to decimal function

	//YOUR CODE HERE
	return (int)((val/16*10) + (val%16));
 8000b0c:	1dfb      	adds	r3, r7, #7
 8000b0e:	781b      	ldrb	r3, [r3, #0]
 8000b10:	091b      	lsrs	r3, r3, #4
 8000b12:	b2db      	uxtb	r3, r3
 8000b14:	001a      	movs	r2, r3
 8000b16:	0013      	movs	r3, r2
 8000b18:	009b      	lsls	r3, r3, #2
 8000b1a:	189b      	adds	r3, r3, r2
 8000b1c:	005b      	lsls	r3, r3, #1
 8000b1e:	0019      	movs	r1, r3
 8000b20:	1dfb      	adds	r3, r7, #7
 8000b22:	781b      	ldrb	r3, [r3, #0]
 8000b24:	220f      	movs	r2, #15
 8000b26:	4013      	ands	r3, r2
 8000b28:	18cb      	adds	r3, r1, r3
}
 8000b2a:	0018      	movs	r0, r3
 8000b2c:	46bd      	mov	sp, r7
 8000b2e:	b002      	add	sp, #8
 8000b30:	bd80      	pop	{r7, pc}
	...

08000b34 <setTime>:

void setTime (uint8_t sec, uint8_t min, uint8_t hour, uint8_t dow, uint8_t dom, uint8_t month, uint8_t year)
{
 8000b34:	b5b0      	push	{r4, r5, r7, lr}
 8000b36:	b088      	sub	sp, #32
 8000b38:	af04      	add	r7, sp, #16
 8000b3a:	0005      	movs	r5, r0
 8000b3c:	000c      	movs	r4, r1
 8000b3e:	0010      	movs	r0, r2
 8000b40:	0019      	movs	r1, r3
 8000b42:	1dfb      	adds	r3, r7, #7
 8000b44:	1c2a      	adds	r2, r5, #0
 8000b46:	701a      	strb	r2, [r3, #0]
 8000b48:	1dbb      	adds	r3, r7, #6
 8000b4a:	1c22      	adds	r2, r4, #0
 8000b4c:	701a      	strb	r2, [r3, #0]
 8000b4e:	1d7b      	adds	r3, r7, #5
 8000b50:	1c02      	adds	r2, r0, #0
 8000b52:	701a      	strb	r2, [r3, #0]
 8000b54:	1d3b      	adds	r3, r7, #4
 8000b56:	1c0a      	adds	r2, r1, #0
 8000b58:	701a      	strb	r2, [r3, #0]

	uint8_t set_time[7];

	//YOUR CODE HERE

	set_time[0] = decToBcd(sec);
 8000b5a:	1dfb      	adds	r3, r7, #7
 8000b5c:	781b      	ldrb	r3, [r3, #0]
 8000b5e:	0018      	movs	r0, r3
 8000b60:	f7ff ffb4 	bl	8000acc <decToBcd>
 8000b64:	0003      	movs	r3, r0
 8000b66:	001a      	movs	r2, r3
 8000b68:	2408      	movs	r4, #8
 8000b6a:	193b      	adds	r3, r7, r4
 8000b6c:	701a      	strb	r2, [r3, #0]
	set_time[1] = decToBcd(min);
 8000b6e:	1dbb      	adds	r3, r7, #6
 8000b70:	781b      	ldrb	r3, [r3, #0]
 8000b72:	0018      	movs	r0, r3
 8000b74:	f7ff ffaa 	bl	8000acc <decToBcd>
 8000b78:	0003      	movs	r3, r0
 8000b7a:	001a      	movs	r2, r3
 8000b7c:	193b      	adds	r3, r7, r4
 8000b7e:	705a      	strb	r2, [r3, #1]
	set_time[2] = decToBcd(hour);
 8000b80:	1d7b      	adds	r3, r7, #5
 8000b82:	781b      	ldrb	r3, [r3, #0]
 8000b84:	0018      	movs	r0, r3
 8000b86:	f7ff ffa1 	bl	8000acc <decToBcd>
 8000b8a:	0003      	movs	r3, r0
 8000b8c:	001a      	movs	r2, r3
 8000b8e:	193b      	adds	r3, r7, r4
 8000b90:	709a      	strb	r2, [r3, #2]
	set_time[3] = decToBcd(dow);
 8000b92:	1d3b      	adds	r3, r7, #4
 8000b94:	781b      	ldrb	r3, [r3, #0]
 8000b96:	0018      	movs	r0, r3
 8000b98:	f7ff ff98 	bl	8000acc <decToBcd>
 8000b9c:	0003      	movs	r3, r0
 8000b9e:	001a      	movs	r2, r3
 8000ba0:	193b      	adds	r3, r7, r4
 8000ba2:	70da      	strb	r2, [r3, #3]
	set_time[4] = decToBcd(dom);
 8000ba4:	2320      	movs	r3, #32
 8000ba6:	18fb      	adds	r3, r7, r3
 8000ba8:	781b      	ldrb	r3, [r3, #0]
 8000baa:	0018      	movs	r0, r3
 8000bac:	f7ff ff8e 	bl	8000acc <decToBcd>
 8000bb0:	0003      	movs	r3, r0
 8000bb2:	001a      	movs	r2, r3
 8000bb4:	193b      	adds	r3, r7, r4
 8000bb6:	711a      	strb	r2, [r3, #4]
	set_time[5] = decToBcd(month);
 8000bb8:	2324      	movs	r3, #36	; 0x24
 8000bba:	18fb      	adds	r3, r7, r3
 8000bbc:	781b      	ldrb	r3, [r3, #0]
 8000bbe:	0018      	movs	r0, r3
 8000bc0:	f7ff ff84 	bl	8000acc <decToBcd>
 8000bc4:	0003      	movs	r3, r0
 8000bc6:	001a      	movs	r2, r3
 8000bc8:	193b      	adds	r3, r7, r4
 8000bca:	715a      	strb	r2, [r3, #5]
	set_time[6] = decToBcd(year);
 8000bcc:	2328      	movs	r3, #40	; 0x28
 8000bce:	18fb      	adds	r3, r7, r3
 8000bd0:	781b      	ldrb	r3, [r3, #0]
 8000bd2:	0018      	movs	r0, r3
 8000bd4:	f7ff ff7a 	bl	8000acc <decToBcd>
 8000bd8:	0003      	movs	r3, r0
 8000bda:	001a      	movs	r2, r3
 8000bdc:	193b      	adds	r3, r7, r4
 8000bde:	719a      	strb	r2, [r3, #6]

	//fill in the address of the RTC, the address of the first register to write anmd the size of each register
	//The function and RTC supports multiwrite. That means we can give the function a buffer and first address
	//and it will write 1 byte of data, increment the register address, write another byte and so on
	HAL_I2C_Mem_Write(&hi2c1, DS3231_ADDRESS, 0x00, 1, set_time, 7, 1000);
 8000be0:	4808      	ldr	r0, [pc, #32]	; (8000c04 <setTime+0xd0>)
 8000be2:	23fa      	movs	r3, #250	; 0xfa
 8000be4:	009b      	lsls	r3, r3, #2
 8000be6:	9302      	str	r3, [sp, #8]
 8000be8:	2307      	movs	r3, #7
 8000bea:	9301      	str	r3, [sp, #4]
 8000bec:	193b      	adds	r3, r7, r4
 8000bee:	9300      	str	r3, [sp, #0]
 8000bf0:	2301      	movs	r3, #1
 8000bf2:	2200      	movs	r2, #0
 8000bf4:	21d0      	movs	r1, #208	; 0xd0
 8000bf6:	f000 ff73 	bl	8001ae0 <HAL_I2C_Mem_Write>

}
 8000bfa:	46c0      	nop			; (mov r8, r8)
 8000bfc:	46bd      	mov	sp, r7
 8000bfe:	b004      	add	sp, #16
 8000c00:	bdb0      	pop	{r4, r5, r7, pc}
 8000c02:	46c0      	nop			; (mov r8, r8)
 8000c04:	2000008c 	.word	0x2000008c

08000c08 <getTime>:

void getTime (void)
{
 8000c08:	b580      	push	{r7, lr}
 8000c0a:	b086      	sub	sp, #24
 8000c0c:	af04      	add	r7, sp, #16
	uint8_t get_time[7];

	//fill in the address of the RTC, the address of the first register to write anmd the size of each register
	//The function and RTC supports multiread. That means we can give the function a buffer and first address
	//and it will read 1 byte of data, increment the register address, write another byte and so on
	HAL_I2C_Mem_Read(&hi2c1, DS3231_ADDRESS, 0x00, 1, get_time, 7, 1000);
 8000c0e:	4828      	ldr	r0, [pc, #160]	; (8000cb0 <getTime+0xa8>)
 8000c10:	23fa      	movs	r3, #250	; 0xfa
 8000c12:	009b      	lsls	r3, r3, #2
 8000c14:	9302      	str	r3, [sp, #8]
 8000c16:	2307      	movs	r3, #7
 8000c18:	9301      	str	r3, [sp, #4]
 8000c1a:	003b      	movs	r3, r7
 8000c1c:	9300      	str	r3, [sp, #0]
 8000c1e:	2301      	movs	r3, #1
 8000c20:	2200      	movs	r2, #0
 8000c22:	21d0      	movs	r1, #208	; 0xd0
 8000c24:	f001 f88a 	bl	8001d3c <HAL_I2C_Mem_Read>

	//YOUR CODE HERE
	time1.seconds = bcdToDec(get_time[0]);
 8000c28:	003b      	movs	r3, r7
 8000c2a:	781b      	ldrb	r3, [r3, #0]
 8000c2c:	0018      	movs	r0, r3
 8000c2e:	f7ff ff67 	bl	8000b00 <bcdToDec>
 8000c32:	0003      	movs	r3, r0
 8000c34:	b2da      	uxtb	r2, r3
 8000c36:	4b1f      	ldr	r3, [pc, #124]	; (8000cb4 <getTime+0xac>)
 8000c38:	701a      	strb	r2, [r3, #0]
	time1.minutes = bcdToDec(get_time[1]);
 8000c3a:	003b      	movs	r3, r7
 8000c3c:	785b      	ldrb	r3, [r3, #1]
 8000c3e:	0018      	movs	r0, r3
 8000c40:	f7ff ff5e 	bl	8000b00 <bcdToDec>
 8000c44:	0003      	movs	r3, r0
 8000c46:	b2da      	uxtb	r2, r3
 8000c48:	4b1a      	ldr	r3, [pc, #104]	; (8000cb4 <getTime+0xac>)
 8000c4a:	705a      	strb	r2, [r3, #1]
	time1.hour = bcdToDec(get_time[2]);
 8000c4c:	003b      	movs	r3, r7
 8000c4e:	789b      	ldrb	r3, [r3, #2]
 8000c50:	0018      	movs	r0, r3
 8000c52:	f7ff ff55 	bl	8000b00 <bcdToDec>
 8000c56:	0003      	movs	r3, r0
 8000c58:	b2da      	uxtb	r2, r3
 8000c5a:	4b16      	ldr	r3, [pc, #88]	; (8000cb4 <getTime+0xac>)
 8000c5c:	709a      	strb	r2, [r3, #2]
	time1.dayofweek = bcdToDec(get_time[3]);
 8000c5e:	003b      	movs	r3, r7
 8000c60:	78db      	ldrb	r3, [r3, #3]
 8000c62:	0018      	movs	r0, r3
 8000c64:	f7ff ff4c 	bl	8000b00 <bcdToDec>
 8000c68:	0003      	movs	r3, r0
 8000c6a:	b2da      	uxtb	r2, r3
 8000c6c:	4b11      	ldr	r3, [pc, #68]	; (8000cb4 <getTime+0xac>)
 8000c6e:	70da      	strb	r2, [r3, #3]
	time1.dayofmonth = bcdToDec(get_time[4]);
 8000c70:	003b      	movs	r3, r7
 8000c72:	791b      	ldrb	r3, [r3, #4]
 8000c74:	0018      	movs	r0, r3
 8000c76:	f7ff ff43 	bl	8000b00 <bcdToDec>
 8000c7a:	0003      	movs	r3, r0
 8000c7c:	b2da      	uxtb	r2, r3
 8000c7e:	4b0d      	ldr	r3, [pc, #52]	; (8000cb4 <getTime+0xac>)
 8000c80:	711a      	strb	r2, [r3, #4]
	time1.month = bcdToDec(get_time[5]);
 8000c82:	003b      	movs	r3, r7
 8000c84:	795b      	ldrb	r3, [r3, #5]
 8000c86:	0018      	movs	r0, r3
 8000c88:	f7ff ff3a 	bl	8000b00 <bcdToDec>
 8000c8c:	0003      	movs	r3, r0
 8000c8e:	b2da      	uxtb	r2, r3
 8000c90:	4b08      	ldr	r3, [pc, #32]	; (8000cb4 <getTime+0xac>)
 8000c92:	715a      	strb	r2, [r3, #5]
	time1.year = bcdToDec(get_time[6]);
 8000c94:	003b      	movs	r3, r7
 8000c96:	799b      	ldrb	r3, [r3, #6]
 8000c98:	0018      	movs	r0, r3
 8000c9a:	f7ff ff31 	bl	8000b00 <bcdToDec>
 8000c9e:	0003      	movs	r3, r0
 8000ca0:	b2da      	uxtb	r2, r3
 8000ca2:	4b04      	ldr	r3, [pc, #16]	; (8000cb4 <getTime+0xac>)
 8000ca4:	719a      	strb	r2, [r3, #6]

}
 8000ca6:	46c0      	nop			; (mov r8, r8)
 8000ca8:	46bd      	mov	sp, r7
 8000caa:	b002      	add	sp, #8
 8000cac:	bd80      	pop	{r7, pc}
 8000cae:	46c0      	nop			; (mov r8, r8)
 8000cb0:	2000008c 	.word	0x2000008c
 8000cb4:	200001d4 	.word	0x200001d4

08000cb8 <epochFromTime>:

int epochFromTime(TIME time1){
 8000cb8:	b580      	push	{r7, lr}
 8000cba:	b084      	sub	sp, #16
 8000cbc:	af00      	add	r7, sp, #0
 8000cbe:	003b      	movs	r3, r7
 8000cc0:	6018      	str	r0, [r3, #0]
 8000cc2:	6059      	str	r1, [r3, #4]
	//TASK 5
	//You have been given the epoch time for Saturday, January 1, 2022 12:00:00 AM GMT+02:00
	//It is define above as EPOCH_2022. You can work from that and ignore the effects of leap years/seconds

	//YOUR CODE HERE
	int result = time1.seconds + time1.minutes * 60 + time1.hour * 3600;
 8000cc4:	003b      	movs	r3, r7
 8000cc6:	781b      	ldrb	r3, [r3, #0]
 8000cc8:	0019      	movs	r1, r3
 8000cca:	003b      	movs	r3, r7
 8000ccc:	785b      	ldrb	r3, [r3, #1]
 8000cce:	001a      	movs	r2, r3
 8000cd0:	0013      	movs	r3, r2
 8000cd2:	011b      	lsls	r3, r3, #4
 8000cd4:	1a9b      	subs	r3, r3, r2
 8000cd6:	009b      	lsls	r3, r3, #2
 8000cd8:	18c9      	adds	r1, r1, r3
 8000cda:	003b      	movs	r3, r7
 8000cdc:	789b      	ldrb	r3, [r3, #2]
 8000cde:	001a      	movs	r2, r3
 8000ce0:	0013      	movs	r3, r2
 8000ce2:	011b      	lsls	r3, r3, #4
 8000ce4:	1a9b      	subs	r3, r3, r2
 8000ce6:	011a      	lsls	r2, r3, #4
 8000ce8:	1ad2      	subs	r2, r2, r3
 8000cea:	0113      	lsls	r3, r2, #4
 8000cec:	001a      	movs	r2, r3
 8000cee:	0013      	movs	r3, r2
 8000cf0:	18cb      	adds	r3, r1, r3
 8000cf2:	60bb      	str	r3, [r7, #8]
	int day = 0;
 8000cf4:	2300      	movs	r3, #0
 8000cf6:	60fb      	str	r3, [r7, #12]
	switch(time1.month){
 8000cf8:	003b      	movs	r3, r7
 8000cfa:	795b      	ldrb	r3, [r3, #5]
 8000cfc:	2b0c      	cmp	r3, #12
 8000cfe:	d833      	bhi.n	8000d68 <epochFromTime+0xb0>
 8000d00:	009a      	lsls	r2, r3, #2
 8000d02:	4b2d      	ldr	r3, [pc, #180]	; (8000db8 <epochFromTime+0x100>)
 8000d04:	18d3      	adds	r3, r2, r3
 8000d06:	681b      	ldr	r3, [r3, #0]
 8000d08:	469f      	mov	pc, r3
	case 1: //jan
			break;
	case 2: //feb
			day += 31;
 8000d0a:	68fb      	ldr	r3, [r7, #12]
 8000d0c:	331f      	adds	r3, #31
 8000d0e:	60fb      	str	r3, [r7, #12]
			break;
 8000d10:	e02a      	b.n	8000d68 <epochFromTime+0xb0>
	case 3: //mar
			day += 59;
 8000d12:	68fb      	ldr	r3, [r7, #12]
 8000d14:	333b      	adds	r3, #59	; 0x3b
 8000d16:	60fb      	str	r3, [r7, #12]
			break;
 8000d18:	e026      	b.n	8000d68 <epochFromTime+0xb0>
	case 4: //apr
			day += 90;
 8000d1a:	68fb      	ldr	r3, [r7, #12]
 8000d1c:	335a      	adds	r3, #90	; 0x5a
 8000d1e:	60fb      	str	r3, [r7, #12]
			break;
 8000d20:	e022      	b.n	8000d68 <epochFromTime+0xb0>
	case 5: //may
			day += 120;
 8000d22:	68fb      	ldr	r3, [r7, #12]
 8000d24:	3378      	adds	r3, #120	; 0x78
 8000d26:	60fb      	str	r3, [r7, #12]
			break;
 8000d28:	e01e      	b.n	8000d68 <epochFromTime+0xb0>
	case 6: //jun
			day += 151;
 8000d2a:	68fb      	ldr	r3, [r7, #12]
 8000d2c:	3397      	adds	r3, #151	; 0x97
 8000d2e:	60fb      	str	r3, [r7, #12]
			break;
 8000d30:	e01a      	b.n	8000d68 <epochFromTime+0xb0>
	case 7: //jul
			day += 181;
 8000d32:	68fb      	ldr	r3, [r7, #12]
 8000d34:	33b5      	adds	r3, #181	; 0xb5
 8000d36:	60fb      	str	r3, [r7, #12]
			break;
 8000d38:	e016      	b.n	8000d68 <epochFromTime+0xb0>
	case 8: //aug
			day += 212;
 8000d3a:	68fb      	ldr	r3, [r7, #12]
 8000d3c:	33d4      	adds	r3, #212	; 0xd4
 8000d3e:	60fb      	str	r3, [r7, #12]
			break;
 8000d40:	e012      	b.n	8000d68 <epochFromTime+0xb0>
	case 9: //sep
			day += 243;
 8000d42:	68fb      	ldr	r3, [r7, #12]
 8000d44:	33f3      	adds	r3, #243	; 0xf3
 8000d46:	60fb      	str	r3, [r7, #12]
			break;
 8000d48:	e00e      	b.n	8000d68 <epochFromTime+0xb0>
	case 10: //oct
			day += 273;
 8000d4a:	68fb      	ldr	r3, [r7, #12]
 8000d4c:	3312      	adds	r3, #18
 8000d4e:	33ff      	adds	r3, #255	; 0xff
 8000d50:	60fb      	str	r3, [r7, #12]
			break;
 8000d52:	e009      	b.n	8000d68 <epochFromTime+0xb0>
	case 11: //nov
			day += 304;
 8000d54:	68fb      	ldr	r3, [r7, #12]
 8000d56:	3331      	adds	r3, #49	; 0x31
 8000d58:	33ff      	adds	r3, #255	; 0xff
 8000d5a:	60fb      	str	r3, [r7, #12]
			break;
 8000d5c:	e004      	b.n	8000d68 <epochFromTime+0xb0>
	case 12: //dec
			day += 334;
 8000d5e:	68fb      	ldr	r3, [r7, #12]
 8000d60:	334f      	adds	r3, #79	; 0x4f
 8000d62:	33ff      	adds	r3, #255	; 0xff
 8000d64:	60fb      	str	r3, [r7, #12]
			break;
 8000d66:	46c0      	nop			; (mov r8, r8)
	default:
		day = day;
	}

	day += time1.dayofmonth + (time1.year - 22) * 365;
 8000d68:	003b      	movs	r3, r7
 8000d6a:	791b      	ldrb	r3, [r3, #4]
 8000d6c:	0019      	movs	r1, r3
 8000d6e:	003b      	movs	r3, r7
 8000d70:	799b      	ldrb	r3, [r3, #6]
 8000d72:	3b16      	subs	r3, #22
 8000d74:	001a      	movs	r2, r3
 8000d76:	0013      	movs	r3, r2
 8000d78:	00db      	lsls	r3, r3, #3
 8000d7a:	189b      	adds	r3, r3, r2
 8000d7c:	00db      	lsls	r3, r3, #3
 8000d7e:	189b      	adds	r3, r3, r2
 8000d80:	009a      	lsls	r2, r3, #2
 8000d82:	189b      	adds	r3, r3, r2
 8000d84:	18cb      	adds	r3, r1, r3
 8000d86:	68fa      	ldr	r2, [r7, #12]
 8000d88:	18d3      	adds	r3, r2, r3
 8000d8a:	60fb      	str	r3, [r7, #12]

	result += (day - 1) * 86400;
 8000d8c:	68fb      	ldr	r3, [r7, #12]
 8000d8e:	1e5a      	subs	r2, r3, #1
 8000d90:	0013      	movs	r3, r2
 8000d92:	005b      	lsls	r3, r3, #1
 8000d94:	189b      	adds	r3, r3, r2
 8000d96:	011a      	lsls	r2, r3, #4
 8000d98:	1ad2      	subs	r2, r2, r3
 8000d9a:	0113      	lsls	r3, r2, #4
 8000d9c:	1a9b      	subs	r3, r3, r2
 8000d9e:	01db      	lsls	r3, r3, #7
 8000da0:	001a      	movs	r2, r3
 8000da2:	68bb      	ldr	r3, [r7, #8]
 8000da4:	189b      	adds	r3, r3, r2
 8000da6:	60bb      	str	r3, [r7, #8]

	return EPOCH_2022 + result;
 8000da8:	68bb      	ldr	r3, [r7, #8]
 8000daa:	4a04      	ldr	r2, [pc, #16]	; (8000dbc <epochFromTime+0x104>)
 8000dac:	4694      	mov	ip, r2
 8000dae:	4463      	add	r3, ip
}
 8000db0:	0018      	movs	r0, r3
 8000db2:	46bd      	mov	sp, r7
 8000db4:	b004      	add	sp, #16
 8000db6:	bd80      	pop	{r7, pc}
 8000db8:	080048e8 	.word	0x080048e8
 8000dbc:	61cf7d60 	.word	0x61cf7d60

08000dc0 <Error_Handler>:
/**
  * @brief  This function is executed in case of error occurrence.
  * @retval None
  */
void Error_Handler(void)
{
 8000dc0:	b580      	push	{r7, lr}
 8000dc2:	af00      	add	r7, sp, #0
  \details Disables IRQ interrupts by setting the I-bit in the CPSR.
           Can only be executed in Privileged modes.
 */
__STATIC_FORCEINLINE void __disable_irq(void)
{
  __ASM volatile ("cpsid i" : : : "memory");
 8000dc4:	b672      	cpsid	i
}
 8000dc6:	46c0      	nop			; (mov r8, r8)
  /* USER CODE BEGIN Error_Handler_Debug */
  /* User can add his own implementation to report the HAL error return state */
  __disable_irq();
  while (1)
 8000dc8:	e7fe      	b.n	8000dc8 <Error_Handler+0x8>
	...

08000dcc <HAL_MspInit>:
/* USER CODE END 0 */
/**
  * Initializes the Global MSP.
  */
void HAL_MspInit(void)
{
 8000dcc:	b580      	push	{r7, lr}
 8000dce:	b082      	sub	sp, #8
 8000dd0:	af00      	add	r7, sp, #0
  /* USER CODE BEGIN MspInit 0 */

  /* USER CODE END MspInit 0 */

  __HAL_RCC_SYSCFG_CLK_ENABLE();
 8000dd2:	4b0f      	ldr	r3, [pc, #60]	; (8000e10 <HAL_MspInit+0x44>)
 8000dd4:	699a      	ldr	r2, [r3, #24]
 8000dd6:	4b0e      	ldr	r3, [pc, #56]	; (8000e10 <HAL_MspInit+0x44>)
 8000dd8:	2101      	movs	r1, #1
 8000dda:	430a      	orrs	r2, r1
 8000ddc:	619a      	str	r2, [r3, #24]
 8000dde:	4b0c      	ldr	r3, [pc, #48]	; (8000e10 <HAL_MspInit+0x44>)
 8000de0:	699b      	ldr	r3, [r3, #24]
 8000de2:	2201      	movs	r2, #1
 8000de4:	4013      	ands	r3, r2
 8000de6:	607b      	str	r3, [r7, #4]
 8000de8:	687b      	ldr	r3, [r7, #4]
  __HAL_RCC_PWR_CLK_ENABLE();
 8000dea:	4b09      	ldr	r3, [pc, #36]	; (8000e10 <HAL_MspInit+0x44>)
 8000dec:	69da      	ldr	r2, [r3, #28]
 8000dee:	4b08      	ldr	r3, [pc, #32]	; (8000e10 <HAL_MspInit+0x44>)
 8000df0:	2180      	movs	r1, #128	; 0x80
 8000df2:	0549      	lsls	r1, r1, #21
 8000df4:	430a      	orrs	r2, r1
 8000df6:	61da      	str	r2, [r3, #28]
 8000df8:	4b05      	ldr	r3, [pc, #20]	; (8000e10 <HAL_MspInit+0x44>)
 8000dfa:	69da      	ldr	r2, [r3, #28]
 8000dfc:	2380      	movs	r3, #128	; 0x80
 8000dfe:	055b      	lsls	r3, r3, #21
 8000e00:	4013      	ands	r3, r2
 8000e02:	603b      	str	r3, [r7, #0]
 8000e04:	683b      	ldr	r3, [r7, #0]
  /* System interrupt init*/

  /* USER CODE BEGIN MspInit 1 */

  /* USER CODE END MspInit 1 */
}
 8000e06:	46c0      	nop			; (mov r8, r8)
 8000e08:	46bd      	mov	sp, r7
 8000e0a:	b002      	add	sp, #8
 8000e0c:	bd80      	pop	{r7, pc}
 8000e0e:	46c0      	nop			; (mov r8, r8)
 8000e10:	40021000 	.word	0x40021000

08000e14 <HAL_I2C_MspInit>:
* This function configures the hardware resources used in this example
* @param hi2c: I2C handle pointer
* @retval None
*/
void HAL_I2C_MspInit(I2C_HandleTypeDef* hi2c)
{
 8000e14:	b590      	push	{r4, r7, lr}
 8000e16:	b08b      	sub	sp, #44	; 0x2c
 8000e18:	af00      	add	r7, sp, #0
 8000e1a:	6078      	str	r0, [r7, #4]
  GPIO_InitTypeDef GPIO_InitStruct = {0};
 8000e1c:	2414      	movs	r4, #20
 8000e1e:	193b      	adds	r3, r7, r4
 8000e20:	0018      	movs	r0, r3
 8000e22:	2314      	movs	r3, #20
 8000e24:	001a      	movs	r2, r3
 8000e26:	2100      	movs	r1, #0
 8000e28:	f003 f8b8 	bl	8003f9c <memset>
  if(hi2c->Instance==I2C1)
 8000e2c:	687b      	ldr	r3, [r7, #4]
 8000e2e:	681b      	ldr	r3, [r3, #0]
 8000e30:	4a1c      	ldr	r2, [pc, #112]	; (8000ea4 <HAL_I2C_MspInit+0x90>)
 8000e32:	4293      	cmp	r3, r2
 8000e34:	d131      	bne.n	8000e9a <HAL_I2C_MspInit+0x86>
  {
  /* USER CODE BEGIN I2C1_MspInit 0 */

  /* USER CODE END I2C1_MspInit 0 */

    __HAL_RCC_GPIOB_CLK_ENABLE();
 8000e36:	4b1c      	ldr	r3, [pc, #112]	; (8000ea8 <HAL_I2C_MspInit+0x94>)
 8000e38:	695a      	ldr	r2, [r3, #20]
 8000e3a:	4b1b      	ldr	r3, [pc, #108]	; (8000ea8 <HAL_I2C_MspInit+0x94>)
 8000e3c:	2180      	movs	r1, #128	; 0x80
 8000e3e:	02c9      	lsls	r1, r1, #11
 8000e40:	430a      	orrs	r2, r1
 8000e42:	615a      	str	r2, [r3, #20]
 8000e44:	4b18      	ldr	r3, [pc, #96]	; (8000ea8 <HAL_I2C_MspInit+0x94>)
 8000e46:	695a      	ldr	r2, [r3, #20]
 8000e48:	2380      	movs	r3, #128	; 0x80
 8000e4a:	02db      	lsls	r3, r3, #11
 8000e4c:	4013      	ands	r3, r2
 8000e4e:	613b      	str	r3, [r7, #16]
 8000e50:	693b      	ldr	r3, [r7, #16]
    /**I2C1 GPIO Configuration
    PB6     ------> I2C1_SCL
    PB7     ------> I2C1_SDA
    */
    GPIO_InitStruct.Pin = GPIO_PIN_6|GPIO_PIN_7;
 8000e52:	0021      	movs	r1, r4
 8000e54:	187b      	adds	r3, r7, r1
 8000e56:	22c0      	movs	r2, #192	; 0xc0
 8000e58:	601a      	str	r2, [r3, #0]
    GPIO_InitStruct.Mode = GPIO_MODE_AF_OD;
 8000e5a:	187b      	adds	r3, r7, r1
 8000e5c:	2212      	movs	r2, #18
 8000e5e:	605a      	str	r2, [r3, #4]
    GPIO_InitStruct.Pull = GPIO_NOPULL;
 8000e60:	187b      	adds	r3, r7, r1
 8000e62:	2200      	movs	r2, #0
 8000e64:	609a      	str	r2, [r3, #8]
    GPIO_InitStruct.Speed = GPIO_SPEED_FREQ_HIGH;
 8000e66:	187b      	adds	r3, r7, r1
 8000e68:	2203      	movs	r2, #3
 8000e6a:	60da      	str	r2, [r3, #12]
    GPIO_InitStruct.Alternate = GPIO_AF1_I2C1;
 8000e6c:	187b      	adds	r3, r7, r1
 8000e6e:	2201      	movs	r2, #1
 8000e70:	611a      	str	r2, [r3, #16]
    HAL_GPIO_Init(GPIOB, &GPIO_InitStruct);
 8000e72:	187b      	adds	r3, r7, r1
 8000e74:	4a0d      	ldr	r2, [pc, #52]	; (8000eac <HAL_I2C_MspInit+0x98>)
 8000e76:	0019      	movs	r1, r3
 8000e78:	0010      	movs	r0, r2
 8000e7a:	f000 fbf3 	bl	8001664 <HAL_GPIO_Init>

    /* Peripheral clock enable */
    __HAL_RCC_I2C1_CLK_ENABLE();
 8000e7e:	4b0a      	ldr	r3, [pc, #40]	; (8000ea8 <HAL_I2C_MspInit+0x94>)
 8000e80:	69da      	ldr	r2, [r3, #28]
 8000e82:	4b09      	ldr	r3, [pc, #36]	; (8000ea8 <HAL_I2C_MspInit+0x94>)
 8000e84:	2180      	movs	r1, #128	; 0x80
 8000e86:	0389      	lsls	r1, r1, #14
 8000e88:	430a      	orrs	r2, r1
 8000e8a:	61da      	str	r2, [r3, #28]
 8000e8c:	4b06      	ldr	r3, [pc, #24]	; (8000ea8 <HAL_I2C_MspInit+0x94>)
 8000e8e:	69da      	ldr	r2, [r3, #28]
 8000e90:	2380      	movs	r3, #128	; 0x80
 8000e92:	039b      	lsls	r3, r3, #14
 8000e94:	4013      	ands	r3, r2
 8000e96:	60fb      	str	r3, [r7, #12]
 8000e98:	68fb      	ldr	r3, [r7, #12]
  /* USER CODE BEGIN I2C1_MspInit 1 */

  /* USER CODE END I2C1_MspInit 1 */
  }

}
 8000e9a:	46c0      	nop			; (mov r8, r8)
 8000e9c:	46bd      	mov	sp, r7
 8000e9e:	b00b      	add	sp, #44	; 0x2c
 8000ea0:	bd90      	pop	{r4, r7, pc}
 8000ea2:	46c0      	nop			; (mov r8, r8)
 8000ea4:	40005400 	.word	0x40005400
 8000ea8:	40021000 	.word	0x40021000
 8000eac:	48000400 	.word	0x48000400

08000eb0 <HAL_UART_MspInit>:
* This function configures the hardware resources used in this example
* @param huart: UART handle pointer
* @retval None
*/
void HAL_UART_MspInit(UART_HandleTypeDef* huart)
{
 8000eb0:	b590      	push	{r4, r7, lr}
 8000eb2:	b08b      	sub	sp, #44	; 0x2c
 8000eb4:	af00      	add	r7, sp, #0
 8000eb6:	6078      	str	r0, [r7, #4]
  GPIO_InitTypeDef GPIO_InitStruct = {0};
 8000eb8:	2414      	movs	r4, #20
 8000eba:	193b      	adds	r3, r7, r4
 8000ebc:	0018      	movs	r0, r3
 8000ebe:	2314      	movs	r3, #20
 8000ec0:	001a      	movs	r2, r3
 8000ec2:	2100      	movs	r1, #0
 8000ec4:	f003 f86a 	bl	8003f9c <memset>
  if(huart->Instance==USART2)
 8000ec8:	687b      	ldr	r3, [r7, #4]
 8000eca:	681b      	ldr	r3, [r3, #0]
 8000ecc:	4a33      	ldr	r2, [pc, #204]	; (8000f9c <HAL_UART_MspInit+0xec>)
 8000ece:	4293      	cmp	r3, r2
 8000ed0:	d160      	bne.n	8000f94 <HAL_UART_MspInit+0xe4>
  {
  /* USER CODE BEGIN USART2_MspInit 0 */

  /* USER CODE END USART2_MspInit 0 */
    /* Peripheral clock enable */
    __HAL_RCC_USART2_CLK_ENABLE();
 8000ed2:	4b33      	ldr	r3, [pc, #204]	; (8000fa0 <HAL_UART_MspInit+0xf0>)
 8000ed4:	69da      	ldr	r2, [r3, #28]
 8000ed6:	4b32      	ldr	r3, [pc, #200]	; (8000fa0 <HAL_UART_MspInit+0xf0>)
 8000ed8:	2180      	movs	r1, #128	; 0x80
 8000eda:	0289      	lsls	r1, r1, #10
 8000edc:	430a      	orrs	r2, r1
 8000ede:	61da      	str	r2, [r3, #28]
 8000ee0:	4b2f      	ldr	r3, [pc, #188]	; (8000fa0 <HAL_UART_MspInit+0xf0>)
 8000ee2:	69da      	ldr	r2, [r3, #28]
 8000ee4:	2380      	movs	r3, #128	; 0x80
 8000ee6:	029b      	lsls	r3, r3, #10
 8000ee8:	4013      	ands	r3, r2
 8000eea:	613b      	str	r3, [r7, #16]
 8000eec:	693b      	ldr	r3, [r7, #16]

    __HAL_RCC_GPIOA_CLK_ENABLE();
 8000eee:	4b2c      	ldr	r3, [pc, #176]	; (8000fa0 <HAL_UART_MspInit+0xf0>)
 8000ef0:	695a      	ldr	r2, [r3, #20]
 8000ef2:	4b2b      	ldr	r3, [pc, #172]	; (8000fa0 <HAL_UART_MspInit+0xf0>)
 8000ef4:	2180      	movs	r1, #128	; 0x80
 8000ef6:	0289      	lsls	r1, r1, #10
 8000ef8:	430a      	orrs	r2, r1
 8000efa:	615a      	str	r2, [r3, #20]
 8000efc:	4b28      	ldr	r3, [pc, #160]	; (8000fa0 <HAL_UART_MspInit+0xf0>)
 8000efe:	695a      	ldr	r2, [r3, #20]
 8000f00:	2380      	movs	r3, #128	; 0x80
 8000f02:	029b      	lsls	r3, r3, #10
 8000f04:	4013      	ands	r3, r2
 8000f06:	60fb      	str	r3, [r7, #12]
 8000f08:	68fb      	ldr	r3, [r7, #12]
    /**USART2 GPIO Configuration
    PA2     ------> USART2_TX
    PA3     ------> USART2_RX
    */
    GPIO_InitStruct.Pin = GPIO_PIN_2|GPIO_PIN_3;
 8000f0a:	0021      	movs	r1, r4
 8000f0c:	187b      	adds	r3, r7, r1
 8000f0e:	220c      	movs	r2, #12
 8000f10:	601a      	str	r2, [r3, #0]
    GPIO_InitStruct.Mode = GPIO_MODE_AF_PP;
 8000f12:	187b      	adds	r3, r7, r1
 8000f14:	2202      	movs	r2, #2
 8000f16:	605a      	str	r2, [r3, #4]
    GPIO_InitStruct.Pull = GPIO_NOPULL;
 8000f18:	187b      	adds	r3, r7, r1
 8000f1a:	2200      	movs	r2, #0
 8000f1c:	609a      	str	r2, [r3, #8]
    GPIO_InitStruct.Speed = GPIO_SPEED_FREQ_HIGH;
 8000f1e:	187b      	adds	r3, r7, r1
 8000f20:	2203      	movs	r2, #3
 8000f22:	60da      	str	r2, [r3, #12]
    GPIO_InitStruct.Alternate = GPIO_AF1_USART2;
 8000f24:	187b      	adds	r3, r7, r1
 8000f26:	2201      	movs	r2, #1
 8000f28:	611a      	str	r2, [r3, #16]
    HAL_GPIO_Init(GPIOA, &GPIO_InitStruct);
 8000f2a:	187a      	adds	r2, r7, r1
 8000f2c:	2390      	movs	r3, #144	; 0x90
 8000f2e:	05db      	lsls	r3, r3, #23
 8000f30:	0011      	movs	r1, r2
 8000f32:	0018      	movs	r0, r3
 8000f34:	f000 fb96 	bl	8001664 <HAL_GPIO_Init>

    /* USART2 DMA Init */
    /* USART2_TX Init */
    hdma_usart2_tx.Instance = DMA1_Channel4;
 8000f38:	4b1a      	ldr	r3, [pc, #104]	; (8000fa4 <HAL_UART_MspInit+0xf4>)
 8000f3a:	4a1b      	ldr	r2, [pc, #108]	; (8000fa8 <HAL_UART_MspInit+0xf8>)
 8000f3c:	601a      	str	r2, [r3, #0]
    hdma_usart2_tx.Init.Direction = DMA_MEMORY_TO_PERIPH;
 8000f3e:	4b19      	ldr	r3, [pc, #100]	; (8000fa4 <HAL_UART_MspInit+0xf4>)
 8000f40:	2210      	movs	r2, #16
 8000f42:	605a      	str	r2, [r3, #4]
    hdma_usart2_tx.Init.PeriphInc = DMA_PINC_DISABLE;
 8000f44:	4b17      	ldr	r3, [pc, #92]	; (8000fa4 <HAL_UART_MspInit+0xf4>)
 8000f46:	2200      	movs	r2, #0
 8000f48:	609a      	str	r2, [r3, #8]
    hdma_usart2_tx.Init.MemInc = DMA_MINC_ENABLE;
 8000f4a:	4b16      	ldr	r3, [pc, #88]	; (8000fa4 <HAL_UART_MspInit+0xf4>)
 8000f4c:	2280      	movs	r2, #128	; 0x80
 8000f4e:	60da      	str	r2, [r3, #12]
    hdma_usart2_tx.Init.PeriphDataAlignment = DMA_PDATAALIGN_BYTE;
 8000f50:	4b14      	ldr	r3, [pc, #80]	; (8000fa4 <HAL_UART_MspInit+0xf4>)
 8000f52:	2200      	movs	r2, #0
 8000f54:	611a      	str	r2, [r3, #16]
    hdma_usart2_tx.Init.MemDataAlignment = DMA_MDATAALIGN_BYTE;
 8000f56:	4b13      	ldr	r3, [pc, #76]	; (8000fa4 <HAL_UART_MspInit+0xf4>)
 8000f58:	2200      	movs	r2, #0
 8000f5a:	615a      	str	r2, [r3, #20]
    hdma_usart2_tx.Init.Mode = DMA_NORMAL;
 8000f5c:	4b11      	ldr	r3, [pc, #68]	; (8000fa4 <HAL_UART_MspInit+0xf4>)
 8000f5e:	2200      	movs	r2, #0
 8000f60:	619a      	str	r2, [r3, #24]
    hdma_usart2_tx.Init.Priority = DMA_PRIORITY_LOW;
 8000f62:	4b10      	ldr	r3, [pc, #64]	; (8000fa4 <HAL_UART_MspInit+0xf4>)
 8000f64:	2200      	movs	r2, #0
 8000f66:	61da      	str	r2, [r3, #28]
    if (HAL_DMA_Init(&hdma_usart2_tx) != HAL_OK)
 8000f68:	4b0e      	ldr	r3, [pc, #56]	; (8000fa4 <HAL_UART_MspInit+0xf4>)
 8000f6a:	0018      	movs	r0, r3
 8000f6c:	f000 f9f6 	bl	800135c <HAL_DMA_Init>
 8000f70:	1e03      	subs	r3, r0, #0
 8000f72:	d001      	beq.n	8000f78 <HAL_UART_MspInit+0xc8>
    {
      Error_Handler();
 8000f74:	f7ff ff24 	bl	8000dc0 <Error_Handler>
    }

    __HAL_LINKDMA(huart,hdmatx,hdma_usart2_tx);
 8000f78:	687b      	ldr	r3, [r7, #4]
 8000f7a:	4a0a      	ldr	r2, [pc, #40]	; (8000fa4 <HAL_UART_MspInit+0xf4>)
 8000f7c:	66da      	str	r2, [r3, #108]	; 0x6c
 8000f7e:	4b09      	ldr	r3, [pc, #36]	; (8000fa4 <HAL_UART_MspInit+0xf4>)
 8000f80:	687a      	ldr	r2, [r7, #4]
 8000f82:	625a      	str	r2, [r3, #36]	; 0x24

    /* USART2 interrupt Init */
    HAL_NVIC_SetPriority(USART2_IRQn, 0, 0);
 8000f84:	2200      	movs	r2, #0
 8000f86:	2100      	movs	r1, #0
 8000f88:	201c      	movs	r0, #28
 8000f8a:	f000 f9b5 	bl	80012f8 <HAL_NVIC_SetPriority>
    HAL_NVIC_EnableIRQ(USART2_IRQn);
 8000f8e:	201c      	movs	r0, #28
 8000f90:	f000 f9c7 	bl	8001322 <HAL_NVIC_EnableIRQ>
  /* USER CODE BEGIN USART2_MspInit 1 */

  /* USER CODE END USART2_MspInit 1 */
  }

}
 8000f94:	46c0      	nop			; (mov r8, r8)
 8000f96:	46bd      	mov	sp, r7
 8000f98:	b00b      	add	sp, #44	; 0x2c
 8000f9a:	bd90      	pop	{r4, r7, pc}
 8000f9c:	40004400 	.word	0x40004400
 8000fa0:	40021000 	.word	0x40021000
 8000fa4:	2000015c 	.word	0x2000015c
 8000fa8:	40020044 	.word	0x40020044

08000fac <NMI_Handler>:
/******************************************************************************/
/**
  * @brief This function handles Non maskable interrupt.
  */
void NMI_Handler(void)
{
 8000fac:	b580      	push	{r7, lr}
 8000fae:	af00      	add	r7, sp, #0
  /* USER CODE BEGIN NonMaskableInt_IRQn 0 */

  /* USER CODE END NonMaskableInt_IRQn 0 */
  /* USER CODE BEGIN NonMaskableInt_IRQn 1 */
  while (1)
 8000fb0:	e7fe      	b.n	8000fb0 <NMI_Handler+0x4>

08000fb2 <HardFault_Handler>:

/**
  * @brief This function handles Hard fault interrupt.
  */
void HardFault_Handler(void)
{
 8000fb2:	b580      	push	{r7, lr}
 8000fb4:	af00      	add	r7, sp, #0
  /* USER CODE BEGIN HardFault_IRQn 0 */

  /* USER CODE END HardFault_IRQn 0 */
  while (1)
 8000fb6:	e7fe      	b.n	8000fb6 <HardFault_Handler+0x4>

08000fb8 <SVC_Handler>:

/**
  * @brief This function handles System service call via SWI instruction.
  */
void SVC_Handler(void)
{
 8000fb8:	b580      	push	{r7, lr}
 8000fba:	af00      	add	r7, sp, #0

  /* USER CODE END SVC_IRQn 0 */
  /* USER CODE BEGIN SVC_IRQn 1 */

  /* USER CODE END SVC_IRQn 1 */
}
 8000fbc:	46c0      	nop			; (mov r8, r8)
 8000fbe:	46bd      	mov	sp, r7
 8000fc0:	bd80      	pop	{r7, pc}

08000fc2 <PendSV_Handler>:

/**
  * @brief This function handles Pendable request for system service.
  */
void PendSV_Handler(void)
{
 8000fc2:	b580      	push	{r7, lr}
 8000fc4:	af00      	add	r7, sp, #0

  /* USER CODE END PendSV_IRQn 0 */
  /* USER CODE BEGIN PendSV_IRQn 1 */

  /* USER CODE END PendSV_IRQn 1 */
}
 8000fc6:	46c0      	nop			; (mov r8, r8)
 8000fc8:	46bd      	mov	sp, r7
 8000fca:	bd80      	pop	{r7, pc}

08000fcc <SysTick_Handler>:

/**
  * @brief This function handles System tick timer.
  */
void SysTick_Handler(void)
{
 8000fcc:	b580      	push	{r7, lr}
 8000fce:	af00      	add	r7, sp, #0
  /* USER CODE BEGIN SysTick_IRQn 0 */

  /* USER CODE END SysTick_IRQn 0 */
  HAL_IncTick();
 8000fd0:	f000 f8ca 	bl	8001168 <HAL_IncTick>
  /* USER CODE BEGIN SysTick_IRQn 1 */

  /* USER CODE END SysTick_IRQn 1 */
}
 8000fd4:	46c0      	nop			; (mov r8, r8)
 8000fd6:	46bd      	mov	sp, r7
 8000fd8:	bd80      	pop	{r7, pc}
	...

08000fdc <DMA1_Channel4_5_IRQHandler>:

/**
  * @brief This function handles DMA1 channel 4 and 5 interrupts.
  */
void DMA1_Channel4_5_IRQHandler(void)
{
 8000fdc:	b580      	push	{r7, lr}
 8000fde:	af00      	add	r7, sp, #0
  /* USER CODE BEGIN DMA1_Channel4_5_IRQn 0 */

  /* USER CODE END DMA1_Channel4_5_IRQn 0 */
  HAL_DMA_IRQHandler(&hdma_usart2_tx);
 8000fe0:	4b03      	ldr	r3, [pc, #12]	; (8000ff0 <DMA1_Channel4_5_IRQHandler+0x14>)
 8000fe2:	0018      	movs	r0, r3
 8000fe4:	f000 fa7f 	bl	80014e6 <HAL_DMA_IRQHandler>
  /* USER CODE BEGIN DMA1_Channel4_5_IRQn 1 */

  /* USER CODE END DMA1_Channel4_5_IRQn 1 */
}
 8000fe8:	46c0      	nop			; (mov r8, r8)
 8000fea:	46bd      	mov	sp, r7
 8000fec:	bd80      	pop	{r7, pc}
 8000fee:	46c0      	nop			; (mov r8, r8)
 8000ff0:	2000015c 	.word	0x2000015c

08000ff4 <USART2_IRQHandler>:

/**
  * @brief This function handles USART2 global interrupt.
  */
void USART2_IRQHandler(void)
{
 8000ff4:	b580      	push	{r7, lr}
 8000ff6:	af00      	add	r7, sp, #0
  /* USER CODE BEGIN USART2_IRQn 0 */

  /* USER CODE END USART2_IRQn 0 */
  HAL_UART_IRQHandler(&huart2);
 8000ff8:	4b03      	ldr	r3, [pc, #12]	; (8001008 <USART2_IRQHandler+0x14>)
 8000ffa:	0018      	movs	r0, r3
 8000ffc:	f002 f904 	bl	8003208 <HAL_UART_IRQHandler>
  /* USER CODE BEGIN USART2_IRQn 1 */

  /* USER CODE END USART2_IRQn 1 */
}
 8001000:	46c0      	nop			; (mov r8, r8)
 8001002:	46bd      	mov	sp, r7
 8001004:	bd80      	pop	{r7, pc}
 8001006:	46c0      	nop			; (mov r8, r8)
 8001008:	200000d8 	.word	0x200000d8

0800100c <_sbrk>:
 *
 * @param incr Memory size
 * @return Pointer to allocated memory
 */
void *_sbrk(ptrdiff_t incr)
{
 800100c:	b580      	push	{r7, lr}
 800100e:	b086      	sub	sp, #24
 8001010:	af00      	add	r7, sp, #0
 8001012:	6078      	str	r0, [r7, #4]
  extern uint8_t _end; /* Symbol defined in the linker script */
  extern uint8_t _estack; /* Symbol defined in the linker script */
  extern uint32_t _Min_Stack_Size; /* Symbol defined in the linker script */
  const uint32_t stack_limit = (uint32_t)&_estack - (uint32_t)&_Min_Stack_Size;
 8001014:	4a14      	ldr	r2, [pc, #80]	; (8001068 <_sbrk+0x5c>)
 8001016:	4b15      	ldr	r3, [pc, #84]	; (800106c <_sbrk+0x60>)
 8001018:	1ad3      	subs	r3, r2, r3
 800101a:	617b      	str	r3, [r7, #20]
  const uint8_t *max_heap = (uint8_t *)stack_limit;
 800101c:	697b      	ldr	r3, [r7, #20]
 800101e:	613b      	str	r3, [r7, #16]
  uint8_t *prev_heap_end;

  /* Initialize heap end at first call */
  if (NULL == __sbrk_heap_end)
 8001020:	4b13      	ldr	r3, [pc, #76]	; (8001070 <_sbrk+0x64>)
 8001022:	681b      	ldr	r3, [r3, #0]
 8001024:	2b00      	cmp	r3, #0
 8001026:	d102      	bne.n	800102e <_sbrk+0x22>
  {
    __sbrk_heap_end = &_end;
 8001028:	4b11      	ldr	r3, [pc, #68]	; (8001070 <_sbrk+0x64>)
 800102a:	4a12      	ldr	r2, [pc, #72]	; (8001074 <_sbrk+0x68>)
 800102c:	601a      	str	r2, [r3, #0]
  }

  /* Protect heap from growing into the reserved MSP stack */
  if (__sbrk_heap_end + incr > max_heap)
 800102e:	4b10      	ldr	r3, [pc, #64]	; (8001070 <_sbrk+0x64>)
 8001030:	681a      	ldr	r2, [r3, #0]
 8001032:	687b      	ldr	r3, [r7, #4]
 8001034:	18d3      	adds	r3, r2, r3
 8001036:	693a      	ldr	r2, [r7, #16]
 8001038:	429a      	cmp	r2, r3
 800103a:	d207      	bcs.n	800104c <_sbrk+0x40>
  {
    errno = ENOMEM;
 800103c:	f002 ff84 	bl	8003f48 <__errno>
 8001040:	0003      	movs	r3, r0
 8001042:	220c      	movs	r2, #12
 8001044:	601a      	str	r2, [r3, #0]
    return (void *)-1;
 8001046:	2301      	movs	r3, #1
 8001048:	425b      	negs	r3, r3
 800104a:	e009      	b.n	8001060 <_sbrk+0x54>
  }

  prev_heap_end = __sbrk_heap_end;
 800104c:	4b08      	ldr	r3, [pc, #32]	; (8001070 <_sbrk+0x64>)
 800104e:	681b      	ldr	r3, [r3, #0]
 8001050:	60fb      	str	r3, [r7, #12]
  __sbrk_heap_end += incr;
 8001052:	4b07      	ldr	r3, [pc, #28]	; (8001070 <_sbrk+0x64>)
 8001054:	681a      	ldr	r2, [r3, #0]
 8001056:	687b      	ldr	r3, [r7, #4]
 8001058:	18d2      	adds	r2, r2, r3
 800105a:	4b05      	ldr	r3, [pc, #20]	; (8001070 <_sbrk+0x64>)
 800105c:	601a      	str	r2, [r3, #0]

  return (void *)prev_heap_end;
 800105e:	68fb      	ldr	r3, [r7, #12]
}
 8001060:	0018      	movs	r0, r3
 8001062:	46bd      	mov	sp, r7
 8001064:	b006      	add	sp, #24
 8001066:	bd80      	pop	{r7, pc}
 8001068:	20002000 	.word	0x20002000
 800106c:	00000400 	.word	0x00000400
 8001070:	200001dc 	.word	0x200001dc
 8001074:	200001f8 	.word	0x200001f8

08001078 <SystemInit>:
  * @brief  Setup the microcontroller system
  * @param  None
  * @retval None
  */
void SystemInit(void)
{
 8001078:	b580      	push	{r7, lr}
 800107a:	af00      	add	r7, sp, #0
                         before branch to main program. This call is made inside
                         the "startup_stm32f0xx.s" file.
                         User can setups the default system clock (System clock source, PLL Multiplier
                         and Divider factors, AHB/APBx prescalers and Flash settings).
   */
}
 800107c:	46c0      	nop			; (mov r8, r8)
 800107e:	46bd      	mov	sp, r7
 8001080:	bd80      	pop	{r7, pc}
	...

08001084 <Reset_Handler>:

  .section .text.Reset_Handler
  .weak Reset_Handler
  .type Reset_Handler, %function
Reset_Handler:
  ldr   r0, =_estack
 8001084:	480d      	ldr	r0, [pc, #52]	; (80010bc <LoopForever+0x2>)
  mov   sp, r0          /* set stack pointer */
 8001086:	4685      	mov	sp, r0

/* Copy the data segment initializers from flash to SRAM */
  ldr r0, =_sdata
 8001088:	480d      	ldr	r0, [pc, #52]	; (80010c0 <LoopForever+0x6>)
  ldr r1, =_edata
 800108a:	490e      	ldr	r1, [pc, #56]	; (80010c4 <LoopForever+0xa>)
  ldr r2, =_sidata
 800108c:	4a0e      	ldr	r2, [pc, #56]	; (80010c8 <LoopForever+0xe>)
  movs r3, #0
 800108e:	2300      	movs	r3, #0
  b LoopCopyDataInit
 8001090:	e002      	b.n	8001098 <LoopCopyDataInit>

08001092 <CopyDataInit>:

CopyDataInit:
  ldr r4, [r2, r3]
 8001092:	58d4      	ldr	r4, [r2, r3]
  str r4, [r0, r3]
 8001094:	50c4      	str	r4, [r0, r3]
  adds r3, r3, #4
 8001096:	3304      	adds	r3, #4

08001098 <LoopCopyDataInit>:

LoopCopyDataInit:
  adds r4, r0, r3
 8001098:	18c4      	adds	r4, r0, r3
  cmp r4, r1
 800109a:	428c      	cmp	r4, r1
  bcc CopyDataInit
 800109c:	d3f9      	bcc.n	8001092 <CopyDataInit>
  
/* Zero fill the bss segment. */
  ldr r2, =_sbss
 800109e:	4a0b      	ldr	r2, [pc, #44]	; (80010cc <LoopForever+0x12>)
  ldr r4, =_ebss
 80010a0:	4c0b      	ldr	r4, [pc, #44]	; (80010d0 <LoopForever+0x16>)
  movs r3, #0
 80010a2:	2300      	movs	r3, #0
  b LoopFillZerobss
 80010a4:	e001      	b.n	80010aa <LoopFillZerobss>

080010a6 <FillZerobss>:

FillZerobss:
  str  r3, [r2]
 80010a6:	6013      	str	r3, [r2, #0]
  adds r2, r2, #4
 80010a8:	3204      	adds	r2, #4

080010aa <LoopFillZerobss>:

LoopFillZerobss:
  cmp r2, r4
 80010aa:	42a2      	cmp	r2, r4
  bcc FillZerobss
 80010ac:	d3fb      	bcc.n	80010a6 <FillZerobss>

/* Call the clock system intitialization function.*/
  bl  SystemInit
 80010ae:	f7ff ffe3 	bl	8001078 <SystemInit>
/* Call static constructors */
  bl __libc_init_array
 80010b2:	f002 ff4f 	bl	8003f54 <__libc_init_array>
/* Call the application's entry point.*/
  bl main
 80010b6:	f7ff fafd 	bl	80006b4 <main>

080010ba <LoopForever>:

LoopForever:
    b LoopForever
 80010ba:	e7fe      	b.n	80010ba <LoopForever>
  ldr   r0, =_estack
 80010bc:	20002000 	.word	0x20002000
  ldr r0, =_sdata
 80010c0:	20000000 	.word	0x20000000
  ldr r1, =_edata
 80010c4:	20000070 	.word	0x20000070
  ldr r2, =_sidata
 80010c8:	08004970 	.word	0x08004970
  ldr r2, =_sbss
 80010cc:	20000070 	.word	0x20000070
  ldr r4, =_ebss
 80010d0:	200001f4 	.word	0x200001f4

080010d4 <ADC1_COMP_IRQHandler>:
 * @retval : None
*/
    .section .text.Default_Handler,"ax",%progbits
Default_Handler:
Infinite_Loop:
  b Infinite_Loop
 80010d4:	e7fe      	b.n	80010d4 <ADC1_COMP_IRQHandler>
	...

080010d8 <HAL_Init>:
  *       In the default implementation,Systick is used as source of time base.
  *       The tick variable is incremented each 1ms in its ISR.
  * @retval HAL status
  */
HAL_StatusTypeDef HAL_Init(void)
{
 80010d8:	b580      	push	{r7, lr}
 80010da:	af00      	add	r7, sp, #0
  /* Configure Flash prefetch */ 
#if (PREFETCH_ENABLE != 0)
  __HAL_FLASH_PREFETCH_BUFFER_ENABLE();
 80010dc:	4b07      	ldr	r3, [pc, #28]	; (80010fc <HAL_Init+0x24>)
 80010de:	681a      	ldr	r2, [r3, #0]
 80010e0:	4b06      	ldr	r3, [pc, #24]	; (80010fc <HAL_Init+0x24>)
 80010e2:	2110      	movs	r1, #16
 80010e4:	430a      	orrs	r2, r1
 80010e6:	601a      	str	r2, [r3, #0]
#endif /* PREFETCH_ENABLE */

  /* Use systick as time base source and configure 1ms tick (default clock after Reset is HSI) */

  HAL_InitTick(TICK_INT_PRIORITY);
 80010e8:	2000      	movs	r0, #0
 80010ea:	f000 f809 	bl	8001100 <HAL_InitTick>

  /* Init the low level hardware */
  HAL_MspInit();
 80010ee:	f7ff fe6d 	bl	8000dcc <HAL_MspInit>

  /* Return function status */
  return HAL_OK;
 80010f2:	2300      	movs	r3, #0
}
 80010f4:	0018      	movs	r0, r3
 80010f6:	46bd      	mov	sp, r7
 80010f8:	bd80      	pop	{r7, pc}
 80010fa:	46c0      	nop			; (mov r8, r8)
 80010fc:	40022000 	.word	0x40022000

08001100 <HAL_InitTick>:
  *       implementation  in user file.
  * @param TickPriority Tick interrupt priority.
  * @retval HAL status
  */
__weak HAL_StatusTypeDef HAL_InitTick(uint32_t TickPriority)
{
 8001100:	b590      	push	{r4, r7, lr}
 8001102:	b083      	sub	sp, #12
 8001104:	af00      	add	r7, sp, #0
 8001106:	6078      	str	r0, [r7, #4]
  /*Configure the SysTick to have interrupt in 1ms time basis*/
  if (HAL_SYSTICK_Config(SystemCoreClock / (1000U / uwTickFreq)) > 0U)
 8001108:	4b14      	ldr	r3, [pc, #80]	; (800115c <HAL_InitTick+0x5c>)
 800110a:	681c      	ldr	r4, [r3, #0]
 800110c:	4b14      	ldr	r3, [pc, #80]	; (8001160 <HAL_InitTick+0x60>)
 800110e:	781b      	ldrb	r3, [r3, #0]
 8001110:	0019      	movs	r1, r3
 8001112:	23fa      	movs	r3, #250	; 0xfa
 8001114:	0098      	lsls	r0, r3, #2
 8001116:	f7ff f801 	bl	800011c <__udivsi3>
 800111a:	0003      	movs	r3, r0
 800111c:	0019      	movs	r1, r3
 800111e:	0020      	movs	r0, r4
 8001120:	f7fe fffc 	bl	800011c <__udivsi3>
 8001124:	0003      	movs	r3, r0
 8001126:	0018      	movs	r0, r3
 8001128:	f000 f90b 	bl	8001342 <HAL_SYSTICK_Config>
 800112c:	1e03      	subs	r3, r0, #0
 800112e:	d001      	beq.n	8001134 <HAL_InitTick+0x34>
  {
    return HAL_ERROR;
 8001130:	2301      	movs	r3, #1
 8001132:	e00f      	b.n	8001154 <HAL_InitTick+0x54>
  }

  /* Configure the SysTick IRQ priority */
  if (TickPriority < (1UL << __NVIC_PRIO_BITS))
 8001134:	687b      	ldr	r3, [r7, #4]
 8001136:	2b03      	cmp	r3, #3
 8001138:	d80b      	bhi.n	8001152 <HAL_InitTick+0x52>
  {
    HAL_NVIC_SetPriority(SysTick_IRQn, TickPriority, 0U);
 800113a:	6879      	ldr	r1, [r7, #4]
 800113c:	2301      	movs	r3, #1
 800113e:	425b      	negs	r3, r3
 8001140:	2200      	movs	r2, #0
 8001142:	0018      	movs	r0, r3
 8001144:	f000 f8d8 	bl	80012f8 <HAL_NVIC_SetPriority>
    uwTickPrio = TickPriority;
 8001148:	4b06      	ldr	r3, [pc, #24]	; (8001164 <HAL_InitTick+0x64>)
 800114a:	687a      	ldr	r2, [r7, #4]
 800114c:	601a      	str	r2, [r3, #0]
  {
    return HAL_ERROR;
  }

   /* Return function status */
  return HAL_OK;
 800114e:	2300      	movs	r3, #0
 8001150:	e000      	b.n	8001154 <HAL_InitTick+0x54>
    return HAL_ERROR;
 8001152:	2301      	movs	r3, #1
}
 8001154:	0018      	movs	r0, r3
 8001156:	46bd      	mov	sp, r7
 8001158:	b003      	add	sp, #12
 800115a:	bd90      	pop	{r4, r7, pc}
 800115c:	20000000 	.word	0x20000000
 8001160:	20000008 	.word	0x20000008
 8001164:	20000004 	.word	0x20000004

08001168 <HAL_IncTick>:
  * @note This function is declared as __weak to be overwritten in case of other 
  *       implementations in user file.
  * @retval None
  */
__weak void HAL_IncTick(void)
{
 8001168:	b580      	push	{r7, lr}
 800116a:	af00      	add	r7, sp, #0
  uwTick += uwTickFreq;
 800116c:	4b05      	ldr	r3, [pc, #20]	; (8001184 <HAL_IncTick+0x1c>)
 800116e:	781b      	ldrb	r3, [r3, #0]
 8001170:	001a      	movs	r2, r3
 8001172:	4b05      	ldr	r3, [pc, #20]	; (8001188 <HAL_IncTick+0x20>)
 8001174:	681b      	ldr	r3, [r3, #0]
 8001176:	18d2      	adds	r2, r2, r3
 8001178:	4b03      	ldr	r3, [pc, #12]	; (8001188 <HAL_IncTick+0x20>)
 800117a:	601a      	str	r2, [r3, #0]
}
 800117c:	46c0      	nop			; (mov r8, r8)
 800117e:	46bd      	mov	sp, r7
 8001180:	bd80      	pop	{r7, pc}
 8001182:	46c0      	nop			; (mov r8, r8)
 8001184:	20000008 	.word	0x20000008
 8001188:	200001e0 	.word	0x200001e0

0800118c <HAL_GetTick>:
  * @note   This function is declared as __weak  to be overwritten  in case of other 
  *       implementations in user file.
  * @retval tick value
  */
__weak uint32_t HAL_GetTick(void)
{
 800118c:	b580      	push	{r7, lr}
 800118e:	af00      	add	r7, sp, #0
  return uwTick;
 8001190:	4b02      	ldr	r3, [pc, #8]	; (800119c <HAL_GetTick+0x10>)
 8001192:	681b      	ldr	r3, [r3, #0]
}
 8001194:	0018      	movs	r0, r3
 8001196:	46bd      	mov	sp, r7
 8001198:	bd80      	pop	{r7, pc}
 800119a:	46c0      	nop			; (mov r8, r8)
 800119c:	200001e0 	.word	0x200001e0

080011a0 <__NVIC_EnableIRQ>:
  \details Enables a device specific interrupt in the NVIC interrupt controller.
  \param [in]      IRQn  Device specific interrupt number.
  \note    IRQn must not be negative.
 */
__STATIC_INLINE void __NVIC_EnableIRQ(IRQn_Type IRQn)
{
 80011a0:	b580      	push	{r7, lr}
 80011a2:	b082      	sub	sp, #8
 80011a4:	af00      	add	r7, sp, #0
 80011a6:	0002      	movs	r2, r0
 80011a8:	1dfb      	adds	r3, r7, #7
 80011aa:	701a      	strb	r2, [r3, #0]
  if ((int32_t)(IRQn) >= 0)
 80011ac:	1dfb      	adds	r3, r7, #7
 80011ae:	781b      	ldrb	r3, [r3, #0]
 80011b0:	2b7f      	cmp	r3, #127	; 0x7f
 80011b2:	d809      	bhi.n	80011c8 <__NVIC_EnableIRQ+0x28>
  {
    NVIC->ISER[0U] = (uint32_t)(1UL << (((uint32_t)IRQn) & 0x1FUL));
 80011b4:	1dfb      	adds	r3, r7, #7
 80011b6:	781b      	ldrb	r3, [r3, #0]
 80011b8:	001a      	movs	r2, r3
 80011ba:	231f      	movs	r3, #31
 80011bc:	401a      	ands	r2, r3
 80011be:	4b04      	ldr	r3, [pc, #16]	; (80011d0 <__NVIC_EnableIRQ+0x30>)
 80011c0:	2101      	movs	r1, #1
 80011c2:	4091      	lsls	r1, r2
 80011c4:	000a      	movs	r2, r1
 80011c6:	601a      	str	r2, [r3, #0]
  }
}
 80011c8:	46c0      	nop			; (mov r8, r8)
 80011ca:	46bd      	mov	sp, r7
 80011cc:	b002      	add	sp, #8
 80011ce:	bd80      	pop	{r7, pc}
 80011d0:	e000e100 	.word	0xe000e100

080011d4 <__NVIC_SetPriority>:
  \param [in]      IRQn  Interrupt number.
  \param [in]  priority  Priority to set.
  \note    The priority cannot be set for every processor exception.
 */
__STATIC_INLINE void __NVIC_SetPriority(IRQn_Type IRQn, uint32_t priority)
{
 80011d4:	b590      	push	{r4, r7, lr}
 80011d6:	b083      	sub	sp, #12
 80011d8:	af00      	add	r7, sp, #0
 80011da:	0002      	movs	r2, r0
 80011dc:	6039      	str	r1, [r7, #0]
 80011de:	1dfb      	adds	r3, r7, #7
 80011e0:	701a      	strb	r2, [r3, #0]
  if ((int32_t)(IRQn) >= 0)
 80011e2:	1dfb      	adds	r3, r7, #7
 80011e4:	781b      	ldrb	r3, [r3, #0]
 80011e6:	2b7f      	cmp	r3, #127	; 0x7f
 80011e8:	d828      	bhi.n	800123c <__NVIC_SetPriority+0x68>
  {
    NVIC->IP[_IP_IDX(IRQn)]  = ((uint32_t)(NVIC->IP[_IP_IDX(IRQn)]  & ~(0xFFUL << _BIT_SHIFT(IRQn))) |
 80011ea:	4a2f      	ldr	r2, [pc, #188]	; (80012a8 <__NVIC_SetPriority+0xd4>)
 80011ec:	1dfb      	adds	r3, r7, #7
 80011ee:	781b      	ldrb	r3, [r3, #0]
 80011f0:	b25b      	sxtb	r3, r3
 80011f2:	089b      	lsrs	r3, r3, #2
 80011f4:	33c0      	adds	r3, #192	; 0xc0
 80011f6:	009b      	lsls	r3, r3, #2
 80011f8:	589b      	ldr	r3, [r3, r2]
 80011fa:	1dfa      	adds	r2, r7, #7
 80011fc:	7812      	ldrb	r2, [r2, #0]
 80011fe:	0011      	movs	r1, r2
 8001200:	2203      	movs	r2, #3
 8001202:	400a      	ands	r2, r1
 8001204:	00d2      	lsls	r2, r2, #3
 8001206:	21ff      	movs	r1, #255	; 0xff
 8001208:	4091      	lsls	r1, r2
 800120a:	000a      	movs	r2, r1
 800120c:	43d2      	mvns	r2, r2
 800120e:	401a      	ands	r2, r3
 8001210:	0011      	movs	r1, r2
       (((priority << (8U - __NVIC_PRIO_BITS)) & (uint32_t)0xFFUL) << _BIT_SHIFT(IRQn)));
 8001212:	683b      	ldr	r3, [r7, #0]
 8001214:	019b      	lsls	r3, r3, #6
 8001216:	22ff      	movs	r2, #255	; 0xff
 8001218:	401a      	ands	r2, r3
 800121a:	1dfb      	adds	r3, r7, #7
 800121c:	781b      	ldrb	r3, [r3, #0]
 800121e:	0018      	movs	r0, r3
 8001220:	2303      	movs	r3, #3
 8001222:	4003      	ands	r3, r0
 8001224:	00db      	lsls	r3, r3, #3
 8001226:	409a      	lsls	r2, r3
    NVIC->IP[_IP_IDX(IRQn)]  = ((uint32_t)(NVIC->IP[_IP_IDX(IRQn)]  & ~(0xFFUL << _BIT_SHIFT(IRQn))) |
 8001228:	481f      	ldr	r0, [pc, #124]	; (80012a8 <__NVIC_SetPriority+0xd4>)
 800122a:	1dfb      	adds	r3, r7, #7
 800122c:	781b      	ldrb	r3, [r3, #0]
 800122e:	b25b      	sxtb	r3, r3
 8001230:	089b      	lsrs	r3, r3, #2
 8001232:	430a      	orrs	r2, r1
 8001234:	33c0      	adds	r3, #192	; 0xc0
 8001236:	009b      	lsls	r3, r3, #2
 8001238:	501a      	str	r2, [r3, r0]
  else
  {
    SCB->SHP[_SHP_IDX(IRQn)] = ((uint32_t)(SCB->SHP[_SHP_IDX(IRQn)] & ~(0xFFUL << _BIT_SHIFT(IRQn))) |
       (((priority << (8U - __NVIC_PRIO_BITS)) & (uint32_t)0xFFUL) << _BIT_SHIFT(IRQn)));
  }
}
 800123a:	e031      	b.n	80012a0 <__NVIC_SetPriority+0xcc>
    SCB->SHP[_SHP_IDX(IRQn)] = ((uint32_t)(SCB->SHP[_SHP_IDX(IRQn)] & ~(0xFFUL << _BIT_SHIFT(IRQn))) |
 800123c:	4a1b      	ldr	r2, [pc, #108]	; (80012ac <__NVIC_SetPriority+0xd8>)
 800123e:	1dfb      	adds	r3, r7, #7
 8001240:	781b      	ldrb	r3, [r3, #0]
 8001242:	0019      	movs	r1, r3
 8001244:	230f      	movs	r3, #15
 8001246:	400b      	ands	r3, r1
 8001248:	3b08      	subs	r3, #8
 800124a:	089b      	lsrs	r3, r3, #2
 800124c:	3306      	adds	r3, #6
 800124e:	009b      	lsls	r3, r3, #2
 8001250:	18d3      	adds	r3, r2, r3
 8001252:	3304      	adds	r3, #4
 8001254:	681b      	ldr	r3, [r3, #0]
 8001256:	1dfa      	adds	r2, r7, #7
 8001258:	7812      	ldrb	r2, [r2, #0]
 800125a:	0011      	movs	r1, r2
 800125c:	2203      	movs	r2, #3
 800125e:	400a      	ands	r2, r1
 8001260:	00d2      	lsls	r2, r2, #3
 8001262:	21ff      	movs	r1, #255	; 0xff
 8001264:	4091      	lsls	r1, r2
 8001266:	000a      	movs	r2, r1
 8001268:	43d2      	mvns	r2, r2
 800126a:	401a      	ands	r2, r3
 800126c:	0011      	movs	r1, r2
       (((priority << (8U - __NVIC_PRIO_BITS)) & (uint32_t)0xFFUL) << _BIT_SHIFT(IRQn)));
 800126e:	683b      	ldr	r3, [r7, #0]
 8001270:	019b      	lsls	r3, r3, #6
 8001272:	22ff      	movs	r2, #255	; 0xff
 8001274:	401a      	ands	r2, r3
 8001276:	1dfb      	adds	r3, r7, #7
 8001278:	781b      	ldrb	r3, [r3, #0]
 800127a:	0018      	movs	r0, r3
 800127c:	2303      	movs	r3, #3
 800127e:	4003      	ands	r3, r0
 8001280:	00db      	lsls	r3, r3, #3
 8001282:	409a      	lsls	r2, r3
    SCB->SHP[_SHP_IDX(IRQn)] = ((uint32_t)(SCB->SHP[_SHP_IDX(IRQn)] & ~(0xFFUL << _BIT_SHIFT(IRQn))) |
 8001284:	4809      	ldr	r0, [pc, #36]	; (80012ac <__NVIC_SetPriority+0xd8>)
 8001286:	1dfb      	adds	r3, r7, #7
 8001288:	781b      	ldrb	r3, [r3, #0]
 800128a:	001c      	movs	r4, r3
 800128c:	230f      	movs	r3, #15
 800128e:	4023      	ands	r3, r4
 8001290:	3b08      	subs	r3, #8
 8001292:	089b      	lsrs	r3, r3, #2
 8001294:	430a      	orrs	r2, r1
 8001296:	3306      	adds	r3, #6
 8001298:	009b      	lsls	r3, r3, #2
 800129a:	18c3      	adds	r3, r0, r3
 800129c:	3304      	adds	r3, #4
 800129e:	601a      	str	r2, [r3, #0]
}
 80012a0:	46c0      	nop			; (mov r8, r8)
 80012a2:	46bd      	mov	sp, r7
 80012a4:	b003      	add	sp, #12
 80012a6:	bd90      	pop	{r4, r7, pc}
 80012a8:	e000e100 	.word	0xe000e100
 80012ac:	e000ed00 	.word	0xe000ed00

080012b0 <SysTick_Config>:
  \note    When the variable <b>__Vendor_SysTickConfig</b> is set to 1, then the
           function <b>SysTick_Config</b> is not included. In this case, the file <b><i>device</i>.h</b>
           must contain a vendor-specific implementation of this function.
 */
__STATIC_INLINE uint32_t SysTick_Config(uint32_t ticks)
{
 80012b0:	b580      	push	{r7, lr}
 80012b2:	b082      	sub	sp, #8
 80012b4:	af00      	add	r7, sp, #0
 80012b6:	6078      	str	r0, [r7, #4]
  if ((ticks - 1UL) > SysTick_LOAD_RELOAD_Msk)
 80012b8:	687b      	ldr	r3, [r7, #4]
 80012ba:	1e5a      	subs	r2, r3, #1
 80012bc:	2380      	movs	r3, #128	; 0x80
 80012be:	045b      	lsls	r3, r3, #17
 80012c0:	429a      	cmp	r2, r3
 80012c2:	d301      	bcc.n	80012c8 <SysTick_Config+0x18>
  {
    return (1UL);                                                   /* Reload value impossible */
 80012c4:	2301      	movs	r3, #1
 80012c6:	e010      	b.n	80012ea <SysTick_Config+0x3a>
  }

  SysTick->LOAD  = (uint32_t)(ticks - 1UL);                         /* set reload register */
 80012c8:	4b0a      	ldr	r3, [pc, #40]	; (80012f4 <SysTick_Config+0x44>)
 80012ca:	687a      	ldr	r2, [r7, #4]
 80012cc:	3a01      	subs	r2, #1
 80012ce:	605a      	str	r2, [r3, #4]
  NVIC_SetPriority (SysTick_IRQn, (1UL << __NVIC_PRIO_BITS) - 1UL); /* set Priority for Systick Interrupt */
 80012d0:	2301      	movs	r3, #1
 80012d2:	425b      	negs	r3, r3
 80012d4:	2103      	movs	r1, #3
 80012d6:	0018      	movs	r0, r3
 80012d8:	f7ff ff7c 	bl	80011d4 <__NVIC_SetPriority>
  SysTick->VAL   = 0UL;                                             /* Load the SysTick Counter Value */
 80012dc:	4b05      	ldr	r3, [pc, #20]	; (80012f4 <SysTick_Config+0x44>)
 80012de:	2200      	movs	r2, #0
 80012e0:	609a      	str	r2, [r3, #8]
  SysTick->CTRL  = SysTick_CTRL_CLKSOURCE_Msk |
 80012e2:	4b04      	ldr	r3, [pc, #16]	; (80012f4 <SysTick_Config+0x44>)
 80012e4:	2207      	movs	r2, #7
 80012e6:	601a      	str	r2, [r3, #0]
                   SysTick_CTRL_TICKINT_Msk   |
                   SysTick_CTRL_ENABLE_Msk;                         /* Enable SysTick IRQ and SysTick Timer */
  return (0UL);                                                     /* Function successful */
 80012e8:	2300      	movs	r3, #0
}
 80012ea:	0018      	movs	r0, r3
 80012ec:	46bd      	mov	sp, r7
 80012ee:	b002      	add	sp, #8
 80012f0:	bd80      	pop	{r7, pc}
 80012f2:	46c0      	nop			; (mov r8, r8)
 80012f4:	e000e010 	.word	0xe000e010

080012f8 <HAL_NVIC_SetPriority>:
  *         with stm32f0xx devices, this parameter is a dummy value and it is ignored, because 
  *         no subpriority supported in Cortex M0 based products.   
  * @retval None
  */
void HAL_NVIC_SetPriority(IRQn_Type IRQn, uint32_t PreemptPriority, uint32_t SubPriority)
{ 
 80012f8:	b580      	push	{r7, lr}
 80012fa:	b084      	sub	sp, #16
 80012fc:	af00      	add	r7, sp, #0
 80012fe:	60b9      	str	r1, [r7, #8]
 8001300:	607a      	str	r2, [r7, #4]
 8001302:	210f      	movs	r1, #15
 8001304:	187b      	adds	r3, r7, r1
 8001306:	1c02      	adds	r2, r0, #0
 8001308:	701a      	strb	r2, [r3, #0]
  /* Check the parameters */
  assert_param(IS_NVIC_PREEMPTION_PRIORITY(PreemptPriority));
  NVIC_SetPriority(IRQn,PreemptPriority);
 800130a:	68ba      	ldr	r2, [r7, #8]
 800130c:	187b      	adds	r3, r7, r1
 800130e:	781b      	ldrb	r3, [r3, #0]
 8001310:	b25b      	sxtb	r3, r3
 8001312:	0011      	movs	r1, r2
 8001314:	0018      	movs	r0, r3
 8001316:	f7ff ff5d 	bl	80011d4 <__NVIC_SetPriority>
}
 800131a:	46c0      	nop			; (mov r8, r8)
 800131c:	46bd      	mov	sp, r7
 800131e:	b004      	add	sp, #16
 8001320:	bd80      	pop	{r7, pc}

08001322 <HAL_NVIC_EnableIRQ>:
  *         This parameter can be an enumerator of IRQn_Type enumeration
  *         (For the complete STM32 Devices IRQ Channels list, please refer to the appropriate CMSIS device file (stm32f0xxxx.h))
  * @retval None
  */
void HAL_NVIC_EnableIRQ(IRQn_Type IRQn)
{
 8001322:	b580      	push	{r7, lr}
 8001324:	b082      	sub	sp, #8
 8001326:	af00      	add	r7, sp, #0
 8001328:	0002      	movs	r2, r0
 800132a:	1dfb      	adds	r3, r7, #7
 800132c:	701a      	strb	r2, [r3, #0]
  /* Check the parameters */
  assert_param(IS_NVIC_DEVICE_IRQ(IRQn));
  
  /* Enable interrupt */
  NVIC_EnableIRQ(IRQn);
 800132e:	1dfb      	adds	r3, r7, #7
 8001330:	781b      	ldrb	r3, [r3, #0]
 8001332:	b25b      	sxtb	r3, r3
 8001334:	0018      	movs	r0, r3
 8001336:	f7ff ff33 	bl	80011a0 <__NVIC_EnableIRQ>
}
 800133a:	46c0      	nop			; (mov r8, r8)
 800133c:	46bd      	mov	sp, r7
 800133e:	b002      	add	sp, #8
 8001340:	bd80      	pop	{r7, pc}

08001342 <HAL_SYSTICK_Config>:
  * @param  TicksNumb Specifies the ticks Number of ticks between two interrupts.
  * @retval status:  - 0  Function succeeded.
  *                  - 1  Function failed.
  */
uint32_t HAL_SYSTICK_Config(uint32_t TicksNumb)
{
 8001342:	b580      	push	{r7, lr}
 8001344:	b082      	sub	sp, #8
 8001346:	af00      	add	r7, sp, #0
 8001348:	6078      	str	r0, [r7, #4]
   return SysTick_Config(TicksNumb);
 800134a:	687b      	ldr	r3, [r7, #4]
 800134c:	0018      	movs	r0, r3
 800134e:	f7ff ffaf 	bl	80012b0 <SysTick_Config>
 8001352:	0003      	movs	r3, r0
}
 8001354:	0018      	movs	r0, r3
 8001356:	46bd      	mov	sp, r7
 8001358:	b002      	add	sp, #8
 800135a:	bd80      	pop	{r7, pc}

0800135c <HAL_DMA_Init>:
  * @param  hdma Pointer to a DMA_HandleTypeDef structure that contains
  *               the configuration information for the specified DMA Channel.  
  * @retval HAL status
  */
HAL_StatusTypeDef HAL_DMA_Init(DMA_HandleTypeDef *hdma)
{ 
 800135c:	b580      	push	{r7, lr}
 800135e:	b084      	sub	sp, #16
 8001360:	af00      	add	r7, sp, #0
 8001362:	6078      	str	r0, [r7, #4]
  uint32_t tmp = 0U;
 8001364:	2300      	movs	r3, #0
 8001366:	60fb      	str	r3, [r7, #12]
  
  /* Check the DMA handle allocation */
  if(NULL == hdma)
 8001368:	687b      	ldr	r3, [r7, #4]
 800136a:	2b00      	cmp	r3, #0
 800136c:	d101      	bne.n	8001372 <HAL_DMA_Init+0x16>
  {
    return HAL_ERROR;
 800136e:	2301      	movs	r3, #1
 8001370:	e036      	b.n	80013e0 <HAL_DMA_Init+0x84>
  assert_param(IS_DMA_MEMORY_DATA_SIZE(hdma->Init.MemDataAlignment));
  assert_param(IS_DMA_MODE(hdma->Init.Mode));
  assert_param(IS_DMA_PRIORITY(hdma->Init.Priority));
  
  /* Change DMA peripheral state */
  hdma->State = HAL_DMA_STATE_BUSY;
 8001372:	687b      	ldr	r3, [r7, #4]
 8001374:	2221      	movs	r2, #33	; 0x21
 8001376:	2102      	movs	r1, #2
 8001378:	5499      	strb	r1, [r3, r2]

  /* Get the CR register value */
  tmp = hdma->Instance->CCR;
 800137a:	687b      	ldr	r3, [r7, #4]
 800137c:	681b      	ldr	r3, [r3, #0]
 800137e:	681b      	ldr	r3, [r3, #0]
 8001380:	60fb      	str	r3, [r7, #12]
  
  /* Clear PL, MSIZE, PSIZE, MINC, PINC, CIRC, DIR bits */
  tmp &= ((uint32_t)~(DMA_CCR_PL    | DMA_CCR_MSIZE  | DMA_CCR_PSIZE  | \
 8001382:	68fb      	ldr	r3, [r7, #12]
 8001384:	4a18      	ldr	r2, [pc, #96]	; (80013e8 <HAL_DMA_Init+0x8c>)
 8001386:	4013      	ands	r3, r2
 8001388:	60fb      	str	r3, [r7, #12]
                      DMA_CCR_MINC  | DMA_CCR_PINC   | DMA_CCR_CIRC   | \
                      DMA_CCR_DIR));
  
  /* Prepare the DMA Channel configuration */
  tmp |=  hdma->Init.Direction        |
 800138a:	687b      	ldr	r3, [r7, #4]
 800138c:	685a      	ldr	r2, [r3, #4]
          hdma->Init.PeriphInc           | hdma->Init.MemInc           |
 800138e:	687b      	ldr	r3, [r7, #4]
 8001390:	689b      	ldr	r3, [r3, #8]
  tmp |=  hdma->Init.Direction        |
 8001392:	431a      	orrs	r2, r3
          hdma->Init.PeriphInc           | hdma->Init.MemInc           |
 8001394:	687b      	ldr	r3, [r7, #4]
 8001396:	68db      	ldr	r3, [r3, #12]
 8001398:	431a      	orrs	r2, r3
          hdma->Init.PeriphDataAlignment | hdma->Init.MemDataAlignment |
 800139a:	687b      	ldr	r3, [r7, #4]
 800139c:	691b      	ldr	r3, [r3, #16]
          hdma->Init.PeriphInc           | hdma->Init.MemInc           |
 800139e:	431a      	orrs	r2, r3
          hdma->Init.PeriphDataAlignment | hdma->Init.MemDataAlignment |
 80013a0:	687b      	ldr	r3, [r7, #4]
 80013a2:	695b      	ldr	r3, [r3, #20]
 80013a4:	431a      	orrs	r2, r3
          hdma->Init.Mode                | hdma->Init.Priority;
 80013a6:	687b      	ldr	r3, [r7, #4]
 80013a8:	699b      	ldr	r3, [r3, #24]
          hdma->Init.PeriphDataAlignment | hdma->Init.MemDataAlignment |
 80013aa:	431a      	orrs	r2, r3
          hdma->Init.Mode                | hdma->Init.Priority;
 80013ac:	687b      	ldr	r3, [r7, #4]
 80013ae:	69db      	ldr	r3, [r3, #28]
 80013b0:	4313      	orrs	r3, r2
  tmp |=  hdma->Init.Direction        |
 80013b2:	68fa      	ldr	r2, [r7, #12]
 80013b4:	4313      	orrs	r3, r2
 80013b6:	60fb      	str	r3, [r7, #12]

  /* Write to DMA Channel CR register */
  hdma->Instance->CCR = tmp;  
 80013b8:	687b      	ldr	r3, [r7, #4]
 80013ba:	681b      	ldr	r3, [r3, #0]
 80013bc:	68fa      	ldr	r2, [r7, #12]
 80013be:	601a      	str	r2, [r3, #0]
  
  /* Initialize DmaBaseAddress and ChannelIndex parameters used 
     by HAL_DMA_IRQHandler() and HAL_DMA_PollForTransfer() */
  DMA_CalcBaseAndBitshift(hdma);
 80013c0:	687b      	ldr	r3, [r7, #4]
 80013c2:	0018      	movs	r0, r3
 80013c4:	f000 f932 	bl	800162c <DMA_CalcBaseAndBitshift>
  
  /* Initialise the error code */
  hdma->ErrorCode = HAL_DMA_ERROR_NONE;
 80013c8:	687b      	ldr	r3, [r7, #4]
 80013ca:	2200      	movs	r2, #0
 80013cc:	639a      	str	r2, [r3, #56]	; 0x38

  /* Initialize the DMA state*/
  hdma->State = HAL_DMA_STATE_READY;
 80013ce:	687b      	ldr	r3, [r7, #4]
 80013d0:	2221      	movs	r2, #33	; 0x21
 80013d2:	2101      	movs	r1, #1
 80013d4:	5499      	strb	r1, [r3, r2]
  
  /* Allocate lock resource and initialize it */
  hdma->Lock = HAL_UNLOCKED;
 80013d6:	687b      	ldr	r3, [r7, #4]
 80013d8:	2220      	movs	r2, #32
 80013da:	2100      	movs	r1, #0
 80013dc:	5499      	strb	r1, [r3, r2]
  
  return HAL_OK;
 80013de:	2300      	movs	r3, #0
}  
 80013e0:	0018      	movs	r0, r3
 80013e2:	46bd      	mov	sp, r7
 80013e4:	b004      	add	sp, #16
 80013e6:	bd80      	pop	{r7, pc}
 80013e8:	ffffc00f 	.word	0xffffc00f

080013ec <HAL_DMA_Abort>:
  * @param  hdma  pointer to a DMA_HandleTypeDef structure that contains
  *               the configuration information for the specified DMA Channel.
  * @retval HAL status
  */
HAL_StatusTypeDef HAL_DMA_Abort(DMA_HandleTypeDef *hdma)
{
 80013ec:	b580      	push	{r7, lr}
 80013ee:	b082      	sub	sp, #8
 80013f0:	af00      	add	r7, sp, #0
 80013f2:	6078      	str	r0, [r7, #4]
  if(hdma->State != HAL_DMA_STATE_BUSY)
 80013f4:	687b      	ldr	r3, [r7, #4]
 80013f6:	2221      	movs	r2, #33	; 0x21
 80013f8:	5c9b      	ldrb	r3, [r3, r2]
 80013fa:	b2db      	uxtb	r3, r3
 80013fc:	2b02      	cmp	r3, #2
 80013fe:	d008      	beq.n	8001412 <HAL_DMA_Abort+0x26>
  {
    /* no transfer ongoing */
    hdma->ErrorCode = HAL_DMA_ERROR_NO_XFER;
 8001400:	687b      	ldr	r3, [r7, #4]
 8001402:	2204      	movs	r2, #4
 8001404:	639a      	str	r2, [r3, #56]	; 0x38
    
    /* Process Unlocked */
    __HAL_UNLOCK(hdma);
 8001406:	687b      	ldr	r3, [r7, #4]
 8001408:	2220      	movs	r2, #32
 800140a:	2100      	movs	r1, #0
 800140c:	5499      	strb	r1, [r3, r2]
    
    return HAL_ERROR;
 800140e:	2301      	movs	r3, #1
 8001410:	e020      	b.n	8001454 <HAL_DMA_Abort+0x68>
  }
  else
  {
    /* Disable DMA IT */
    hdma->Instance->CCR &= ~(DMA_IT_TC | DMA_IT_HT | DMA_IT_TE);
 8001412:	687b      	ldr	r3, [r7, #4]
 8001414:	681b      	ldr	r3, [r3, #0]
 8001416:	681a      	ldr	r2, [r3, #0]
 8001418:	687b      	ldr	r3, [r7, #4]
 800141a:	681b      	ldr	r3, [r3, #0]
 800141c:	210e      	movs	r1, #14
 800141e:	438a      	bics	r2, r1
 8001420:	601a      	str	r2, [r3, #0]
    
    /* Disable the channel */
    hdma->Instance->CCR &= ~DMA_CCR_EN;
 8001422:	687b      	ldr	r3, [r7, #4]
 8001424:	681b      	ldr	r3, [r3, #0]
 8001426:	681a      	ldr	r2, [r3, #0]
 8001428:	687b      	ldr	r3, [r7, #4]
 800142a:	681b      	ldr	r3, [r3, #0]
 800142c:	2101      	movs	r1, #1
 800142e:	438a      	bics	r2, r1
 8001430:	601a      	str	r2, [r3, #0]
    
    /* Clear all flags */
    hdma->DmaBaseAddress->IFCR = (DMA_FLAG_GL1 << hdma->ChannelIndex);
 8001432:	687b      	ldr	r3, [r7, #4]
 8001434:	6c1a      	ldr	r2, [r3, #64]	; 0x40
 8001436:	687b      	ldr	r3, [r7, #4]
 8001438:	6bdb      	ldr	r3, [r3, #60]	; 0x3c
 800143a:	2101      	movs	r1, #1
 800143c:	4091      	lsls	r1, r2
 800143e:	000a      	movs	r2, r1
 8001440:	605a      	str	r2, [r3, #4]
  }
  /* Change the DMA state*/
  hdma->State = HAL_DMA_STATE_READY; 
 8001442:	687b      	ldr	r3, [r7, #4]
 8001444:	2221      	movs	r2, #33	; 0x21
 8001446:	2101      	movs	r1, #1
 8001448:	5499      	strb	r1, [r3, r2]
  
  /* Process Unlocked */
  __HAL_UNLOCK(hdma);
 800144a:	687b      	ldr	r3, [r7, #4]
 800144c:	2220      	movs	r2, #32
 800144e:	2100      	movs	r1, #0
 8001450:	5499      	strb	r1, [r3, r2]
  
  return HAL_OK;
 8001452:	2300      	movs	r3, #0
}
 8001454:	0018      	movs	r0, r3
 8001456:	46bd      	mov	sp, r7
 8001458:	b002      	add	sp, #8
 800145a:	bd80      	pop	{r7, pc}

0800145c <HAL_DMA_Abort_IT>:
  * @param  hdma  pointer to a DMA_HandleTypeDef structure that contains
  *               the configuration information for the specified DMA Stream.
  * @retval HAL status
  */
HAL_StatusTypeDef HAL_DMA_Abort_IT(DMA_HandleTypeDef *hdma)
{  
 800145c:	b580      	push	{r7, lr}
 800145e:	b084      	sub	sp, #16
 8001460:	af00      	add	r7, sp, #0
 8001462:	6078      	str	r0, [r7, #4]
  HAL_StatusTypeDef status = HAL_OK;
 8001464:	210f      	movs	r1, #15
 8001466:	187b      	adds	r3, r7, r1
 8001468:	2200      	movs	r2, #0
 800146a:	701a      	strb	r2, [r3, #0]
  
  if(HAL_DMA_STATE_BUSY != hdma->State)
 800146c:	687b      	ldr	r3, [r7, #4]
 800146e:	2221      	movs	r2, #33	; 0x21
 8001470:	5c9b      	ldrb	r3, [r3, r2]
 8001472:	b2db      	uxtb	r3, r3
 8001474:	2b02      	cmp	r3, #2
 8001476:	d006      	beq.n	8001486 <HAL_DMA_Abort_IT+0x2a>
  {
    /* no transfer ongoing */
    hdma->ErrorCode = HAL_DMA_ERROR_NO_XFER;
 8001478:	687b      	ldr	r3, [r7, #4]
 800147a:	2204      	movs	r2, #4
 800147c:	639a      	str	r2, [r3, #56]	; 0x38
        
    status = HAL_ERROR;
 800147e:	187b      	adds	r3, r7, r1
 8001480:	2201      	movs	r2, #1
 8001482:	701a      	strb	r2, [r3, #0]
 8001484:	e028      	b.n	80014d8 <HAL_DMA_Abort_IT+0x7c>
  }
  else
  { 
  
    /* Disable DMA IT */
    hdma->Instance->CCR &= ~(DMA_IT_TC | DMA_IT_HT | DMA_IT_TE);
 8001486:	687b      	ldr	r3, [r7, #4]
 8001488:	681b      	ldr	r3, [r3, #0]
 800148a:	681a      	ldr	r2, [r3, #0]
 800148c:	687b      	ldr	r3, [r7, #4]
 800148e:	681b      	ldr	r3, [r3, #0]
 8001490:	210e      	movs	r1, #14
 8001492:	438a      	bics	r2, r1
 8001494:	601a      	str	r2, [r3, #0]
    
    /* Disable the channel */
    hdma->Instance->CCR &= ~DMA_CCR_EN;
 8001496:	687b      	ldr	r3, [r7, #4]
 8001498:	681b      	ldr	r3, [r3, #0]
 800149a:	681a      	ldr	r2, [r3, #0]
 800149c:	687b      	ldr	r3, [r7, #4]
 800149e:	681b      	ldr	r3, [r3, #0]
 80014a0:	2101      	movs	r1, #1
 80014a2:	438a      	bics	r2, r1
 80014a4:	601a      	str	r2, [r3, #0]
    
    /* Clear all flags */
    hdma->DmaBaseAddress->IFCR = DMA_FLAG_GL1 << hdma->ChannelIndex;
 80014a6:	687b      	ldr	r3, [r7, #4]
 80014a8:	6c1a      	ldr	r2, [r3, #64]	; 0x40
 80014aa:	687b      	ldr	r3, [r7, #4]
 80014ac:	6bdb      	ldr	r3, [r3, #60]	; 0x3c
 80014ae:	2101      	movs	r1, #1
 80014b0:	4091      	lsls	r1, r2
 80014b2:	000a      	movs	r2, r1
 80014b4:	605a      	str	r2, [r3, #4]
    
    /* Change the DMA state */
    hdma->State = HAL_DMA_STATE_READY;
 80014b6:	687b      	ldr	r3, [r7, #4]
 80014b8:	2221      	movs	r2, #33	; 0x21
 80014ba:	2101      	movs	r1, #1
 80014bc:	5499      	strb	r1, [r3, r2]
    
    /* Process Unlocked */
    __HAL_UNLOCK(hdma);
 80014be:	687b      	ldr	r3, [r7, #4]
 80014c0:	2220      	movs	r2, #32
 80014c2:	2100      	movs	r1, #0
 80014c4:	5499      	strb	r1, [r3, r2]
    
    /* Call User Abort callback */ 
    if(hdma->XferAbortCallback != NULL)
 80014c6:	687b      	ldr	r3, [r7, #4]
 80014c8:	6b5b      	ldr	r3, [r3, #52]	; 0x34
 80014ca:	2b00      	cmp	r3, #0
 80014cc:	d004      	beq.n	80014d8 <HAL_DMA_Abort_IT+0x7c>
    {
      hdma->XferAbortCallback(hdma);
 80014ce:	687b      	ldr	r3, [r7, #4]
 80014d0:	6b5b      	ldr	r3, [r3, #52]	; 0x34
 80014d2:	687a      	ldr	r2, [r7, #4]
 80014d4:	0010      	movs	r0, r2
 80014d6:	4798      	blx	r3
    } 
  }
  return status;
 80014d8:	230f      	movs	r3, #15
 80014da:	18fb      	adds	r3, r7, r3
 80014dc:	781b      	ldrb	r3, [r3, #0]
}
 80014de:	0018      	movs	r0, r3
 80014e0:	46bd      	mov	sp, r7
 80014e2:	b004      	add	sp, #16
 80014e4:	bd80      	pop	{r7, pc}

080014e6 <HAL_DMA_IRQHandler>:
  * @param  hdma pointer to a DMA_HandleTypeDef structure that contains
  *               the configuration information for the specified DMA Channel.  
  * @retval None
  */
void HAL_DMA_IRQHandler(DMA_HandleTypeDef *hdma)
{
 80014e6:	b580      	push	{r7, lr}
 80014e8:	b084      	sub	sp, #16
 80014ea:	af00      	add	r7, sp, #0
 80014ec:	6078      	str	r0, [r7, #4]
	uint32_t flag_it = hdma->DmaBaseAddress->ISR;
 80014ee:	687b      	ldr	r3, [r7, #4]
 80014f0:	6bdb      	ldr	r3, [r3, #60]	; 0x3c
 80014f2:	681b      	ldr	r3, [r3, #0]
 80014f4:	60fb      	str	r3, [r7, #12]
  uint32_t source_it = hdma->Instance->CCR;
 80014f6:	687b      	ldr	r3, [r7, #4]
 80014f8:	681b      	ldr	r3, [r3, #0]
 80014fa:	681b      	ldr	r3, [r3, #0]
 80014fc:	60bb      	str	r3, [r7, #8]
          
  /* Half Transfer Complete Interrupt management ******************************/
  if ((RESET != (flag_it & (DMA_FLAG_HT1 << hdma->ChannelIndex))) && (RESET != (source_it & DMA_IT_HT)))
 80014fe:	687b      	ldr	r3, [r7, #4]
 8001500:	6c1b      	ldr	r3, [r3, #64]	; 0x40
 8001502:	2204      	movs	r2, #4
 8001504:	409a      	lsls	r2, r3
 8001506:	0013      	movs	r3, r2
 8001508:	68fa      	ldr	r2, [r7, #12]
 800150a:	4013      	ands	r3, r2
 800150c:	d024      	beq.n	8001558 <HAL_DMA_IRQHandler+0x72>
 800150e:	68bb      	ldr	r3, [r7, #8]
 8001510:	2204      	movs	r2, #4
 8001512:	4013      	ands	r3, r2
 8001514:	d020      	beq.n	8001558 <HAL_DMA_IRQHandler+0x72>
  {
  	/* Disable the half transfer interrupt if the DMA mode is not CIRCULAR */
  	if((hdma->Instance->CCR & DMA_CCR_CIRC) == 0U)
 8001516:	687b      	ldr	r3, [r7, #4]
 8001518:	681b      	ldr	r3, [r3, #0]
 800151a:	681b      	ldr	r3, [r3, #0]
 800151c:	2220      	movs	r2, #32
 800151e:	4013      	ands	r3, r2
 8001520:	d107      	bne.n	8001532 <HAL_DMA_IRQHandler+0x4c>
  	{
  		/* Disable the half transfer interrupt */
  		hdma->Instance->CCR &= ~DMA_IT_HT;
 8001522:	687b      	ldr	r3, [r7, #4]
 8001524:	681b      	ldr	r3, [r3, #0]
 8001526:	681a      	ldr	r2, [r3, #0]
 8001528:	687b      	ldr	r3, [r7, #4]
 800152a:	681b      	ldr	r3, [r3, #0]
 800152c:	2104      	movs	r1, #4
 800152e:	438a      	bics	r2, r1
 8001530:	601a      	str	r2, [r3, #0]
  	}
  	
  	/* Clear the half transfer complete flag */
  	hdma->DmaBaseAddress->IFCR = DMA_FLAG_HT1 << hdma->ChannelIndex;
 8001532:	687b      	ldr	r3, [r7, #4]
 8001534:	6c1a      	ldr	r2, [r3, #64]	; 0x40
 8001536:	687b      	ldr	r3, [r7, #4]
 8001538:	6bdb      	ldr	r3, [r3, #60]	; 0x3c
 800153a:	2104      	movs	r1, #4
 800153c:	4091      	lsls	r1, r2
 800153e:	000a      	movs	r2, r1
 8001540:	605a      	str	r2, [r3, #4]
  	
  	/* DMA peripheral state is not updated in Half Transfer */
  	/* State is updated only in Transfer Complete case */
  	
  	if(hdma->XferHalfCpltCallback != NULL)
 8001542:	687b      	ldr	r3, [r7, #4]
 8001544:	6adb      	ldr	r3, [r3, #44]	; 0x2c
 8001546:	2b00      	cmp	r3, #0
 8001548:	d100      	bne.n	800154c <HAL_DMA_IRQHandler+0x66>
 800154a:	e06a      	b.n	8001622 <HAL_DMA_IRQHandler+0x13c>
  	{
  		/* Half transfer callback */
  		hdma->XferHalfCpltCallback(hdma);
 800154c:	687b      	ldr	r3, [r7, #4]
 800154e:	6adb      	ldr	r3, [r3, #44]	; 0x2c
 8001550:	687a      	ldr	r2, [r7, #4]
 8001552:	0010      	movs	r0, r2
 8001554:	4798      	blx	r3
  	if(hdma->XferHalfCpltCallback != NULL)
 8001556:	e064      	b.n	8001622 <HAL_DMA_IRQHandler+0x13c>
  	}
  }
  
  /* Transfer Complete Interrupt management ***********************************/
  else if ((RESET != (flag_it & (DMA_FLAG_TC1 << hdma->ChannelIndex))) && (RESET != (source_it & DMA_IT_TC)))
 8001558:	687b      	ldr	r3, [r7, #4]
 800155a:	6c1b      	ldr	r3, [r3, #64]	; 0x40
 800155c:	2202      	movs	r2, #2
 800155e:	409a      	lsls	r2, r3
 8001560:	0013      	movs	r3, r2
 8001562:	68fa      	ldr	r2, [r7, #12]
 8001564:	4013      	ands	r3, r2
 8001566:	d02b      	beq.n	80015c0 <HAL_DMA_IRQHandler+0xda>
 8001568:	68bb      	ldr	r3, [r7, #8]
 800156a:	2202      	movs	r2, #2
 800156c:	4013      	ands	r3, r2
 800156e:	d027      	beq.n	80015c0 <HAL_DMA_IRQHandler+0xda>
  {
  	if((hdma->Instance->CCR & DMA_CCR_CIRC) == 0U)
 8001570:	687b      	ldr	r3, [r7, #4]
 8001572:	681b      	ldr	r3, [r3, #0]
 8001574:	681b      	ldr	r3, [r3, #0]
 8001576:	2220      	movs	r2, #32
 8001578:	4013      	ands	r3, r2
 800157a:	d10b      	bne.n	8001594 <HAL_DMA_IRQHandler+0xae>
  	{
  		/* Disable the transfer complete  & transfer error interrupts */
  		/* if the DMA mode is not CIRCULAR */
  		hdma->Instance->CCR &= ~(DMA_IT_TC | DMA_IT_TE);
 800157c:	687b      	ldr	r3, [r7, #4]
 800157e:	681b      	ldr	r3, [r3, #0]
 8001580:	681a      	ldr	r2, [r3, #0]
 8001582:	687b      	ldr	r3, [r7, #4]
 8001584:	681b      	ldr	r3, [r3, #0]
 8001586:	210a      	movs	r1, #10
 8001588:	438a      	bics	r2, r1
 800158a:	601a      	str	r2, [r3, #0]
  		
  		/* Change the DMA state */
  		hdma->State = HAL_DMA_STATE_READY;
 800158c:	687b      	ldr	r3, [r7, #4]
 800158e:	2221      	movs	r2, #33	; 0x21
 8001590:	2101      	movs	r1, #1
 8001592:	5499      	strb	r1, [r3, r2]
  	}
  	
  	/* Clear the transfer complete flag */
  	hdma->DmaBaseAddress->IFCR = DMA_FLAG_TC1 << hdma->ChannelIndex;
 8001594:	687b      	ldr	r3, [r7, #4]
 8001596:	6c1a      	ldr	r2, [r3, #64]	; 0x40
 8001598:	687b      	ldr	r3, [r7, #4]
 800159a:	6bdb      	ldr	r3, [r3, #60]	; 0x3c
 800159c:	2102      	movs	r1, #2
 800159e:	4091      	lsls	r1, r2
 80015a0:	000a      	movs	r2, r1
 80015a2:	605a      	str	r2, [r3, #4]
  	
  	/* Process Unlocked */
  	__HAL_UNLOCK(hdma);
 80015a4:	687b      	ldr	r3, [r7, #4]
 80015a6:	2220      	movs	r2, #32
 80015a8:	2100      	movs	r1, #0
 80015aa:	5499      	strb	r1, [r3, r2]
  	
  	if(hdma->XferCpltCallback != NULL)
 80015ac:	687b      	ldr	r3, [r7, #4]
 80015ae:	6a9b      	ldr	r3, [r3, #40]	; 0x28
 80015b0:	2b00      	cmp	r3, #0
 80015b2:	d036      	beq.n	8001622 <HAL_DMA_IRQHandler+0x13c>
  	{
  		/* Transfer complete callback */
  		hdma->XferCpltCallback(hdma);
 80015b4:	687b      	ldr	r3, [r7, #4]
 80015b6:	6a9b      	ldr	r3, [r3, #40]	; 0x28
 80015b8:	687a      	ldr	r2, [r7, #4]
 80015ba:	0010      	movs	r0, r2
 80015bc:	4798      	blx	r3
  	if(hdma->XferCpltCallback != NULL)
 80015be:	e030      	b.n	8001622 <HAL_DMA_IRQHandler+0x13c>
  	}
  }
  
  /* Transfer Error Interrupt management ***************************************/
  else if (( RESET != (flag_it & (DMA_FLAG_TE1 << hdma->ChannelIndex))) && (RESET != (source_it & DMA_IT_TE)))
 80015c0:	687b      	ldr	r3, [r7, #4]
 80015c2:	6c1b      	ldr	r3, [r3, #64]	; 0x40
 80015c4:	2208      	movs	r2, #8
 80015c6:	409a      	lsls	r2, r3
 80015c8:	0013      	movs	r3, r2
 80015ca:	68fa      	ldr	r2, [r7, #12]
 80015cc:	4013      	ands	r3, r2
 80015ce:	d028      	beq.n	8001622 <HAL_DMA_IRQHandler+0x13c>
 80015d0:	68bb      	ldr	r3, [r7, #8]
 80015d2:	2208      	movs	r2, #8
 80015d4:	4013      	ands	r3, r2
 80015d6:	d024      	beq.n	8001622 <HAL_DMA_IRQHandler+0x13c>
  {
  	/* When a DMA transfer error occurs */
    /* A hardware clear of its EN bits is performed */
    /* Then, disable all DMA interrupts */
    hdma->Instance->CCR &= ~(DMA_IT_TC | DMA_IT_HT | DMA_IT_TE);
 80015d8:	687b      	ldr	r3, [r7, #4]
 80015da:	681b      	ldr	r3, [r3, #0]
 80015dc:	681a      	ldr	r2, [r3, #0]
 80015de:	687b      	ldr	r3, [r7, #4]
 80015e0:	681b      	ldr	r3, [r3, #0]
 80015e2:	210e      	movs	r1, #14
 80015e4:	438a      	bics	r2, r1
 80015e6:	601a      	str	r2, [r3, #0]
    
    /* Clear all flags */
    hdma->DmaBaseAddress->IFCR = DMA_FLAG_GL1 << hdma->ChannelIndex;
 80015e8:	687b      	ldr	r3, [r7, #4]
 80015ea:	6c1a      	ldr	r2, [r3, #64]	; 0x40
 80015ec:	687b      	ldr	r3, [r7, #4]
 80015ee:	6bdb      	ldr	r3, [r3, #60]	; 0x3c
 80015f0:	2101      	movs	r1, #1
 80015f2:	4091      	lsls	r1, r2
 80015f4:	000a      	movs	r2, r1
 80015f6:	605a      	str	r2, [r3, #4]
    
    /* Update error code */
    hdma->ErrorCode = HAL_DMA_ERROR_TE;
 80015f8:	687b      	ldr	r3, [r7, #4]
 80015fa:	2201      	movs	r2, #1
 80015fc:	639a      	str	r2, [r3, #56]	; 0x38
    
    /* Change the DMA state */
    hdma->State = HAL_DMA_STATE_READY;    
 80015fe:	687b      	ldr	r3, [r7, #4]
 8001600:	2221      	movs	r2, #33	; 0x21
 8001602:	2101      	movs	r1, #1
 8001604:	5499      	strb	r1, [r3, r2]
    
    /* Process Unlocked */
    __HAL_UNLOCK(hdma); 
 8001606:	687b      	ldr	r3, [r7, #4]
 8001608:	2220      	movs	r2, #32
 800160a:	2100      	movs	r1, #0
 800160c:	5499      	strb	r1, [r3, r2]
    
    if(hdma->XferErrorCallback != NULL)
 800160e:	687b      	ldr	r3, [r7, #4]
 8001610:	6b1b      	ldr	r3, [r3, #48]	; 0x30
 8001612:	2b00      	cmp	r3, #0
 8001614:	d005      	beq.n	8001622 <HAL_DMA_IRQHandler+0x13c>
    {
    	/* Transfer error callback */
    	hdma->XferErrorCallback(hdma);
 8001616:	687b      	ldr	r3, [r7, #4]
 8001618:	6b1b      	ldr	r3, [r3, #48]	; 0x30
 800161a:	687a      	ldr	r2, [r7, #4]
 800161c:	0010      	movs	r0, r2
 800161e:	4798      	blx	r3
    }
   }
}  
 8001620:	e7ff      	b.n	8001622 <HAL_DMA_IRQHandler+0x13c>
 8001622:	46c0      	nop			; (mov r8, r8)
 8001624:	46bd      	mov	sp, r7
 8001626:	b004      	add	sp, #16
 8001628:	bd80      	pop	{r7, pc}
	...

0800162c <DMA_CalcBaseAndBitshift>:
  * @param  hdma       pointer to a DMA_HandleTypeDef structure that contains
  *                     the configuration information for the specified DMA Stream. 
  * @retval None
  */
static void DMA_CalcBaseAndBitshift(DMA_HandleTypeDef *hdma)
{
 800162c:	b580      	push	{r7, lr}
 800162e:	b082      	sub	sp, #8
 8001630:	af00      	add	r7, sp, #0
 8001632:	6078      	str	r0, [r7, #4]
    hdma->DmaBaseAddress = DMA2;
  }
#else
  /* calculation of the channel index */
  /* DMA1 */
  hdma->ChannelIndex = (((uint32_t)hdma->Instance - (uint32_t)DMA1_Channel1) / ((uint32_t)DMA1_Channel2 - (uint32_t)DMA1_Channel1)) << 2U;
 8001634:	687b      	ldr	r3, [r7, #4]
 8001636:	681b      	ldr	r3, [r3, #0]
 8001638:	4a08      	ldr	r2, [pc, #32]	; (800165c <DMA_CalcBaseAndBitshift+0x30>)
 800163a:	4694      	mov	ip, r2
 800163c:	4463      	add	r3, ip
 800163e:	2114      	movs	r1, #20
 8001640:	0018      	movs	r0, r3
 8001642:	f7fe fd6b 	bl	800011c <__udivsi3>
 8001646:	0003      	movs	r3, r0
 8001648:	009a      	lsls	r2, r3, #2
 800164a:	687b      	ldr	r3, [r7, #4]
 800164c:	641a      	str	r2, [r3, #64]	; 0x40
  hdma->DmaBaseAddress = DMA1;
 800164e:	687b      	ldr	r3, [r7, #4]
 8001650:	4a03      	ldr	r2, [pc, #12]	; (8001660 <DMA_CalcBaseAndBitshift+0x34>)
 8001652:	63da      	str	r2, [r3, #60]	; 0x3c
#endif
}
 8001654:	46c0      	nop			; (mov r8, r8)
 8001656:	46bd      	mov	sp, r7
 8001658:	b002      	add	sp, #8
 800165a:	bd80      	pop	{r7, pc}
 800165c:	bffdfff8 	.word	0xbffdfff8
 8001660:	40020000 	.word	0x40020000

08001664 <HAL_GPIO_Init>:
  * @param  GPIO_Init pointer to a GPIO_InitTypeDef structure that contains
  *         the configuration information for the specified GPIO peripheral.
  * @retval None
  */
void HAL_GPIO_Init(GPIO_TypeDef  *GPIOx, GPIO_InitTypeDef *GPIO_Init)
{
 8001664:	b580      	push	{r7, lr}
 8001666:	b086      	sub	sp, #24
 8001668:	af00      	add	r7, sp, #0
 800166a:	6078      	str	r0, [r7, #4]
 800166c:	6039      	str	r1, [r7, #0]
  uint32_t position = 0x00u;
 800166e:	2300      	movs	r3, #0
 8001670:	617b      	str	r3, [r7, #20]
  assert_param(IS_GPIO_ALL_INSTANCE(GPIOx));
  assert_param(IS_GPIO_PIN(GPIO_Init->Pin));
  assert_param(IS_GPIO_MODE(GPIO_Init->Mode));

  /* Configure the port pins */
  while (((GPIO_Init->Pin) >> position) != 0x00u)
 8001672:	e14f      	b.n	8001914 <HAL_GPIO_Init+0x2b0>
  {
    /* Get current io position */
    iocurrent = (GPIO_Init->Pin) & (1uL << position);
 8001674:	683b      	ldr	r3, [r7, #0]
 8001676:	681b      	ldr	r3, [r3, #0]
 8001678:	2101      	movs	r1, #1
 800167a:	697a      	ldr	r2, [r7, #20]
 800167c:	4091      	lsls	r1, r2
 800167e:	000a      	movs	r2, r1
 8001680:	4013      	ands	r3, r2
 8001682:	60fb      	str	r3, [r7, #12]

    if (iocurrent != 0x00u)
 8001684:	68fb      	ldr	r3, [r7, #12]
 8001686:	2b00      	cmp	r3, #0
 8001688:	d100      	bne.n	800168c <HAL_GPIO_Init+0x28>
 800168a:	e140      	b.n	800190e <HAL_GPIO_Init+0x2aa>
    {
      /*--------------------- GPIO Mode Configuration ------------------------*/
      /* In case of Output or Alternate function mode selection */
      if(((GPIO_Init->Mode & GPIO_MODE) == MODE_OUTPUT) ||
 800168c:	683b      	ldr	r3, [r7, #0]
 800168e:	685b      	ldr	r3, [r3, #4]
 8001690:	2203      	movs	r2, #3
 8001692:	4013      	ands	r3, r2
 8001694:	2b01      	cmp	r3, #1
 8001696:	d005      	beq.n	80016a4 <HAL_GPIO_Init+0x40>
         ((GPIO_Init->Mode & GPIO_MODE) == MODE_AF))
 8001698:	683b      	ldr	r3, [r7, #0]
 800169a:	685b      	ldr	r3, [r3, #4]
 800169c:	2203      	movs	r2, #3
 800169e:	4013      	ands	r3, r2
      if(((GPIO_Init->Mode & GPIO_MODE) == MODE_OUTPUT) ||
 80016a0:	2b02      	cmp	r3, #2
 80016a2:	d130      	bne.n	8001706 <HAL_GPIO_Init+0xa2>
      {
        /* Check the Speed parameter */
        assert_param(IS_GPIO_SPEED(GPIO_Init->Speed));
        /* Configure the IO Speed */
        temp = GPIOx->OSPEEDR;
 80016a4:	687b      	ldr	r3, [r7, #4]
 80016a6:	689b      	ldr	r3, [r3, #8]
 80016a8:	613b      	str	r3, [r7, #16]
        temp &= ~(GPIO_OSPEEDER_OSPEEDR0 << (position * 2u));
 80016aa:	697b      	ldr	r3, [r7, #20]
 80016ac:	005b      	lsls	r3, r3, #1
 80016ae:	2203      	movs	r2, #3
 80016b0:	409a      	lsls	r2, r3
 80016b2:	0013      	movs	r3, r2
 80016b4:	43da      	mvns	r2, r3
 80016b6:	693b      	ldr	r3, [r7, #16]
 80016b8:	4013      	ands	r3, r2
 80016ba:	613b      	str	r3, [r7, #16]
        temp |= (GPIO_Init->Speed << (position * 2u));
 80016bc:	683b      	ldr	r3, [r7, #0]
 80016be:	68da      	ldr	r2, [r3, #12]
 80016c0:	697b      	ldr	r3, [r7, #20]
 80016c2:	005b      	lsls	r3, r3, #1
 80016c4:	409a      	lsls	r2, r3
 80016c6:	0013      	movs	r3, r2
 80016c8:	693a      	ldr	r2, [r7, #16]
 80016ca:	4313      	orrs	r3, r2
 80016cc:	613b      	str	r3, [r7, #16]
        GPIOx->OSPEEDR = temp;
 80016ce:	687b      	ldr	r3, [r7, #4]
 80016d0:	693a      	ldr	r2, [r7, #16]
 80016d2:	609a      	str	r2, [r3, #8]

        /* Configure the IO Output Type */
        temp = GPIOx->OTYPER;
 80016d4:	687b      	ldr	r3, [r7, #4]
 80016d6:	685b      	ldr	r3, [r3, #4]
 80016d8:	613b      	str	r3, [r7, #16]
        temp &= ~(GPIO_OTYPER_OT_0 << position) ;
 80016da:	2201      	movs	r2, #1
 80016dc:	697b      	ldr	r3, [r7, #20]
 80016de:	409a      	lsls	r2, r3
 80016e0:	0013      	movs	r3, r2
 80016e2:	43da      	mvns	r2, r3
 80016e4:	693b      	ldr	r3, [r7, #16]
 80016e6:	4013      	ands	r3, r2
 80016e8:	613b      	str	r3, [r7, #16]
        temp |= (((GPIO_Init->Mode & OUTPUT_TYPE) >> OUTPUT_TYPE_Pos) << position);
 80016ea:	683b      	ldr	r3, [r7, #0]
 80016ec:	685b      	ldr	r3, [r3, #4]
 80016ee:	091b      	lsrs	r3, r3, #4
 80016f0:	2201      	movs	r2, #1
 80016f2:	401a      	ands	r2, r3
 80016f4:	697b      	ldr	r3, [r7, #20]
 80016f6:	409a      	lsls	r2, r3
 80016f8:	0013      	movs	r3, r2
 80016fa:	693a      	ldr	r2, [r7, #16]
 80016fc:	4313      	orrs	r3, r2
 80016fe:	613b      	str	r3, [r7, #16]
        GPIOx->OTYPER = temp;
 8001700:	687b      	ldr	r3, [r7, #4]
 8001702:	693a      	ldr	r2, [r7, #16]
 8001704:	605a      	str	r2, [r3, #4]
      }
      
      if((GPIO_Init->Mode & GPIO_MODE) != MODE_ANALOG)
 8001706:	683b      	ldr	r3, [r7, #0]
 8001708:	685b      	ldr	r3, [r3, #4]
 800170a:	2203      	movs	r2, #3
 800170c:	4013      	ands	r3, r2
 800170e:	2b03      	cmp	r3, #3
 8001710:	d017      	beq.n	8001742 <HAL_GPIO_Init+0xde>
      {
        /* Check the Pull parameter */
        assert_param(IS_GPIO_PULL(GPIO_Init->Pull));

        /* Activate the Pull-up or Pull down resistor for the current IO */
        temp = GPIOx->PUPDR;
 8001712:	687b      	ldr	r3, [r7, #4]
 8001714:	68db      	ldr	r3, [r3, #12]
 8001716:	613b      	str	r3, [r7, #16]
        temp &= ~(GPIO_PUPDR_PUPDR0 << (position * 2u));
 8001718:	697b      	ldr	r3, [r7, #20]
 800171a:	005b      	lsls	r3, r3, #1
 800171c:	2203      	movs	r2, #3
 800171e:	409a      	lsls	r2, r3
 8001720:	0013      	movs	r3, r2
 8001722:	43da      	mvns	r2, r3
 8001724:	693b      	ldr	r3, [r7, #16]
 8001726:	4013      	ands	r3, r2
 8001728:	613b      	str	r3, [r7, #16]
        temp |= ((GPIO_Init->Pull) << (position * 2u));
 800172a:	683b      	ldr	r3, [r7, #0]
 800172c:	689a      	ldr	r2, [r3, #8]
 800172e:	697b      	ldr	r3, [r7, #20]
 8001730:	005b      	lsls	r3, r3, #1
 8001732:	409a      	lsls	r2, r3
 8001734:	0013      	movs	r3, r2
 8001736:	693a      	ldr	r2, [r7, #16]
 8001738:	4313      	orrs	r3, r2
 800173a:	613b      	str	r3, [r7, #16]
        GPIOx->PUPDR = temp;
 800173c:	687b      	ldr	r3, [r7, #4]
 800173e:	693a      	ldr	r2, [r7, #16]
 8001740:	60da      	str	r2, [r3, #12]
      }

      /* In case of Alternate function mode selection */
      if((GPIO_Init->Mode & GPIO_MODE) == MODE_AF)
 8001742:	683b      	ldr	r3, [r7, #0]
 8001744:	685b      	ldr	r3, [r3, #4]
 8001746:	2203      	movs	r2, #3
 8001748:	4013      	ands	r3, r2
 800174a:	2b02      	cmp	r3, #2
 800174c:	d123      	bne.n	8001796 <HAL_GPIO_Init+0x132>
        /* Check the Alternate function parameters */
        assert_param(IS_GPIO_AF_INSTANCE(GPIOx));
        assert_param(IS_GPIO_AF(GPIO_Init->Alternate));

        /* Configure Alternate function mapped with the current IO */
        temp = GPIOx->AFR[position >> 3u];
 800174e:	697b      	ldr	r3, [r7, #20]
 8001750:	08da      	lsrs	r2, r3, #3
 8001752:	687b      	ldr	r3, [r7, #4]
 8001754:	3208      	adds	r2, #8
 8001756:	0092      	lsls	r2, r2, #2
 8001758:	58d3      	ldr	r3, [r2, r3]
 800175a:	613b      	str	r3, [r7, #16]
        temp &= ~(0xFu << ((position & 0x07u) * 4u));
 800175c:	697b      	ldr	r3, [r7, #20]
 800175e:	2207      	movs	r2, #7
 8001760:	4013      	ands	r3, r2
 8001762:	009b      	lsls	r3, r3, #2
 8001764:	220f      	movs	r2, #15
 8001766:	409a      	lsls	r2, r3
 8001768:	0013      	movs	r3, r2
 800176a:	43da      	mvns	r2, r3
 800176c:	693b      	ldr	r3, [r7, #16]
 800176e:	4013      	ands	r3, r2
 8001770:	613b      	str	r3, [r7, #16]
        temp |= ((GPIO_Init->Alternate) << ((position & 0x07u) * 4u));
 8001772:	683b      	ldr	r3, [r7, #0]
 8001774:	691a      	ldr	r2, [r3, #16]
 8001776:	697b      	ldr	r3, [r7, #20]
 8001778:	2107      	movs	r1, #7
 800177a:	400b      	ands	r3, r1
 800177c:	009b      	lsls	r3, r3, #2
 800177e:	409a      	lsls	r2, r3
 8001780:	0013      	movs	r3, r2
 8001782:	693a      	ldr	r2, [r7, #16]
 8001784:	4313      	orrs	r3, r2
 8001786:	613b      	str	r3, [r7, #16]
        GPIOx->AFR[position >> 3u] = temp;
 8001788:	697b      	ldr	r3, [r7, #20]
 800178a:	08da      	lsrs	r2, r3, #3
 800178c:	687b      	ldr	r3, [r7, #4]
 800178e:	3208      	adds	r2, #8
 8001790:	0092      	lsls	r2, r2, #2
 8001792:	6939      	ldr	r1, [r7, #16]
 8001794:	50d1      	str	r1, [r2, r3]
      }

      /* Configure IO Direction mode (Input, Output, Alternate or Analog) */
      temp = GPIOx->MODER;
 8001796:	687b      	ldr	r3, [r7, #4]
 8001798:	681b      	ldr	r3, [r3, #0]
 800179a:	613b      	str	r3, [r7, #16]
      temp &= ~(GPIO_MODER_MODER0 << (position * 2u));
 800179c:	697b      	ldr	r3, [r7, #20]
 800179e:	005b      	lsls	r3, r3, #1
 80017a0:	2203      	movs	r2, #3
 80017a2:	409a      	lsls	r2, r3
 80017a4:	0013      	movs	r3, r2
 80017a6:	43da      	mvns	r2, r3
 80017a8:	693b      	ldr	r3, [r7, #16]
 80017aa:	4013      	ands	r3, r2
 80017ac:	613b      	str	r3, [r7, #16]
      temp |= ((GPIO_Init->Mode & GPIO_MODE) << (position * 2u));
 80017ae:	683b      	ldr	r3, [r7, #0]
 80017b0:	685b      	ldr	r3, [r3, #4]
 80017b2:	2203      	movs	r2, #3
 80017b4:	401a      	ands	r2, r3
 80017b6:	697b      	ldr	r3, [r7, #20]
 80017b8:	005b      	lsls	r3, r3, #1
 80017ba:	409a      	lsls	r2, r3
 80017bc:	0013      	movs	r3, r2
 80017be:	693a      	ldr	r2, [r7, #16]
 80017c0:	4313      	orrs	r3, r2
 80017c2:	613b      	str	r3, [r7, #16]
      GPIOx->MODER = temp;
 80017c4:	687b      	ldr	r3, [r7, #4]
 80017c6:	693a      	ldr	r2, [r7, #16]
 80017c8:	601a      	str	r2, [r3, #0]

      /*--------------------- EXTI Mode Configuration ------------------------*/
      /* Configure the External Interrupt or event for the current IO */
      if((GPIO_Init->Mode & EXTI_MODE) != 0x00u)
 80017ca:	683b      	ldr	r3, [r7, #0]
 80017cc:	685a      	ldr	r2, [r3, #4]
 80017ce:	23c0      	movs	r3, #192	; 0xc0
 80017d0:	029b      	lsls	r3, r3, #10
 80017d2:	4013      	ands	r3, r2
 80017d4:	d100      	bne.n	80017d8 <HAL_GPIO_Init+0x174>
 80017d6:	e09a      	b.n	800190e <HAL_GPIO_Init+0x2aa>
      {
        /* Enable SYSCFG Clock */
        __HAL_RCC_SYSCFG_CLK_ENABLE();
 80017d8:	4b54      	ldr	r3, [pc, #336]	; (800192c <HAL_GPIO_Init+0x2c8>)
 80017da:	699a      	ldr	r2, [r3, #24]
 80017dc:	4b53      	ldr	r3, [pc, #332]	; (800192c <HAL_GPIO_Init+0x2c8>)
 80017de:	2101      	movs	r1, #1
 80017e0:	430a      	orrs	r2, r1
 80017e2:	619a      	str	r2, [r3, #24]
 80017e4:	4b51      	ldr	r3, [pc, #324]	; (800192c <HAL_GPIO_Init+0x2c8>)
 80017e6:	699b      	ldr	r3, [r3, #24]
 80017e8:	2201      	movs	r2, #1
 80017ea:	4013      	ands	r3, r2
 80017ec:	60bb      	str	r3, [r7, #8]
 80017ee:	68bb      	ldr	r3, [r7, #8]

        temp = SYSCFG->EXTICR[position >> 2u];
 80017f0:	4a4f      	ldr	r2, [pc, #316]	; (8001930 <HAL_GPIO_Init+0x2cc>)
 80017f2:	697b      	ldr	r3, [r7, #20]
 80017f4:	089b      	lsrs	r3, r3, #2
 80017f6:	3302      	adds	r3, #2
 80017f8:	009b      	lsls	r3, r3, #2
 80017fa:	589b      	ldr	r3, [r3, r2]
 80017fc:	613b      	str	r3, [r7, #16]
        temp &= ~(0x0FuL << (4u * (position & 0x03u)));
 80017fe:	697b      	ldr	r3, [r7, #20]
 8001800:	2203      	movs	r2, #3
 8001802:	4013      	ands	r3, r2
 8001804:	009b      	lsls	r3, r3, #2
 8001806:	220f      	movs	r2, #15
 8001808:	409a      	lsls	r2, r3
 800180a:	0013      	movs	r3, r2
 800180c:	43da      	mvns	r2, r3
 800180e:	693b      	ldr	r3, [r7, #16]
 8001810:	4013      	ands	r3, r2
 8001812:	613b      	str	r3, [r7, #16]
        temp |= (GPIO_GET_INDEX(GPIOx) << (4u * (position & 0x03u)));
 8001814:	687a      	ldr	r2, [r7, #4]
 8001816:	2390      	movs	r3, #144	; 0x90
 8001818:	05db      	lsls	r3, r3, #23
 800181a:	429a      	cmp	r2, r3
 800181c:	d013      	beq.n	8001846 <HAL_GPIO_Init+0x1e2>
 800181e:	687b      	ldr	r3, [r7, #4]
 8001820:	4a44      	ldr	r2, [pc, #272]	; (8001934 <HAL_GPIO_Init+0x2d0>)
 8001822:	4293      	cmp	r3, r2
 8001824:	d00d      	beq.n	8001842 <HAL_GPIO_Init+0x1de>
 8001826:	687b      	ldr	r3, [r7, #4]
 8001828:	4a43      	ldr	r2, [pc, #268]	; (8001938 <HAL_GPIO_Init+0x2d4>)
 800182a:	4293      	cmp	r3, r2
 800182c:	d007      	beq.n	800183e <HAL_GPIO_Init+0x1da>
 800182e:	687b      	ldr	r3, [r7, #4]
 8001830:	4a42      	ldr	r2, [pc, #264]	; (800193c <HAL_GPIO_Init+0x2d8>)
 8001832:	4293      	cmp	r3, r2
 8001834:	d101      	bne.n	800183a <HAL_GPIO_Init+0x1d6>
 8001836:	2303      	movs	r3, #3
 8001838:	e006      	b.n	8001848 <HAL_GPIO_Init+0x1e4>
 800183a:	2305      	movs	r3, #5
 800183c:	e004      	b.n	8001848 <HAL_GPIO_Init+0x1e4>
 800183e:	2302      	movs	r3, #2
 8001840:	e002      	b.n	8001848 <HAL_GPIO_Init+0x1e4>
 8001842:	2301      	movs	r3, #1
 8001844:	e000      	b.n	8001848 <HAL_GPIO_Init+0x1e4>
 8001846:	2300      	movs	r3, #0
 8001848:	697a      	ldr	r2, [r7, #20]
 800184a:	2103      	movs	r1, #3
 800184c:	400a      	ands	r2, r1
 800184e:	0092      	lsls	r2, r2, #2
 8001850:	4093      	lsls	r3, r2
 8001852:	693a      	ldr	r2, [r7, #16]
 8001854:	4313      	orrs	r3, r2
 8001856:	613b      	str	r3, [r7, #16]
        SYSCFG->EXTICR[position >> 2u] = temp;
 8001858:	4935      	ldr	r1, [pc, #212]	; (8001930 <HAL_GPIO_Init+0x2cc>)
 800185a:	697b      	ldr	r3, [r7, #20]
 800185c:	089b      	lsrs	r3, r3, #2
 800185e:	3302      	adds	r3, #2
 8001860:	009b      	lsls	r3, r3, #2
 8001862:	693a      	ldr	r2, [r7, #16]
 8001864:	505a      	str	r2, [r3, r1]

        /* Clear EXTI line configuration */
        temp = EXTI->IMR;
 8001866:	4b36      	ldr	r3, [pc, #216]	; (8001940 <HAL_GPIO_Init+0x2dc>)
 8001868:	681b      	ldr	r3, [r3, #0]
 800186a:	613b      	str	r3, [r7, #16]
        temp &= ~(iocurrent);
 800186c:	68fb      	ldr	r3, [r7, #12]
 800186e:	43da      	mvns	r2, r3
 8001870:	693b      	ldr	r3, [r7, #16]
 8001872:	4013      	ands	r3, r2
 8001874:	613b      	str	r3, [r7, #16]
        if((GPIO_Init->Mode & EXTI_IT) != 0x00u)
 8001876:	683b      	ldr	r3, [r7, #0]
 8001878:	685a      	ldr	r2, [r3, #4]
 800187a:	2380      	movs	r3, #128	; 0x80
 800187c:	025b      	lsls	r3, r3, #9
 800187e:	4013      	ands	r3, r2
 8001880:	d003      	beq.n	800188a <HAL_GPIO_Init+0x226>
        {
          temp |= iocurrent;
 8001882:	693a      	ldr	r2, [r7, #16]
 8001884:	68fb      	ldr	r3, [r7, #12]
 8001886:	4313      	orrs	r3, r2
 8001888:	613b      	str	r3, [r7, #16]
        }
        EXTI->IMR = temp;
 800188a:	4b2d      	ldr	r3, [pc, #180]	; (8001940 <HAL_GPIO_Init+0x2dc>)
 800188c:	693a      	ldr	r2, [r7, #16]
 800188e:	601a      	str	r2, [r3, #0]

        temp = EXTI->EMR;
 8001890:	4b2b      	ldr	r3, [pc, #172]	; (8001940 <HAL_GPIO_Init+0x2dc>)
 8001892:	685b      	ldr	r3, [r3, #4]
 8001894:	613b      	str	r3, [r7, #16]
        temp &= ~(iocurrent);
 8001896:	68fb      	ldr	r3, [r7, #12]
 8001898:	43da      	mvns	r2, r3
 800189a:	693b      	ldr	r3, [r7, #16]
 800189c:	4013      	ands	r3, r2
 800189e:	613b      	str	r3, [r7, #16]
        if((GPIO_Init->Mode & EXTI_EVT) != 0x00u)
 80018a0:	683b      	ldr	r3, [r7, #0]
 80018a2:	685a      	ldr	r2, [r3, #4]
 80018a4:	2380      	movs	r3, #128	; 0x80
 80018a6:	029b      	lsls	r3, r3, #10
 80018a8:	4013      	ands	r3, r2
 80018aa:	d003      	beq.n	80018b4 <HAL_GPIO_Init+0x250>
        {
          temp |= iocurrent;
 80018ac:	693a      	ldr	r2, [r7, #16]
 80018ae:	68fb      	ldr	r3, [r7, #12]
 80018b0:	4313      	orrs	r3, r2
 80018b2:	613b      	str	r3, [r7, #16]
        }
        EXTI->EMR = temp;
 80018b4:	4b22      	ldr	r3, [pc, #136]	; (8001940 <HAL_GPIO_Init+0x2dc>)
 80018b6:	693a      	ldr	r2, [r7, #16]
 80018b8:	605a      	str	r2, [r3, #4]

        /* Clear Rising Falling edge configuration */
        temp = EXTI->RTSR;
 80018ba:	4b21      	ldr	r3, [pc, #132]	; (8001940 <HAL_GPIO_Init+0x2dc>)
 80018bc:	689b      	ldr	r3, [r3, #8]
 80018be:	613b      	str	r3, [r7, #16]
        temp &= ~(iocurrent);
 80018c0:	68fb      	ldr	r3, [r7, #12]
 80018c2:	43da      	mvns	r2, r3
 80018c4:	693b      	ldr	r3, [r7, #16]
 80018c6:	4013      	ands	r3, r2
 80018c8:	613b      	str	r3, [r7, #16]
        if((GPIO_Init->Mode & TRIGGER_RISING) != 0x00u)
 80018ca:	683b      	ldr	r3, [r7, #0]
 80018cc:	685a      	ldr	r2, [r3, #4]
 80018ce:	2380      	movs	r3, #128	; 0x80
 80018d0:	035b      	lsls	r3, r3, #13
 80018d2:	4013      	ands	r3, r2
 80018d4:	d003      	beq.n	80018de <HAL_GPIO_Init+0x27a>
        {
          temp |= iocurrent;
 80018d6:	693a      	ldr	r2, [r7, #16]
 80018d8:	68fb      	ldr	r3, [r7, #12]
 80018da:	4313      	orrs	r3, r2
 80018dc:	613b      	str	r3, [r7, #16]
        }
        EXTI->RTSR = temp;
 80018de:	4b18      	ldr	r3, [pc, #96]	; (8001940 <HAL_GPIO_Init+0x2dc>)
 80018e0:	693a      	ldr	r2, [r7, #16]
 80018e2:	609a      	str	r2, [r3, #8]

        temp = EXTI->FTSR;
 80018e4:	4b16      	ldr	r3, [pc, #88]	; (8001940 <HAL_GPIO_Init+0x2dc>)
 80018e6:	68db      	ldr	r3, [r3, #12]
 80018e8:	613b      	str	r3, [r7, #16]
        temp &= ~(iocurrent);
 80018ea:	68fb      	ldr	r3, [r7, #12]
 80018ec:	43da      	mvns	r2, r3
 80018ee:	693b      	ldr	r3, [r7, #16]
 80018f0:	4013      	ands	r3, r2
 80018f2:	613b      	str	r3, [r7, #16]
        if((GPIO_Init->Mode & TRIGGER_FALLING) != 0x00u)
 80018f4:	683b      	ldr	r3, [r7, #0]
 80018f6:	685a      	ldr	r2, [r3, #4]
 80018f8:	2380      	movs	r3, #128	; 0x80
 80018fa:	039b      	lsls	r3, r3, #14
 80018fc:	4013      	ands	r3, r2
 80018fe:	d003      	beq.n	8001908 <HAL_GPIO_Init+0x2a4>
        {
          temp |= iocurrent;
 8001900:	693a      	ldr	r2, [r7, #16]
 8001902:	68fb      	ldr	r3, [r7, #12]
 8001904:	4313      	orrs	r3, r2
 8001906:	613b      	str	r3, [r7, #16]
        }
        EXTI->FTSR = temp;
 8001908:	4b0d      	ldr	r3, [pc, #52]	; (8001940 <HAL_GPIO_Init+0x2dc>)
 800190a:	693a      	ldr	r2, [r7, #16]
 800190c:	60da      	str	r2, [r3, #12]
      }
    }

    position++;
 800190e:	697b      	ldr	r3, [r7, #20]
 8001910:	3301      	adds	r3, #1
 8001912:	617b      	str	r3, [r7, #20]
  while (((GPIO_Init->Pin) >> position) != 0x00u)
 8001914:	683b      	ldr	r3, [r7, #0]
 8001916:	681a      	ldr	r2, [r3, #0]
 8001918:	697b      	ldr	r3, [r7, #20]
 800191a:	40da      	lsrs	r2, r3
 800191c:	1e13      	subs	r3, r2, #0
 800191e:	d000      	beq.n	8001922 <HAL_GPIO_Init+0x2be>
 8001920:	e6a8      	b.n	8001674 <HAL_GPIO_Init+0x10>
  } 
}
 8001922:	46c0      	nop			; (mov r8, r8)
 8001924:	46c0      	nop			; (mov r8, r8)
 8001926:	46bd      	mov	sp, r7
 8001928:	b006      	add	sp, #24
 800192a:	bd80      	pop	{r7, pc}
 800192c:	40021000 	.word	0x40021000
 8001930:	40010000 	.word	0x40010000
 8001934:	48000400 	.word	0x48000400
 8001938:	48000800 	.word	0x48000800
 800193c:	48000c00 	.word	0x48000c00
 8001940:	40010400 	.word	0x40010400

08001944 <HAL_GPIO_WritePin>:
  *            @arg GPIO_PIN_RESET: to clear the port pin
  *            @arg GPIO_PIN_SET: to set the port pin
  * @retval None
  */
void HAL_GPIO_WritePin(GPIO_TypeDef* GPIOx, uint16_t GPIO_Pin, GPIO_PinState PinState)
{
 8001944:	b580      	push	{r7, lr}
 8001946:	b082      	sub	sp, #8
 8001948:	af00      	add	r7, sp, #0
 800194a:	6078      	str	r0, [r7, #4]
 800194c:	0008      	movs	r0, r1
 800194e:	0011      	movs	r1, r2
 8001950:	1cbb      	adds	r3, r7, #2
 8001952:	1c02      	adds	r2, r0, #0
 8001954:	801a      	strh	r2, [r3, #0]
 8001956:	1c7b      	adds	r3, r7, #1
 8001958:	1c0a      	adds	r2, r1, #0
 800195a:	701a      	strb	r2, [r3, #0]
  /* Check the parameters */
  assert_param(IS_GPIO_PIN(GPIO_Pin));
  assert_param(IS_GPIO_PIN_ACTION(PinState));

  if (PinState != GPIO_PIN_RESET)
 800195c:	1c7b      	adds	r3, r7, #1
 800195e:	781b      	ldrb	r3, [r3, #0]
 8001960:	2b00      	cmp	r3, #0
 8001962:	d004      	beq.n	800196e <HAL_GPIO_WritePin+0x2a>
  {
    GPIOx->BSRR = (uint32_t)GPIO_Pin;
 8001964:	1cbb      	adds	r3, r7, #2
 8001966:	881a      	ldrh	r2, [r3, #0]
 8001968:	687b      	ldr	r3, [r7, #4]
 800196a:	619a      	str	r2, [r3, #24]
  }
  else
  {
    GPIOx->BRR = (uint32_t)GPIO_Pin;
  }
}
 800196c:	e003      	b.n	8001976 <HAL_GPIO_WritePin+0x32>
    GPIOx->BRR = (uint32_t)GPIO_Pin;
 800196e:	1cbb      	adds	r3, r7, #2
 8001970:	881a      	ldrh	r2, [r3, #0]
 8001972:	687b      	ldr	r3, [r7, #4]
 8001974:	629a      	str	r2, [r3, #40]	; 0x28
}
 8001976:	46c0      	nop			; (mov r8, r8)
 8001978:	46bd      	mov	sp, r7
 800197a:	b002      	add	sp, #8
 800197c:	bd80      	pop	{r7, pc}

0800197e <HAL_GPIO_TogglePin>:
  * @param  GPIOx where x can be (A..F) to select the GPIO peripheral for STM32F0 family
  * @param  GPIO_Pin specifies the pin to be toggled.
  * @retval None
  */
void HAL_GPIO_TogglePin(GPIO_TypeDef* GPIOx, uint16_t GPIO_Pin)
{
 800197e:	b580      	push	{r7, lr}
 8001980:	b084      	sub	sp, #16
 8001982:	af00      	add	r7, sp, #0
 8001984:	6078      	str	r0, [r7, #4]
 8001986:	000a      	movs	r2, r1
 8001988:	1cbb      	adds	r3, r7, #2
 800198a:	801a      	strh	r2, [r3, #0]

  /* Check the parameters */
  assert_param(IS_GPIO_PIN(GPIO_Pin));

  /* get current Ouput Data Register value */
  odr = GPIOx->ODR;
 800198c:	687b      	ldr	r3, [r7, #4]
 800198e:	695b      	ldr	r3, [r3, #20]
 8001990:	60fb      	str	r3, [r7, #12]

  /* Set selected pins that were at low level, and reset ones that were high */
  GPIOx->BSRR = ((odr & GPIO_Pin) << GPIO_NUMBER) | (~odr & GPIO_Pin);
 8001992:	1cbb      	adds	r3, r7, #2
 8001994:	881b      	ldrh	r3, [r3, #0]
 8001996:	68fa      	ldr	r2, [r7, #12]
 8001998:	4013      	ands	r3, r2
 800199a:	041a      	lsls	r2, r3, #16
 800199c:	68fb      	ldr	r3, [r7, #12]
 800199e:	43db      	mvns	r3, r3
 80019a0:	1cb9      	adds	r1, r7, #2
 80019a2:	8809      	ldrh	r1, [r1, #0]
 80019a4:	400b      	ands	r3, r1
 80019a6:	431a      	orrs	r2, r3
 80019a8:	687b      	ldr	r3, [r7, #4]
 80019aa:	619a      	str	r2, [r3, #24]
}
 80019ac:	46c0      	nop			; (mov r8, r8)
 80019ae:	46bd      	mov	sp, r7
 80019b0:	b004      	add	sp, #16
 80019b2:	bd80      	pop	{r7, pc}

080019b4 <HAL_I2C_Init>:
  * @param  hi2c Pointer to a I2C_HandleTypeDef structure that contains
  *                the configuration information for the specified I2C.
  * @retval HAL status
  */
HAL_StatusTypeDef HAL_I2C_Init(I2C_HandleTypeDef *hi2c)
{
 80019b4:	b580      	push	{r7, lr}
 80019b6:	b082      	sub	sp, #8
 80019b8:	af00      	add	r7, sp, #0
 80019ba:	6078      	str	r0, [r7, #4]
  /* Check the I2C handle allocation */
  if (hi2c == NULL)
 80019bc:	687b      	ldr	r3, [r7, #4]
 80019be:	2b00      	cmp	r3, #0
 80019c0:	d101      	bne.n	80019c6 <HAL_I2C_Init+0x12>
  {
    return HAL_ERROR;
 80019c2:	2301      	movs	r3, #1
 80019c4:	e082      	b.n	8001acc <HAL_I2C_Init+0x118>
  assert_param(IS_I2C_OWN_ADDRESS2(hi2c->Init.OwnAddress2));
  assert_param(IS_I2C_OWN_ADDRESS2_MASK(hi2c->Init.OwnAddress2Masks));
  assert_param(IS_I2C_GENERAL_CALL(hi2c->Init.GeneralCallMode));
  assert_param(IS_I2C_NO_STRETCH(hi2c->Init.NoStretchMode));

  if (hi2c->State == HAL_I2C_STATE_RESET)
 80019c6:	687b      	ldr	r3, [r7, #4]
 80019c8:	2241      	movs	r2, #65	; 0x41
 80019ca:	5c9b      	ldrb	r3, [r3, r2]
 80019cc:	b2db      	uxtb	r3, r3
 80019ce:	2b00      	cmp	r3, #0
 80019d0:	d107      	bne.n	80019e2 <HAL_I2C_Init+0x2e>
  {
    /* Allocate lock resource and initialize it */
    hi2c->Lock = HAL_UNLOCKED;
 80019d2:	687b      	ldr	r3, [r7, #4]
 80019d4:	2240      	movs	r2, #64	; 0x40
 80019d6:	2100      	movs	r1, #0
 80019d8:	5499      	strb	r1, [r3, r2]

    /* Init the low level hardware : GPIO, CLOCK, CORTEX...etc */
    hi2c->MspInitCallback(hi2c);
#else
    /* Init the low level hardware : GPIO, CLOCK, CORTEX...etc */
    HAL_I2C_MspInit(hi2c);
 80019da:	687b      	ldr	r3, [r7, #4]
 80019dc:	0018      	movs	r0, r3
 80019de:	f7ff fa19 	bl	8000e14 <HAL_I2C_MspInit>
#endif /* USE_HAL_I2C_REGISTER_CALLBACKS */
  }

  hi2c->State = HAL_I2C_STATE_BUSY;
 80019e2:	687b      	ldr	r3, [r7, #4]
 80019e4:	2241      	movs	r2, #65	; 0x41
 80019e6:	2124      	movs	r1, #36	; 0x24
 80019e8:	5499      	strb	r1, [r3, r2]

  /* Disable the selected I2C peripheral */
  __HAL_I2C_DISABLE(hi2c);
 80019ea:	687b      	ldr	r3, [r7, #4]
 80019ec:	681b      	ldr	r3, [r3, #0]
 80019ee:	681a      	ldr	r2, [r3, #0]
 80019f0:	687b      	ldr	r3, [r7, #4]
 80019f2:	681b      	ldr	r3, [r3, #0]
 80019f4:	2101      	movs	r1, #1
 80019f6:	438a      	bics	r2, r1
 80019f8:	601a      	str	r2, [r3, #0]

  /*---------------------------- I2Cx TIMINGR Configuration ------------------*/
  /* Configure I2Cx: Frequency range */
  hi2c->Instance->TIMINGR = hi2c->Init.Timing & TIMING_CLEAR_MASK;
 80019fa:	687b      	ldr	r3, [r7, #4]
 80019fc:	685a      	ldr	r2, [r3, #4]
 80019fe:	687b      	ldr	r3, [r7, #4]
 8001a00:	681b      	ldr	r3, [r3, #0]
 8001a02:	4934      	ldr	r1, [pc, #208]	; (8001ad4 <HAL_I2C_Init+0x120>)
 8001a04:	400a      	ands	r2, r1
 8001a06:	611a      	str	r2, [r3, #16]

  /*---------------------------- I2Cx OAR1 Configuration ---------------------*/
  /* Disable Own Address1 before set the Own Address1 configuration */
  hi2c->Instance->OAR1 &= ~I2C_OAR1_OA1EN;
 8001a08:	687b      	ldr	r3, [r7, #4]
 8001a0a:	681b      	ldr	r3, [r3, #0]
 8001a0c:	689a      	ldr	r2, [r3, #8]
 8001a0e:	687b      	ldr	r3, [r7, #4]
 8001a10:	681b      	ldr	r3, [r3, #0]
 8001a12:	4931      	ldr	r1, [pc, #196]	; (8001ad8 <HAL_I2C_Init+0x124>)
 8001a14:	400a      	ands	r2, r1
 8001a16:	609a      	str	r2, [r3, #8]

  /* Configure I2Cx: Own Address1 and ack own address1 mode */
  if (hi2c->Init.AddressingMode == I2C_ADDRESSINGMODE_7BIT)
 8001a18:	687b      	ldr	r3, [r7, #4]
 8001a1a:	68db      	ldr	r3, [r3, #12]
 8001a1c:	2b01      	cmp	r3, #1
 8001a1e:	d108      	bne.n	8001a32 <HAL_I2C_Init+0x7e>
  {
    hi2c->Instance->OAR1 = (I2C_OAR1_OA1EN | hi2c->Init.OwnAddress1);
 8001a20:	687b      	ldr	r3, [r7, #4]
 8001a22:	689a      	ldr	r2, [r3, #8]
 8001a24:	687b      	ldr	r3, [r7, #4]
 8001a26:	681b      	ldr	r3, [r3, #0]
 8001a28:	2180      	movs	r1, #128	; 0x80
 8001a2a:	0209      	lsls	r1, r1, #8
 8001a2c:	430a      	orrs	r2, r1
 8001a2e:	609a      	str	r2, [r3, #8]
 8001a30:	e007      	b.n	8001a42 <HAL_I2C_Init+0x8e>
  }
  else /* I2C_ADDRESSINGMODE_10BIT */
  {
    hi2c->Instance->OAR1 = (I2C_OAR1_OA1EN | I2C_OAR1_OA1MODE | hi2c->Init.OwnAddress1);
 8001a32:	687b      	ldr	r3, [r7, #4]
 8001a34:	689a      	ldr	r2, [r3, #8]
 8001a36:	687b      	ldr	r3, [r7, #4]
 8001a38:	681b      	ldr	r3, [r3, #0]
 8001a3a:	2184      	movs	r1, #132	; 0x84
 8001a3c:	0209      	lsls	r1, r1, #8
 8001a3e:	430a      	orrs	r2, r1
 8001a40:	609a      	str	r2, [r3, #8]
  }

  /*---------------------------- I2Cx CR2 Configuration ----------------------*/
  /* Configure I2Cx: Addressing Master mode */
  if (hi2c->Init.AddressingMode == I2C_ADDRESSINGMODE_10BIT)
 8001a42:	687b      	ldr	r3, [r7, #4]
 8001a44:	68db      	ldr	r3, [r3, #12]
 8001a46:	2b02      	cmp	r3, #2
 8001a48:	d104      	bne.n	8001a54 <HAL_I2C_Init+0xa0>
  {
    hi2c->Instance->CR2 = (I2C_CR2_ADD10);
 8001a4a:	687b      	ldr	r3, [r7, #4]
 8001a4c:	681b      	ldr	r3, [r3, #0]
 8001a4e:	2280      	movs	r2, #128	; 0x80
 8001a50:	0112      	lsls	r2, r2, #4
 8001a52:	605a      	str	r2, [r3, #4]
  }
  /* Enable the AUTOEND by default, and enable NACK (should be disable only during Slave process */
  hi2c->Instance->CR2 |= (I2C_CR2_AUTOEND | I2C_CR2_NACK);
 8001a54:	687b      	ldr	r3, [r7, #4]
 8001a56:	681b      	ldr	r3, [r3, #0]
 8001a58:	685a      	ldr	r2, [r3, #4]
 8001a5a:	687b      	ldr	r3, [r7, #4]
 8001a5c:	681b      	ldr	r3, [r3, #0]
 8001a5e:	491f      	ldr	r1, [pc, #124]	; (8001adc <HAL_I2C_Init+0x128>)
 8001a60:	430a      	orrs	r2, r1
 8001a62:	605a      	str	r2, [r3, #4]

  /*---------------------------- I2Cx OAR2 Configuration ---------------------*/
  /* Disable Own Address2 before set the Own Address2 configuration */
  hi2c->Instance->OAR2 &= ~I2C_DUALADDRESS_ENABLE;
 8001a64:	687b      	ldr	r3, [r7, #4]
 8001a66:	681b      	ldr	r3, [r3, #0]
 8001a68:	68da      	ldr	r2, [r3, #12]
 8001a6a:	687b      	ldr	r3, [r7, #4]
 8001a6c:	681b      	ldr	r3, [r3, #0]
 8001a6e:	491a      	ldr	r1, [pc, #104]	; (8001ad8 <HAL_I2C_Init+0x124>)
 8001a70:	400a      	ands	r2, r1
 8001a72:	60da      	str	r2, [r3, #12]

  /* Configure I2Cx: Dual mode and Own Address2 */
  hi2c->Instance->OAR2 = (hi2c->Init.DualAddressMode | hi2c->Init.OwnAddress2 | \
 8001a74:	687b      	ldr	r3, [r7, #4]
 8001a76:	691a      	ldr	r2, [r3, #16]
 8001a78:	687b      	ldr	r3, [r7, #4]
 8001a7a:	695b      	ldr	r3, [r3, #20]
 8001a7c:	431a      	orrs	r2, r3
 8001a7e:	0011      	movs	r1, r2
                          (hi2c->Init.OwnAddress2Masks << 8));
 8001a80:	687b      	ldr	r3, [r7, #4]
 8001a82:	699b      	ldr	r3, [r3, #24]
 8001a84:	021a      	lsls	r2, r3, #8
  hi2c->Instance->OAR2 = (hi2c->Init.DualAddressMode | hi2c->Init.OwnAddress2 | \
 8001a86:	687b      	ldr	r3, [r7, #4]
 8001a88:	681b      	ldr	r3, [r3, #0]
 8001a8a:	430a      	orrs	r2, r1
 8001a8c:	60da      	str	r2, [r3, #12]

  /*---------------------------- I2Cx CR1 Configuration ----------------------*/
  /* Configure I2Cx: Generalcall and NoStretch mode */
  hi2c->Instance->CR1 = (hi2c->Init.GeneralCallMode | hi2c->Init.NoStretchMode);
 8001a8e:	687b      	ldr	r3, [r7, #4]
 8001a90:	69d9      	ldr	r1, [r3, #28]
 8001a92:	687b      	ldr	r3, [r7, #4]
 8001a94:	6a1a      	ldr	r2, [r3, #32]
 8001a96:	687b      	ldr	r3, [r7, #4]
 8001a98:	681b      	ldr	r3, [r3, #0]
 8001a9a:	430a      	orrs	r2, r1
 8001a9c:	601a      	str	r2, [r3, #0]

  /* Enable the selected I2C peripheral */
  __HAL_I2C_ENABLE(hi2c);
 8001a9e:	687b      	ldr	r3, [r7, #4]
 8001aa0:	681b      	ldr	r3, [r3, #0]
 8001aa2:	681a      	ldr	r2, [r3, #0]
 8001aa4:	687b      	ldr	r3, [r7, #4]
 8001aa6:	681b      	ldr	r3, [r3, #0]
 8001aa8:	2101      	movs	r1, #1
 8001aaa:	430a      	orrs	r2, r1
 8001aac:	601a      	str	r2, [r3, #0]

  hi2c->ErrorCode = HAL_I2C_ERROR_NONE;
 8001aae:	687b      	ldr	r3, [r7, #4]
 8001ab0:	2200      	movs	r2, #0
 8001ab2:	645a      	str	r2, [r3, #68]	; 0x44
  hi2c->State = HAL_I2C_STATE_READY;
 8001ab4:	687b      	ldr	r3, [r7, #4]
 8001ab6:	2241      	movs	r2, #65	; 0x41
 8001ab8:	2120      	movs	r1, #32
 8001aba:	5499      	strb	r1, [r3, r2]
  hi2c->PreviousState = I2C_STATE_NONE;
 8001abc:	687b      	ldr	r3, [r7, #4]
 8001abe:	2200      	movs	r2, #0
 8001ac0:	631a      	str	r2, [r3, #48]	; 0x30
  hi2c->Mode = HAL_I2C_MODE_NONE;
 8001ac2:	687b      	ldr	r3, [r7, #4]
 8001ac4:	2242      	movs	r2, #66	; 0x42
 8001ac6:	2100      	movs	r1, #0
 8001ac8:	5499      	strb	r1, [r3, r2]

  return HAL_OK;
 8001aca:	2300      	movs	r3, #0
}
 8001acc:	0018      	movs	r0, r3
 8001ace:	46bd      	mov	sp, r7
 8001ad0:	b002      	add	sp, #8
 8001ad2:	bd80      	pop	{r7, pc}
 8001ad4:	f0ffffff 	.word	0xf0ffffff
 8001ad8:	ffff7fff 	.word	0xffff7fff
 8001adc:	02008000 	.word	0x02008000

08001ae0 <HAL_I2C_Mem_Write>:
  * @param  Timeout Timeout duration
  * @retval HAL status
  */
HAL_StatusTypeDef HAL_I2C_Mem_Write(I2C_HandleTypeDef *hi2c, uint16_t DevAddress, uint16_t MemAddress,
                                    uint16_t MemAddSize, uint8_t *pData, uint16_t Size, uint32_t Timeout)
{
 8001ae0:	b590      	push	{r4, r7, lr}
 8001ae2:	b089      	sub	sp, #36	; 0x24
 8001ae4:	af02      	add	r7, sp, #8
 8001ae6:	60f8      	str	r0, [r7, #12]
 8001ae8:	000c      	movs	r4, r1
 8001aea:	0010      	movs	r0, r2
 8001aec:	0019      	movs	r1, r3
 8001aee:	230a      	movs	r3, #10
 8001af0:	18fb      	adds	r3, r7, r3
 8001af2:	1c22      	adds	r2, r4, #0
 8001af4:	801a      	strh	r2, [r3, #0]
 8001af6:	2308      	movs	r3, #8
 8001af8:	18fb      	adds	r3, r7, r3
 8001afa:	1c02      	adds	r2, r0, #0
 8001afc:	801a      	strh	r2, [r3, #0]
 8001afe:	1dbb      	adds	r3, r7, #6
 8001b00:	1c0a      	adds	r2, r1, #0
 8001b02:	801a      	strh	r2, [r3, #0]
  uint32_t tickstart;

  /* Check the parameters */
  assert_param(IS_I2C_MEMADD_SIZE(MemAddSize));

  if (hi2c->State == HAL_I2C_STATE_READY)
 8001b04:	68fb      	ldr	r3, [r7, #12]
 8001b06:	2241      	movs	r2, #65	; 0x41
 8001b08:	5c9b      	ldrb	r3, [r3, r2]
 8001b0a:	b2db      	uxtb	r3, r3
 8001b0c:	2b20      	cmp	r3, #32
 8001b0e:	d000      	beq.n	8001b12 <HAL_I2C_Mem_Write+0x32>
 8001b10:	e10c      	b.n	8001d2c <HAL_I2C_Mem_Write+0x24c>
  {
    if ((pData == NULL) || (Size == 0U))
 8001b12:	6abb      	ldr	r3, [r7, #40]	; 0x28
 8001b14:	2b00      	cmp	r3, #0
 8001b16:	d004      	beq.n	8001b22 <HAL_I2C_Mem_Write+0x42>
 8001b18:	232c      	movs	r3, #44	; 0x2c
 8001b1a:	18fb      	adds	r3, r7, r3
 8001b1c:	881b      	ldrh	r3, [r3, #0]
 8001b1e:	2b00      	cmp	r3, #0
 8001b20:	d105      	bne.n	8001b2e <HAL_I2C_Mem_Write+0x4e>
    {
      hi2c->ErrorCode = HAL_I2C_ERROR_INVALID_PARAM;
 8001b22:	68fb      	ldr	r3, [r7, #12]
 8001b24:	2280      	movs	r2, #128	; 0x80
 8001b26:	0092      	lsls	r2, r2, #2
 8001b28:	645a      	str	r2, [r3, #68]	; 0x44
      return  HAL_ERROR;
 8001b2a:	2301      	movs	r3, #1
 8001b2c:	e0ff      	b.n	8001d2e <HAL_I2C_Mem_Write+0x24e>
    }

    /* Process Locked */
    __HAL_LOCK(hi2c);
 8001b2e:	68fb      	ldr	r3, [r7, #12]
 8001b30:	2240      	movs	r2, #64	; 0x40
 8001b32:	5c9b      	ldrb	r3, [r3, r2]
 8001b34:	2b01      	cmp	r3, #1
 8001b36:	d101      	bne.n	8001b3c <HAL_I2C_Mem_Write+0x5c>
 8001b38:	2302      	movs	r3, #2
 8001b3a:	e0f8      	b.n	8001d2e <HAL_I2C_Mem_Write+0x24e>
 8001b3c:	68fb      	ldr	r3, [r7, #12]
 8001b3e:	2240      	movs	r2, #64	; 0x40
 8001b40:	2101      	movs	r1, #1
 8001b42:	5499      	strb	r1, [r3, r2]

    /* Init tickstart for timeout management*/
    tickstart = HAL_GetTick();
 8001b44:	f7ff fb22 	bl	800118c <HAL_GetTick>
 8001b48:	0003      	movs	r3, r0
 8001b4a:	617b      	str	r3, [r7, #20]

    if (I2C_WaitOnFlagUntilTimeout(hi2c, I2C_FLAG_BUSY, SET, I2C_TIMEOUT_BUSY, tickstart) != HAL_OK)
 8001b4c:	2380      	movs	r3, #128	; 0x80
 8001b4e:	0219      	lsls	r1, r3, #8
 8001b50:	68f8      	ldr	r0, [r7, #12]
 8001b52:	697b      	ldr	r3, [r7, #20]
 8001b54:	9300      	str	r3, [sp, #0]
 8001b56:	2319      	movs	r3, #25
 8001b58:	2201      	movs	r2, #1
 8001b5a:	f000 fb0b 	bl	8002174 <I2C_WaitOnFlagUntilTimeout>
 8001b5e:	1e03      	subs	r3, r0, #0
 8001b60:	d001      	beq.n	8001b66 <HAL_I2C_Mem_Write+0x86>
    {
      return HAL_ERROR;
 8001b62:	2301      	movs	r3, #1
 8001b64:	e0e3      	b.n	8001d2e <HAL_I2C_Mem_Write+0x24e>
    }

    hi2c->State     = HAL_I2C_STATE_BUSY_TX;
 8001b66:	68fb      	ldr	r3, [r7, #12]
 8001b68:	2241      	movs	r2, #65	; 0x41
 8001b6a:	2121      	movs	r1, #33	; 0x21
 8001b6c:	5499      	strb	r1, [r3, r2]
    hi2c->Mode      = HAL_I2C_MODE_MEM;
 8001b6e:	68fb      	ldr	r3, [r7, #12]
 8001b70:	2242      	movs	r2, #66	; 0x42
 8001b72:	2140      	movs	r1, #64	; 0x40
 8001b74:	5499      	strb	r1, [r3, r2]
    hi2c->ErrorCode = HAL_I2C_ERROR_NONE;
 8001b76:	68fb      	ldr	r3, [r7, #12]
 8001b78:	2200      	movs	r2, #0
 8001b7a:	645a      	str	r2, [r3, #68]	; 0x44

    /* Prepare transfer parameters */
    hi2c->pBuffPtr  = pData;
 8001b7c:	68fb      	ldr	r3, [r7, #12]
 8001b7e:	6aba      	ldr	r2, [r7, #40]	; 0x28
 8001b80:	625a      	str	r2, [r3, #36]	; 0x24
    hi2c->XferCount = Size;
 8001b82:	68fb      	ldr	r3, [r7, #12]
 8001b84:	222c      	movs	r2, #44	; 0x2c
 8001b86:	18ba      	adds	r2, r7, r2
 8001b88:	8812      	ldrh	r2, [r2, #0]
 8001b8a:	855a      	strh	r2, [r3, #42]	; 0x2a
    hi2c->XferISR   = NULL;
 8001b8c:	68fb      	ldr	r3, [r7, #12]
 8001b8e:	2200      	movs	r2, #0
 8001b90:	635a      	str	r2, [r3, #52]	; 0x34

    /* Send Slave Address and Memory Address */
    if (I2C_RequestMemoryWrite(hi2c, DevAddress, MemAddress, MemAddSize, Timeout, tickstart) != HAL_OK)
 8001b92:	1dbb      	adds	r3, r7, #6
 8001b94:	881c      	ldrh	r4, [r3, #0]
 8001b96:	2308      	movs	r3, #8
 8001b98:	18fb      	adds	r3, r7, r3
 8001b9a:	881a      	ldrh	r2, [r3, #0]
 8001b9c:	230a      	movs	r3, #10
 8001b9e:	18fb      	adds	r3, r7, r3
 8001ba0:	8819      	ldrh	r1, [r3, #0]
 8001ba2:	68f8      	ldr	r0, [r7, #12]
 8001ba4:	697b      	ldr	r3, [r7, #20]
 8001ba6:	9301      	str	r3, [sp, #4]
 8001ba8:	6b3b      	ldr	r3, [r7, #48]	; 0x30
 8001baa:	9300      	str	r3, [sp, #0]
 8001bac:	0023      	movs	r3, r4
 8001bae:	f000 f9f9 	bl	8001fa4 <I2C_RequestMemoryWrite>
 8001bb2:	1e03      	subs	r3, r0, #0
 8001bb4:	d005      	beq.n	8001bc2 <HAL_I2C_Mem_Write+0xe2>
    {
      /* Process Unlocked */
      __HAL_UNLOCK(hi2c);
 8001bb6:	68fb      	ldr	r3, [r7, #12]
 8001bb8:	2240      	movs	r2, #64	; 0x40
 8001bba:	2100      	movs	r1, #0
 8001bbc:	5499      	strb	r1, [r3, r2]
      return HAL_ERROR;
 8001bbe:	2301      	movs	r3, #1
 8001bc0:	e0b5      	b.n	8001d2e <HAL_I2C_Mem_Write+0x24e>
    }

    /* Set NBYTES to write and reload if hi2c->XferCount > MAX_NBYTE_SIZE */
    if (hi2c->XferCount > MAX_NBYTE_SIZE)
 8001bc2:	68fb      	ldr	r3, [r7, #12]
 8001bc4:	8d5b      	ldrh	r3, [r3, #42]	; 0x2a
 8001bc6:	b29b      	uxth	r3, r3
 8001bc8:	2bff      	cmp	r3, #255	; 0xff
 8001bca:	d911      	bls.n	8001bf0 <HAL_I2C_Mem_Write+0x110>
    {
      hi2c->XferSize = MAX_NBYTE_SIZE;
 8001bcc:	68fb      	ldr	r3, [r7, #12]
 8001bce:	22ff      	movs	r2, #255	; 0xff
 8001bd0:	851a      	strh	r2, [r3, #40]	; 0x28
      I2C_TransferConfig(hi2c, DevAddress, (uint8_t)hi2c->XferSize, I2C_RELOAD_MODE, I2C_NO_STARTSTOP);
 8001bd2:	68fb      	ldr	r3, [r7, #12]
 8001bd4:	8d1b      	ldrh	r3, [r3, #40]	; 0x28
 8001bd6:	b2da      	uxtb	r2, r3
 8001bd8:	2380      	movs	r3, #128	; 0x80
 8001bda:	045c      	lsls	r4, r3, #17
 8001bdc:	230a      	movs	r3, #10
 8001bde:	18fb      	adds	r3, r7, r3
 8001be0:	8819      	ldrh	r1, [r3, #0]
 8001be2:	68f8      	ldr	r0, [r7, #12]
 8001be4:	2300      	movs	r3, #0
 8001be6:	9300      	str	r3, [sp, #0]
 8001be8:	0023      	movs	r3, r4
 8001bea:	f000 fbf7 	bl	80023dc <I2C_TransferConfig>
 8001bee:	e012      	b.n	8001c16 <HAL_I2C_Mem_Write+0x136>
    }
    else
    {
      hi2c->XferSize = hi2c->XferCount;
 8001bf0:	68fb      	ldr	r3, [r7, #12]
 8001bf2:	8d5b      	ldrh	r3, [r3, #42]	; 0x2a
 8001bf4:	b29a      	uxth	r2, r3
 8001bf6:	68fb      	ldr	r3, [r7, #12]
 8001bf8:	851a      	strh	r2, [r3, #40]	; 0x28
      I2C_TransferConfig(hi2c, DevAddress, (uint8_t)hi2c->XferSize, I2C_AUTOEND_MODE, I2C_NO_STARTSTOP);
 8001bfa:	68fb      	ldr	r3, [r7, #12]
 8001bfc:	8d1b      	ldrh	r3, [r3, #40]	; 0x28
 8001bfe:	b2da      	uxtb	r2, r3
 8001c00:	2380      	movs	r3, #128	; 0x80
 8001c02:	049c      	lsls	r4, r3, #18
 8001c04:	230a      	movs	r3, #10
 8001c06:	18fb      	adds	r3, r7, r3
 8001c08:	8819      	ldrh	r1, [r3, #0]
 8001c0a:	68f8      	ldr	r0, [r7, #12]
 8001c0c:	2300      	movs	r3, #0
 8001c0e:	9300      	str	r3, [sp, #0]
 8001c10:	0023      	movs	r3, r4
 8001c12:	f000 fbe3 	bl	80023dc <I2C_TransferConfig>
    }

    do
    {
      /* Wait until TXIS flag is set */
      if (I2C_WaitOnTXISFlagUntilTimeout(hi2c, Timeout, tickstart) != HAL_OK)
 8001c16:	697a      	ldr	r2, [r7, #20]
 8001c18:	6b39      	ldr	r1, [r7, #48]	; 0x30
 8001c1a:	68fb      	ldr	r3, [r7, #12]
 8001c1c:	0018      	movs	r0, r3
 8001c1e:	f000 fae8 	bl	80021f2 <I2C_WaitOnTXISFlagUntilTimeout>
 8001c22:	1e03      	subs	r3, r0, #0
 8001c24:	d001      	beq.n	8001c2a <HAL_I2C_Mem_Write+0x14a>
      {
        return HAL_ERROR;
 8001c26:	2301      	movs	r3, #1
 8001c28:	e081      	b.n	8001d2e <HAL_I2C_Mem_Write+0x24e>
      }

      /* Write data to TXDR */
      hi2c->Instance->TXDR = *hi2c->pBuffPtr;
 8001c2a:	68fb      	ldr	r3, [r7, #12]
 8001c2c:	6a5b      	ldr	r3, [r3, #36]	; 0x24
 8001c2e:	781a      	ldrb	r2, [r3, #0]
 8001c30:	68fb      	ldr	r3, [r7, #12]
 8001c32:	681b      	ldr	r3, [r3, #0]
 8001c34:	629a      	str	r2, [r3, #40]	; 0x28

      /* Increment Buffer pointer */
      hi2c->pBuffPtr++;
 8001c36:	68fb      	ldr	r3, [r7, #12]
 8001c38:	6a5b      	ldr	r3, [r3, #36]	; 0x24
 8001c3a:	1c5a      	adds	r2, r3, #1
 8001c3c:	68fb      	ldr	r3, [r7, #12]
 8001c3e:	625a      	str	r2, [r3, #36]	; 0x24

      hi2c->XferCount--;
 8001c40:	68fb      	ldr	r3, [r7, #12]
 8001c42:	8d5b      	ldrh	r3, [r3, #42]	; 0x2a
 8001c44:	b29b      	uxth	r3, r3
 8001c46:	3b01      	subs	r3, #1
 8001c48:	b29a      	uxth	r2, r3
 8001c4a:	68fb      	ldr	r3, [r7, #12]
 8001c4c:	855a      	strh	r2, [r3, #42]	; 0x2a
      hi2c->XferSize--;
 8001c4e:	68fb      	ldr	r3, [r7, #12]
 8001c50:	8d1b      	ldrh	r3, [r3, #40]	; 0x28
 8001c52:	3b01      	subs	r3, #1
 8001c54:	b29a      	uxth	r2, r3
 8001c56:	68fb      	ldr	r3, [r7, #12]
 8001c58:	851a      	strh	r2, [r3, #40]	; 0x28

      if ((hi2c->XferCount != 0U) && (hi2c->XferSize == 0U))
 8001c5a:	68fb      	ldr	r3, [r7, #12]
 8001c5c:	8d5b      	ldrh	r3, [r3, #42]	; 0x2a
 8001c5e:	b29b      	uxth	r3, r3
 8001c60:	2b00      	cmp	r3, #0
 8001c62:	d03a      	beq.n	8001cda <HAL_I2C_Mem_Write+0x1fa>
 8001c64:	68fb      	ldr	r3, [r7, #12]
 8001c66:	8d1b      	ldrh	r3, [r3, #40]	; 0x28
 8001c68:	2b00      	cmp	r3, #0
 8001c6a:	d136      	bne.n	8001cda <HAL_I2C_Mem_Write+0x1fa>
      {
        /* Wait until TCR flag is set */
        if (I2C_WaitOnFlagUntilTimeout(hi2c, I2C_FLAG_TCR, RESET, Timeout, tickstart) != HAL_OK)
 8001c6c:	6b3a      	ldr	r2, [r7, #48]	; 0x30
 8001c6e:	68f8      	ldr	r0, [r7, #12]
 8001c70:	697b      	ldr	r3, [r7, #20]
 8001c72:	9300      	str	r3, [sp, #0]
 8001c74:	0013      	movs	r3, r2
 8001c76:	2200      	movs	r2, #0
 8001c78:	2180      	movs	r1, #128	; 0x80
 8001c7a:	f000 fa7b 	bl	8002174 <I2C_WaitOnFlagUntilTimeout>
 8001c7e:	1e03      	subs	r3, r0, #0
 8001c80:	d001      	beq.n	8001c86 <HAL_I2C_Mem_Write+0x1a6>
        {
          return HAL_ERROR;
 8001c82:	2301      	movs	r3, #1
 8001c84:	e053      	b.n	8001d2e <HAL_I2C_Mem_Write+0x24e>
        }

        if (hi2c->XferCount > MAX_NBYTE_SIZE)
 8001c86:	68fb      	ldr	r3, [r7, #12]
 8001c88:	8d5b      	ldrh	r3, [r3, #42]	; 0x2a
 8001c8a:	b29b      	uxth	r3, r3
 8001c8c:	2bff      	cmp	r3, #255	; 0xff
 8001c8e:	d911      	bls.n	8001cb4 <HAL_I2C_Mem_Write+0x1d4>
        {
          hi2c->XferSize = MAX_NBYTE_SIZE;
 8001c90:	68fb      	ldr	r3, [r7, #12]
 8001c92:	22ff      	movs	r2, #255	; 0xff
 8001c94:	851a      	strh	r2, [r3, #40]	; 0x28
          I2C_TransferConfig(hi2c, DevAddress, (uint8_t)hi2c->XferSize, I2C_RELOAD_MODE,
 8001c96:	68fb      	ldr	r3, [r7, #12]
 8001c98:	8d1b      	ldrh	r3, [r3, #40]	; 0x28
 8001c9a:	b2da      	uxtb	r2, r3
 8001c9c:	2380      	movs	r3, #128	; 0x80
 8001c9e:	045c      	lsls	r4, r3, #17
 8001ca0:	230a      	movs	r3, #10
 8001ca2:	18fb      	adds	r3, r7, r3
 8001ca4:	8819      	ldrh	r1, [r3, #0]
 8001ca6:	68f8      	ldr	r0, [r7, #12]
 8001ca8:	2300      	movs	r3, #0
 8001caa:	9300      	str	r3, [sp, #0]
 8001cac:	0023      	movs	r3, r4
 8001cae:	f000 fb95 	bl	80023dc <I2C_TransferConfig>
 8001cb2:	e012      	b.n	8001cda <HAL_I2C_Mem_Write+0x1fa>
                             I2C_NO_STARTSTOP);
        }
        else
        {
          hi2c->XferSize = hi2c->XferCount;
 8001cb4:	68fb      	ldr	r3, [r7, #12]
 8001cb6:	8d5b      	ldrh	r3, [r3, #42]	; 0x2a
 8001cb8:	b29a      	uxth	r2, r3
 8001cba:	68fb      	ldr	r3, [r7, #12]
 8001cbc:	851a      	strh	r2, [r3, #40]	; 0x28
          I2C_TransferConfig(hi2c, DevAddress, (uint8_t)hi2c->XferSize, I2C_AUTOEND_MODE,
 8001cbe:	68fb      	ldr	r3, [r7, #12]
 8001cc0:	8d1b      	ldrh	r3, [r3, #40]	; 0x28
 8001cc2:	b2da      	uxtb	r2, r3
 8001cc4:	2380      	movs	r3, #128	; 0x80
 8001cc6:	049c      	lsls	r4, r3, #18
 8001cc8:	230a      	movs	r3, #10
 8001cca:	18fb      	adds	r3, r7, r3
 8001ccc:	8819      	ldrh	r1, [r3, #0]
 8001cce:	68f8      	ldr	r0, [r7, #12]
 8001cd0:	2300      	movs	r3, #0
 8001cd2:	9300      	str	r3, [sp, #0]
 8001cd4:	0023      	movs	r3, r4
 8001cd6:	f000 fb81 	bl	80023dc <I2C_TransferConfig>
                             I2C_NO_STARTSTOP);
        }
      }

    } while (hi2c->XferCount > 0U);
 8001cda:	68fb      	ldr	r3, [r7, #12]
 8001cdc:	8d5b      	ldrh	r3, [r3, #42]	; 0x2a
 8001cde:	b29b      	uxth	r3, r3
 8001ce0:	2b00      	cmp	r3, #0
 8001ce2:	d198      	bne.n	8001c16 <HAL_I2C_Mem_Write+0x136>

    /* No need to Check TC flag, with AUTOEND mode the stop is automatically generated */
    /* Wait until STOPF flag is reset */
    if (I2C_WaitOnSTOPFlagUntilTimeout(hi2c, Timeout, tickstart) != HAL_OK)
 8001ce4:	697a      	ldr	r2, [r7, #20]
 8001ce6:	6b39      	ldr	r1, [r7, #48]	; 0x30
 8001ce8:	68fb      	ldr	r3, [r7, #12]
 8001cea:	0018      	movs	r0, r3
 8001cec:	f000 fac0 	bl	8002270 <I2C_WaitOnSTOPFlagUntilTimeout>
 8001cf0:	1e03      	subs	r3, r0, #0
 8001cf2:	d001      	beq.n	8001cf8 <HAL_I2C_Mem_Write+0x218>
    {
      return HAL_ERROR;
 8001cf4:	2301      	movs	r3, #1
 8001cf6:	e01a      	b.n	8001d2e <HAL_I2C_Mem_Write+0x24e>
    }

    /* Clear STOP Flag */
    __HAL_I2C_CLEAR_FLAG(hi2c, I2C_FLAG_STOPF);
 8001cf8:	68fb      	ldr	r3, [r7, #12]
 8001cfa:	681b      	ldr	r3, [r3, #0]
 8001cfc:	2220      	movs	r2, #32
 8001cfe:	61da      	str	r2, [r3, #28]

    /* Clear Configuration Register 2 */
    I2C_RESET_CR2(hi2c);
 8001d00:	68fb      	ldr	r3, [r7, #12]
 8001d02:	681b      	ldr	r3, [r3, #0]
 8001d04:	685a      	ldr	r2, [r3, #4]
 8001d06:	68fb      	ldr	r3, [r7, #12]
 8001d08:	681b      	ldr	r3, [r3, #0]
 8001d0a:	490b      	ldr	r1, [pc, #44]	; (8001d38 <HAL_I2C_Mem_Write+0x258>)
 8001d0c:	400a      	ands	r2, r1
 8001d0e:	605a      	str	r2, [r3, #4]

    hi2c->State = HAL_I2C_STATE_READY;
 8001d10:	68fb      	ldr	r3, [r7, #12]
 8001d12:	2241      	movs	r2, #65	; 0x41
 8001d14:	2120      	movs	r1, #32
 8001d16:	5499      	strb	r1, [r3, r2]
    hi2c->Mode  = HAL_I2C_MODE_NONE;
 8001d18:	68fb      	ldr	r3, [r7, #12]
 8001d1a:	2242      	movs	r2, #66	; 0x42
 8001d1c:	2100      	movs	r1, #0
 8001d1e:	5499      	strb	r1, [r3, r2]

    /* Process Unlocked */
    __HAL_UNLOCK(hi2c);
 8001d20:	68fb      	ldr	r3, [r7, #12]
 8001d22:	2240      	movs	r2, #64	; 0x40
 8001d24:	2100      	movs	r1, #0
 8001d26:	5499      	strb	r1, [r3, r2]

    return HAL_OK;
 8001d28:	2300      	movs	r3, #0
 8001d2a:	e000      	b.n	8001d2e <HAL_I2C_Mem_Write+0x24e>
  }
  else
  {
    return HAL_BUSY;
 8001d2c:	2302      	movs	r3, #2
  }
}
 8001d2e:	0018      	movs	r0, r3
 8001d30:	46bd      	mov	sp, r7
 8001d32:	b007      	add	sp, #28
 8001d34:	bd90      	pop	{r4, r7, pc}
 8001d36:	46c0      	nop			; (mov r8, r8)
 8001d38:	fe00e800 	.word	0xfe00e800

08001d3c <HAL_I2C_Mem_Read>:
  * @param  Timeout Timeout duration
  * @retval HAL status
  */
HAL_StatusTypeDef HAL_I2C_Mem_Read(I2C_HandleTypeDef *hi2c, uint16_t DevAddress, uint16_t MemAddress,
                                   uint16_t MemAddSize, uint8_t *pData, uint16_t Size, uint32_t Timeout)
{
 8001d3c:	b590      	push	{r4, r7, lr}
 8001d3e:	b089      	sub	sp, #36	; 0x24
 8001d40:	af02      	add	r7, sp, #8
 8001d42:	60f8      	str	r0, [r7, #12]
 8001d44:	000c      	movs	r4, r1
 8001d46:	0010      	movs	r0, r2
 8001d48:	0019      	movs	r1, r3
 8001d4a:	230a      	movs	r3, #10
 8001d4c:	18fb      	adds	r3, r7, r3
 8001d4e:	1c22      	adds	r2, r4, #0
 8001d50:	801a      	strh	r2, [r3, #0]
 8001d52:	2308      	movs	r3, #8
 8001d54:	18fb      	adds	r3, r7, r3
 8001d56:	1c02      	adds	r2, r0, #0
 8001d58:	801a      	strh	r2, [r3, #0]
 8001d5a:	1dbb      	adds	r3, r7, #6
 8001d5c:	1c0a      	adds	r2, r1, #0
 8001d5e:	801a      	strh	r2, [r3, #0]
  uint32_t tickstart;

  /* Check the parameters */
  assert_param(IS_I2C_MEMADD_SIZE(MemAddSize));

  if (hi2c->State == HAL_I2C_STATE_READY)
 8001d60:	68fb      	ldr	r3, [r7, #12]
 8001d62:	2241      	movs	r2, #65	; 0x41
 8001d64:	5c9b      	ldrb	r3, [r3, r2]
 8001d66:	b2db      	uxtb	r3, r3
 8001d68:	2b20      	cmp	r3, #32
 8001d6a:	d000      	beq.n	8001d6e <HAL_I2C_Mem_Read+0x32>
 8001d6c:	e110      	b.n	8001f90 <HAL_I2C_Mem_Read+0x254>
  {
    if ((pData == NULL) || (Size == 0U))
 8001d6e:	6abb      	ldr	r3, [r7, #40]	; 0x28
 8001d70:	2b00      	cmp	r3, #0
 8001d72:	d004      	beq.n	8001d7e <HAL_I2C_Mem_Read+0x42>
 8001d74:	232c      	movs	r3, #44	; 0x2c
 8001d76:	18fb      	adds	r3, r7, r3
 8001d78:	881b      	ldrh	r3, [r3, #0]
 8001d7a:	2b00      	cmp	r3, #0
 8001d7c:	d105      	bne.n	8001d8a <HAL_I2C_Mem_Read+0x4e>
    {
      hi2c->ErrorCode = HAL_I2C_ERROR_INVALID_PARAM;
 8001d7e:	68fb      	ldr	r3, [r7, #12]
 8001d80:	2280      	movs	r2, #128	; 0x80
 8001d82:	0092      	lsls	r2, r2, #2
 8001d84:	645a      	str	r2, [r3, #68]	; 0x44
      return  HAL_ERROR;
 8001d86:	2301      	movs	r3, #1
 8001d88:	e103      	b.n	8001f92 <HAL_I2C_Mem_Read+0x256>
    }

    /* Process Locked */
    __HAL_LOCK(hi2c);
 8001d8a:	68fb      	ldr	r3, [r7, #12]
 8001d8c:	2240      	movs	r2, #64	; 0x40
 8001d8e:	5c9b      	ldrb	r3, [r3, r2]
 8001d90:	2b01      	cmp	r3, #1
 8001d92:	d101      	bne.n	8001d98 <HAL_I2C_Mem_Read+0x5c>
 8001d94:	2302      	movs	r3, #2
 8001d96:	e0fc      	b.n	8001f92 <HAL_I2C_Mem_Read+0x256>
 8001d98:	68fb      	ldr	r3, [r7, #12]
 8001d9a:	2240      	movs	r2, #64	; 0x40
 8001d9c:	2101      	movs	r1, #1
 8001d9e:	5499      	strb	r1, [r3, r2]

    /* Init tickstart for timeout management*/
    tickstart = HAL_GetTick();
 8001da0:	f7ff f9f4 	bl	800118c <HAL_GetTick>
 8001da4:	0003      	movs	r3, r0
 8001da6:	617b      	str	r3, [r7, #20]

    if (I2C_WaitOnFlagUntilTimeout(hi2c, I2C_FLAG_BUSY, SET, I2C_TIMEOUT_BUSY, tickstart) != HAL_OK)
 8001da8:	2380      	movs	r3, #128	; 0x80
 8001daa:	0219      	lsls	r1, r3, #8
 8001dac:	68f8      	ldr	r0, [r7, #12]
 8001dae:	697b      	ldr	r3, [r7, #20]
 8001db0:	9300      	str	r3, [sp, #0]
 8001db2:	2319      	movs	r3, #25
 8001db4:	2201      	movs	r2, #1
 8001db6:	f000 f9dd 	bl	8002174 <I2C_WaitOnFlagUntilTimeout>
 8001dba:	1e03      	subs	r3, r0, #0
 8001dbc:	d001      	beq.n	8001dc2 <HAL_I2C_Mem_Read+0x86>
    {
      return HAL_ERROR;
 8001dbe:	2301      	movs	r3, #1
 8001dc0:	e0e7      	b.n	8001f92 <HAL_I2C_Mem_Read+0x256>
    }

    hi2c->State     = HAL_I2C_STATE_BUSY_RX;
 8001dc2:	68fb      	ldr	r3, [r7, #12]
 8001dc4:	2241      	movs	r2, #65	; 0x41
 8001dc6:	2122      	movs	r1, #34	; 0x22
 8001dc8:	5499      	strb	r1, [r3, r2]
    hi2c->Mode      = HAL_I2C_MODE_MEM;
 8001dca:	68fb      	ldr	r3, [r7, #12]
 8001dcc:	2242      	movs	r2, #66	; 0x42
 8001dce:	2140      	movs	r1, #64	; 0x40
 8001dd0:	5499      	strb	r1, [r3, r2]
    hi2c->ErrorCode = HAL_I2C_ERROR_NONE;
 8001dd2:	68fb      	ldr	r3, [r7, #12]
 8001dd4:	2200      	movs	r2, #0
 8001dd6:	645a      	str	r2, [r3, #68]	; 0x44

    /* Prepare transfer parameters */
    hi2c->pBuffPtr  = pData;
 8001dd8:	68fb      	ldr	r3, [r7, #12]
 8001dda:	6aba      	ldr	r2, [r7, #40]	; 0x28
 8001ddc:	625a      	str	r2, [r3, #36]	; 0x24
    hi2c->XferCount = Size;
 8001dde:	68fb      	ldr	r3, [r7, #12]
 8001de0:	222c      	movs	r2, #44	; 0x2c
 8001de2:	18ba      	adds	r2, r7, r2
 8001de4:	8812      	ldrh	r2, [r2, #0]
 8001de6:	855a      	strh	r2, [r3, #42]	; 0x2a
    hi2c->XferISR   = NULL;
 8001de8:	68fb      	ldr	r3, [r7, #12]
 8001dea:	2200      	movs	r2, #0
 8001dec:	635a      	str	r2, [r3, #52]	; 0x34

    /* Send Slave Address and Memory Address */
    if (I2C_RequestMemoryRead(hi2c, DevAddress, MemAddress, MemAddSize, Timeout, tickstart) != HAL_OK)
 8001dee:	1dbb      	adds	r3, r7, #6
 8001df0:	881c      	ldrh	r4, [r3, #0]
 8001df2:	2308      	movs	r3, #8
 8001df4:	18fb      	adds	r3, r7, r3
 8001df6:	881a      	ldrh	r2, [r3, #0]
 8001df8:	230a      	movs	r3, #10
 8001dfa:	18fb      	adds	r3, r7, r3
 8001dfc:	8819      	ldrh	r1, [r3, #0]
 8001dfe:	68f8      	ldr	r0, [r7, #12]
 8001e00:	697b      	ldr	r3, [r7, #20]
 8001e02:	9301      	str	r3, [sp, #4]
 8001e04:	6b3b      	ldr	r3, [r7, #48]	; 0x30
 8001e06:	9300      	str	r3, [sp, #0]
 8001e08:	0023      	movs	r3, r4
 8001e0a:	f000 f92f 	bl	800206c <I2C_RequestMemoryRead>
 8001e0e:	1e03      	subs	r3, r0, #0
 8001e10:	d005      	beq.n	8001e1e <HAL_I2C_Mem_Read+0xe2>
    {
      /* Process Unlocked */
      __HAL_UNLOCK(hi2c);
 8001e12:	68fb      	ldr	r3, [r7, #12]
 8001e14:	2240      	movs	r2, #64	; 0x40
 8001e16:	2100      	movs	r1, #0
 8001e18:	5499      	strb	r1, [r3, r2]
      return HAL_ERROR;
 8001e1a:	2301      	movs	r3, #1
 8001e1c:	e0b9      	b.n	8001f92 <HAL_I2C_Mem_Read+0x256>
    }

    /* Send Slave Address */
    /* Set NBYTES to write and reload if hi2c->XferCount > MAX_NBYTE_SIZE and generate RESTART */
    if (hi2c->XferCount > MAX_NBYTE_SIZE)
 8001e1e:	68fb      	ldr	r3, [r7, #12]
 8001e20:	8d5b      	ldrh	r3, [r3, #42]	; 0x2a
 8001e22:	b29b      	uxth	r3, r3
 8001e24:	2bff      	cmp	r3, #255	; 0xff
 8001e26:	d911      	bls.n	8001e4c <HAL_I2C_Mem_Read+0x110>
    {
      hi2c->XferSize = MAX_NBYTE_SIZE;
 8001e28:	68fb      	ldr	r3, [r7, #12]
 8001e2a:	22ff      	movs	r2, #255	; 0xff
 8001e2c:	851a      	strh	r2, [r3, #40]	; 0x28
      I2C_TransferConfig(hi2c, DevAddress, (uint8_t)hi2c->XferSize, I2C_RELOAD_MODE,
 8001e2e:	68fb      	ldr	r3, [r7, #12]
 8001e30:	8d1b      	ldrh	r3, [r3, #40]	; 0x28
 8001e32:	b2da      	uxtb	r2, r3
 8001e34:	2380      	movs	r3, #128	; 0x80
 8001e36:	045c      	lsls	r4, r3, #17
 8001e38:	230a      	movs	r3, #10
 8001e3a:	18fb      	adds	r3, r7, r3
 8001e3c:	8819      	ldrh	r1, [r3, #0]
 8001e3e:	68f8      	ldr	r0, [r7, #12]
 8001e40:	4b56      	ldr	r3, [pc, #344]	; (8001f9c <HAL_I2C_Mem_Read+0x260>)
 8001e42:	9300      	str	r3, [sp, #0]
 8001e44:	0023      	movs	r3, r4
 8001e46:	f000 fac9 	bl	80023dc <I2C_TransferConfig>
 8001e4a:	e012      	b.n	8001e72 <HAL_I2C_Mem_Read+0x136>
                         I2C_GENERATE_START_READ);
    }
    else
    {
      hi2c->XferSize = hi2c->XferCount;
 8001e4c:	68fb      	ldr	r3, [r7, #12]
 8001e4e:	8d5b      	ldrh	r3, [r3, #42]	; 0x2a
 8001e50:	b29a      	uxth	r2, r3
 8001e52:	68fb      	ldr	r3, [r7, #12]
 8001e54:	851a      	strh	r2, [r3, #40]	; 0x28
      I2C_TransferConfig(hi2c, DevAddress, (uint8_t)hi2c->XferSize, I2C_AUTOEND_MODE,
 8001e56:	68fb      	ldr	r3, [r7, #12]
 8001e58:	8d1b      	ldrh	r3, [r3, #40]	; 0x28
 8001e5a:	b2da      	uxtb	r2, r3
 8001e5c:	2380      	movs	r3, #128	; 0x80
 8001e5e:	049c      	lsls	r4, r3, #18
 8001e60:	230a      	movs	r3, #10
 8001e62:	18fb      	adds	r3, r7, r3
 8001e64:	8819      	ldrh	r1, [r3, #0]
 8001e66:	68f8      	ldr	r0, [r7, #12]
 8001e68:	4b4c      	ldr	r3, [pc, #304]	; (8001f9c <HAL_I2C_Mem_Read+0x260>)
 8001e6a:	9300      	str	r3, [sp, #0]
 8001e6c:	0023      	movs	r3, r4
 8001e6e:	f000 fab5 	bl	80023dc <I2C_TransferConfig>
    }

    do
    {
      /* Wait until RXNE flag is set */
      if (I2C_WaitOnFlagUntilTimeout(hi2c, I2C_FLAG_RXNE, RESET, Timeout, tickstart) != HAL_OK)
 8001e72:	6b3a      	ldr	r2, [r7, #48]	; 0x30
 8001e74:	68f8      	ldr	r0, [r7, #12]
 8001e76:	697b      	ldr	r3, [r7, #20]
 8001e78:	9300      	str	r3, [sp, #0]
 8001e7a:	0013      	movs	r3, r2
 8001e7c:	2200      	movs	r2, #0
 8001e7e:	2104      	movs	r1, #4
 8001e80:	f000 f978 	bl	8002174 <I2C_WaitOnFlagUntilTimeout>
 8001e84:	1e03      	subs	r3, r0, #0
 8001e86:	d001      	beq.n	8001e8c <HAL_I2C_Mem_Read+0x150>
      {
        return HAL_ERROR;
 8001e88:	2301      	movs	r3, #1
 8001e8a:	e082      	b.n	8001f92 <HAL_I2C_Mem_Read+0x256>
      }

      /* Read data from RXDR */
      *hi2c->pBuffPtr = (uint8_t)hi2c->Instance->RXDR;
 8001e8c:	68fb      	ldr	r3, [r7, #12]
 8001e8e:	681b      	ldr	r3, [r3, #0]
 8001e90:	6a5a      	ldr	r2, [r3, #36]	; 0x24
 8001e92:	68fb      	ldr	r3, [r7, #12]
 8001e94:	6a5b      	ldr	r3, [r3, #36]	; 0x24
 8001e96:	b2d2      	uxtb	r2, r2
 8001e98:	701a      	strb	r2, [r3, #0]

      /* Increment Buffer pointer */
      hi2c->pBuffPtr++;
 8001e9a:	68fb      	ldr	r3, [r7, #12]
 8001e9c:	6a5b      	ldr	r3, [r3, #36]	; 0x24
 8001e9e:	1c5a      	adds	r2, r3, #1
 8001ea0:	68fb      	ldr	r3, [r7, #12]
 8001ea2:	625a      	str	r2, [r3, #36]	; 0x24

      hi2c->XferSize--;
 8001ea4:	68fb      	ldr	r3, [r7, #12]
 8001ea6:	8d1b      	ldrh	r3, [r3, #40]	; 0x28
 8001ea8:	3b01      	subs	r3, #1
 8001eaa:	b29a      	uxth	r2, r3
 8001eac:	68fb      	ldr	r3, [r7, #12]
 8001eae:	851a      	strh	r2, [r3, #40]	; 0x28
      hi2c->XferCount--;
 8001eb0:	68fb      	ldr	r3, [r7, #12]
 8001eb2:	8d5b      	ldrh	r3, [r3, #42]	; 0x2a
 8001eb4:	b29b      	uxth	r3, r3
 8001eb6:	3b01      	subs	r3, #1
 8001eb8:	b29a      	uxth	r2, r3
 8001eba:	68fb      	ldr	r3, [r7, #12]
 8001ebc:	855a      	strh	r2, [r3, #42]	; 0x2a

      if ((hi2c->XferCount != 0U) && (hi2c->XferSize == 0U))
 8001ebe:	68fb      	ldr	r3, [r7, #12]
 8001ec0:	8d5b      	ldrh	r3, [r3, #42]	; 0x2a
 8001ec2:	b29b      	uxth	r3, r3
 8001ec4:	2b00      	cmp	r3, #0
 8001ec6:	d03a      	beq.n	8001f3e <HAL_I2C_Mem_Read+0x202>
 8001ec8:	68fb      	ldr	r3, [r7, #12]
 8001eca:	8d1b      	ldrh	r3, [r3, #40]	; 0x28
 8001ecc:	2b00      	cmp	r3, #0
 8001ece:	d136      	bne.n	8001f3e <HAL_I2C_Mem_Read+0x202>
      {
        /* Wait until TCR flag is set */
        if (I2C_WaitOnFlagUntilTimeout(hi2c, I2C_FLAG_TCR, RESET, Timeout, tickstart) != HAL_OK)
 8001ed0:	6b3a      	ldr	r2, [r7, #48]	; 0x30
 8001ed2:	68f8      	ldr	r0, [r7, #12]
 8001ed4:	697b      	ldr	r3, [r7, #20]
 8001ed6:	9300      	str	r3, [sp, #0]
 8001ed8:	0013      	movs	r3, r2
 8001eda:	2200      	movs	r2, #0
 8001edc:	2180      	movs	r1, #128	; 0x80
 8001ede:	f000 f949 	bl	8002174 <I2C_WaitOnFlagUntilTimeout>
 8001ee2:	1e03      	subs	r3, r0, #0
 8001ee4:	d001      	beq.n	8001eea <HAL_I2C_Mem_Read+0x1ae>
        {
          return HAL_ERROR;
 8001ee6:	2301      	movs	r3, #1
 8001ee8:	e053      	b.n	8001f92 <HAL_I2C_Mem_Read+0x256>
        }

        if (hi2c->XferCount > MAX_NBYTE_SIZE)
 8001eea:	68fb      	ldr	r3, [r7, #12]
 8001eec:	8d5b      	ldrh	r3, [r3, #42]	; 0x2a
 8001eee:	b29b      	uxth	r3, r3
 8001ef0:	2bff      	cmp	r3, #255	; 0xff
 8001ef2:	d911      	bls.n	8001f18 <HAL_I2C_Mem_Read+0x1dc>
        {
          hi2c->XferSize = MAX_NBYTE_SIZE;
 8001ef4:	68fb      	ldr	r3, [r7, #12]
 8001ef6:	22ff      	movs	r2, #255	; 0xff
 8001ef8:	851a      	strh	r2, [r3, #40]	; 0x28
          I2C_TransferConfig(hi2c, DevAddress, (uint8_t) hi2c->XferSize, I2C_RELOAD_MODE,
 8001efa:	68fb      	ldr	r3, [r7, #12]
 8001efc:	8d1b      	ldrh	r3, [r3, #40]	; 0x28
 8001efe:	b2da      	uxtb	r2, r3
 8001f00:	2380      	movs	r3, #128	; 0x80
 8001f02:	045c      	lsls	r4, r3, #17
 8001f04:	230a      	movs	r3, #10
 8001f06:	18fb      	adds	r3, r7, r3
 8001f08:	8819      	ldrh	r1, [r3, #0]
 8001f0a:	68f8      	ldr	r0, [r7, #12]
 8001f0c:	2300      	movs	r3, #0
 8001f0e:	9300      	str	r3, [sp, #0]
 8001f10:	0023      	movs	r3, r4
 8001f12:	f000 fa63 	bl	80023dc <I2C_TransferConfig>
 8001f16:	e012      	b.n	8001f3e <HAL_I2C_Mem_Read+0x202>
                             I2C_NO_STARTSTOP);
        }
        else
        {
          hi2c->XferSize = hi2c->XferCount;
 8001f18:	68fb      	ldr	r3, [r7, #12]
 8001f1a:	8d5b      	ldrh	r3, [r3, #42]	; 0x2a
 8001f1c:	b29a      	uxth	r2, r3
 8001f1e:	68fb      	ldr	r3, [r7, #12]
 8001f20:	851a      	strh	r2, [r3, #40]	; 0x28
          I2C_TransferConfig(hi2c, DevAddress, (uint8_t)hi2c->XferSize, I2C_AUTOEND_MODE,
 8001f22:	68fb      	ldr	r3, [r7, #12]
 8001f24:	8d1b      	ldrh	r3, [r3, #40]	; 0x28
 8001f26:	b2da      	uxtb	r2, r3
 8001f28:	2380      	movs	r3, #128	; 0x80
 8001f2a:	049c      	lsls	r4, r3, #18
 8001f2c:	230a      	movs	r3, #10
 8001f2e:	18fb      	adds	r3, r7, r3
 8001f30:	8819      	ldrh	r1, [r3, #0]
 8001f32:	68f8      	ldr	r0, [r7, #12]
 8001f34:	2300      	movs	r3, #0
 8001f36:	9300      	str	r3, [sp, #0]
 8001f38:	0023      	movs	r3, r4
 8001f3a:	f000 fa4f 	bl	80023dc <I2C_TransferConfig>
                             I2C_NO_STARTSTOP);
        }
      }
    } while (hi2c->XferCount > 0U);
 8001f3e:	68fb      	ldr	r3, [r7, #12]
 8001f40:	8d5b      	ldrh	r3, [r3, #42]	; 0x2a
 8001f42:	b29b      	uxth	r3, r3
 8001f44:	2b00      	cmp	r3, #0
 8001f46:	d194      	bne.n	8001e72 <HAL_I2C_Mem_Read+0x136>

    /* No need to Check TC flag, with AUTOEND mode the stop is automatically generated */
    /* Wait until STOPF flag is reset */
    if (I2C_WaitOnSTOPFlagUntilTimeout(hi2c, Timeout, tickstart) != HAL_OK)
 8001f48:	697a      	ldr	r2, [r7, #20]
 8001f4a:	6b39      	ldr	r1, [r7, #48]	; 0x30
 8001f4c:	68fb      	ldr	r3, [r7, #12]
 8001f4e:	0018      	movs	r0, r3
 8001f50:	f000 f98e 	bl	8002270 <I2C_WaitOnSTOPFlagUntilTimeout>
 8001f54:	1e03      	subs	r3, r0, #0
 8001f56:	d001      	beq.n	8001f5c <HAL_I2C_Mem_Read+0x220>
    {
      return HAL_ERROR;
 8001f58:	2301      	movs	r3, #1
 8001f5a:	e01a      	b.n	8001f92 <HAL_I2C_Mem_Read+0x256>
    }

    /* Clear STOP Flag */
    __HAL_I2C_CLEAR_FLAG(hi2c, I2C_FLAG_STOPF);
 8001f5c:	68fb      	ldr	r3, [r7, #12]
 8001f5e:	681b      	ldr	r3, [r3, #0]
 8001f60:	2220      	movs	r2, #32
 8001f62:	61da      	str	r2, [r3, #28]

    /* Clear Configuration Register 2 */
    I2C_RESET_CR2(hi2c);
 8001f64:	68fb      	ldr	r3, [r7, #12]
 8001f66:	681b      	ldr	r3, [r3, #0]
 8001f68:	685a      	ldr	r2, [r3, #4]
 8001f6a:	68fb      	ldr	r3, [r7, #12]
 8001f6c:	681b      	ldr	r3, [r3, #0]
 8001f6e:	490c      	ldr	r1, [pc, #48]	; (8001fa0 <HAL_I2C_Mem_Read+0x264>)
 8001f70:	400a      	ands	r2, r1
 8001f72:	605a      	str	r2, [r3, #4]

    hi2c->State = HAL_I2C_STATE_READY;
 8001f74:	68fb      	ldr	r3, [r7, #12]
 8001f76:	2241      	movs	r2, #65	; 0x41
 8001f78:	2120      	movs	r1, #32
 8001f7a:	5499      	strb	r1, [r3, r2]
    hi2c->Mode  = HAL_I2C_MODE_NONE;
 8001f7c:	68fb      	ldr	r3, [r7, #12]
 8001f7e:	2242      	movs	r2, #66	; 0x42
 8001f80:	2100      	movs	r1, #0
 8001f82:	5499      	strb	r1, [r3, r2]

    /* Process Unlocked */
    __HAL_UNLOCK(hi2c);
 8001f84:	68fb      	ldr	r3, [r7, #12]
 8001f86:	2240      	movs	r2, #64	; 0x40
 8001f88:	2100      	movs	r1, #0
 8001f8a:	5499      	strb	r1, [r3, r2]

    return HAL_OK;
 8001f8c:	2300      	movs	r3, #0
 8001f8e:	e000      	b.n	8001f92 <HAL_I2C_Mem_Read+0x256>
  }
  else
  {
    return HAL_BUSY;
 8001f90:	2302      	movs	r3, #2
  }
}
 8001f92:	0018      	movs	r0, r3
 8001f94:	46bd      	mov	sp, r7
 8001f96:	b007      	add	sp, #28
 8001f98:	bd90      	pop	{r4, r7, pc}
 8001f9a:	46c0      	nop			; (mov r8, r8)
 8001f9c:	80002400 	.word	0x80002400
 8001fa0:	fe00e800 	.word	0xfe00e800

08001fa4 <I2C_RequestMemoryWrite>:
  * @retval HAL status
  */
static HAL_StatusTypeDef I2C_RequestMemoryWrite(I2C_HandleTypeDef *hi2c, uint16_t DevAddress,
                                                uint16_t MemAddress, uint16_t MemAddSize, uint32_t Timeout,
                                                uint32_t Tickstart)
{
 8001fa4:	b5b0      	push	{r4, r5, r7, lr}
 8001fa6:	b086      	sub	sp, #24
 8001fa8:	af02      	add	r7, sp, #8
 8001faa:	60f8      	str	r0, [r7, #12]
 8001fac:	000c      	movs	r4, r1
 8001fae:	0010      	movs	r0, r2
 8001fb0:	0019      	movs	r1, r3
 8001fb2:	250a      	movs	r5, #10
 8001fb4:	197b      	adds	r3, r7, r5
 8001fb6:	1c22      	adds	r2, r4, #0
 8001fb8:	801a      	strh	r2, [r3, #0]
 8001fba:	2308      	movs	r3, #8
